{
  "_format": "hh-sol-artifact-1",
  "contractName": "ERC3525Upgradeable",
  "sourceName": "contracts/ERC3525Upgradeable.sol",
  "abi": [
    {
      "anonymous": false,
      "inputs": [
        {
          "indexed": true,
          "internalType": "address",
          "name": "owner",
          "type": "address"
        },
        {
          "indexed": true,
          "internalType": "address",
          "name": "approved",
          "type": "address"
        },
        {
          "indexed": true,
          "internalType": "uint256",
          "name": "tokenId",
          "type": "uint256"
        }
      ],
      "name": "Approval",
      "type": "event"
    },
    {
      "anonymous": false,
      "inputs": [
        {
          "indexed": true,
          "internalType": "address",
          "name": "owner",
          "type": "address"
        },
        {
          "indexed": true,
          "internalType": "address",
          "name": "operator",
          "type": "address"
        },
        {
          "indexed": false,
          "internalType": "bool",
          "name": "approved",
          "type": "bool"
        }
      ],
      "name": "ApprovalForAll",
      "type": "event"
    },
    {
      "anonymous": false,
      "inputs": [
        {
          "indexed": true,
          "internalType": "uint256",
          "name": "_tokenId",
          "type": "uint256"
        },
        {
          "indexed": true,
          "internalType": "address",
          "name": "_operator",
          "type": "address"
        },
        {
          "indexed": false,
          "internalType": "uint256",
          "name": "_value",
          "type": "uint256"
        }
      ],
      "name": "ApprovalValue",
      "type": "event"
    },
    {
      "anonymous": false,
      "inputs": [
        {
          "indexed": false,
          "internalType": "uint8",
          "name": "version",
          "type": "uint8"
        }
      ],
      "name": "Initialized",
      "type": "event"
    },
    {
      "anonymous": false,
      "inputs": [
        {
          "indexed": true,
          "internalType": "uint256",
          "name": "_tokenId",
          "type": "uint256"
        },
        {
          "indexed": true,
          "internalType": "uint256",
          "name": "_oldSlot",
          "type": "uint256"
        },
        {
          "indexed": true,
          "internalType": "uint256",
          "name": "_newSlot",
          "type": "uint256"
        }
      ],
      "name": "SlotChanged",
      "type": "event"
    },
    {
      "anonymous": false,
      "inputs": [
        {
          "indexed": true,
          "internalType": "address",
          "name": "from",
          "type": "address"
        },
        {
          "indexed": true,
          "internalType": "address",
          "name": "to",
          "type": "address"
        },
        {
          "indexed": true,
          "internalType": "uint256",
          "name": "tokenId",
          "type": "uint256"
        }
      ],
      "name": "Transfer",
      "type": "event"
    },
    {
      "anonymous": false,
      "inputs": [
        {
          "indexed": true,
          "internalType": "uint256",
          "name": "_fromTokenId",
          "type": "uint256"
        },
        {
          "indexed": true,
          "internalType": "uint256",
          "name": "_toTokenId",
          "type": "uint256"
        },
        {
          "indexed": false,
          "internalType": "uint256",
          "name": "_value",
          "type": "uint256"
        }
      ],
      "name": "TransferValue",
      "type": "event"
    },
    {
      "inputs": [
        {
          "internalType": "uint256",
          "name": "tokenId_",
          "type": "uint256"
        },
        {
          "internalType": "address",
          "name": "operator_",
          "type": "address"
        }
      ],
      "name": "allowance",
      "outputs": [
        {
          "internalType": "uint256",
          "name": "",
          "type": "uint256"
        }
      ],
      "stateMutability": "view",
      "type": "function"
    },
    {
      "inputs": [
        {
          "internalType": "address",
          "name": "to",
          "type": "address"
        },
        {
          "internalType": "uint256",
          "name": "tokenId",
          "type": "uint256"
        }
      ],
      "name": "approve",
      "outputs": [],
      "stateMutability": "nonpayable",
      "type": "function"
    },
    {
      "inputs": [
        {
          "internalType": "uint256",
          "name": "tokenId_",
          "type": "uint256"
        },
        {
          "internalType": "address",
          "name": "to_",
          "type": "address"
        },
        {
          "internalType": "uint256",
          "name": "value_",
          "type": "uint256"
        }
      ],
      "name": "approve",
      "outputs": [],
      "stateMutability": "payable",
      "type": "function"
    },
    {
      "inputs": [
        {
          "internalType": "address",
          "name": "owner",
          "type": "address"
        }
      ],
      "name": "balanceOf",
      "outputs": [
        {
          "internalType": "uint256",
          "name": "",
          "type": "uint256"
        }
      ],
      "stateMutability": "view",
      "type": "function"
    },
    {
      "inputs": [
        {
          "internalType": "uint256",
          "name": "tokenId_",
          "type": "uint256"
        }
      ],
      "name": "balanceOf",
      "outputs": [
        {
          "internalType": "uint256",
          "name": "",
          "type": "uint256"
        }
      ],
      "stateMutability": "view",
      "type": "function"
    },
    {
      "inputs": [
        {
          "internalType": "uint256",
          "name": "tokenId",
          "type": "uint256"
        }
      ],
      "name": "burn",
      "outputs": [],
      "stateMutability": "nonpayable",
      "type": "function"
    },
    {
      "inputs": [],
      "name": "contractURI",
      "outputs": [
        {
          "internalType": "string",
          "name": "",
          "type": "string"
        }
      ],
      "stateMutability": "view",
      "type": "function"
    },
    {
      "inputs": [
        {
          "internalType": "uint256",
          "name": "tokenId",
          "type": "uint256"
        }
      ],
      "name": "getApproved",
      "outputs": [
        {
          "internalType": "address",
          "name": "",
          "type": "address"
        }
      ],
      "stateMutability": "view",
      "type": "function"
    },
    {
      "inputs": [],
      "name": "initialize",
      "outputs": [],
      "stateMutability": "nonpayable",
      "type": "function"
    },
    {
      "inputs": [
        {
          "internalType": "address",
          "name": "owner",
          "type": "address"
        },
        {
          "internalType": "address",
          "name": "operator",
          "type": "address"
        }
      ],
      "name": "isApprovedForAll",
      "outputs": [
        {
          "internalType": "bool",
          "name": "",
          "type": "bool"
        }
      ],
      "stateMutability": "view",
      "type": "function"
    },
    {
      "inputs": [],
      "name": "name",
      "outputs": [
        {
          "internalType": "string",
          "name": "",
          "type": "string"
        }
      ],
      "stateMutability": "view",
      "type": "function"
    },
    {
      "inputs": [
        {
          "internalType": "uint256",
          "name": "tokenId",
          "type": "uint256"
        }
      ],
      "name": "ownerOf",
      "outputs": [
        {
          "internalType": "address",
          "name": "",
          "type": "address"
        }
      ],
      "stateMutability": "view",
      "type": "function"
    },
    {
      "inputs": [
        {
          "internalType": "address",
          "name": "from",
          "type": "address"
        },
        {
          "internalType": "address",
          "name": "to",
          "type": "address"
        },
        {
          "internalType": "uint256",
          "name": "tokenId",
          "type": "uint256"
        }
      ],
      "name": "safeTransferFrom",
      "outputs": [],
      "stateMutability": "nonpayable",
      "type": "function"
    },
    {
      "inputs": [
        {
          "internalType": "address",
          "name": "from",
          "type": "address"
        },
        {
          "internalType": "address",
          "name": "to",
          "type": "address"
        },
        {
          "internalType": "uint256",
          "name": "tokenId",
          "type": "uint256"
        },
        {
          "internalType": "bytes",
          "name": "data",
          "type": "bytes"
        }
      ],
      "name": "safeTransferFrom",
      "outputs": [],
      "stateMutability": "nonpayable",
      "type": "function"
    },
    {
      "inputs": [
        {
          "internalType": "address",
          "name": "operator",
          "type": "address"
        },
        {
          "internalType": "bool",
          "name": "approved",
          "type": "bool"
        }
      ],
      "name": "setApprovalForAll",
      "outputs": [],
      "stateMutability": "nonpayable",
      "type": "function"
    },
    {
      "inputs": [
        {
          "internalType": "uint256",
          "name": "_index",
          "type": "uint256"
        }
      ],
      "name": "slotByIndex",
      "outputs": [
        {
          "internalType": "uint256",
          "name": "",
          "type": "uint256"
        }
      ],
      "stateMutability": "view",
      "type": "function"
    },
    {
      "inputs": [],
      "name": "slotCount",
      "outputs": [
        {
          "internalType": "uint256",
          "name": "",
          "type": "uint256"
        }
      ],
      "stateMutability": "view",
      "type": "function"
    },
    {
      "inputs": [
        {
          "internalType": "uint256",
          "name": "tokenId_",
          "type": "uint256"
        }
      ],
      "name": "slotOf",
      "outputs": [
        {
          "internalType": "uint256",
          "name": "",
          "type": "uint256"
        }
      ],
      "stateMutability": "view",
      "type": "function"
    },
    {
      "inputs": [
        {
          "internalType": "uint256",
          "name": "",
          "type": "uint256"
        }
      ],
      "name": "slotURI",
      "outputs": [
        {
          "internalType": "string",
          "name": "",
          "type": "string"
        }
      ],
      "stateMutability": "pure",
      "type": "function"
    },
    {
      "inputs": [
        {
          "internalType": "bytes4",
          "name": "interfaceId",
          "type": "bytes4"
        }
      ],
      "name": "supportsInterface",
      "outputs": [
        {
          "internalType": "bool",
          "name": "",
          "type": "bool"
        }
      ],
      "stateMutability": "view",
      "type": "function"
    },
    {
      "inputs": [],
      "name": "symbol",
      "outputs": [
        {
          "internalType": "string",
          "name": "",
          "type": "string"
        }
      ],
      "stateMutability": "view",
      "type": "function"
    },
    {
      "inputs": [
        {
          "internalType": "uint256",
          "name": "index",
          "type": "uint256"
        }
      ],
      "name": "tokenByIndex",
      "outputs": [
        {
          "internalType": "uint256",
          "name": "",
          "type": "uint256"
        }
      ],
      "stateMutability": "view",
      "type": "function"
    },
    {
      "inputs": [
        {
          "internalType": "uint256",
          "name": "_slot",
          "type": "uint256"
        },
        {
          "internalType": "uint256",
          "name": "_index",
          "type": "uint256"
        }
      ],
      "name": "tokenInSlotByIndex",
      "outputs": [
        {
          "internalType": "uint256",
          "name": "",
          "type": "uint256"
        }
      ],
      "stateMutability": "view",
      "type": "function"
    },
    {
      "inputs": [
        {
          "internalType": "address",
          "name": "owner",
          "type": "address"
        },
        {
          "internalType": "uint256",
          "name": "index",
          "type": "uint256"
        }
      ],
      "name": "tokenOfOwnerByIndex",
      "outputs": [
        {
          "internalType": "uint256",
          "name": "",
          "type": "uint256"
        }
      ],
      "stateMutability": "view",
      "type": "function"
    },
    {
      "inputs": [
        {
          "internalType": "uint256",
          "name": "_slot",
          "type": "uint256"
        }
      ],
      "name": "tokenSupplyInSlot",
      "outputs": [
        {
          "internalType": "uint256",
          "name": "",
          "type": "uint256"
        }
      ],
      "stateMutability": "view",
      "type": "function"
    },
    {
      "inputs": [
        {
          "internalType": "uint256",
          "name": "tokenID_",
          "type": "uint256"
        }
      ],
      "name": "tokenURI",
      "outputs": [
        {
          "internalType": "string",
          "name": "",
          "type": "string"
        }
      ],
      "stateMutability": "view",
      "type": "function"
    },
    {
      "inputs": [],
      "name": "totalSupply",
      "outputs": [
        {
          "internalType": "uint256",
          "name": "",
          "type": "uint256"
        }
      ],
      "stateMutability": "view",
      "type": "function"
    },
    {
      "inputs": [
        {
          "internalType": "uint256",
          "name": "fromTokenId_",
          "type": "uint256"
        },
        {
          "internalType": "address",
          "name": "to_",
          "type": "address"
        },
        {
          "internalType": "uint256",
          "name": "value_",
          "type": "uint256"
        }
      ],
      "name": "transferFrom",
      "outputs": [
        {
          "internalType": "uint256",
          "name": "",
          "type": "uint256"
        }
      ],
      "stateMutability": "payable",
      "type": "function"
    },
    {
      "inputs": [
        {
          "internalType": "address",
          "name": "from",
          "type": "address"
        },
        {
          "internalType": "address",
          "name": "to",
          "type": "address"
        },
        {
          "internalType": "uint256",
          "name": "tokenId",
          "type": "uint256"
        }
      ],
      "name": "transferFrom",
      "outputs": [],
      "stateMutability": "nonpayable",
      "type": "function"
    },
    {
      "inputs": [
        {
          "internalType": "uint256",
          "name": "fromTokenId_",
          "type": "uint256"
        },
        {
          "internalType": "uint256",
          "name": "toTokenId_",
          "type": "uint256"
        },
        {
          "internalType": "uint256",
          "name": "value_",
          "type": "uint256"
        }
      ],
      "name": "transferFrom",
      "outputs": [],
      "stateMutability": "payable",
      "type": "function"
    },
    {
      "inputs": [],
      "name": "valueDecimals",
      "outputs": [
        {
          "internalType": "uint8",
          "name": "",
          "type": "uint8"
        }
      ],
      "stateMutability": "view",
      "type": "function"
    }
  ],
  "bytecode": "0x608060405234801561001057600080fd5b506128b1806100206000396000f3fe6080604052600436106101d75760003560e01c80634f6ccce7116101025780639cc7f70811610095578063e345e0bc11610064578063e345e0bc14610544578063e8a3d4851461058c578063e985e9c5146105a1578063ed08fa80146105ea57600080fd5b80639cc7f708146104c4578063a22cb465146104e4578063b88d4fde14610504578063c87b56dd1461052457600080fd5b80638129fc1c116100d15780638129fc1c146104675780638cb0a5111461047c57806395d89b411461048f578063993bef8d146104a457600080fd5b80634f6ccce7146103d95780634f8a0f83146103f95780636352211e1461042757806370a082311461044757600080fd5b806318160ddd1161017a578063310ed7f011610149578063310ed7f0146103635780633e7e86691461037657806342842e0e1461039957806342966c68146103b957600080fd5b806318160ddd146102ee57806323b872dd14610303578063263f3e7e146103235780632f745c591461034357600080fd5b8063081812fc116101b6578063081812fc14610261578063095ea7b31461029957806309c3dd87146102bb5780630f485c02146102db57600080fd5b8062cd0110146101dc57806301ffc9a71461020f57806306fdde031461023f575b600080fd5b3480156101e857600080fd5b506101fc6101f7366004612207565b610600565b6040519081526020015b60405180910390f35b34801561021b57600080fd5b5061022f61022a36600461223f565b610635565b6040519015158152602001610206565b34801561024b57600080fd5b50610254610690565b60405161020691906122b3565b34801561026d57600080fd5b5061028161027c3660046122c6565b610722565b6040516001600160a01b039091168152602001610206565b3480156102a557600080fd5b506102b96102b43660046122fb565b610749565b005b3480156102c757600080fd5b506102546102d63660046122c6565b610863565b6101fc6102e9366004612325565b6108fa565b3480156102fa57600080fd5b506099546101fc565b34801561030f57600080fd5b506102b961031e36600461235a565b610946565b34801561032f57600080fd5b506101fc61033e3660046122c6565b6109bf565b34801561034f57600080fd5b506101fc61035e3660046122fb565b610a49565b6102b9610371366004612386565b610af1565b34801561038257600080fd5b506101345460405160ff9091168152602001610206565b3480156103a557600080fd5b506102b96103b436600461235a565b610b07565b3480156103c557600080fd5b506102b96103d43660046122c6565b610b22565b3480156103e557600080fd5b506101fc6103f43660046122c6565b610b9a565b34801561040557600080fd5b506101fc6104143660046122c6565b6000908152610131602052604090205490565b34801561043357600080fd5b506102816104423660046122c6565b610c3e565b34801561045357600080fd5b506101fc6104623660046123b2565b610ca3565b34801561047357600080fd5b506102b9610d3d565b6102b961048a366004612325565b610ebe565b34801561049b57600080fd5b50610254610fc4565b3480156104b057600080fd5b506101fc6104bf3660046122c6565b610fd3565b3480156104d057600080fd5b506101fc6104df3660046122c6565b610fe9565b3480156104f057600080fd5b506102b96104ff3660046123cd565b611087565b34801561051057600080fd5b506102b961051f36600461241f565b611096565b34801561053057600080fd5b5061025461053f3660046122c6565b61110f565b34801561055057600080fd5b506101fc61055f3660046124fb565b600082815261012e602090815260408083206001600160a01b038516845260010190915290205492915050565b34801561059857600080fd5b506102546111e1565b3480156105ad57600080fd5b5061022f6105bc366004612527565b6001600160a01b039182166000908152606a6020908152604080832093909416825291909152205460ff1690565b3480156105f657600080fd5b50610130546101fc565b60008281526101316020526040812080548390811061062157610621612551565b906000526020600020015490505b92915050565b60006001600160e01b031982166370b0048160e11b148061066657506001600160e01b03198216631dba0dcf60e11b145b8061068157506001600160e01b03198216630354d60560e61b145b8061062f575061062f82611221565b60606065805461069f90612567565b80601f01602080910402602001604051908101604052809291908181526020018280546106cb90612567565b80156107185780601f106106ed57610100808354040283529160200191610718565b820191906000526020600020905b8154815290600101906020018083116106fb57829003601f168201915b5050505050905090565b600061072d82611246565b506000908152606960205260409020546001600160a01b031690565b600061075482610c3e565b9050806001600160a01b0316836001600160a01b0316036107c65760405162461bcd60e51b815260206004820152602160248201527f4552433732313a20617070726f76616c20746f2063757272656e74206f776e656044820152603960f91b60648201526084015b60405180910390fd5b336001600160a01b03821614806107e257506107e281336105bc565b6108545760405162461bcd60e51b815260206004820152603e60248201527f4552433732313a20617070726f76652063616c6c6572206973206e6f7420746f60448201527f6b656e206f776e6572206e6f7220617070726f76656420666f7220616c6c000060648201526084016107bd565b61085e83836112aa565b505050565b60606040516020016108e4907f646174613a6170706c69636174696f6e2f6a736f6e3b7b6e616d653a536c6f7481527f205479706520412c6465736372697074696f6e3a536c6f74205479706520412060208201527f6465736372697074696f6e7d00000000000000000000000000000000000000006040820152604c0190565b6040516020818303038152906040529050919050565b6000610907338584611318565b6000610912856113c1565b9050610933848261012f6000898152602001908152602001600020546113d7565b61093e858285611495565b949350505050565b610951335b82611756565b6109b45760405162461bcd60e51b815260206004820152602e60248201527f4552433732313a2063616c6c6572206973206e6f7420746f6b656e206f776e6560448201526d1c881b9bdc88185c1c1c9bdd995960921b60648201526084016107bd565b61085e8383836117d4565b6000818152606760205260408120546001600160a01b0316610a355760405162461bcd60e51b815260206004820152602960248201527f455243333532353a20736c6f7420717565727920666f72206e6f6e657869737460448201526832b73a103a37b5b2b760b91b60648201526084016107bd565b50600090815261012f602052604090205490565b6000610a5483610ca3565b8210610ac85760405162461bcd60e51b815260206004820152602b60248201527f455243373231456e756d657261626c653a206f776e657220696e646578206f7560448201527f74206f6620626f756e647300000000000000000000000000000000000000000060648201526084016107bd565b506001600160a01b03919091166000908152609760209081526040808320938352929052205490565b610afc338483611318565b61085e838383611495565b61085e83838360405180602001604052806000815250611096565b610b2b3361094b565b610b8e5760405162461bcd60e51b815260206004820152602e60248201527f4552433732313a2063616c6c6572206973206e6f7420746f6b656e206f776e6560448201526d1c881b9bdc88185c1c1c9bdd995960921b60648201526084016107bd565b610b9781611993565b50565b6000610ba560995490565b8210610c195760405162461bcd60e51b815260206004820152602c60248201527f455243373231456e756d657261626c653a20676c6f62616c20696e646578206f60448201527f7574206f6620626f756e6473000000000000000000000000000000000000000060648201526084016107bd565b60998281548110610c2c57610c2c612551565b90600052602060002001549050919050565b6000818152606760205260408120546001600160a01b03168061062f5760405162461bcd60e51b815260206004820152601860248201527f4552433732313a20696e76616c696420746f6b656e204944000000000000000060448201526064016107bd565b60006001600160a01b038216610d215760405162461bcd60e51b815260206004820152602960248201527f4552433732313a2061646472657373207a65726f206973206e6f74206120766160448201527f6c6964206f776e6572000000000000000000000000000000000000000000000060648201526084016107bd565b506001600160a01b031660009081526068602052604090205490565b600054610100900460ff1615808015610d5d5750600054600160ff909116105b80610d775750303b158015610d77575060005460ff166001145b610de95760405162461bcd60e51b815260206004820152602e60248201527f496e697469616c697a61626c653a20636f6e747261637420697320616c72656160448201527f647920696e697469616c697a656400000000000000000000000000000000000060648201526084016107bd565b6000805460ff191660011790558015610e0c576000805461ff0019166101001790555b610e666040518060400160405280600781526020017f4d79546f6b656e00000000000000000000000000000000000000000000000000815250604051806040016040528060038152602001624d544b60e81b815250611a4f565b610e6e611ac4565b610e76611ac4565b8015610b97576000805461ff0019169055604051600181527f7f26b83ff96e1f2b6a682f133852f6798a09c465da95921460cefb38474024989060200160405180910390a150565b6000610ec984610c3e565b9050806001600160a01b0316836001600160a01b031603610f375760405162461bcd60e51b815260206004820152602260248201527f455243333532353a20617070726f76616c20746f2063757272656e74206f776e60448201526132b960f11b60648201526084016107bd565b610f413385611756565b610fb35760405162461bcd60e51b815260206004820152603960248201527f455243333532353a20617070726f76652063616c6c6572206973206e6f74206f60448201527f776e6572206e6f7220617070726f76656420666f7220616c6c0000000000000060648201526084016107bd565b610fbe848484611b31565b50505050565b60606066805461069f90612567565b60006101308281548110610c2c57610c2c612551565b6000818152606760205260408120546001600160a01b03166110735760405162461bcd60e51b815260206004820152602c60248201527f455243333532353a2062616c616e636520717565727920666f72206e6f6e657860448201527f697374656e7420746f6b656e000000000000000000000000000000000000000060648201526084016107bd565b50600090815261012d602052604090205490565b611092338383611bbb565b5050565b6110a03383611756565b6111035760405162461bcd60e51b815260206004820152602e60248201527f4552433732313a2063616c6c6572206973206e6f7420746f6b656e206f776e6560448201526d1c881b9bdc88185c1c1c9bdd995960921b60648201526084016107bd565b610fbe84848484611c89565b606061111a82610fe9565b611123836109bf565b6040516020016108e49291907f646174613a6170706c69636174696f6e2f6a736f6e3b7b6e616d653a4173736581527f74205479706520412c6465736372697074696f6e3a417373657420547970652060208201527f41206465736372697074696f6e2c62616c616e63650000000000000000000000604082015260558101929092527f2c736c6f743a00000000000000000000000000000000000000000000000000006075830152607b820152607d60f81b609b820152609c0190565b60606111eb610690565b6101336111fb6101345460ff1690565b60405160200161120d939291906125a1565b604051602081830303815290604052905090565b60006001600160e01b0319821663780e9d6360e01b148061062f575061062f82611d12565b6000818152606760205260409020546001600160a01b0316610b975760405162461bcd60e51b815260206004820152601860248201527f4552433732313a20696e76616c696420746f6b656e204944000000000000000060448201526064016107bd565b600081815260696020526040902080546001600160a01b0319166001600160a01b03841690811790915581906112df82610c3e565b6001600160a01b03167f8c5be1e5ebec7d5bd14f71427d1e84f3dd0314c0f7b2291e5b200ac8c7c3b92560405160405180910390a45050565b600082815261012e602090815260408083206001600160a01b03871684526001019091529020546113498484611756565b15801561135857506000198114155b15610fbe57818110156113ad5760405162461bcd60e51b815260206004820152601f60248201527f455243333532353a20696e73756666696369656e7420616c6c6f77616e63650060448201526064016107bd565b610fbe83856113bc8585612706565b611b31565b60006113cc60995490565b61062f906001612719565b6113e18383611d62565b600082815261012f60209081526040808320849055838352610131909152812054900361143f5761013080546001810182556000919091527f2f605e086faac1d93117bbfbc18835d434e9405fadc1ca66faf4b864746daf34018190555b60008181526101316020908152604080832080546001810182559084529183209091018490555182919084907fe4f48c240d3b994948aa54f3e2f5fca59263dfe1d52b6e4cf39a5d249b5ccb65908390a4505050565b6000838152606760205260409020546001600160a01b031661150b5760405162461bcd60e51b815260206004820152602960248201527f45524333353235353a207472616e736665722066726f6d206e6f6e657869737460448201526832b73a103a37b5b2b760b91b60648201526084016107bd565b6000828152606760205260409020546001600160a01b03166115955760405162461bcd60e51b815260206004820152602760248201527f45524333353235353a207472616e7366657220746f206e6f6e6578697374656e60448201527f7420746f6b656e0000000000000000000000000000000000000000000000000060648201526084016107bd565b600083815261012d602052604090205481111561161a5760405162461bcd60e51b815260206004820152602860248201527f455243333532353a207472616e7366657220616d6f756e74206578636565647360448201527f2062616c616e636500000000000000000000000000000000000000000000000060648201526084016107bd565b600082815261012f602052604080822054858352912054146116a45760405162461bcd60e51b815260206004820152602e60248201527f455243333533353a207472616e7366657220746f20746f6b656e20776974682060448201527f646966666572656e7420736c6f7400000000000000000000000000000000000060648201526084016107bd565b60006116af84610c3e565b905060006116bc84610c3e565b600086815261012d60205260408120805492935085929091906116e0908490612706565b9091555050600084815261012d602052604081208054859290611704908490612719565b9091555050600085905261012f60205283857f0b2aac84f3ec956911fd78eae5311062972ff949f38412e8da39069d9f068cc68560405161174791815260200190565b60405180910390a35050505050565b60008061176283610c3e565b9050806001600160a01b0316846001600160a01b031614806117a957506001600160a01b038082166000908152606a602090815260408083209388168352929052205460ff165b8061093e5750836001600160a01b03166117c284610722565b6001600160a01b031614949350505050565b826001600160a01b03166117e782610c3e565b6001600160a01b0316146118635760405162461bcd60e51b815260206004820152602560248201527f4552433732313a207472616e736665722066726f6d20696e636f72726563742060448201527f6f776e657200000000000000000000000000000000000000000000000000000060648201526084016107bd565b6001600160a01b0382166118c55760405162461bcd60e51b8152602060048201526024808201527f4552433732313a207472616e7366657220746f20746865207a65726f206164646044820152637265737360e01b60648201526084016107bd565b6118d0838383611eb8565b6118db6000826112aa565b6001600160a01b0383166000908152606860205260408120805460019290611904908490612706565b90915550506001600160a01b0382166000908152606860205260408120805460019290611932908490612719565b909155505060008181526067602052604080822080546001600160a01b0319166001600160a01b0386811691821790925591518493918716917fddf252ad1be2c89b69c2b068fc378daa952ba7f163c4a11628f55a4df523b3ef91a4505050565b600061199e82610c3e565b600083815261012f602090815260408083205461012d90925290912054919250906119c884611f53565b600084815261012f6020908152604080832083905561012d82528083208390555183815286917f0b2aac84f3ec956911fd78eae5311062972ff949f38412e8da39069d9f068cc6910160405180910390a3600082857fe4f48c240d3b994948aa54f3e2f5fca59263dfe1d52b6e4cf39a5d249b5ccb6560405160405180910390a450505050565b600054610100900460ff16611aba5760405162461bcd60e51b815260206004820152602b60248201527f496e697469616c697a61626c653a20636f6e7472616374206973206e6f74206960448201526a6e697469616c697a696e6760a81b60648201526084016107bd565b6110928282611ffa565b600054610100900460ff16611b2f5760405162461bcd60e51b815260206004820152602b60248201527f496e697469616c697a61626c653a20636f6e7472616374206973206e6f74206960448201526a6e697469616c697a696e6760a81b60648201526084016107bd565b565b600083815261012e6020908152604080832080546001808201835582865284862090910180546001600160a01b0319166001600160a01b038916908117909155808652908201845293829020859055905184815290929186917f621b050de0ad08b51d19b48b3e6df75348c4de6bdd93e81b252ca62e28265b1b910160405180910390a350505050565b816001600160a01b0316836001600160a01b031603611c1c5760405162461bcd60e51b815260206004820152601960248201527f4552433732313a20617070726f766520746f2063616c6c65720000000000000060448201526064016107bd565b6001600160a01b038381166000818152606a6020908152604080832094871680845294825291829020805460ff191686151590811790915591519182527f17307eab39ab6107e8899845ad3d59bd9653f200f220920489ca2b5937696c31910160405180910390a3505050565b611c948484846117d4565b611ca08484848461207e565b610fbe5760405162461bcd60e51b815260206004820152603260248201527f4552433732313a207472616e7366657220746f206e6f6e20455243373231526560448201527f63656976657220696d706c656d656e746572000000000000000000000000000060648201526084016107bd565b60006001600160e01b031982166380ac58cd60e01b1480611d4357506001600160e01b03198216635b5e139f60e01b145b8061062f57506301ffc9a760e01b6001600160e01b031983161461062f565b6001600160a01b038216611db85760405162461bcd60e51b815260206004820181905260248201527f4552433732313a206d696e7420746f20746865207a65726f206164647265737360448201526064016107bd565b6000818152606760205260409020546001600160a01b031615611e1d5760405162461bcd60e51b815260206004820152601c60248201527f4552433732313a20746f6b656e20616c7265616479206d696e7465640000000060448201526064016107bd565b611e2960008383611eb8565b6001600160a01b0382166000908152606860205260408120805460019290611e52908490612719565b909155505060008181526067602052604080822080546001600160a01b0319166001600160a01b03861690811790915590518392907fddf252ad1be2c89b69c2b068fc378daa952ba7f163c4a11628f55a4df523b3ef908290a45050565b505050505050565b600081815261012e6020526040812054905b81811015611f3a57600083815261012e60205260408120805483908110611ef357611ef3612551565b600091825260208083209091015486835261012e825260408084206001600160a01b0390921684526001919091019091528120555080611f328161272c565b915050611eca565b50600082815261012e60205260408120610fbe916121d5565b6000611f5e82610c3e565b9050611f6c81600084611eb8565b611f776000836112aa565b6001600160a01b0381166000908152606860205260408120805460019290611fa0908490612706565b909155505060008281526067602052604080822080546001600160a01b0319169055518391906001600160a01b038416907fddf252ad1be2c89b69c2b068fc378daa952ba7f163c4a11628f55a4df523b3ef908390a45050565b600054610100900460ff166120655760405162461bcd60e51b815260206004820152602b60248201527f496e697469616c697a61626c653a20636f6e7472616374206973206e6f74206960448201526a6e697469616c697a696e6760a81b60648201526084016107bd565b6065612071838261278b565b50606661085e828261278b565b60006001600160a01b0384163b156121ca57604051630a85bd0160e11b81526001600160a01b0385169063150b7a02906120c290339089908890889060040161284b565b6020604051808303816000875af19250505080156120fd575060408051601f3d908101601f191682019092526120fa91810190612887565b60015b6121b0573d80801561212b576040519150601f19603f3d011682016040523d82523d6000602084013e612130565b606091505b5080516000036121a85760405162461bcd60e51b815260206004820152603260248201527f4552433732313a207472616e7366657220746f206e6f6e20455243373231526560448201527f63656976657220696d706c656d656e746572000000000000000000000000000060648201526084016107bd565b805181602001fd5b6001600160e01b031916630a85bd0160e11b14905061093e565b506001949350505050565b5080546000825590600052602060002090810190610b9791905b8082111561220357600081556001016121ef565b5090565b6000806040838503121561221a57600080fd5b50508035926020909101359150565b6001600160e01b031981168114610b9757600080fd5b60006020828403121561225157600080fd5b813561225c81612229565b9392505050565b60005b8381101561227e578181015183820152602001612266565b50506000910152565b6000815180845261229f816020860160208601612263565b601f01601f19169290920160200192915050565b60208152600061225c6020830184612287565b6000602082840312156122d857600080fd5b5035919050565b80356001600160a01b03811681146122f657600080fd5b919050565b6000806040838503121561230e57600080fd5b612317836122df565b946020939093013593505050565b60008060006060848603121561233a57600080fd5b8335925061234a602085016122df565b9150604084013590509250925092565b60008060006060848603121561236f57600080fd5b612378846122df565b925061234a602085016122df565b60008060006060848603121561239b57600080fd5b505081359360208301359350604090920135919050565b6000602082840312156123c457600080fd5b61225c826122df565b600080604083850312156123e057600080fd5b6123e9836122df565b9150602083013580151581146123fe57600080fd5b809150509250929050565b634e487b7160e01b600052604160045260246000fd5b6000806000806080858703121561243557600080fd5b61243e856122df565b935061244c602086016122df565b925060408501359150606085013567ffffffffffffffff8082111561247057600080fd5b818701915087601f83011261248457600080fd5b81358181111561249657612496612409565b604051601f8201601f19908116603f011681019083821181831017156124be576124be612409565b816040528281528a60208487010111156124d757600080fd5b82602086016020830137600060208483010152809550505050505092959194509250565b6000806040838503121561250e57600080fd5b8235915061251e602084016122df565b90509250929050565b6000806040838503121561253a57600080fd5b612543836122df565b915061251e602084016122df565b634e487b7160e01b600052603260045260246000fd5b600181811c9082168061257b57607f821691505b60208210810361259b57634e487b7160e01b600052602260045260246000fd5b50919050565b7f646174613a6170706c69636174696f6e2f6a736f6e3b7b6e616d653a0000000081526000845160206125da82601c8601838a01612263565b81840191507f2c6465736372697074696f6e3a00000000000000000000000000000000000000601c83015260296000875461261481612567565b6001828116801561262c576001811461264557612675565b60ff198416888701528215158302880186019450612675565b8b6000528660002060005b8481101561266b5781548a8201890152908301908801612650565b5050858389010194505b507f2c76616c7565446563696d616c733a00000000000000000000000000000000008452600f840196506126cd878b60f81b7fff00000000000000000000000000000000000000000000000000000000000000169052565b6126e0818801607d60f81b815260010190565b9c9b505050505050505050505050565b634e487b7160e01b600052601160045260246000fd5b8181038181111561062f5761062f6126f0565b8082018082111561062f5761062f6126f0565b60006001820161273e5761273e6126f0565b5060010190565b601f82111561085e57600081815260208120601f850160051c8101602086101561276c5750805b601f850160051c820191505b81811015611eb057828155600101612778565b815167ffffffffffffffff8111156127a5576127a5612409565b6127b9816127b38454612567565b84612745565b602080601f8311600181146127ee57600084156127d65750858301515b600019600386901b1c1916600185901b178555611eb0565b600085815260208120601f198616915b8281101561281d578886015182559484019460019091019084016127fe565b508582101561283b5787850151600019600388901b60f8161c191681555b5050505050600190811b01905550565b60006001600160a01b0380871683528086166020840152508360408301526080606083015261287d6080830184612287565b9695505050505050565b60006020828403121561289957600080fd5b815161225c8161222956fea164736f6c6343000810000a",
  "linkReferences": {},
  "deployedLinkReferences": {}
}