{
  "_format": "hh-sol-artifact-1",
  "contractName": "ERC3525Upgradeable",
  "sourceName": "contracts/ERC3525Upgradeable.sol",
  "abi": [
    {
      "anonymous": false,
      "inputs": [
        {
          "indexed": true,
          "internalType": "address",
          "name": "owner",
          "type": "address"
        },
        {
          "indexed": true,
          "internalType": "address",
          "name": "approved",
          "type": "address"
        },
        {
          "indexed": true,
          "internalType": "uint256",
          "name": "tokenId",
          "type": "uint256"
        }
      ],
      "name": "Approval",
      "type": "event"
    },
    {
      "anonymous": false,
      "inputs": [
        {
          "indexed": true,
          "internalType": "address",
          "name": "owner",
          "type": "address"
        },
        {
          "indexed": true,
          "internalType": "address",
          "name": "operator",
          "type": "address"
        },
        {
          "indexed": false,
          "internalType": "bool",
          "name": "approved",
          "type": "bool"
        }
      ],
      "name": "ApprovalForAll",
      "type": "event"
    },
    {
      "anonymous": false,
      "inputs": [
        {
          "indexed": true,
          "internalType": "uint256",
          "name": "_tokenId",
          "type": "uint256"
        },
        {
          "indexed": true,
          "internalType": "address",
          "name": "_operator",
          "type": "address"
        },
        {
          "indexed": false,
          "internalType": "uint256",
          "name": "_value",
          "type": "uint256"
        }
      ],
      "name": "ApprovalValue",
      "type": "event"
    },
    {
      "anonymous": false,
      "inputs": [
        {
          "indexed": false,
          "internalType": "uint8",
          "name": "version",
          "type": "uint8"
        }
      ],
      "name": "Initialized",
      "type": "event"
    },
    {
      "anonymous": false,
      "inputs": [
        {
          "indexed": true,
          "internalType": "uint256",
          "name": "_tokenId",
          "type": "uint256"
        },
        {
          "indexed": true,
          "internalType": "uint256",
          "name": "_oldSlot",
          "type": "uint256"
        },
        {
          "indexed": true,
          "internalType": "uint256",
          "name": "_newSlot",
          "type": "uint256"
        }
      ],
      "name": "SlotChanged",
      "type": "event"
    },
    {
      "anonymous": false,
      "inputs": [
        {
          "indexed": true,
          "internalType": "address",
          "name": "from",
          "type": "address"
        },
        {
          "indexed": true,
          "internalType": "address",
          "name": "to",
          "type": "address"
        },
        {
          "indexed": true,
          "internalType": "uint256",
          "name": "tokenId",
          "type": "uint256"
        }
      ],
      "name": "Transfer",
      "type": "event"
    },
    {
      "anonymous": false,
      "inputs": [
        {
          "indexed": true,
          "internalType": "uint256",
          "name": "_fromTokenId",
          "type": "uint256"
        },
        {
          "indexed": true,
          "internalType": "uint256",
          "name": "_toTokenId",
          "type": "uint256"
        },
        {
          "indexed": false,
          "internalType": "uint256",
          "name": "_value",
          "type": "uint256"
        }
      ],
      "name": "TransferValue",
      "type": "event"
    },
    {
      "inputs": [
        {
          "internalType": "uint256",
          "name": "tokenId_",
          "type": "uint256"
        },
        {
          "internalType": "address",
          "name": "operator_",
          "type": "address"
        }
      ],
      "name": "allowance",
      "outputs": [
        {
          "internalType": "uint256",
          "name": "",
          "type": "uint256"
        }
      ],
      "stateMutability": "view",
      "type": "function"
    },
    {
      "inputs": [
        {
          "internalType": "address",
          "name": "to",
          "type": "address"
        },
        {
          "internalType": "uint256",
          "name": "tokenId",
          "type": "uint256"
        }
      ],
      "name": "approve",
      "outputs": [],
      "stateMutability": "nonpayable",
      "type": "function"
    },
    {
      "inputs": [
        {
          "internalType": "uint256",
          "name": "tokenId_",
          "type": "uint256"
        },
        {
          "internalType": "address",
          "name": "to_",
          "type": "address"
        },
        {
          "internalType": "uint256",
          "name": "value_",
          "type": "uint256"
        }
      ],
      "name": "approve",
      "outputs": [],
      "stateMutability": "payable",
      "type": "function"
    },
    {
      "inputs": [
        {
          "internalType": "address",
          "name": "owner",
          "type": "address"
        }
      ],
      "name": "balanceOf",
      "outputs": [
        {
          "internalType": "uint256",
          "name": "",
          "type": "uint256"
        }
      ],
      "stateMutability": "view",
      "type": "function"
    },
    {
      "inputs": [
        {
          "internalType": "uint256",
          "name": "tokenId_",
          "type": "uint256"
        }
      ],
      "name": "balanceOf",
      "outputs": [
        {
          "internalType": "uint256",
          "name": "",
          "type": "uint256"
        }
      ],
      "stateMutability": "view",
      "type": "function"
    },
    {
      "inputs": [
        {
          "internalType": "uint256",
          "name": "tokenId",
          "type": "uint256"
        }
      ],
      "name": "burn",
      "outputs": [],
      "stateMutability": "nonpayable",
      "type": "function"
    },
    {
      "inputs": [],
      "name": "contractURI",
      "outputs": [
        {
          "internalType": "string",
          "name": "",
          "type": "string"
        }
      ],
      "stateMutability": "view",
      "type": "function"
    },
    {
      "inputs": [
        {
          "internalType": "uint256",
          "name": "tokenId",
          "type": "uint256"
        }
      ],
      "name": "getApproved",
      "outputs": [
        {
          "internalType": "address",
          "name": "",
          "type": "address"
        }
      ],
      "stateMutability": "view",
      "type": "function"
    },
    {
      "inputs": [],
      "name": "initialize",
      "outputs": [],
      "stateMutability": "nonpayable",
      "type": "function"
    },
    {
      "inputs": [
        {
          "internalType": "address",
          "name": "owner",
          "type": "address"
        },
        {
          "internalType": "address",
          "name": "operator",
          "type": "address"
        }
      ],
      "name": "isApprovedForAll",
      "outputs": [
        {
          "internalType": "bool",
          "name": "",
          "type": "bool"
        }
      ],
      "stateMutability": "view",
      "type": "function"
    },
    {
      "inputs": [],
      "name": "name",
      "outputs": [
        {
          "internalType": "string",
          "name": "",
          "type": "string"
        }
      ],
      "stateMutability": "view",
      "type": "function"
    },
    {
      "inputs": [
        {
          "internalType": "uint256",
          "name": "tokenId",
          "type": "uint256"
        }
      ],
      "name": "ownerOf",
      "outputs": [
        {
          "internalType": "address",
          "name": "",
          "type": "address"
        }
      ],
      "stateMutability": "view",
      "type": "function"
    },
    {
      "inputs": [
        {
          "internalType": "address",
          "name": "from",
          "type": "address"
        },
        {
          "internalType": "address",
          "name": "to",
          "type": "address"
        },
        {
          "internalType": "uint256",
          "name": "tokenId",
          "type": "uint256"
        }
      ],
      "name": "safeTransferFrom",
      "outputs": [],
      "stateMutability": "nonpayable",
      "type": "function"
    },
    {
      "inputs": [
        {
          "internalType": "address",
          "name": "from",
          "type": "address"
        },
        {
          "internalType": "address",
          "name": "to",
          "type": "address"
        },
        {
          "internalType": "uint256",
          "name": "tokenId",
          "type": "uint256"
        },
        {
          "internalType": "bytes",
          "name": "data",
          "type": "bytes"
        }
      ],
      "name": "safeTransferFrom",
      "outputs": [],
      "stateMutability": "nonpayable",
      "type": "function"
    },
    {
      "inputs": [
        {
          "internalType": "address",
          "name": "operator",
          "type": "address"
        },
        {
          "internalType": "bool",
          "name": "approved",
          "type": "bool"
        }
      ],
      "name": "setApprovalForAll",
      "outputs": [],
      "stateMutability": "nonpayable",
      "type": "function"
    },
    {
      "inputs": [
        {
          "internalType": "uint256",
          "name": "_index",
          "type": "uint256"
        }
      ],
      "name": "slotByIndex",
      "outputs": [
        {
          "internalType": "uint256",
          "name": "",
          "type": "uint256"
        }
      ],
      "stateMutability": "view",
      "type": "function"
    },
    {
      "inputs": [],
      "name": "slotCount",
      "outputs": [
        {
          "internalType": "uint256",
          "name": "",
          "type": "uint256"
        }
      ],
      "stateMutability": "view",
      "type": "function"
    },
    {
      "inputs": [
        {
          "internalType": "uint256",
          "name": "tokenId_",
          "type": "uint256"
        }
      ],
      "name": "slotOf",
      "outputs": [
        {
          "internalType": "uint256",
          "name": "",
          "type": "uint256"
        }
      ],
      "stateMutability": "view",
      "type": "function"
    },
    {
      "inputs": [
        {
          "internalType": "uint256",
          "name": "",
          "type": "uint256"
        }
      ],
      "name": "slotURI",
      "outputs": [
        {
          "internalType": "string",
          "name": "",
          "type": "string"
        }
      ],
      "stateMutability": "pure",
      "type": "function"
    },
    {
      "inputs": [
        {
          "internalType": "bytes4",
          "name": "interfaceId",
          "type": "bytes4"
        }
      ],
      "name": "supportsInterface",
      "outputs": [
        {
          "internalType": "bool",
          "name": "",
          "type": "bool"
        }
      ],
      "stateMutability": "view",
      "type": "function"
    },
    {
      "inputs": [],
      "name": "symbol",
      "outputs": [
        {
          "internalType": "string",
          "name": "",
          "type": "string"
        }
      ],
      "stateMutability": "view",
      "type": "function"
    },
    {
      "inputs": [
        {
          "internalType": "uint256",
          "name": "index",
          "type": "uint256"
        }
      ],
      "name": "tokenByIndex",
      "outputs": [
        {
          "internalType": "uint256",
          "name": "",
          "type": "uint256"
        }
      ],
      "stateMutability": "view",
      "type": "function"
    },
    {
      "inputs": [
        {
          "internalType": "uint256",
          "name": "_slot",
          "type": "uint256"
        },
        {
          "internalType": "uint256",
          "name": "_index",
          "type": "uint256"
        }
      ],
      "name": "tokenInSlotByIndex",
      "outputs": [
        {
          "internalType": "uint256",
          "name": "",
          "type": "uint256"
        }
      ],
      "stateMutability": "view",
      "type": "function"
    },
    {
      "inputs": [
        {
          "internalType": "address",
          "name": "owner",
          "type": "address"
        },
        {
          "internalType": "uint256",
          "name": "index",
          "type": "uint256"
        }
      ],
      "name": "tokenOfOwnerByIndex",
      "outputs": [
        {
          "internalType": "uint256",
          "name": "",
          "type": "uint256"
        }
      ],
      "stateMutability": "view",
      "type": "function"
    },
    {
      "inputs": [
        {
          "internalType": "uint256",
          "name": "_slot",
          "type": "uint256"
        }
      ],
      "name": "tokenSupplyInSlot",
      "outputs": [
        {
          "internalType": "uint256",
          "name": "",
          "type": "uint256"
        }
      ],
      "stateMutability": "view",
      "type": "function"
    },
    {
      "inputs": [
        {
          "internalType": "uint256",
          "name": "tokenID_",
          "type": "uint256"
        }
      ],
      "name": "tokenURI",
      "outputs": [
        {
          "internalType": "string",
          "name": "",
          "type": "string"
        }
      ],
      "stateMutability": "view",
      "type": "function"
    },
    {
      "inputs": [],
      "name": "totalSupply",
      "outputs": [
        {
          "internalType": "uint256",
          "name": "",
          "type": "uint256"
        }
      ],
      "stateMutability": "view",
      "type": "function"
    },
    {
      "inputs": [
        {
          "internalType": "uint256",
          "name": "fromTokenId_",
          "type": "uint256"
        },
        {
          "internalType": "address",
          "name": "to_",
          "type": "address"
        },
        {
          "internalType": "uint256",
          "name": "value_",
          "type": "uint256"
        }
      ],
      "name": "transferFrom",
      "outputs": [
        {
          "internalType": "uint256",
          "name": "",
          "type": "uint256"
        }
      ],
      "stateMutability": "payable",
      "type": "function"
    },
    {
      "inputs": [
        {
          "internalType": "address",
          "name": "from",
          "type": "address"
        },
        {
          "internalType": "address",
          "name": "to",
          "type": "address"
        },
        {
          "internalType": "uint256",
          "name": "tokenId",
          "type": "uint256"
        }
      ],
      "name": "transferFrom",
      "outputs": [],
      "stateMutability": "nonpayable",
      "type": "function"
    },
    {
      "inputs": [
        {
          "internalType": "uint256",
          "name": "fromTokenId_",
          "type": "uint256"
        },
        {
          "internalType": "uint256",
          "name": "toTokenId_",
          "type": "uint256"
        },
        {
          "internalType": "uint256",
          "name": "value_",
          "type": "uint256"
        }
      ],
      "name": "transferFrom",
      "outputs": [],
      "stateMutability": "payable",
      "type": "function"
    },
    {
      "inputs": [],
      "name": "valueDecimals",
      "outputs": [
        {
          "internalType": "uint8",
          "name": "",
          "type": "uint8"
        }
      ],
      "stateMutability": "view",
      "type": "function"
    }
  ],
  "bytecode": "0x608060405234801561001057600080fd5b506127b7806100206000396000f3fe6080604052600436106101d75760003560e01c80634f6ccce7116101025780639cc7f70811610095578063e345e0bc11610064578063e345e0bc14610544578063e8a3d4851461058b578063e985e9c5146105a0578063ed08fa80146105e957600080fd5b80639cc7f708146104c4578063a22cb465146104e4578063b88d4fde14610504578063c87b56dd1461052457600080fd5b80638129fc1c116100d15780638129fc1c146104675780638cb0a5111461047c57806395d89b411461048f578063993bef8d146104a457600080fd5b80634f6ccce7146103d95780634f8a0f83146103f95780636352211e1461042757806370a082311461044757600080fd5b806318160ddd1161017a578063310ed7f011610149578063310ed7f0146103635780633e7e86691461037657806342842e0e1461039957806342966c68146103b957600080fd5b806318160ddd146102ee57806323b872dd14610303578063263f3e7e146103235780632f745c591461034357600080fd5b8063081812fc116101b6578063081812fc14610261578063095ea7b31461029957806309c3dd87146102bb5780630f485c02146102db57600080fd5b8062cd0110146101dc57806301ffc9a71461020f57806306fdde031461023f575b600080fd5b3480156101e857600080fd5b506101fc6101f736600461226a565b6105fe565b6040519081526020015b60405180910390f35b34801561021b57600080fd5b5061022f61022a3660046122a2565b610633565b6040519015158152602001610206565b34801561024b57600080fd5b5061025461068e565b6040516102069190612316565b34801561026d57600080fd5b5061028161027c366004612329565b610720565b6040516001600160a01b039091168152602001610206565b3480156102a557600080fd5b506102b96102b436600461235e565b610747565b005b3480156102c757600080fd5b506102546102d6366004612329565b610861565b6101fc6102e9366004612388565b6108f8565b3480156102fa57600080fd5b506099546101fc565b34801561030f57600080fd5b506102b961031e3660046123bd565b610943565b34801561032f57600080fd5b506101fc61033e366004612329565b6109bc565b34801561034f57600080fd5b506101fc61035e36600461235e565b610a45565b6102b96103713660046123e9565b610aed565b34801561038257600080fd5b506101015460405160ff9091168152602001610206565b3480156103a557600080fd5b506102b96103b43660046123bd565b610b03565b3480156103c557600080fd5b506102b96103d4366004612329565b610b1e565b3480156103e557600080fd5b506101fc6103f4366004612329565b610b96565b34801561040557600080fd5b506101fc610414366004612329565b6000908152610100602052604090205490565b34801561043357600080fd5b50610281610442366004612329565b610c3a565b34801561045357600080fd5b506101fc610462366004612415565b610c9f565b34801561047357600080fd5b506102b9610d39565b6102b961048a366004612388565b610e50565b34801561049b57600080fd5b50610254610f56565b3480156104b057600080fd5b506101fc6104bf366004612329565b610f65565b3480156104d057600080fd5b506101fc6104df366004612329565b610f7a565b3480156104f057600080fd5b506102b96104ff366004612430565b611017565b34801561051057600080fd5b506102b961051f366004612482565b611026565b34801561053057600080fd5b5061025461053f366004612329565b61109f565b34801561055057600080fd5b506101fc61055f36600461255e565b600082815260fc602090815260408083206001600160a01b038516845260010190915290205492915050565b34801561059757600080fd5b50610254611171565b3480156105ac57600080fd5b5061022f6105bb36600461258a565b6001600160a01b039182166000908152606a6020908152604080832093909416825291909152205460ff1690565b3480156105f557600080fd5b5060fe546101fc565b60008281526101006020526040812080548390811061061f5761061f6125b4565b906000526020600020015490505b92915050565b60006001600160e01b031982166370b0048160e11b148061066457506001600160e01b03198216631dba0dcf60e11b145b8061067f57506001600160e01b03198216630354d60560e61b145b8061062d575061062d826111b0565b60606065805461069d906125ca565b80601f01602080910402602001604051908101604052809291908181526020018280546106c9906125ca565b80156107165780601f106106eb57610100808354040283529160200191610716565b820191906000526020600020905b8154815290600101906020018083116106f957829003601f168201915b5050505050905090565b600061072b826111d5565b506000908152606960205260409020546001600160a01b031690565b600061075282610c3a565b9050806001600160a01b0316836001600160a01b0316036107c45760405162461bcd60e51b815260206004820152602160248201527f4552433732313a20617070726f76616c20746f2063757272656e74206f776e656044820152603960f91b60648201526084015b60405180910390fd5b336001600160a01b03821614806107e057506107e081336105bb565b6108525760405162461bcd60e51b815260206004820152603e60248201527f4552433732313a20617070726f76652063616c6c6572206973206e6f7420746f60448201527f6b656e206f776e6572206e6f7220617070726f76656420666f7220616c6c000060648201526084016107bb565b61085c8383611239565b505050565b60606040516020016108e2907f646174613a6170706c69636174696f6e2f6a736f6e3b7b6e616d653a536c6f7481527f205479706520412c6465736372697074696f6e3a536c6f74205479706520412060208201527f6465736372697074696f6e7d00000000000000000000000000000000000000006040820152604c0190565b6040516020818303038152906040529050919050565b60006109053385846112a7565b60006109108561134f565b9050610930848260fd600089815260200190815260200160002054611365565b61093b858285611421565b949350505050565b61094e335b826116dd565b6109b15760405162461bcd60e51b815260206004820152602e60248201527f4552433732313a2063616c6c6572206973206e6f7420746f6b656e206f776e6560448201526d1c881b9bdc88185c1c1c9bdd995960921b60648201526084016107bb565b61085c83838361175b565b6000818152606760205260408120546001600160a01b0316610a325760405162461bcd60e51b815260206004820152602960248201527f455243333532353a20736c6f7420717565727920666f72206e6f6e657869737460448201526832b73a103a37b5b2b760b91b60648201526084016107bb565b50600090815260fd602052604090205490565b6000610a5083610c9f565b8210610ac45760405162461bcd60e51b815260206004820152602b60248201527f455243373231456e756d657261626c653a206f776e657220696e646578206f7560448201527f74206f6620626f756e647300000000000000000000000000000000000000000060648201526084016107bb565b506001600160a01b03919091166000908152609760209081526040808320938352929052205490565b610af83384836112a7565b61085c838383611421565b61085c83838360405180602001604052806000815250611026565b610b2733610948565b610b8a5760405162461bcd60e51b815260206004820152602e60248201527f4552433732313a2063616c6c6572206973206e6f7420746f6b656e206f776e6560448201526d1c881b9bdc88185c1c1c9bdd995960921b60648201526084016107bb565b610b938161191a565b50565b6000610ba160995490565b8210610c155760405162461bcd60e51b815260206004820152602c60248201527f455243373231456e756d657261626c653a20676c6f62616c20696e646578206f60448201527f7574206f6620626f756e6473000000000000000000000000000000000000000060648201526084016107bb565b60998281548110610c2857610c286125b4565b90600052602060002001549050919050565b6000818152606760205260408120546001600160a01b03168061062d5760405162461bcd60e51b815260206004820152601860248201527f4552433732313a20696e76616c696420746f6b656e204944000000000000000060448201526064016107bb565b60006001600160a01b038216610d1d5760405162461bcd60e51b815260206004820152602960248201527f4552433732313a2061646472657373207a65726f206973206e6f74206120766160448201527f6c6964206f776e6572000000000000000000000000000000000000000000000060648201526084016107bb565b506001600160a01b031660009081526068602052604090205490565b600054610100900460ff1615808015610d595750600054600160ff909116105b80610d735750303b158015610d73575060005460ff166001145b610de55760405162461bcd60e51b815260206004820152602e60248201527f496e697469616c697a61626c653a20636f6e747261637420697320616c72656160448201527f647920696e697469616c697a656400000000000000000000000000000000000060648201526084016107bb565b6000805460ff191660011790558015610e08576000805461ff0019166101001790555b8015610b93576000805461ff0019169055604051600181527f7f26b83ff96e1f2b6a682f133852f6798a09c465da95921460cefb38474024989060200160405180910390a150565b6000610e5b84610c3a565b9050806001600160a01b0316836001600160a01b031603610ec95760405162461bcd60e51b815260206004820152602260248201527f455243333532353a20617070726f76616c20746f2063757272656e74206f776e60448201526132b960f11b60648201526084016107bb565b610ed333856116dd565b610f455760405162461bcd60e51b815260206004820152603960248201527f455243333532353a20617070726f76652063616c6c6572206973206e6f74206f60448201527f776e6572206e6f7220617070726f76656420666f7220616c6c0000000000000060648201526084016107bb565b610f508484846119d2565b50505050565b60606066805461069d906125ca565b600060fe8281548110610c2857610c286125b4565b6000818152606760205260408120546001600160a01b03166110045760405162461bcd60e51b815260206004820152602c60248201527f455243333532353a2062616c616e636520717565727920666f72206e6f6e657860448201527f697374656e7420746f6b656e000000000000000000000000000000000000000060648201526084016107bb565b50600090815260fb602052604090205490565b611022338383611a5b565b5050565b61103033836116dd565b6110935760405162461bcd60e51b815260206004820152602e60248201527f4552433732313a2063616c6c6572206973206e6f7420746f6b656e206f776e6560448201526d1c881b9bdc88185c1c1c9bdd995960921b60648201526084016107bb565b610f5084848484611b29565b60606110aa82610f7a565b6110b3836109bc565b6040516020016108e29291907f646174613a6170706c69636174696f6e2f6a736f6e3b7b6e616d653a4173736581527f74205479706520412c6465736372697074696f6e3a417373657420547970652060208201527f41206465736372697074696f6e2c62616c616e63650000000000000000000000604082015260558101929092527f2c736c6f743a00000000000000000000000000000000000000000000000000006075830152607b820152607d60f81b609b820152609c0190565b606061117b61068e565b611183610f56565b6101015460ff1660405160200161119c93929190612604565b604051602081830303815290604052905090565b60006001600160e01b0319821663780e9d6360e01b148061062d575061062d82611bb2565b6000818152606760205260409020546001600160a01b0316610b935760405162461bcd60e51b815260206004820152601860248201527f4552433732313a20696e76616c696420746f6b656e204944000000000000000060448201526064016107bb565b600081815260696020526040902080546001600160a01b0319166001600160a01b038416908117909155819061126e82610c3a565b6001600160a01b03167f8c5be1e5ebec7d5bd14f71427d1e84f3dd0314c0f7b2291e5b200ac8c7c3b92560405160405180910390a45050565b600082815260fc602090815260408083206001600160a01b03871684526001019091529020546112d784846116dd565b1580156112e657506000198114155b15610f50578181101561133b5760405162461bcd60e51b815260206004820152601f60248201527f455243333532353a20696e73756666696369656e7420616c6c6f77616e63650060448201526064016107bb565b610f50838561134a85856126fc565b6119d2565b600061135a60995490565b61062d90600161270f565b61136f8383611c02565b600082815260fd6020908152604080832084905583835261010090915281205490036113cb5760fe80546001810182556000919091527f54075df80ec1ae6ac9100e1fd0ebf3246c17f5c933137af392011f4c5f61513a018190555b60008181526101006020908152604080832080546001810182559084529183209091018490555182919084907fe4f48c240d3b994948aa54f3e2f5fca59263dfe1d52b6e4cf39a5d249b5ccb65908390a4505050565b6000838152606760205260409020546001600160a01b03166114975760405162461bcd60e51b815260206004820152602960248201527f45524333353235353a207472616e736665722066726f6d206e6f6e657869737460448201526832b73a103a37b5b2b760b91b60648201526084016107bb565b6000828152606760205260409020546001600160a01b03166115215760405162461bcd60e51b815260206004820152602760248201527f45524333353235353a207472616e7366657220746f206e6f6e6578697374656e60448201527f7420746f6b656e0000000000000000000000000000000000000000000000000060648201526084016107bb565b600083815260fb60205260409020548111156115a55760405162461bcd60e51b815260206004820152602860248201527f455243333532353a207472616e7366657220616d6f756e74206578636565647360448201527f2062616c616e636500000000000000000000000000000000000000000000000060648201526084016107bb565b600082815260fd6020526040808220548583529120541461162e5760405162461bcd60e51b815260206004820152602e60248201527f455243333533353a207472616e7366657220746f20746f6b656e20776974682060448201527f646966666572656e7420736c6f7400000000000000000000000000000000000060648201526084016107bb565b600061163984610c3a565b9050600061164684610c3a565b600086815260fb60205260408120805492935085929091906116699084906126fc565b9091555050600084815260fb60205260408120805485929061168c90849061270f565b9091555050600085905260fd60205283857f0b2aac84f3ec956911fd78eae5311062972ff949f38412e8da39069d9f068cc6856040516116ce91815260200190565b60405180910390a35050505050565b6000806116e983610c3a565b9050806001600160a01b0316846001600160a01b0316148061173057506001600160a01b038082166000908152606a602090815260408083209388168352929052205460ff165b8061093b5750836001600160a01b031661174984610720565b6001600160a01b031614949350505050565b826001600160a01b031661176e82610c3a565b6001600160a01b0316146117ea5760405162461bcd60e51b815260206004820152602560248201527f4552433732313a207472616e736665722066726f6d20696e636f72726563742060448201527f6f776e657200000000000000000000000000000000000000000000000000000060648201526084016107bb565b6001600160a01b03821661184c5760405162461bcd60e51b8152602060048201526024808201527f4552433732313a207472616e7366657220746f20746865207a65726f206164646044820152637265737360e01b60648201526084016107bb565b611857838383611d50565b611862600082611239565b6001600160a01b038316600090815260686020526040812080546001929061188b9084906126fc565b90915550506001600160a01b03821660009081526068602052604081208054600192906118b990849061270f565b909155505060008181526067602052604080822080546001600160a01b0319166001600160a01b0386811691821790925591518493918716917fddf252ad1be2c89b69c2b068fc378daa952ba7f163c4a11628f55a4df523b3ef91a4505050565b600061192582610c3a565b600083815260fd602090815260408083205460fb909252909120549192509061194d84611df2565b600084815260fd6020908152604080832083905560fb82528083208390555183815286917f0b2aac84f3ec956911fd78eae5311062972ff949f38412e8da39069d9f068cc6910160405180910390a3600082857fe4f48c240d3b994948aa54f3e2f5fca59263dfe1d52b6e4cf39a5d249b5ccb6560405160405180910390a450505050565b600083815260fc6020908152604080832080546001808201835582865284862090910180546001600160a01b0319166001600160a01b038916908117909155808652908201845293829020859055905184815290929186917f621b050de0ad08b51d19b48b3e6df75348c4de6bdd93e81b252ca62e28265b1b910160405180910390a350505050565b816001600160a01b0316836001600160a01b031603611abc5760405162461bcd60e51b815260206004820152601960248201527f4552433732313a20617070726f766520746f2063616c6c65720000000000000060448201526064016107bb565b6001600160a01b038381166000818152606a6020908152604080832094871680845294825291829020805460ff191686151590811790915591519182527f17307eab39ab6107e8899845ad3d59bd9653f200f220920489ca2b5937696c31910160405180910390a3505050565b611b3484848461175b565b611b4084848484611e99565b610f505760405162461bcd60e51b815260206004820152603260248201527f4552433732313a207472616e7366657220746f206e6f6e20455243373231526560448201527f63656976657220696d706c656d656e746572000000000000000000000000000060648201526084016107bb565b60006001600160e01b031982166380ac58cd60e01b1480611be357506001600160e01b03198216635b5e139f60e01b145b8061062d57506301ffc9a760e01b6001600160e01b031983161461062d565b6001600160a01b038216611c585760405162461bcd60e51b815260206004820181905260248201527f4552433732313a206d696e7420746f20746865207a65726f206164647265737360448201526064016107bb565b6000818152606760205260409020546001600160a01b031615611cbd5760405162461bcd60e51b815260206004820152601c60248201527f4552433732313a20746f6b656e20616c7265616479206d696e7465640000000060448201526064016107bb565b611cc960008383611d50565b6001600160a01b0382166000908152606860205260408120805460019290611cf290849061270f565b909155505060008181526067602052604080822080546001600160a01b0319166001600160a01b03861690811790915590518392907fddf252ad1be2c89b69c2b068fc378daa952ba7f163c4a11628f55a4df523b3ef908290a45050565b611d5b838383611ff0565b600081815260fc6020526040812054905b81811015611dda57600083815260fc60205260408120805483908110611d9457611d946125b4565b600091825260208083209091015486835260fc825260408084206001600160a01b0390921684526001919091019091528120555080611dd281612722565b915050611d6c565b50600082815260fc60205260408120610f5091612238565b6000611dfd82610c3a565b9050611e0b81600084611d50565b611e16600083611239565b6001600160a01b0381166000908152606860205260408120805460019290611e3f9084906126fc565b909155505060008281526067602052604080822080546001600160a01b0319169055518391906001600160a01b038416907fddf252ad1be2c89b69c2b068fc378daa952ba7f163c4a11628f55a4df523b3ef908390a45050565b60006001600160a01b0384163b15611fe557604051630a85bd0160e11b81526001600160a01b0385169063150b7a0290611edd90339089908890889060040161273b565b6020604051808303816000875af1925050508015611f18575060408051601f3d908101601f19168201909252611f1591810190612777565b60015b611fcb573d808015611f46576040519150601f19603f3d011682016040523d82523d6000602084013e611f4b565b606091505b508051600003611fc35760405162461bcd60e51b815260206004820152603260248201527f4552433732313a207472616e7366657220746f206e6f6e20455243373231526560448201527f63656976657220696d706c656d656e746572000000000000000000000000000060648201526084016107bb565b805181602001fd5b6001600160e01b031916630a85bd0160e11b14905061093b565b506001949350505050565b6001600160a01b03831661204b5761204681609980546000838152609a60205260408120829055600182018355919091527f72a152ddfb8e864297c917af52ea6c1c68aead0fee1a62673fcc7e0c94979d000155565b61206e565b816001600160a01b0316836001600160a01b03161461206e5761206e83826120a8565b6001600160a01b0382166120855761085c81612145565b826001600160a01b0316826001600160a01b03161461085c5761085c82826121f4565b600060016120b584610c9f565b6120bf91906126fc565b600083815260986020526040902054909150808214612112576001600160a01b03841660009081526097602090815260408083208584528252808320548484528184208190558352609890915290208190555b5060009182526098602090815260408084208490556001600160a01b039094168352609781528383209183525290812055565b609954600090612157906001906126fc565b6000838152609a60205260408120546099805493945090928490811061217f5761217f6125b4565b9060005260206000200154905080609983815481106121a0576121a06125b4565b6000918252602080832090910192909255828152609a909152604080822084905585825281205560998054806121d8576121d8612794565b6001900381819060005260206000200160009055905550505050565b60006121ff83610c9f565b6001600160a01b039093166000908152609760209081526040808320868452825280832085905593825260989052919091209190915550565b5080546000825590600052602060002090810190610b9391905b808211156122665760008155600101612252565b5090565b6000806040838503121561227d57600080fd5b50508035926020909101359150565b6001600160e01b031981168114610b9357600080fd5b6000602082840312156122b457600080fd5b81356122bf8161228c565b9392505050565b60005b838110156122e15781810151838201526020016122c9565b50506000910152565b600081518084526123028160208601602086016122c6565b601f01601f19169290920160200192915050565b6020815260006122bf60208301846122ea565b60006020828403121561233b57600080fd5b5035919050565b80356001600160a01b038116811461235957600080fd5b919050565b6000806040838503121561237157600080fd5b61237a83612342565b946020939093013593505050565b60008060006060848603121561239d57600080fd5b833592506123ad60208501612342565b9150604084013590509250925092565b6000806000606084860312156123d257600080fd5b6123db84612342565b92506123ad60208501612342565b6000806000606084860312156123fe57600080fd5b505081359360208301359350604090920135919050565b60006020828403121561242757600080fd5b6122bf82612342565b6000806040838503121561244357600080fd5b61244c83612342565b91506020830135801515811461246157600080fd5b809150509250929050565b634e487b7160e01b600052604160045260246000fd5b6000806000806080858703121561249857600080fd5b6124a185612342565b93506124af60208601612342565b925060408501359150606085013567ffffffffffffffff808211156124d357600080fd5b818701915087601f8301126124e757600080fd5b8135818111156124f9576124f961246c565b604051601f8201601f19908116603f011681019083821181831017156125215761252161246c565b816040528281528a602084870101111561253a57600080fd5b82602086016020830137600060208483010152809550505050505092959194509250565b6000806040838503121561257157600080fd5b8235915061258160208401612342565b90509250929050565b6000806040838503121561259d57600080fd5b6125a683612342565b915061258160208401612342565b634e487b7160e01b600052603260045260246000fd5b600181811c908216806125de57607f821691505b6020821081036125fe57634e487b7160e01b600052602260045260246000fd5b50919050565b7f646174613a6170706c69636174696f6e2f6a736f6e3b7b6e616d653a0000000081526000845161263c81601c8501602089016122c6565b7f2c6465736372697074696f6e3a00000000000000000000000000000000000000601c9184019182015284516126798160298401602089016122c6565b7f2c76616c7565446563696d616c733a00000000000000000000000000000000006029929091019182015260f89390931b7fff000000000000000000000000000000000000000000000000000000000000001660388401525050607d60f81b6039820152603a0192915050565b634e487b7160e01b600052601160045260246000fd5b8181038181111561062d5761062d6126e6565b8082018082111561062d5761062d6126e6565b600060018201612734576127346126e6565b5060010190565b60006001600160a01b0380871683528086166020840152508360408301526080606083015261276d60808301846122ea565b9695505050505050565b60006020828403121561278957600080fd5b81516122bf8161228c565b634e487b7160e01b600052603160045260246000fdfea164736f6c6343000810000a",
  "linkReferences": {},
  "deployedLinkReferences": {}
}