{
  "_format": "hh-sol-artifact-1",
  "contractName": "HypercertMinterV0",
  "sourceName": "contracts/HypercertMinterV0.sol",
  "abi": [
    {
      "inputs": [],
      "stateMutability": "nonpayable",
      "type": "constructor"
    },
    {
      "anonymous": false,
      "inputs": [
        {
          "indexed": false,
          "internalType": "address",
          "name": "previousAdmin",
          "type": "address"
        },
        {
          "indexed": false,
          "internalType": "address",
          "name": "newAdmin",
          "type": "address"
        }
      ],
      "name": "AdminChanged",
      "type": "event"
    },
    {
      "anonymous": false,
      "inputs": [
        {
          "indexed": true,
          "internalType": "address",
          "name": "account",
          "type": "address"
        },
        {
          "indexed": true,
          "internalType": "address",
          "name": "operator",
          "type": "address"
        },
        {
          "indexed": false,
          "internalType": "bool",
          "name": "approved",
          "type": "bool"
        }
      ],
      "name": "ApprovalForAll",
      "type": "event"
    },
    {
      "anonymous": false,
      "inputs": [
        {
          "indexed": true,
          "internalType": "address",
          "name": "beacon",
          "type": "address"
        }
      ],
      "name": "BeaconUpgraded",
      "type": "event"
    },
    {
      "anonymous": false,
      "inputs": [
        {
          "indexed": true,
          "internalType": "uint256",
          "name": "id",
          "type": "uint256"
        },
        {
          "indexed": true,
          "internalType": "bytes32",
          "name": "claimHash",
          "type": "bytes32"
        },
        {
          "indexed": false,
          "internalType": "address[]",
          "name": "contributors",
          "type": "address[]"
        },
        {
          "indexed": false,
          "internalType": "uint256[2]",
          "name": "workTimeframe",
          "type": "uint256[2]"
        },
        {
          "indexed": false,
          "internalType": "uint256[2]",
          "name": "impactTimeframe",
          "type": "uint256[2]"
        },
        {
          "indexed": false,
          "internalType": "bytes32[]",
          "name": "workScopes",
          "type": "bytes32[]"
        },
        {
          "indexed": false,
          "internalType": "bytes32[]",
          "name": "impactScopes",
          "type": "bytes32[]"
        },
        {
          "indexed": false,
          "internalType": "bytes32[]",
          "name": "rights",
          "type": "bytes32[]"
        },
        {
          "indexed": false,
          "internalType": "uint256",
          "name": "version",
          "type": "uint256"
        },
        {
          "indexed": false,
          "internalType": "string",
          "name": "uri",
          "type": "string"
        }
      ],
      "name": "ImpactClaimed",
      "type": "event"
    },
    {
      "anonymous": false,
      "inputs": [
        {
          "indexed": true,
          "internalType": "bytes32",
          "name": "id",
          "type": "bytes32"
        },
        {
          "indexed": true,
          "internalType": "string",
          "name": "text",
          "type": "string"
        }
      ],
      "name": "ImpactScopeAdded",
      "type": "event"
    },
    {
      "anonymous": false,
      "inputs": [
        {
          "indexed": false,
          "internalType": "uint8",
          "name": "version",
          "type": "uint8"
        }
      ],
      "name": "Initialized",
      "type": "event"
    },
    {
      "anonymous": false,
      "inputs": [
        {
          "indexed": true,
          "internalType": "bytes32",
          "name": "id",
          "type": "bytes32"
        },
        {
          "indexed": true,
          "internalType": "string",
          "name": "text",
          "type": "string"
        }
      ],
      "name": "RightAdded",
      "type": "event"
    },
    {
      "anonymous": false,
      "inputs": [
        {
          "indexed": true,
          "internalType": "bytes32",
          "name": "role",
          "type": "bytes32"
        },
        {
          "indexed": true,
          "internalType": "bytes32",
          "name": "previousAdminRole",
          "type": "bytes32"
        },
        {
          "indexed": true,
          "internalType": "bytes32",
          "name": "newAdminRole",
          "type": "bytes32"
        }
      ],
      "name": "RoleAdminChanged",
      "type": "event"
    },
    {
      "anonymous": false,
      "inputs": [
        {
          "indexed": true,
          "internalType": "bytes32",
          "name": "role",
          "type": "bytes32"
        },
        {
          "indexed": true,
          "internalType": "address",
          "name": "account",
          "type": "address"
        },
        {
          "indexed": true,
          "internalType": "address",
          "name": "sender",
          "type": "address"
        }
      ],
      "name": "RoleGranted",
      "type": "event"
    },
    {
      "anonymous": false,
      "inputs": [
        {
          "indexed": true,
          "internalType": "bytes32",
          "name": "role",
          "type": "bytes32"
        },
        {
          "indexed": true,
          "internalType": "address",
          "name": "account",
          "type": "address"
        },
        {
          "indexed": true,
          "internalType": "address",
          "name": "sender",
          "type": "address"
        }
      ],
      "name": "RoleRevoked",
      "type": "event"
    },
    {
      "anonymous": false,
      "inputs": [
        {
          "indexed": true,
          "internalType": "address",
          "name": "operator",
          "type": "address"
        },
        {
          "indexed": true,
          "internalType": "address",
          "name": "from",
          "type": "address"
        },
        {
          "indexed": true,
          "internalType": "address",
          "name": "to",
          "type": "address"
        },
        {
          "indexed": false,
          "internalType": "uint256[]",
          "name": "ids",
          "type": "uint256[]"
        },
        {
          "indexed": false,
          "internalType": "uint256[]",
          "name": "values",
          "type": "uint256[]"
        }
      ],
      "name": "TransferBatch",
      "type": "event"
    },
    {
      "anonymous": false,
      "inputs": [
        {
          "indexed": true,
          "internalType": "address",
          "name": "operator",
          "type": "address"
        },
        {
          "indexed": true,
          "internalType": "address",
          "name": "from",
          "type": "address"
        },
        {
          "indexed": true,
          "internalType": "address",
          "name": "to",
          "type": "address"
        },
        {
          "indexed": false,
          "internalType": "uint256",
          "name": "id",
          "type": "uint256"
        },
        {
          "indexed": false,
          "internalType": "uint256",
          "name": "value",
          "type": "uint256"
        }
      ],
      "name": "TransferSingle",
      "type": "event"
    },
    {
      "anonymous": false,
      "inputs": [
        {
          "indexed": false,
          "internalType": "string",
          "name": "value",
          "type": "string"
        },
        {
          "indexed": true,
          "internalType": "uint256",
          "name": "id",
          "type": "uint256"
        }
      ],
      "name": "URI",
      "type": "event"
    },
    {
      "anonymous": false,
      "inputs": [
        {
          "indexed": true,
          "internalType": "address",
          "name": "implementation",
          "type": "address"
        }
      ],
      "name": "Upgraded",
      "type": "event"
    },
    {
      "anonymous": false,
      "inputs": [
        {
          "indexed": true,
          "internalType": "bytes32",
          "name": "id",
          "type": "bytes32"
        },
        {
          "indexed": true,
          "internalType": "string",
          "name": "text",
          "type": "string"
        }
      ],
      "name": "WorkScopeAdded",
      "type": "event"
    },
    {
      "inputs": [],
      "name": "DEFAULT_ADMIN_ROLE",
      "outputs": [
        {
          "internalType": "bytes32",
          "name": "",
          "type": "bytes32"
        }
      ],
      "stateMutability": "view",
      "type": "function"
    },
    {
      "inputs": [],
      "name": "UPGRADER_ROLE",
      "outputs": [
        {
          "internalType": "bytes32",
          "name": "",
          "type": "bytes32"
        }
      ],
      "stateMutability": "view",
      "type": "function"
    },
    {
      "inputs": [
        {
          "internalType": "string",
          "name": "text",
          "type": "string"
        }
      ],
      "name": "addImpactScope",
      "outputs": [
        {
          "internalType": "bytes32",
          "name": "id",
          "type": "bytes32"
        }
      ],
      "stateMutability": "nonpayable",
      "type": "function"
    },
    {
      "inputs": [
        {
          "internalType": "string",
          "name": "text",
          "type": "string"
        }
      ],
      "name": "addRight",
      "outputs": [
        {
          "internalType": "bytes32",
          "name": "id",
          "type": "bytes32"
        }
      ],
      "stateMutability": "nonpayable",
      "type": "function"
    },
    {
      "inputs": [
        {
          "internalType": "string",
          "name": "text",
          "type": "string"
        }
      ],
      "name": "addWorkScope",
      "outputs": [
        {
          "internalType": "bytes32",
          "name": "id",
          "type": "bytes32"
        }
      ],
      "stateMutability": "nonpayable",
      "type": "function"
    },
    {
      "inputs": [
        {
          "internalType": "address",
          "name": "account",
          "type": "address"
        },
        {
          "internalType": "uint256",
          "name": "id",
          "type": "uint256"
        }
      ],
      "name": "balanceOf",
      "outputs": [
        {
          "internalType": "uint256",
          "name": "",
          "type": "uint256"
        }
      ],
      "stateMutability": "view",
      "type": "function"
    },
    {
      "inputs": [
        {
          "internalType": "address[]",
          "name": "accounts",
          "type": "address[]"
        },
        {
          "internalType": "uint256[]",
          "name": "ids",
          "type": "uint256[]"
        }
      ],
      "name": "balanceOfBatch",
      "outputs": [
        {
          "internalType": "uint256[]",
          "name": "",
          "type": "uint256[]"
        }
      ],
      "stateMutability": "view",
      "type": "function"
    },
    {
      "inputs": [
        {
          "internalType": "address",
          "name": "account",
          "type": "address"
        },
        {
          "internalType": "uint256",
          "name": "id",
          "type": "uint256"
        },
        {
          "internalType": "uint256",
          "name": "value",
          "type": "uint256"
        }
      ],
      "name": "burn",
      "outputs": [],
      "stateMutability": "nonpayable",
      "type": "function"
    },
    {
      "inputs": [
        {
          "internalType": "address",
          "name": "account",
          "type": "address"
        },
        {
          "internalType": "uint256[]",
          "name": "ids",
          "type": "uint256[]"
        },
        {
          "internalType": "uint256[]",
          "name": "values",
          "type": "uint256[]"
        }
      ],
      "name": "burnBatch",
      "outputs": [],
      "stateMutability": "nonpayable",
      "type": "function"
    },
    {
      "inputs": [
        {
          "internalType": "address",
          "name": "",
          "type": "address"
        },
        {
          "internalType": "bytes32",
          "name": "",
          "type": "bytes32"
        }
      ],
      "name": "contributorImpacts",
      "outputs": [
        {
          "internalType": "bool",
          "name": "",
          "type": "bool"
        }
      ],
      "stateMutability": "view",
      "type": "function"
    },
    {
      "inputs": [],
      "name": "counter",
      "outputs": [
        {
          "internalType": "uint256",
          "name": "",
          "type": "uint256"
        }
      ],
      "stateMutability": "view",
      "type": "function"
    },
    {
      "inputs": [
        {
          "internalType": "uint256",
          "name": "id",
          "type": "uint256"
        }
      ],
      "name": "exists",
      "outputs": [
        {
          "internalType": "bool",
          "name": "",
          "type": "bool"
        }
      ],
      "stateMutability": "view",
      "type": "function"
    },
    {
      "inputs": [
        {
          "internalType": "uint256",
          "name": "claimID",
          "type": "uint256"
        }
      ],
      "name": "getImpactCert",
      "outputs": [
        {
          "components": [
            {
              "internalType": "bytes32",
              "name": "claimHash",
              "type": "bytes32"
            },
            {
              "internalType": "address[]",
              "name": "contributors",
              "type": "address[]"
            },
            {
              "internalType": "uint256[2]",
              "name": "workTimeframe",
              "type": "uint256[2]"
            },
            {
              "internalType": "uint256[2]",
              "name": "impactTimeframe",
              "type": "uint256[2]"
            },
            {
              "internalType": "bytes32[]",
              "name": "workScopes",
              "type": "bytes32[]"
            },
            {
              "internalType": "bytes32[]",
              "name": "impactScopes",
              "type": "bytes32[]"
            },
            {
              "internalType": "bytes32[]",
              "name": "rights",
              "type": "bytes32[]"
            },
            {
              "internalType": "uint256",
              "name": "version",
              "type": "uint256"
            },
            {
              "internalType": "bool",
              "name": "exists",
              "type": "bool"
            }
          ],
          "internalType": "struct HypercertMinterV0.Claim",
          "name": "",
          "type": "tuple"
        }
      ],
      "stateMutability": "view",
      "type": "function"
    },
    {
      "inputs": [
        {
          "internalType": "bytes32",
          "name": "role",
          "type": "bytes32"
        }
      ],
      "name": "getRoleAdmin",
      "outputs": [
        {
          "internalType": "bytes32",
          "name": "",
          "type": "bytes32"
        }
      ],
      "stateMutability": "view",
      "type": "function"
    },
    {
      "inputs": [
        {
          "internalType": "bytes32",
          "name": "role",
          "type": "bytes32"
        },
        {
          "internalType": "address",
          "name": "account",
          "type": "address"
        }
      ],
      "name": "grantRole",
      "outputs": [],
      "stateMutability": "nonpayable",
      "type": "function"
    },
    {
      "inputs": [
        {
          "internalType": "bytes32",
          "name": "role",
          "type": "bytes32"
        },
        {
          "internalType": "address",
          "name": "account",
          "type": "address"
        }
      ],
      "name": "hasRole",
      "outputs": [
        {
          "internalType": "bool",
          "name": "",
          "type": "bool"
        }
      ],
      "stateMutability": "view",
      "type": "function"
    },
    {
      "inputs": [
        {
          "internalType": "bytes32",
          "name": "",
          "type": "bytes32"
        }
      ],
      "name": "impactScopes",
      "outputs": [
        {
          "internalType": "string",
          "name": "",
          "type": "string"
        }
      ],
      "stateMutability": "view",
      "type": "function"
    },
    {
      "inputs": [],
      "name": "initialize",
      "outputs": [],
      "stateMutability": "nonpayable",
      "type": "function"
    },
    {
      "inputs": [
        {
          "internalType": "address",
          "name": "account",
          "type": "address"
        },
        {
          "internalType": "address",
          "name": "operator",
          "type": "address"
        }
      ],
      "name": "isApprovedForAll",
      "outputs": [
        {
          "internalType": "bool",
          "name": "",
          "type": "bool"
        }
      ],
      "stateMutability": "view",
      "type": "function"
    },
    {
      "inputs": [
        {
          "internalType": "address",
          "name": "account",
          "type": "address"
        },
        {
          "internalType": "uint256",
          "name": "amount",
          "type": "uint256"
        },
        {
          "internalType": "bytes",
          "name": "data",
          "type": "bytes"
        }
      ],
      "name": "mint",
      "outputs": [],
      "stateMutability": "nonpayable",
      "type": "function"
    },
    {
      "inputs": [],
      "name": "proxiableUUID",
      "outputs": [
        {
          "internalType": "bytes32",
          "name": "",
          "type": "bytes32"
        }
      ],
      "stateMutability": "view",
      "type": "function"
    },
    {
      "inputs": [
        {
          "internalType": "bytes32",
          "name": "role",
          "type": "bytes32"
        },
        {
          "internalType": "address",
          "name": "account",
          "type": "address"
        }
      ],
      "name": "renounceRole",
      "outputs": [],
      "stateMutability": "nonpayable",
      "type": "function"
    },
    {
      "inputs": [
        {
          "internalType": "bytes32",
          "name": "role",
          "type": "bytes32"
        },
        {
          "internalType": "address",
          "name": "account",
          "type": "address"
        }
      ],
      "name": "revokeRole",
      "outputs": [],
      "stateMutability": "nonpayable",
      "type": "function"
    },
    {
      "inputs": [
        {
          "internalType": "bytes32",
          "name": "",
          "type": "bytes32"
        }
      ],
      "name": "rights",
      "outputs": [
        {
          "internalType": "string",
          "name": "",
          "type": "string"
        }
      ],
      "stateMutability": "view",
      "type": "function"
    },
    {
      "inputs": [
        {
          "internalType": "address",
          "name": "from",
          "type": "address"
        },
        {
          "internalType": "address",
          "name": "to",
          "type": "address"
        },
        {
          "internalType": "uint256[]",
          "name": "ids",
          "type": "uint256[]"
        },
        {
          "internalType": "uint256[]",
          "name": "amounts",
          "type": "uint256[]"
        },
        {
          "internalType": "bytes",
          "name": "data",
          "type": "bytes"
        }
      ],
      "name": "safeBatchTransferFrom",
      "outputs": [],
      "stateMutability": "nonpayable",
      "type": "function"
    },
    {
      "inputs": [
        {
          "internalType": "address",
          "name": "from",
          "type": "address"
        },
        {
          "internalType": "address",
          "name": "to",
          "type": "address"
        },
        {
          "internalType": "uint256",
          "name": "id",
          "type": "uint256"
        },
        {
          "internalType": "uint256",
          "name": "amount",
          "type": "uint256"
        },
        {
          "internalType": "bytes",
          "name": "data",
          "type": "bytes"
        }
      ],
      "name": "safeTransferFrom",
      "outputs": [],
      "stateMutability": "nonpayable",
      "type": "function"
    },
    {
      "inputs": [
        {
          "internalType": "address",
          "name": "operator",
          "type": "address"
        },
        {
          "internalType": "bool",
          "name": "approved",
          "type": "bool"
        }
      ],
      "name": "setApprovalForAll",
      "outputs": [],
      "stateMutability": "nonpayable",
      "type": "function"
    },
    {
      "inputs": [
        {
          "internalType": "bytes4",
          "name": "interfaceId",
          "type": "bytes4"
        }
      ],
      "name": "supportsInterface",
      "outputs": [
        {
          "internalType": "bool",
          "name": "",
          "type": "bool"
        }
      ],
      "stateMutability": "view",
      "type": "function"
    },
    {
      "inputs": [
        {
          "internalType": "uint256",
          "name": "id",
          "type": "uint256"
        }
      ],
      "name": "totalSupply",
      "outputs": [
        {
          "internalType": "uint256",
          "name": "",
          "type": "uint256"
        }
      ],
      "stateMutability": "view",
      "type": "function"
    },
    {
      "inputs": [
        {
          "internalType": "address",
          "name": "newImplementation",
          "type": "address"
        }
      ],
      "name": "upgradeTo",
      "outputs": [],
      "stateMutability": "nonpayable",
      "type": "function"
    },
    {
      "inputs": [
        {
          "internalType": "address",
          "name": "newImplementation",
          "type": "address"
        },
        {
          "internalType": "bytes",
          "name": "data",
          "type": "bytes"
        }
      ],
      "name": "upgradeToAndCall",
      "outputs": [],
      "stateMutability": "payable",
      "type": "function"
    },
    {
      "inputs": [
        {
          "internalType": "uint256",
          "name": "tokenId",
          "type": "uint256"
        }
      ],
      "name": "uri",
      "outputs": [
        {
          "internalType": "string",
          "name": "",
          "type": "string"
        }
      ],
      "stateMutability": "view",
      "type": "function"
    },
    {
      "inputs": [],
      "name": "version",
      "outputs": [
        {
          "internalType": "uint256",
          "name": "",
          "type": "uint256"
        }
      ],
      "stateMutability": "pure",
      "type": "function"
    },
    {
      "inputs": [
        {
          "internalType": "bytes32",
          "name": "",
          "type": "bytes32"
        }
      ],
      "name": "workScopes",
      "outputs": [
        {
          "internalType": "string",
          "name": "",
          "type": "string"
        }
      ],
      "stateMutability": "view",
      "type": "function"
    }
  ],
  "bytecode": "0x60a0604052306080523480156200001557600080fd5b506200002062000026565b620000e8565b600054610100900460ff1615620000935760405162461bcd60e51b815260206004820152602760248201527f496e697469616c697a61626c653a20636f6e747261637420697320696e697469604482015266616c697a696e6760c81b606482015260840160405180910390fd5b60005460ff9081161015620000e6576000805460ff191660ff9081179091556040519081527f7f26b83ff96e1f2b6a682f133852f6798a09c465da95921460cefb38474024989060200160405180910390a15b565b6080516149f16200012060003960008181610a4101528181610ac601528181610cfa01528181610d7f0152610e6501526149f16000f3fe6080604052600436106102185760003560e01c806372927aa31161011d578063bd85b039116100b0578063ef6f66d71161007f578063f242432a11610064578063f242432a1461069d578063f5298aca146106bd578063f72c0d8b146106dd57600080fd5b8063ef6f66d71461065d578063f0f11e051461067d57600080fd5b8063bd85b039146105a7578063d52fd095146105d4578063d547741f146105f4578063e985e9c51461061457600080fd5b806394d008ef116100ec57806394d008ef14610532578063997edc6114610552578063a217fddf14610572578063a22cb4651461058757600080fd5b806372927aa31461048a5780638129fc1c146104b75780638f88b767146104cc57806391d14854146104ec57600080fd5b80633659cfe6116101b05780634f558e791161017f57806354fd4d501161016457806354fd4d501461043f57806361bc221a146104535780636b20c4541461046a57600080fd5b80634f558e79146103fb57806352d1902d1461042a57600080fd5b80633659cfe61461035f5780633a3acca51461037f5780634e1273f4146103bb5780634f1ef286146103e857600080fd5b8063248a9ca3116101ec578063248a9ca3146102cd5780632eb2c2d6146102fd5780632f2ff15d1461031f57806336568abe1461033f57600080fd5b8062fdd58e1461021d57806301ffc9a7146102505780630e89341c146102805780631e6ad4b8146102ad575b600080fd5b34801561022957600080fd5b5061023d6102383660046139c7565b610711565b6040519081526020015b60405180910390f35b34801561025c57600080fd5b5061027061026b366004613a09565b6107bc565b6040519015158152602001610247565b34801561028c57600080fd5b506102a061029b366004613a26565b6107cd565b6040516102479190613a97565b3480156102b957600080fd5b5061023d6102c8366004613b5b565b6107d8565b3480156102d957600080fd5b5061023d6102e8366004613a26565b60009081526097602052604090206001015490565b34801561030957600080fd5b5061031d610318366004613c61565b6108ed565b005b34801561032b57600080fd5b5061031d61033a366004613d0f565b610981565b34801561034b57600080fd5b5061031d61035a366004613d0f565b6109ab565b34801561036b57600080fd5b5061031d61037a366004613d3f565b610a37565b34801561038b57600080fd5b5061027061039a3660046139c7565b6101c860209081526000928352604080842090915290825290205460ff1681565b3480156103c757600080fd5b506103db6103d6366004613d5c565b610bb2565b6040516102479190613e64565b61031d6103f6366004613e77565b610cf0565b34801561040757600080fd5b50610270610416366004613a26565b600090815260fb6020526040902054151590565b34801561043657600080fd5b5061023d610e58565b34801561044b57600080fd5b50600061023d565b34801561045f57600080fd5b5061023d6101c45481565b34801561047657600080fd5b5061031d610485366004613ebd565b610f1e565b34801561049657600080fd5b506104aa6104a5366004613a26565b610fa9565b6040516102479190613f8f565b3480156104c357600080fd5b5061031d6111c8565b3480156104d857600080fd5b506102a06104e7366004613a26565b61135e565b3480156104f857600080fd5b50610270610507366004613d0f565b60009182526097602090815260408084206001600160a01b0393909316845291905290205460ff1690565b34801561053e57600080fd5b5061031d61054d366004614065565b6113f9565b34801561055e57600080fd5b5061023d61056d366004613b5b565b611714565b34801561057e57600080fd5b5061023d600081565b34801561059357600080fd5b5061031d6105a23660046140b4565b611829565b3480156105b357600080fd5b5061023d6105c2366004613a26565b600090815260fb602052604090205490565b3480156105e057600080fd5b506102a06105ef366004613a26565b611834565b34801561060057600080fd5b5061031d61060f366004613d0f565b61184e565b34801561062057600080fd5b5061027061062f3660046140e7565b6001600160a01b03918216600090815260666020908152604080832093909416825291909152205460ff1690565b34801561066957600080fd5b506102a0610678366004613a26565b611873565b34801561068957600080fd5b5061023d610698366004613b5b565b61188d565b3480156106a957600080fd5b5061031d6106b8366004614115565b6119a2565b3480156106c957600080fd5b5061031d6106d836600461417e565b611a2f565b3480156106e957600080fd5b5061023d7f189ab7a9244df0848122154315af71fe140f3db0fe014031783b0946b8c9d2e381565b60006001600160a01b0383166107945760405162461bcd60e51b815260206004820152602a60248201527f455243313135353a2061646472657373207a65726f206973206e6f742061207660448201527f616c6964206f776e65720000000000000000000000000000000000000000000060648201526084015b60405180910390fd5b5060009081526065602090815260408083206001600160a01b03949094168352929052205490565b60006107c782611aba565b92915050565b60606107c782611adf565b60008082511161082a5760405162461bcd60e51b815260206004820152601a60248201527f616464496d7061637453636f70653a20656d7074792074657874000000000000604482015260640161078b565b61083382611bc1565b90506108416101c682611bf1565b1561088e5760405162461bcd60e51b815260206004820152601e60248201527f616464496d7061637453636f70653a20616c7265616479206578697374730000604482015260640161078b565b60008181526101c6602052604090206108a78382614233565b50816040516108b691906142f3565b6040519081900381209082907f2efcce702e3d0b95b3deb632da6d41c3d169e0c3effb9066d949f14d6f13224f90600090a3919050565b6001600160a01b0385163314806109095750610909853361062f565b61096d5760405162461bcd60e51b815260206004820152602f60248201527f455243313135353a2063616c6c6572206973206e6f7420746f6b656e206f776e60448201526e195c881b9bdc88185c1c1c9bdd9959608a1b606482015260840161078b565b61097a8585858585611c18565b5050505050565b60008281526097602052604090206001015461099c81611e87565b6109a68383611e91565b505050565b6001600160a01b0381163314610a295760405162461bcd60e51b815260206004820152602f60248201527f416363657373436f6e74726f6c3a2063616e206f6e6c792072656e6f756e636560448201527f20726f6c657320666f722073656c660000000000000000000000000000000000606482015260840161078b565b610a338282611f33565b5050565b6001600160a01b037f0000000000000000000000000000000000000000000000000000000000000000163003610ac45760405162461bcd60e51b815260206004820152602c60248201527f46756e6374696f6e206d7573742062652063616c6c6564207468726f7567682060448201526b19195b1959d85d1958d85b1b60a21b606482015260840161078b565b7f00000000000000000000000000000000000000000000000000000000000000006001600160a01b0316610b1f7f360894a13ba1a3210667c828492db98dca3e2076cc3735a920a3ca505d382bbc546001600160a01b031690565b6001600160a01b031614610b8a5760405162461bcd60e51b815260206004820152602c60248201527f46756e6374696f6e206d7573742062652063616c6c6564207468726f7567682060448201526b6163746976652070726f787960a01b606482015260840161078b565b610b9381611fb6565b60408051600080825260208201909252610baf91839190611fe0565b50565b60608151835114610c2b5760405162461bcd60e51b815260206004820152602960248201527f455243313135353a206163636f756e747320616e6420696473206c656e67746860448201527f206d69736d617463680000000000000000000000000000000000000000000000606482015260840161078b565b6000835167ffffffffffffffff811115610c4757610c47613aaa565b604051908082528060200260200182016040528015610c70578160200160208202803683370190505b50905060005b8451811015610ce857610cbb858281518110610c9457610c9461430f565b6020026020010151858381518110610cae57610cae61430f565b6020026020010151610711565b828281518110610ccd57610ccd61430f565b6020908102919091010152610ce18161433b565b9050610c76565b509392505050565b6001600160a01b037f0000000000000000000000000000000000000000000000000000000000000000163003610d7d5760405162461bcd60e51b815260206004820152602c60248201527f46756e6374696f6e206d7573742062652063616c6c6564207468726f7567682060448201526b19195b1959d85d1958d85b1b60a21b606482015260840161078b565b7f00000000000000000000000000000000000000000000000000000000000000006001600160a01b0316610dd87f360894a13ba1a3210667c828492db98dca3e2076cc3735a920a3ca505d382bbc546001600160a01b031690565b6001600160a01b031614610e435760405162461bcd60e51b815260206004820152602c60248201527f46756e6374696f6e206d7573742062652063616c6c6564207468726f7567682060448201526b6163746976652070726f787960a01b606482015260840161078b565b610e4c82611fb6565b610a3382826001611fe0565b6000306001600160a01b037f00000000000000000000000000000000000000000000000000000000000000001614610ef85760405162461bcd60e51b815260206004820152603860248201527f555550535570677261646561626c653a206d757374206e6f742062652063616c60448201527f6c6564207468726f7567682064656c656761746563616c6c0000000000000000606482015260840161078b565b507f360894a13ba1a3210667c828492db98dca3e2076cc3735a920a3ca505d382bbc5b90565b6001600160a01b038316331480610f3a5750610f3a833361062f565b610f9e5760405162461bcd60e51b815260206004820152602f60248201527f455243313135353a2063616c6c6572206973206e6f7420746f6b656e206f776e60448201526e195c881b9bdc88185c1c1c9bdd9959608a1b606482015260840161078b565b6109a6838383612180565b610fb161384c565b60008281526101c96020908152604091829020825161012081018452815481526001820180548551818602810186019096528086529194929385810193929083018282801561102957602002820191906000526020600020905b81546001600160a01b0316815260019091019060200180831161100b575b505050918352505060408051808201918290526020909201919060028481019182845b81548152602001906001019080831161104c575050509183525050604080518082019182905260209092019190600484019060029082845b8154815260200190600101908083116110845750505050508152602001600682018054806020026020016040519081016040528092919081815260200182805480156110ef57602002820191906000526020600020905b8154815260200190600101908083116110db575b505050505081526020016007820180548060200260200160405190810160405280929190818152602001828054801561114757602002820191906000526020600020905b815481526020019060010190808311611133575b505050505081526020016008820180548060200260200160405190810160405280929190818152602001828054801561119f57602002820191906000526020600020905b81548152602001906001019080831161118b575b505050918352505060098201546020820152600a9091015460ff16151560409091015292915050565b600054610100900460ff16158080156111e85750600054600160ff909116105b806112025750303b158015611202575060005460ff166001145b6112745760405162461bcd60e51b815260206004820152602e60248201527f496e697469616c697a61626c653a20636f6e747261637420697320616c72656160448201527f647920696e697469616c697a6564000000000000000000000000000000000000606482015260840161078b565b6000805460ff191660011790558015611297576000805461ff0019166101001790555b6112af604051806020016040528060008152506123da565b6112b761244e565b6112bf61244e565b6112c76124bb565b6112cf61244e565b6112da600033611e91565b6113047f189ab7a9244df0848122154315af71fe140f3db0fe014031783b0946b8c9d2e333611e91565b6101c3805461ffff1916905560006101c4558015610baf576000805461ff0019169055604051600181527f7f26b83ff96e1f2b6a682f133852f6798a09c465da95921460cefb38474024989060200160405180910390a150565b6101c56020526000908152604090208054611378906141b3565b80601f01602080910402602001604051908101604052809291908181526020018280546113a4906141b3565b80156113f15780601f106113c6576101008083540402835291602001916113f1565b820191906000526020600020905b8154815290600101906020018083116113d457829003601f168201915b505050505081565b6001600160a01b03831661144f5760405162461bcd60e51b815260206004820152601e60248201527f4d696e743a206d696e7420746f20746865207a65726f20616464726573730000604482015260640161078b565b60008061145b8361252e565b9150915060005b8260a00151518110156114f6576114986101c68460a00151838151811061148b5761148b61430f565b6020026020010151611bf1565b6114e45760405162461bcd60e51b815260206004820152601a60248201527f4d696e743a20696e76616c696420696d706163742073636f7065000000000000604482015260640161078b565b806114ee8161433b565b915050611462565b5060005b826080015151811015611581576115236101c58460800151838151811061148b5761148b61430f565b61156f5760405162461bcd60e51b815260206004820152601860248201527f4d696e743a20696e76616c696420776f726b2073636f70650000000000000000604482015260640161078b565b806115798161433b565b9150506114fa565b506115948260000151836020015161263f565b6101c45460009081526101c9602090815260409091208351815581840151805185936115c79260018501929101906138a5565b5060408201516115dd9060028084019190613917565b5060608201516115f39060048301906002613917565b506080820151805161160f916006840191602090910190613945565b5060a0820151805161162b916007840191602090910190613945565b5060c08201518051611647916008840191602090910190613945565b5060e0820151600982015561010090910151600a909101805460ff19169115159190911790556101c45461167b9082612773565b61168a856101c45486866127d1565b81600001516101c4547f8a5e2ad605927fd0538691713998234ea0be291a0621aadc32da2b59b5ea636284602001518560400151866060015187608001518860a001518960c001518a60e001518a6040516116ec989796959493929190614354565b60405180910390a360016101c4600082825461170891906143e9565b90915550505050505050565b6000808251116117665760405162461bcd60e51b815260206004820152601860248201527f616464576f726b53636f70653a20656d70747920746578740000000000000000604482015260640161078b565b61176f82611bc1565b905061177d6101c582611bf1565b156117ca5760405162461bcd60e51b815260206004820152601c60248201527f616464576f726b53636f70653a20616c72656164792065786973747300000000604482015260640161078b565b60008181526101c5602052604090206117e38382614233565b50816040516117f291906142f3565b6040519081900381209082907f8b841033bc947e807d9766c542105a3dbb0bae62591be7b5c8cd4f37f698bf7390600090a3919050565b610a333383836128f6565b6101c76020526000908152604090208054611378906141b3565b60008281526097602052604090206001015461186981611e87565b6109a68383611f33565b6101c66020526000908152604090208054611378906141b3565b6000808251116118df5760405162461bcd60e51b815260206004820152601460248201527f61646452696768743a20656d7074792074657874000000000000000000000000604482015260640161078b565b6118e882611bc1565b90506118f66101c782611bf1565b156119435760405162461bcd60e51b815260206004820152601860248201527f61646452696768743a20616c7265616479206578697374730000000000000000604482015260640161078b565b60008181526101c76020526040902061195c8382614233565b508160405161196b91906142f3565b6040519081900381209082907f4527d373276b1ece0c8dd18e140572f93feffd35a0993d9e4de70623b1ac93ce90600090a3919050565b6001600160a01b0385163314806119be57506119be853361062f565b611a225760405162461bcd60e51b815260206004820152602f60248201527f455243313135353a2063616c6c6572206973206e6f7420746f6b656e206f776e60448201526e195c881b9bdc88185c1c1c9bdd9959608a1b606482015260840161078b565b61097a85858585856129ea565b6001600160a01b038316331480611a4b5750611a4b833361062f565b611aaf5760405162461bcd60e51b815260206004820152602f60248201527f455243313135353a2063616c6c6572206973206e6f7420746f6b656e206f776e60448201526e195c881b9bdc88185c1c1c9bdd9959608a1b606482015260840161078b565b6109a6838383612ba7565b60006001600160e01b03198216637965db0b60e01b14806107c757506107c782612d3b565b600081815261012e6020526040812080546060929190611afe906141b3565b80601f0160208091040260200160405190810160405280929190818152602001828054611b2a906141b3565b8015611b775780601f10611b4c57610100808354040283529160200191611b77565b820191906000526020600020905b815481529060010190602001808311611b5a57829003601f168201915b505050505090506000815111611b9557611b9083612d8b565b611bba565b61012d81604051602001611baa929190614401565b6040516020818303038152906040525b9392505050565b600081604051602001611bd49190613a97565b604051602081830303815290604052805190602001209050919050565b60008181526020839052604081208054829190611c0d906141b3565b905011905092915050565b8151835114611c7a5760405162461bcd60e51b815260206004820152602860248201527f455243313135353a2069647320616e6420616d6f756e7473206c656e677468206044820152670dad2e6dac2e8c6d60c31b606482015260840161078b565b6001600160a01b038416611cde5760405162461bcd60e51b815260206004820152602560248201527f455243313135353a207472616e7366657220746f20746865207a65726f206164604482015264647265737360d81b606482015260840161078b565b33611ced818787878787612e1f565b60005b8451811015611e19576000858281518110611d0d57611d0d61430f565b602002602001015190506000858381518110611d2b57611d2b61430f565b60209081029190910181015160008481526065835260408082206001600160a01b038e168352909352919091205490915081811015611dbf5760405162461bcd60e51b815260206004820152602a60248201527f455243313135353a20696e73756666696369656e742062616c616e636520666f60448201526939103a3930b739b332b960b11b606482015260840161078b565b60008381526065602090815260408083206001600160a01b038e8116855292528083208585039055908b16825281208054849290611dfe9084906143e9565b9250508190555050505080611e129061433b565b9050611cf0565b50846001600160a01b0316866001600160a01b0316826001600160a01b03167f4a39dc06d4c0dbc64b70af90fd698a233a518aa5d07e595d983b8c0526c8f7fb8787604051611e69929190614488565b60405180910390a4611e7f818787878787612e2d565b505050505050565b610baf8133612fd2565b60008281526097602090815260408083206001600160a01b038516845290915290205460ff16610a335760008281526097602090815260408083206001600160a01b03851684529091529020805460ff19166001179055611eef3390565b6001600160a01b0316816001600160a01b0316837f2f8788117e7eff1d82e926ec794901d17c78024a50270940304540a733656f0d60405160405180910390a45050565b60008281526097602090815260408083206001600160a01b038516845290915290205460ff1615610a335760008281526097602090815260408083206001600160a01b0385168085529252808320805460ff1916905551339285917ff6391f5c32d9c69d2a47ea670b442974b53935d1edc7fd64eb21e047a839171b9190a45050565b7f189ab7a9244df0848122154315af71fe140f3db0fe014031783b0946b8c9d2e3610a3381611e87565b7f4910fdfa16fed3260ed0e7147f7cc6da11a60208b5b9406d12a635614ffd91435460ff1615612013576109a683613052565b826001600160a01b03166352d1902d6040518163ffffffff1660e01b8152600401602060405180830381865afa92505050801561206d575060408051601f3d908101601f1916820190925261206a918101906144ad565b60015b6120df5760405162461bcd60e51b815260206004820152602e60248201527f45524331393637557067726164653a206e657720696d706c656d656e7461746960448201527f6f6e206973206e6f742055555053000000000000000000000000000000000000606482015260840161078b565b7f360894a13ba1a3210667c828492db98dca3e2076cc3735a920a3ca505d382bbc81146121745760405162461bcd60e51b815260206004820152602960248201527f45524331393637557067726164653a20756e737570706f727465642070726f7860448201527f6961626c65555549440000000000000000000000000000000000000000000000606482015260840161078b565b506109a683838361311d565b6001600160a01b0383166121e25760405162461bcd60e51b815260206004820152602360248201527f455243313135353a206275726e2066726f6d20746865207a65726f206164647260448201526265737360e81b606482015260840161078b565b80518251146122445760405162461bcd60e51b815260206004820152602860248201527f455243313135353a2069647320616e6420616d6f756e7473206c656e677468206044820152670dad2e6dac2e8c6d60c31b606482015260840161078b565b600033905061226781856000868660405180602001604052806000815250612e1f565b60005b835181101561236b5760008482815181106122875761228761430f565b6020026020010151905060008483815181106122a5576122a561430f565b60209081029190910181015160008481526065835260408082206001600160a01b038c1683529093529190912054909150818110156123325760405162461bcd60e51b8152602060048201526024808201527f455243313135353a206275726e20616d6f756e7420657863656564732062616c604482015263616e636560e01b606482015260840161078b565b60009283526065602090815260408085206001600160a01b038b16865290915290922091039055806123638161433b565b91505061226a565b5060006001600160a01b0316846001600160a01b0316826001600160a01b03167f4a39dc06d4c0dbc64b70af90fd698a233a518aa5d07e595d983b8c0526c8f7fb86866040516123bc929190614488565b60405180910390a46040805160208101909152600090525b50505050565b600054610100900460ff166124455760405162461bcd60e51b815260206004820152602b60248201527f496e697469616c697a61626c653a20636f6e7472616374206973206e6f74206960448201526a6e697469616c697a696e6760a81b606482015260840161078b565b610baf81613142565b600054610100900460ff166124b95760405162461bcd60e51b815260206004820152602b60248201527f496e697469616c697a61626c653a20636f6e7472616374206973206e6f74206960448201526a6e697469616c697a696e6760a81b606482015260840161078b565b565b600054610100900460ff166125265760405162461bcd60e51b815260206004820152602b60248201527f496e697469616c697a61626c653a20636f6e7472616374206973206e6f74206960448201526a6e697469616c697a696e6760a81b606482015260840161078b565b6124b96131b6565b61253661384c565b606060008351116125895760405162461bcd60e51b815260206004820152601760248201527f50617273653a20696e707574206461746120656d707479000000000000000000604482015260640161078b565b6000808060008060008060008a8060200190518101906125a9919061465a565b96509650965096509650965096506000848785888c6040516020016125d2959493929190614751565b6040516020818303038152906040528051906020012090506125f261384c565b908152602081019290925260408201939093526060810191909152608081019390935260a083019190915260c082019290925260e081019290925260016101008301529094909350915050565b60005b81518110156109a6576101c860008383815181106126625761266261430f565b6020908102919091018101516001600160a01b03168252818101929092526040908101600090812086825290925290205460ff16156127095760405162461bcd60e51b815260206004820152602560248201527f436c61696d3a20636c61696d20666f722063726561746f7273206f7665726c6160448201527f7070696e67000000000000000000000000000000000000000000000000000000606482015260840161078b565b60016101c860008484815181106127225761272261430f565b6020908102919091018101516001600160a01b0316825281810192909252604090810160009081208782529092529020805460ff19169115159190911790558061276b8161433b565b915050612642565b600082815261012e6020526040902061278c8282614233565b50817f6bb7ff708619ba0610cba295a58592e0451dee2622938c8755667688daf3529b6127b8846107cd565b6040516127c59190613a97565b60405180910390a25050565b6001600160a01b0384166128315760405162461bcd60e51b815260206004820152602160248201527f455243313135353a206d696e7420746f20746865207a65726f206164647265736044820152607360f81b606482015260840161078b565b33600061283d8561323e565b9050600061284a8561323e565b905061285b83600089858589612e1f565b60008681526065602090815260408083206001600160a01b038b1684529091528120805487929061288d9084906143e9565b909155505060408051878152602081018790526001600160a01b03808a1692600092918716917fc3d58168c5ae7397731d063d5bbf3d657854427343f4c083240f7aacaa2d0f62910160405180910390a46128ed83600089898989613289565b50505050505050565b816001600160a01b0316836001600160a01b03160361297d5760405162461bcd60e51b815260206004820152602960248201527f455243313135353a2073657474696e6720617070726f76616c2073746174757360448201527f20666f722073656c660000000000000000000000000000000000000000000000606482015260840161078b565b6001600160a01b03838116600081815260666020908152604080832094871680845294825291829020805460ff191686151590811790915591519182527f17307eab39ab6107e8899845ad3d59bd9653f200f220920489ca2b5937696c31910160405180910390a3505050565b6001600160a01b038416612a4e5760405162461bcd60e51b815260206004820152602560248201527f455243313135353a207472616e7366657220746f20746865207a65726f206164604482015264647265737360d81b606482015260840161078b565b336000612a5a8561323e565b90506000612a678561323e565b9050612a77838989858589612e1f565b60008681526065602090815260408083206001600160a01b038c16845290915290205485811015612afd5760405162461bcd60e51b815260206004820152602a60248201527f455243313135353a20696e73756666696369656e742062616c616e636520666f60448201526939103a3930b739b332b960b11b606482015260840161078b565b60008781526065602090815260408083206001600160a01b038d8116855292528083208985039055908a16825281208054889290612b3c9084906143e9565b909155505060408051888152602081018890526001600160a01b03808b16928c821692918816917fc3d58168c5ae7397731d063d5bbf3d657854427343f4c083240f7aacaa2d0f62910160405180910390a4612b9c848a8a8a8a8a613289565b505050505050505050565b6001600160a01b038316612c095760405162461bcd60e51b815260206004820152602360248201527f455243313135353a206275726e2066726f6d20746865207a65726f206164647260448201526265737360e81b606482015260840161078b565b336000612c158461323e565b90506000612c228461323e565b9050612c4283876000858560405180602001604052806000815250612e1f565b60008581526065602090815260408083206001600160a01b038a16845290915290205484811015612cc15760405162461bcd60e51b8152602060048201526024808201527f455243313135353a206275726e20616d6f756e7420657863656564732062616c604482015263616e636560e01b606482015260840161078b565b60008681526065602090815260408083206001600160a01b038b81168086529184528285208a8703905582518b81529384018a90529092908816917fc3d58168c5ae7397731d063d5bbf3d657854427343f4c083240f7aacaa2d0f62910160405180910390a46040805160208101909152600090526128ed565b60006001600160e01b03198216636cdb3d1360e11b1480612d6c57506001600160e01b031982166303a24d0760e21b145b806107c757506301ffc9a760e01b6001600160e01b03198316146107c7565b606060678054612d9a906141b3565b80601f0160208091040260200160405190810160405280929190818152602001828054612dc6906141b3565b8015612e135780601f10612de857610100808354040283529160200191612e13565b820191906000526020600020905b815481529060010190602001808311612df657829003601f168201915b50505050509050919050565b611e7f868686868686613385565b6001600160a01b0384163b15611e7f5760405163bc197c8160e01b81526001600160a01b0385169063bc197c8190612e7190899089908890889088906004016147a3565b6020604051808303816000875af1925050508015612eac575060408051601f3d908101601f19168201909252612ea991810190614801565b60015b612f6157612eb861481e565b806308c379a003612ef15750612ecc614839565b80612ed75750612ef3565b8060405162461bcd60e51b815260040161078b9190613a97565b505b60405162461bcd60e51b815260206004820152603460248201527f455243313135353a207472616e7366657220746f206e6f6e204552433131353560448201527f526563656976657220696d706c656d656e746572000000000000000000000000606482015260840161078b565b6001600160e01b0319811663bc197c8160e01b146128ed5760405162461bcd60e51b815260206004820152602860248201527f455243313135353a204552433131353552656365697665722072656a656374656044820152676420746f6b656e7360c01b606482015260840161078b565b60008281526097602090815260408083206001600160a01b038516845290915290205460ff16610a3357613010816001600160a01b03166014613513565b61301b836020613513565b60405160200161302c9291906148c3565b60408051601f198184030181529082905262461bcd60e51b825261078b91600401613a97565b6001600160a01b0381163b6130cf5760405162461bcd60e51b815260206004820152602d60248201527f455243313936373a206e657720696d706c656d656e746174696f6e206973206e60448201527f6f74206120636f6e747261637400000000000000000000000000000000000000606482015260840161078b565b7f360894a13ba1a3210667c828492db98dca3e2076cc3735a920a3ca505d382bbc805473ffffffffffffffffffffffffffffffffffffffff19166001600160a01b0392909216919091179055565b613126836136bc565b6000825111806131335750805b156109a6576123d483836136fc565b600054610100900460ff166131ad5760405162461bcd60e51b815260206004820152602b60248201527f496e697469616c697a61626c653a20636f6e7472616374206973206e6f74206960448201526a6e697469616c697a696e6760a81b606482015260840161078b565b610baf81613807565b600054610100900460ff166132215760405162461bcd60e51b815260206004820152602b60248201527f496e697469616c697a61626c653a20636f6e7472616374206973206e6f74206960448201526a6e697469616c697a696e6760a81b606482015260840161078b565b60408051602081019091526000815261012d90610baf9082614233565b604080516001808252818301909252606091600091906020808301908036833701905050905082816000815181106132785761327861430f565b602090810291909101015292915050565b6001600160a01b0384163b15611e7f5760405163f23a6e6160e01b81526001600160a01b0385169063f23a6e61906132cd9089908990889088908890600401614944565b6020604051808303816000875af1925050508015613308575060408051601f3d908101601f1916820190925261330591810190614801565b60015b61331457612eb861481e565b6001600160e01b0319811663f23a6e6160e01b146128ed5760405162461bcd60e51b815260206004820152602860248201527f455243313135353a204552433131353552656365697665722072656a656374656044820152676420746f6b656e7360c01b606482015260840161078b565b6001600160a01b03851661340c5760005b835181101561340a578281815181106133b1576133b161430f565b602002602001015160fb60008684815181106133cf576133cf61430f565b6020026020010151815260200190815260200160002060008282546133f491906143e9565b9091555061340390508161433b565b9050613396565b505b6001600160a01b038416611e7f5760005b83518110156128ed57600084828151811061343a5761343a61430f565b6020026020010151905060008483815181106134585761345861430f565b60200260200101519050600060fb6000848152602001908152602001600020549050818110156134f05760405162461bcd60e51b815260206004820152602860248201527f455243313135353a206275726e20616d6f756e74206578636565647320746f7460448201527f616c537570706c79000000000000000000000000000000000000000000000000606482015260840161078b565b600092835260fb60205260409092209103905561350c8161433b565b905061341d565b60606000613522836002614987565b61352d9060026143e9565b67ffffffffffffffff81111561354557613545613aaa565b6040519080825280601f01601f19166020018201604052801561356f576020820181803683370190505b509050600360fc1b8160008151811061358a5761358a61430f565b60200101906001600160f81b031916908160001a905350600f60fb1b816001815181106135b9576135b961430f565b60200101906001600160f81b031916908160001a90535060006135dd846002614987565b6135e89060016143e9565b90505b600181111561366d577f303132333435363738396162636465660000000000000000000000000000000085600f16601081106136295761362961430f565b1a60f81b82828151811061363f5761363f61430f565b60200101906001600160f81b031916908160001a90535060049490941c93613666816149a6565b90506135eb565b508315611bba5760405162461bcd60e51b815260206004820181905260248201527f537472696e67733a20686578206c656e67746820696e73756666696369656e74604482015260640161078b565b6136c581613052565b6040516001600160a01b038216907fbc7cd75a20ee27fd9adebab32041f755214dbc6bffa90cc0225b39da2e5c2d3b90600090a250565b60606001600160a01b0383163b61377b5760405162461bcd60e51b815260206004820152602660248201527f416464726573733a2064656c65676174652063616c6c20746f206e6f6e2d636f60448201527f6e74726163740000000000000000000000000000000000000000000000000000606482015260840161078b565b600080846001600160a01b03168460405161379691906142f3565b600060405180830381855af49150503d80600081146137d1576040519150601f19603f3d011682016040523d82523d6000602084013e6137d6565b606091505b50915091506137fe82826040518060600160405280602781526020016149be60279139613813565b95945050505050565b6067610a338282614233565b60608315613822575081611bba565b8251156138325782518084602001fd5b8160405162461bcd60e51b815260040161078b9190613a97565b6040805161012081018252600081526060602082015290810161386d61397f565b815260200161387a61397f565b8152602001606081526020016060815260200160608152602001600081526020016000151581525090565b828054828255906000526020600020908101928215613907579160200282015b82811115613907578251825473ffffffffffffffffffffffffffffffffffffffff19166001600160a01b039091161782556020909201916001909101906138c5565b5061391392915061399d565b5090565b8260028101928215613907579160200282015b8281111561390757825182559160200191906001019061392a565b828054828255906000526020600020908101928215613907579160200282018281111561390757825182559160200191906001019061392a565b60405180604001604052806002906020820280368337509192915050565b5b80821115613913576000815560010161399e565b6001600160a01b0381168114610baf57600080fd5b600080604083850312156139da57600080fd5b82356139e5816139b2565b946020939093013593505050565b6001600160e01b031981168114610baf57600080fd5b600060208284031215613a1b57600080fd5b8135611bba816139f3565b600060208284031215613a3857600080fd5b5035919050565b60005b83811015613a5a578181015183820152602001613a42565b838111156123d45750506000910152565b60008151808452613a83816020860160208601613a3f565b601f01601f19169290920160200192915050565b602081526000611bba6020830184613a6b565b634e487b7160e01b600052604160045260246000fd5b601f8201601f1916810167ffffffffffffffff81118282101715613ae657613ae6613aaa565b6040525050565b600067ffffffffffffffff821115613b0757613b07613aaa565b50601f01601f191660200190565b6000613b2083613aed565b604051613b2d8282613ac0565b809250848152858585011115613b4257600080fd5b8484602083013760006020868301015250509392505050565b600060208284031215613b6d57600080fd5b813567ffffffffffffffff811115613b8457600080fd5b8201601f81018413613b9557600080fd5b613ba484823560208401613b15565b949350505050565b600067ffffffffffffffff821115613bc657613bc6613aaa565b5060051b60200190565b600082601f830112613be157600080fd5b81356020613bee82613bac565b604051613bfb8282613ac0565b83815260059390931b8501820192828101915086841115613c1b57600080fd5b8286015b84811015613c365780358352918301918301613c1f565b509695505050505050565b600082601f830112613c5257600080fd5b611bba83833560208501613b15565b600080600080600060a08688031215613c7957600080fd5b8535613c84816139b2565b94506020860135613c94816139b2565b9350604086013567ffffffffffffffff80821115613cb157600080fd5b613cbd89838a01613bd0565b94506060880135915080821115613cd357600080fd5b613cdf89838a01613bd0565b93506080880135915080821115613cf557600080fd5b50613d0288828901613c41565b9150509295509295909350565b60008060408385031215613d2257600080fd5b823591506020830135613d34816139b2565b809150509250929050565b600060208284031215613d5157600080fd5b8135611bba816139b2565b60008060408385031215613d6f57600080fd5b823567ffffffffffffffff80821115613d8757600080fd5b818501915085601f830112613d9b57600080fd5b81356020613da882613bac565b604051613db58282613ac0565b83815260059390931b8501820192828101915089841115613dd557600080fd5b948201945b83861015613dfc578535613ded816139b2565b82529482019490820190613dda565b96505086013592505080821115613e1257600080fd5b50613e1f85828601613bd0565b9150509250929050565b600081518084526020808501945080840160005b83811015613e5957815187529582019590820190600101613e3d565b509495945050505050565b602081526000611bba6020830184613e29565b60008060408385031215613e8a57600080fd5b8235613e95816139b2565b9150602083013567ffffffffffffffff811115613eb157600080fd5b613e1f85828601613c41565b600080600060608486031215613ed257600080fd5b8335613edd816139b2565b9250602084013567ffffffffffffffff80821115613efa57600080fd5b613f0687838801613bd0565b93506040860135915080821115613f1c57600080fd5b50613f2986828701613bd0565b9150509250925092565b600081518084526020808501945080840160005b83811015613e595781516001600160a01b031687529582019590820190600101613f47565b8060005b60028110156123d4578151845260209384019390910190600101613f70565b602081528151602082015260006020830151610160806040850152613fb8610180850183613f33565b91506040850151613fcc6060860182613f6c565b506060850151613fdf60a0860182613f6c565b506080850151601f19808685030160e0870152613ffc8483613e29565b935060a0870151915061010081878603018188015261401b8584613e29565b945060c0880151925081878603016101208801526140398584613e29565b945060e0880151610140880152808801519250505061405b8286018215159052565b5090949350505050565b60008060006060848603121561407a57600080fd5b8335614085816139b2565b925060208401359150604084013567ffffffffffffffff8111156140a857600080fd5b613f2986828701613c41565b600080604083850312156140c757600080fd5b82356140d2816139b2565b915060208301358015158114613d3457600080fd5b600080604083850312156140fa57600080fd5b8235614105816139b2565b91506020830135613d34816139b2565b600080600080600060a0868803121561412d57600080fd5b8535614138816139b2565b94506020860135614148816139b2565b93506040860135925060608601359150608086013567ffffffffffffffff81111561417257600080fd5b613d0288828901613c41565b60008060006060848603121561419357600080fd5b833561419e816139b2565b95602085013595506040909401359392505050565b600181811c908216806141c757607f821691505b6020821081036141e757634e487b7160e01b600052602260045260246000fd5b50919050565b601f8211156109a657600081815260208120601f850160051c810160208610156142145750805b601f850160051c820191505b81811015611e7f57828155600101614220565b815167ffffffffffffffff81111561424d5761424d613aaa565b6142618161425b84546141b3565b846141ed565b602080601f831160018114614296576000841561427e5750858301515b600019600386901b1c1916600185901b178555611e7f565b600085815260208120601f198616915b828110156142c5578886015182559484019460019091019084016142a6565b50858210156142e35787850151600019600388901b60f8161c191681555b5050505050600190811b01905550565b60008251614305818460208701613a3f565b9190910192915050565b634e487b7160e01b600052603260045260246000fd5b634e487b7160e01b600052601160045260246000fd5b60006001820161434d5761434d614325565b5060010190565b60006101408083526143688184018c613f33565b9050614377602084018b613f6c565b614384606084018a613f6c565b82810360a08401526143968189613e29565b905082810360c08401526143aa8188613e29565b905082810360e08401526143be8187613e29565b9050846101008401528281036101208401526143da8185613a6b565b9b9a5050505050505050505050565b600082198211156143fc576143fc614325565b500190565b600080845461440f816141b3565b60018281168015614427576001811461443c5761446b565b60ff198416875282151583028701945061446b565b8860005260208060002060005b858110156144625781548a820152908401908201614449565b50505082870194505b50505050835161447f818360208801613a3f565b01949350505050565b60408152600061449b6040830185613e29565b82810360208401526137fe8185613e29565b6000602082840312156144bf57600080fd5b5051919050565b600082601f8301126144d757600080fd5b815160206144e482613bac565b6040516144f18282613ac0565b83815260059390931b850182019282810191508684111561451157600080fd5b8286015b84811015613c365780518352918301918301614515565b600082601f83011261453d57600080fd5b6040516040810181811067ffffffffffffffff8211171561456057614560613aaa565b806040525080604084018581111561457757600080fd5b845b81811015614591578051835260209283019201614579565b509195945050505050565b600082601f8301126145ad57600080fd5b815160206145ba82613bac565b6040516145c78282613ac0565b83815260059390931b85018201928281019150868411156145e757600080fd5b8286015b84811015613c365780516145fe816139b2565b83529183019183016145eb565b600082601f83011261461c57600080fd5b815161462781613aed565b6040516146348282613ac0565b82815285602084870101111561464957600080fd5b6137fe836020830160208801613a3f565b6000806000806000806000610120888a03121561467657600080fd5b875167ffffffffffffffff8082111561468e57600080fd5b61469a8b838c016144c6565b985060208a01519150808211156146b057600080fd5b6146bc8b838c016144c6565b975060408a01519150808211156146d257600080fd5b6146de8b838c016144c6565b96506146ed8b60608c0161452c565b95506146fc8b60a08c0161452c565b945060e08a015191508082111561471257600080fd5b61471e8b838c0161459c565b93506101008a015191508082111561473557600080fd5b506147428a828b0161460b565b91505092959891949750929550565b61475b8187613f6c565b60e06040820152600061477160e0830187613e29565b61477e6060840187613f6c565b82810360a08401526147908186613e29565b9150508260c08301529695505050505050565b60006001600160a01b03808816835280871660208401525060a060408301526147cf60a0830186613e29565b82810360608401526147e18186613e29565b905082810360808401526147f58185613a6b565b98975050505050505050565b60006020828403121561481357600080fd5b8151611bba816139f3565b600060033d1115610f1b5760046000803e5060005160e01c90565b600060443d10156148475790565b6040516003193d81016004833e81513d67ffffffffffffffff816024840111818411171561487757505050505090565b828501915081518181111561488f5750505050505090565b843d87010160208285010111156148a95750505050505090565b6148b860208286010187613ac0565b509095945050505050565b7f416363657373436f6e74726f6c3a206163636f756e74200000000000000000008152600083516148fb816017850160208801613a3f565b7f206973206d697373696e6720726f6c65200000000000000000000000000000006017918401918201528351614938816028840160208801613a3f565b01602801949350505050565b60006001600160a01b03808816835280871660208401525084604083015283606083015260a0608083015261497c60a0830184613a6b565b979650505050505050565b60008160001904831182151516156149a1576149a1614325565b500290565b6000816149b5576149b5614325565b50600019019056fe416464726573733a206c6f772d6c6576656c2064656c65676174652063616c6c206661696c6564a164736f6c634300080f000a",
  "linkReferences": {},
  "deployedLinkReferences": {}
}