{
  "_format": "hh-sol-artifact-1",
  "contractName": "HypercertMinterV0",
  "sourceName": "contracts/HypercertMinterV0.sol",
  "abi": [
    {
      "inputs": [],
      "stateMutability": "nonpayable",
      "type": "constructor"
    },
    {
      "anonymous": false,
      "inputs": [
        {
          "indexed": false,
          "internalType": "address",
          "name": "previousAdmin",
          "type": "address"
        },
        {
          "indexed": false,
          "internalType": "address",
          "name": "newAdmin",
          "type": "address"
        }
      ],
      "name": "AdminChanged",
      "type": "event"
    },
    {
      "anonymous": false,
      "inputs": [
        {
          "indexed": true,
          "internalType": "address",
          "name": "owner",
          "type": "address"
        },
        {
          "indexed": true,
          "internalType": "address",
          "name": "approved",
          "type": "address"
        },
        {
          "indexed": true,
          "internalType": "uint256",
          "name": "tokenId",
          "type": "uint256"
        }
      ],
      "name": "Approval",
      "type": "event"
    },
    {
      "anonymous": false,
      "inputs": [
        {
          "indexed": true,
          "internalType": "address",
          "name": "owner",
          "type": "address"
        },
        {
          "indexed": true,
          "internalType": "address",
          "name": "operator",
          "type": "address"
        },
        {
          "indexed": false,
          "internalType": "bool",
          "name": "approved",
          "type": "bool"
        }
      ],
      "name": "ApprovalForAll",
      "type": "event"
    },
    {
      "anonymous": false,
      "inputs": [
        {
          "indexed": true,
          "internalType": "uint256",
          "name": "_tokenId",
          "type": "uint256"
        },
        {
          "indexed": true,
          "internalType": "address",
          "name": "_operator",
          "type": "address"
        },
        {
          "indexed": false,
          "internalType": "uint256",
          "name": "_value",
          "type": "uint256"
        }
      ],
      "name": "ApprovalValue",
      "type": "event"
    },
    {
      "anonymous": false,
      "inputs": [
        {
          "indexed": true,
          "internalType": "address",
          "name": "beacon",
          "type": "address"
        }
      ],
      "name": "BeaconUpgraded",
      "type": "event"
    },
    {
      "anonymous": false,
      "inputs": [
        {
          "indexed": false,
          "internalType": "uint256",
          "name": "id",
          "type": "uint256"
        },
        {
          "indexed": false,
          "internalType": "address",
          "name": "minter",
          "type": "address"
        },
        {
          "indexed": false,
          "internalType": "bytes32",
          "name": "claimHash",
          "type": "bytes32"
        },
        {
          "indexed": false,
          "internalType": "address[]",
          "name": "contributors",
          "type": "address[]"
        },
        {
          "indexed": false,
          "internalType": "uint64[2]",
          "name": "workTimeframe",
          "type": "uint64[2]"
        },
        {
          "indexed": false,
          "internalType": "uint64[2]",
          "name": "impactTimeframe",
          "type": "uint64[2]"
        },
        {
          "indexed": false,
          "internalType": "bytes32[]",
          "name": "workScopes",
          "type": "bytes32[]"
        },
        {
          "indexed": false,
          "internalType": "bytes32[]",
          "name": "impactScopes",
          "type": "bytes32[]"
        },
        {
          "indexed": false,
          "internalType": "bytes32[]",
          "name": "rights",
          "type": "bytes32[]"
        },
        {
          "indexed": false,
          "internalType": "uint64",
          "name": "version",
          "type": "uint64"
        },
        {
          "indexed": false,
          "internalType": "string",
          "name": "uri",
          "type": "string"
        }
      ],
      "name": "ImpactClaimed",
      "type": "event"
    },
    {
      "anonymous": false,
      "inputs": [
        {
          "indexed": false,
          "internalType": "bytes32",
          "name": "id",
          "type": "bytes32"
        },
        {
          "indexed": false,
          "internalType": "string",
          "name": "text",
          "type": "string"
        }
      ],
      "name": "ImpactScopeAdded",
      "type": "event"
    },
    {
      "anonymous": false,
      "inputs": [
        {
          "indexed": false,
          "internalType": "uint8",
          "name": "version",
          "type": "uint8"
        }
      ],
      "name": "Initialized",
      "type": "event"
    },
    {
      "anonymous": false,
      "inputs": [
        {
          "indexed": false,
          "internalType": "bytes32",
          "name": "id",
          "type": "bytes32"
        },
        {
          "indexed": false,
          "internalType": "string",
          "name": "text",
          "type": "string"
        }
      ],
      "name": "RightAdded",
      "type": "event"
    },
    {
      "anonymous": false,
      "inputs": [
        {
          "indexed": true,
          "internalType": "bytes32",
          "name": "role",
          "type": "bytes32"
        },
        {
          "indexed": true,
          "internalType": "bytes32",
          "name": "previousAdminRole",
          "type": "bytes32"
        },
        {
          "indexed": true,
          "internalType": "bytes32",
          "name": "newAdminRole",
          "type": "bytes32"
        }
      ],
      "name": "RoleAdminChanged",
      "type": "event"
    },
    {
      "anonymous": false,
      "inputs": [
        {
          "indexed": true,
          "internalType": "bytes32",
          "name": "role",
          "type": "bytes32"
        },
        {
          "indexed": true,
          "internalType": "address",
          "name": "account",
          "type": "address"
        },
        {
          "indexed": true,
          "internalType": "address",
          "name": "sender",
          "type": "address"
        }
      ],
      "name": "RoleGranted",
      "type": "event"
    },
    {
      "anonymous": false,
      "inputs": [
        {
          "indexed": true,
          "internalType": "bytes32",
          "name": "role",
          "type": "bytes32"
        },
        {
          "indexed": true,
          "internalType": "address",
          "name": "account",
          "type": "address"
        },
        {
          "indexed": true,
          "internalType": "address",
          "name": "sender",
          "type": "address"
        }
      ],
      "name": "RoleRevoked",
      "type": "event"
    },
    {
      "anonymous": false,
      "inputs": [
        {
          "indexed": true,
          "internalType": "uint256",
          "name": "_tokenId",
          "type": "uint256"
        },
        {
          "indexed": true,
          "internalType": "uint256",
          "name": "_oldSlot",
          "type": "uint256"
        },
        {
          "indexed": true,
          "internalType": "uint256",
          "name": "_newSlot",
          "type": "uint256"
        }
      ],
      "name": "SlotChanged",
      "type": "event"
    },
    {
      "anonymous": false,
      "inputs": [
        {
          "indexed": true,
          "internalType": "address",
          "name": "from",
          "type": "address"
        },
        {
          "indexed": true,
          "internalType": "address",
          "name": "to",
          "type": "address"
        },
        {
          "indexed": true,
          "internalType": "uint256",
          "name": "tokenId",
          "type": "uint256"
        }
      ],
      "name": "Transfer",
      "type": "event"
    },
    {
      "anonymous": false,
      "inputs": [
        {
          "indexed": true,
          "internalType": "uint256",
          "name": "_fromTokenId",
          "type": "uint256"
        },
        {
          "indexed": true,
          "internalType": "uint256",
          "name": "_toTokenId",
          "type": "uint256"
        },
        {
          "indexed": false,
          "internalType": "uint256",
          "name": "_value",
          "type": "uint256"
        }
      ],
      "name": "TransferValue",
      "type": "event"
    },
    {
      "anonymous": false,
      "inputs": [
        {
          "indexed": true,
          "internalType": "address",
          "name": "implementation",
          "type": "address"
        }
      ],
      "name": "Upgraded",
      "type": "event"
    },
    {
      "anonymous": false,
      "inputs": [
        {
          "indexed": false,
          "internalType": "bytes32",
          "name": "id",
          "type": "bytes32"
        },
        {
          "indexed": false,
          "internalType": "string",
          "name": "text",
          "type": "string"
        }
      ],
      "name": "WorkScopeAdded",
      "type": "event"
    },
    {
      "inputs": [],
      "name": "DEFAULT_ADMIN_ROLE",
      "outputs": [
        {
          "internalType": "bytes32",
          "name": "",
          "type": "bytes32"
        }
      ],
      "stateMutability": "view",
      "type": "function"
    },
    {
      "inputs": [],
      "name": "DEFAULT_UNITS",
      "outputs": [
        {
          "internalType": "uint256",
          "name": "",
          "type": "uint256"
        }
      ],
      "stateMutability": "view",
      "type": "function"
    },
    {
      "inputs": [],
      "name": "NAME",
      "outputs": [
        {
          "internalType": "string",
          "name": "",
          "type": "string"
        }
      ],
      "stateMutability": "view",
      "type": "function"
    },
    {
      "inputs": [],
      "name": "UPGRADER_ROLE",
      "outputs": [
        {
          "internalType": "bytes32",
          "name": "",
          "type": "bytes32"
        }
      ],
      "stateMutability": "view",
      "type": "function"
    },
    {
      "inputs": [
        {
          "internalType": "string",
          "name": "text",
          "type": "string"
        }
      ],
      "name": "addImpactScope",
      "outputs": [
        {
          "internalType": "bytes32",
          "name": "id",
          "type": "bytes32"
        }
      ],
      "stateMutability": "nonpayable",
      "type": "function"
    },
    {
      "inputs": [
        {
          "internalType": "string",
          "name": "text",
          "type": "string"
        }
      ],
      "name": "addRight",
      "outputs": [
        {
          "internalType": "bytes32",
          "name": "id",
          "type": "bytes32"
        }
      ],
      "stateMutability": "nonpayable",
      "type": "function"
    },
    {
      "inputs": [
        {
          "internalType": "string",
          "name": "text",
          "type": "string"
        }
      ],
      "name": "addWorkScope",
      "outputs": [
        {
          "internalType": "bytes32",
          "name": "id",
          "type": "bytes32"
        }
      ],
      "stateMutability": "nonpayable",
      "type": "function"
    },
    {
      "inputs": [
        {
          "internalType": "uint256",
          "name": "tokenId_",
          "type": "uint256"
        },
        {
          "internalType": "address",
          "name": "operator_",
          "type": "address"
        }
      ],
      "name": "allowance",
      "outputs": [
        {
          "internalType": "uint256",
          "name": "",
          "type": "uint256"
        }
      ],
      "stateMutability": "view",
      "type": "function"
    },
    {
      "inputs": [
        {
          "internalType": "address",
          "name": "to",
          "type": "address"
        },
        {
          "internalType": "uint256",
          "name": "tokenId",
          "type": "uint256"
        }
      ],
      "name": "approve",
      "outputs": [],
      "stateMutability": "nonpayable",
      "type": "function"
    },
    {
      "inputs": [
        {
          "internalType": "uint256",
          "name": "tokenId_",
          "type": "uint256"
        },
        {
          "internalType": "address",
          "name": "to_",
          "type": "address"
        },
        {
          "internalType": "uint256",
          "name": "value_",
          "type": "uint256"
        }
      ],
      "name": "approve",
      "outputs": [],
      "stateMutability": "payable",
      "type": "function"
    },
    {
      "inputs": [
        {
          "internalType": "address",
          "name": "owner",
          "type": "address"
        }
      ],
      "name": "balanceOf",
      "outputs": [
        {
          "internalType": "uint256",
          "name": "",
          "type": "uint256"
        }
      ],
      "stateMutability": "view",
      "type": "function"
    },
    {
      "inputs": [
        {
          "internalType": "uint256",
          "name": "tokenId_",
          "type": "uint256"
        }
      ],
      "name": "balanceOf",
      "outputs": [
        {
          "internalType": "uint256",
          "name": "",
          "type": "uint256"
        }
      ],
      "stateMutability": "view",
      "type": "function"
    },
    {
      "inputs": [
        {
          "internalType": "uint256",
          "name": "tokenId",
          "type": "uint256"
        }
      ],
      "name": "burn",
      "outputs": [],
      "stateMutability": "nonpayable",
      "type": "function"
    },
    {
      "inputs": [],
      "name": "contractURI",
      "outputs": [
        {
          "internalType": "string",
          "name": "",
          "type": "string"
        }
      ],
      "stateMutability": "view",
      "type": "function"
    },
    {
      "inputs": [
        {
          "internalType": "uint256",
          "name": "tokenId",
          "type": "uint256"
        }
      ],
      "name": "getApproved",
      "outputs": [
        {
          "internalType": "address",
          "name": "",
          "type": "address"
        }
      ],
      "stateMutability": "view",
      "type": "function"
    },
    {
      "inputs": [
        {
          "internalType": "uint256",
          "name": "claimID",
          "type": "uint256"
        }
      ],
      "name": "getImpactCert",
      "outputs": [
        {
          "components": [
            {
              "internalType": "bytes32",
              "name": "claimHash",
              "type": "bytes32"
            },
            {
              "internalType": "uint64[2]",
              "name": "workTimeframe",
              "type": "uint64[2]"
            },
            {
              "internalType": "uint64[2]",
              "name": "impactTimeframe",
              "type": "uint64[2]"
            },
            {
              "internalType": "bytes32[]",
              "name": "workScopes",
              "type": "bytes32[]"
            },
            {
              "internalType": "bytes32[]",
              "name": "impactScopes",
              "type": "bytes32[]"
            },
            {
              "internalType": "bytes32[]",
              "name": "rights",
              "type": "bytes32[]"
            },
            {
              "internalType": "address[]",
              "name": "contributors",
              "type": "address[]"
            },
            {
              "internalType": "uint16",
              "name": "version",
              "type": "uint16"
            },
            {
              "internalType": "bool",
              "name": "exists",
              "type": "bool"
            }
          ],
          "internalType": "struct HypercertMinterV0.Claim",
          "name": "",
          "type": "tuple"
        }
      ],
      "stateMutability": "view",
      "type": "function"
    },
    {
      "inputs": [
        {
          "internalType": "bytes32",
          "name": "role",
          "type": "bytes32"
        }
      ],
      "name": "getRoleAdmin",
      "outputs": [
        {
          "internalType": "bytes32",
          "name": "",
          "type": "bytes32"
        }
      ],
      "stateMutability": "view",
      "type": "function"
    },
    {
      "inputs": [
        {
          "internalType": "bytes32",
          "name": "role",
          "type": "bytes32"
        },
        {
          "internalType": "address",
          "name": "account",
          "type": "address"
        }
      ],
      "name": "grantRole",
      "outputs": [],
      "stateMutability": "nonpayable",
      "type": "function"
    },
    {
      "inputs": [
        {
          "internalType": "bytes32",
          "name": "role",
          "type": "bytes32"
        },
        {
          "internalType": "address",
          "name": "account",
          "type": "address"
        }
      ],
      "name": "hasRole",
      "outputs": [
        {
          "internalType": "bool",
          "name": "",
          "type": "bool"
        }
      ],
      "stateMutability": "view",
      "type": "function"
    },
    {
      "inputs": [
        {
          "internalType": "bytes32",
          "name": "",
          "type": "bytes32"
        }
      ],
      "name": "impactScopes",
      "outputs": [
        {
          "internalType": "string",
          "name": "",
          "type": "string"
        }
      ],
      "stateMutability": "view",
      "type": "function"
    },
    {
      "inputs": [],
      "name": "initialize",
      "outputs": [],
      "stateMutability": "nonpayable",
      "type": "function"
    },
    {
      "inputs": [
        {
          "internalType": "address",
          "name": "owner",
          "type": "address"
        },
        {
          "internalType": "address",
          "name": "operator",
          "type": "address"
        }
      ],
      "name": "isApprovedForAll",
      "outputs": [
        {
          "internalType": "bool",
          "name": "",
          "type": "bool"
        }
      ],
      "stateMutability": "view",
      "type": "function"
    },
    {
      "inputs": [
        {
          "internalType": "address",
          "name": "account",
          "type": "address"
        },
        {
          "internalType": "bytes",
          "name": "data",
          "type": "bytes"
        }
      ],
      "name": "mint",
      "outputs": [],
      "stateMutability": "nonpayable",
      "type": "function"
    },
    {
      "inputs": [],
      "name": "name",
      "outputs": [
        {
          "internalType": "string",
          "name": "",
          "type": "string"
        }
      ],
      "stateMutability": "view",
      "type": "function"
    },
    {
      "inputs": [
        {
          "internalType": "uint256",
          "name": "tokenId",
          "type": "uint256"
        }
      ],
      "name": "ownerOf",
      "outputs": [
        {
          "internalType": "address",
          "name": "",
          "type": "address"
        }
      ],
      "stateMutability": "view",
      "type": "function"
    },
    {
      "inputs": [],
      "name": "proxiableUUID",
      "outputs": [
        {
          "internalType": "bytes32",
          "name": "",
          "type": "bytes32"
        }
      ],
      "stateMutability": "view",
      "type": "function"
    },
    {
      "inputs": [
        {
          "internalType": "bytes32",
          "name": "role",
          "type": "bytes32"
        },
        {
          "internalType": "address",
          "name": "account",
          "type": "address"
        }
      ],
      "name": "renounceRole",
      "outputs": [],
      "stateMutability": "nonpayable",
      "type": "function"
    },
    {
      "inputs": [
        {
          "internalType": "bytes32",
          "name": "role",
          "type": "bytes32"
        },
        {
          "internalType": "address",
          "name": "account",
          "type": "address"
        }
      ],
      "name": "revokeRole",
      "outputs": [],
      "stateMutability": "nonpayable",
      "type": "function"
    },
    {
      "inputs": [
        {
          "internalType": "bytes32",
          "name": "",
          "type": "bytes32"
        }
      ],
      "name": "rights",
      "outputs": [
        {
          "internalType": "string",
          "name": "",
          "type": "string"
        }
      ],
      "stateMutability": "view",
      "type": "function"
    },
    {
      "inputs": [
        {
          "internalType": "address",
          "name": "from",
          "type": "address"
        },
        {
          "internalType": "address",
          "name": "to",
          "type": "address"
        },
        {
          "internalType": "uint256",
          "name": "tokenId",
          "type": "uint256"
        }
      ],
      "name": "safeTransferFrom",
      "outputs": [],
      "stateMutability": "nonpayable",
      "type": "function"
    },
    {
      "inputs": [
        {
          "internalType": "address",
          "name": "from",
          "type": "address"
        },
        {
          "internalType": "address",
          "name": "to",
          "type": "address"
        },
        {
          "internalType": "uint256",
          "name": "tokenId",
          "type": "uint256"
        },
        {
          "internalType": "bytes",
          "name": "data",
          "type": "bytes"
        }
      ],
      "name": "safeTransferFrom",
      "outputs": [],
      "stateMutability": "nonpayable",
      "type": "function"
    },
    {
      "inputs": [
        {
          "internalType": "address",
          "name": "operator",
          "type": "address"
        },
        {
          "internalType": "bool",
          "name": "approved",
          "type": "bool"
        }
      ],
      "name": "setApprovalForAll",
      "outputs": [],
      "stateMutability": "nonpayable",
      "type": "function"
    },
    {
      "inputs": [
        {
          "internalType": "uint256",
          "name": "_index",
          "type": "uint256"
        }
      ],
      "name": "slotByIndex",
      "outputs": [
        {
          "internalType": "uint256",
          "name": "",
          "type": "uint256"
        }
      ],
      "stateMutability": "view",
      "type": "function"
    },
    {
      "inputs": [],
      "name": "slotCount",
      "outputs": [
        {
          "internalType": "uint256",
          "name": "",
          "type": "uint256"
        }
      ],
      "stateMutability": "view",
      "type": "function"
    },
    {
      "inputs": [
        {
          "internalType": "uint256",
          "name": "tokenId_",
          "type": "uint256"
        }
      ],
      "name": "slotOf",
      "outputs": [
        {
          "internalType": "uint256",
          "name": "",
          "type": "uint256"
        }
      ],
      "stateMutability": "view",
      "type": "function"
    },
    {
      "inputs": [
        {
          "internalType": "uint256",
          "name": "",
          "type": "uint256"
        }
      ],
      "name": "slotURI",
      "outputs": [
        {
          "internalType": "string",
          "name": "",
          "type": "string"
        }
      ],
      "stateMutability": "pure",
      "type": "function"
    },
    {
      "inputs": [
        {
          "internalType": "bytes4",
          "name": "interfaceId",
          "type": "bytes4"
        }
      ],
      "name": "supportsInterface",
      "outputs": [
        {
          "internalType": "bool",
          "name": "",
          "type": "bool"
        }
      ],
      "stateMutability": "view",
      "type": "function"
    },
    {
      "inputs": [],
      "name": "symbol",
      "outputs": [
        {
          "internalType": "string",
          "name": "",
          "type": "string"
        }
      ],
      "stateMutability": "view",
      "type": "function"
    },
    {
      "inputs": [
        {
          "internalType": "uint256",
          "name": "index",
          "type": "uint256"
        }
      ],
      "name": "tokenByIndex",
      "outputs": [
        {
          "internalType": "uint256",
          "name": "",
          "type": "uint256"
        }
      ],
      "stateMutability": "view",
      "type": "function"
    },
    {
      "inputs": [
        {
          "internalType": "uint256",
          "name": "_slot",
          "type": "uint256"
        },
        {
          "internalType": "uint256",
          "name": "_index",
          "type": "uint256"
        }
      ],
      "name": "tokenInSlotByIndex",
      "outputs": [
        {
          "internalType": "uint256",
          "name": "",
          "type": "uint256"
        }
      ],
      "stateMutability": "view",
      "type": "function"
    },
    {
      "inputs": [
        {
          "internalType": "address",
          "name": "owner",
          "type": "address"
        },
        {
          "internalType": "uint256",
          "name": "index",
          "type": "uint256"
        }
      ],
      "name": "tokenOfOwnerByIndex",
      "outputs": [
        {
          "internalType": "uint256",
          "name": "",
          "type": "uint256"
        }
      ],
      "stateMutability": "view",
      "type": "function"
    },
    {
      "inputs": [
        {
          "internalType": "uint256",
          "name": "_slot",
          "type": "uint256"
        }
      ],
      "name": "tokenSupplyInSlot",
      "outputs": [
        {
          "internalType": "uint256",
          "name": "",
          "type": "uint256"
        }
      ],
      "stateMutability": "view",
      "type": "function"
    },
    {
      "inputs": [
        {
          "internalType": "uint256",
          "name": "tokenID_",
          "type": "uint256"
        }
      ],
      "name": "tokenURI",
      "outputs": [
        {
          "internalType": "string",
          "name": "",
          "type": "string"
        }
      ],
      "stateMutability": "view",
      "type": "function"
    },
    {
      "inputs": [],
      "name": "totalSupply",
      "outputs": [
        {
          "internalType": "uint256",
          "name": "",
          "type": "uint256"
        }
      ],
      "stateMutability": "view",
      "type": "function"
    },
    {
      "inputs": [
        {
          "internalType": "uint256",
          "name": "fromTokenId_",
          "type": "uint256"
        },
        {
          "internalType": "address",
          "name": "to_",
          "type": "address"
        },
        {
          "internalType": "uint256",
          "name": "value_",
          "type": "uint256"
        }
      ],
      "name": "transferFrom",
      "outputs": [
        {
          "internalType": "uint256",
          "name": "",
          "type": "uint256"
        }
      ],
      "stateMutability": "payable",
      "type": "function"
    },
    {
      "inputs": [
        {
          "internalType": "address",
          "name": "from",
          "type": "address"
        },
        {
          "internalType": "address",
          "name": "to",
          "type": "address"
        },
        {
          "internalType": "uint256",
          "name": "tokenId",
          "type": "uint256"
        }
      ],
      "name": "transferFrom",
      "outputs": [],
      "stateMutability": "nonpayable",
      "type": "function"
    },
    {
      "inputs": [
        {
          "internalType": "uint256",
          "name": "fromTokenId_",
          "type": "uint256"
        },
        {
          "internalType": "uint256",
          "name": "toTokenId_",
          "type": "uint256"
        },
        {
          "internalType": "uint256",
          "name": "value_",
          "type": "uint256"
        }
      ],
      "name": "transferFrom",
      "outputs": [],
      "stateMutability": "payable",
      "type": "function"
    },
    {
      "inputs": [],
      "name": "updateVersion",
      "outputs": [],
      "stateMutability": "nonpayable",
      "type": "function"
    },
    {
      "inputs": [
        {
          "internalType": "address",
          "name": "newImplementation",
          "type": "address"
        }
      ],
      "name": "upgradeTo",
      "outputs": [],
      "stateMutability": "nonpayable",
      "type": "function"
    },
    {
      "inputs": [
        {
          "internalType": "address",
          "name": "newImplementation",
          "type": "address"
        },
        {
          "internalType": "bytes",
          "name": "data",
          "type": "bytes"
        }
      ],
      "name": "upgradeToAndCall",
      "outputs": [],
      "stateMutability": "payable",
      "type": "function"
    },
    {
      "inputs": [],
      "name": "valueDecimals",
      "outputs": [
        {
          "internalType": "uint8",
          "name": "",
          "type": "uint8"
        }
      ],
      "stateMutability": "view",
      "type": "function"
    },
    {
      "inputs": [],
      "name": "version",
      "outputs": [
        {
          "internalType": "uint256",
          "name": "",
          "type": "uint256"
        }
      ],
      "stateMutability": "view",
      "type": "function"
    },
    {
      "inputs": [
        {
          "internalType": "bytes32",
          "name": "",
          "type": "bytes32"
        }
      ],
      "name": "workScopes",
      "outputs": [
        {
          "internalType": "string",
          "name": "",
          "type": "string"
        }
      ],
      "stateMutability": "view",
      "type": "function"
    }
  ],
  "bytecode": "0x60a0604052306080523480156200001557600080fd5b506200002062000026565b620000e8565b600054610100900460ff1615620000935760405162461bcd60e51b815260206004820152602760248201527f496e697469616c697a61626c653a20636f6e747261637420697320696e697469604482015266616c697a696e6760c81b606482015260840160405180910390fd5b60005460ff9081161015620000e6576000805460ff191660ff9081179091556040519081527f7f26b83ff96e1f2b6a682f133852f6798a09c465da95921460cefb38474024989060200160405180910390a15b565b6080516152206200012060003960008181611054015281816110d9015281816112c10152818161134601526114d001526152206000f3fe6080604052600436106103495760003560e01c806354fd4d50116101bb578063a22cb465116100f7578063e345e0bc11610095578063ed08fa801161006f578063ed08fa80146109ec578063ef6f66d714610a02578063f0f11e0514610a22578063f72c0d8b14610a4257600080fd5b8063e345e0bc14610946578063e8a3d4851461098e578063e985e9c5146109a357600080fd5b8063b88d4fde116100d1578063b88d4fde146108c6578063c87b56dd146108e6578063d52fd09514610906578063d547741f1461092657600080fd5b8063a22cb4651461083d578063a3f4df7e1461085d578063b510391f146108a657600080fd5b80638f88b76711610164578063993bef8d1161013e578063993bef8d146107c8578063997edc61146107e85780639cc7f70814610808578063a217fddf1461082857600080fd5b80638f88b7671461074c57806391d148541461076c57806395d89b41146107b357600080fd5b806372927aa31161019557806372927aa3146106f75780638129fc1c146107245780638cb0a5111461073957600080fd5b806354fd4d501461069d5780636352211e146106b757806370a08231146106d757600080fd5b80632f745c591161028a57806342966c68116102335780634f1ef2861161020d5780634f1ef286146106275780634f6ccce71461063a5780634f8a0f831461065a57806352d1902d1461068857600080fd5b806342966c68146105dc57806348c02dc1146105fc5780634a7d40171461061157600080fd5b80633659cfe6116102645780633659cfe6146105795780633e7e86691461059957806342842e0e146105bc57600080fd5b80632f745c5914610526578063310ed7f01461054657806336568abe1461055957600080fd5b80630f485c02116102f757806323b872dd116102d157806323b872dd14610495578063248a9ca3146104b5578063263f3e7e146104e65780632f2ff15d1461050657600080fd5b80630f485c021461044d57806318160ddd146104605780631e6ad4b81461047557600080fd5b8063081812fc11610328578063081812fc146103d3578063095ea7b31461040b57806309c3dd871461042d57600080fd5b8062cd01101461034e57806301ffc9a71461038157806306fdde03146103b1575b600080fd5b34801561035a57600080fd5b5061036e61036936600461441c565b610a76565b6040519081526020015b60405180910390f35b34801561038d57600080fd5b506103a161039c366004614454565b610aab565b6040519015158152602001610378565b3480156103bd57600080fd5b506103c6610ab6565b60405161037891906144c1565b3480156103df57600080fd5b506103f36103ee3660046144d4565b610b48565b6040516001600160a01b039091168152602001610378565b34801561041757600080fd5b5061042b610426366004614502565b610b6f565b005b34801561043957600080fd5b506103c66104483660046144d4565b610c89565b61036e61045b36600461452e565b610d20565b34801561046c57600080fd5b5060995461036e565b34801561048157600080fd5b5061036e610490366004614613565b610d6e565b3480156104a157600080fd5b5061042b6104b036600461465c565b610dd7565b3480156104c157600080fd5b5061036e6104d03660046144d4565b6000908152610135602052604090206001015490565b3480156104f257600080fd5b5061036e6105013660046144d4565b610e50565b34801561051257600080fd5b5061042b61052136600461468c565b610eda565b34801561053257600080fd5b5061036e610541366004614502565b610f00565b61042b6105543660046146bc565b610fa8565b34801561056557600080fd5b5061042b61057436600461468c565b610fbe565b34801561058557600080fd5b5061042b6105943660046146e8565b61104a565b3480156105a557600080fd5b506101345460405160ff9091168152602001610378565b3480156105c857600080fd5b5061042b6105d736600461465c565b6111c5565b3480156105e857600080fd5b5061042b6105f73660046144d4565b6111e0565b34801561060857600080fd5b5061042b611255565b34801561061d57600080fd5b5061036e61271081565b61042b610635366004614725565b6112b7565b34801561064657600080fd5b5061036e6106553660046144d4565b61141f565b34801561066657600080fd5b5061036e6106753660046144d4565b6000908152610131602052604090205490565b34801561069457600080fd5b5061036e6114c3565b3480156106a957600080fd5b506101cb5461ffff1661036e565b3480156106c357600080fd5b506103f36106d23660046144d4565b611588565b3480156106e357600080fd5b5061036e6106f23660046146e8565b6115ed565b34801561070357600080fd5b506107176107123660046144d4565b611687565b6040516103789190614816565b34801561073057600080fd5b5061042b611912565b61042b61074736600461452e565b611a67565b34801561075857600080fd5b506103c66107673660046144d4565b611b6d565b34801561077857600080fd5b506103a161078736600461468c565b6000918252610135602090815260408084206001600160a01b0393909316845291905290205460ff1690565b3480156107bf57600080fd5b506103c6611c08565b3480156107d457600080fd5b5061036e6107e33660046144d4565b611c17565b3480156107f457600080fd5b5061036e610803366004614613565b611c2d565b34801561081457600080fd5b5061036e6108233660046144d4565b611c89565b34801561083457600080fd5b5061036e600081565b34801561084957600080fd5b5061042b6108583660046148f7565b611d27565b34801561086957600080fd5b506103c66040518060400160405280601881526020017f496d70616374206879706572636572746966696361746573000000000000000081525081565b3480156108b257600080fd5b5061042b6108c1366004614725565b611d32565b3480156108d257600080fd5b5061042b6108e136600461492a565b611eee565b3480156108f257600080fd5b506103c66109013660046144d4565b611f67565b34801561091257600080fd5b506103c66109213660046144d4565b612039565b34801561093257600080fd5b5061042b61094136600461468c565b612053565b34801561095257600080fd5b5061036e61096136600461468c565b600082815261012e602090815260408083206001600160a01b038516845260010190915290205492915050565b34801561099a57600080fd5b506103c6612079565b3480156109af57600080fd5b506103a16109be366004614996565b6001600160a01b039182166000908152606a6020908152604080832093909416825291909152205460ff1690565b3480156109f857600080fd5b506101305461036e565b348015610a0e57600080fd5b506103c6610a1d3660046144d4565b6120b9565b348015610a2e57600080fd5b5061036e610a3d366004614613565b6120d3565b348015610a4e57600080fd5b5061036e7f189ab7a9244df0848122154315af71fe140f3db0fe014031783b0946b8c9d2e381565b600082815261013160205260408120805483908110610a9757610a976149c4565b906000526020600020015490505b92915050565b6000610aa58261212f565b606060658054610ac5906149da565b80601f0160208091040260200160405190810160405280929190818152602001828054610af1906149da565b8015610b3e5780601f10610b1357610100808354040283529160200191610b3e565b820191906000526020600020905b815481529060010190602001808311610b2157829003601f168201915b5050505050905090565b6000610b5382612154565b506000908152606960205260409020546001600160a01b031690565b6000610b7a82611588565b9050806001600160a01b0316836001600160a01b031603610bec5760405162461bcd60e51b815260206004820152602160248201527f4552433732313a20617070726f76616c20746f2063757272656e74206f776e656044820152603960f91b60648201526084015b60405180910390fd5b336001600160a01b0382161480610c085750610c0881336109be565b610c7a5760405162461bcd60e51b815260206004820152603e60248201527f4552433732313a20617070726f76652063616c6c6572206973206e6f7420746f60448201527f6b656e206f776e6572206e6f7220617070726f76656420666f7220616c6c00006064820152608401610be3565b610c8483836121b8565b505050565b6060604051602001610d0a907f646174613a6170706c69636174696f6e2f6a736f6e3b7b6e616d653a536c6f7481527f205479706520412c6465736372697074696f6e3a536c6f74205479706520412060208201527f6465736372697074696f6e7d00000000000000000000000000000000000000006040820152604c0190565b6040516020818303038152906040529050919050565b6000610d2d338584612226565b6000610d38856122cf565b9050610d59848261012f6000898152602001908152602001600020546122e5565b610d648582856123a3565b90505b9392505050565b6000610d7c826101ce612664565b60008181526101ce60205260409020909150610d988382614a5a565b507f2efcce702e3d0b95b3deb632da6d41c3d169e0c3effb9066d949f14d6f13224f8183604051610dca929190614b1a565b60405180910390a1919050565b610de2335b82612736565b610e455760405162461bcd60e51b815260206004820152602e60248201527f4552433732313a2063616c6c6572206973206e6f7420746f6b656e206f776e6560448201526d1c881b9bdc88185c1c1c9bdd995960921b6064820152608401610be3565b610c848383836127b5565b6000818152606760205260408120546001600160a01b0316610ec65760405162461bcd60e51b815260206004820152602960248201527f455243333532353a20736c6f7420717565727920666f72206e6f6e657869737460448201526832b73a103a37b5b2b760b91b6064820152608401610be3565b50600090815261012f602052604090205490565b60008281526101356020526040902060010154610ef681612974565b610c84838361297e565b6000610f0b836115ed565b8210610f7f5760405162461bcd60e51b815260206004820152602b60248201527f455243373231456e756d657261626c653a206f776e657220696e646578206f7560448201527f74206f6620626f756e64730000000000000000000000000000000000000000006064820152608401610be3565b506001600160a01b03919091166000908152609760209081526040808320938352929052205490565b610fb3338483612226565b610c848383836123a3565b6001600160a01b038116331461103c5760405162461bcd60e51b815260206004820152602f60248201527f416363657373436f6e74726f6c3a2063616e206f6e6c792072656e6f756e636560448201527f20726f6c657320666f722073656c6600000000000000000000000000000000006064820152608401610be3565b6110468282612a22565b5050565b6001600160a01b037f00000000000000000000000000000000000000000000000000000000000000001630036110d75760405162461bcd60e51b815260206004820152602c60248201527f46756e6374696f6e206d7573742062652063616c6c6564207468726f7567682060448201526b19195b1959d85d1958d85b1b60a21b6064820152608401610be3565b7f00000000000000000000000000000000000000000000000000000000000000006001600160a01b03166111327f360894a13ba1a3210667c828492db98dca3e2076cc3735a920a3ca505d382bbc546001600160a01b031690565b6001600160a01b03161461119d5760405162461bcd60e51b815260206004820152602c60248201527f46756e6374696f6e206d7573742062652063616c6c6564207468726f7567682060448201526b6163746976652070726f787960a01b6064820152608401610be3565b6111a681612aa7565b604080516000808252602082019092526111c291839190612ad1565b50565b610c8483838360405180602001604052806000815250611eee565b6111e933610ddc565b61124c5760405162461bcd60e51b815260206004820152602e60248201527f4552433732313a2063616c6c6572206973206e6f7420746f6b656e206f776e6560448201526d1c881b9bdc88185c1c1c9bdd995960921b6064820152608401610be3565b6111c281612c71565b7f189ab7a9244df0848122154315af71fe140f3db0fe014031783b0946b8c9d2e361127f81612974565b6101cb80546001919060009061129a90849061ffff16614b49565b92506101000a81548161ffff021916908361ffff16021790555050565b6001600160a01b037f00000000000000000000000000000000000000000000000000000000000000001630036113445760405162461bcd60e51b815260206004820152602c60248201527f46756e6374696f6e206d7573742062652063616c6c6564207468726f7567682060448201526b19195b1959d85d1958d85b1b60a21b6064820152608401610be3565b7f00000000000000000000000000000000000000000000000000000000000000006001600160a01b031661139f7f360894a13ba1a3210667c828492db98dca3e2076cc3735a920a3ca505d382bbc546001600160a01b031690565b6001600160a01b03161461140a5760405162461bcd60e51b815260206004820152602c60248201527f46756e6374696f6e206d7573742062652063616c6c6564207468726f7567682060448201526b6163746976652070726f787960a01b6064820152608401610be3565b61141382612aa7565b61104682826001612ad1565b600061142a60995490565b821061149e5760405162461bcd60e51b815260206004820152602c60248201527f455243373231456e756d657261626c653a20676c6f62616c20696e646578206f60448201527f7574206f6620626f756e647300000000000000000000000000000000000000006064820152608401610be3565b609982815481106114b1576114b16149c4565b90600052602060002001549050919050565b6000306001600160a01b037f000000000000000000000000000000000000000000000000000000000000000016146115635760405162461bcd60e51b815260206004820152603860248201527f555550535570677261646561626c653a206d757374206e6f742062652063616c60448201527f6c6564207468726f7567682064656c656761746563616c6c00000000000000006064820152608401610be3565b507f360894a13ba1a3210667c828492db98dca3e2076cc3735a920a3ca505d382bbc90565b6000818152606760205260408120546001600160a01b031680610aa55760405162461bcd60e51b815260206004820152601860248201527f4552433732313a20696e76616c696420746f6b656e20494400000000000000006044820152606401610be3565b60006001600160a01b03821661166b5760405162461bcd60e51b815260206004820152602960248201527f4552433732313a2061646472657373207a65726f206973206e6f74206120766160448201527f6c6964206f776e657200000000000000000000000000000000000000000000006064820152608401610be3565b506001600160a01b031660009081526068602052604090205490565b61168f614234565b60008281526101d1602090815260408083208151610120810183528154815282518084019384905290949193850192909160018501916002918390855b82829054906101000a900467ffffffffffffffff1667ffffffffffffffff16815260200190600801906020826007010492830192600103820291508084116116cc57505050928452505060408051808201918290526020909301929150600284810191826000855b82829054906101000a900467ffffffffffffffff1667ffffffffffffffff168152602001906008019060208260070104928301926001038202915080841161173457905050505050508152602001600382018054806020026020016040519081016040528092919081815260200182805480156117d057602002820191906000526020600020905b8154815260200190600101908083116117bc575b505050505081526020016004820180548060200260200160405190810160405280929190818152602001828054801561182857602002820191906000526020600020905b815481526020019060010190808311611814575b505050505081526020016005820180548060200260200160405190810160405280929190818152602001828054801561188057602002820191906000526020600020905b81548152602001906001019080831161186c575b50505050508152602001600682018054806020026020016040519081016040528092919081815260200182805480156118e257602002820191906000526020600020905b81546001600160a01b031681526001909101906020018083116118c4575b50505091835250506007919091015461ffff8116602083015262010000900460ff16151560409091015292915050565b600054610100900460ff16158080156119325750600054600160ff909116105b8061194c5750303b15801561194c575060005460ff166001145b6119af5760405162461bcd60e51b815260206004820152602e60248201527f496e697469616c697a61626c653a20636f6e747261637420697320616c72656160448201526d191e481a5b9a5d1a585b1a5e995960921b6064820152608401610be3565b6000805460ff1916600117905580156119d2576000805461ff0019166101001790555b6119da612d2d565b6119e2612e53565b6119ea612e53565b6119f560003361297e565b611a1f7f189ab7a9244df0848122154315af71fe140f3db0fe014031783b0946b8c9d2e33361297e565b80156111c2576000805461ff0019169055604051600181527f7f26b83ff96e1f2b6a682f133852f6798a09c465da95921460cefb38474024989060200160405180910390a150565b6000611a7284611588565b9050806001600160a01b0316836001600160a01b031603611ae05760405162461bcd60e51b815260206004820152602260248201527f455243333532353a20617070726f76616c20746f2063757272656e74206f776e60448201526132b960f11b6064820152608401610be3565b611aea3385612736565b611b5c5760405162461bcd60e51b815260206004820152603960248201527f455243333532353a20617070726f76652063616c6c6572206973206e6f74206f60448201527f776e6572206e6f7220617070726f76656420666f7220616c6c000000000000006064820152608401610be3565b611b67848484612ec0565b50505050565b6101cd6020526000908152604090208054611b87906149da565b80601f0160208091040260200160405190810160405280929190818152602001828054611bb3906149da565b8015611c005780601f10611bd557610100808354040283529160200191611c00565b820191906000526020600020905b815481529060010190602001808311611be357829003601f168201915b505050505081565b606060668054610ac5906149da565b600061013082815481106114b1576114b16149c4565b6000611c3b826101cd612664565b60008181526101cd60205260409020909150611c578382614a5a565b507f8b841033bc947e807d9766c542105a3dbb0bae62591be7b5c8cd4f37f698bf738183604051610dca929190614b1a565b6000818152606760205260408120546001600160a01b0316611d135760405162461bcd60e51b815260206004820152602c60248201527f455243333532353a2062616c616e636520717565727920666f72206e6f6e657860448201527f697374656e7420746f6b656e00000000000000000000000000000000000000006064820152608401610be3565b50600090815261012d602052604090205490565b611046338383612f4b565b600080611d3e83613019565b91509150611d4c8483613116565b60016101cc6000828254611d609190614b6b565b90915550506101cc54825160c0840151611d7a91906133f5565b60008181526101d1602090815260409091208451815590840151849190611da79060018301906002614293565b506040820151611dbd9060028084019190614293565b5060608201518051611dd991600384019160209091019061433b565b5060808201518051611df591600484019160209091019061433b565b5060a08201518051611e1191600584019160209091019061433b565b5060c08201518051611e2d916006840191602090910190614376565b5060e082015160079091018054610100909301511515620100000262ffffff1990931661ffff909216919091179190911790558251611e729086908390612710613529565b611e7c8183613699565b7f2d5e7de1a786ea5d535fcaa49a371e5e487a1a8d4f0a353faa6bc989ecf132e1818685600001518660c001518760200151886040015189606001518a608001518b60a001518c60e001518c604051611edf9b9a99989796959493929190614b7e565b60405180910390a15050505050565b611ef83383612736565b611f5b5760405162461bcd60e51b815260206004820152602e60248201527f4552433732313a2063616c6c6572206973206e6f7420746f6b656e206f776e6560448201526d1c881b9bdc88185c1c1c9bdd995960921b6064820152608401610be3565b611b678484848461373b565b6060611f7282611c89565b611f7b83610e50565b604051602001610d0a9291907f646174613a6170706c69636174696f6e2f6a736f6e3b7b6e616d653a4173736581527f74205479706520412c6465736372697074696f6e3a417373657420547970652060208201527f41206465736372697074696f6e2c62616c616e63650000000000000000000000604082015260558101929092527f2c736c6f743a00000000000000000000000000000000000000000000000000006075830152607b820152607d60f81b609b820152609c0190565b6101cf6020526000908152604090208054611b87906149da565b6000828152610135602052604090206001015461206f81612974565b610c848383612a22565b6060612083610ab6565b6101336120936101345460ff1690565b6040516020016120a593929190614c38565b604051602081830303815290604052905090565b6101ce6020526000908152604090208054611b87906149da565b60006120e1826101cf612664565b60008181526101cf602052604090209091506120fd8382614a5a565b507f4527d373276b1ece0c8dd18e140572f93feffd35a0993d9e4de70623b1ac93ce8183604051610dca929190614b1a565b60006001600160e01b03198216637965db0b60e01b1480610aa55750610aa5826137c4565b6000818152606760205260409020546001600160a01b03166111c25760405162461bcd60e51b815260206004820152601860248201527f4552433732313a20696e76616c696420746f6b656e20494400000000000000006044820152606401610be3565b600081815260696020526040902080546001600160a01b0319166001600160a01b03841690811790915581906121ed82611588565b6001600160a01b03167f8c5be1e5ebec7d5bd14f71427d1e84f3dd0314c0f7b2291e5b200ac8c7c3b92560405160405180910390a45050565b600082815261012e602090815260408083206001600160a01b03871684526001019091529020546122578484612736565b15801561226657506000198114155b15611b6757818110156122bb5760405162461bcd60e51b815260206004820152601f60248201527f455243333532353a20696e73756666696369656e7420616c6c6f77616e6365006044820152606401610be3565b611b6783856122ca8585614d87565b612ec0565b60006122da60995490565b610aa5906001614b6b565b6122ef838361381f565b600082815261012f60209081526040808320849055838352610131909152812054900361234d5761013080546001810182556000919091527f2f605e086faac1d93117bbfbc18835d434e9405fadc1ca66faf4b864746daf34018190555b60008181526101316020908152604080832080546001810182559084529183209091018490555182919084907fe4f48c240d3b994948aa54f3e2f5fca59263dfe1d52b6e4cf39a5d249b5ccb65908390a4505050565b6000838152606760205260409020546001600160a01b03166124195760405162461bcd60e51b815260206004820152602960248201527f45524333353235353a207472616e736665722066726f6d206e6f6e657869737460448201526832b73a103a37b5b2b760b91b6064820152608401610be3565b6000828152606760205260409020546001600160a01b03166124a35760405162461bcd60e51b815260206004820152602760248201527f45524333353235353a207472616e7366657220746f206e6f6e6578697374656e60448201527f7420746f6b656e000000000000000000000000000000000000000000000000006064820152608401610be3565b600083815261012d60205260409020548111156125285760405162461bcd60e51b815260206004820152602860248201527f455243333532353a207472616e7366657220616d6f756e74206578636565647360448201527f2062616c616e63650000000000000000000000000000000000000000000000006064820152608401610be3565b600082815261012f602052604080822054858352912054146125b25760405162461bcd60e51b815260206004820152602e60248201527f455243333533353a207472616e7366657220746f20746f6b656e20776974682060448201527f646966666572656e7420736c6f740000000000000000000000000000000000006064820152608401610be3565b60006125bd84611588565b905060006125ca84611588565b600086815261012d60205260408120805492935085929091906125ee908490614d87565b9091555050600084815261012d602052604081208054859290612612908490614b6b565b9091555050600085905261012f60205283857f0b2aac84f3ec956911fd78eae5311062972ff949f38412e8da39069d9f068cc68560405161265591815260200190565b60405180910390a35050505050565b6000808351116126b65760405162461bcd60e51b815260206004820152600a60248201527f656d7074792074657874000000000000000000000000000000000000000000006044820152606401610be3565b826040516020016126c791906144c1565b6040516020818303038152906040528051906020012090506126e98282613975565b15610aa55760405162461bcd60e51b815260206004820152600e60248201527f616c7265616479206578697374730000000000000000000000000000000000006044820152606401610be3565b60008061274283611588565b9050806001600160a01b0316846001600160a01b0316148061278957506001600160a01b038082166000908152606a602090815260408083209388168352929052205460ff165b806127ad5750836001600160a01b03166127a284610b48565b6001600160a01b0316145b949350505050565b826001600160a01b03166127c882611588565b6001600160a01b0316146128445760405162461bcd60e51b815260206004820152602560248201527f4552433732313a207472616e736665722066726f6d20696e636f72726563742060448201527f6f776e65720000000000000000000000000000000000000000000000000000006064820152608401610be3565b6001600160a01b0382166128a65760405162461bcd60e51b8152602060048201526024808201527f4552433732313a207472616e7366657220746f20746865207a65726f206164646044820152637265737360e01b6064820152608401610be3565b6128b183838361399c565b6128bc6000826121b8565b6001600160a01b03831660009081526068602052604081208054600192906128e5908490614d87565b90915550506001600160a01b0382166000908152606860205260408120805460019290612913908490614b6b565b909155505060008181526067602052604080822080546001600160a01b0319166001600160a01b0386811691821790925591518493918716917fddf252ad1be2c89b69c2b068fc378daa952ba7f163c4a11628f55a4df523b3ef91a4505050565b6111c28133613a37565b6000828152610135602090815260408083206001600160a01b038516845290915290205460ff16611046576000828152610135602090815260408083206001600160a01b03851684529091529020805460ff191660011790556129de3390565b6001600160a01b0316816001600160a01b0316837f2f8788117e7eff1d82e926ec794901d17c78024a50270940304540a733656f0d60405160405180910390a45050565b6000828152610135602090815260408083206001600160a01b038516845290915290205460ff1615611046576000828152610135602090815260408083206001600160a01b0385168085529252808320805460ff1916905551339285917ff6391f5c32d9c69d2a47ea670b442974b53935d1edc7fd64eb21e047a839171b9190a45050565b7f189ab7a9244df0848122154315af71fe140f3db0fe014031783b0946b8c9d2e361104681612974565b7f4910fdfa16fed3260ed0e7147f7cc6da11a60208b5b9406d12a635614ffd91435460ff1615612b0457610c8483613ab8565b826001600160a01b03166352d1902d6040518163ffffffff1660e01b8152600401602060405180830381865afa925050508015612b5e575060408051601f3d908101601f19168201909252612b5b91810190614d9a565b60015b612bd05760405162461bcd60e51b815260206004820152602e60248201527f45524331393637557067726164653a206e657720696d706c656d656e7461746960448201527f6f6e206973206e6f7420555550530000000000000000000000000000000000006064820152608401610be3565b7f360894a13ba1a3210667c828492db98dca3e2076cc3735a920a3ca505d382bbc8114612c655760405162461bcd60e51b815260206004820152602960248201527f45524331393637557067726164653a20756e737570706f727465642070726f7860448201527f6961626c655555494400000000000000000000000000000000000000000000006064820152608401610be3565b50610c84838383613b76565b6000612c7c82611588565b600083815261012f602090815260408083205461012d9092529091205491925090612ca684613b9b565b600084815261012f6020908152604080832083905561012d82528083208390555183815286917f0b2aac84f3ec956911fd78eae5311062972ff949f38412e8da39069d9f068cc6910160405180910390a3600082857fe4f48c240d3b994948aa54f3e2f5fca59263dfe1d52b6e4cf39a5d249b5ccb6560405160405180910390a450505050565b600054610100900460ff1615808015612d4d5750600054600160ff909116105b80612d675750303b158015612d67575060005460ff166001145b612dca5760405162461bcd60e51b815260206004820152602e60248201527f496e697469616c697a61626c653a20636f6e747261637420697320616c72656160448201526d191e481a5b9a5d1a585b1a5e995960921b6064820152608401610be3565b6000805460ff191660011790558015612ded576000805461ff0019166101001790555b612e476040518060400160405280600781526020017f4d79546f6b656e00000000000000000000000000000000000000000000000000815250604051806040016040528060038152602001624d544b60e81b815250613c42565b612e4f612e53565b611a1f5b600054610100900460ff16612ebe5760405162461bcd60e51b815260206004820152602b60248201527f496e697469616c697a61626c653a20636f6e7472616374206973206e6f74206960448201526a6e697469616c697a696e6760a81b6064820152608401610be3565b565b600083815261012e6020908152604080832080546001808201835582865284862090910180546001600160a01b0319166001600160a01b038916908117909155808652908201845293829020859055905184815290929186917f621b050de0ad08b51d19b48b3e6df75348c4de6bdd93e81b252ca62e28265b1b91015b60405180910390a350505050565b816001600160a01b0316836001600160a01b031603612fac5760405162461bcd60e51b815260206004820152601960248201527f4552433732313a20617070726f766520746f2063616c6c6572000000000000006044820152606401610be3565b6001600160a01b038381166000818152606a6020908152604080832094871680845294825291829020805460ff191686151590811790915591519182527f17307eab39ab6107e8899845ad3d59bd9653f200f220920489ca2b5937696c31910160405180910390a3505050565b613021614234565b606060008351116130745760405162461bcd60e51b815260206004820152601c60248201527f5f7061727365446174613a20696e707574206461746120656d707479000000006044820152606401610be3565b6000806000806000806000898060200190518101906130939190614f66565b96509650965096509650965096506000848785886040516020016130ba949392919061505d565b60408051601f1981840301815291815281516020928301208c5260c08c01949094528a019490945290880191909152606087019390935250608085015260a0840191909152600060e08401526001610100840152919391925050565b6001600160a01b03821661316c5760405162461bcd60e51b815260206004820152601e60248201527f4d696e743a206d696e7420746f20746865207a65726f206164647265737300006044820152606401610be3565b60208181015190810151905167ffffffffffffffff918216911611156131d45760405162461bcd60e51b815260206004820152601b60248201527f4d696e743a20696e76616c696420776f726b54696d656672616d6500000000006044820152606401610be3565b60408101516020810151905167ffffffffffffffff9182169116111561323c5760405162461bcd60e51b815260206004820152601d60248201527f4d696e743a20696e76616c696420696d7061637454696d656672616d650000006044820152606401610be3565b60408101515160208201515167ffffffffffffffff918216911611156132ca5760405162461bcd60e51b815260206004820152602c60248201527f4d696e743a20696d7061637454696d656672616d65207072696f7220746f207760448201527f6f726b54696d656672616d6500000000000000000000000000000000000000006064820152608401610be3565b60808101515160005b81811015613362576133046101ce846080015183815181106132f7576132f76149c4565b6020026020010151613975565b6133505760405162461bcd60e51b815260206004820152601a60248201527f4d696e743a20696e76616c696420696d706163742073636f70650000000000006044820152606401610be3565b8061335a816150a7565b9150506132d3565b5060608201515160005b818110156133ee576133906101cd856060015183815181106132f7576132f76149c4565b6133dc5760405162461bcd60e51b815260206004820152601860248201527f4d696e743a20696e76616c696420776f726b2073636f706500000000000000006044820152606401610be3565b806133e6816150a7565b91505061336c565b5050505050565b60005b8151811015610c84576101d06000838381518110613418576134186149c4565b6020908102919091018101516001600160a01b03168252818101929092526040908101600090812086825290925290205460ff16156134bf5760405162461bcd60e51b815260206004820152602560248201527f436c61696d3a20636c61696d20666f722063726561746f7273206f7665726c6160448201527f7070696e670000000000000000000000000000000000000000000000000000006064820152608401610be3565b60016101d060008484815181106134d8576134d86149c4565b6020908102919091018101516001600160a01b0316825281810192909252604090810160009081208782529092529020805460ff191691151591909117905580613521816150a7565b9150506133f8565b6001600160a01b0384166135895760405162461bcd60e51b815260206004820152602160248201527f455243333532353a206d696e7420746f20746865207a65726f206164647265736044820152607360f81b6064820152608401610be3565b826000036135e35760405162461bcd60e51b815260206004820152602160248201527f455243333532353a2063616e6e6f74206d696e74207a65726f20746f6b656e496044820152601960fa1b6064820152608401610be3565b6000838152606760205260409020546001600160a01b0316156136485760405162461bcd60e51b815260206004820152601d60248201527f455243333532353a20746f6b656e20616c7265616479206d696e7465640000006044820152606401610be3565b6136538484846122e5565b600083815261012d602052604090208190558260007f0b2aac84f3ec956911fd78eae5311062972ff949f38412e8da39069d9f068cc683604051612f3d91815260200190565b6000828152606760205260409020546001600160a01b03166137235760405162461bcd60e51b815260206004820152602e60248201527f45524337323155524953746f726167653a2055524920736574206f66206e6f6e60448201527f6578697374656e7420746f6b656e0000000000000000000000000000000000006064820152608401610be3565b600082815260fb60205260409020610c848282614a5a565b6137468484846127b5565b61375284848484613cb7565b611b675760405162461bcd60e51b815260206004820152603260248201527f4552433732313a207472616e7366657220746f206e6f6e20455243373231526560448201527f63656976657220696d706c656d656e74657200000000000000000000000000006064820152608401610be3565b60006001600160e01b031982166370b0048160e11b14806137f557506001600160e01b03198216631dba0dcf60e11b145b8061381057506001600160e01b03198216630354d60560e61b145b80610aa55750610aa582613e0e565b6001600160a01b0382166138755760405162461bcd60e51b815260206004820181905260248201527f4552433732313a206d696e7420746f20746865207a65726f20616464726573736044820152606401610be3565b6000818152606760205260409020546001600160a01b0316156138da5760405162461bcd60e51b815260206004820152601c60248201527f4552433732313a20746f6b656e20616c7265616479206d696e746564000000006044820152606401610be3565b6138e66000838361399c565b6001600160a01b038216600090815260686020526040812080546001929061390f908490614b6b565b909155505060008181526067602052604080822080546001600160a01b0319166001600160a01b03861690811790915590518392907fddf252ad1be2c89b69c2b068fc378daa952ba7f163c4a11628f55a4df523b3ef908290a45050565b505050505050565b60008181526020839052604081208054829190613991906149da565b905011905092915050565b600081815261012e6020526040812054905b81811015613a1e57600083815261012e602052604081208054839081106139d7576139d76149c4565b600091825260208083209091015486835261012e825260408084206001600160a01b0390921684526001919091019091528120555080613a16816150a7565b9150506139ae565b50600082815261012e60205260408120611b67916143cb565b6000828152610135602090815260408083206001600160a01b038516845290915290205460ff1661104657613a76816001600160a01b03166014613e33565b613a81836020613e33565b604051602001613a929291906150c0565b60408051601f198184030181529082905262461bcd60e51b8252610be3916004016144c1565b6001600160a01b0381163b613b355760405162461bcd60e51b815260206004820152602d60248201527f455243313936373a206e657720696d706c656d656e746174696f6e206973206e60448201527f6f74206120636f6e7472616374000000000000000000000000000000000000006064820152608401610be3565b7f360894a13ba1a3210667c828492db98dca3e2076cc3735a920a3ca505d382bbc80546001600160a01b0319166001600160a01b0392909216919091179055565b613b7f83613fdc565b600082511180613b8c5750805b15610c8457611b67838361401c565b6000613ba682611588565b9050613bb48160008461399c565b613bbf6000836121b8565b6001600160a01b0381166000908152606860205260408120805460019290613be8908490614d87565b909155505060008281526067602052604080822080546001600160a01b0319169055518391906001600160a01b038416907fddf252ad1be2c89b69c2b068fc378daa952ba7f163c4a11628f55a4df523b3ef908390a45050565b600054610100900460ff16613cad5760405162461bcd60e51b815260206004820152602b60248201527f496e697469616c697a61626c653a20636f6e7472616374206973206e6f74206960448201526a6e697469616c697a696e6760a81b6064820152608401610be3565b6110468282614127565b60006001600160a01b0384163b15613e0357604051630a85bd0160e11b81526001600160a01b0385169063150b7a0290613cfb903390899088908890600401615141565b6020604051808303816000875af1925050508015613d36575060408051601f3d908101601f19168201909252613d339181019061517d565b60015b613de9573d808015613d64576040519150601f19603f3d011682016040523d82523d6000602084013e613d69565b606091505b508051600003613de15760405162461bcd60e51b815260206004820152603260248201527f4552433732313a207472616e7366657220746f206e6f6e20455243373231526560448201527f63656976657220696d706c656d656e74657200000000000000000000000000006064820152608401610be3565b805181602001fd5b6001600160e01b031916630a85bd0160e11b1490506127ad565b506001949350505050565b60006001600160e01b0319821663780e9d6360e01b1480610aa55750610aa5826141ab565b60606000613e4283600261519a565b613e4d906002614b6b565b67ffffffffffffffff811115613e6557613e65614566565b6040519080825280601f01601f191660200182016040528015613e8f576020820181803683370190505b509050600360fc1b81600081518110613eaa57613eaa6149c4565b60200101906001600160f81b031916908160001a905350600f60fb1b81600181518110613ed957613ed96149c4565b60200101906001600160f81b031916908160001a9053506000613efd84600261519a565b613f08906001614b6b565b90505b6001811115613f8d577f303132333435363738396162636465660000000000000000000000000000000085600f1660108110613f4957613f496149c4565b1a60f81b828281518110613f5f57613f5f6149c4565b60200101906001600160f81b031916908160001a90535060049490941c93613f86816151b9565b9050613f0b565b508315610d675760405162461bcd60e51b815260206004820181905260248201527f537472696e67733a20686578206c656e67746820696e73756666696369656e746044820152606401610be3565b613fe581613ab8565b6040516001600160a01b038216907fbc7cd75a20ee27fd9adebab32041f755214dbc6bffa90cc0225b39da2e5c2d3b90600090a250565b60606001600160a01b0383163b61409b5760405162461bcd60e51b815260206004820152602660248201527f416464726573733a2064656c65676174652063616c6c20746f206e6f6e2d636f60448201527f6e747261637400000000000000000000000000000000000000000000000000006064820152608401610be3565b600080846001600160a01b0316846040516140b691906151d0565b600060405180830381855af49150503d80600081146140f1576040519150601f19603f3d011682016040523d82523d6000602084013e6140f6565b606091505b509150915061411e82826040518060600160405280602781526020016151ed602791396141fb565b95945050505050565b600054610100900460ff166141925760405162461bcd60e51b815260206004820152602b60248201527f496e697469616c697a61626c653a20636f6e7472616374206973206e6f74206960448201526a6e697469616c697a696e6760a81b6064820152608401610be3565b606561419e8382614a5a565b506066610c848282614a5a565b60006001600160e01b031982166380ac58cd60e01b14806141dc57506001600160e01b03198216635b5e139f60e01b145b80610aa557506301ffc9a760e01b6001600160e01b0319831614610aa5565b6060831561420a575081610d67565b82511561421a5782518084602001fd5b8160405162461bcd60e51b8152600401610be391906144c1565b60408051610120810190915260008152602081016142506143e9565b815260200161425d6143e9565b815260200160608152602001606081526020016060815260200160608152602001600061ffff1681526020016000151581525090565b60018301918390821561432b5791602002820160005b838211156142f557835183826101000a81548167ffffffffffffffff021916908367ffffffffffffffff16021790555092602001926008016020816007010492830192600103026142a9565b80156143295782816101000a81549067ffffffffffffffff02191690556008016020816007010492830192600103026142f5565b505b50614337929150614407565b5090565b82805482825590600052602060002090810192821561432b579160200282015b8281111561432b57825182559160200191906001019061435b565b82805482825590600052602060002090810192821561432b579160200282015b8281111561432b57825182546001600160a01b0319166001600160a01b03909116178255602090920191600190910190614396565b50805460008255906000526020600020908101906111c29190614407565b60405180604001604052806002906020820280368337509192915050565b5b808211156143375760008155600101614408565b6000806040838503121561442f57600080fd5b50508035926020909101359150565b6001600160e01b0319811681146111c257600080fd5b60006020828403121561446657600080fd5b8135610d678161443e565b60005b8381101561448c578181015183820152602001614474565b50506000910152565b600081518084526144ad816020860160208601614471565b601f01601f19169290920160200192915050565b602081526000610d676020830184614495565b6000602082840312156144e657600080fd5b5035919050565b6001600160a01b03811681146111c257600080fd5b6000806040838503121561451557600080fd5b8235614520816144ed565b946020939093013593505050565b60008060006060848603121561454357600080fd5b833592506020840135614555816144ed565b929592945050506040919091013590565b634e487b7160e01b600052604160045260246000fd5b604051601f8201601f1916810167ffffffffffffffff811182821017156145a5576145a5614566565b604052919050565b600067ffffffffffffffff8211156145c7576145c7614566565b50601f01601f191660200190565b60006145e86145e3846145ad565b61457c565b90508281528383830111156145fc57600080fd5b828260208301376000602084830101529392505050565b60006020828403121561462557600080fd5b813567ffffffffffffffff81111561463c57600080fd5b8201601f8101841361464d57600080fd5b6127ad848235602084016145d5565b60008060006060848603121561467157600080fd5b833561467c816144ed565b92506020840135614555816144ed565b6000806040838503121561469f57600080fd5b8235915060208301356146b1816144ed565b809150509250929050565b6000806000606084860312156146d157600080fd5b505081359360208301359350604090920135919050565b6000602082840312156146fa57600080fd5b8135610d67816144ed565b600082601f83011261471657600080fd5b610d67838335602085016145d5565b6000806040838503121561473857600080fd5b8235614743816144ed565b9150602083013567ffffffffffffffff81111561475f57600080fd5b61476b85828601614705565b9150509250929050565b8060005b6002811015611b6757815167ffffffffffffffff16845260209384019390910190600101614779565b600081518084526020808501945080840160005b838110156147d2578151875295820195908201906001016147b6565b509495945050505050565b600081518084526020808501945080840160005b838110156147d25781516001600160a01b0316875295820195908201906001016147f1565b6020815281516020820152600060208301516148356040840182614775565b5060408301516148486080840182614775565b5060608301516101608060c08501526148656101808501836147a2565b91506080850151601f19808685030160e087015261488384836147a2565b935060a087015191506101008187860301818801526148a285846147a2565b945060c0880151925081878603016101208801526148c085846147dd565b945060e088015192506148da61014088018461ffff169052565b8701518015158488015291506148ed9050565b5090949350505050565b6000806040838503121561490a57600080fd5b8235614915816144ed565b9150602083013580151581146146b157600080fd5b6000806000806080858703121561494057600080fd5b843561494b816144ed565b9350602085013561495b816144ed565b925060408501359150606085013567ffffffffffffffff81111561497e57600080fd5b61498a87828801614705565b91505092959194509250565b600080604083850312156149a957600080fd5b82356149b4816144ed565b915060208301356146b1816144ed565b634e487b7160e01b600052603260045260246000fd5b600181811c908216806149ee57607f821691505b602082108103614a0e57634e487b7160e01b600052602260045260246000fd5b50919050565b601f821115610c8457600081815260208120601f850160051c81016020861015614a3b5750805b601f850160051c820191505b8181101561396d57828155600101614a47565b815167ffffffffffffffff811115614a7457614a74614566565b614a8881614a8284546149da565b84614a14565b602080601f831160018114614abd5760008415614aa55750858301515b600019600386901b1c1916600185901b17855561396d565b600085815260208120601f198616915b82811015614aec57888601518255948401946001909101908401614acd565b5085821015614b0a5787850151600019600388901b60f8161c191681555b5050505050600190811b01905550565b8281526040602082015260006127ad6040830184614495565b634e487b7160e01b600052601160045260246000fd5b61ffff818116838216019080821115614b6457614b64614b33565b5092915050565b80820180821115610aa557610aa5614b33565b60006101a08d83526001600160a01b038d1660208401528b6040840152806060840152614bad8184018c6147dd565b9050614bbc608084018b614775565b614bc960c084018a614775565b828103610100840152614bdc81896147a2565b9050828103610120840152614bf181886147a2565b9050828103610140840152614c0681876147a2565b905061ffff8516610160840152828103610180840152614c268185614495565b9e9d5050505050505050505050505050565b7f646174613a6170706c69636174696f6e2f6a736f6e3b7b6e616d653a000000008152600084516020614c7182601c8601838a01614471565b81840191507f2c6465736372697074696f6e3a00000000000000000000000000000000000000601c830152602960008754614cab816149da565b60018281168015614cc35760018114614cdc57614d0c565b60ff198416888701528215158302880186019450614d0c565b8b6000528660002060005b84811015614d025781548a8201890152908301908801614ce7565b5050858389010194505b507f2c76616c7565446563696d616c733a00000000000000000000000000000000008452600f84019650614d64878b60f81b7fff00000000000000000000000000000000000000000000000000000000000000169052565b614d77818801607d60f81b815260010190565b9c9b505050505050505050505050565b81810381811115610aa557610aa5614b33565b600060208284031215614dac57600080fd5b5051919050565b600067ffffffffffffffff821115614dcd57614dcd614566565b5060051b60200190565b600082601f830112614de857600080fd5b81516020614df86145e383614db3565b82815260059290921b84018101918181019086841115614e1757600080fd5b8286015b84811015614e325780518352918301918301614e1b565b509695505050505050565b600082601f830112614e4e57600080fd5b6040516040810167ffffffffffffffff8282108183111715614e7257614e72614566565b60409182528291850186811115614e8857600080fd5b855b81811015614eb15780518381168114614ea35760008081fd5b845260209384019301614e8a565b50929695505050505050565b600082601f830112614ece57600080fd5b81516020614ede6145e383614db3565b82815260059290921b84018101918181019086841115614efd57600080fd5b8286015b84811015614e32578051614f14816144ed565b8352918301918301614f01565b600082601f830112614f3257600080fd5b8151614f406145e3826145ad565b818152846020838601011115614f5557600080fd5b6127ad826020830160208701614471565b6000806000806000806000610120888a031215614f8257600080fd5b875167ffffffffffffffff80821115614f9a57600080fd5b614fa68b838c01614dd7565b985060208a0151915080821115614fbc57600080fd5b614fc88b838c01614dd7565b975060408a0151915080821115614fde57600080fd5b614fea8b838c01614dd7565b9650614ff98b60608c01614e3d565b95506150088b60a08c01614e3d565b945060e08a015191508082111561501e57600080fd5b61502a8b838c01614ebd565b93506101008a015191508082111561504157600080fd5b5061504e8a828b01614f21565b91505092959891949750929550565b6150678186614775565b60c06040820152600061507d60c08301866147a2565b61508a6060840186614775565b82810360a084015261509c81856147a2565b979650505050505050565b6000600182016150b9576150b9614b33565b5060010190565b7f416363657373436f6e74726f6c3a206163636f756e74200000000000000000008152600083516150f8816017850160208801614471565b7f206973206d697373696e6720726f6c65200000000000000000000000000000006017918401918201528351615135816028840160208801614471565b01602801949350505050565b60006001600160a01b038087168352808616602084015250836040830152608060608301526151736080830184614495565b9695505050505050565b60006020828403121561518f57600080fd5b8151610d678161443e565b60008160001904831182151516156151b4576151b4614b33565b500290565b6000816151c8576151c8614b33565b506000190190565b600082516151e2818460208701614471565b919091019291505056fe416464726573733a206c6f772d6c6576656c2064656c65676174652063616c6c206661696c6564a164736f6c6343000810000a",
  "linkReferences": {},
  "deployedLinkReferences": {}
}