{
  "_format": "hh-sol-artifact-1",
  "contractName": "HypercertMinterV0",
  "sourceName": "contracts/HypercertMinterV0.sol",
  "abi": [
    {
      "inputs": [],
      "stateMutability": "nonpayable",
      "type": "constructor"
    },
    {
      "anonymous": false,
      "inputs": [
        {
          "indexed": false,
          "internalType": "address",
          "name": "previousAdmin",
          "type": "address"
        },
        {
          "indexed": false,
          "internalType": "address",
          "name": "newAdmin",
          "type": "address"
        }
      ],
      "name": "AdminChanged",
      "type": "event"
    },
    {
      "anonymous": false,
      "inputs": [
        {
          "indexed": true,
          "internalType": "address",
          "name": "owner",
          "type": "address"
        },
        {
          "indexed": true,
          "internalType": "address",
          "name": "approved",
          "type": "address"
        },
        {
          "indexed": true,
          "internalType": "uint256",
          "name": "tokenId",
          "type": "uint256"
        }
      ],
      "name": "Approval",
      "type": "event"
    },
    {
      "anonymous": false,
      "inputs": [
        {
          "indexed": true,
          "internalType": "address",
          "name": "owner",
          "type": "address"
        },
        {
          "indexed": true,
          "internalType": "address",
          "name": "operator",
          "type": "address"
        },
        {
          "indexed": false,
          "internalType": "bool",
          "name": "approved",
          "type": "bool"
        }
      ],
      "name": "ApprovalForAll",
      "type": "event"
    },
    {
      "anonymous": false,
      "inputs": [
        {
          "indexed": true,
          "internalType": "uint256",
          "name": "_tokenId",
          "type": "uint256"
        },
        {
          "indexed": true,
          "internalType": "address",
          "name": "_operator",
          "type": "address"
        },
        {
          "indexed": false,
          "internalType": "uint256",
          "name": "_value",
          "type": "uint256"
        }
      ],
      "name": "ApprovalValue",
      "type": "event"
    },
    {
      "anonymous": false,
      "inputs": [
        {
          "indexed": true,
          "internalType": "address",
          "name": "beacon",
          "type": "address"
        }
      ],
      "name": "BeaconUpgraded",
      "type": "event"
    },
    {
      "anonymous": false,
      "inputs": [
        {
          "indexed": false,
          "internalType": "uint256",
          "name": "id",
          "type": "uint256"
        },
        {
          "indexed": false,
          "internalType": "address",
          "name": "minter",
          "type": "address"
        },
        {
          "indexed": false,
          "internalType": "bytes32",
          "name": "claimHash",
          "type": "bytes32"
        },
        {
          "indexed": false,
          "internalType": "address[]",
          "name": "contributors",
          "type": "address[]"
        },
        {
          "indexed": false,
          "internalType": "uint64[2]",
          "name": "workTimeframe",
          "type": "uint64[2]"
        },
        {
          "indexed": false,
          "internalType": "uint64[2]",
          "name": "impactTimeframe",
          "type": "uint64[2]"
        },
        {
          "indexed": false,
          "internalType": "bytes32[]",
          "name": "workScopes",
          "type": "bytes32[]"
        },
        {
          "indexed": false,
          "internalType": "bytes32[]",
          "name": "impactScopes",
          "type": "bytes32[]"
        },
        {
          "indexed": false,
          "internalType": "bytes32[]",
          "name": "rights",
          "type": "bytes32[]"
        },
        {
          "indexed": false,
          "internalType": "uint8[]",
          "name": "fractions",
          "type": "uint8[]"
        },
        {
          "indexed": false,
          "internalType": "uint64",
          "name": "version",
          "type": "uint64"
        },
        {
          "indexed": false,
          "internalType": "string",
          "name": "uri",
          "type": "string"
        }
      ],
      "name": "ImpactClaimed",
      "type": "event"
    },
    {
      "anonymous": false,
      "inputs": [
        {
          "indexed": false,
          "internalType": "bytes32",
          "name": "id",
          "type": "bytes32"
        },
        {
          "indexed": false,
          "internalType": "string",
          "name": "text",
          "type": "string"
        }
      ],
      "name": "ImpactScopeAdded",
      "type": "event"
    },
    {
      "anonymous": false,
      "inputs": [
        {
          "indexed": false,
          "internalType": "uint8",
          "name": "version",
          "type": "uint8"
        }
      ],
      "name": "Initialized",
      "type": "event"
    },
    {
      "anonymous": false,
      "inputs": [
        {
          "indexed": false,
          "internalType": "bytes32",
          "name": "id",
          "type": "bytes32"
        },
        {
          "indexed": false,
          "internalType": "string",
          "name": "text",
          "type": "string"
        }
      ],
      "name": "RightAdded",
      "type": "event"
    },
    {
      "anonymous": false,
      "inputs": [
        {
          "indexed": true,
          "internalType": "bytes32",
          "name": "role",
          "type": "bytes32"
        },
        {
          "indexed": true,
          "internalType": "bytes32",
          "name": "previousAdminRole",
          "type": "bytes32"
        },
        {
          "indexed": true,
          "internalType": "bytes32",
          "name": "newAdminRole",
          "type": "bytes32"
        }
      ],
      "name": "RoleAdminChanged",
      "type": "event"
    },
    {
      "anonymous": false,
      "inputs": [
        {
          "indexed": true,
          "internalType": "bytes32",
          "name": "role",
          "type": "bytes32"
        },
        {
          "indexed": true,
          "internalType": "address",
          "name": "account",
          "type": "address"
        },
        {
          "indexed": true,
          "internalType": "address",
          "name": "sender",
          "type": "address"
        }
      ],
      "name": "RoleGranted",
      "type": "event"
    },
    {
      "anonymous": false,
      "inputs": [
        {
          "indexed": true,
          "internalType": "bytes32",
          "name": "role",
          "type": "bytes32"
        },
        {
          "indexed": true,
          "internalType": "address",
          "name": "account",
          "type": "address"
        },
        {
          "indexed": true,
          "internalType": "address",
          "name": "sender",
          "type": "address"
        }
      ],
      "name": "RoleRevoked",
      "type": "event"
    },
    {
      "anonymous": false,
      "inputs": [
        {
          "indexed": true,
          "internalType": "uint256",
          "name": "_tokenId",
          "type": "uint256"
        },
        {
          "indexed": true,
          "internalType": "uint256",
          "name": "_oldSlot",
          "type": "uint256"
        },
        {
          "indexed": true,
          "internalType": "uint256",
          "name": "_newSlot",
          "type": "uint256"
        }
      ],
      "name": "SlotChanged",
      "type": "event"
    },
    {
      "anonymous": false,
      "inputs": [
        {
          "indexed": true,
          "internalType": "address",
          "name": "from",
          "type": "address"
        },
        {
          "indexed": true,
          "internalType": "address",
          "name": "to",
          "type": "address"
        },
        {
          "indexed": true,
          "internalType": "uint256",
          "name": "tokenId",
          "type": "uint256"
        }
      ],
      "name": "Transfer",
      "type": "event"
    },
    {
      "anonymous": false,
      "inputs": [
        {
          "indexed": true,
          "internalType": "uint256",
          "name": "_fromTokenId",
          "type": "uint256"
        },
        {
          "indexed": true,
          "internalType": "uint256",
          "name": "_toTokenId",
          "type": "uint256"
        },
        {
          "indexed": false,
          "internalType": "uint256",
          "name": "_value",
          "type": "uint256"
        }
      ],
      "name": "TransferValue",
      "type": "event"
    },
    {
      "anonymous": false,
      "inputs": [
        {
          "indexed": true,
          "internalType": "address",
          "name": "implementation",
          "type": "address"
        }
      ],
      "name": "Upgraded",
      "type": "event"
    },
    {
      "anonymous": false,
      "inputs": [
        {
          "indexed": false,
          "internalType": "bytes32",
          "name": "id",
          "type": "bytes32"
        },
        {
          "indexed": false,
          "internalType": "string",
          "name": "text",
          "type": "string"
        }
      ],
      "name": "WorkScopeAdded",
      "type": "event"
    },
    {
      "inputs": [],
      "name": "DECIMALS",
      "outputs": [
        {
          "internalType": "uint8",
          "name": "",
          "type": "uint8"
        }
      ],
      "stateMutability": "view",
      "type": "function"
    },
    {
      "inputs": [],
      "name": "DEFAULT_ADMIN_ROLE",
      "outputs": [
        {
          "internalType": "bytes32",
          "name": "",
          "type": "bytes32"
        }
      ],
      "stateMutability": "view",
      "type": "function"
    },
    {
      "inputs": [],
      "name": "NAME",
      "outputs": [
        {
          "internalType": "string",
          "name": "",
          "type": "string"
        }
      ],
      "stateMutability": "view",
      "type": "function"
    },
    {
      "inputs": [],
      "name": "SYMBOL",
      "outputs": [
        {
          "internalType": "string",
          "name": "",
          "type": "string"
        }
      ],
      "stateMutability": "view",
      "type": "function"
    },
    {
      "inputs": [],
      "name": "UPGRADER_ROLE",
      "outputs": [
        {
          "internalType": "bytes32",
          "name": "",
          "type": "bytes32"
        }
      ],
      "stateMutability": "view",
      "type": "function"
    },
    {
      "inputs": [
        {
          "internalType": "string",
          "name": "text",
          "type": "string"
        }
      ],
      "name": "addImpactScope",
      "outputs": [
        {
          "internalType": "bytes32",
          "name": "id",
          "type": "bytes32"
        }
      ],
      "stateMutability": "nonpayable",
      "type": "function"
    },
    {
      "inputs": [
        {
          "internalType": "string",
          "name": "text",
          "type": "string"
        }
      ],
      "name": "addRight",
      "outputs": [
        {
          "internalType": "bytes32",
          "name": "id",
          "type": "bytes32"
        }
      ],
      "stateMutability": "nonpayable",
      "type": "function"
    },
    {
      "inputs": [
        {
          "internalType": "string",
          "name": "text",
          "type": "string"
        }
      ],
      "name": "addWorkScope",
      "outputs": [
        {
          "internalType": "bytes32",
          "name": "id",
          "type": "bytes32"
        }
      ],
      "stateMutability": "nonpayable",
      "type": "function"
    },
    {
      "inputs": [
        {
          "internalType": "uint256",
          "name": "tokenId_",
          "type": "uint256"
        },
        {
          "internalType": "address",
          "name": "operator_",
          "type": "address"
        }
      ],
      "name": "allowance",
      "outputs": [
        {
          "internalType": "uint256",
          "name": "",
          "type": "uint256"
        }
      ],
      "stateMutability": "view",
      "type": "function"
    },
    {
      "inputs": [
        {
          "internalType": "address",
          "name": "to",
          "type": "address"
        },
        {
          "internalType": "uint256",
          "name": "tokenId",
          "type": "uint256"
        }
      ],
      "name": "approve",
      "outputs": [],
      "stateMutability": "nonpayable",
      "type": "function"
    },
    {
      "inputs": [
        {
          "internalType": "uint256",
          "name": "tokenId_",
          "type": "uint256"
        },
        {
          "internalType": "address",
          "name": "to_",
          "type": "address"
        },
        {
          "internalType": "uint256",
          "name": "value_",
          "type": "uint256"
        }
      ],
      "name": "approve",
      "outputs": [],
      "stateMutability": "payable",
      "type": "function"
    },
    {
      "inputs": [
        {
          "internalType": "address",
          "name": "owner",
          "type": "address"
        }
      ],
      "name": "balanceOf",
      "outputs": [
        {
          "internalType": "uint256",
          "name": "",
          "type": "uint256"
        }
      ],
      "stateMutability": "view",
      "type": "function"
    },
    {
      "inputs": [
        {
          "internalType": "uint256",
          "name": "tokenId_",
          "type": "uint256"
        }
      ],
      "name": "balanceOf",
      "outputs": [
        {
          "internalType": "uint256",
          "name": "",
          "type": "uint256"
        }
      ],
      "stateMutability": "view",
      "type": "function"
    },
    {
      "inputs": [
        {
          "internalType": "uint256",
          "name": "tokenId",
          "type": "uint256"
        }
      ],
      "name": "burn",
      "outputs": [],
      "stateMutability": "nonpayable",
      "type": "function"
    },
    {
      "inputs": [],
      "name": "contractURI",
      "outputs": [
        {
          "internalType": "string",
          "name": "",
          "type": "string"
        }
      ],
      "stateMutability": "view",
      "type": "function"
    },
    {
      "inputs": [
        {
          "internalType": "uint256",
          "name": "tokenId",
          "type": "uint256"
        }
      ],
      "name": "getApproved",
      "outputs": [
        {
          "internalType": "address",
          "name": "",
          "type": "address"
        }
      ],
      "stateMutability": "view",
      "type": "function"
    },
    {
      "inputs": [
        {
          "internalType": "uint256",
          "name": "claimID",
          "type": "uint256"
        }
      ],
      "name": "getImpactCert",
      "outputs": [
        {
          "components": [
            {
              "internalType": "bytes32",
              "name": "claimHash",
              "type": "bytes32"
            },
            {
              "internalType": "uint64[2]",
              "name": "workTimeframe",
              "type": "uint64[2]"
            },
            {
              "internalType": "uint64[2]",
              "name": "impactTimeframe",
              "type": "uint64[2]"
            },
            {
              "internalType": "bytes32[]",
              "name": "workScopes",
              "type": "bytes32[]"
            },
            {
              "internalType": "bytes32[]",
              "name": "impactScopes",
              "type": "bytes32[]"
            },
            {
              "internalType": "bytes32[]",
              "name": "rights",
              "type": "bytes32[]"
            },
            {
              "internalType": "address[]",
              "name": "contributors",
              "type": "address[]"
            },
            {
              "internalType": "uint8[]",
              "name": "fractions",
              "type": "uint8[]"
            },
            {
              "internalType": "uint16",
              "name": "version",
              "type": "uint16"
            },
            {
              "internalType": "bool",
              "name": "exists",
              "type": "bool"
            }
          ],
          "internalType": "struct HypercertMinterV0.Claim",
          "name": "",
          "type": "tuple"
        }
      ],
      "stateMutability": "view",
      "type": "function"
    },
    {
      "inputs": [
        {
          "internalType": "bytes32",
          "name": "role",
          "type": "bytes32"
        }
      ],
      "name": "getRoleAdmin",
      "outputs": [
        {
          "internalType": "bytes32",
          "name": "",
          "type": "bytes32"
        }
      ],
      "stateMutability": "view",
      "type": "function"
    },
    {
      "inputs": [
        {
          "internalType": "bytes32",
          "name": "role",
          "type": "bytes32"
        },
        {
          "internalType": "address",
          "name": "account",
          "type": "address"
        }
      ],
      "name": "grantRole",
      "outputs": [],
      "stateMutability": "nonpayable",
      "type": "function"
    },
    {
      "inputs": [
        {
          "internalType": "bytes32",
          "name": "role",
          "type": "bytes32"
        },
        {
          "internalType": "address",
          "name": "account",
          "type": "address"
        }
      ],
      "name": "hasRole",
      "outputs": [
        {
          "internalType": "bool",
          "name": "",
          "type": "bool"
        }
      ],
      "stateMutability": "view",
      "type": "function"
    },
    {
      "inputs": [
        {
          "internalType": "bytes32",
          "name": "",
          "type": "bytes32"
        }
      ],
      "name": "impactScopes",
      "outputs": [
        {
          "internalType": "string",
          "name": "",
          "type": "string"
        }
      ],
      "stateMutability": "view",
      "type": "function"
    },
    {
      "inputs": [],
      "name": "initialize",
      "outputs": [],
      "stateMutability": "nonpayable",
      "type": "function"
    },
    {
      "inputs": [
        {
          "internalType": "address",
          "name": "owner",
          "type": "address"
        },
        {
          "internalType": "address",
          "name": "operator",
          "type": "address"
        }
      ],
      "name": "isApprovedForAll",
      "outputs": [
        {
          "internalType": "bool",
          "name": "",
          "type": "bool"
        }
      ],
      "stateMutability": "view",
      "type": "function"
    },
    {
      "inputs": [
        {
          "internalType": "address",
          "name": "account",
          "type": "address"
        },
        {
          "internalType": "bytes",
          "name": "data",
          "type": "bytes"
        }
      ],
      "name": "mint",
      "outputs": [],
      "stateMutability": "nonpayable",
      "type": "function"
    },
    {
      "inputs": [],
      "name": "name",
      "outputs": [
        {
          "internalType": "string",
          "name": "",
          "type": "string"
        }
      ],
      "stateMutability": "pure",
      "type": "function"
    },
    {
      "inputs": [
        {
          "internalType": "uint256",
          "name": "tokenId",
          "type": "uint256"
        }
      ],
      "name": "ownerOf",
      "outputs": [
        {
          "internalType": "address",
          "name": "",
          "type": "address"
        }
      ],
      "stateMutability": "view",
      "type": "function"
    },
    {
      "inputs": [],
      "name": "proxiableUUID",
      "outputs": [
        {
          "internalType": "bytes32",
          "name": "",
          "type": "bytes32"
        }
      ],
      "stateMutability": "view",
      "type": "function"
    },
    {
      "inputs": [
        {
          "internalType": "bytes32",
          "name": "role",
          "type": "bytes32"
        },
        {
          "internalType": "address",
          "name": "account",
          "type": "address"
        }
      ],
      "name": "renounceRole",
      "outputs": [],
      "stateMutability": "nonpayable",
      "type": "function"
    },
    {
      "inputs": [
        {
          "internalType": "bytes32",
          "name": "role",
          "type": "bytes32"
        },
        {
          "internalType": "address",
          "name": "account",
          "type": "address"
        }
      ],
      "name": "revokeRole",
      "outputs": [],
      "stateMutability": "nonpayable",
      "type": "function"
    },
    {
      "inputs": [
        {
          "internalType": "bytes32",
          "name": "",
          "type": "bytes32"
        }
      ],
      "name": "rights",
      "outputs": [
        {
          "internalType": "string",
          "name": "",
          "type": "string"
        }
      ],
      "stateMutability": "view",
      "type": "function"
    },
    {
      "inputs": [
        {
          "internalType": "address",
          "name": "from",
          "type": "address"
        },
        {
          "internalType": "address",
          "name": "to",
          "type": "address"
        },
        {
          "internalType": "uint256",
          "name": "tokenId",
          "type": "uint256"
        }
      ],
      "name": "safeTransferFrom",
      "outputs": [],
      "stateMutability": "nonpayable",
      "type": "function"
    },
    {
      "inputs": [
        {
          "internalType": "address",
          "name": "from",
          "type": "address"
        },
        {
          "internalType": "address",
          "name": "to",
          "type": "address"
        },
        {
          "internalType": "uint256",
          "name": "tokenId",
          "type": "uint256"
        },
        {
          "internalType": "bytes",
          "name": "data",
          "type": "bytes"
        }
      ],
      "name": "safeTransferFrom",
      "outputs": [],
      "stateMutability": "nonpayable",
      "type": "function"
    },
    {
      "inputs": [
        {
          "internalType": "address",
          "name": "operator",
          "type": "address"
        },
        {
          "internalType": "bool",
          "name": "approved",
          "type": "bool"
        }
      ],
      "name": "setApprovalForAll",
      "outputs": [],
      "stateMutability": "nonpayable",
      "type": "function"
    },
    {
      "inputs": [
        {
          "internalType": "uint256",
          "name": "_index",
          "type": "uint256"
        }
      ],
      "name": "slotByIndex",
      "outputs": [
        {
          "internalType": "uint256",
          "name": "",
          "type": "uint256"
        }
      ],
      "stateMutability": "view",
      "type": "function"
    },
    {
      "inputs": [],
      "name": "slotCount",
      "outputs": [
        {
          "internalType": "uint256",
          "name": "",
          "type": "uint256"
        }
      ],
      "stateMutability": "view",
      "type": "function"
    },
    {
      "inputs": [
        {
          "internalType": "uint256",
          "name": "tokenId_",
          "type": "uint256"
        }
      ],
      "name": "slotOf",
      "outputs": [
        {
          "internalType": "uint256",
          "name": "",
          "type": "uint256"
        }
      ],
      "stateMutability": "view",
      "type": "function"
    },
    {
      "inputs": [
        {
          "internalType": "uint256",
          "name": "",
          "type": "uint256"
        }
      ],
      "name": "slotURI",
      "outputs": [
        {
          "internalType": "string",
          "name": "",
          "type": "string"
        }
      ],
      "stateMutability": "pure",
      "type": "function"
    },
    {
      "inputs": [
        {
          "internalType": "bytes4",
          "name": "interfaceId",
          "type": "bytes4"
        }
      ],
      "name": "supportsInterface",
      "outputs": [
        {
          "internalType": "bool",
          "name": "",
          "type": "bool"
        }
      ],
      "stateMutability": "view",
      "type": "function"
    },
    {
      "inputs": [],
      "name": "symbol",
      "outputs": [
        {
          "internalType": "string",
          "name": "",
          "type": "string"
        }
      ],
      "stateMutability": "pure",
      "type": "function"
    },
    {
      "inputs": [
        {
          "internalType": "uint256",
          "name": "index",
          "type": "uint256"
        }
      ],
      "name": "tokenByIndex",
      "outputs": [
        {
          "internalType": "uint256",
          "name": "",
          "type": "uint256"
        }
      ],
      "stateMutability": "view",
      "type": "function"
    },
    {
      "inputs": [
        {
          "internalType": "uint256",
          "name": "_slot",
          "type": "uint256"
        },
        {
          "internalType": "uint256",
          "name": "_index",
          "type": "uint256"
        }
      ],
      "name": "tokenInSlotByIndex",
      "outputs": [
        {
          "internalType": "uint256",
          "name": "",
          "type": "uint256"
        }
      ],
      "stateMutability": "view",
      "type": "function"
    },
    {
      "inputs": [
        {
          "internalType": "address",
          "name": "owner",
          "type": "address"
        },
        {
          "internalType": "uint256",
          "name": "index",
          "type": "uint256"
        }
      ],
      "name": "tokenOfOwnerByIndex",
      "outputs": [
        {
          "internalType": "uint256",
          "name": "",
          "type": "uint256"
        }
      ],
      "stateMutability": "view",
      "type": "function"
    },
    {
      "inputs": [
        {
          "internalType": "uint256",
          "name": "_slot",
          "type": "uint256"
        }
      ],
      "name": "tokenSupplyInSlot",
      "outputs": [
        {
          "internalType": "uint256",
          "name": "",
          "type": "uint256"
        }
      ],
      "stateMutability": "view",
      "type": "function"
    },
    {
      "inputs": [
        {
          "internalType": "uint256",
          "name": "tokenID_",
          "type": "uint256"
        }
      ],
      "name": "tokenURI",
      "outputs": [
        {
          "internalType": "string",
          "name": "",
          "type": "string"
        }
      ],
      "stateMutability": "view",
      "type": "function"
    },
    {
      "inputs": [],
      "name": "totalSupply",
      "outputs": [
        {
          "internalType": "uint256",
          "name": "",
          "type": "uint256"
        }
      ],
      "stateMutability": "view",
      "type": "function"
    },
    {
      "inputs": [
        {
          "internalType": "uint256",
          "name": "fromTokenId_",
          "type": "uint256"
        },
        {
          "internalType": "address",
          "name": "to_",
          "type": "address"
        },
        {
          "internalType": "uint256",
          "name": "value_",
          "type": "uint256"
        }
      ],
      "name": "transferFrom",
      "outputs": [
        {
          "internalType": "uint256",
          "name": "",
          "type": "uint256"
        }
      ],
      "stateMutability": "payable",
      "type": "function"
    },
    {
      "inputs": [
        {
          "internalType": "address",
          "name": "from",
          "type": "address"
        },
        {
          "internalType": "address",
          "name": "to",
          "type": "address"
        },
        {
          "internalType": "uint256",
          "name": "tokenId",
          "type": "uint256"
        }
      ],
      "name": "transferFrom",
      "outputs": [],
      "stateMutability": "nonpayable",
      "type": "function"
    },
    {
      "inputs": [
        {
          "internalType": "uint256",
          "name": "fromTokenId_",
          "type": "uint256"
        },
        {
          "internalType": "uint256",
          "name": "toTokenId_",
          "type": "uint256"
        },
        {
          "internalType": "uint256",
          "name": "value_",
          "type": "uint256"
        }
      ],
      "name": "transferFrom",
      "outputs": [],
      "stateMutability": "payable",
      "type": "function"
    },
    {
      "inputs": [],
      "name": "updateVersion",
      "outputs": [],
      "stateMutability": "nonpayable",
      "type": "function"
    },
    {
      "inputs": [
        {
          "internalType": "address",
          "name": "newImplementation",
          "type": "address"
        }
      ],
      "name": "upgradeTo",
      "outputs": [],
      "stateMutability": "nonpayable",
      "type": "function"
    },
    {
      "inputs": [
        {
          "internalType": "address",
          "name": "newImplementation",
          "type": "address"
        },
        {
          "internalType": "bytes",
          "name": "data",
          "type": "bytes"
        }
      ],
      "name": "upgradeToAndCall",
      "outputs": [],
      "stateMutability": "payable",
      "type": "function"
    },
    {
      "inputs": [],
      "name": "valueDecimals",
      "outputs": [
        {
          "internalType": "uint8",
          "name": "",
          "type": "uint8"
        }
      ],
      "stateMutability": "view",
      "type": "function"
    },
    {
      "inputs": [],
      "name": "version",
      "outputs": [
        {
          "internalType": "uint256",
          "name": "",
          "type": "uint256"
        }
      ],
      "stateMutability": "view",
      "type": "function"
    },
    {
      "inputs": [
        {
          "internalType": "bytes32",
          "name": "",
          "type": "bytes32"
        }
      ],
      "name": "workScopes",
      "outputs": [
        {
          "internalType": "string",
          "name": "",
          "type": "string"
        }
      ],
      "stateMutability": "view",
      "type": "function"
    }
  ],
  "bytecode": "0x60a0604052306080523480156200001557600080fd5b506200002062000026565b620000e8565b600054610100900460ff1615620000935760405162461bcd60e51b815260206004820152602760248201527f496e697469616c697a61626c653a20636f6e747261637420697320696e697469604482015266616c697a696e6760c81b606482015260840160405180910390fd5b60005460ff9081161015620000e6576000805460ff191660ff9081179091556040519081527f7f26b83ff96e1f2b6a682f133852f6798a09c465da95921460cefb38474024989060200160405180910390a15b565b6080516155bc620001206000396000818161101f015281816110a40152818161128c01528181611311015261149b01526155bc6000f3fe6080604052600436106103545760003560e01c80636352211e116101bb578063a3f4df7e116100f7578063e8a3d48511610095578063ef6f66d71161006f578063ef6f66d714610a31578063f0f11e0514610a51578063f72c0d8b14610a71578063f76f8d7814610aa557600080fd5b8063e8a3d485146109be578063e985e9c5146109d3578063ed08fa8014610a1c57600080fd5b8063c87b56dd116100d1578063c87b56dd14610917578063d52fd09514610937578063d547741f14610957578063e345e0bc1461097757600080fd5b8063a3f4df7e146108a1578063b510391f146108d7578063b88d4fde146108f757600080fd5b806391d1485411610164578063997edc611161013e578063997edc611461082c5780639cc7f7081461084c578063a217fddf1461086c578063a22cb4651461088157600080fd5b806391d148541461079857806395d89b41146107df578063993bef8d1461080c57600080fd5b80638129fc1c116101955780638129fc1c146107505780638cb0a511146107655780638f88b7671461077857600080fd5b80636352211e146106e357806370a082311461070357806372927aa31461072357600080fd5b80632f2ff15d1161029557806342966c68116102335780634f6ccce71161020d5780634f6ccce7146106665780634f8a0f831461068657806352d1902d146106b457806354fd4d50146106c957600080fd5b806342966c681461061e57806348c02dc11461063e5780634f1ef2861461065357600080fd5b806336568abe1161026f57806336568abe146105a55780633659cfe6146105c55780633e7e8669146105e557806342842e0e146105fe57600080fd5b80632f2ff15d146105525780632f745c5914610572578063310ed7f01461059257600080fd5b80630f485c021161030257806323b872dd116102dc57806323b872dd146104ba578063248a9ca3146104da578063263f3e7e1461050b5780632e0f26251461052b57600080fd5b80630f485c021461047257806318160ddd146104855780631e6ad4b81461049a57600080fd5b8063081812fc11610333578063081812fc146103f8578063095ea7b31461043057806309c3dd871461045257600080fd5b8062cd01101461035957806301ffc9a71461038c57806306fdde03146103bc575b600080fd5b34801561036557600080fd5b50610379610374366004614717565b610ad5565b6040519081526020015b60405180910390f35b34801561039857600080fd5b506103ac6103a736600461474f565b610b0a565b6040519015158152602001610383565b3480156103c857600080fd5b5060408051808201909152600a8152694879706572636572747360b01b60208201525b60405161038391906147bc565b34801561040457600080fd5b506104186104133660046147cf565b610b15565b6040516001600160a01b039091168152602001610383565b34801561043c57600080fd5b5061045061044b3660046147fd565b610b3c565b005b34801561045e57600080fd5b506103eb61046d3660046147cf565b610c56565b610379610480366004614829565b610ced565b34801561049157600080fd5b50609954610379565b3480156104a657600080fd5b506103796104b536600461490e565b610d3a565b3480156104c657600080fd5b506104506104d5366004614957565b610da3565b3480156104e657600080fd5b506103796104f53660046147cf565b6000908152610102602052604090206001015490565b34801561051757600080fd5b506103796105263660046147cf565b610e1c565b34801561053757600080fd5b50610540600081565b60405160ff9091168152602001610383565b34801561055e57600080fd5b5061045061056d366004614987565b610ea5565b34801561057e57600080fd5b5061037961058d3660046147fd565b610ecb565b6104506105a03660046149b7565b610f73565b3480156105b157600080fd5b506104506105c0366004614987565b610f89565b3480156105d157600080fd5b506104506105e03660046149e3565b611015565b3480156105f157600080fd5b506101015460ff16610540565b34801561060a57600080fd5b50610450610619366004614957565b611190565b34801561062a57600080fd5b506104506106393660046147cf565b6111ab565b34801561064a57600080fd5b50610450611220565b610450610661366004614a20565b611282565b34801561067257600080fd5b506103796106813660046147cf565b6113ea565b34801561069257600080fd5b506103796106a13660046147cf565b6000908152610100602052604090205490565b3480156106c057600080fd5b5061037961148e565b3480156106d557600080fd5b506101985461ffff16610379565b3480156106ef57600080fd5b506104186106fe3660046147cf565b611553565b34801561070f57600080fd5b5061037961071e3660046149e3565b6115b8565b34801561072f57600080fd5b5061074361073e3660046147cf565b611652565b6040516103839190614b44565b34801561075c57600080fd5b50610450611953565b610450610773366004614829565b611b09565b34801561078457600080fd5b506103eb6107933660046147cf565b611c0f565b3480156107a457600080fd5b506103ac6107b3366004614987565b6000918252610102602090815260408084206001600160a01b0393909316845291905290205460ff1690565b3480156107eb57600080fd5b506040805180820190915260048152631210d49560e21b60208201526103eb565b34801561081857600080fd5b506103796108273660046147cf565b611caa565b34801561083857600080fd5b5061037961084736600461490e565b611cbf565b34801561085857600080fd5b506103796108673660046147cf565b611d1b565b34801561087857600080fd5b50610379600081565b34801561088d57600080fd5b5061045061089c366004614c44565b611db8565b3480156108ad57600080fd5b506103eb6040518060400160405280600a8152602001694879706572636572747360b01b81525081565b3480156108e357600080fd5b506104506108f2366004614a20565b611dc3565b34801561090357600080fd5b50610450610912366004614c77565b611ffe565b34801561092357600080fd5b506103eb6109323660046147cf565b612077565b34801561094357600080fd5b506103eb6109523660046147cf565b612149565b34801561096357600080fd5b50610450610972366004614987565b612163565b34801561098357600080fd5b50610379610992366004614987565b600082815260fc602090815260408083206001600160a01b038516845260010190915290205492915050565b3480156109ca57600080fd5b506103eb612189565b3480156109df57600080fd5b506103ac6109ee366004614ce3565b6001600160a01b039182166000908152606a6020908152604080832093909416825291909152205460ff1690565b348015610a2857600080fd5b5060fe54610379565b348015610a3d57600080fd5b506103eb610a4c3660046147cf565b6121fa565b348015610a5d57600080fd5b50610379610a6c36600461490e565b612214565b348015610a7d57600080fd5b506103797f189ab7a9244df0848122154315af71fe140f3db0fe014031783b0946b8c9d2e381565b348015610ab157600080fd5b506103eb604051806040016040528060048152602001631210d49560e21b81525081565b600082815261010060205260408120805483908110610af657610af6614d11565b906000526020600020015490505b92915050565b6000610b0482612270565b6000610b2082612295565b506000908152606960205260409020546001600160a01b031690565b6000610b4782611553565b9050806001600160a01b0316836001600160a01b031603610bb95760405162461bcd60e51b815260206004820152602160248201527f4552433732313a20617070726f76616c20746f2063757272656e74206f776e656044820152603960f91b60648201526084015b60405180910390fd5b336001600160a01b0382161480610bd55750610bd581336109ee565b610c475760405162461bcd60e51b815260206004820152603e60248201527f4552433732313a20617070726f76652063616c6c6572206973206e6f7420746f60448201527f6b656e206f776e6572206e6f7220617070726f76656420666f7220616c6c00006064820152608401610bb0565b610c5183836122f9565b505050565b6060604051602001610cd7907f646174613a6170706c69636174696f6e2f6a736f6e3b7b6e616d653a536c6f7481527f205479706520412c6465736372697074696f6e3a536c6f74205479706520412060208201527f6465736372697074696f6e7d00000000000000000000000000000000000000006040820152604c0190565b6040516020818303038152906040529050919050565b6000610cfa338584612367565b6000610d058561240f565b9050610d25848260fd600089815260200190815260200160002054612425565b610d308582856124e1565b90505b9392505050565b6000610d488261019c61279d565b600081815261019c60205260409020909150610d648382614da7565b507f2efcce702e3d0b95b3deb632da6d41c3d169e0c3effb9066d949f14d6f13224f8183604051610d96929190614e67565b60405180910390a1919050565b610dae335b8261286f565b610e115760405162461bcd60e51b815260206004820152602e60248201527f4552433732313a2063616c6c6572206973206e6f7420746f6b656e206f776e6560448201526d1c881b9bdc88185c1c1c9bdd995960921b6064820152608401610bb0565b610c518383836128ee565b6000818152606760205260408120546001600160a01b0316610e925760405162461bcd60e51b815260206004820152602960248201527f455243333532353a20736c6f7420717565727920666f72206e6f6e657869737460448201526832b73a103a37b5b2b760b91b6064820152608401610bb0565b50600090815260fd602052604090205490565b60008281526101026020526040902060010154610ec181612aad565b610c518383612ab7565b6000610ed6836115b8565b8210610f4a5760405162461bcd60e51b815260206004820152602b60248201527f455243373231456e756d657261626c653a206f776e657220696e646578206f7560448201527f74206f6620626f756e64730000000000000000000000000000000000000000006064820152608401610bb0565b506001600160a01b03919091166000908152609760209081526040808320938352929052205490565b610f7e338483612367565b610c518383836124e1565b6001600160a01b03811633146110075760405162461bcd60e51b815260206004820152602f60248201527f416363657373436f6e74726f6c3a2063616e206f6e6c792072656e6f756e636560448201527f20726f6c657320666f722073656c6600000000000000000000000000000000006064820152608401610bb0565b6110118282612b5b565b5050565b6001600160a01b037f00000000000000000000000000000000000000000000000000000000000000001630036110a25760405162461bcd60e51b815260206004820152602c60248201527f46756e6374696f6e206d7573742062652063616c6c6564207468726f7567682060448201526b19195b1959d85d1958d85b1b60a21b6064820152608401610bb0565b7f00000000000000000000000000000000000000000000000000000000000000006001600160a01b03166110fd7f360894a13ba1a3210667c828492db98dca3e2076cc3735a920a3ca505d382bbc546001600160a01b031690565b6001600160a01b0316146111685760405162461bcd60e51b815260206004820152602c60248201527f46756e6374696f6e206d7573742062652063616c6c6564207468726f7567682060448201526b6163746976652070726f787960a01b6064820152608401610bb0565b61117181612be0565b6040805160008082526020820190925261118d91839190612c0a565b50565b610c5183838360405180602001604052806000815250611ffe565b6111b433610da8565b6112175760405162461bcd60e51b815260206004820152602e60248201527f4552433732313a2063616c6c6572206973206e6f7420746f6b656e206f776e6560448201526d1c881b9bdc88185c1c1c9bdd995960921b6064820152608401610bb0565b61118d81612daa565b7f189ab7a9244df0848122154315af71fe140f3db0fe014031783b0946b8c9d2e361124a81612aad565b61019880546001919060009061126590849061ffff16614e96565b92506101000a81548161ffff021916908361ffff16021790555050565b6001600160a01b037f000000000000000000000000000000000000000000000000000000000000000016300361130f5760405162461bcd60e51b815260206004820152602c60248201527f46756e6374696f6e206d7573742062652063616c6c6564207468726f7567682060448201526b19195b1959d85d1958d85b1b60a21b6064820152608401610bb0565b7f00000000000000000000000000000000000000000000000000000000000000006001600160a01b031661136a7f360894a13ba1a3210667c828492db98dca3e2076cc3735a920a3ca505d382bbc546001600160a01b031690565b6001600160a01b0316146113d55760405162461bcd60e51b815260206004820152602c60248201527f46756e6374696f6e206d7573742062652063616c6c6564207468726f7567682060448201526b6163746976652070726f787960a01b6064820152608401610bb0565b6113de82612be0565b61101182826001612c0a565b60006113f560995490565b82106114695760405162461bcd60e51b815260206004820152602c60248201527f455243373231456e756d657261626c653a20676c6f62616c20696e646578206f60448201527f7574206f6620626f756e647300000000000000000000000000000000000000006064820152608401610bb0565b6099828154811061147c5761147c614d11565b90600052602060002001549050919050565b6000306001600160a01b037f0000000000000000000000000000000000000000000000000000000000000000161461152e5760405162461bcd60e51b815260206004820152603860248201527f555550535570677261646561626c653a206d757374206e6f742062652063616c60448201527f6c6564207468726f7567682064656c656761746563616c6c00000000000000006064820152608401610bb0565b507f360894a13ba1a3210667c828492db98dca3e2076cc3735a920a3ca505d382bbc90565b6000818152606760205260408120546001600160a01b031680610b045760405162461bcd60e51b815260206004820152601860248201527f4552433732313a20696e76616c696420746f6b656e20494400000000000000006044820152606401610bb0565b60006001600160a01b0382166116365760405162461bcd60e51b815260206004820152602960248201527f4552433732313a2061646472657373207a65726f206973206e6f74206120766160448201527f6c6964206f776e657200000000000000000000000000000000000000000000006064820152608401610bb0565b506001600160a01b031660009081526068602052604090205490565b61165a614494565b600082815261019f602090815260408083208151610140810183528154815282518084019384905290949193850192909160018501916002918390855b82829054906101000a900467ffffffffffffffff1667ffffffffffffffff168152602001906008019060208260070104928301926001038202915080841161169757505050928452505060408051808201918290526020909301929150600284810191826000855b82829054906101000a900467ffffffffffffffff1667ffffffffffffffff16815260200190600801906020826007010492830192600103820291508084116116ff579050505050505081526020016003820180548060200260200160405190810160405280929190818152602001828054801561179b57602002820191906000526020600020905b815481526020019060010190808311611787575b50505050508152602001600482018054806020026020016040519081016040528092919081815260200182805480156117f357602002820191906000526020600020905b8154815260200190600101908083116117df575b505050505081526020016005820180548060200260200160405190810160405280929190818152602001828054801561184b57602002820191906000526020600020905b815481526020019060010190808311611837575b50505050508152602001600682018054806020026020016040519081016040528092919081815260200182805480156118ad57602002820191906000526020600020905b81546001600160a01b0316815260019091019060200180831161188f575b505050505081526020016007820180548060200260200160405190810160405280929190818152602001828054801561192357602002820191906000526020600020906000905b825461010083900a900460ff168152602060019283018181049485019490930390920291018084116118f45790505b50505091835250506008919091015461ffff8116602083015262010000900460ff16151560409091015292915050565b600054610100900460ff16158080156119735750600054600160ff909116105b8061198d5750303b15801561198d575060005460ff166001145b6119ff5760405162461bcd60e51b815260206004820152602e60248201527f496e697469616c697a61626c653a20636f6e747261637420697320616c72656160448201527f647920696e697469616c697a65640000000000000000000000000000000000006064820152608401610bb0565b6000805460ff191660011790558015611a22576000805461ff0019166101001790555b611a2c6000612e62565b611a746040518060400160405280600a8152602001694879706572636572747360b01b815250604051806040016040528060048152602001631210d49560e21b815250612ee4565b611a7c612f59565b611a84612f59565b611a8c612f59565b611a97600033612ab7565b611ac17f189ab7a9244df0848122154315af71fe140f3db0fe014031783b0946b8c9d2e333612ab7565b801561118d576000805461ff0019169055604051600181527f7f26b83ff96e1f2b6a682f133852f6798a09c465da95921460cefb38474024989060200160405180910390a150565b6000611b1484611553565b9050806001600160a01b0316836001600160a01b031603611b825760405162461bcd60e51b815260206004820152602260248201527f455243333532353a20617070726f76616c20746f2063757272656e74206f776e60448201526132b960f11b6064820152608401610bb0565b611b8c338561286f565b611bfe5760405162461bcd60e51b815260206004820152603960248201527f455243333532353a20617070726f76652063616c6c6572206973206e6f74206f60448201527f776e6572206e6f7220617070726f76656420666f7220616c6c000000000000006064820152608401610bb0565b611c09848484612fc6565b50505050565b61019b6020526000908152604090208054611c2990614d27565b80601f0160208091040260200160405190810160405280929190818152602001828054611c5590614d27565b8015611ca25780601f10611c7757610100808354040283529160200191611ca2565b820191906000526020600020905b815481529060010190602001808311611c8557829003601f168201915b505050505081565b600060fe828154811061147c5761147c614d11565b6000611ccd8261019b61279d565b600081815261019b60205260409020909150611ce98382614da7565b507f8b841033bc947e807d9766c542105a3dbb0bae62591be7b5c8cd4f37f698bf738183604051610d96929190614e67565b6000818152606760205260408120546001600160a01b0316611da55760405162461bcd60e51b815260206004820152602c60248201527f455243333532353a2062616c616e636520717565727920666f72206e6f6e657860448201527f697374656e7420746f6b656e00000000000000000000000000000000000000006064820152608401610bb0565b50600090815260fb602052604090205490565b611011338383613050565b600080611dcf8361311e565b91509150611ddd8483613227565b611def82600001518360c00151613506565b61019a8054906000611e0083614eb8565b909155505061019a54600090815261019f602090815260409091208351815590830151839190611e3690600183019060026144fa565b506040820151611e4c90600280840191906144fa565b5060608201518051611e689160038401916020909101906145a2565b5060808201518051611e849160048401916020909101906145a2565b5060a08201518051611ea09160058401916020909101906145a2565b5060c08201518051611ebc9160068401916020909101906145dd565b5060e08201518051611ed8916007840191602090910190614632565b5061010082015160089091018054610120909301511515620100000262ffffff1990931661ffff9092169190911791909117905561019a54611f1a908261363a565b60e08201515160005b81811015611f8157611f6f8661019960008154611f3f90614eb8565b91905081905561019a548760e001518581518110611f5f57611f5f614d11565b602002602001015160ff16613652565b80611f7981614eb8565b915050611f23565b507f922e1bd87da08f7dd5fdfe752f7d1c515adf744b40cb02d1344f8fe79e6cbe5661019a548685600001518660c001518760200151886040015189606001518a608001518b60a001518c60e001518d61010001518d604051611fef9c9b9a99989796959493929190614ed1565b60405180910390a15050505050565b612008338361286f565b61206b5760405162461bcd60e51b815260206004820152602e60248201527f4552433732313a2063616c6c6572206973206e6f7420746f6b656e206f776e6560448201526d1c881b9bdc88185c1c1c9bdd995960921b6064820152608401610bb0565b611c09848484846137c1565b606061208282611d1b565b61208b83610e1c565b604051602001610cd79291907f646174613a6170706c69636174696f6e2f6a736f6e3b7b6e616d653a4173736581527f74205479706520412c6465736372697074696f6e3a417373657420547970652060208201527f41206465736372697074696f6e2c62616c616e63650000000000000000000000604082015260558101929092527f2c736c6f743a00000000000000000000000000000000000000000000000000006075830152607b820152607d60f81b609b820152609c0190565b61019d6020526000908152604090208054611c2990614d27565b6000828152610102602052604090206001015461217f81612aad565b610c518383612b5b565b60606121b260408051808201909152600a8152694879706572636572747360b01b602082015290565b6040805180820190915260048152631210d49560e21b60208201526101015460ff166040516020016121e693929190614fa1565b604051602081830303815290604052905090565b61019c6020526000908152604090208054611c2990614d27565b60006122228261019d61279d565b600081815261019d6020526040902090915061223e8382614da7565b507f4527d373276b1ece0c8dd18e140572f93feffd35a0993d9e4de70623b1ac93ce8183604051610d96929190614e67565b60006001600160e01b03198216637965db0b60e01b1480610b045750610b048261384a565b6000818152606760205260409020546001600160a01b031661118d5760405162461bcd60e51b815260206004820152601860248201527f4552433732313a20696e76616c696420746f6b656e20494400000000000000006044820152606401610bb0565b600081815260696020526040902080546001600160a01b0319166001600160a01b038416908117909155819061232e82611553565b6001600160a01b03167f8c5be1e5ebec7d5bd14f71427d1e84f3dd0314c0f7b2291e5b200ac8c7c3b92560405160405180910390a45050565b600082815260fc602090815260408083206001600160a01b0387168452600101909152902054612397848461286f565b1580156123a657506000198114155b15611c0957818110156123fb5760405162461bcd60e51b815260206004820152601f60248201527f455243333532353a20696e73756666696369656e7420616c6c6f77616e6365006044820152606401610bb0565b611c09838561240a8585615083565b612fc6565b600061241a60995490565b610b04906001615096565b61242f83836138a5565b600082815260fd60209081526040808320849055838352610100909152812054900361248b5760fe80546001810182556000919091527f54075df80ec1ae6ac9100e1fd0ebf3246c17f5c933137af392011f4c5f61513a018190555b60008181526101006020908152604080832080546001810182559084529183209091018490555182919084907fe4f48c240d3b994948aa54f3e2f5fca59263dfe1d52b6e4cf39a5d249b5ccb65908390a4505050565b6000838152606760205260409020546001600160a01b03166125575760405162461bcd60e51b815260206004820152602960248201527f45524333353235353a207472616e736665722066726f6d206e6f6e657869737460448201526832b73a103a37b5b2b760b91b6064820152608401610bb0565b6000828152606760205260409020546001600160a01b03166125e15760405162461bcd60e51b815260206004820152602760248201527f45524333353235353a207472616e7366657220746f206e6f6e6578697374656e60448201527f7420746f6b656e000000000000000000000000000000000000000000000000006064820152608401610bb0565b600083815260fb60205260409020548111156126655760405162461bcd60e51b815260206004820152602860248201527f455243333532353a207472616e7366657220616d6f756e74206578636565647360448201527f2062616c616e63650000000000000000000000000000000000000000000000006064820152608401610bb0565b600082815260fd602052604080822054858352912054146126ee5760405162461bcd60e51b815260206004820152602e60248201527f455243333533353a207472616e7366657220746f20746f6b656e20776974682060448201527f646966666572656e7420736c6f740000000000000000000000000000000000006064820152608401610bb0565b60006126f984611553565b9050600061270684611553565b600086815260fb6020526040812080549293508592909190612729908490615083565b9091555050600084815260fb60205260408120805485929061274c908490615096565b9091555050600085905260fd60205283857f0b2aac84f3ec956911fd78eae5311062972ff949f38412e8da39069d9f068cc68560405161278e91815260200190565b60405180910390a35050505050565b6000808351116127ef5760405162461bcd60e51b815260206004820152600a60248201527f656d7074792074657874000000000000000000000000000000000000000000006044820152606401610bb0565b8260405160200161280091906147bc565b60405160208183030381529060405280519060200120905061282282826139fb565b15610b045760405162461bcd60e51b815260206004820152600e60248201527f616c7265616479206578697374730000000000000000000000000000000000006044820152606401610bb0565b60008061287b83611553565b9050806001600160a01b0316846001600160a01b031614806128c257506001600160a01b038082166000908152606a602090815260408083209388168352929052205460ff165b806128e65750836001600160a01b03166128db84610b15565b6001600160a01b0316145b949350505050565b826001600160a01b031661290182611553565b6001600160a01b03161461297d5760405162461bcd60e51b815260206004820152602560248201527f4552433732313a207472616e736665722066726f6d20696e636f72726563742060448201527f6f776e65720000000000000000000000000000000000000000000000000000006064820152608401610bb0565b6001600160a01b0382166129df5760405162461bcd60e51b8152602060048201526024808201527f4552433732313a207472616e7366657220746f20746865207a65726f206164646044820152637265737360e01b6064820152608401610bb0565b6129ea838383613a22565b6129f56000826122f9565b6001600160a01b0383166000908152606860205260408120805460019290612a1e908490615083565b90915550506001600160a01b0382166000908152606860205260408120805460019290612a4c908490615096565b909155505060008181526067602052604080822080546001600160a01b0319166001600160a01b0386811691821790925591518493918716917fddf252ad1be2c89b69c2b068fc378daa952ba7f163c4a11628f55a4df523b3ef91a4505050565b61118d8133613ac4565b6000828152610102602090815260408083206001600160a01b038516845290915290205460ff16611011576000828152610102602090815260408083206001600160a01b03851684529091529020805460ff19166001179055612b173390565b6001600160a01b0316816001600160a01b0316837f2f8788117e7eff1d82e926ec794901d17c78024a50270940304540a733656f0d60405160405180910390a45050565b6000828152610102602090815260408083206001600160a01b038516845290915290205460ff1615611011576000828152610102602090815260408083206001600160a01b0385168085529252808320805460ff1916905551339285917ff6391f5c32d9c69d2a47ea670b442974b53935d1edc7fd64eb21e047a839171b9190a45050565b7f189ab7a9244df0848122154315af71fe140f3db0fe014031783b0946b8c9d2e361101181612aad565b7f4910fdfa16fed3260ed0e7147f7cc6da11a60208b5b9406d12a635614ffd91435460ff1615612c3d57610c5183613b45565b826001600160a01b03166352d1902d6040518163ffffffff1660e01b8152600401602060405180830381865afa925050508015612c97575060408051601f3d908101601f19168201909252612c94918101906150a9565b60015b612d095760405162461bcd60e51b815260206004820152602e60248201527f45524331393637557067726164653a206e657720696d706c656d656e7461746960448201527f6f6e206973206e6f7420555550530000000000000000000000000000000000006064820152608401610bb0565b7f360894a13ba1a3210667c828492db98dca3e2076cc3735a920a3ca505d382bbc8114612d9e5760405162461bcd60e51b815260206004820152602960248201527f45524331393637557067726164653a20756e737570706f727465642070726f7860448201527f6961626c655555494400000000000000000000000000000000000000000000006064820152608401610bb0565b50610c51838383613c03565b6000612db582611553565b600083815260fd602090815260408083205460fb9092529091205491925090612ddd84613c28565b600084815260fd6020908152604080832083905560fb82528083208390555183815286917f0b2aac84f3ec956911fd78eae5311062972ff949f38412e8da39069d9f068cc6910160405180910390a3600082857fe4f48c240d3b994948aa54f3e2f5fca59263dfe1d52b6e4cf39a5d249b5ccb6560405160405180910390a450505050565b600054610100900460ff16612ecd5760405162461bcd60e51b815260206004820152602b60248201527f496e697469616c697a61626c653a20636f6e7472616374206973206e6f74206960448201526a6e697469616c697a696e6760a81b6064820152608401610bb0565b610101805460ff191660ff92909216919091179055565b600054610100900460ff16612f4f5760405162461bcd60e51b815260206004820152602b60248201527f496e697469616c697a61626c653a20636f6e7472616374206973206e6f74206960448201526a6e697469616c697a696e6760a81b6064820152608401610bb0565b6110118282613ccf565b600054610100900460ff16612fc45760405162461bcd60e51b815260206004820152602b60248201527f496e697469616c697a61626c653a20636f6e7472616374206973206e6f74206960448201526a6e697469616c697a696e6760a81b6064820152608401610bb0565b565b600083815260fc6020908152604080832080546001808201835582865284862090910180546001600160a01b0319166001600160a01b038916908117909155808652908201845293829020859055905184815290929186917f621b050de0ad08b51d19b48b3e6df75348c4de6bdd93e81b252ca62e28265b1b91015b60405180910390a350505050565b816001600160a01b0316836001600160a01b0316036130b15760405162461bcd60e51b815260206004820152601960248201527f4552433732313a20617070726f766520746f2063616c6c6572000000000000006044820152606401610bb0565b6001600160a01b038381166000818152606a6020908152604080832094871680845294825291829020805460ff191686151590811790915591519182527f17307eab39ab6107e8899845ad3d59bd9653f200f220920489ca2b5937696c31910160405180910390a3505050565b613126614494565b606060008351116131795760405162461bcd60e51b815260206004820152601c60248201527f5f7061727365446174613a20696e707574206461746120656d707479000000006044820152606401610bb0565b6000806000806000806000808a80602001905181019061319991906152e0565b975097509750975097509750975097506000858886896040516020016131c294939291906153fc565b60408051601f1981840301815291815281516020928301208d5260c08d01959095528b019590955291890192909252606088019490945260808701929092525060a085019290925260e084015260006101008401526001610120840152919391925050565b6001600160a01b03821661327d5760405162461bcd60e51b815260206004820152601e60248201527f4d696e743a206d696e7420746f20746865207a65726f206164647265737300006044820152606401610bb0565b60208181015190810151905167ffffffffffffffff918216911611156132e55760405162461bcd60e51b815260206004820152601b60248201527f4d696e743a20696e76616c696420776f726b54696d656672616d6500000000006044820152606401610bb0565b60408101516020810151905167ffffffffffffffff9182169116111561334d5760405162461bcd60e51b815260206004820152601d60248201527f4d696e743a20696e76616c696420696d7061637454696d656672616d650000006044820152606401610bb0565b60408101515160208201515167ffffffffffffffff918216911611156133db5760405162461bcd60e51b815260206004820152602c60248201527f4d696e743a20696d7061637454696d656672616d65207072696f7220746f207760448201527f6f726b54696d656672616d6500000000000000000000000000000000000000006064820152608401610bb0565b60808101515160005b818110156134735761341561019c8460800151838151811061340857613408614d11565b60200260200101516139fb565b6134615760405162461bcd60e51b815260206004820152601a60248201527f4d696e743a20696e76616c696420696d706163742073636f70650000000000006044820152606401610bb0565b8061346b81614eb8565b9150506133e4565b5060608201515160005b818110156134ff576134a161019b8560600151838151811061340857613408614d11565b6134ed5760405162461bcd60e51b815260206004820152601860248201527f4d696e743a20696e76616c696420776f726b2073636f706500000000000000006044820152606401610bb0565b806134f781614eb8565b91505061347d565b5050505050565b60005b8151811015610c515761019e600083838151811061352957613529614d11565b6020908102919091018101516001600160a01b03168252818101929092526040908101600090812086825290925290205460ff16156135d05760405162461bcd60e51b815260206004820152602560248201527f436c61696d3a20636c61696d20666f722063726561746f7273206f7665726c6160448201527f7070696e670000000000000000000000000000000000000000000000000000006064820152608401610bb0565b600161019e60008484815181106135e9576135e9614d11565b6020908102919091018101516001600160a01b0316825281810192909252604090810160009081208782529092529020805460ff19169115159190911790558061363281614eb8565b915050613509565b600082815260ff60205260409020610c518282614da7565b6001600160a01b0384166136b25760405162461bcd60e51b815260206004820152602160248201527f455243333532353a206d696e7420746f20746865207a65726f206164647265736044820152607360f81b6064820152608401610bb0565b8260000361370c5760405162461bcd60e51b815260206004820152602160248201527f455243333532353a2063616e6e6f74206d696e74207a65726f20746f6b656e496044820152601960fa1b6064820152608401610bb0565b6000838152606760205260409020546001600160a01b0316156137715760405162461bcd60e51b815260206004820152601d60248201527f455243333532353a20746f6b656e20616c7265616479206d696e7465640000006044820152606401610bb0565b61377c848484612425565b600083815260fb602052604090208190558260007f0b2aac84f3ec956911fd78eae5311062972ff949f38412e8da39069d9f068cc68360405161304291815260200190565b6137cc8484846128ee565b6137d884848484613d53565b611c095760405162461bcd60e51b815260206004820152603260248201527f4552433732313a207472616e7366657220746f206e6f6e20455243373231526560448201527f63656976657220696d706c656d656e74657200000000000000000000000000006064820152608401610bb0565b60006001600160e01b031982166370b0048160e11b148061387b57506001600160e01b03198216631dba0dcf60e11b145b8061389657506001600160e01b03198216630354d60560e61b145b80610b045750610b0482613eaa565b6001600160a01b0382166138fb5760405162461bcd60e51b815260206004820181905260248201527f4552433732313a206d696e7420746f20746865207a65726f20616464726573736044820152606401610bb0565b6000818152606760205260409020546001600160a01b0316156139605760405162461bcd60e51b815260206004820152601c60248201527f4552433732313a20746f6b656e20616c7265616479206d696e746564000000006044820152606401610bb0565b61396c60008383613a22565b6001600160a01b0382166000908152606860205260408120805460019290613995908490615096565b909155505060008181526067602052604080822080546001600160a01b0319166001600160a01b03861690811790915590518392907fddf252ad1be2c89b69c2b068fc378daa952ba7f163c4a11628f55a4df523b3ef908290a45050565b505050505050565b60008181526020839052604081208054829190613a1790614d27565b905011905092915050565b613a2d838383613ecf565b600081815260fc6020526040812054905b81811015613aac57600083815260fc60205260408120805483908110613a6657613a66614d11565b600091825260208083209091015486835260fc825260408084206001600160a01b0390921684526001919091019091528120555080613aa481614eb8565b915050613a3e565b50600082815260fc60205260408120611c09916146c6565b6000828152610102602090815260408083206001600160a01b038516845290915290205460ff1661101157613b03816001600160a01b03166014613f87565b613b0e836020613f87565b604051602001613b1f929190615446565b60408051601f198184030181529082905262461bcd60e51b8252610bb0916004016147bc565b6001600160a01b0381163b613bc25760405162461bcd60e51b815260206004820152602d60248201527f455243313936373a206e657720696d706c656d656e746174696f6e206973206e60448201527f6f74206120636f6e7472616374000000000000000000000000000000000000006064820152608401610bb0565b7f360894a13ba1a3210667c828492db98dca3e2076cc3735a920a3ca505d382bbc80546001600160a01b0319166001600160a01b0392909216919091179055565b613c0c83614130565b600082511180613c195750805b15610c5157611c098383614170565b6000613c3382611553565b9050613c4181600084613a22565b613c4c6000836122f9565b6001600160a01b0381166000908152606860205260408120805460019290613c75908490615083565b909155505060008281526067602052604080822080546001600160a01b0319169055518391906001600160a01b038416907fddf252ad1be2c89b69c2b068fc378daa952ba7f163c4a11628f55a4df523b3ef908390a45050565b600054610100900460ff16613d3a5760405162461bcd60e51b815260206004820152602b60248201527f496e697469616c697a61626c653a20636f6e7472616374206973206e6f74206960448201526a6e697469616c697a696e6760a81b6064820152608401610bb0565b6065613d468382614da7565b506066610c518282614da7565b60006001600160a01b0384163b15613e9f57604051630a85bd0160e11b81526001600160a01b0385169063150b7a0290613d979033908990889088906004016154c7565b6020604051808303816000875af1925050508015613dd2575060408051601f3d908101601f19168201909252613dcf91810190615503565b60015b613e85573d808015613e00576040519150601f19603f3d011682016040523d82523d6000602084013e613e05565b606091505b508051600003613e7d5760405162461bcd60e51b815260206004820152603260248201527f4552433732313a207472616e7366657220746f206e6f6e20455243373231526560448201527f63656976657220696d706c656d656e74657200000000000000000000000000006064820152608401610bb0565b805181602001fd5b6001600160e01b031916630a85bd0160e11b1490506128e6565b506001949350505050565b60006001600160e01b0319821663780e9d6360e01b1480610b045750610b048261427b565b6001600160a01b038316613f2a57613f2581609980546000838152609a60205260408120829055600182018355919091527f72a152ddfb8e864297c917af52ea6c1c68aead0fee1a62673fcc7e0c94979d000155565b613f4d565b816001600160a01b0316836001600160a01b031614613f4d57613f4d83826142cb565b6001600160a01b038216613f6457610c5181614368565b826001600160a01b0316826001600160a01b031614610c5157610c518282614417565b60606000613f96836002615520565b613fa1906002615096565b67ffffffffffffffff811115613fb957613fb9614861565b6040519080825280601f01601f191660200182016040528015613fe3576020820181803683370190505b509050600360fc1b81600081518110613ffe57613ffe614d11565b60200101906001600160f81b031916908160001a905350600f60fb1b8160018151811061402d5761402d614d11565b60200101906001600160f81b031916908160001a9053506000614051846002615520565b61405c906001615096565b90505b60018111156140e1577f303132333435363738396162636465660000000000000000000000000000000085600f166010811061409d5761409d614d11565b1a60f81b8282815181106140b3576140b3614d11565b60200101906001600160f81b031916908160001a90535060049490941c936140da8161553f565b905061405f565b508315610d335760405162461bcd60e51b815260206004820181905260248201527f537472696e67733a20686578206c656e67746820696e73756666696369656e746044820152606401610bb0565b61413981613b45565b6040516001600160a01b038216907fbc7cd75a20ee27fd9adebab32041f755214dbc6bffa90cc0225b39da2e5c2d3b90600090a250565b60606001600160a01b0383163b6141ef5760405162461bcd60e51b815260206004820152602660248201527f416464726573733a2064656c65676174652063616c6c20746f206e6f6e2d636f60448201527f6e747261637400000000000000000000000000000000000000000000000000006064820152608401610bb0565b600080846001600160a01b03168460405161420a9190615556565b600060405180830381855af49150503d8060008114614245576040519150601f19603f3d011682016040523d82523d6000602084013e61424a565b606091505b509150915061427282826040518060600160405280602781526020016155896027913961445b565b95945050505050565b60006001600160e01b031982166380ac58cd60e01b14806142ac57506001600160e01b03198216635b5e139f60e01b145b80610b0457506301ffc9a760e01b6001600160e01b0319831614610b04565b600060016142d8846115b8565b6142e29190615083565b600083815260986020526040902054909150808214614335576001600160a01b03841660009081526097602090815260408083208584528252808320548484528184208190558352609890915290208190555b5060009182526098602090815260408084208490556001600160a01b039094168352609781528383209183525290812055565b60995460009061437a90600190615083565b6000838152609a6020526040812054609980549394509092849081106143a2576143a2614d11565b9060005260206000200154905080609983815481106143c3576143c3614d11565b6000918252602080832090910192909255828152609a909152604080822084905585825281205560998054806143fb576143fb615572565b6001900381819060005260206000200160009055905550505050565b6000614422836115b8565b6001600160a01b039093166000908152609760209081526040808320868452825280832085905593825260989052919091209190915550565b6060831561446a575081610d33565b82511561447a5782518084602001fd5b8160405162461bcd60e51b8152600401610bb091906147bc565b60408051610140810190915260008152602081016144b06146e4565b81526020016144bd6146e4565b81526020016060815260200160608152602001606081526020016060815260200160608152602001600061ffff1681526020016000151581525090565b6001830191839082156145925791602002820160005b8382111561455c57835183826101000a81548167ffffffffffffffff021916908367ffffffffffffffff1602179055509260200192600801602081600701049283019260010302614510565b80156145905782816101000a81549067ffffffffffffffff021916905560080160208160070104928301926001030261455c565b505b5061459e929150614702565b5090565b828054828255906000526020600020908101928215614592579160200282015b828111156145925782518255916020019190600101906145c2565b828054828255906000526020600020908101928215614592579160200282015b8281111561459257825182546001600160a01b0319166001600160a01b039091161782556020909201916001909101906145fd565b82805482825590600052602060002090601f016020900481019282156145925791602002820160005b8382111561469957835183826101000a81548160ff021916908360ff160217905550926020019260010160208160000104928301926001030261465b565b80156145905782816101000a81549060ff0219169055600101602081600001049283019260010302614699565b508054600082559060005260206000209081019061118d9190614702565b60405180604001604052806002906020820280368337509192915050565b5b8082111561459e5760008155600101614703565b6000806040838503121561472a57600080fd5b50508035926020909101359150565b6001600160e01b03198116811461118d57600080fd5b60006020828403121561476157600080fd5b8135610d3381614739565b60005b8381101561478757818101518382015260200161476f565b50506000910152565b600081518084526147a881602086016020860161476c565b601f01601f19169290920160200192915050565b602081526000610d336020830184614790565b6000602082840312156147e157600080fd5b5035919050565b6001600160a01b038116811461118d57600080fd5b6000806040838503121561481057600080fd5b823561481b816147e8565b946020939093013593505050565b60008060006060848603121561483e57600080fd5b833592506020840135614850816147e8565b929592945050506040919091013590565b634e487b7160e01b600052604160045260246000fd5b604051601f8201601f1916810167ffffffffffffffff811182821017156148a0576148a0614861565b604052919050565b600067ffffffffffffffff8211156148c2576148c2614861565b50601f01601f191660200190565b60006148e36148de846148a8565b614877565b90508281528383830111156148f757600080fd5b828260208301376000602084830101529392505050565b60006020828403121561492057600080fd5b813567ffffffffffffffff81111561493757600080fd5b8201601f8101841361494857600080fd5b6128e6848235602084016148d0565b60008060006060848603121561496c57600080fd5b8335614977816147e8565b92506020840135614850816147e8565b6000806040838503121561499a57600080fd5b8235915060208301356149ac816147e8565b809150509250929050565b6000806000606084860312156149cc57600080fd5b505081359360208301359350604090920135919050565b6000602082840312156149f557600080fd5b8135610d33816147e8565b600082601f830112614a1157600080fd5b610d33838335602085016148d0565b60008060408385031215614a3357600080fd5b8235614a3e816147e8565b9150602083013567ffffffffffffffff811115614a5a57600080fd5b614a6685828601614a00565b9150509250929050565b8060005b6002811015611c0957815167ffffffffffffffff16845260209384019390910190600101614a74565b600081518084526020808501945080840160005b83811015614acd57815187529582019590820190600101614ab1565b509495945050505050565b600081518084526020808501945080840160005b83811015614acd5781516001600160a01b031687529582019590820190600101614aec565b600081518084526020808501945080840160005b83811015614acd57815160ff1687529582019590820190600101614b25565b602081528151602082015260006020830151614b636040840182614a70565b506040830151614b766080840182614a70565b5060608301516101808060c0850152614b936101a0850183614a9d565b91506080850151601f19808685030160e0870152614bb18483614a9d565b935060a08701519150610100818786030181880152614bd08584614a9d565b945060c08801519250610120828887030181890152614bef8685614ad8565b955060e089015193508288870301610140890152614c0d8685614b11565b9550818901519350614c2661016089018561ffff169052565b880151801515858901529250614c3a915050565b5090949350505050565b60008060408385031215614c5757600080fd5b8235614c62816147e8565b9150602083013580151581146149ac57600080fd5b60008060008060808587031215614c8d57600080fd5b8435614c98816147e8565b93506020850135614ca8816147e8565b925060408501359150606085013567ffffffffffffffff811115614ccb57600080fd5b614cd787828801614a00565b91505092959194509250565b60008060408385031215614cf657600080fd5b8235614d01816147e8565b915060208301356149ac816147e8565b634e487b7160e01b600052603260045260246000fd5b600181811c90821680614d3b57607f821691505b602082108103614d5b57634e487b7160e01b600052602260045260246000fd5b50919050565b601f821115610c5157600081815260208120601f850160051c81016020861015614d885750805b601f850160051c820191505b818110156139f357828155600101614d94565b815167ffffffffffffffff811115614dc157614dc1614861565b614dd581614dcf8454614d27565b84614d61565b602080601f831160018114614e0a5760008415614df25750858301515b600019600386901b1c1916600185901b1785556139f3565b600085815260208120601f198616915b82811015614e3957888601518255948401946001909101908401614e1a565b5085821015614e575787850151600019600388901b60f8161c191681555b5050505050600190811b01905550565b8281526040602082015260006128e66040830184614790565b634e487b7160e01b600052601160045260246000fd5b61ffff818116838216019080821115614eb157614eb1614e80565b5092915050565b600060018201614eca57614eca614e80565b5060010190565b8c81526001600160a01b038c16602082015260006101c08c6040840152806060840152614f008184018d614ad8565b9050614f0f608084018c614a70565b614f1c60c084018b614a70565b828103610100840152614f2f818a614a9d565b9050828103610120840152614f448189614a9d565b9050828103610140840152614f598188614a9d565b9050828103610160840152614f6e8187614b11565b61ffff861661018085015290508281036101a0840152614f8e8185614790565b9f9e505050505050505050505050505050565b7f646174613a6170706c69636174696f6e2f6a736f6e3b7b6e616d653a00000000815260008451614fd981601c85016020890161476c565b7f2c6465736372697074696f6e3a00000000000000000000000000000000000000601c91840191820152845161501681602984016020890161476c565b7f2c76616c7565446563696d616c733a00000000000000000000000000000000006029929091019182015260f89390931b7fff000000000000000000000000000000000000000000000000000000000000001660388401525050607d60f81b6039820152603a0192915050565b81810381811115610b0457610b04614e80565b80820180821115610b0457610b04614e80565b6000602082840312156150bb57600080fd5b5051919050565b600067ffffffffffffffff8211156150dc576150dc614861565b5060051b60200190565b600082601f8301126150f757600080fd5b815160206151076148de836150c2565b82815260059290921b8401810191818101908684111561512657600080fd5b8286015b84811015615141578051835291830191830161512a565b509695505050505050565b600082601f83011261515d57600080fd5b6040516040810167ffffffffffffffff828210818311171561518157615181614861565b6040918252829185018681111561519757600080fd5b855b818110156151c057805183811681146151b25760008081fd5b845260209384019301615199565b50929695505050505050565b600082601f8301126151dd57600080fd5b815160206151ed6148de836150c2565b82815260059290921b8401810191818101908684111561520c57600080fd5b8286015b84811015615141578051615223816147e8565b8352918301918301615210565b600082601f83011261524157600080fd5b815161524f6148de826148a8565b81815284602083860101111561526457600080fd5b6128e682602083016020870161476c565b600082601f83011261528657600080fd5b815160206152966148de836150c2565b82815260059290921b840181019181810190868411156152b557600080fd5b8286015b8481101561514157805160ff811681146152d35760008081fd5b83529183019183016152b9565b600080600080600080600080610140898b0312156152fd57600080fd5b885167ffffffffffffffff8082111561531557600080fd5b6153218c838d016150e6565b995060208b015191508082111561533757600080fd5b6153438c838d016150e6565b985060408b015191508082111561535957600080fd5b6153658c838d016150e6565b97506153748c60608d0161514c565b96506153838c60a08d0161514c565b955060e08b015191508082111561539957600080fd5b6153a58c838d016151cc565b94506101008b01519150808211156153bc57600080fd5b6153c88c838d01615230565b93506101208b01519150808211156153df57600080fd5b506153ec8b828c01615275565b9150509295985092959890939650565b6154068186614a70565b60c06040820152600061541c60c0830186614a9d565b6154296060840186614a70565b82810360a084015261543b8185614a9d565b979650505050505050565b7f416363657373436f6e74726f6c3a206163636f756e742000000000000000000081526000835161547e81601785016020880161476c565b7f206973206d697373696e6720726f6c652000000000000000000000000000000060179184019182015283516154bb81602884016020880161476c565b01602801949350505050565b60006001600160a01b038087168352808616602084015250836040830152608060608301526154f96080830184614790565b9695505050505050565b60006020828403121561551557600080fd5b8151610d3381614739565b600081600019048311821515161561553a5761553a614e80565b500290565b60008161554e5761554e614e80565b506000190190565b6000825161556881846020870161476c565b9190910192915050565b634e487b7160e01b600052603160045260246000fdfe416464726573733a206c6f772d6c6576656c2064656c65676174652063616c6c206661696c6564a164736f6c6343000810000a",
  "linkReferences": {},
  "deployedLinkReferences": {}
}