{
  "_format": "hh-sol-artifact-1",
  "contractName": "HypercertMinterV0",
  "sourceName": "contracts/HypercertMinterV0.sol",
  "abi": [
    {
      "inputs": [],
      "stateMutability": "nonpayable",
      "type": "constructor"
    },
    {
      "anonymous": false,
      "inputs": [
        {
          "indexed": false,
          "internalType": "address",
          "name": "previousAdmin",
          "type": "address"
        },
        {
          "indexed": false,
          "internalType": "address",
          "name": "newAdmin",
          "type": "address"
        }
      ],
      "name": "AdminChanged",
      "type": "event"
    },
    {
      "anonymous": false,
      "inputs": [
        {
          "indexed": true,
          "internalType": "address",
          "name": "account",
          "type": "address"
        },
        {
          "indexed": true,
          "internalType": "address",
          "name": "operator",
          "type": "address"
        },
        {
          "indexed": false,
          "internalType": "bool",
          "name": "approved",
          "type": "bool"
        }
      ],
      "name": "ApprovalForAll",
      "type": "event"
    },
    {
      "anonymous": false,
      "inputs": [
        {
          "indexed": true,
          "internalType": "address",
          "name": "beacon",
          "type": "address"
        }
      ],
      "name": "BeaconUpgraded",
      "type": "event"
    },
    {
      "anonymous": false,
      "inputs": [
        {
          "indexed": false,
          "internalType": "uint256",
          "name": "id",
          "type": "uint256"
        },
        {
          "indexed": false,
          "internalType": "address",
          "name": "minter",
          "type": "address"
        },
        {
          "indexed": false,
          "internalType": "bytes32",
          "name": "claimHash",
          "type": "bytes32"
        },
        {
          "indexed": false,
          "internalType": "address[]",
          "name": "contributors",
          "type": "address[]"
        },
        {
          "indexed": false,
          "internalType": "uint64[2]",
          "name": "workTimeframe",
          "type": "uint64[2]"
        },
        {
          "indexed": false,
          "internalType": "uint64[2]",
          "name": "impactTimeframe",
          "type": "uint64[2]"
        },
        {
          "indexed": false,
          "internalType": "bytes32[]",
          "name": "workScopes",
          "type": "bytes32[]"
        },
        {
          "indexed": false,
          "internalType": "bytes32[]",
          "name": "impactScopes",
          "type": "bytes32[]"
        },
        {
          "indexed": false,
          "internalType": "bytes32[]",
          "name": "rights",
          "type": "bytes32[]"
        },
        {
          "indexed": false,
          "internalType": "uint64",
          "name": "version",
          "type": "uint64"
        },
        {
          "indexed": false,
          "internalType": "string",
          "name": "uri",
          "type": "string"
        }
      ],
      "name": "ImpactClaimed",
      "type": "event"
    },
    {
      "anonymous": false,
      "inputs": [
        {
          "indexed": false,
          "internalType": "bytes32",
          "name": "id",
          "type": "bytes32"
        },
        {
          "indexed": false,
          "internalType": "string",
          "name": "text",
          "type": "string"
        }
      ],
      "name": "ImpactScopeAdded",
      "type": "event"
    },
    {
      "anonymous": false,
      "inputs": [
        {
          "indexed": false,
          "internalType": "uint8",
          "name": "version",
          "type": "uint8"
        }
      ],
      "name": "Initialized",
      "type": "event"
    },
    {
      "anonymous": false,
      "inputs": [
        {
          "indexed": false,
          "internalType": "bytes32",
          "name": "id",
          "type": "bytes32"
        },
        {
          "indexed": false,
          "internalType": "string",
          "name": "text",
          "type": "string"
        }
      ],
      "name": "RightAdded",
      "type": "event"
    },
    {
      "anonymous": false,
      "inputs": [
        {
          "indexed": true,
          "internalType": "bytes32",
          "name": "role",
          "type": "bytes32"
        },
        {
          "indexed": true,
          "internalType": "bytes32",
          "name": "previousAdminRole",
          "type": "bytes32"
        },
        {
          "indexed": true,
          "internalType": "bytes32",
          "name": "newAdminRole",
          "type": "bytes32"
        }
      ],
      "name": "RoleAdminChanged",
      "type": "event"
    },
    {
      "anonymous": false,
      "inputs": [
        {
          "indexed": true,
          "internalType": "bytes32",
          "name": "role",
          "type": "bytes32"
        },
        {
          "indexed": true,
          "internalType": "address",
          "name": "account",
          "type": "address"
        },
        {
          "indexed": true,
          "internalType": "address",
          "name": "sender",
          "type": "address"
        }
      ],
      "name": "RoleGranted",
      "type": "event"
    },
    {
      "anonymous": false,
      "inputs": [
        {
          "indexed": true,
          "internalType": "bytes32",
          "name": "role",
          "type": "bytes32"
        },
        {
          "indexed": true,
          "internalType": "address",
          "name": "account",
          "type": "address"
        },
        {
          "indexed": true,
          "internalType": "address",
          "name": "sender",
          "type": "address"
        }
      ],
      "name": "RoleRevoked",
      "type": "event"
    },
    {
      "anonymous": false,
      "inputs": [
        {
          "indexed": true,
          "internalType": "address",
          "name": "operator",
          "type": "address"
        },
        {
          "indexed": true,
          "internalType": "address",
          "name": "from",
          "type": "address"
        },
        {
          "indexed": true,
          "internalType": "address",
          "name": "to",
          "type": "address"
        },
        {
          "indexed": false,
          "internalType": "uint256[]",
          "name": "ids",
          "type": "uint256[]"
        },
        {
          "indexed": false,
          "internalType": "uint256[]",
          "name": "values",
          "type": "uint256[]"
        }
      ],
      "name": "TransferBatch",
      "type": "event"
    },
    {
      "anonymous": false,
      "inputs": [
        {
          "indexed": true,
          "internalType": "address",
          "name": "operator",
          "type": "address"
        },
        {
          "indexed": true,
          "internalType": "address",
          "name": "from",
          "type": "address"
        },
        {
          "indexed": true,
          "internalType": "address",
          "name": "to",
          "type": "address"
        },
        {
          "indexed": false,
          "internalType": "uint256",
          "name": "id",
          "type": "uint256"
        },
        {
          "indexed": false,
          "internalType": "uint256",
          "name": "value",
          "type": "uint256"
        }
      ],
      "name": "TransferSingle",
      "type": "event"
    },
    {
      "anonymous": false,
      "inputs": [
        {
          "indexed": false,
          "internalType": "string",
          "name": "value",
          "type": "string"
        },
        {
          "indexed": true,
          "internalType": "uint256",
          "name": "id",
          "type": "uint256"
        }
      ],
      "name": "URI",
      "type": "event"
    },
    {
      "anonymous": false,
      "inputs": [
        {
          "indexed": true,
          "internalType": "address",
          "name": "implementation",
          "type": "address"
        }
      ],
      "name": "Upgraded",
      "type": "event"
    },
    {
      "anonymous": false,
      "inputs": [
        {
          "indexed": false,
          "internalType": "bytes32",
          "name": "id",
          "type": "bytes32"
        },
        {
          "indexed": false,
          "internalType": "string",
          "name": "text",
          "type": "string"
        }
      ],
      "name": "WorkScopeAdded",
      "type": "event"
    },
    {
      "inputs": [],
      "name": "DEFAULT_ADMIN_ROLE",
      "outputs": [
        {
          "internalType": "bytes32",
          "name": "",
          "type": "bytes32"
        }
      ],
      "stateMutability": "view",
      "type": "function"
    },
    {
      "inputs": [],
      "name": "NAME",
      "outputs": [
        {
          "internalType": "string",
          "name": "",
          "type": "string"
        }
      ],
      "stateMutability": "view",
      "type": "function"
    },
    {
      "inputs": [],
      "name": "UPGRADER_ROLE",
      "outputs": [
        {
          "internalType": "bytes32",
          "name": "",
          "type": "bytes32"
        }
      ],
      "stateMutability": "view",
      "type": "function"
    },
    {
      "inputs": [
        {
          "internalType": "string",
          "name": "text",
          "type": "string"
        }
      ],
      "name": "addImpactScope",
      "outputs": [
        {
          "internalType": "bytes32",
          "name": "id",
          "type": "bytes32"
        }
      ],
      "stateMutability": "nonpayable",
      "type": "function"
    },
    {
      "inputs": [
        {
          "internalType": "string",
          "name": "text",
          "type": "string"
        }
      ],
      "name": "addRight",
      "outputs": [
        {
          "internalType": "bytes32",
          "name": "id",
          "type": "bytes32"
        }
      ],
      "stateMutability": "nonpayable",
      "type": "function"
    },
    {
      "inputs": [
        {
          "internalType": "string",
          "name": "text",
          "type": "string"
        }
      ],
      "name": "addWorkScope",
      "outputs": [
        {
          "internalType": "bytes32",
          "name": "id",
          "type": "bytes32"
        }
      ],
      "stateMutability": "nonpayable",
      "type": "function"
    },
    {
      "inputs": [
        {
          "internalType": "address",
          "name": "account",
          "type": "address"
        },
        {
          "internalType": "uint256",
          "name": "id",
          "type": "uint256"
        }
      ],
      "name": "balanceOf",
      "outputs": [
        {
          "internalType": "uint256",
          "name": "",
          "type": "uint256"
        }
      ],
      "stateMutability": "view",
      "type": "function"
    },
    {
      "inputs": [
        {
          "internalType": "address[]",
          "name": "accounts",
          "type": "address[]"
        },
        {
          "internalType": "uint256[]",
          "name": "ids",
          "type": "uint256[]"
        }
      ],
      "name": "balanceOfBatch",
      "outputs": [
        {
          "internalType": "uint256[]",
          "name": "",
          "type": "uint256[]"
        }
      ],
      "stateMutability": "view",
      "type": "function"
    },
    {
      "inputs": [
        {
          "internalType": "address",
          "name": "account",
          "type": "address"
        },
        {
          "internalType": "uint256",
          "name": "id",
          "type": "uint256"
        },
        {
          "internalType": "uint256",
          "name": "value",
          "type": "uint256"
        }
      ],
      "name": "burn",
      "outputs": [],
      "stateMutability": "nonpayable",
      "type": "function"
    },
    {
      "inputs": [
        {
          "internalType": "address",
          "name": "account",
          "type": "address"
        },
        {
          "internalType": "uint256[]",
          "name": "ids",
          "type": "uint256[]"
        },
        {
          "internalType": "uint256[]",
          "name": "values",
          "type": "uint256[]"
        }
      ],
      "name": "burnBatch",
      "outputs": [],
      "stateMutability": "nonpayable",
      "type": "function"
    },
    {
      "inputs": [
        {
          "internalType": "uint256",
          "name": "id",
          "type": "uint256"
        }
      ],
      "name": "exists",
      "outputs": [
        {
          "internalType": "bool",
          "name": "",
          "type": "bool"
        }
      ],
      "stateMutability": "view",
      "type": "function"
    },
    {
      "inputs": [
        {
          "internalType": "uint256",
          "name": "claimID",
          "type": "uint256"
        }
      ],
      "name": "getImpactCert",
      "outputs": [
        {
          "components": [
            {
              "internalType": "bytes32",
              "name": "claimHash",
              "type": "bytes32"
            },
            {
              "internalType": "uint64[2]",
              "name": "workTimeframe",
              "type": "uint64[2]"
            },
            {
              "internalType": "uint64[2]",
              "name": "impactTimeframe",
              "type": "uint64[2]"
            },
            {
              "internalType": "bytes32[]",
              "name": "workScopes",
              "type": "bytes32[]"
            },
            {
              "internalType": "bytes32[]",
              "name": "impactScopes",
              "type": "bytes32[]"
            },
            {
              "internalType": "bytes32[]",
              "name": "rights",
              "type": "bytes32[]"
            },
            {
              "internalType": "address[]",
              "name": "contributors",
              "type": "address[]"
            },
            {
              "internalType": "uint16",
              "name": "version",
              "type": "uint16"
            },
            {
              "internalType": "bool",
              "name": "exists",
              "type": "bool"
            }
          ],
          "internalType": "struct HypercertMinterV0.Claim",
          "name": "",
          "type": "tuple"
        }
      ],
      "stateMutability": "view",
      "type": "function"
    },
    {
      "inputs": [
        {
          "internalType": "bytes32",
          "name": "role",
          "type": "bytes32"
        }
      ],
      "name": "getRoleAdmin",
      "outputs": [
        {
          "internalType": "bytes32",
          "name": "",
          "type": "bytes32"
        }
      ],
      "stateMutability": "view",
      "type": "function"
    },
    {
      "inputs": [
        {
          "internalType": "bytes32",
          "name": "role",
          "type": "bytes32"
        },
        {
          "internalType": "address",
          "name": "account",
          "type": "address"
        }
      ],
      "name": "grantRole",
      "outputs": [],
      "stateMutability": "nonpayable",
      "type": "function"
    },
    {
      "inputs": [
        {
          "internalType": "bytes32",
          "name": "role",
          "type": "bytes32"
        },
        {
          "internalType": "address",
          "name": "account",
          "type": "address"
        }
      ],
      "name": "hasRole",
      "outputs": [
        {
          "internalType": "bool",
          "name": "",
          "type": "bool"
        }
      ],
      "stateMutability": "view",
      "type": "function"
    },
    {
      "inputs": [
        {
          "internalType": "bytes32",
          "name": "",
          "type": "bytes32"
        }
      ],
      "name": "impactScopes",
      "outputs": [
        {
          "internalType": "string",
          "name": "",
          "type": "string"
        }
      ],
      "stateMutability": "view",
      "type": "function"
    },
    {
      "inputs": [],
      "name": "initialize",
      "outputs": [],
      "stateMutability": "nonpayable",
      "type": "function"
    },
    {
      "inputs": [
        {
          "internalType": "address",
          "name": "account",
          "type": "address"
        },
        {
          "internalType": "address",
          "name": "operator",
          "type": "address"
        }
      ],
      "name": "isApprovedForAll",
      "outputs": [
        {
          "internalType": "bool",
          "name": "",
          "type": "bool"
        }
      ],
      "stateMutability": "view",
      "type": "function"
    },
    {
      "inputs": [
        {
          "internalType": "address",
          "name": "account",
          "type": "address"
        },
        {
          "internalType": "uint256",
          "name": "amount",
          "type": "uint256"
        },
        {
          "internalType": "bytes",
          "name": "data",
          "type": "bytes"
        }
      ],
      "name": "mint",
      "outputs": [],
      "stateMutability": "nonpayable",
      "type": "function"
    },
    {
      "inputs": [],
      "name": "proxiableUUID",
      "outputs": [
        {
          "internalType": "bytes32",
          "name": "",
          "type": "bytes32"
        }
      ],
      "stateMutability": "view",
      "type": "function"
    },
    {
      "inputs": [
        {
          "internalType": "bytes32",
          "name": "role",
          "type": "bytes32"
        },
        {
          "internalType": "address",
          "name": "account",
          "type": "address"
        }
      ],
      "name": "renounceRole",
      "outputs": [],
      "stateMutability": "nonpayable",
      "type": "function"
    },
    {
      "inputs": [
        {
          "internalType": "bytes32",
          "name": "role",
          "type": "bytes32"
        },
        {
          "internalType": "address",
          "name": "account",
          "type": "address"
        }
      ],
      "name": "revokeRole",
      "outputs": [],
      "stateMutability": "nonpayable",
      "type": "function"
    },
    {
      "inputs": [
        {
          "internalType": "bytes32",
          "name": "",
          "type": "bytes32"
        }
      ],
      "name": "rights",
      "outputs": [
        {
          "internalType": "string",
          "name": "",
          "type": "string"
        }
      ],
      "stateMutability": "view",
      "type": "function"
    },
    {
      "inputs": [
        {
          "internalType": "address",
          "name": "from",
          "type": "address"
        },
        {
          "internalType": "address",
          "name": "to",
          "type": "address"
        },
        {
          "internalType": "uint256[]",
          "name": "ids",
          "type": "uint256[]"
        },
        {
          "internalType": "uint256[]",
          "name": "amounts",
          "type": "uint256[]"
        },
        {
          "internalType": "bytes",
          "name": "data",
          "type": "bytes"
        }
      ],
      "name": "safeBatchTransferFrom",
      "outputs": [],
      "stateMutability": "nonpayable",
      "type": "function"
    },
    {
      "inputs": [
        {
          "internalType": "address",
          "name": "from",
          "type": "address"
        },
        {
          "internalType": "address",
          "name": "to",
          "type": "address"
        },
        {
          "internalType": "uint256",
          "name": "id",
          "type": "uint256"
        },
        {
          "internalType": "uint256",
          "name": "amount",
          "type": "uint256"
        },
        {
          "internalType": "bytes",
          "name": "data",
          "type": "bytes"
        }
      ],
      "name": "safeTransferFrom",
      "outputs": [],
      "stateMutability": "nonpayable",
      "type": "function"
    },
    {
      "inputs": [
        {
          "internalType": "address",
          "name": "operator",
          "type": "address"
        },
        {
          "internalType": "bool",
          "name": "approved",
          "type": "bool"
        }
      ],
      "name": "setApprovalForAll",
      "outputs": [],
      "stateMutability": "nonpayable",
      "type": "function"
    },
    {
      "inputs": [
        {
          "internalType": "bytes4",
          "name": "interfaceId",
          "type": "bytes4"
        }
      ],
      "name": "supportsInterface",
      "outputs": [
        {
          "internalType": "bool",
          "name": "",
          "type": "bool"
        }
      ],
      "stateMutability": "view",
      "type": "function"
    },
    {
      "inputs": [
        {
          "internalType": "uint256",
          "name": "id",
          "type": "uint256"
        }
      ],
      "name": "totalSupply",
      "outputs": [
        {
          "internalType": "uint256",
          "name": "",
          "type": "uint256"
        }
      ],
      "stateMutability": "view",
      "type": "function"
    },
    {
      "inputs": [],
      "name": "updateVersion",
      "outputs": [],
      "stateMutability": "nonpayable",
      "type": "function"
    },
    {
      "inputs": [
        {
          "internalType": "address",
          "name": "newImplementation",
          "type": "address"
        }
      ],
      "name": "upgradeTo",
      "outputs": [],
      "stateMutability": "nonpayable",
      "type": "function"
    },
    {
      "inputs": [
        {
          "internalType": "address",
          "name": "newImplementation",
          "type": "address"
        },
        {
          "internalType": "bytes",
          "name": "data",
          "type": "bytes"
        }
      ],
      "name": "upgradeToAndCall",
      "outputs": [],
      "stateMutability": "payable",
      "type": "function"
    },
    {
      "inputs": [
        {
          "internalType": "uint256",
          "name": "tokenId",
          "type": "uint256"
        }
      ],
      "name": "uri",
      "outputs": [
        {
          "internalType": "string",
          "name": "",
          "type": "string"
        }
      ],
      "stateMutability": "view",
      "type": "function"
    },
    {
      "inputs": [],
      "name": "version",
      "outputs": [
        {
          "internalType": "uint256",
          "name": "",
          "type": "uint256"
        }
      ],
      "stateMutability": "view",
      "type": "function"
    },
    {
      "inputs": [
        {
          "internalType": "bytes32",
          "name": "",
          "type": "bytes32"
        }
      ],
      "name": "workScopes",
      "outputs": [
        {
          "internalType": "string",
          "name": "",
          "type": "string"
        }
      ],
      "stateMutability": "view",
      "type": "function"
    }
  ],
  "bytecode": "0x60a0604052306080523480156200001557600080fd5b506200002062000026565b620000e8565b600054610100900460ff1615620000935760405162461bcd60e51b815260206004820152602760248201527f496e697469616c697a61626c653a20636f6e747261637420697320696e697469604482015266616c697a696e6760c81b606482015260840160405180910390fd5b60005460ff9081161015620000e6576000805460ff191660ff9081179091556040519081527f7f26b83ff96e1f2b6a682f133852f6798a09c465da95921460cefb38474024989060200160405180910390a15b565b608051614b7b62000120600039600081816109a301528181610a2801528181610cbe01528181610d430152610e290152614b7b6000f3fe6080604052600436106102185760003560e01c80638129fc1c1161011d578063bd85b039116100b0578063ef6f66d71161007f578063f242432a11610064578063f242432a146106ae578063f5298aca146106ce578063f72c0d8b146106ee57600080fd5b8063ef6f66d71461066e578063f0f11e051461068e57600080fd5b8063bd85b039146105b8578063d52fd095146105e5578063d547741f14610605578063e985e9c51461062557600080fd5b8063997edc61116100ec578063997edc611461051a578063a217fddf1461053a578063a22cb4651461054f578063a3f4df7e1461056f57600080fd5b80638129fc1c1461047f5780638f88b7671461049457806391d14854146104b457806394d008ef146104fa57600080fd5b80633659cfe6116101b05780634f558e791161017f57806354fd4d501161016457806354fd4d50146104185780636b20c4541461043257806372927aa31461045257600080fd5b80634f558e79146103d457806352d1902d1461040357600080fd5b80633659cfe61461035f57806348c02dc11461037f5780634e1273f4146103945780634f1ef286146103c157600080fd5b8063248a9ca3116101ec578063248a9ca3146102cd5780632eb2c2d6146102fd5780632f2ff15d1461031f57806336568abe1461033f57600080fd5b8062fdd58e1461021d57806301ffc9a7146102505780630e89341c146102805780631e6ad4b8146102ad575b600080fd5b34801561022957600080fd5b5061023d610238366004613aec565b610722565b6040519081526020015b60405180910390f35b34801561025c57600080fd5b5061027061026b366004613b2e565b6107d0565b6040519015158152602001610247565b34801561028c57600080fd5b506102a061029b366004613b4b565b6107db565b6040516102479190613bb4565b3480156102b957600080fd5b5061023d6102c8366004613c78565b6107e6565b3480156102d957600080fd5b5061023d6102e8366004613b4b565b60009081526097602052604090206001015490565b34801561030957600080fd5b5061031d610318366004613d7e565b61084f565b005b34801561032b57600080fd5b5061031d61033a366004613e2c565b6108e3565b34801561034b57600080fd5b5061031d61035a366004613e2c565b61090d565b34801561036b57600080fd5b5061031d61037a366004613e5c565b610999565b34801561038b57600080fd5b5061031d610b14565b3480156103a057600080fd5b506103b46103af366004613e79565b610b76565b6040516102479190613f81565b61031d6103cf366004613f94565b610cb4565b3480156103e057600080fd5b506102706103ef366004613b4b565b600090815260fb6020526040902054151590565b34801561040f57600080fd5b5061023d610e1c565b34801561042457600080fd5b506101c35461ffff1661023d565b34801561043e57600080fd5b5061031d61044d366004613fda565b610ee2565b34801561045e57600080fd5b5061047261046d366004613b4b565b610f6d565b60405161024791906140b6565b34801561048b57600080fd5b5061031d6111f8565b3480156104a057600080fd5b506102a06104af366004613b4b565b61137c565b3480156104c057600080fd5b506102706104cf366004613e2c565b60009182526097602090815260408084206001600160a01b0393909316845291905290205460ff1690565b34801561050657600080fd5b5061031d610515366004614197565b611417565b34801561052657600080fd5b5061023d610535366004613c78565b6115cb565b34801561054657600080fd5b5061023d600081565b34801561055b57600080fd5b5061031d61056a3660046141e6565b611627565b34801561057b57600080fd5b506102a06040518060400160405280601881526020017f496d70616374206879706572636572746966696361746573000000000000000081525081565b3480156105c457600080fd5b5061023d6105d3366004613b4b565b600090815260fb602052604090205490565b3480156105f157600080fd5b506102a0610600366004613b4b565b611632565b34801561061157600080fd5b5061031d610620366004613e2c565b61164c565b34801561063157600080fd5b50610270610640366004614219565b6001600160a01b03918216600090815260666020908152604080832093909416825291909152205460ff1690565b34801561067a57600080fd5b506102a0610689366004613b4b565b611671565b34801561069a57600080fd5b5061023d6106a9366004613c78565b61168b565b3480156106ba57600080fd5b5061031d6106c9366004614247565b6116e7565b3480156106da57600080fd5b5061031d6106e93660046142b0565b611774565b3480156106fa57600080fd5b5061023d7f189ab7a9244df0848122154315af71fe140f3db0fe014031783b0946b8c9d2e381565b60006001600160a01b0383166107a55760405162461bcd60e51b815260206004820152602a60248201527f455243313135353a2061646472657373207a65726f206973206e6f742061207660448201527f616c6964206f776e65720000000000000000000000000000000000000000000060648201526084015b60405180910390fd5b5060008181526065602090815260408083206001600160a01b03861684529091529020545b92915050565b60006107ca826117ff565b60606107ca82611824565b60006107f4826101c6611906565b60008181526101c6602052604090209091506108108382614365565b507f2efcce702e3d0b95b3deb632da6d41c3d169e0c3effb9066d949f14d6f13224f8183604051610842929190614425565b60405180910390a1919050565b6001600160a01b03851633148061086b575061086b8533610640565b6108cf5760405162461bcd60e51b815260206004820152602f60248201527f455243313135353a2063616c6c6572206973206e6f7420746f6b656e206f776e60448201526e195c881b9bdc88185c1c1c9bdd9959608a1b606482015260840161079c565b6108dc85858585856119d8565b5050505050565b6000828152609760205260409020600101546108fe81611c47565b6109088383611c51565b505050565b6001600160a01b038116331461098b5760405162461bcd60e51b815260206004820152602f60248201527f416363657373436f6e74726f6c3a2063616e206f6e6c792072656e6f756e636560448201527f20726f6c657320666f722073656c660000000000000000000000000000000000606482015260840161079c565b6109958282611cf3565b5050565b6001600160a01b037f0000000000000000000000000000000000000000000000000000000000000000163003610a265760405162461bcd60e51b815260206004820152602c60248201527f46756e6374696f6e206d7573742062652063616c6c6564207468726f7567682060448201526b19195b1959d85d1958d85b1b60a21b606482015260840161079c565b7f00000000000000000000000000000000000000000000000000000000000000006001600160a01b0316610a817f360894a13ba1a3210667c828492db98dca3e2076cc3735a920a3ca505d382bbc546001600160a01b031690565b6001600160a01b031614610aec5760405162461bcd60e51b815260206004820152602c60248201527f46756e6374696f6e206d7573742062652063616c6c6564207468726f7567682060448201526b6163746976652070726f787960a01b606482015260840161079c565b610af581611d76565b60408051600080825260208201909252610b1191839190611da0565b50565b7f189ab7a9244df0848122154315af71fe140f3db0fe014031783b0946b8c9d2e3610b3e81611c47565b6101c3805460019190600090610b5990849061ffff16614454565b92506101000a81548161ffff021916908361ffff16021790555050565b60608151835114610bef5760405162461bcd60e51b815260206004820152602960248201527f455243313135353a206163636f756e747320616e6420696473206c656e67746860448201527f206d69736d617463680000000000000000000000000000000000000000000000606482015260840161079c565b6000835167ffffffffffffffff811115610c0b57610c0b613bc7565b604051908082528060200260200182016040528015610c34578160200160208202803683370190505b50905060005b8451811015610cac57610c7f858281518110610c5857610c58614476565b6020026020010151858381518110610c7257610c72614476565b6020026020010151610722565b828281518110610c9157610c91614476565b6020908102919091010152610ca58161448c565b9050610c3a565b509392505050565b6001600160a01b037f0000000000000000000000000000000000000000000000000000000000000000163003610d415760405162461bcd60e51b815260206004820152602c60248201527f46756e6374696f6e206d7573742062652063616c6c6564207468726f7567682060448201526b19195b1959d85d1958d85b1b60a21b606482015260840161079c565b7f00000000000000000000000000000000000000000000000000000000000000006001600160a01b0316610d9c7f360894a13ba1a3210667c828492db98dca3e2076cc3735a920a3ca505d382bbc546001600160a01b031690565b6001600160a01b031614610e075760405162461bcd60e51b815260206004820152602c60248201527f46756e6374696f6e206d7573742062652063616c6c6564207468726f7567682060448201526b6163746976652070726f787960a01b606482015260840161079c565b610e1082611d76565b61099582826001611da0565b6000306001600160a01b037f00000000000000000000000000000000000000000000000000000000000000001614610ebc5760405162461bcd60e51b815260206004820152603860248201527f555550535570677261646561626c653a206d757374206e6f742062652063616c60448201527f6c6564207468726f7567682064656c656761746563616c6c0000000000000000606482015260840161079c565b507f360894a13ba1a3210667c828492db98dca3e2076cc3735a920a3ca505d382bbc5b90565b6001600160a01b038316331480610efe5750610efe8333610640565b610f625760405162461bcd60e51b815260206004820152602f60248201527f455243313135353a2063616c6c6572206973206e6f7420746f6b656e206f776e60448201526e195c881b9bdc88185c1c1c9bdd9959608a1b606482015260840161079c565b610908838383611f40565b610f75613900565b60008281526101c9602090815260408083208151610120810183528154815282518084019384905290949193850192909160018501916002918390855b82829054906101000a900467ffffffffffffffff1667ffffffffffffffff1681526020019060080190602082600701049283019260010382029150808411610fb257505050928452505060408051808201918290526020909301929150600284810191826000855b82829054906101000a900467ffffffffffffffff1667ffffffffffffffff168152602001906008019060208260070104928301926001038202915080841161101a57905050505050508152602001600382018054806020026020016040519081016040528092919081815260200182805480156110b657602002820191906000526020600020905b8154815260200190600101908083116110a2575b505050505081526020016004820180548060200260200160405190810160405280929190818152602001828054801561110e57602002820191906000526020600020905b8154815260200190600101908083116110fa575b505050505081526020016005820180548060200260200160405190810160405280929190818152602001828054801561116657602002820191906000526020600020905b815481526020019060010190808311611152575b50505050508152602001600682018054806020026020016040519081016040528092919081815260200182805480156111c857602002820191906000526020600020905b81546001600160a01b031681526001909101906020018083116111aa575b50505091835250506007919091015461ffff8116602083015262010000900460ff16151560409091015292915050565b600054610100900460ff16158080156112185750600054600160ff909116105b806112325750303b158015611232575060005460ff166001145b6112a45760405162461bcd60e51b815260206004820152602e60248201527f496e697469616c697a61626c653a20636f6e747261637420697320616c72656160448201527f647920696e697469616c697a6564000000000000000000000000000000000000606482015260840161079c565b6000805460ff1916600117905580156112c7576000805461ff0019166101001790555b6112df6040518060200160405280600081525061219a565b6112e761220e565b6112ef61220e565b6112f761227b565b6112ff61220e565b61130a600033611c51565b6113347f189ab7a9244df0848122154315af71fe140f3db0fe014031783b0946b8c9d2e333611c51565b8015610b11576000805461ff0019169055604051600181527f7f26b83ff96e1f2b6a682f133852f6798a09c465da95921460cefb38474024989060200160405180910390a150565b6101c56020526000908152604090208054611396906142e5565b80601f01602080910402602001604051908101604052809291908181526020018280546113c2906142e5565b801561140f5780601f106113e45761010080835404028352916020019161140f565b820191906000526020600020905b8154815290600101906020018083116113f257829003601f168201915b505050505081565b600080611423836122ee565b9150915061143185836123f4565b6101c4805490600190600061144683856144a5565b9091555050825160c084015161145c91906126cc565b60008181526101c9602090815260409091208451815590840151849190611489906001830190600261395f565b50604082015161149f906002808401919061395f565b50606082015180516114bb916003840191602090910190613a07565b50608082015180516114d7916004840191602090910190613a07565b5060a082015180516114f3916005840191602090910190613a07565b5060c0820151805161150f916006840191602090910190613a42565b5060e082015160079091018054610100909301511515620100000262ffffff1990931661ffff9092169190911791909117905561154c8183612800565b6115588682878761285e565b7f2d5e7de1a786ea5d535fcaa49a371e5e487a1a8d4f0a353faa6bc989ecf132e1818785600001518660c001518760200151886040015189606001518a608001518b60a001518c60e001518c6040516115bb9b9a999897969594939291906144b8565b60405180910390a1505050505050565b60006115d9826101c5611906565b60008181526101c5602052604090209091506115f58382614365565b507f8b841033bc947e807d9766c542105a3dbb0bae62591be7b5c8cd4f37f698bf738183604051610842929190614425565b610995338383612983565b6101c76020526000908152604090208054611396906142e5565b60008281526097602052604090206001015461166781611c47565b6109088383611cf3565b6101c66020526000908152604090208054611396906142e5565b6000611699826101c7611906565b60008181526101c7602052604090209091506116b58382614365565b507f4527d373276b1ece0c8dd18e140572f93feffd35a0993d9e4de70623b1ac93ce8183604051610842929190614425565b6001600160a01b03851633148061170357506117038533610640565b6117675760405162461bcd60e51b815260206004820152602f60248201527f455243313135353a2063616c6c6572206973206e6f7420746f6b656e206f776e60448201526e195c881b9bdc88185c1c1c9bdd9959608a1b606482015260840161079c565b6108dc8585858585612a77565b6001600160a01b03831633148061179057506117908333610640565b6117f45760405162461bcd60e51b815260206004820152602f60248201527f455243313135353a2063616c6c6572206973206e6f7420746f6b656e206f776e60448201526e195c881b9bdc88185c1c1c9bdd9959608a1b606482015260840161079c565b610908838383612c34565b60006001600160e01b03198216637965db0b60e01b14806107ca57506107ca82612dc8565b600081815261012e6020526040812080546060929190611843906142e5565b80601f016020809104026020016040519081016040528092919081815260200182805461186f906142e5565b80156118bc5780601f10611891576101008083540402835291602001916118bc565b820191906000526020600020905b81548152906001019060200180831161189f57829003601f168201915b5050505050905060008151116118da576118d583612e18565b6118ff565b61012d816040516020016118ef929190614572565b6040516020818303038152906040525b9392505050565b6000808351116119585760405162461bcd60e51b815260206004820152600a60248201527f656d707479207465787400000000000000000000000000000000000000000000604482015260640161079c565b826040516020016119699190613bb4565b60405160208183030381529060405280519060200120905061198b8282612eac565b156107ca5760405162461bcd60e51b815260206004820152600e60248201527f616c726561647920657869737473000000000000000000000000000000000000604482015260640161079c565b8151835114611a3a5760405162461bcd60e51b815260206004820152602860248201527f455243313135353a2069647320616e6420616d6f756e7473206c656e677468206044820152670dad2e6dac2e8c6d60c31b606482015260840161079c565b6001600160a01b038416611a9e5760405162461bcd60e51b815260206004820152602560248201527f455243313135353a207472616e7366657220746f20746865207a65726f206164604482015264647265737360d81b606482015260840161079c565b33611aad818787878787612ed3565b60005b8451811015611bd9576000858281518110611acd57611acd614476565b602002602001015190506000858381518110611aeb57611aeb614476565b60209081029190910181015160008481526065835260408082206001600160a01b038e168352909352919091205490915081811015611b7f5760405162461bcd60e51b815260206004820152602a60248201527f455243313135353a20696e73756666696369656e742062616c616e636520666f60448201526939103a3930b739b332b960b11b606482015260840161079c565b60008381526065602090815260408083206001600160a01b038e8116855292528083208585039055908b16825281208054849290611bbe9084906144a5565b9250508190555050505080611bd29061448c565b9050611ab0565b50846001600160a01b0316866001600160a01b0316826001600160a01b03167f4a39dc06d4c0dbc64b70af90fd698a233a518aa5d07e595d983b8c0526c8f7fb8787604051611c299291906145f9565b60405180910390a4611c3f818787878787612ee1565b505050505050565b610b118133613086565b60008281526097602090815260408083206001600160a01b038516845290915290205460ff166109955760008281526097602090815260408083206001600160a01b03851684529091529020805460ff19166001179055611caf3390565b6001600160a01b0316816001600160a01b0316837f2f8788117e7eff1d82e926ec794901d17c78024a50270940304540a733656f0d60405160405180910390a45050565b60008281526097602090815260408083206001600160a01b038516845290915290205460ff16156109955760008281526097602090815260408083206001600160a01b0385168085529252808320805460ff1916905551339285917ff6391f5c32d9c69d2a47ea670b442974b53935d1edc7fd64eb21e047a839171b9190a45050565b7f189ab7a9244df0848122154315af71fe140f3db0fe014031783b0946b8c9d2e361099581611c47565b7f4910fdfa16fed3260ed0e7147f7cc6da11a60208b5b9406d12a635614ffd91435460ff1615611dd35761090883613106565b826001600160a01b03166352d1902d6040518163ffffffff1660e01b8152600401602060405180830381865afa925050508015611e2d575060408051601f3d908101601f19168201909252611e2a9181019061461e565b60015b611e9f5760405162461bcd60e51b815260206004820152602e60248201527f45524331393637557067726164653a206e657720696d706c656d656e7461746960448201527f6f6e206973206e6f742055555053000000000000000000000000000000000000606482015260840161079c565b7f360894a13ba1a3210667c828492db98dca3e2076cc3735a920a3ca505d382bbc8114611f345760405162461bcd60e51b815260206004820152602960248201527f45524331393637557067726164653a20756e737570706f727465642070726f7860448201527f6961626c65555549440000000000000000000000000000000000000000000000606482015260840161079c565b506109088383836131d1565b6001600160a01b038316611fa25760405162461bcd60e51b815260206004820152602360248201527f455243313135353a206275726e2066726f6d20746865207a65726f206164647260448201526265737360e81b606482015260840161079c565b80518251146120045760405162461bcd60e51b815260206004820152602860248201527f455243313135353a2069647320616e6420616d6f756e7473206c656e677468206044820152670dad2e6dac2e8c6d60c31b606482015260840161079c565b600033905061202781856000868660405180602001604052806000815250612ed3565b60005b835181101561212b57600084828151811061204757612047614476565b60200260200101519050600084838151811061206557612065614476565b60209081029190910181015160008481526065835260408082206001600160a01b038c1683529093529190912054909150818110156120f25760405162461bcd60e51b8152602060048201526024808201527f455243313135353a206275726e20616d6f756e7420657863656564732062616c604482015263616e636560e01b606482015260840161079c565b60009283526065602090815260408085206001600160a01b038b16865290915290922091039055806121238161448c565b91505061202a565b5060006001600160a01b0316846001600160a01b0316826001600160a01b03167f4a39dc06d4c0dbc64b70af90fd698a233a518aa5d07e595d983b8c0526c8f7fb868660405161217c9291906145f9565b60405180910390a46040805160208101909152600090525b50505050565b600054610100900460ff166122055760405162461bcd60e51b815260206004820152602b60248201527f496e697469616c697a61626c653a20636f6e7472616374206973206e6f74206960448201526a6e697469616c697a696e6760a81b606482015260840161079c565b610b11816131f6565b600054610100900460ff166122795760405162461bcd60e51b815260206004820152602b60248201527f496e697469616c697a61626c653a20636f6e7472616374206973206e6f74206960448201526a6e697469616c697a696e6760a81b606482015260840161079c565b565b600054610100900460ff166122e65760405162461bcd60e51b815260206004820152602b60248201527f496e697469616c697a61626c653a20636f6e7472616374206973206e6f74206960448201526a6e697469616c697a696e6760a81b606482015260840161079c565b61227961326a565b6122f6613900565b606060008351116123495760405162461bcd60e51b815260206004820152601c60248201527f5f7061727365446174613a20696e707574206461746120656d70747900000000604482015260640161079c565b60008060008060008060008980602001905181019061236891906147db565b965096509650965096509650965060008487858860405160200161238f94939291906148d2565b60408051601f19818403018152828252805160209182012061012084018352835282019690965294850193909352606084019590955260808301939093525060a081019390935260c0830152600060e083015260016101008301529094909350915050565b6001600160a01b03821661244a5760405162461bcd60e51b815260206004820152601e60248201527f4d696e743a206d696e7420746f20746865207a65726f20616464726573730000604482015260640161079c565b60208181015190810151905167ffffffffffffffff918216911611156124b25760405162461bcd60e51b815260206004820152601b60248201527f4d696e743a20696e76616c696420776f726b54696d656672616d650000000000604482015260640161079c565b60408101516020810151905167ffffffffffffffff9182169116111561251a5760405162461bcd60e51b815260206004820152601d60248201527f4d696e743a20696e76616c696420696d7061637454696d656672616d65000000604482015260640161079c565b60408101515160208201515167ffffffffffffffff918216911611156125a85760405162461bcd60e51b815260206004820152602c60248201527f4d696e743a20696d7061637454696d656672616d65207072696f7220746f207760448201527f6f726b54696d656672616d650000000000000000000000000000000000000000606482015260840161079c565b60808101515160005b81811015612640576125e26101c6846080015183815181106125d5576125d5614476565b6020026020010151612eac565b61262e5760405162461bcd60e51b815260206004820152601a60248201527f4d696e743a20696e76616c696420696d706163742073636f7065000000000000604482015260640161079c565b806126388161448c565b9150506125b1565b5060608201515160005b818110156108dc5761266e6101c5856060015183815181106125d5576125d5614476565b6126ba5760405162461bcd60e51b815260206004820152601860248201527f4d696e743a20696e76616c696420776f726b2073636f70650000000000000000604482015260640161079c565b806126c48161448c565b91505061264a565b60005b8151811015610908576101c860008383815181106126ef576126ef614476565b6020908102919091018101516001600160a01b03168252818101929092526040908101600090812086825290925290205460ff16156127965760405162461bcd60e51b815260206004820152602560248201527f436c61696d3a20636c61696d20666f722063726561746f7273206f7665726c6160448201527f7070696e67000000000000000000000000000000000000000000000000000000606482015260840161079c565b60016101c860008484815181106127af576127af614476565b6020908102919091018101516001600160a01b0316825281810192909252604090810160009081208782529092529020805460ff1916911515919091179055806127f88161448c565b9150506126cf565b600082815261012e602052604090206128198282614365565b50817f6bb7ff708619ba0610cba295a58592e0451dee2622938c8755667688daf3529b612845846107db565b6040516128529190613bb4565b60405180910390a25050565b6001600160a01b0384166128be5760405162461bcd60e51b815260206004820152602160248201527f455243313135353a206d696e7420746f20746865207a65726f206164647265736044820152607360f81b606482015260840161079c565b3360006128ca856132f2565b905060006128d7856132f2565b90506128e883600089858589612ed3565b60008681526065602090815260408083206001600160a01b038b1684529091528120805487929061291a9084906144a5565b909155505060408051878152602081018790526001600160a01b03808a1692600092918716917fc3d58168c5ae7397731d063d5bbf3d657854427343f4c083240f7aacaa2d0f62910160405180910390a461297a8360008989898961333d565b50505050505050565b816001600160a01b0316836001600160a01b031603612a0a5760405162461bcd60e51b815260206004820152602960248201527f455243313135353a2073657474696e6720617070726f76616c2073746174757360448201527f20666f722073656c660000000000000000000000000000000000000000000000606482015260840161079c565b6001600160a01b03838116600081815260666020908152604080832094871680845294825291829020805460ff191686151590811790915591519182527f17307eab39ab6107e8899845ad3d59bd9653f200f220920489ca2b5937696c31910160405180910390a3505050565b6001600160a01b038416612adb5760405162461bcd60e51b815260206004820152602560248201527f455243313135353a207472616e7366657220746f20746865207a65726f206164604482015264647265737360d81b606482015260840161079c565b336000612ae7856132f2565b90506000612af4856132f2565b9050612b04838989858589612ed3565b60008681526065602090815260408083206001600160a01b038c16845290915290205485811015612b8a5760405162461bcd60e51b815260206004820152602a60248201527f455243313135353a20696e73756666696369656e742062616c616e636520666f60448201526939103a3930b739b332b960b11b606482015260840161079c565b60008781526065602090815260408083206001600160a01b038d8116855292528083208985039055908a16825281208054889290612bc99084906144a5565b909155505060408051888152602081018890526001600160a01b03808b16928c821692918816917fc3d58168c5ae7397731d063d5bbf3d657854427343f4c083240f7aacaa2d0f62910160405180910390a4612c29848a8a8a8a8a61333d565b505050505050505050565b6001600160a01b038316612c965760405162461bcd60e51b815260206004820152602360248201527f455243313135353a206275726e2066726f6d20746865207a65726f206164647260448201526265737360e81b606482015260840161079c565b336000612ca2846132f2565b90506000612caf846132f2565b9050612ccf83876000858560405180602001604052806000815250612ed3565b60008581526065602090815260408083206001600160a01b038a16845290915290205484811015612d4e5760405162461bcd60e51b8152602060048201526024808201527f455243313135353a206275726e20616d6f756e7420657863656564732062616c604482015263616e636560e01b606482015260840161079c565b60008681526065602090815260408083206001600160a01b038b81168086529184528285208a8703905582518b81529384018a90529092908816917fc3d58168c5ae7397731d063d5bbf3d657854427343f4c083240f7aacaa2d0f62910160405180910390a460408051602081019091526000905261297a565b60006001600160e01b03198216636cdb3d1360e11b1480612df957506001600160e01b031982166303a24d0760e21b145b806107ca57506301ffc9a760e01b6001600160e01b03198316146107ca565b606060678054612e27906142e5565b80601f0160208091040260200160405190810160405280929190818152602001828054612e53906142e5565b8015612ea05780601f10612e7557610100808354040283529160200191612ea0565b820191906000526020600020905b815481529060010190602001808311612e8357829003601f168201915b50505050509050919050565b60008181526020839052604081208054829190612ec8906142e5565b905011905092915050565b611c3f868686868686613439565b6001600160a01b0384163b15611c3f5760405163bc197c8160e01b81526001600160a01b0385169063bc197c8190612f25908990899088908890889060040161491c565b6020604051808303816000875af1925050508015612f60575060408051601f3d908101601f19168201909252612f5d9181019061497a565b60015b61301557612f6c614997565b806308c379a003612fa55750612f806149b2565b80612f8b5750612fa7565b8060405162461bcd60e51b815260040161079c9190613bb4565b505b60405162461bcd60e51b815260206004820152603460248201527f455243313135353a207472616e7366657220746f206e6f6e204552433131353560448201527f526563656976657220696d706c656d656e746572000000000000000000000000606482015260840161079c565b6001600160e01b0319811663bc197c8160e01b1461297a5760405162461bcd60e51b815260206004820152602860248201527f455243313135353a204552433131353552656365697665722072656a656374656044820152676420746f6b656e7360c01b606482015260840161079c565b60008281526097602090815260408083206001600160a01b038516845290915290205460ff16610995576130c4816001600160a01b031660146135c7565b6130cf8360206135c7565b6040516020016130e0929190614a3c565b60408051601f198184030181529082905262461bcd60e51b825261079c91600401613bb4565b6001600160a01b0381163b6131835760405162461bcd60e51b815260206004820152602d60248201527f455243313936373a206e657720696d706c656d656e746174696f6e206973206e60448201527f6f74206120636f6e747261637400000000000000000000000000000000000000606482015260840161079c565b7f360894a13ba1a3210667c828492db98dca3e2076cc3735a920a3ca505d382bbc805473ffffffffffffffffffffffffffffffffffffffff19166001600160a01b0392909216919091179055565b6131da83613770565b6000825111806131e75750805b156109085761219483836137b0565b600054610100900460ff166132615760405162461bcd60e51b815260206004820152602b60248201527f496e697469616c697a61626c653a20636f6e7472616374206973206e6f74206960448201526a6e697469616c697a696e6760a81b606482015260840161079c565b610b11816138bb565b600054610100900460ff166132d55760405162461bcd60e51b815260206004820152602b60248201527f496e697469616c697a61626c653a20636f6e7472616374206973206e6f74206960448201526a6e697469616c697a696e6760a81b606482015260840161079c565b60408051602081019091526000815261012d90610b119082614365565b6040805160018082528183019092526060916000919060208083019080368337019050509050828160008151811061332c5761332c614476565b602090810291909101015292915050565b6001600160a01b0384163b15611c3f5760405163f23a6e6160e01b81526001600160a01b0385169063f23a6e61906133819089908990889088908890600401614abd565b6020604051808303816000875af19250505080156133bc575060408051601f3d908101601f191682019092526133b99181019061497a565b60015b6133c857612f6c614997565b6001600160e01b0319811663f23a6e6160e01b1461297a5760405162461bcd60e51b815260206004820152602860248201527f455243313135353a204552433131353552656365697665722072656a656374656044820152676420746f6b656e7360c01b606482015260840161079c565b6001600160a01b0385166134c05760005b83518110156134be5782818151811061346557613465614476565b602002602001015160fb600086848151811061348357613483614476565b6020026020010151815260200190815260200160002060008282546134a891906144a5565b909155506134b790508161448c565b905061344a565b505b6001600160a01b038416611c3f5760005b835181101561297a5760008482815181106134ee576134ee614476565b60200260200101519050600084838151811061350c5761350c614476565b60200260200101519050600060fb6000848152602001908152602001600020549050818110156135a45760405162461bcd60e51b815260206004820152602860248201527f455243313135353a206275726e20616d6f756e74206578636565647320746f7460448201527f616c537570706c79000000000000000000000000000000000000000000000000606482015260840161079c565b600092835260fb6020526040909220910390556135c08161448c565b90506134d1565b606060006135d6836002614af5565b6135e19060026144a5565b67ffffffffffffffff8111156135f9576135f9613bc7565b6040519080825280601f01601f191660200182016040528015613623576020820181803683370190505b509050600360fc1b8160008151811061363e5761363e614476565b60200101906001600160f81b031916908160001a905350600f60fb1b8160018151811061366d5761366d614476565b60200101906001600160f81b031916908160001a9053506000613691846002614af5565b61369c9060016144a5565b90505b6001811115613721577f303132333435363738396162636465660000000000000000000000000000000085600f16601081106136dd576136dd614476565b1a60f81b8282815181106136f3576136f3614476565b60200101906001600160f81b031916908160001a90535060049490941c9361371a81614b14565b905061369f565b5083156118ff5760405162461bcd60e51b815260206004820181905260248201527f537472696e67733a20686578206c656e67746820696e73756666696369656e74604482015260640161079c565b61377981613106565b6040516001600160a01b038216907fbc7cd75a20ee27fd9adebab32041f755214dbc6bffa90cc0225b39da2e5c2d3b90600090a250565b60606001600160a01b0383163b61382f5760405162461bcd60e51b815260206004820152602660248201527f416464726573733a2064656c65676174652063616c6c20746f206e6f6e2d636f60448201527f6e74726163740000000000000000000000000000000000000000000000000000606482015260840161079c565b600080846001600160a01b03168460405161384a9190614b2b565b600060405180830381855af49150503d8060008114613885576040519150601f19603f3d011682016040523d82523d6000602084013e61388a565b606091505b50915091506138b28282604051806060016040528060278152602001614b48602791396138c7565b95945050505050565b60676109958282614365565b606083156138d65750816118ff565b8251156138e65782518084602001fd5b8160405162461bcd60e51b815260040161079c9190613bb4565b604080516101208101909152600081526020810161391c613aa4565b8152602001613929613aa4565b815260200160608152602001606081526020016060815260200160608152602001600061ffff1681526020016000151581525090565b6001830191839082156139f75791602002820160005b838211156139c157835183826101000a81548167ffffffffffffffff021916908367ffffffffffffffff1602179055509260200192600801602081600701049283019260010302613975565b80156139f55782816101000a81549067ffffffffffffffff02191690556008016020816007010492830192600103026139c1565b505b50613a03929150613ac2565b5090565b8280548282559060005260206000209081019282156139f7579160200282015b828111156139f7578251825591602001919060010190613a27565b8280548282559060005260206000209081019282156139f7579160200282015b828111156139f7578251825473ffffffffffffffffffffffffffffffffffffffff19166001600160a01b03909116178255602090920191600190910190613a62565b60405180604001604052806002906020820280368337509192915050565b5b80821115613a035760008155600101613ac3565b6001600160a01b0381168114610b1157600080fd5b60008060408385031215613aff57600080fd5b8235613b0a81613ad7565b946020939093013593505050565b6001600160e01b031981168114610b1157600080fd5b600060208284031215613b4057600080fd5b81356118ff81613b18565b600060208284031215613b5d57600080fd5b5035919050565b60005b83811015613b7f578181015183820152602001613b67565b50506000910152565b60008151808452613ba0816020860160208601613b64565b601f01601f19169290920160200192915050565b6020815260006118ff6020830184613b88565b634e487b7160e01b600052604160045260246000fd5b601f8201601f1916810167ffffffffffffffff81118282101715613c0357613c03613bc7565b6040525050565b600067ffffffffffffffff821115613c2457613c24613bc7565b50601f01601f191660200190565b6000613c3d83613c0a565b604051613c4a8282613bdd565b809250848152858585011115613c5f57600080fd5b8484602083013760006020868301015250509392505050565b600060208284031215613c8a57600080fd5b813567ffffffffffffffff811115613ca157600080fd5b8201601f81018413613cb257600080fd5b613cc184823560208401613c32565b949350505050565b600067ffffffffffffffff821115613ce357613ce3613bc7565b5060051b60200190565b600082601f830112613cfe57600080fd5b81356020613d0b82613cc9565b604051613d188282613bdd565b83815260059390931b8501820192828101915086841115613d3857600080fd5b8286015b84811015613d535780358352918301918301613d3c565b509695505050505050565b600082601f830112613d6f57600080fd5b6118ff83833560208501613c32565b600080600080600060a08688031215613d9657600080fd5b8535613da181613ad7565b94506020860135613db181613ad7565b9350604086013567ffffffffffffffff80821115613dce57600080fd5b613dda89838a01613ced565b94506060880135915080821115613df057600080fd5b613dfc89838a01613ced565b93506080880135915080821115613e1257600080fd5b50613e1f88828901613d5e565b9150509295509295909350565b60008060408385031215613e3f57600080fd5b823591506020830135613e5181613ad7565b809150509250929050565b600060208284031215613e6e57600080fd5b81356118ff81613ad7565b60008060408385031215613e8c57600080fd5b823567ffffffffffffffff80821115613ea457600080fd5b818501915085601f830112613eb857600080fd5b81356020613ec582613cc9565b604051613ed28282613bdd565b83815260059390931b8501820192828101915089841115613ef257600080fd5b948201945b83861015613f19578535613f0a81613ad7565b82529482019490820190613ef7565b96505086013592505080821115613f2f57600080fd5b50613f3c85828601613ced565b9150509250929050565b600081518084526020808501945080840160005b83811015613f7657815187529582019590820190600101613f5a565b509495945050505050565b6020815260006118ff6020830184613f46565b60008060408385031215613fa757600080fd5b8235613fb281613ad7565b9150602083013567ffffffffffffffff811115613fce57600080fd5b613f3c85828601613d5e565b600080600060608486031215613fef57600080fd5b8335613ffa81613ad7565b9250602084013567ffffffffffffffff8082111561401757600080fd5b61402387838801613ced565b9350604086013591508082111561403957600080fd5b5061404686828701613ced565b9150509250925092565b8060005b600281101561219457815167ffffffffffffffff16845260209384019390910190600101614054565b600081518084526020808501945080840160005b83811015613f765781516001600160a01b031687529582019590820190600101614091565b6020815281516020820152600060208301516140d56040840182614050565b5060408301516140e86080840182614050565b5060608301516101608060c0850152614105610180850183613f46565b91506080850151601f19808685030160e08701526141238483613f46565b935060a087015191506101008187860301818801526141428584613f46565b945060c088015192508187860301610120880152614160858461407d565b945060e0880151925061417a61014088018461ffff169052565b87015180151584880152915061418d9050565b5090949350505050565b6000806000606084860312156141ac57600080fd5b83356141b781613ad7565b925060208401359150604084013567ffffffffffffffff8111156141da57600080fd5b61404686828701613d5e565b600080604083850312156141f957600080fd5b823561420481613ad7565b915060208301358015158114613e5157600080fd5b6000806040838503121561422c57600080fd5b823561423781613ad7565b91506020830135613e5181613ad7565b600080600080600060a0868803121561425f57600080fd5b853561426a81613ad7565b9450602086013561427a81613ad7565b93506040860135925060608601359150608086013567ffffffffffffffff8111156142a457600080fd5b613e1f88828901613d5e565b6000806000606084860312156142c557600080fd5b83356142d081613ad7565b95602085013595506040909401359392505050565b600181811c908216806142f957607f821691505b60208210810361431957634e487b7160e01b600052602260045260246000fd5b50919050565b601f82111561090857600081815260208120601f850160051c810160208610156143465750805b601f850160051c820191505b81811015611c3f57828155600101614352565b815167ffffffffffffffff81111561437f5761437f613bc7565b6143938161438d84546142e5565b8461431f565b602080601f8311600181146143c857600084156143b05750858301515b600019600386901b1c1916600185901b178555611c3f565b600085815260208120601f198616915b828110156143f7578886015182559484019460019091019084016143d8565b50858210156144155787850151600019600388901b60f8161c191681555b5050505050600190811b01905550565b828152604060208201526000613cc16040830184613b88565b634e487b7160e01b600052601160045260246000fd5b61ffff81811683821601908082111561446f5761446f61443e565b5092915050565b634e487b7160e01b600052603260045260246000fd5b60006001820161449e5761449e61443e565b5060010190565b808201808211156107ca576107ca61443e565b60006101a08d83526001600160a01b038d1660208401528b60408401528060608401526144e78184018c61407d565b90506144f6608084018b614050565b61450360c084018a614050565b8281036101008401526145168189613f46565b905082810361012084015261452b8188613f46565b90508281036101408401526145408187613f46565b905061ffff85166101608401528281036101808401526145608185613b88565b9e9d5050505050505050505050505050565b6000808454614580816142e5565b6001828116801561459857600181146145ad576145dc565b60ff19841687528215158302870194506145dc565b8860005260208060002060005b858110156145d35781548a8201529084019082016145ba565b50505082870194505b5050505083516145f0818360208801613b64565b01949350505050565b60408152600061460c6040830185613f46565b82810360208401526138b28185613f46565b60006020828403121561463057600080fd5b5051919050565b600082601f83011261464857600080fd5b8151602061465582613cc9565b6040516146628282613bdd565b83815260059390931b850182019282810191508684111561468257600080fd5b8286015b84811015613d535780518352918301918301614686565b600082601f8301126146ae57600080fd5b6040516040810167ffffffffffffffff82821081831117156146d2576146d2613bc7565b604091825282918501868111156146e857600080fd5b855b8181101561471157805183811681146147035760008081fd5b8452602093840193016146ea565b50929695505050505050565b600082601f83011261472e57600080fd5b8151602061473b82613cc9565b6040516147488282613bdd565b83815260059390931b850182019282810191508684111561476857600080fd5b8286015b84811015613d5357805161477f81613ad7565b835291830191830161476c565b600082601f83011261479d57600080fd5b81516147a881613c0a565b6040516147b58282613bdd565b8281528560208487010111156147ca57600080fd5b6138b2836020830160208801613b64565b6000806000806000806000610120888a0312156147f757600080fd5b875167ffffffffffffffff8082111561480f57600080fd5b61481b8b838c01614637565b985060208a015191508082111561483157600080fd5b61483d8b838c01614637565b975060408a015191508082111561485357600080fd5b61485f8b838c01614637565b965061486e8b60608c0161469d565b955061487d8b60a08c0161469d565b945060e08a015191508082111561489357600080fd5b61489f8b838c0161471d565b93506101008a01519150808211156148b657600080fd5b506148c38a828b0161478c565b91505092959891949750929550565b6148dc8186614050565b60c0604082015260006148f260c0830186613f46565b6148ff6060840186614050565b82810360a08401526149118185613f46565b979650505050505050565b60006001600160a01b03808816835280871660208401525060a0604083015261494860a0830186613f46565b828103606084015261495a8186613f46565b9050828103608084015261496e8185613b88565b98975050505050505050565b60006020828403121561498c57600080fd5b81516118ff81613b18565b600060033d1115610edf5760046000803e5060005160e01c90565b600060443d10156149c05790565b6040516003193d81016004833e81513d67ffffffffffffffff81602484011181841117156149f057505050505090565b8285019150815181811115614a085750505050505090565b843d8701016020828501011115614a225750505050505090565b614a3160208286010187613bdd565b509095945050505050565b7f416363657373436f6e74726f6c3a206163636f756e7420000000000000000000815260008351614a74816017850160208801613b64565b7f206973206d697373696e6720726f6c65200000000000000000000000000000006017918401918201528351614ab1816028840160208801613b64565b01602801949350505050565b60006001600160a01b03808816835280871660208401525084604083015283606083015260a0608083015261491160a0830184613b88565b6000816000190483118215151615614b0f57614b0f61443e565b500290565b600081614b2357614b2361443e565b506000190190565b60008251614b3d818460208701613b64565b919091019291505056fe416464726573733a206c6f772d6c6576656c2064656c65676174652063616c6c206661696c6564a164736f6c6343000810000a",
  "linkReferences": {},
  "deployedLinkReferences": {}
}