{
  "_format": "hh-sol-artifact-1",
  "contractName": "HypercertMinterUpgrade",
  "sourceName": "contracts/mocks/HypercertMinterUpgrade.sol",
  "abi": [
    {
      "anonymous": false,
      "inputs": [
        {
          "indexed": false,
          "internalType": "address",
          "name": "previousAdmin",
          "type": "address"
        },
        {
          "indexed": false,
          "internalType": "address",
          "name": "newAdmin",
          "type": "address"
        }
      ],
      "name": "AdminChanged",
      "type": "event"
    },
    {
      "anonymous": false,
      "inputs": [
        {
          "indexed": true,
          "internalType": "address",
          "name": "account",
          "type": "address"
        },
        {
          "indexed": true,
          "internalType": "address",
          "name": "operator",
          "type": "address"
        },
        {
          "indexed": false,
          "internalType": "bool",
          "name": "approved",
          "type": "bool"
        }
      ],
      "name": "ApprovalForAll",
      "type": "event"
    },
    {
      "anonymous": false,
      "inputs": [
        {
          "indexed": true,
          "internalType": "address",
          "name": "beacon",
          "type": "address"
        }
      ],
      "name": "BeaconUpgraded",
      "type": "event"
    },
    {
      "anonymous": false,
      "inputs": [
        {
          "indexed": true,
          "internalType": "uint256",
          "name": "id",
          "type": "uint256"
        },
        {
          "indexed": true,
          "internalType": "bytes32",
          "name": "claimHash",
          "type": "bytes32"
        },
        {
          "indexed": false,
          "internalType": "address[]",
          "name": "contributors",
          "type": "address[]"
        },
        {
          "indexed": false,
          "internalType": "uint256[2]",
          "name": "workTimeframe",
          "type": "uint256[2]"
        },
        {
          "indexed": false,
          "internalType": "uint256[2]",
          "name": "impactTimeframe",
          "type": "uint256[2]"
        },
        {
          "indexed": false,
          "internalType": "bytes32[]",
          "name": "workScopes",
          "type": "bytes32[]"
        },
        {
          "indexed": false,
          "internalType": "bytes32[]",
          "name": "impactScopes",
          "type": "bytes32[]"
        },
        {
          "indexed": false,
          "internalType": "bytes32[]",
          "name": "rights",
          "type": "bytes32[]"
        },
        {
          "indexed": false,
          "internalType": "uint256",
          "name": "version",
          "type": "uint256"
        },
        {
          "indexed": false,
          "internalType": "string",
          "name": "uri",
          "type": "string"
        }
      ],
      "name": "ImpactClaimed",
      "type": "event"
    },
    {
      "anonymous": false,
      "inputs": [
        {
          "indexed": true,
          "internalType": "bytes32",
          "name": "id",
          "type": "bytes32"
        },
        {
          "indexed": true,
          "internalType": "string",
          "name": "text",
          "type": "string"
        }
      ],
      "name": "ImpactScopeAdded",
      "type": "event"
    },
    {
      "anonymous": false,
      "inputs": [
        {
          "indexed": false,
          "internalType": "uint8",
          "name": "version",
          "type": "uint8"
        }
      ],
      "name": "Initialized",
      "type": "event"
    },
    {
      "anonymous": false,
      "inputs": [
        {
          "indexed": true,
          "internalType": "bytes32",
          "name": "id",
          "type": "bytes32"
        },
        {
          "indexed": true,
          "internalType": "string",
          "name": "text",
          "type": "string"
        }
      ],
      "name": "RightAdded",
      "type": "event"
    },
    {
      "anonymous": false,
      "inputs": [
        {
          "indexed": true,
          "internalType": "bytes32",
          "name": "role",
          "type": "bytes32"
        },
        {
          "indexed": true,
          "internalType": "bytes32",
          "name": "previousAdminRole",
          "type": "bytes32"
        },
        {
          "indexed": true,
          "internalType": "bytes32",
          "name": "newAdminRole",
          "type": "bytes32"
        }
      ],
      "name": "RoleAdminChanged",
      "type": "event"
    },
    {
      "anonymous": false,
      "inputs": [
        {
          "indexed": true,
          "internalType": "bytes32",
          "name": "role",
          "type": "bytes32"
        },
        {
          "indexed": true,
          "internalType": "address",
          "name": "account",
          "type": "address"
        },
        {
          "indexed": true,
          "internalType": "address",
          "name": "sender",
          "type": "address"
        }
      ],
      "name": "RoleGranted",
      "type": "event"
    },
    {
      "anonymous": false,
      "inputs": [
        {
          "indexed": true,
          "internalType": "bytes32",
          "name": "role",
          "type": "bytes32"
        },
        {
          "indexed": true,
          "internalType": "address",
          "name": "account",
          "type": "address"
        },
        {
          "indexed": true,
          "internalType": "address",
          "name": "sender",
          "type": "address"
        }
      ],
      "name": "RoleRevoked",
      "type": "event"
    },
    {
      "anonymous": false,
      "inputs": [
        {
          "indexed": false,
          "internalType": "uint256",
          "name": "fromID",
          "type": "uint256"
        },
        {
          "indexed": false,
          "internalType": "uint256[]",
          "name": "toID",
          "type": "uint256[]"
        }
      ],
      "name": "Split",
      "type": "event"
    },
    {
      "anonymous": false,
      "inputs": [
        {
          "indexed": true,
          "internalType": "address",
          "name": "operator",
          "type": "address"
        },
        {
          "indexed": true,
          "internalType": "address",
          "name": "from",
          "type": "address"
        },
        {
          "indexed": true,
          "internalType": "address",
          "name": "to",
          "type": "address"
        },
        {
          "indexed": false,
          "internalType": "uint256[]",
          "name": "ids",
          "type": "uint256[]"
        },
        {
          "indexed": false,
          "internalType": "uint256[]",
          "name": "values",
          "type": "uint256[]"
        }
      ],
      "name": "TransferBatch",
      "type": "event"
    },
    {
      "anonymous": false,
      "inputs": [
        {
          "indexed": true,
          "internalType": "address",
          "name": "operator",
          "type": "address"
        },
        {
          "indexed": true,
          "internalType": "address",
          "name": "from",
          "type": "address"
        },
        {
          "indexed": true,
          "internalType": "address",
          "name": "to",
          "type": "address"
        },
        {
          "indexed": false,
          "internalType": "uint256",
          "name": "id",
          "type": "uint256"
        },
        {
          "indexed": false,
          "internalType": "uint256",
          "name": "value",
          "type": "uint256"
        }
      ],
      "name": "TransferSingle",
      "type": "event"
    },
    {
      "anonymous": false,
      "inputs": [
        {
          "indexed": false,
          "internalType": "string",
          "name": "value",
          "type": "string"
        },
        {
          "indexed": true,
          "internalType": "uint256",
          "name": "id",
          "type": "uint256"
        }
      ],
      "name": "URI",
      "type": "event"
    },
    {
      "anonymous": false,
      "inputs": [
        {
          "indexed": true,
          "internalType": "address",
          "name": "implementation",
          "type": "address"
        }
      ],
      "name": "Upgraded",
      "type": "event"
    },
    {
      "anonymous": false,
      "inputs": [
        {
          "indexed": true,
          "internalType": "bytes32",
          "name": "id",
          "type": "bytes32"
        },
        {
          "indexed": true,
          "internalType": "string",
          "name": "text",
          "type": "string"
        }
      ],
      "name": "WorkScopeAdded",
      "type": "event"
    },
    {
      "inputs": [],
      "name": "DEFAULT_ADMIN_ROLE",
      "outputs": [
        {
          "internalType": "bytes32",
          "name": "",
          "type": "bytes32"
        }
      ],
      "stateMutability": "view",
      "type": "function"
    },
    {
      "inputs": [],
      "name": "UPGRADER_ROLE",
      "outputs": [
        {
          "internalType": "bytes32",
          "name": "",
          "type": "bytes32"
        }
      ],
      "stateMutability": "view",
      "type": "function"
    },
    {
      "inputs": [
        {
          "internalType": "string",
          "name": "text",
          "type": "string"
        }
      ],
      "name": "addImpactScope",
      "outputs": [
        {
          "internalType": "bytes32",
          "name": "id",
          "type": "bytes32"
        }
      ],
      "stateMutability": "nonpayable",
      "type": "function"
    },
    {
      "inputs": [
        {
          "internalType": "string",
          "name": "text",
          "type": "string"
        }
      ],
      "name": "addRight",
      "outputs": [
        {
          "internalType": "bytes32",
          "name": "id",
          "type": "bytes32"
        }
      ],
      "stateMutability": "nonpayable",
      "type": "function"
    },
    {
      "inputs": [
        {
          "internalType": "string",
          "name": "text",
          "type": "string"
        }
      ],
      "name": "addWorkScope",
      "outputs": [
        {
          "internalType": "bytes32",
          "name": "id",
          "type": "bytes32"
        }
      ],
      "stateMutability": "nonpayable",
      "type": "function"
    },
    {
      "inputs": [
        {
          "internalType": "address",
          "name": "account",
          "type": "address"
        },
        {
          "internalType": "uint256",
          "name": "id",
          "type": "uint256"
        }
      ],
      "name": "balanceOf",
      "outputs": [
        {
          "internalType": "uint256",
          "name": "",
          "type": "uint256"
        }
      ],
      "stateMutability": "view",
      "type": "function"
    },
    {
      "inputs": [
        {
          "internalType": "address[]",
          "name": "accounts",
          "type": "address[]"
        },
        {
          "internalType": "uint256[]",
          "name": "ids",
          "type": "uint256[]"
        }
      ],
      "name": "balanceOfBatch",
      "outputs": [
        {
          "internalType": "uint256[]",
          "name": "",
          "type": "uint256[]"
        }
      ],
      "stateMutability": "view",
      "type": "function"
    },
    {
      "inputs": [
        {
          "internalType": "address",
          "name": "account",
          "type": "address"
        },
        {
          "internalType": "uint256",
          "name": "id",
          "type": "uint256"
        },
        {
          "internalType": "uint256",
          "name": "value",
          "type": "uint256"
        }
      ],
      "name": "burn",
      "outputs": [],
      "stateMutability": "nonpayable",
      "type": "function"
    },
    {
      "inputs": [
        {
          "internalType": "address",
          "name": "account",
          "type": "address"
        },
        {
          "internalType": "uint256[]",
          "name": "ids",
          "type": "uint256[]"
        },
        {
          "internalType": "uint256[]",
          "name": "values",
          "type": "uint256[]"
        }
      ],
      "name": "burnBatch",
      "outputs": [],
      "stateMutability": "nonpayable",
      "type": "function"
    },
    {
      "inputs": [
        {
          "internalType": "address",
          "name": "",
          "type": "address"
        },
        {
          "internalType": "bytes32",
          "name": "",
          "type": "bytes32"
        }
      ],
      "name": "contributorImpacts",
      "outputs": [
        {
          "internalType": "bool",
          "name": "",
          "type": "bool"
        }
      ],
      "stateMutability": "view",
      "type": "function"
    },
    {
      "inputs": [],
      "name": "counter",
      "outputs": [
        {
          "internalType": "uint256",
          "name": "",
          "type": "uint256"
        }
      ],
      "stateMutability": "view",
      "type": "function"
    },
    {
      "inputs": [
        {
          "internalType": "uint256",
          "name": "id",
          "type": "uint256"
        }
      ],
      "name": "exists",
      "outputs": [
        {
          "internalType": "bool",
          "name": "",
          "type": "bool"
        }
      ],
      "stateMutability": "view",
      "type": "function"
    },
    {
      "inputs": [
        {
          "internalType": "uint256",
          "name": "claimID",
          "type": "uint256"
        }
      ],
      "name": "getImpactCert",
      "outputs": [
        {
          "components": [
            {
              "internalType": "bytes32",
              "name": "claimHash",
              "type": "bytes32"
            },
            {
              "internalType": "address[]",
              "name": "contributors",
              "type": "address[]"
            },
            {
              "internalType": "uint256[2]",
              "name": "workTimeframe",
              "type": "uint256[2]"
            },
            {
              "internalType": "uint256[2]",
              "name": "impactTimeframe",
              "type": "uint256[2]"
            },
            {
              "internalType": "bytes32[]",
              "name": "workScopes",
              "type": "bytes32[]"
            },
            {
              "internalType": "bytes32[]",
              "name": "impactScopes",
              "type": "bytes32[]"
            },
            {
              "internalType": "bytes32[]",
              "name": "rights",
              "type": "bytes32[]"
            },
            {
              "internalType": "uint256",
              "name": "version",
              "type": "uint256"
            },
            {
              "internalType": "bool",
              "name": "exists",
              "type": "bool"
            }
          ],
          "internalType": "struct HypercertMinterV0.Claim",
          "name": "",
          "type": "tuple"
        }
      ],
      "stateMutability": "view",
      "type": "function"
    },
    {
      "inputs": [
        {
          "internalType": "bytes32",
          "name": "role",
          "type": "bytes32"
        }
      ],
      "name": "getRoleAdmin",
      "outputs": [
        {
          "internalType": "bytes32",
          "name": "",
          "type": "bytes32"
        }
      ],
      "stateMutability": "view",
      "type": "function"
    },
    {
      "inputs": [
        {
          "internalType": "bytes32",
          "name": "role",
          "type": "bytes32"
        },
        {
          "internalType": "address",
          "name": "account",
          "type": "address"
        }
      ],
      "name": "grantRole",
      "outputs": [],
      "stateMutability": "nonpayable",
      "type": "function"
    },
    {
      "inputs": [
        {
          "internalType": "bytes32",
          "name": "role",
          "type": "bytes32"
        },
        {
          "internalType": "address",
          "name": "account",
          "type": "address"
        }
      ],
      "name": "hasRole",
      "outputs": [
        {
          "internalType": "bool",
          "name": "",
          "type": "bool"
        }
      ],
      "stateMutability": "view",
      "type": "function"
    },
    {
      "inputs": [
        {
          "internalType": "bytes32",
          "name": "",
          "type": "bytes32"
        }
      ],
      "name": "impactScopes",
      "outputs": [
        {
          "internalType": "string",
          "name": "",
          "type": "string"
        }
      ],
      "stateMutability": "view",
      "type": "function"
    },
    {
      "inputs": [],
      "name": "initialize",
      "outputs": [],
      "stateMutability": "nonpayable",
      "type": "function"
    },
    {
      "inputs": [
        {
          "internalType": "address",
          "name": "account",
          "type": "address"
        },
        {
          "internalType": "address",
          "name": "operator",
          "type": "address"
        }
      ],
      "name": "isApprovedForAll",
      "outputs": [
        {
          "internalType": "bool",
          "name": "",
          "type": "bool"
        }
      ],
      "stateMutability": "view",
      "type": "function"
    },
    {
      "inputs": [
        {
          "internalType": "address",
          "name": "account",
          "type": "address"
        },
        {
          "internalType": "uint256",
          "name": "amount",
          "type": "uint256"
        },
        {
          "internalType": "bytes",
          "name": "data",
          "type": "bytes"
        }
      ],
      "name": "mint",
      "outputs": [],
      "stateMutability": "nonpayable",
      "type": "function"
    },
    {
      "inputs": [],
      "name": "proxiableUUID",
      "outputs": [
        {
          "internalType": "bytes32",
          "name": "",
          "type": "bytes32"
        }
      ],
      "stateMutability": "view",
      "type": "function"
    },
    {
      "inputs": [
        {
          "internalType": "bytes32",
          "name": "role",
          "type": "bytes32"
        },
        {
          "internalType": "address",
          "name": "account",
          "type": "address"
        }
      ],
      "name": "renounceRole",
      "outputs": [],
      "stateMutability": "nonpayable",
      "type": "function"
    },
    {
      "inputs": [
        {
          "internalType": "bytes32",
          "name": "role",
          "type": "bytes32"
        },
        {
          "internalType": "address",
          "name": "account",
          "type": "address"
        }
      ],
      "name": "revokeRole",
      "outputs": [],
      "stateMutability": "nonpayable",
      "type": "function"
    },
    {
      "inputs": [
        {
          "internalType": "bytes32",
          "name": "",
          "type": "bytes32"
        }
      ],
      "name": "rights",
      "outputs": [
        {
          "internalType": "string",
          "name": "",
          "type": "string"
        }
      ],
      "stateMutability": "view",
      "type": "function"
    },
    {
      "inputs": [
        {
          "internalType": "address",
          "name": "from",
          "type": "address"
        },
        {
          "internalType": "address",
          "name": "to",
          "type": "address"
        },
        {
          "internalType": "uint256[]",
          "name": "ids",
          "type": "uint256[]"
        },
        {
          "internalType": "uint256[]",
          "name": "amounts",
          "type": "uint256[]"
        },
        {
          "internalType": "bytes",
          "name": "data",
          "type": "bytes"
        }
      ],
      "name": "safeBatchTransferFrom",
      "outputs": [],
      "stateMutability": "nonpayable",
      "type": "function"
    },
    {
      "inputs": [
        {
          "internalType": "address",
          "name": "from",
          "type": "address"
        },
        {
          "internalType": "address",
          "name": "to",
          "type": "address"
        },
        {
          "internalType": "uint256",
          "name": "id",
          "type": "uint256"
        },
        {
          "internalType": "uint256",
          "name": "amount",
          "type": "uint256"
        },
        {
          "internalType": "bytes",
          "name": "data",
          "type": "bytes"
        }
      ],
      "name": "safeTransferFrom",
      "outputs": [],
      "stateMutability": "nonpayable",
      "type": "function"
    },
    {
      "inputs": [
        {
          "internalType": "address",
          "name": "operator",
          "type": "address"
        },
        {
          "internalType": "bool",
          "name": "approved",
          "type": "bool"
        }
      ],
      "name": "setApprovalForAll",
      "outputs": [],
      "stateMutability": "nonpayable",
      "type": "function"
    },
    {
      "inputs": [
        {
          "internalType": "uint256",
          "name": "id",
          "type": "uint256"
        }
      ],
      "name": "split",
      "outputs": [],
      "stateMutability": "nonpayable",
      "type": "function"
    },
    {
      "inputs": [
        {
          "internalType": "bytes4",
          "name": "interfaceId",
          "type": "bytes4"
        }
      ],
      "name": "supportsInterface",
      "outputs": [
        {
          "internalType": "bool",
          "name": "",
          "type": "bool"
        }
      ],
      "stateMutability": "view",
      "type": "function"
    },
    {
      "inputs": [
        {
          "internalType": "uint256",
          "name": "id",
          "type": "uint256"
        }
      ],
      "name": "totalSupply",
      "outputs": [
        {
          "internalType": "uint256",
          "name": "",
          "type": "uint256"
        }
      ],
      "stateMutability": "view",
      "type": "function"
    },
    {
      "inputs": [
        {
          "internalType": "address",
          "name": "newImplementation",
          "type": "address"
        }
      ],
      "name": "upgradeTo",
      "outputs": [],
      "stateMutability": "nonpayable",
      "type": "function"
    },
    {
      "inputs": [
        {
          "internalType": "address",
          "name": "newImplementation",
          "type": "address"
        },
        {
          "internalType": "bytes",
          "name": "data",
          "type": "bytes"
        }
      ],
      "name": "upgradeToAndCall",
      "outputs": [],
      "stateMutability": "payable",
      "type": "function"
    },
    {
      "inputs": [
        {
          "internalType": "uint256",
          "name": "tokenId",
          "type": "uint256"
        }
      ],
      "name": "uri",
      "outputs": [
        {
          "internalType": "string",
          "name": "",
          "type": "string"
        }
      ],
      "stateMutability": "view",
      "type": "function"
    },
    {
      "inputs": [],
      "name": "version",
      "outputs": [
        {
          "internalType": "uint256",
          "name": "",
          "type": "uint256"
        }
      ],
      "stateMutability": "pure",
      "type": "function"
    },
    {
      "inputs": [
        {
          "internalType": "bytes32",
          "name": "",
          "type": "bytes32"
        }
      ],
      "name": "workScopes",
      "outputs": [
        {
          "internalType": "string",
          "name": "",
          "type": "string"
        }
      ],
      "stateMutability": "view",
      "type": "function"
    }
  ],
  "bytecode": "0x60a0604052306080523480156200001557600080fd5b506200002062000026565b620000e8565b600054610100900460ff1615620000935760405162461bcd60e51b815260206004820152602760248201527f496e697469616c697a61626c653a20636f6e747261637420697320696e697469604482015266616c697a696e6760c81b606482015260840160405180910390fd5b60005460ff9081161015620000e6576000805460ff191660ff9081179091556040519081527f7f26b83ff96e1f2b6a682f133852f6798a09c465da95921460cefb38474024989060200160405180910390a15b565b608051614b2e6200012060003960008181610a7c01528181610b0101528181610d3501528181610dba0152610ea00152614b2e6000f3fe6080604052600436106102335760003560e01c806372927aa311610138578063d52fd095116100b0578063ef6f66d71161007f578063f242432a11610064578063f242432a146106d8578063f5298aca146106f8578063f72c0d8b1461071857600080fd5b8063ef6f66d714610698578063f0f11e05146106b857600080fd5b8063d52fd095146105ef578063d547741f1461060f578063dbceb0051461062f578063e985e9c51461064f57600080fd5b806394d008ef11610107578063a217fddf116100ec578063a217fddf1461058d578063a22cb465146105a2578063bd85b039146105c257600080fd5b806394d008ef1461054d578063997edc611461056d57600080fd5b806372927aa3146104a55780638129fc1c146104d25780638f88b767146104e757806391d148541461050757600080fd5b80633659cfe6116101cb5780634f558e791161019a57806354fd4d501161017f57806354fd4d501461045a57806361bc221a1461046e5780636b20c4541461048557600080fd5b80634f558e791461041657806352d1902d1461044557600080fd5b80633659cfe61461037a5780633a3acca51461039a5780634e1273f4146103d65780634f1ef2861461040357600080fd5b8063248a9ca311610207578063248a9ca3146102e85780632eb2c2d6146103185780632f2ff15d1461033a57806336568abe1461035a57600080fd5b8062fdd58e1461023857806301ffc9a71461026b5780630e89341c1461029b5780631e6ad4b8146102c8575b600080fd5b34801561024457600080fd5b50610258610253366004613aeb565b61074c565b6040519081526020015b60405180910390f35b34801561027757600080fd5b5061028b610286366004613b2d565b6107f7565b6040519015158152602001610262565b3480156102a757600080fd5b506102bb6102b6366004613b4a565b610808565b6040516102629190613bbb565b3480156102d457600080fd5b506102586102e3366004613c7f565b610813565b3480156102f457600080fd5b50610258610303366004613b4a565b60009081526097602052604090206001015490565b34801561032457600080fd5b50610338610333366004613d85565b610928565b005b34801561034657600080fd5b50610338610355366004613e33565b6109bc565b34801561036657600080fd5b50610338610375366004613e33565b6109e6565b34801561038657600080fd5b50610338610395366004613e63565b610a72565b3480156103a657600080fd5b5061028b6103b5366004613aeb565b6101c860209081526000928352604080842090915290825290205460ff1681565b3480156103e257600080fd5b506103f66103f1366004613e80565b610bed565b6040516102629190613f88565b610338610411366004613f9b565b610d2b565b34801561042257600080fd5b5061028b610431366004613b4a565b600090815260fb6020526040902054151590565b34801561045157600080fd5b50610258610e93565b34801561046657600080fd5b506001610258565b34801561047a57600080fd5b506102586101c45481565b34801561049157600080fd5b506103386104a0366004613fe1565b610f59565b3480156104b157600080fd5b506104c56104c0366004613b4a565b610fe4565b60405161026291906140b3565b3480156104de57600080fd5b50610338611203565b3480156104f357600080fd5b506102bb610502366004613b4a565b611399565b34801561051357600080fd5b5061028b610522366004613e33565b60009182526097602090815260408084206001600160a01b0393909316845291905290205460ff1690565b34801561055957600080fd5b50610338610568366004614189565b611434565b34801561057957600080fd5b50610258610588366004613c7f565b61174f565b34801561059957600080fd5b50610258600081565b3480156105ae57600080fd5b506103386105bd3660046141d8565b611864565b3480156105ce57600080fd5b506102586105dd366004613b4a565b600090815260fb602052604090205490565b3480156105fb57600080fd5b506102bb61060a366004613b4a565b61186f565b34801561061b57600080fd5b5061033861062a366004613e33565b611889565b34801561063b57600080fd5b5061033861064a366004613b4a565b6118ae565b34801561065b57600080fd5b5061028b61066a36600461420b565b6001600160a01b03918216600090815260666020908152604080832093909416825291909152205460ff1690565b3480156106a457600080fd5b506102bb6106b3366004613b4a565b611992565b3480156106c457600080fd5b506102586106d3366004613c7f565b6119ac565b3480156106e457600080fd5b506103386106f3366004614239565b611ac1565b34801561070457600080fd5b506103386107133660046142a2565b611b4e565b34801561072457600080fd5b506102587f189ab7a9244df0848122154315af71fe140f3db0fe014031783b0946b8c9d2e381565b60006001600160a01b0383166107cf5760405162461bcd60e51b815260206004820152602a60248201527f455243313135353a2061646472657373207a65726f206973206e6f742061207660448201527f616c6964206f776e65720000000000000000000000000000000000000000000060648201526084015b60405180910390fd5b5060009081526065602090815260408083206001600160a01b03949094168352929052205490565b600061080282611bd9565b92915050565b606061080282611bfe565b6000808251116108655760405162461bcd60e51b815260206004820152601a60248201527f616464496d7061637453636f70653a20656d707479207465787400000000000060448201526064016107c6565b61086e82611ce0565b905061087c6101c682611d10565b156108c95760405162461bcd60e51b815260206004820152601e60248201527f616464496d7061637453636f70653a20616c726561647920657869737473000060448201526064016107c6565b60008181526101c6602052604090206108e28382614357565b50816040516108f19190614417565b6040519081900381209082907f2efcce702e3d0b95b3deb632da6d41c3d169e0c3effb9066d949f14d6f13224f90600090a3919050565b6001600160a01b0385163314806109445750610944853361066a565b6109a85760405162461bcd60e51b815260206004820152602f60248201527f455243313135353a2063616c6c6572206973206e6f7420746f6b656e206f776e60448201526e195c881b9bdc88185c1c1c9bdd9959608a1b60648201526084016107c6565b6109b58585858585611d37565b5050505050565b6000828152609760205260409020600101546109d781611fa6565b6109e18383611fb0565b505050565b6001600160a01b0381163314610a645760405162461bcd60e51b815260206004820152602f60248201527f416363657373436f6e74726f6c3a2063616e206f6e6c792072656e6f756e636560448201527f20726f6c657320666f722073656c66000000000000000000000000000000000060648201526084016107c6565b610a6e8282612052565b5050565b6001600160a01b037f0000000000000000000000000000000000000000000000000000000000000000163003610aff5760405162461bcd60e51b815260206004820152602c60248201527f46756e6374696f6e206d7573742062652063616c6c6564207468726f7567682060448201526b19195b1959d85d1958d85b1b60a21b60648201526084016107c6565b7f00000000000000000000000000000000000000000000000000000000000000006001600160a01b0316610b5a7f360894a13ba1a3210667c828492db98dca3e2076cc3735a920a3ca505d382bbc546001600160a01b031690565b6001600160a01b031614610bc55760405162461bcd60e51b815260206004820152602c60248201527f46756e6374696f6e206d7573742062652063616c6c6564207468726f7567682060448201526b6163746976652070726f787960a01b60648201526084016107c6565b610bce816120d5565b60408051600080825260208201909252610bea918391906120ff565b50565b60608151835114610c665760405162461bcd60e51b815260206004820152602960248201527f455243313135353a206163636f756e747320616e6420696473206c656e67746860448201527f206d69736d61746368000000000000000000000000000000000000000000000060648201526084016107c6565b6000835167ffffffffffffffff811115610c8257610c82613bce565b604051908082528060200260200182016040528015610cab578160200160208202803683370190505b50905060005b8451811015610d2357610cf6858281518110610ccf57610ccf614433565b6020026020010151858381518110610ce957610ce9614433565b602002602001015161074c565b828281518110610d0857610d08614433565b6020908102919091010152610d1c8161445f565b9050610cb1565b509392505050565b6001600160a01b037f0000000000000000000000000000000000000000000000000000000000000000163003610db85760405162461bcd60e51b815260206004820152602c60248201527f46756e6374696f6e206d7573742062652063616c6c6564207468726f7567682060448201526b19195b1959d85d1958d85b1b60a21b60648201526084016107c6565b7f00000000000000000000000000000000000000000000000000000000000000006001600160a01b0316610e137f360894a13ba1a3210667c828492db98dca3e2076cc3735a920a3ca505d382bbc546001600160a01b031690565b6001600160a01b031614610e7e5760405162461bcd60e51b815260206004820152602c60248201527f46756e6374696f6e206d7573742062652063616c6c6564207468726f7567682060448201526b6163746976652070726f787960a01b60648201526084016107c6565b610e87826120d5565b610a6e828260016120ff565b6000306001600160a01b037f00000000000000000000000000000000000000000000000000000000000000001614610f335760405162461bcd60e51b815260206004820152603860248201527f555550535570677261646561626c653a206d757374206e6f742062652063616c60448201527f6c6564207468726f7567682064656c656761746563616c6c000000000000000060648201526084016107c6565b507f360894a13ba1a3210667c828492db98dca3e2076cc3735a920a3ca505d382bbc5b90565b6001600160a01b038316331480610f755750610f75833361066a565b610fd95760405162461bcd60e51b815260206004820152602f60248201527f455243313135353a2063616c6c6572206973206e6f7420746f6b656e206f776e60448201526e195c881b9bdc88185c1c1c9bdd9959608a1b60648201526084016107c6565b6109e183838361229f565b610fec613970565b60008281526101c96020908152604091829020825161012081018452815481526001820180548551818602810186019096528086529194929385810193929083018282801561106457602002820191906000526020600020905b81546001600160a01b03168152600190910190602001808311611046575b505050918352505060408051808201918290526020909201919060028481019182845b815481526020019060010190808311611087575050509183525050604080518082019182905260209092019190600484019060029082845b8154815260200190600101908083116110bf57505050505081526020016006820180548060200260200160405190810160405280929190818152602001828054801561112a57602002820191906000526020600020905b815481526020019060010190808311611116575b505050505081526020016007820180548060200260200160405190810160405280929190818152602001828054801561118257602002820191906000526020600020905b81548152602001906001019080831161116e575b50505050508152602001600882018054806020026020016040519081016040528092919081815260200182805480156111da57602002820191906000526020600020905b8154815260200190600101908083116111c6575b505050918352505060098201546020820152600a9091015460ff16151560409091015292915050565b600054610100900460ff16158080156112235750600054600160ff909116105b8061123d5750303b15801561123d575060005460ff166001145b6112af5760405162461bcd60e51b815260206004820152602e60248201527f496e697469616c697a61626c653a20636f6e747261637420697320616c72656160448201527f647920696e697469616c697a656400000000000000000000000000000000000060648201526084016107c6565b6000805460ff1916600117905580156112d2576000805461ff0019166101001790555b6112ea604051806020016040528060008152506124f9565b6112f261256d565b6112fa61256d565b6113026125da565b61130a61256d565b611315600033611fb0565b61133f7f189ab7a9244df0848122154315af71fe140f3db0fe014031783b0946b8c9d2e333611fb0565b6101c3805461ffff1916905560006101c4558015610bea576000805461ff0019169055604051600181527f7f26b83ff96e1f2b6a682f133852f6798a09c465da95921460cefb38474024989060200160405180910390a150565b6101c560205260009081526040902080546113b3906142d7565b80601f01602080910402602001604051908101604052809291908181526020018280546113df906142d7565b801561142c5780601f106114015761010080835404028352916020019161142c565b820191906000526020600020905b81548152906001019060200180831161140f57829003601f168201915b505050505081565b6001600160a01b03831661148a5760405162461bcd60e51b815260206004820152601e60248201527f4d696e743a206d696e7420746f20746865207a65726f2061646472657373000060448201526064016107c6565b6000806114968361264d565b9150915060005b8260a0015151811015611531576114d36101c68460a0015183815181106114c6576114c6614433565b6020026020010151611d10565b61151f5760405162461bcd60e51b815260206004820152601a60248201527f4d696e743a20696e76616c696420696d706163742073636f706500000000000060448201526064016107c6565b806115298161445f565b91505061149d565b5060005b8260800151518110156115bc5761155e6101c5846080015183815181106114c6576114c6614433565b6115aa5760405162461bcd60e51b815260206004820152601860248201527f4d696e743a20696e76616c696420776f726b2073636f7065000000000000000060448201526064016107c6565b806115b48161445f565b915050611535565b506115cf82600001518360200151612763565b6101c45460009081526101c9602090815260409091208351815581840151805185936116029260018501929101906139c9565b5060408201516116189060028084019190613a3b565b50606082015161162e9060048301906002613a3b565b506080820151805161164a916006840191602090910190613a69565b5060a08201518051611666916007840191602090910190613a69565b5060c08201518051611682916008840191602090910190613a69565b5060e0820151600982015561010090910151600a909101805460ff19169115159190911790556101c4546116b69082612897565b6116c5856101c45486866128f5565b81600001516101c4547f8a5e2ad605927fd0538691713998234ea0be291a0621aadc32da2b59b5ea636284602001518560400151866060015187608001518860a001518960c001518a60e001518a604051611727989796959493929190614478565b60405180910390a360016101c46000828254611743919061450d565b90915550505050505050565b6000808251116117a15760405162461bcd60e51b815260206004820152601860248201527f616464576f726b53636f70653a20656d7074792074657874000000000000000060448201526064016107c6565b6117aa82611ce0565b90506117b86101c582611d10565b156118055760405162461bcd60e51b815260206004820152601c60248201527f616464576f726b53636f70653a20616c7265616479206578697374730000000060448201526064016107c6565b60008181526101c56020526040902061181e8382614357565b508160405161182d9190614417565b6040519081900381209082907f8b841033bc947e807d9766c542105a3dbb0bae62591be7b5c8cd4f37f698bf7390600090a3919050565b610a6e338383612a1a565b6101c760205260009081526040902080546113b3906142d7565b6000828152609760205260409020600101546118a481611fa6565b6109e18383612052565b600081815260fb60205260409020546119095760405162461bcd60e51b815260206004820152601a60248201527f4d696e743a20746f6b656e20646f6573206e6f7420657869737400000000000060448201526064016107c6565b6040805160018082528183019092526000916020808301908036833701905050905061193682600161450d565b8160008151811061194957611949614433565b6020026020010181815250507fca2f7fad4853b2caaacf1c70ceb2140e76e34dd669e810522fb8d5e9490cd21e8282604051611986929190614525565b60405180910390a15050565b6101c660205260009081526040902080546113b3906142d7565b6000808251116119fe5760405162461bcd60e51b815260206004820152601460248201527f61646452696768743a20656d707479207465787400000000000000000000000060448201526064016107c6565b611a0782611ce0565b9050611a156101c782611d10565b15611a625760405162461bcd60e51b815260206004820152601860248201527f61646452696768743a20616c726561647920657869737473000000000000000060448201526064016107c6565b60008181526101c760205260409020611a7b8382614357565b5081604051611a8a9190614417565b6040519081900381209082907f4527d373276b1ece0c8dd18e140572f93feffd35a0993d9e4de70623b1ac93ce90600090a3919050565b6001600160a01b038516331480611add5750611add853361066a565b611b415760405162461bcd60e51b815260206004820152602f60248201527f455243313135353a2063616c6c6572206973206e6f7420746f6b656e206f776e60448201526e195c881b9bdc88185c1c1c9bdd9959608a1b60648201526084016107c6565b6109b58585858585612b0e565b6001600160a01b038316331480611b6a5750611b6a833361066a565b611bce5760405162461bcd60e51b815260206004820152602f60248201527f455243313135353a2063616c6c6572206973206e6f7420746f6b656e206f776e60448201526e195c881b9bdc88185c1c1c9bdd9959608a1b60648201526084016107c6565b6109e1838383612ccb565b60006001600160e01b03198216637965db0b60e01b1480610802575061080282612e5f565b600081815261012e6020526040812080546060929190611c1d906142d7565b80601f0160208091040260200160405190810160405280929190818152602001828054611c49906142d7565b8015611c965780601f10611c6b57610100808354040283529160200191611c96565b820191906000526020600020905b815481529060010190602001808311611c7957829003601f168201915b505050505090506000815111611cb457611caf83612eaf565b611cd9565b61012d81604051602001611cc992919061453e565b6040516020818303038152906040525b9392505050565b600081604051602001611cf39190613bbb565b604051602081830303815290604052805190602001209050919050565b60008181526020839052604081208054829190611d2c906142d7565b905011905092915050565b8151835114611d995760405162461bcd60e51b815260206004820152602860248201527f455243313135353a2069647320616e6420616d6f756e7473206c656e677468206044820152670dad2e6dac2e8c6d60c31b60648201526084016107c6565b6001600160a01b038416611dfd5760405162461bcd60e51b815260206004820152602560248201527f455243313135353a207472616e7366657220746f20746865207a65726f206164604482015264647265737360d81b60648201526084016107c6565b33611e0c818787878787612f43565b60005b8451811015611f38576000858281518110611e2c57611e2c614433565b602002602001015190506000858381518110611e4a57611e4a614433565b60209081029190910181015160008481526065835260408082206001600160a01b038e168352909352919091205490915081811015611ede5760405162461bcd60e51b815260206004820152602a60248201527f455243313135353a20696e73756666696369656e742062616c616e636520666f60448201526939103a3930b739b332b960b11b60648201526084016107c6565b60008381526065602090815260408083206001600160a01b038e8116855292528083208585039055908b16825281208054849290611f1d90849061450d565b9250508190555050505080611f319061445f565b9050611e0f565b50846001600160a01b0316866001600160a01b0316826001600160a01b03167f4a39dc06d4c0dbc64b70af90fd698a233a518aa5d07e595d983b8c0526c8f7fb8787604051611f889291906145c5565b60405180910390a4611f9e818787878787612f51565b505050505050565b610bea81336130f6565b60008281526097602090815260408083206001600160a01b038516845290915290205460ff16610a6e5760008281526097602090815260408083206001600160a01b03851684529091529020805460ff1916600117905561200e3390565b6001600160a01b0316816001600160a01b0316837f2f8788117e7eff1d82e926ec794901d17c78024a50270940304540a733656f0d60405160405180910390a45050565b60008281526097602090815260408083206001600160a01b038516845290915290205460ff1615610a6e5760008281526097602090815260408083206001600160a01b0385168085529252808320805460ff1916905551339285917ff6391f5c32d9c69d2a47ea670b442974b53935d1edc7fd64eb21e047a839171b9190a45050565b7f189ab7a9244df0848122154315af71fe140f3db0fe014031783b0946b8c9d2e3610a6e81611fa6565b7f4910fdfa16fed3260ed0e7147f7cc6da11a60208b5b9406d12a635614ffd91435460ff1615612132576109e183613176565b826001600160a01b03166352d1902d6040518163ffffffff1660e01b8152600401602060405180830381865afa92505050801561218c575060408051601f3d908101601f19168201909252612189918101906145ea565b60015b6121fe5760405162461bcd60e51b815260206004820152602e60248201527f45524331393637557067726164653a206e657720696d706c656d656e7461746960448201527f6f6e206973206e6f74205555505300000000000000000000000000000000000060648201526084016107c6565b7f360894a13ba1a3210667c828492db98dca3e2076cc3735a920a3ca505d382bbc81146122935760405162461bcd60e51b815260206004820152602960248201527f45524331393637557067726164653a20756e737570706f727465642070726f7860448201527f6961626c6555554944000000000000000000000000000000000000000000000060648201526084016107c6565b506109e1838383613241565b6001600160a01b0383166123015760405162461bcd60e51b815260206004820152602360248201527f455243313135353a206275726e2066726f6d20746865207a65726f206164647260448201526265737360e81b60648201526084016107c6565b80518251146123635760405162461bcd60e51b815260206004820152602860248201527f455243313135353a2069647320616e6420616d6f756e7473206c656e677468206044820152670dad2e6dac2e8c6d60c31b60648201526084016107c6565b600033905061238681856000868660405180602001604052806000815250612f43565b60005b835181101561248a5760008482815181106123a6576123a6614433565b6020026020010151905060008483815181106123c4576123c4614433565b60209081029190910181015160008481526065835260408082206001600160a01b038c1683529093529190912054909150818110156124515760405162461bcd60e51b8152602060048201526024808201527f455243313135353a206275726e20616d6f756e7420657863656564732062616c604482015263616e636560e01b60648201526084016107c6565b60009283526065602090815260408085206001600160a01b038b16865290915290922091039055806124828161445f565b915050612389565b5060006001600160a01b0316846001600160a01b0316826001600160a01b03167f4a39dc06d4c0dbc64b70af90fd698a233a518aa5d07e595d983b8c0526c8f7fb86866040516124db9291906145c5565b60405180910390a46040805160208101909152600090525b50505050565b600054610100900460ff166125645760405162461bcd60e51b815260206004820152602b60248201527f496e697469616c697a61626c653a20636f6e7472616374206973206e6f74206960448201526a6e697469616c697a696e6760a81b60648201526084016107c6565b610bea81613266565b600054610100900460ff166125d85760405162461bcd60e51b815260206004820152602b60248201527f496e697469616c697a61626c653a20636f6e7472616374206973206e6f74206960448201526a6e697469616c697a696e6760a81b60648201526084016107c6565b565b600054610100900460ff166126455760405162461bcd60e51b815260206004820152602b60248201527f496e697469616c697a61626c653a20636f6e7472616374206973206e6f74206960448201526a6e697469616c697a696e6760a81b60648201526084016107c6565b6125d86132da565b612655613970565b606060008351116126a85760405162461bcd60e51b815260206004820152601760248201527f50617273653a20696e707574206461746120656d70747900000000000000000060448201526064016107c6565b60006001905060008060008060008060008a8060200190518101906126cd9190614797565b96509650965096509650965096506000848785888c6040516020016126f695949392919061488e565b604051602081830303815290604052805190602001209050612716613970565b908152602081019290925260408201939093526060810191909152608081019390935260a083019190915260c082019290925260e081019290925260016101008301529094909350915050565b60005b81518110156109e1576101c8600083838151811061278657612786614433565b6020908102919091018101516001600160a01b03168252818101929092526040908101600090812086825290925290205460ff161561282d5760405162461bcd60e51b815260206004820152602560248201527f436c61696d3a20636c61696d20666f722063726561746f7273206f7665726c6160448201527f7070696e6700000000000000000000000000000000000000000000000000000060648201526084016107c6565b60016101c8600084848151811061284657612846614433565b6020908102919091018101516001600160a01b0316825281810192909252604090810160009081208782529092529020805460ff19169115159190911790558061288f8161445f565b915050612766565b600082815261012e602052604090206128b08282614357565b50817f6bb7ff708619ba0610cba295a58592e0451dee2622938c8755667688daf3529b6128dc84610808565b6040516128e99190613bbb565b60405180910390a25050565b6001600160a01b0384166129555760405162461bcd60e51b815260206004820152602160248201527f455243313135353a206d696e7420746f20746865207a65726f206164647265736044820152607360f81b60648201526084016107c6565b33600061296185613362565b9050600061296e85613362565b905061297f83600089858589612f43565b60008681526065602090815260408083206001600160a01b038b168452909152812080548792906129b190849061450d565b909155505060408051878152602081018790526001600160a01b03808a1692600092918716917fc3d58168c5ae7397731d063d5bbf3d657854427343f4c083240f7aacaa2d0f62910160405180910390a4612a11836000898989896133ad565b50505050505050565b816001600160a01b0316836001600160a01b031603612aa15760405162461bcd60e51b815260206004820152602960248201527f455243313135353a2073657474696e6720617070726f76616c2073746174757360448201527f20666f722073656c66000000000000000000000000000000000000000000000060648201526084016107c6565b6001600160a01b03838116600081815260666020908152604080832094871680845294825291829020805460ff191686151590811790915591519182527f17307eab39ab6107e8899845ad3d59bd9653f200f220920489ca2b5937696c31910160405180910390a3505050565b6001600160a01b038416612b725760405162461bcd60e51b815260206004820152602560248201527f455243313135353a207472616e7366657220746f20746865207a65726f206164604482015264647265737360d81b60648201526084016107c6565b336000612b7e85613362565b90506000612b8b85613362565b9050612b9b838989858589612f43565b60008681526065602090815260408083206001600160a01b038c16845290915290205485811015612c215760405162461bcd60e51b815260206004820152602a60248201527f455243313135353a20696e73756666696369656e742062616c616e636520666f60448201526939103a3930b739b332b960b11b60648201526084016107c6565b60008781526065602090815260408083206001600160a01b038d8116855292528083208985039055908a16825281208054889290612c6090849061450d565b909155505060408051888152602081018890526001600160a01b03808b16928c821692918816917fc3d58168c5ae7397731d063d5bbf3d657854427343f4c083240f7aacaa2d0f62910160405180910390a4612cc0848a8a8a8a8a6133ad565b505050505050505050565b6001600160a01b038316612d2d5760405162461bcd60e51b815260206004820152602360248201527f455243313135353a206275726e2066726f6d20746865207a65726f206164647260448201526265737360e81b60648201526084016107c6565b336000612d3984613362565b90506000612d4684613362565b9050612d6683876000858560405180602001604052806000815250612f43565b60008581526065602090815260408083206001600160a01b038a16845290915290205484811015612de55760405162461bcd60e51b8152602060048201526024808201527f455243313135353a206275726e20616d6f756e7420657863656564732062616c604482015263616e636560e01b60648201526084016107c6565b60008681526065602090815260408083206001600160a01b038b81168086529184528285208a8703905582518b81529384018a90529092908816917fc3d58168c5ae7397731d063d5bbf3d657854427343f4c083240f7aacaa2d0f62910160405180910390a4604080516020810190915260009052612a11565b60006001600160e01b03198216636cdb3d1360e11b1480612e9057506001600160e01b031982166303a24d0760e21b145b8061080257506301ffc9a760e01b6001600160e01b0319831614610802565b606060678054612ebe906142d7565b80601f0160208091040260200160405190810160405280929190818152602001828054612eea906142d7565b8015612f375780601f10612f0c57610100808354040283529160200191612f37565b820191906000526020600020905b815481529060010190602001808311612f1a57829003601f168201915b50505050509050919050565b611f9e8686868686866134a9565b6001600160a01b0384163b15611f9e5760405163bc197c8160e01b81526001600160a01b0385169063bc197c8190612f9590899089908890889088906004016148e0565b6020604051808303816000875af1925050508015612fd0575060408051601f3d908101601f19168201909252612fcd9181019061493e565b60015b61308557612fdc61495b565b806308c379a0036130155750612ff0614976565b80612ffb5750613017565b8060405162461bcd60e51b81526004016107c69190613bbb565b505b60405162461bcd60e51b815260206004820152603460248201527f455243313135353a207472616e7366657220746f206e6f6e204552433131353560448201527f526563656976657220696d706c656d656e74657200000000000000000000000060648201526084016107c6565b6001600160e01b0319811663bc197c8160e01b14612a115760405162461bcd60e51b815260206004820152602860248201527f455243313135353a204552433131353552656365697665722072656a656374656044820152676420746f6b656e7360c01b60648201526084016107c6565b60008281526097602090815260408083206001600160a01b038516845290915290205460ff16610a6e57613134816001600160a01b03166014613637565b61313f836020613637565b604051602001613150929190614a00565b60408051601f198184030181529082905262461bcd60e51b82526107c691600401613bbb565b6001600160a01b0381163b6131f35760405162461bcd60e51b815260206004820152602d60248201527f455243313936373a206e657720696d706c656d656e746174696f6e206973206e60448201527f6f74206120636f6e74726163740000000000000000000000000000000000000060648201526084016107c6565b7f360894a13ba1a3210667c828492db98dca3e2076cc3735a920a3ca505d382bbc805473ffffffffffffffffffffffffffffffffffffffff19166001600160a01b0392909216919091179055565b61324a836137e0565b6000825111806132575750805b156109e1576124f38383613820565b600054610100900460ff166132d15760405162461bcd60e51b815260206004820152602b60248201527f496e697469616c697a61626c653a20636f6e7472616374206973206e6f74206960448201526a6e697469616c697a696e6760a81b60648201526084016107c6565b610bea8161392b565b600054610100900460ff166133455760405162461bcd60e51b815260206004820152602b60248201527f496e697469616c697a61626c653a20636f6e7472616374206973206e6f74206960448201526a6e697469616c697a696e6760a81b60648201526084016107c6565b60408051602081019091526000815261012d90610bea9082614357565b6040805160018082528183019092526060916000919060208083019080368337019050509050828160008151811061339c5761339c614433565b602090810291909101015292915050565b6001600160a01b0384163b15611f9e5760405163f23a6e6160e01b81526001600160a01b0385169063f23a6e61906133f19089908990889088908890600401614a81565b6020604051808303816000875af192505050801561342c575060408051601f3d908101601f191682019092526134299181019061493e565b60015b61343857612fdc61495b565b6001600160e01b0319811663f23a6e6160e01b14612a115760405162461bcd60e51b815260206004820152602860248201527f455243313135353a204552433131353552656365697665722072656a656374656044820152676420746f6b656e7360c01b60648201526084016107c6565b6001600160a01b0385166135305760005b835181101561352e578281815181106134d5576134d5614433565b602002602001015160fb60008684815181106134f3576134f3614433565b602002602001015181526020019081526020016000206000828254613518919061450d565b9091555061352790508161445f565b90506134ba565b505b6001600160a01b038416611f9e5760005b8351811015612a1157600084828151811061355e5761355e614433565b60200260200101519050600084838151811061357c5761357c614433565b60200260200101519050600060fb6000848152602001908152602001600020549050818110156136145760405162461bcd60e51b815260206004820152602860248201527f455243313135353a206275726e20616d6f756e74206578636565647320746f7460448201527f616c537570706c7900000000000000000000000000000000000000000000000060648201526084016107c6565b600092835260fb6020526040909220910390556136308161445f565b9050613541565b60606000613646836002614ac4565b61365190600261450d565b67ffffffffffffffff81111561366957613669613bce565b6040519080825280601f01601f191660200182016040528015613693576020820181803683370190505b509050600360fc1b816000815181106136ae576136ae614433565b60200101906001600160f81b031916908160001a905350600f60fb1b816001815181106136dd576136dd614433565b60200101906001600160f81b031916908160001a9053506000613701846002614ac4565b61370c90600161450d565b90505b6001811115613791577f303132333435363738396162636465660000000000000000000000000000000085600f166010811061374d5761374d614433565b1a60f81b82828151811061376357613763614433565b60200101906001600160f81b031916908160001a90535060049490941c9361378a81614ae3565b905061370f565b508315611cd95760405162461bcd60e51b815260206004820181905260248201527f537472696e67733a20686578206c656e67746820696e73756666696369656e7460448201526064016107c6565b6137e981613176565b6040516001600160a01b038216907fbc7cd75a20ee27fd9adebab32041f755214dbc6bffa90cc0225b39da2e5c2d3b90600090a250565b60606001600160a01b0383163b61389f5760405162461bcd60e51b815260206004820152602660248201527f416464726573733a2064656c65676174652063616c6c20746f206e6f6e2d636f60448201527f6e7472616374000000000000000000000000000000000000000000000000000060648201526084016107c6565b600080846001600160a01b0316846040516138ba9190614417565b600060405180830381855af49150503d80600081146138f5576040519150601f19603f3d011682016040523d82523d6000602084013e6138fa565b606091505b50915091506139228282604051806060016040528060278152602001614afb60279139613937565b95945050505050565b6067610a6e8282614357565b60608315613946575081611cd9565b8251156139565782518084602001fd5b8160405162461bcd60e51b81526004016107c69190613bbb565b60408051610120810182526000815260606020820152908101613991613aa3565b815260200161399e613aa3565b8152602001606081526020016060815260200160608152602001600081526020016000151581525090565b828054828255906000526020600020908101928215613a2b579160200282015b82811115613a2b578251825473ffffffffffffffffffffffffffffffffffffffff19166001600160a01b039091161782556020909201916001909101906139e9565b50613a37929150613ac1565b5090565b8260028101928215613a2b579160200282015b82811115613a2b578251825591602001919060010190613a4e565b828054828255906000526020600020908101928215613a2b5791602002820182811115613a2b578251825591602001919060010190613a4e565b60405180604001604052806002906020820280368337509192915050565b5b80821115613a375760008155600101613ac2565b6001600160a01b0381168114610bea57600080fd5b60008060408385031215613afe57600080fd5b8235613b0981613ad6565b946020939093013593505050565b6001600160e01b031981168114610bea57600080fd5b600060208284031215613b3f57600080fd5b8135611cd981613b17565b600060208284031215613b5c57600080fd5b5035919050565b60005b83811015613b7e578181015183820152602001613b66565b838111156124f35750506000910152565b60008151808452613ba7816020860160208601613b63565b601f01601f19169290920160200192915050565b602081526000611cd96020830184613b8f565b634e487b7160e01b600052604160045260246000fd5b601f8201601f1916810167ffffffffffffffff81118282101715613c0a57613c0a613bce565b6040525050565b600067ffffffffffffffff821115613c2b57613c2b613bce565b50601f01601f191660200190565b6000613c4483613c11565b604051613c518282613be4565b809250848152858585011115613c6657600080fd5b8484602083013760006020868301015250509392505050565b600060208284031215613c9157600080fd5b813567ffffffffffffffff811115613ca857600080fd5b8201601f81018413613cb957600080fd5b613cc884823560208401613c39565b949350505050565b600067ffffffffffffffff821115613cea57613cea613bce565b5060051b60200190565b600082601f830112613d0557600080fd5b81356020613d1282613cd0565b604051613d1f8282613be4565b83815260059390931b8501820192828101915086841115613d3f57600080fd5b8286015b84811015613d5a5780358352918301918301613d43565b509695505050505050565b600082601f830112613d7657600080fd5b611cd983833560208501613c39565b600080600080600060a08688031215613d9d57600080fd5b8535613da881613ad6565b94506020860135613db881613ad6565b9350604086013567ffffffffffffffff80821115613dd557600080fd5b613de189838a01613cf4565b94506060880135915080821115613df757600080fd5b613e0389838a01613cf4565b93506080880135915080821115613e1957600080fd5b50613e2688828901613d65565b9150509295509295909350565b60008060408385031215613e4657600080fd5b823591506020830135613e5881613ad6565b809150509250929050565b600060208284031215613e7557600080fd5b8135611cd981613ad6565b60008060408385031215613e9357600080fd5b823567ffffffffffffffff80821115613eab57600080fd5b818501915085601f830112613ebf57600080fd5b81356020613ecc82613cd0565b604051613ed98282613be4565b83815260059390931b8501820192828101915089841115613ef957600080fd5b948201945b83861015613f20578535613f1181613ad6565b82529482019490820190613efe565b96505086013592505080821115613f3657600080fd5b50613f4385828601613cf4565b9150509250929050565b600081518084526020808501945080840160005b83811015613f7d57815187529582019590820190600101613f61565b509495945050505050565b602081526000611cd96020830184613f4d565b60008060408385031215613fae57600080fd5b8235613fb981613ad6565b9150602083013567ffffffffffffffff811115613fd557600080fd5b613f4385828601613d65565b600080600060608486031215613ff657600080fd5b833561400181613ad6565b9250602084013567ffffffffffffffff8082111561401e57600080fd5b61402a87838801613cf4565b9350604086013591508082111561404057600080fd5b5061404d86828701613cf4565b9150509250925092565b600081518084526020808501945080840160005b83811015613f7d5781516001600160a01b03168752958201959082019060010161406b565b8060005b60028110156124f3578151845260209384019390910190600101614094565b6020815281516020820152600060208301516101608060408501526140dc610180850183614057565b915060408501516140f06060860182614090565b50606085015161410360a0860182614090565b506080850151601f19808685030160e08701526141208483613f4d565b935060a0870151915061010081878603018188015261413f8584613f4d565b945060c08801519250818786030161012088015261415d8584613f4d565b945060e0880151610140880152808801519250505061417f8286018215159052565b5090949350505050565b60008060006060848603121561419e57600080fd5b83356141a981613ad6565b925060208401359150604084013567ffffffffffffffff8111156141cc57600080fd5b61404d86828701613d65565b600080604083850312156141eb57600080fd5b82356141f681613ad6565b915060208301358015158114613e5857600080fd5b6000806040838503121561421e57600080fd5b823561422981613ad6565b91506020830135613e5881613ad6565b600080600080600060a0868803121561425157600080fd5b853561425c81613ad6565b9450602086013561426c81613ad6565b93506040860135925060608601359150608086013567ffffffffffffffff81111561429657600080fd5b613e2688828901613d65565b6000806000606084860312156142b757600080fd5b83356142c281613ad6565b95602085013595506040909401359392505050565b600181811c908216806142eb57607f821691505b60208210810361430b57634e487b7160e01b600052602260045260246000fd5b50919050565b601f8211156109e157600081815260208120601f850160051c810160208610156143385750805b601f850160051c820191505b81811015611f9e57828155600101614344565b815167ffffffffffffffff81111561437157614371613bce565b6143858161437f84546142d7565b84614311565b602080601f8311600181146143ba57600084156143a25750858301515b600019600386901b1c1916600185901b178555611f9e565b600085815260208120601f198616915b828110156143e9578886015182559484019460019091019084016143ca565b50858210156144075787850151600019600388901b60f8161c191681555b5050505050600190811b01905550565b60008251614429818460208701613b63565b9190910192915050565b634e487b7160e01b600052603260045260246000fd5b634e487b7160e01b600052601160045260246000fd5b60006001820161447157614471614449565b5060010190565b600061014080835261448c8184018c614057565b905061449b602084018b614090565b6144a8606084018a614090565b82810360a08401526144ba8189613f4d565b905082810360c08401526144ce8188613f4d565b905082810360e08401526144e28187613f4d565b9050846101008401528281036101208401526144fe8185613b8f565b9b9a5050505050505050505050565b6000821982111561452057614520614449565b500190565b828152604060208201526000613cc86040830184613f4d565b600080845461454c816142d7565b600182811680156145645760018114614579576145a8565b60ff19841687528215158302870194506145a8565b8860005260208060002060005b8581101561459f5781548a820152908401908201614586565b50505082870194505b5050505083516145bc818360208801613b63565b01949350505050565b6040815260006145d86040830185613f4d565b82810360208401526139228185613f4d565b6000602082840312156145fc57600080fd5b5051919050565b600082601f83011261461457600080fd5b8151602061462182613cd0565b60405161462e8282613be4565b83815260059390931b850182019282810191508684111561464e57600080fd5b8286015b84811015613d5a5780518352918301918301614652565b600082601f83011261467a57600080fd5b6040516040810181811067ffffffffffffffff8211171561469d5761469d613bce565b80604052508060408401858111156146b457600080fd5b845b818110156146ce5780518352602092830192016146b6565b509195945050505050565b600082601f8301126146ea57600080fd5b815160206146f782613cd0565b6040516147048282613be4565b83815260059390931b850182019282810191508684111561472457600080fd5b8286015b84811015613d5a57805161473b81613ad6565b8352918301918301614728565b600082601f83011261475957600080fd5b815161476481613c11565b6040516147718282613be4565b82815285602084870101111561478657600080fd5b613922836020830160208801613b63565b6000806000806000806000610120888a0312156147b357600080fd5b875167ffffffffffffffff808211156147cb57600080fd5b6147d78b838c01614603565b985060208a01519150808211156147ed57600080fd5b6147f98b838c01614603565b975060408a015191508082111561480f57600080fd5b61481b8b838c01614603565b965061482a8b60608c01614669565b95506148398b60a08c01614669565b945060e08a015191508082111561484f57600080fd5b61485b8b838c016146d9565b93506101008a015191508082111561487257600080fd5b5061487f8a828b01614748565b91505092959891949750929550565b6148988187614090565b60e0604082015260006148ae60e0830187613f4d565b6148bb6060840187614090565b82810360a08401526148cd8186613f4d565b9150508260c08301529695505050505050565b60006001600160a01b03808816835280871660208401525060a0604083015261490c60a0830186613f4d565b828103606084015261491e8186613f4d565b905082810360808401526149328185613b8f565b98975050505050505050565b60006020828403121561495057600080fd5b8151611cd981613b17565b600060033d1115610f565760046000803e5060005160e01c90565b600060443d10156149845790565b6040516003193d81016004833e81513d67ffffffffffffffff81602484011181841117156149b457505050505090565b82850191508151818111156149cc5750505050505090565b843d87010160208285010111156149e65750505050505090565b6149f560208286010187613be4565b509095945050505050565b7f416363657373436f6e74726f6c3a206163636f756e7420000000000000000000815260008351614a38816017850160208801613b63565b7f206973206d697373696e6720726f6c65200000000000000000000000000000006017918401918201528351614a75816028840160208801613b63565b01602801949350505050565b60006001600160a01b03808816835280871660208401525084604083015283606083015260a06080830152614ab960a0830184613b8f565b979650505050505050565b6000816000190483118215151615614ade57614ade614449565b500290565b600081614af257614af2614449565b50600019019056fe416464726573733a206c6f772d6c6576656c2064656c65676174652063616c6c206661696c6564a164736f6c634300080f000a",
  "linkReferences": {},
  "deployedLinkReferences": {}
}