{
  "_format": "hh-sol-artifact-1",
  "contractName": "HypercertMinterUpgrade",
  "sourceName": "contracts/mocks/HypercertMinterUpgrade.sol",
  "abi": [
    {
      "anonymous": false,
      "inputs": [
        {
          "indexed": false,
          "internalType": "address",
          "name": "previousAdmin",
          "type": "address"
        },
        {
          "indexed": false,
          "internalType": "address",
          "name": "newAdmin",
          "type": "address"
        }
      ],
      "name": "AdminChanged",
      "type": "event"
    },
    {
      "anonymous": false,
      "inputs": [
        {
          "indexed": true,
          "internalType": "address",
          "name": "account",
          "type": "address"
        },
        {
          "indexed": true,
          "internalType": "address",
          "name": "operator",
          "type": "address"
        },
        {
          "indexed": false,
          "internalType": "bool",
          "name": "approved",
          "type": "bool"
        }
      ],
      "name": "ApprovalForAll",
      "type": "event"
    },
    {
      "anonymous": false,
      "inputs": [
        {
          "indexed": true,
          "internalType": "address",
          "name": "beacon",
          "type": "address"
        }
      ],
      "name": "BeaconUpgraded",
      "type": "event"
    },
    {
      "anonymous": false,
      "inputs": [
        {
          "indexed": false,
          "internalType": "uint256",
          "name": "id",
          "type": "uint256"
        },
        {
          "indexed": false,
          "internalType": "bytes32",
          "name": "claimHash",
          "type": "bytes32"
        },
        {
          "indexed": false,
          "internalType": "address[]",
          "name": "contributors",
          "type": "address[]"
        },
        {
          "indexed": false,
          "internalType": "uint256[2]",
          "name": "workTimeframe",
          "type": "uint256[2]"
        },
        {
          "indexed": false,
          "internalType": "uint256[2]",
          "name": "impactTimeframe",
          "type": "uint256[2]"
        },
        {
          "indexed": false,
          "internalType": "bytes32[]",
          "name": "workScopes",
          "type": "bytes32[]"
        },
        {
          "indexed": false,
          "internalType": "bytes32[]",
          "name": "impactScopes",
          "type": "bytes32[]"
        },
        {
          "indexed": false,
          "internalType": "bytes32[]",
          "name": "rights",
          "type": "bytes32[]"
        },
        {
          "indexed": false,
          "internalType": "uint256",
          "name": "version",
          "type": "uint256"
        },
        {
          "indexed": false,
          "internalType": "string",
          "name": "uri",
          "type": "string"
        }
      ],
      "name": "ImpactClaimed",
      "type": "event"
    },
    {
      "anonymous": false,
      "inputs": [
        {
          "indexed": false,
          "internalType": "bytes32",
          "name": "id",
          "type": "bytes32"
        },
        {
          "indexed": false,
          "internalType": "string",
          "name": "text",
          "type": "string"
        }
      ],
      "name": "ImpactScopeAdded",
      "type": "event"
    },
    {
      "anonymous": false,
      "inputs": [
        {
          "indexed": false,
          "internalType": "uint8",
          "name": "version",
          "type": "uint8"
        }
      ],
      "name": "Initialized",
      "type": "event"
    },
    {
      "anonymous": false,
      "inputs": [
        {
          "indexed": false,
          "internalType": "bytes32",
          "name": "id",
          "type": "bytes32"
        },
        {
          "indexed": false,
          "internalType": "string",
          "name": "text",
          "type": "string"
        }
      ],
      "name": "RightAdded",
      "type": "event"
    },
    {
      "anonymous": false,
      "inputs": [
        {
          "indexed": true,
          "internalType": "bytes32",
          "name": "role",
          "type": "bytes32"
        },
        {
          "indexed": true,
          "internalType": "bytes32",
          "name": "previousAdminRole",
          "type": "bytes32"
        },
        {
          "indexed": true,
          "internalType": "bytes32",
          "name": "newAdminRole",
          "type": "bytes32"
        }
      ],
      "name": "RoleAdminChanged",
      "type": "event"
    },
    {
      "anonymous": false,
      "inputs": [
        {
          "indexed": true,
          "internalType": "bytes32",
          "name": "role",
          "type": "bytes32"
        },
        {
          "indexed": true,
          "internalType": "address",
          "name": "account",
          "type": "address"
        },
        {
          "indexed": true,
          "internalType": "address",
          "name": "sender",
          "type": "address"
        }
      ],
      "name": "RoleGranted",
      "type": "event"
    },
    {
      "anonymous": false,
      "inputs": [
        {
          "indexed": true,
          "internalType": "bytes32",
          "name": "role",
          "type": "bytes32"
        },
        {
          "indexed": true,
          "internalType": "address",
          "name": "account",
          "type": "address"
        },
        {
          "indexed": true,
          "internalType": "address",
          "name": "sender",
          "type": "address"
        }
      ],
      "name": "RoleRevoked",
      "type": "event"
    },
    {
      "anonymous": false,
      "inputs": [
        {
          "indexed": false,
          "internalType": "uint256",
          "name": "fromID",
          "type": "uint256"
        },
        {
          "indexed": false,
          "internalType": "uint256[]",
          "name": "toID",
          "type": "uint256[]"
        }
      ],
      "name": "Split",
      "type": "event"
    },
    {
      "anonymous": false,
      "inputs": [
        {
          "indexed": true,
          "internalType": "address",
          "name": "operator",
          "type": "address"
        },
        {
          "indexed": true,
          "internalType": "address",
          "name": "from",
          "type": "address"
        },
        {
          "indexed": true,
          "internalType": "address",
          "name": "to",
          "type": "address"
        },
        {
          "indexed": false,
          "internalType": "uint256[]",
          "name": "ids",
          "type": "uint256[]"
        },
        {
          "indexed": false,
          "internalType": "uint256[]",
          "name": "values",
          "type": "uint256[]"
        }
      ],
      "name": "TransferBatch",
      "type": "event"
    },
    {
      "anonymous": false,
      "inputs": [
        {
          "indexed": true,
          "internalType": "address",
          "name": "operator",
          "type": "address"
        },
        {
          "indexed": true,
          "internalType": "address",
          "name": "from",
          "type": "address"
        },
        {
          "indexed": true,
          "internalType": "address",
          "name": "to",
          "type": "address"
        },
        {
          "indexed": false,
          "internalType": "uint256",
          "name": "id",
          "type": "uint256"
        },
        {
          "indexed": false,
          "internalType": "uint256",
          "name": "value",
          "type": "uint256"
        }
      ],
      "name": "TransferSingle",
      "type": "event"
    },
    {
      "anonymous": false,
      "inputs": [
        {
          "indexed": false,
          "internalType": "string",
          "name": "value",
          "type": "string"
        },
        {
          "indexed": true,
          "internalType": "uint256",
          "name": "id",
          "type": "uint256"
        }
      ],
      "name": "URI",
      "type": "event"
    },
    {
      "anonymous": false,
      "inputs": [
        {
          "indexed": true,
          "internalType": "address",
          "name": "implementation",
          "type": "address"
        }
      ],
      "name": "Upgraded",
      "type": "event"
    },
    {
      "anonymous": false,
      "inputs": [
        {
          "indexed": false,
          "internalType": "bytes32",
          "name": "id",
          "type": "bytes32"
        },
        {
          "indexed": false,
          "internalType": "string",
          "name": "text",
          "type": "string"
        }
      ],
      "name": "WorkScopeAdded",
      "type": "event"
    },
    {
      "inputs": [],
      "name": "DEFAULT_ADMIN_ROLE",
      "outputs": [
        {
          "internalType": "bytes32",
          "name": "",
          "type": "bytes32"
        }
      ],
      "stateMutability": "view",
      "type": "function"
    },
    {
      "inputs": [],
      "name": "UPGRADER_ROLE",
      "outputs": [
        {
          "internalType": "bytes32",
          "name": "",
          "type": "bytes32"
        }
      ],
      "stateMutability": "view",
      "type": "function"
    },
    {
      "inputs": [
        {
          "internalType": "string",
          "name": "text",
          "type": "string"
        }
      ],
      "name": "addImpactScope",
      "outputs": [
        {
          "internalType": "bytes32",
          "name": "id",
          "type": "bytes32"
        }
      ],
      "stateMutability": "nonpayable",
      "type": "function"
    },
    {
      "inputs": [
        {
          "internalType": "string",
          "name": "text",
          "type": "string"
        }
      ],
      "name": "addRight",
      "outputs": [
        {
          "internalType": "bytes32",
          "name": "id",
          "type": "bytes32"
        }
      ],
      "stateMutability": "nonpayable",
      "type": "function"
    },
    {
      "inputs": [
        {
          "internalType": "string",
          "name": "text",
          "type": "string"
        }
      ],
      "name": "addWorkScope",
      "outputs": [
        {
          "internalType": "bytes32",
          "name": "id",
          "type": "bytes32"
        }
      ],
      "stateMutability": "nonpayable",
      "type": "function"
    },
    {
      "inputs": [
        {
          "internalType": "address",
          "name": "account",
          "type": "address"
        },
        {
          "internalType": "uint256",
          "name": "id",
          "type": "uint256"
        }
      ],
      "name": "balanceOf",
      "outputs": [
        {
          "internalType": "uint256",
          "name": "",
          "type": "uint256"
        }
      ],
      "stateMutability": "view",
      "type": "function"
    },
    {
      "inputs": [
        {
          "internalType": "address[]",
          "name": "accounts",
          "type": "address[]"
        },
        {
          "internalType": "uint256[]",
          "name": "ids",
          "type": "uint256[]"
        }
      ],
      "name": "balanceOfBatch",
      "outputs": [
        {
          "internalType": "uint256[]",
          "name": "",
          "type": "uint256[]"
        }
      ],
      "stateMutability": "view",
      "type": "function"
    },
    {
      "inputs": [
        {
          "internalType": "address",
          "name": "account",
          "type": "address"
        },
        {
          "internalType": "uint256",
          "name": "id",
          "type": "uint256"
        },
        {
          "internalType": "uint256",
          "name": "value",
          "type": "uint256"
        }
      ],
      "name": "burn",
      "outputs": [],
      "stateMutability": "nonpayable",
      "type": "function"
    },
    {
      "inputs": [
        {
          "internalType": "address",
          "name": "account",
          "type": "address"
        },
        {
          "internalType": "uint256[]",
          "name": "ids",
          "type": "uint256[]"
        },
        {
          "internalType": "uint256[]",
          "name": "values",
          "type": "uint256[]"
        }
      ],
      "name": "burnBatch",
      "outputs": [],
      "stateMutability": "nonpayable",
      "type": "function"
    },
    {
      "inputs": [
        {
          "internalType": "address",
          "name": "",
          "type": "address"
        },
        {
          "internalType": "bytes32",
          "name": "",
          "type": "bytes32"
        }
      ],
      "name": "contributorImpacts",
      "outputs": [
        {
          "internalType": "bool",
          "name": "",
          "type": "bool"
        }
      ],
      "stateMutability": "view",
      "type": "function"
    },
    {
      "inputs": [],
      "name": "counter",
      "outputs": [
        {
          "internalType": "uint256",
          "name": "",
          "type": "uint256"
        }
      ],
      "stateMutability": "view",
      "type": "function"
    },
    {
      "inputs": [
        {
          "internalType": "uint256",
          "name": "id",
          "type": "uint256"
        }
      ],
      "name": "exists",
      "outputs": [
        {
          "internalType": "bool",
          "name": "",
          "type": "bool"
        }
      ],
      "stateMutability": "view",
      "type": "function"
    },
    {
      "inputs": [
        {
          "internalType": "uint256",
          "name": "claimID",
          "type": "uint256"
        }
      ],
      "name": "getImpactCert",
      "outputs": [
        {
          "components": [
            {
              "internalType": "bytes32",
              "name": "claimHash",
              "type": "bytes32"
            },
            {
              "internalType": "address[]",
              "name": "contributors",
              "type": "address[]"
            },
            {
              "internalType": "uint256[2]",
              "name": "workTimeframe",
              "type": "uint256[2]"
            },
            {
              "internalType": "uint256[2]",
              "name": "impactTimeframe",
              "type": "uint256[2]"
            },
            {
              "internalType": "bytes32[]",
              "name": "workScopes",
              "type": "bytes32[]"
            },
            {
              "internalType": "bytes32[]",
              "name": "impactScopes",
              "type": "bytes32[]"
            },
            {
              "internalType": "bytes32[]",
              "name": "rights",
              "type": "bytes32[]"
            },
            {
              "internalType": "uint256",
              "name": "version",
              "type": "uint256"
            },
            {
              "internalType": "bool",
              "name": "exists",
              "type": "bool"
            }
          ],
          "internalType": "struct HypercertMinterV0.Claim",
          "name": "",
          "type": "tuple"
        }
      ],
      "stateMutability": "view",
      "type": "function"
    },
    {
      "inputs": [
        {
          "internalType": "bytes32",
          "name": "role",
          "type": "bytes32"
        }
      ],
      "name": "getRoleAdmin",
      "outputs": [
        {
          "internalType": "bytes32",
          "name": "",
          "type": "bytes32"
        }
      ],
      "stateMutability": "view",
      "type": "function"
    },
    {
      "inputs": [
        {
          "internalType": "bytes32",
          "name": "role",
          "type": "bytes32"
        },
        {
          "internalType": "address",
          "name": "account",
          "type": "address"
        }
      ],
      "name": "grantRole",
      "outputs": [],
      "stateMutability": "nonpayable",
      "type": "function"
    },
    {
      "inputs": [
        {
          "internalType": "bytes32",
          "name": "role",
          "type": "bytes32"
        },
        {
          "internalType": "address",
          "name": "account",
          "type": "address"
        }
      ],
      "name": "hasRole",
      "outputs": [
        {
          "internalType": "bool",
          "name": "",
          "type": "bool"
        }
      ],
      "stateMutability": "view",
      "type": "function"
    },
    {
      "inputs": [
        {
          "internalType": "bytes32",
          "name": "",
          "type": "bytes32"
        }
      ],
      "name": "impactScopes",
      "outputs": [
        {
          "internalType": "string",
          "name": "",
          "type": "string"
        }
      ],
      "stateMutability": "view",
      "type": "function"
    },
    {
      "inputs": [],
      "name": "initialize",
      "outputs": [],
      "stateMutability": "nonpayable",
      "type": "function"
    },
    {
      "inputs": [
        {
          "internalType": "address",
          "name": "account",
          "type": "address"
        },
        {
          "internalType": "address",
          "name": "operator",
          "type": "address"
        }
      ],
      "name": "isApprovedForAll",
      "outputs": [
        {
          "internalType": "bool",
          "name": "",
          "type": "bool"
        }
      ],
      "stateMutability": "view",
      "type": "function"
    },
    {
      "inputs": [
        {
          "internalType": "address",
          "name": "account",
          "type": "address"
        },
        {
          "internalType": "uint256",
          "name": "amount",
          "type": "uint256"
        },
        {
          "internalType": "bytes",
          "name": "data",
          "type": "bytes"
        }
      ],
      "name": "mint",
      "outputs": [],
      "stateMutability": "nonpayable",
      "type": "function"
    },
    {
      "inputs": [],
      "name": "proxiableUUID",
      "outputs": [
        {
          "internalType": "bytes32",
          "name": "",
          "type": "bytes32"
        }
      ],
      "stateMutability": "view",
      "type": "function"
    },
    {
      "inputs": [
        {
          "internalType": "bytes32",
          "name": "role",
          "type": "bytes32"
        },
        {
          "internalType": "address",
          "name": "account",
          "type": "address"
        }
      ],
      "name": "renounceRole",
      "outputs": [],
      "stateMutability": "nonpayable",
      "type": "function"
    },
    {
      "inputs": [
        {
          "internalType": "bytes32",
          "name": "role",
          "type": "bytes32"
        },
        {
          "internalType": "address",
          "name": "account",
          "type": "address"
        }
      ],
      "name": "revokeRole",
      "outputs": [],
      "stateMutability": "nonpayable",
      "type": "function"
    },
    {
      "inputs": [
        {
          "internalType": "bytes32",
          "name": "",
          "type": "bytes32"
        }
      ],
      "name": "rights",
      "outputs": [
        {
          "internalType": "string",
          "name": "",
          "type": "string"
        }
      ],
      "stateMutability": "view",
      "type": "function"
    },
    {
      "inputs": [
        {
          "internalType": "address",
          "name": "from",
          "type": "address"
        },
        {
          "internalType": "address",
          "name": "to",
          "type": "address"
        },
        {
          "internalType": "uint256[]",
          "name": "ids",
          "type": "uint256[]"
        },
        {
          "internalType": "uint256[]",
          "name": "amounts",
          "type": "uint256[]"
        },
        {
          "internalType": "bytes",
          "name": "data",
          "type": "bytes"
        }
      ],
      "name": "safeBatchTransferFrom",
      "outputs": [],
      "stateMutability": "nonpayable",
      "type": "function"
    },
    {
      "inputs": [
        {
          "internalType": "address",
          "name": "from",
          "type": "address"
        },
        {
          "internalType": "address",
          "name": "to",
          "type": "address"
        },
        {
          "internalType": "uint256",
          "name": "id",
          "type": "uint256"
        },
        {
          "internalType": "uint256",
          "name": "amount",
          "type": "uint256"
        },
        {
          "internalType": "bytes",
          "name": "data",
          "type": "bytes"
        }
      ],
      "name": "safeTransferFrom",
      "outputs": [],
      "stateMutability": "nonpayable",
      "type": "function"
    },
    {
      "inputs": [
        {
          "internalType": "address",
          "name": "operator",
          "type": "address"
        },
        {
          "internalType": "bool",
          "name": "approved",
          "type": "bool"
        }
      ],
      "name": "setApprovalForAll",
      "outputs": [],
      "stateMutability": "nonpayable",
      "type": "function"
    },
    {
      "inputs": [
        {
          "internalType": "uint256",
          "name": "id",
          "type": "uint256"
        }
      ],
      "name": "split",
      "outputs": [],
      "stateMutability": "nonpayable",
      "type": "function"
    },
    {
      "inputs": [
        {
          "internalType": "bytes4",
          "name": "interfaceId",
          "type": "bytes4"
        }
      ],
      "name": "supportsInterface",
      "outputs": [
        {
          "internalType": "bool",
          "name": "",
          "type": "bool"
        }
      ],
      "stateMutability": "view",
      "type": "function"
    },
    {
      "inputs": [
        {
          "internalType": "uint256",
          "name": "id",
          "type": "uint256"
        }
      ],
      "name": "totalSupply",
      "outputs": [
        {
          "internalType": "uint256",
          "name": "",
          "type": "uint256"
        }
      ],
      "stateMutability": "view",
      "type": "function"
    },
    {
      "inputs": [
        {
          "internalType": "address",
          "name": "newImplementation",
          "type": "address"
        }
      ],
      "name": "upgradeTo",
      "outputs": [],
      "stateMutability": "nonpayable",
      "type": "function"
    },
    {
      "inputs": [
        {
          "internalType": "address",
          "name": "newImplementation",
          "type": "address"
        },
        {
          "internalType": "bytes",
          "name": "data",
          "type": "bytes"
        }
      ],
      "name": "upgradeToAndCall",
      "outputs": [],
      "stateMutability": "payable",
      "type": "function"
    },
    {
      "inputs": [
        {
          "internalType": "uint256",
          "name": "tokenId",
          "type": "uint256"
        }
      ],
      "name": "uri",
      "outputs": [
        {
          "internalType": "string",
          "name": "",
          "type": "string"
        }
      ],
      "stateMutability": "view",
      "type": "function"
    },
    {
      "inputs": [],
      "name": "version",
      "outputs": [
        {
          "internalType": "uint256",
          "name": "",
          "type": "uint256"
        }
      ],
      "stateMutability": "pure",
      "type": "function"
    },
    {
      "inputs": [
        {
          "internalType": "bytes32",
          "name": "",
          "type": "bytes32"
        }
      ],
      "name": "workScopes",
      "outputs": [
        {
          "internalType": "string",
          "name": "",
          "type": "string"
        }
      ],
      "stateMutability": "view",
      "type": "function"
    }
  ],
  "bytecode": "0x60a0604052306080523480156200001557600080fd5b506200002062000026565b620000e8565b600054610100900460ff1615620000935760405162461bcd60e51b815260206004820152602760248201527f496e697469616c697a61626c653a20636f6e747261637420697320696e697469604482015266616c697a696e6760c81b606482015260840160405180910390fd5b60005460ff9081161015620000e6576000805460ff191660ff9081179091556040519081527f7f26b83ff96e1f2b6a682f133852f6798a09c465da95921460cefb38474024989060200160405180910390a15b565b608051614b2a6200012060003960008181610a7501528181610afa01528181610d2e01528181610db30152610e990152614b2a6000f3fe6080604052600436106102335760003560e01c806372927aa311610138578063d52fd095116100b0578063ef6f66d71161007f578063f242432a11610064578063f242432a146106d8578063f5298aca146106f8578063f72c0d8b1461071857600080fd5b8063ef6f66d714610698578063f0f11e05146106b857600080fd5b8063d52fd095146105ef578063d547741f1461060f578063dbceb0051461062f578063e985e9c51461064f57600080fd5b806394d008ef11610107578063a217fddf116100ec578063a217fddf1461058d578063a22cb465146105a2578063bd85b039146105c257600080fd5b806394d008ef1461054d578063997edc611461056d57600080fd5b806372927aa3146104a55780638129fc1c146104d25780638f88b767146104e757806391d148541461050757600080fd5b80633659cfe6116101cb5780634f558e791161019a57806354fd4d501161017f57806354fd4d501461045a57806361bc221a1461046e5780636b20c4541461048557600080fd5b80634f558e791461041657806352d1902d1461044557600080fd5b80633659cfe61461037a5780633a3acca51461039a5780634e1273f4146103d65780634f1ef2861461040357600080fd5b8063248a9ca311610207578063248a9ca3146102e85780632eb2c2d6146103185780632f2ff15d1461033a57806336568abe1461035a57600080fd5b8062fdd58e1461023857806301ffc9a71461026b5780630e89341c1461029b5780631e6ad4b8146102c8575b600080fd5b34801561024457600080fd5b50610258610253366004613abe565b61074c565b6040519081526020015b60405180910390f35b34801561027757600080fd5b5061028b610286366004613b00565b6107f7565b6040519015158152602001610262565b3480156102a757600080fd5b506102bb6102b6366004613b1d565b610808565b6040516102629190613b8e565b3480156102d457600080fd5b506102586102e3366004613c52565b610813565b3480156102f457600080fd5b50610258610303366004613b1d565b60009081526097602052604090206001015490565b34801561032457600080fd5b50610338610333366004613d58565b610921565b005b34801561034657600080fd5b50610338610355366004613e06565b6109b5565b34801561036657600080fd5b50610338610375366004613e06565b6109df565b34801561038657600080fd5b50610338610395366004613e36565b610a6b565b3480156103a657600080fd5b5061028b6103b5366004613abe565b6101c860209081526000928352604080842090915290825290205460ff1681565b3480156103e257600080fd5b506103f66103f1366004613e53565b610be6565b6040516102629190613f5b565b610338610411366004613f6e565b610d24565b34801561042257600080fd5b5061028b610431366004613b1d565b600090815260fb6020526040902054151590565b34801561045157600080fd5b50610258610e8c565b34801561046657600080fd5b506001610258565b34801561047a57600080fd5b506102586101c45481565b34801561049157600080fd5b506103386104a0366004613fb4565b610f52565b3480156104b157600080fd5b506104c56104c0366004613b1d565b610fdd565b6040516102629190614086565b3480156104de57600080fd5b506103386111fc565b3480156104f357600080fd5b506102bb610502366004613b1d565b611392565b34801561051357600080fd5b5061028b610522366004613e06565b60009182526097602090815260408084206001600160a01b0393909316845291905290205460ff1690565b34801561055957600080fd5b5061033861056836600461415c565b61142d565b34801561057957600080fd5b50610258610588366004613c52565b61174a565b34801561059957600080fd5b50610258600081565b3480156105ae57600080fd5b506103386105bd3660046141ab565b61184b565b3480156105ce57600080fd5b506102586105dd366004613b1d565b600090815260fb602052604090205490565b3480156105fb57600080fd5b506102bb61060a366004613b1d565b611856565b34801561061b57600080fd5b5061033861062a366004613e06565b611870565b34801561063b57600080fd5b5061033861064a366004613b1d565b611895565b34801561065b57600080fd5b5061028b61066a3660046141de565b6001600160a01b03918216600090815260666020908152604080832093909416825291909152205460ff1690565b3480156106a457600080fd5b506102bb6106b3366004613b1d565b611979565b3480156106c457600080fd5b506102586106d3366004613c52565b611993565b3480156106e457600080fd5b506103386106f336600461420c565b611a94565b34801561070457600080fd5b50610338610713366004614275565b611b21565b34801561072457600080fd5b506102587f189ab7a9244df0848122154315af71fe140f3db0fe014031783b0946b8c9d2e381565b60006001600160a01b0383166107cf5760405162461bcd60e51b815260206004820152602a60248201527f455243313135353a2061646472657373207a65726f206973206e6f742061207660448201527f616c6964206f776e65720000000000000000000000000000000000000000000060648201526084015b60405180910390fd5b5060009081526065602090815260408083206001600160a01b03949094168352929052205490565b600061080282611bac565b92915050565b606061080282611bd1565b6000808251116108655760405162461bcd60e51b815260206004820152601a60248201527f616464496d7061637453636f70653a20656d707479207465787400000000000060448201526064016107c6565b61086e82611cb3565b905061087c6101c682611ce3565b156108c95760405162461bcd60e51b815260206004820152601e60248201527f616464496d7061637453636f70653a20616c726561647920657869737473000060448201526064016107c6565b60008181526101c6602052604090206108e2838261432a565b507f2efcce702e3d0b95b3deb632da6d41c3d169e0c3effb9066d949f14d6f13224f81836040516109149291906143ea565b60405180910390a1919050565b6001600160a01b03851633148061093d575061093d853361066a565b6109a15760405162461bcd60e51b815260206004820152602f60248201527f455243313135353a2063616c6c6572206973206e6f7420746f6b656e206f776e60448201526e195c881b9bdc88185c1c1c9bdd9959608a1b60648201526084016107c6565b6109ae8585858585611d0a565b5050505050565b6000828152609760205260409020600101546109d081611f79565b6109da8383611f83565b505050565b6001600160a01b0381163314610a5d5760405162461bcd60e51b815260206004820152602f60248201527f416363657373436f6e74726f6c3a2063616e206f6e6c792072656e6f756e636560448201527f20726f6c657320666f722073656c66000000000000000000000000000000000060648201526084016107c6565b610a678282612025565b5050565b6001600160a01b037f0000000000000000000000000000000000000000000000000000000000000000163003610af85760405162461bcd60e51b815260206004820152602c60248201527f46756e6374696f6e206d7573742062652063616c6c6564207468726f7567682060448201526b19195b1959d85d1958d85b1b60a21b60648201526084016107c6565b7f00000000000000000000000000000000000000000000000000000000000000006001600160a01b0316610b537f360894a13ba1a3210667c828492db98dca3e2076cc3735a920a3ca505d382bbc546001600160a01b031690565b6001600160a01b031614610bbe5760405162461bcd60e51b815260206004820152602c60248201527f46756e6374696f6e206d7573742062652063616c6c6564207468726f7567682060448201526b6163746976652070726f787960a01b60648201526084016107c6565b610bc7816120a8565b60408051600080825260208201909252610be3918391906120d2565b50565b60608151835114610c5f5760405162461bcd60e51b815260206004820152602960248201527f455243313135353a206163636f756e747320616e6420696473206c656e67746860448201527f206d69736d61746368000000000000000000000000000000000000000000000060648201526084016107c6565b6000835167ffffffffffffffff811115610c7b57610c7b613ba1565b604051908082528060200260200182016040528015610ca4578160200160208202803683370190505b50905060005b8451811015610d1c57610cef858281518110610cc857610cc8614403565b6020026020010151858381518110610ce257610ce2614403565b602002602001015161074c565b828281518110610d0157610d01614403565b6020908102919091010152610d158161442f565b9050610caa565b509392505050565b6001600160a01b037f0000000000000000000000000000000000000000000000000000000000000000163003610db15760405162461bcd60e51b815260206004820152602c60248201527f46756e6374696f6e206d7573742062652063616c6c6564207468726f7567682060448201526b19195b1959d85d1958d85b1b60a21b60648201526084016107c6565b7f00000000000000000000000000000000000000000000000000000000000000006001600160a01b0316610e0c7f360894a13ba1a3210667c828492db98dca3e2076cc3735a920a3ca505d382bbc546001600160a01b031690565b6001600160a01b031614610e775760405162461bcd60e51b815260206004820152602c60248201527f46756e6374696f6e206d7573742062652063616c6c6564207468726f7567682060448201526b6163746976652070726f787960a01b60648201526084016107c6565b610e80826120a8565b610a67828260016120d2565b6000306001600160a01b037f00000000000000000000000000000000000000000000000000000000000000001614610f2c5760405162461bcd60e51b815260206004820152603860248201527f555550535570677261646561626c653a206d757374206e6f742062652063616c60448201527f6c6564207468726f7567682064656c656761746563616c6c000000000000000060648201526084016107c6565b507f360894a13ba1a3210667c828492db98dca3e2076cc3735a920a3ca505d382bbc5b90565b6001600160a01b038316331480610f6e5750610f6e833361066a565b610fd25760405162461bcd60e51b815260206004820152602f60248201527f455243313135353a2063616c6c6572206973206e6f7420746f6b656e206f776e60448201526e195c881b9bdc88185c1c1c9bdd9959608a1b60648201526084016107c6565b6109da838383612272565b610fe5613943565b60008281526101c96020908152604091829020825161012081018452815481526001820180548551818602810186019096528086529194929385810193929083018282801561105d57602002820191906000526020600020905b81546001600160a01b0316815260019091019060200180831161103f575b505050918352505060408051808201918290526020909201919060028481019182845b815481526020019060010190808311611080575050509183525050604080518082019182905260209092019190600484019060029082845b8154815260200190600101908083116110b857505050505081526020016006820180548060200260200160405190810160405280929190818152602001828054801561112357602002820191906000526020600020905b81548152602001906001019080831161110f575b505050505081526020016007820180548060200260200160405190810160405280929190818152602001828054801561117b57602002820191906000526020600020905b815481526020019060010190808311611167575b50505050508152602001600882018054806020026020016040519081016040528092919081815260200182805480156111d357602002820191906000526020600020905b8154815260200190600101908083116111bf575b505050918352505060098201546020820152600a9091015460ff16151560409091015292915050565b600054610100900460ff161580801561121c5750600054600160ff909116105b806112365750303b158015611236575060005460ff166001145b6112a85760405162461bcd60e51b815260206004820152602e60248201527f496e697469616c697a61626c653a20636f6e747261637420697320616c72656160448201527f647920696e697469616c697a656400000000000000000000000000000000000060648201526084016107c6565b6000805460ff1916600117905580156112cb576000805461ff0019166101001790555b6112e3604051806020016040528060008152506124cc565b6112eb612540565b6112f3612540565b6112fb6125ad565b611303612540565b61130e600033611f83565b6113387f189ab7a9244df0848122154315af71fe140f3db0fe014031783b0946b8c9d2e333611f83565b6101c3805461ffff1916905560006101c4558015610be3576000805461ff0019169055604051600181527f7f26b83ff96e1f2b6a682f133852f6798a09c465da95921460cefb38474024989060200160405180910390a150565b6101c560205260009081526040902080546113ac906142aa565b80601f01602080910402602001604051908101604052809291908181526020018280546113d8906142aa565b80156114255780601f106113fa57610100808354040283529160200191611425565b820191906000526020600020905b81548152906001019060200180831161140857829003601f168201915b505050505081565b6001600160a01b0383166114835760405162461bcd60e51b815260206004820152601e60248201527f4d696e743a206d696e7420746f20746865207a65726f2061646472657373000060448201526064016107c6565b60008061148f83612620565b9150915060005b8260a001515181101561152a576114cc6101c68460a0015183815181106114bf576114bf614403565b6020026020010151611ce3565b6115185760405162461bcd60e51b815260206004820152601a60248201527f4d696e743a20696e76616c696420696d706163742073636f706500000000000060448201526064016107c6565b806115228161442f565b915050611496565b5060005b8260800151518110156115b5576115576101c5846080015183815181106114bf576114bf614403565b6115a35760405162461bcd60e51b815260206004820152601860248201527f4d696e743a20696e76616c696420776f726b2073636f7065000000000000000060448201526064016107c6565b806115ad8161442f565b91505061152e565b506115c882600001518360200151612736565b6101c45460009081526101c9602090815260409091208351815581840151805185936115fb92600185019291019061399c565b5060408201516116119060028084019190613a0e565b5060608201516116279060048301906002613a0e565b5060808201518051611643916006840191602090910190613a3c565b5060a0820151805161165f916007840191602090910190613a3c565b5060c0820151805161167b916008840191602090910190613a3c565b5060e0820151600982015561010090910151600a909101805460ff19169115159190911790556101c4546116af908261286a565b6116be856101c45486866128c8565b7f8a5e2ad605927fd0538691713998234ea0be291a0621aadc32da2b59b5ea63626101c454836000015184602001518560400151866060015187608001518860a001518960c001518a60e001518a6040516117229a99989796959493929190614448565b60405180910390a160016101c4600082825461173e91906144ed565b90915550505050505050565b60008082511161179c5760405162461bcd60e51b815260206004820152601860248201527f616464576f726b53636f70653a20656d7074792074657874000000000000000060448201526064016107c6565b6117a582611cb3565b90506117b36101c582611ce3565b156118005760405162461bcd60e51b815260206004820152601c60248201527f616464576f726b53636f70653a20616c7265616479206578697374730000000060448201526064016107c6565b60008181526101c560205260409020611819838261432a565b507f8b841033bc947e807d9766c542105a3dbb0bae62591be7b5c8cd4f37f698bf7381836040516109149291906143ea565b610a673383836129ed565b6101c760205260009081526040902080546113ac906142aa565b60008281526097602052604090206001015461188b81611f79565b6109da8383612025565b600081815260fb60205260409020546118f05760405162461bcd60e51b815260206004820152601a60248201527f4d696e743a20746f6b656e20646f6573206e6f7420657869737400000000000060448201526064016107c6565b6040805160018082528183019092526000916020808301908036833701905050905061191d8260016144ed565b8160008151811061193057611930614403565b6020026020010181815250507fca2f7fad4853b2caaacf1c70ceb2140e76e34dd669e810522fb8d5e9490cd21e828260405161196d929190614505565b60405180910390a15050565b6101c660205260009081526040902080546113ac906142aa565b6000808251116119e55760405162461bcd60e51b815260206004820152601460248201527f61646452696768743a20656d707479207465787400000000000000000000000060448201526064016107c6565b6119ee82611cb3565b90506119fc6101c782611ce3565b15611a495760405162461bcd60e51b815260206004820152601860248201527f61646452696768743a20616c726561647920657869737473000000000000000060448201526064016107c6565b60008181526101c760205260409020611a62838261432a565b507f4527d373276b1ece0c8dd18e140572f93feffd35a0993d9e4de70623b1ac93ce81836040516109149291906143ea565b6001600160a01b038516331480611ab05750611ab0853361066a565b611b145760405162461bcd60e51b815260206004820152602f60248201527f455243313135353a2063616c6c6572206973206e6f7420746f6b656e206f776e60448201526e195c881b9bdc88185c1c1c9bdd9959608a1b60648201526084016107c6565b6109ae8585858585612ae1565b6001600160a01b038316331480611b3d5750611b3d833361066a565b611ba15760405162461bcd60e51b815260206004820152602f60248201527f455243313135353a2063616c6c6572206973206e6f7420746f6b656e206f776e60448201526e195c881b9bdc88185c1c1c9bdd9959608a1b60648201526084016107c6565b6109da838383612c9e565b60006001600160e01b03198216637965db0b60e01b1480610802575061080282612e32565b600081815261012e6020526040812080546060929190611bf0906142aa565b80601f0160208091040260200160405190810160405280929190818152602001828054611c1c906142aa565b8015611c695780601f10611c3e57610100808354040283529160200191611c69565b820191906000526020600020905b815481529060010190602001808311611c4c57829003601f168201915b505050505090506000815111611c8757611c8283612e82565b611cac565b61012d81604051602001611c9c92919061451e565b6040516020818303038152906040525b9392505050565b600081604051602001611cc69190613b8e565b604051602081830303815290604052805190602001209050919050565b60008181526020839052604081208054829190611cff906142aa565b905011905092915050565b8151835114611d6c5760405162461bcd60e51b815260206004820152602860248201527f455243313135353a2069647320616e6420616d6f756e7473206c656e677468206044820152670dad2e6dac2e8c6d60c31b60648201526084016107c6565b6001600160a01b038416611dd05760405162461bcd60e51b815260206004820152602560248201527f455243313135353a207472616e7366657220746f20746865207a65726f206164604482015264647265737360d81b60648201526084016107c6565b33611ddf818787878787612f16565b60005b8451811015611f0b576000858281518110611dff57611dff614403565b602002602001015190506000858381518110611e1d57611e1d614403565b60209081029190910181015160008481526065835260408082206001600160a01b038e168352909352919091205490915081811015611eb15760405162461bcd60e51b815260206004820152602a60248201527f455243313135353a20696e73756666696369656e742062616c616e636520666f60448201526939103a3930b739b332b960b11b60648201526084016107c6565b60008381526065602090815260408083206001600160a01b038e8116855292528083208585039055908b16825281208054849290611ef09084906144ed565b9250508190555050505080611f049061442f565b9050611de2565b50846001600160a01b0316866001600160a01b0316826001600160a01b03167f4a39dc06d4c0dbc64b70af90fd698a233a518aa5d07e595d983b8c0526c8f7fb8787604051611f5b9291906145a5565b60405180910390a4611f71818787878787612f24565b505050505050565b610be381336130c9565b60008281526097602090815260408083206001600160a01b038516845290915290205460ff16610a675760008281526097602090815260408083206001600160a01b03851684529091529020805460ff19166001179055611fe13390565b6001600160a01b0316816001600160a01b0316837f2f8788117e7eff1d82e926ec794901d17c78024a50270940304540a733656f0d60405160405180910390a45050565b60008281526097602090815260408083206001600160a01b038516845290915290205460ff1615610a675760008281526097602090815260408083206001600160a01b0385168085529252808320805460ff1916905551339285917ff6391f5c32d9c69d2a47ea670b442974b53935d1edc7fd64eb21e047a839171b9190a45050565b7f189ab7a9244df0848122154315af71fe140f3db0fe014031783b0946b8c9d2e3610a6781611f79565b7f4910fdfa16fed3260ed0e7147f7cc6da11a60208b5b9406d12a635614ffd91435460ff1615612105576109da83613149565b826001600160a01b03166352d1902d6040518163ffffffff1660e01b8152600401602060405180830381865afa92505050801561215f575060408051601f3d908101601f1916820190925261215c918101906145ca565b60015b6121d15760405162461bcd60e51b815260206004820152602e60248201527f45524331393637557067726164653a206e657720696d706c656d656e7461746960448201527f6f6e206973206e6f74205555505300000000000000000000000000000000000060648201526084016107c6565b7f360894a13ba1a3210667c828492db98dca3e2076cc3735a920a3ca505d382bbc81146122665760405162461bcd60e51b815260206004820152602960248201527f45524331393637557067726164653a20756e737570706f727465642070726f7860448201527f6961626c6555554944000000000000000000000000000000000000000000000060648201526084016107c6565b506109da838383613214565b6001600160a01b0383166122d45760405162461bcd60e51b815260206004820152602360248201527f455243313135353a206275726e2066726f6d20746865207a65726f206164647260448201526265737360e81b60648201526084016107c6565b80518251146123365760405162461bcd60e51b815260206004820152602860248201527f455243313135353a2069647320616e6420616d6f756e7473206c656e677468206044820152670dad2e6dac2e8c6d60c31b60648201526084016107c6565b600033905061235981856000868660405180602001604052806000815250612f16565b60005b835181101561245d57600084828151811061237957612379614403565b60200260200101519050600084838151811061239757612397614403565b60209081029190910181015160008481526065835260408082206001600160a01b038c1683529093529190912054909150818110156124245760405162461bcd60e51b8152602060048201526024808201527f455243313135353a206275726e20616d6f756e7420657863656564732062616c604482015263616e636560e01b60648201526084016107c6565b60009283526065602090815260408085206001600160a01b038b16865290915290922091039055806124558161442f565b91505061235c565b5060006001600160a01b0316846001600160a01b0316826001600160a01b03167f4a39dc06d4c0dbc64b70af90fd698a233a518aa5d07e595d983b8c0526c8f7fb86866040516124ae9291906145a5565b60405180910390a46040805160208101909152600090525b50505050565b600054610100900460ff166125375760405162461bcd60e51b815260206004820152602b60248201527f496e697469616c697a61626c653a20636f6e7472616374206973206e6f74206960448201526a6e697469616c697a696e6760a81b60648201526084016107c6565b610be381613239565b600054610100900460ff166125ab5760405162461bcd60e51b815260206004820152602b60248201527f496e697469616c697a61626c653a20636f6e7472616374206973206e6f74206960448201526a6e697469616c697a696e6760a81b60648201526084016107c6565b565b600054610100900460ff166126185760405162461bcd60e51b815260206004820152602b60248201527f496e697469616c697a61626c653a20636f6e7472616374206973206e6f74206960448201526a6e697469616c697a696e6760a81b60648201526084016107c6565b6125ab6132ad565b612628613943565b6060600083511161267b5760405162461bcd60e51b815260206004820152601760248201527f50617273653a20696e707574206461746120656d70747900000000000000000060448201526064016107c6565b60006001905060008060008060008060008a8060200190518101906126a09190614777565b96509650965096509650965096506000848785888c6040516020016126c995949392919061486e565b6040516020818303038152906040528051906020012090506126e9613943565b908152602081019290925260408201939093526060810191909152608081019390935260a083019190915260c082019290925260e081019290925260016101008301529094909350915050565b60005b81518110156109da576101c8600083838151811061275957612759614403565b6020908102919091018101516001600160a01b03168252818101929092526040908101600090812086825290925290205460ff16156128005760405162461bcd60e51b815260206004820152602560248201527f436c61696d3a20636c61696d20666f722063726561746f7273206f7665726c6160448201527f7070696e6700000000000000000000000000000000000000000000000000000060648201526084016107c6565b60016101c8600084848151811061281957612819614403565b6020908102919091018101516001600160a01b0316825281810192909252604090810160009081208782529092529020805460ff1916911515919091179055806128628161442f565b915050612739565b600082815261012e60205260409020612883828261432a565b50817f6bb7ff708619ba0610cba295a58592e0451dee2622938c8755667688daf3529b6128af84610808565b6040516128bc9190613b8e565b60405180910390a25050565b6001600160a01b0384166129285760405162461bcd60e51b815260206004820152602160248201527f455243313135353a206d696e7420746f20746865207a65726f206164647265736044820152607360f81b60648201526084016107c6565b33600061293485613335565b9050600061294185613335565b905061295283600089858589612f16565b60008681526065602090815260408083206001600160a01b038b168452909152812080548792906129849084906144ed565b909155505060408051878152602081018790526001600160a01b03808a1692600092918716917fc3d58168c5ae7397731d063d5bbf3d657854427343f4c083240f7aacaa2d0f62910160405180910390a46129e483600089898989613380565b50505050505050565b816001600160a01b0316836001600160a01b031603612a745760405162461bcd60e51b815260206004820152602960248201527f455243313135353a2073657474696e6720617070726f76616c2073746174757360448201527f20666f722073656c66000000000000000000000000000000000000000000000060648201526084016107c6565b6001600160a01b03838116600081815260666020908152604080832094871680845294825291829020805460ff191686151590811790915591519182527f17307eab39ab6107e8899845ad3d59bd9653f200f220920489ca2b5937696c31910160405180910390a3505050565b6001600160a01b038416612b455760405162461bcd60e51b815260206004820152602560248201527f455243313135353a207472616e7366657220746f20746865207a65726f206164604482015264647265737360d81b60648201526084016107c6565b336000612b5185613335565b90506000612b5e85613335565b9050612b6e838989858589612f16565b60008681526065602090815260408083206001600160a01b038c16845290915290205485811015612bf45760405162461bcd60e51b815260206004820152602a60248201527f455243313135353a20696e73756666696369656e742062616c616e636520666f60448201526939103a3930b739b332b960b11b60648201526084016107c6565b60008781526065602090815260408083206001600160a01b038d8116855292528083208985039055908a16825281208054889290612c339084906144ed565b909155505060408051888152602081018890526001600160a01b03808b16928c821692918816917fc3d58168c5ae7397731d063d5bbf3d657854427343f4c083240f7aacaa2d0f62910160405180910390a4612c93848a8a8a8a8a613380565b505050505050505050565b6001600160a01b038316612d005760405162461bcd60e51b815260206004820152602360248201527f455243313135353a206275726e2066726f6d20746865207a65726f206164647260448201526265737360e81b60648201526084016107c6565b336000612d0c84613335565b90506000612d1984613335565b9050612d3983876000858560405180602001604052806000815250612f16565b60008581526065602090815260408083206001600160a01b038a16845290915290205484811015612db85760405162461bcd60e51b8152602060048201526024808201527f455243313135353a206275726e20616d6f756e7420657863656564732062616c604482015263616e636560e01b60648201526084016107c6565b60008681526065602090815260408083206001600160a01b038b81168086529184528285208a8703905582518b81529384018a90529092908816917fc3d58168c5ae7397731d063d5bbf3d657854427343f4c083240f7aacaa2d0f62910160405180910390a46040805160208101909152600090526129e4565b60006001600160e01b03198216636cdb3d1360e11b1480612e6357506001600160e01b031982166303a24d0760e21b145b8061080257506301ffc9a760e01b6001600160e01b0319831614610802565b606060678054612e91906142aa565b80601f0160208091040260200160405190810160405280929190818152602001828054612ebd906142aa565b8015612f0a5780601f10612edf57610100808354040283529160200191612f0a565b820191906000526020600020905b815481529060010190602001808311612eed57829003601f168201915b50505050509050919050565b611f7186868686868661347c565b6001600160a01b0384163b15611f715760405163bc197c8160e01b81526001600160a01b0385169063bc197c8190612f6890899089908890889088906004016148c0565b6020604051808303816000875af1925050508015612fa3575060408051601f3d908101601f19168201909252612fa09181019061491e565b60015b61305857612faf61493b565b806308c379a003612fe85750612fc3614956565b80612fce5750612fea565b8060405162461bcd60e51b81526004016107c69190613b8e565b505b60405162461bcd60e51b815260206004820152603460248201527f455243313135353a207472616e7366657220746f206e6f6e204552433131353560448201527f526563656976657220696d706c656d656e74657200000000000000000000000060648201526084016107c6565b6001600160e01b0319811663bc197c8160e01b146129e45760405162461bcd60e51b815260206004820152602860248201527f455243313135353a204552433131353552656365697665722072656a656374656044820152676420746f6b656e7360c01b60648201526084016107c6565b60008281526097602090815260408083206001600160a01b038516845290915290205460ff16610a6757613107816001600160a01b0316601461360a565b61311283602061360a565b6040516020016131239291906149e0565b60408051601f198184030181529082905262461bcd60e51b82526107c691600401613b8e565b6001600160a01b0381163b6131c65760405162461bcd60e51b815260206004820152602d60248201527f455243313936373a206e657720696d706c656d656e746174696f6e206973206e60448201527f6f74206120636f6e74726163740000000000000000000000000000000000000060648201526084016107c6565b7f360894a13ba1a3210667c828492db98dca3e2076cc3735a920a3ca505d382bbc805473ffffffffffffffffffffffffffffffffffffffff19166001600160a01b0392909216919091179055565b61321d836137b3565b60008251118061322a5750805b156109da576124c683836137f3565b600054610100900460ff166132a45760405162461bcd60e51b815260206004820152602b60248201527f496e697469616c697a61626c653a20636f6e7472616374206973206e6f74206960448201526a6e697469616c697a696e6760a81b60648201526084016107c6565b610be3816138fe565b600054610100900460ff166133185760405162461bcd60e51b815260206004820152602b60248201527f496e697469616c697a61626c653a20636f6e7472616374206973206e6f74206960448201526a6e697469616c697a696e6760a81b60648201526084016107c6565b60408051602081019091526000815261012d90610be3908261432a565b6040805160018082528183019092526060916000919060208083019080368337019050509050828160008151811061336f5761336f614403565b602090810291909101015292915050565b6001600160a01b0384163b15611f715760405163f23a6e6160e01b81526001600160a01b0385169063f23a6e61906133c49089908990889088908890600401614a61565b6020604051808303816000875af19250505080156133ff575060408051601f3d908101601f191682019092526133fc9181019061491e565b60015b61340b57612faf61493b565b6001600160e01b0319811663f23a6e6160e01b146129e45760405162461bcd60e51b815260206004820152602860248201527f455243313135353a204552433131353552656365697665722072656a656374656044820152676420746f6b656e7360c01b60648201526084016107c6565b6001600160a01b0385166135035760005b8351811015613501578281815181106134a8576134a8614403565b602002602001015160fb60008684815181106134c6576134c6614403565b6020026020010151815260200190815260200160002060008282546134eb91906144ed565b909155506134fa90508161442f565b905061348d565b505b6001600160a01b038416611f715760005b83518110156129e457600084828151811061353157613531614403565b60200260200101519050600084838151811061354f5761354f614403565b60200260200101519050600060fb6000848152602001908152602001600020549050818110156135e75760405162461bcd60e51b815260206004820152602860248201527f455243313135353a206275726e20616d6f756e74206578636565647320746f7460448201527f616c537570706c7900000000000000000000000000000000000000000000000060648201526084016107c6565b600092835260fb6020526040909220910390556136038161442f565b9050613514565b60606000613619836002614aa4565b6136249060026144ed565b67ffffffffffffffff81111561363c5761363c613ba1565b6040519080825280601f01601f191660200182016040528015613666576020820181803683370190505b509050600360fc1b8160008151811061368157613681614403565b60200101906001600160f81b031916908160001a905350600f60fb1b816001815181106136b0576136b0614403565b60200101906001600160f81b031916908160001a90535060006136d4846002614aa4565b6136df9060016144ed565b90505b6001811115613764577f303132333435363738396162636465660000000000000000000000000000000085600f166010811061372057613720614403565b1a60f81b82828151811061373657613736614403565b60200101906001600160f81b031916908160001a90535060049490941c9361375d81614ac3565b90506136e2565b508315611cac5760405162461bcd60e51b815260206004820181905260248201527f537472696e67733a20686578206c656e67746820696e73756666696369656e7460448201526064016107c6565b6137bc81613149565b6040516001600160a01b038216907fbc7cd75a20ee27fd9adebab32041f755214dbc6bffa90cc0225b39da2e5c2d3b90600090a250565b60606001600160a01b0383163b6138725760405162461bcd60e51b815260206004820152602660248201527f416464726573733a2064656c65676174652063616c6c20746f206e6f6e2d636f60448201527f6e7472616374000000000000000000000000000000000000000000000000000060648201526084016107c6565b600080846001600160a01b03168460405161388d9190614ada565b600060405180830381855af49150503d80600081146138c8576040519150601f19603f3d011682016040523d82523d6000602084013e6138cd565b606091505b50915091506138f58282604051806060016040528060278152602001614af76027913961390a565b95945050505050565b6067610a67828261432a565b60608315613919575081611cac565b8251156139295782518084602001fd5b8160405162461bcd60e51b81526004016107c69190613b8e565b60408051610120810182526000815260606020820152908101613964613a76565b8152602001613971613a76565b8152602001606081526020016060815260200160608152602001600081526020016000151581525090565b8280548282559060005260206000209081019282156139fe579160200282015b828111156139fe578251825473ffffffffffffffffffffffffffffffffffffffff19166001600160a01b039091161782556020909201916001909101906139bc565b50613a0a929150613a94565b5090565b82600281019282156139fe579160200282015b828111156139fe578251825591602001919060010190613a21565b8280548282559060005260206000209081019282156139fe57916020028201828111156139fe578251825591602001919060010190613a21565b60405180604001604052806002906020820280368337509192915050565b5b80821115613a0a5760008155600101613a95565b6001600160a01b0381168114610be357600080fd5b60008060408385031215613ad157600080fd5b8235613adc81613aa9565b946020939093013593505050565b6001600160e01b031981168114610be357600080fd5b600060208284031215613b1257600080fd5b8135611cac81613aea565b600060208284031215613b2f57600080fd5b5035919050565b60005b83811015613b51578181015183820152602001613b39565b838111156124c65750506000910152565b60008151808452613b7a816020860160208601613b36565b601f01601f19169290920160200192915050565b602081526000611cac6020830184613b62565b634e487b7160e01b600052604160045260246000fd5b601f8201601f1916810167ffffffffffffffff81118282101715613bdd57613bdd613ba1565b6040525050565b600067ffffffffffffffff821115613bfe57613bfe613ba1565b50601f01601f191660200190565b6000613c1783613be4565b604051613c248282613bb7565b809250848152858585011115613c3957600080fd5b8484602083013760006020868301015250509392505050565b600060208284031215613c6457600080fd5b813567ffffffffffffffff811115613c7b57600080fd5b8201601f81018413613c8c57600080fd5b613c9b84823560208401613c0c565b949350505050565b600067ffffffffffffffff821115613cbd57613cbd613ba1565b5060051b60200190565b600082601f830112613cd857600080fd5b81356020613ce582613ca3565b604051613cf28282613bb7565b83815260059390931b8501820192828101915086841115613d1257600080fd5b8286015b84811015613d2d5780358352918301918301613d16565b509695505050505050565b600082601f830112613d4957600080fd5b611cac83833560208501613c0c565b600080600080600060a08688031215613d7057600080fd5b8535613d7b81613aa9565b94506020860135613d8b81613aa9565b9350604086013567ffffffffffffffff80821115613da857600080fd5b613db489838a01613cc7565b94506060880135915080821115613dca57600080fd5b613dd689838a01613cc7565b93506080880135915080821115613dec57600080fd5b50613df988828901613d38565b9150509295509295909350565b60008060408385031215613e1957600080fd5b823591506020830135613e2b81613aa9565b809150509250929050565b600060208284031215613e4857600080fd5b8135611cac81613aa9565b60008060408385031215613e6657600080fd5b823567ffffffffffffffff80821115613e7e57600080fd5b818501915085601f830112613e9257600080fd5b81356020613e9f82613ca3565b604051613eac8282613bb7565b83815260059390931b8501820192828101915089841115613ecc57600080fd5b948201945b83861015613ef3578535613ee481613aa9565b82529482019490820190613ed1565b96505086013592505080821115613f0957600080fd5b50613f1685828601613cc7565b9150509250929050565b600081518084526020808501945080840160005b83811015613f5057815187529582019590820190600101613f34565b509495945050505050565b602081526000611cac6020830184613f20565b60008060408385031215613f8157600080fd5b8235613f8c81613aa9565b9150602083013567ffffffffffffffff811115613fa857600080fd5b613f1685828601613d38565b600080600060608486031215613fc957600080fd5b8335613fd481613aa9565b9250602084013567ffffffffffffffff80821115613ff157600080fd5b613ffd87838801613cc7565b9350604086013591508082111561401357600080fd5b5061402086828701613cc7565b9150509250925092565b600081518084526020808501945080840160005b83811015613f505781516001600160a01b03168752958201959082019060010161403e565b8060005b60028110156124c6578151845260209384019390910190600101614067565b6020815281516020820152600060208301516101608060408501526140af61018085018361402a565b915060408501516140c36060860182614063565b5060608501516140d660a0860182614063565b506080850151601f19808685030160e08701526140f38483613f20565b935060a087015191506101008187860301818801526141128584613f20565b945060c0880151925081878603016101208801526141308584613f20565b945060e088015161014088015280880151925050506141528286018215159052565b5090949350505050565b60008060006060848603121561417157600080fd5b833561417c81613aa9565b925060208401359150604084013567ffffffffffffffff81111561419f57600080fd5b61402086828701613d38565b600080604083850312156141be57600080fd5b82356141c981613aa9565b915060208301358015158114613e2b57600080fd5b600080604083850312156141f157600080fd5b82356141fc81613aa9565b91506020830135613e2b81613aa9565b600080600080600060a0868803121561422457600080fd5b853561422f81613aa9565b9450602086013561423f81613aa9565b93506040860135925060608601359150608086013567ffffffffffffffff81111561426957600080fd5b613df988828901613d38565b60008060006060848603121561428a57600080fd5b833561429581613aa9565b95602085013595506040909401359392505050565b600181811c908216806142be57607f821691505b6020821081036142de57634e487b7160e01b600052602260045260246000fd5b50919050565b601f8211156109da57600081815260208120601f850160051c8101602086101561430b5750805b601f850160051c820191505b81811015611f7157828155600101614317565b815167ffffffffffffffff81111561434457614344613ba1565b6143588161435284546142aa565b846142e4565b602080601f83116001811461438d57600084156143755750858301515b600019600386901b1c1916600185901b178555611f71565b600085815260208120601f198616915b828110156143bc5788860151825594840194600190910190840161439d565b50858210156143da5787850151600019600388901b60f8161c191681555b5050505050600190811b01905550565b828152604060208201526000613c9b6040830184613b62565b634e487b7160e01b600052603260045260246000fd5b634e487b7160e01b600052601160045260246000fd5b60006001820161444157614441614419565b5060010190565b60006101808c83528b60208401528060408401526144688184018c61402a565b9050614477606084018b614063565b61448460a084018a614063565b82810360e08401526144968189613f20565b90508281036101008401526144ab8188613f20565b90508281036101208401526144c08187613f20565b9050846101408401528281036101608401526144dc8185613b62565b9d9c50505050505050505050505050565b6000821982111561450057614500614419565b500190565b828152604060208201526000613c9b6040830184613f20565b600080845461452c816142aa565b60018281168015614544576001811461455957614588565b60ff1984168752821515830287019450614588565b8860005260208060002060005b8581101561457f5781548a820152908401908201614566565b50505082870194505b50505050835161459c818360208801613b36565b01949350505050565b6040815260006145b86040830185613f20565b82810360208401526138f58185613f20565b6000602082840312156145dc57600080fd5b5051919050565b600082601f8301126145f457600080fd5b8151602061460182613ca3565b60405161460e8282613bb7565b83815260059390931b850182019282810191508684111561462e57600080fd5b8286015b84811015613d2d5780518352918301918301614632565b600082601f83011261465a57600080fd5b6040516040810181811067ffffffffffffffff8211171561467d5761467d613ba1565b806040525080604084018581111561469457600080fd5b845b818110156146ae578051835260209283019201614696565b509195945050505050565b600082601f8301126146ca57600080fd5b815160206146d782613ca3565b6040516146e48282613bb7565b83815260059390931b850182019282810191508684111561470457600080fd5b8286015b84811015613d2d57805161471b81613aa9565b8352918301918301614708565b600082601f83011261473957600080fd5b815161474481613be4565b6040516147518282613bb7565b82815285602084870101111561476657600080fd5b6138f5836020830160208801613b36565b6000806000806000806000610120888a03121561479357600080fd5b875167ffffffffffffffff808211156147ab57600080fd5b6147b78b838c016145e3565b985060208a01519150808211156147cd57600080fd5b6147d98b838c016145e3565b975060408a01519150808211156147ef57600080fd5b6147fb8b838c016145e3565b965061480a8b60608c01614649565b95506148198b60a08c01614649565b945060e08a015191508082111561482f57600080fd5b61483b8b838c016146b9565b93506101008a015191508082111561485257600080fd5b5061485f8a828b01614728565b91505092959891949750929550565b6148788187614063565b60e06040820152600061488e60e0830187613f20565b61489b6060840187614063565b82810360a08401526148ad8186613f20565b9150508260c08301529695505050505050565b60006001600160a01b03808816835280871660208401525060a060408301526148ec60a0830186613f20565b82810360608401526148fe8186613f20565b905082810360808401526149128185613b62565b98975050505050505050565b60006020828403121561493057600080fd5b8151611cac81613aea565b600060033d1115610f4f5760046000803e5060005160e01c90565b600060443d10156149645790565b6040516003193d81016004833e81513d67ffffffffffffffff816024840111818411171561499457505050505090565b82850191508151818111156149ac5750505050505090565b843d87010160208285010111156149c65750505050505090565b6149d560208286010187613bb7565b509095945050505050565b7f416363657373436f6e74726f6c3a206163636f756e7420000000000000000000815260008351614a18816017850160208801613b36565b7f206973206d697373696e6720726f6c65200000000000000000000000000000006017918401918201528351614a55816028840160208801613b36565b01602801949350505050565b60006001600160a01b03808816835280871660208401525084604083015283606083015260a06080830152614a9960a0830184613b62565b979650505050505050565b6000816000190483118215151615614abe57614abe614419565b500290565b600081614ad257614ad2614419565b506000190190565b60008251614aec818460208701613b36565b919091019291505056fe416464726573733a206c6f772d6c6576656c2064656c65676174652063616c6c206661696c6564a164736f6c634300080f000a",
  "linkReferences": {},
  "deployedLinkReferences": {}
}