{
  "_format": "hh-sol-artifact-1",
  "contractName": "HypercertMinterUpgrade",
  "sourceName": "contracts/mocks/HypercertMinterUpgrade.sol",
  "abi": [
    {
      "inputs": [],
      "stateMutability": "nonpayable",
      "type": "constructor"
    },
    {
      "anonymous": false,
      "inputs": [
        {
          "indexed": false,
          "internalType": "address",
          "name": "previousAdmin",
          "type": "address"
        },
        {
          "indexed": false,
          "internalType": "address",
          "name": "newAdmin",
          "type": "address"
        }
      ],
      "name": "AdminChanged",
      "type": "event"
    },
    {
      "anonymous": false,
      "inputs": [
        {
          "indexed": true,
          "internalType": "address",
          "name": "account",
          "type": "address"
        },
        {
          "indexed": true,
          "internalType": "address",
          "name": "operator",
          "type": "address"
        },
        {
          "indexed": false,
          "internalType": "bool",
          "name": "approved",
          "type": "bool"
        }
      ],
      "name": "ApprovalForAll",
      "type": "event"
    },
    {
      "anonymous": false,
      "inputs": [
        {
          "indexed": true,
          "internalType": "address",
          "name": "beacon",
          "type": "address"
        }
      ],
      "name": "BeaconUpgraded",
      "type": "event"
    },
    {
      "anonymous": false,
      "inputs": [
        {
          "indexed": false,
          "internalType": "uint256",
          "name": "id",
          "type": "uint256"
        },
        {
          "indexed": false,
          "internalType": "address",
          "name": "minter",
          "type": "address"
        },
        {
          "indexed": false,
          "internalType": "bytes32",
          "name": "claimHash",
          "type": "bytes32"
        },
        {
          "indexed": false,
          "internalType": "address[]",
          "name": "contributors",
          "type": "address[]"
        },
        {
          "indexed": false,
          "internalType": "uint64[2]",
          "name": "workTimeframe",
          "type": "uint64[2]"
        },
        {
          "indexed": false,
          "internalType": "uint64[2]",
          "name": "impactTimeframe",
          "type": "uint64[2]"
        },
        {
          "indexed": false,
          "internalType": "bytes32[]",
          "name": "workScopes",
          "type": "bytes32[]"
        },
        {
          "indexed": false,
          "internalType": "bytes32[]",
          "name": "impactScopes",
          "type": "bytes32[]"
        },
        {
          "indexed": false,
          "internalType": "bytes32[]",
          "name": "rights",
          "type": "bytes32[]"
        },
        {
          "indexed": false,
          "internalType": "uint64",
          "name": "version",
          "type": "uint64"
        },
        {
          "indexed": false,
          "internalType": "string",
          "name": "uri",
          "type": "string"
        }
      ],
      "name": "ImpactClaimed",
      "type": "event"
    },
    {
      "anonymous": false,
      "inputs": [
        {
          "indexed": false,
          "internalType": "bytes32",
          "name": "id",
          "type": "bytes32"
        },
        {
          "indexed": false,
          "internalType": "string",
          "name": "text",
          "type": "string"
        }
      ],
      "name": "ImpactScopeAdded",
      "type": "event"
    },
    {
      "anonymous": false,
      "inputs": [
        {
          "indexed": false,
          "internalType": "uint8",
          "name": "version",
          "type": "uint8"
        }
      ],
      "name": "Initialized",
      "type": "event"
    },
    {
      "anonymous": false,
      "inputs": [
        {
          "indexed": false,
          "internalType": "bytes32",
          "name": "id",
          "type": "bytes32"
        },
        {
          "indexed": false,
          "internalType": "string",
          "name": "text",
          "type": "string"
        }
      ],
      "name": "RightAdded",
      "type": "event"
    },
    {
      "anonymous": false,
      "inputs": [
        {
          "indexed": true,
          "internalType": "bytes32",
          "name": "role",
          "type": "bytes32"
        },
        {
          "indexed": true,
          "internalType": "bytes32",
          "name": "previousAdminRole",
          "type": "bytes32"
        },
        {
          "indexed": true,
          "internalType": "bytes32",
          "name": "newAdminRole",
          "type": "bytes32"
        }
      ],
      "name": "RoleAdminChanged",
      "type": "event"
    },
    {
      "anonymous": false,
      "inputs": [
        {
          "indexed": true,
          "internalType": "bytes32",
          "name": "role",
          "type": "bytes32"
        },
        {
          "indexed": true,
          "internalType": "address",
          "name": "account",
          "type": "address"
        },
        {
          "indexed": true,
          "internalType": "address",
          "name": "sender",
          "type": "address"
        }
      ],
      "name": "RoleGranted",
      "type": "event"
    },
    {
      "anonymous": false,
      "inputs": [
        {
          "indexed": true,
          "internalType": "bytes32",
          "name": "role",
          "type": "bytes32"
        },
        {
          "indexed": true,
          "internalType": "address",
          "name": "account",
          "type": "address"
        },
        {
          "indexed": true,
          "internalType": "address",
          "name": "sender",
          "type": "address"
        }
      ],
      "name": "RoleRevoked",
      "type": "event"
    },
    {
      "anonymous": false,
      "inputs": [
        {
          "indexed": false,
          "internalType": "uint256",
          "name": "fromID",
          "type": "uint256"
        },
        {
          "indexed": false,
          "internalType": "uint256[]",
          "name": "toID",
          "type": "uint256[]"
        }
      ],
      "name": "Split",
      "type": "event"
    },
    {
      "anonymous": false,
      "inputs": [
        {
          "indexed": true,
          "internalType": "address",
          "name": "operator",
          "type": "address"
        },
        {
          "indexed": true,
          "internalType": "address",
          "name": "from",
          "type": "address"
        },
        {
          "indexed": true,
          "internalType": "address",
          "name": "to",
          "type": "address"
        },
        {
          "indexed": false,
          "internalType": "uint256[]",
          "name": "ids",
          "type": "uint256[]"
        },
        {
          "indexed": false,
          "internalType": "uint256[]",
          "name": "values",
          "type": "uint256[]"
        }
      ],
      "name": "TransferBatch",
      "type": "event"
    },
    {
      "anonymous": false,
      "inputs": [
        {
          "indexed": true,
          "internalType": "address",
          "name": "operator",
          "type": "address"
        },
        {
          "indexed": true,
          "internalType": "address",
          "name": "from",
          "type": "address"
        },
        {
          "indexed": true,
          "internalType": "address",
          "name": "to",
          "type": "address"
        },
        {
          "indexed": false,
          "internalType": "uint256",
          "name": "id",
          "type": "uint256"
        },
        {
          "indexed": false,
          "internalType": "uint256",
          "name": "value",
          "type": "uint256"
        }
      ],
      "name": "TransferSingle",
      "type": "event"
    },
    {
      "anonymous": false,
      "inputs": [
        {
          "indexed": false,
          "internalType": "string",
          "name": "value",
          "type": "string"
        },
        {
          "indexed": true,
          "internalType": "uint256",
          "name": "id",
          "type": "uint256"
        }
      ],
      "name": "URI",
      "type": "event"
    },
    {
      "anonymous": false,
      "inputs": [
        {
          "indexed": true,
          "internalType": "address",
          "name": "implementation",
          "type": "address"
        }
      ],
      "name": "Upgraded",
      "type": "event"
    },
    {
      "anonymous": false,
      "inputs": [
        {
          "indexed": false,
          "internalType": "bytes32",
          "name": "id",
          "type": "bytes32"
        },
        {
          "indexed": false,
          "internalType": "string",
          "name": "text",
          "type": "string"
        }
      ],
      "name": "WorkScopeAdded",
      "type": "event"
    },
    {
      "inputs": [],
      "name": "DEFAULT_ADMIN_ROLE",
      "outputs": [
        {
          "internalType": "bytes32",
          "name": "",
          "type": "bytes32"
        }
      ],
      "stateMutability": "view",
      "type": "function"
    },
    {
      "inputs": [],
      "name": "NAME",
      "outputs": [
        {
          "internalType": "string",
          "name": "",
          "type": "string"
        }
      ],
      "stateMutability": "view",
      "type": "function"
    },
    {
      "inputs": [],
      "name": "UPGRADER_ROLE",
      "outputs": [
        {
          "internalType": "bytes32",
          "name": "",
          "type": "bytes32"
        }
      ],
      "stateMutability": "view",
      "type": "function"
    },
    {
      "inputs": [
        {
          "internalType": "string",
          "name": "text",
          "type": "string"
        }
      ],
      "name": "addImpactScope",
      "outputs": [
        {
          "internalType": "bytes32",
          "name": "id",
          "type": "bytes32"
        }
      ],
      "stateMutability": "nonpayable",
      "type": "function"
    },
    {
      "inputs": [
        {
          "internalType": "string",
          "name": "text",
          "type": "string"
        }
      ],
      "name": "addRight",
      "outputs": [
        {
          "internalType": "bytes32",
          "name": "id",
          "type": "bytes32"
        }
      ],
      "stateMutability": "nonpayable",
      "type": "function"
    },
    {
      "inputs": [
        {
          "internalType": "string",
          "name": "text",
          "type": "string"
        }
      ],
      "name": "addWorkScope",
      "outputs": [
        {
          "internalType": "bytes32",
          "name": "id",
          "type": "bytes32"
        }
      ],
      "stateMutability": "nonpayable",
      "type": "function"
    },
    {
      "inputs": [
        {
          "internalType": "address",
          "name": "account",
          "type": "address"
        },
        {
          "internalType": "uint256",
          "name": "id",
          "type": "uint256"
        }
      ],
      "name": "balanceOf",
      "outputs": [
        {
          "internalType": "uint256",
          "name": "",
          "type": "uint256"
        }
      ],
      "stateMutability": "view",
      "type": "function"
    },
    {
      "inputs": [
        {
          "internalType": "address[]",
          "name": "accounts",
          "type": "address[]"
        },
        {
          "internalType": "uint256[]",
          "name": "ids",
          "type": "uint256[]"
        }
      ],
      "name": "balanceOfBatch",
      "outputs": [
        {
          "internalType": "uint256[]",
          "name": "",
          "type": "uint256[]"
        }
      ],
      "stateMutability": "view",
      "type": "function"
    },
    {
      "inputs": [
        {
          "internalType": "address",
          "name": "account",
          "type": "address"
        },
        {
          "internalType": "uint256",
          "name": "id",
          "type": "uint256"
        },
        {
          "internalType": "uint256",
          "name": "value",
          "type": "uint256"
        }
      ],
      "name": "burn",
      "outputs": [],
      "stateMutability": "nonpayable",
      "type": "function"
    },
    {
      "inputs": [
        {
          "internalType": "address",
          "name": "account",
          "type": "address"
        },
        {
          "internalType": "uint256[]",
          "name": "ids",
          "type": "uint256[]"
        },
        {
          "internalType": "uint256[]",
          "name": "values",
          "type": "uint256[]"
        }
      ],
      "name": "burnBatch",
      "outputs": [],
      "stateMutability": "nonpayable",
      "type": "function"
    },
    {
      "inputs": [
        {
          "internalType": "uint256",
          "name": "id",
          "type": "uint256"
        }
      ],
      "name": "exists",
      "outputs": [
        {
          "internalType": "bool",
          "name": "",
          "type": "bool"
        }
      ],
      "stateMutability": "view",
      "type": "function"
    },
    {
      "inputs": [
        {
          "internalType": "uint256",
          "name": "claimID",
          "type": "uint256"
        }
      ],
      "name": "getImpactCert",
      "outputs": [
        {
          "components": [
            {
              "internalType": "bytes32",
              "name": "claimHash",
              "type": "bytes32"
            },
            {
              "internalType": "uint64[2]",
              "name": "workTimeframe",
              "type": "uint64[2]"
            },
            {
              "internalType": "uint64[2]",
              "name": "impactTimeframe",
              "type": "uint64[2]"
            },
            {
              "internalType": "bytes32[]",
              "name": "workScopes",
              "type": "bytes32[]"
            },
            {
              "internalType": "bytes32[]",
              "name": "impactScopes",
              "type": "bytes32[]"
            },
            {
              "internalType": "bytes32[]",
              "name": "rights",
              "type": "bytes32[]"
            },
            {
              "internalType": "address[]",
              "name": "contributors",
              "type": "address[]"
            },
            {
              "internalType": "uint16",
              "name": "version",
              "type": "uint16"
            },
            {
              "internalType": "bool",
              "name": "exists",
              "type": "bool"
            }
          ],
          "internalType": "struct HypercertMinterV0.Claim",
          "name": "",
          "type": "tuple"
        }
      ],
      "stateMutability": "view",
      "type": "function"
    },
    {
      "inputs": [
        {
          "internalType": "bytes32",
          "name": "role",
          "type": "bytes32"
        }
      ],
      "name": "getRoleAdmin",
      "outputs": [
        {
          "internalType": "bytes32",
          "name": "",
          "type": "bytes32"
        }
      ],
      "stateMutability": "view",
      "type": "function"
    },
    {
      "inputs": [
        {
          "internalType": "bytes32",
          "name": "role",
          "type": "bytes32"
        },
        {
          "internalType": "address",
          "name": "account",
          "type": "address"
        }
      ],
      "name": "grantRole",
      "outputs": [],
      "stateMutability": "nonpayable",
      "type": "function"
    },
    {
      "inputs": [
        {
          "internalType": "bytes32",
          "name": "role",
          "type": "bytes32"
        },
        {
          "internalType": "address",
          "name": "account",
          "type": "address"
        }
      ],
      "name": "hasRole",
      "outputs": [
        {
          "internalType": "bool",
          "name": "",
          "type": "bool"
        }
      ],
      "stateMutability": "view",
      "type": "function"
    },
    {
      "inputs": [
        {
          "internalType": "bytes32",
          "name": "",
          "type": "bytes32"
        }
      ],
      "name": "impactScopes",
      "outputs": [
        {
          "internalType": "string",
          "name": "",
          "type": "string"
        }
      ],
      "stateMutability": "view",
      "type": "function"
    },
    {
      "inputs": [],
      "name": "initialize",
      "outputs": [],
      "stateMutability": "nonpayable",
      "type": "function"
    },
    {
      "inputs": [
        {
          "internalType": "address",
          "name": "account",
          "type": "address"
        },
        {
          "internalType": "address",
          "name": "operator",
          "type": "address"
        }
      ],
      "name": "isApprovedForAll",
      "outputs": [
        {
          "internalType": "bool",
          "name": "",
          "type": "bool"
        }
      ],
      "stateMutability": "view",
      "type": "function"
    },
    {
      "inputs": [
        {
          "internalType": "address",
          "name": "account",
          "type": "address"
        },
        {
          "internalType": "uint256",
          "name": "amount",
          "type": "uint256"
        },
        {
          "internalType": "bytes",
          "name": "data",
          "type": "bytes"
        }
      ],
      "name": "mint",
      "outputs": [],
      "stateMutability": "nonpayable",
      "type": "function"
    },
    {
      "inputs": [],
      "name": "proxiableUUID",
      "outputs": [
        {
          "internalType": "bytes32",
          "name": "",
          "type": "bytes32"
        }
      ],
      "stateMutability": "view",
      "type": "function"
    },
    {
      "inputs": [
        {
          "internalType": "bytes32",
          "name": "role",
          "type": "bytes32"
        },
        {
          "internalType": "address",
          "name": "account",
          "type": "address"
        }
      ],
      "name": "renounceRole",
      "outputs": [],
      "stateMutability": "nonpayable",
      "type": "function"
    },
    {
      "inputs": [
        {
          "internalType": "bytes32",
          "name": "role",
          "type": "bytes32"
        },
        {
          "internalType": "address",
          "name": "account",
          "type": "address"
        }
      ],
      "name": "revokeRole",
      "outputs": [],
      "stateMutability": "nonpayable",
      "type": "function"
    },
    {
      "inputs": [
        {
          "internalType": "bytes32",
          "name": "",
          "type": "bytes32"
        }
      ],
      "name": "rights",
      "outputs": [
        {
          "internalType": "string",
          "name": "",
          "type": "string"
        }
      ],
      "stateMutability": "view",
      "type": "function"
    },
    {
      "inputs": [
        {
          "internalType": "address",
          "name": "from",
          "type": "address"
        },
        {
          "internalType": "address",
          "name": "to",
          "type": "address"
        },
        {
          "internalType": "uint256[]",
          "name": "ids",
          "type": "uint256[]"
        },
        {
          "internalType": "uint256[]",
          "name": "amounts",
          "type": "uint256[]"
        },
        {
          "internalType": "bytes",
          "name": "data",
          "type": "bytes"
        }
      ],
      "name": "safeBatchTransferFrom",
      "outputs": [],
      "stateMutability": "nonpayable",
      "type": "function"
    },
    {
      "inputs": [
        {
          "internalType": "address",
          "name": "from",
          "type": "address"
        },
        {
          "internalType": "address",
          "name": "to",
          "type": "address"
        },
        {
          "internalType": "uint256",
          "name": "id",
          "type": "uint256"
        },
        {
          "internalType": "uint256",
          "name": "amount",
          "type": "uint256"
        },
        {
          "internalType": "bytes",
          "name": "data",
          "type": "bytes"
        }
      ],
      "name": "safeTransferFrom",
      "outputs": [],
      "stateMutability": "nonpayable",
      "type": "function"
    },
    {
      "inputs": [
        {
          "internalType": "address",
          "name": "operator",
          "type": "address"
        },
        {
          "internalType": "bool",
          "name": "approved",
          "type": "bool"
        }
      ],
      "name": "setApprovalForAll",
      "outputs": [],
      "stateMutability": "nonpayable",
      "type": "function"
    },
    {
      "inputs": [
        {
          "internalType": "uint256",
          "name": "id",
          "type": "uint256"
        }
      ],
      "name": "split",
      "outputs": [],
      "stateMutability": "nonpayable",
      "type": "function"
    },
    {
      "inputs": [
        {
          "internalType": "bytes4",
          "name": "interfaceId",
          "type": "bytes4"
        }
      ],
      "name": "supportsInterface",
      "outputs": [
        {
          "internalType": "bool",
          "name": "",
          "type": "bool"
        }
      ],
      "stateMutability": "view",
      "type": "function"
    },
    {
      "inputs": [
        {
          "internalType": "uint256",
          "name": "id",
          "type": "uint256"
        }
      ],
      "name": "totalSupply",
      "outputs": [
        {
          "internalType": "uint256",
          "name": "",
          "type": "uint256"
        }
      ],
      "stateMutability": "view",
      "type": "function"
    },
    {
      "inputs": [],
      "name": "updateVersion",
      "outputs": [],
      "stateMutability": "nonpayable",
      "type": "function"
    },
    {
      "inputs": [
        {
          "internalType": "address",
          "name": "newImplementation",
          "type": "address"
        }
      ],
      "name": "upgradeTo",
      "outputs": [],
      "stateMutability": "nonpayable",
      "type": "function"
    },
    {
      "inputs": [
        {
          "internalType": "address",
          "name": "newImplementation",
          "type": "address"
        },
        {
          "internalType": "bytes",
          "name": "data",
          "type": "bytes"
        }
      ],
      "name": "upgradeToAndCall",
      "outputs": [],
      "stateMutability": "payable",
      "type": "function"
    },
    {
      "inputs": [
        {
          "internalType": "uint256",
          "name": "tokenId",
          "type": "uint256"
        }
      ],
      "name": "uri",
      "outputs": [
        {
          "internalType": "string",
          "name": "",
          "type": "string"
        }
      ],
      "stateMutability": "view",
      "type": "function"
    },
    {
      "inputs": [],
      "name": "version",
      "outputs": [
        {
          "internalType": "uint256",
          "name": "",
          "type": "uint256"
        }
      ],
      "stateMutability": "view",
      "type": "function"
    },
    {
      "inputs": [
        {
          "internalType": "bytes32",
          "name": "",
          "type": "bytes32"
        }
      ],
      "name": "workScopes",
      "outputs": [
        {
          "internalType": "string",
          "name": "",
          "type": "string"
        }
      ],
      "stateMutability": "view",
      "type": "function"
    }
  ],
  "bytecode": "0x60a0604052306080523480156200001557600080fd5b506200002062000030565b6200002a62000030565b620000f2565b600054610100900460ff16156200009d5760405162461bcd60e51b815260206004820152602760248201527f496e697469616c697a61626c653a20636f6e747261637420697320696e697469604482015266616c697a696e6760c81b606482015260840160405180910390fd5b60005460ff9081161015620000f0576000805460ff191660ff9081179091556040519081527f7f26b83ff96e1f2b6a682f133852f6798a09c465da95921460cefb38474024989060200160405180910390a15b565b608051614cb36200012a600039600081816109de01528181610a6301528181610cf901528181610d7e0152610e640152614cb36000f3fe6080604052600436106102335760003560e01c80638129fc1c11610138578063d52fd095116100b0578063ef6f66d71161007f578063f242432a11610064578063f242432a146106e9578063f5298aca14610709578063f72c0d8b1461072957600080fd5b8063ef6f66d7146106a9578063f0f11e05146106c957600080fd5b8063d52fd09514610600578063d547741f14610620578063dbceb00514610640578063e985e9c51461066057600080fd5b8063997edc6111610107578063a22cb465116100ec578063a22cb4651461056a578063a3f4df7e1461058a578063bd85b039146105d357600080fd5b8063997edc6114610535578063a217fddf1461055557600080fd5b80638129fc1c1461049a5780638f88b767146104af57806391d14854146104cf57806394d008ef1461051557600080fd5b80633659cfe6116101cb5780634f558e791161019a57806354fd4d501161017f57806354fd4d50146104335780636b20c4541461044d57806372927aa31461046d57600080fd5b80634f558e79146103ef57806352d1902d1461041e57600080fd5b80633659cfe61461037a57806348c02dc11461039a5780634e1273f4146103af5780634f1ef286146103dc57600080fd5b8063248a9ca311610207578063248a9ca3146102e85780632eb2c2d6146103185780632f2ff15d1461033a57806336568abe1461035a57600080fd5b8062fdd58e1461023857806301ffc9a71461026b5780630e89341c1461029b5780631e6ad4b8146102c8575b600080fd5b34801561024457600080fd5b50610258610253366004613c0b565b61075d565b6040519081526020015b60405180910390f35b34801561027757600080fd5b5061028b610286366004613c4d565b61080b565b6040519015158152602001610262565b3480156102a757600080fd5b506102bb6102b6366004613c6a565b610816565b6040516102629190613cd3565b3480156102d457600080fd5b506102586102e3366004613d97565b610821565b3480156102f457600080fd5b50610258610303366004613c6a565b60009081526097602052604090206001015490565b34801561032457600080fd5b50610338610333366004613e9d565b61088a565b005b34801561034657600080fd5b50610338610355366004613f4b565b61091e565b34801561036657600080fd5b50610338610375366004613f4b565b610948565b34801561038657600080fd5b50610338610395366004613f7b565b6109d4565b3480156103a657600080fd5b50610338610b4f565b3480156103bb57600080fd5b506103cf6103ca366004613f98565b610bb1565b60405161026291906140a0565b6103386103ea3660046140b3565b610cef565b3480156103fb57600080fd5b5061028b61040a366004613c6a565b600090815260fb6020526040902054151590565b34801561042a57600080fd5b50610258610e57565b34801561043f57600080fd5b506101c35461ffff16610258565b34801561045957600080fd5b506103386104683660046140f9565b610f1d565b34801561047957600080fd5b5061048d610488366004613c6a565b610fa8565b60405161026291906141d5565b3480156104a657600080fd5b50610338611233565b3480156104bb57600080fd5b506102bb6104ca366004613c6a565b6113b7565b3480156104db57600080fd5b5061028b6104ea366004613f4b565b60009182526097602090815260408084206001600160a01b0393909316845291905290205460ff1690565b34801561052157600080fd5b506103386105303660046142b6565b611452565b34801561054157600080fd5b50610258610550366004613d97565b611606565b34801561056157600080fd5b50610258600081565b34801561057657600080fd5b50610338610585366004614305565b611662565b34801561059657600080fd5b506102bb6040518060400160405280601881526020017f496d70616374206879706572636572746966696361746573000000000000000081525081565b3480156105df57600080fd5b506102586105ee366004613c6a565b600090815260fb602052604090205490565b34801561060c57600080fd5b506102bb61061b366004613c6a565b61166d565b34801561062c57600080fd5b5061033861063b366004613f4b565b611687565b34801561064c57600080fd5b5061033861065b366004613c6a565b6116ac565b34801561066c57600080fd5b5061028b61067b366004614338565b6001600160a01b03918216600090815260666020908152604080832093909416825291909152205460ff1690565b3480156106b557600080fd5b506102bb6106c4366004613c6a565b611790565b3480156106d557600080fd5b506102586106e4366004613d97565b6117aa565b3480156106f557600080fd5b50610338610704366004614366565b611806565b34801561071557600080fd5b506103386107243660046143cf565b611893565b34801561073557600080fd5b506102587f189ab7a9244df0848122154315af71fe140f3db0fe014031783b0946b8c9d2e381565b60006001600160a01b0383166107e05760405162461bcd60e51b815260206004820152602a60248201527f455243313135353a2061646472657373207a65726f206973206e6f742061207660448201527f616c6964206f776e65720000000000000000000000000000000000000000000060648201526084015b60405180910390fd5b5060008181526065602090815260408083206001600160a01b03861684529091529020545b92915050565b60006108058261191e565b606061080582611943565b600061082f826101c6611a25565b60008181526101c66020526040902090915061084b8382614484565b507f2efcce702e3d0b95b3deb632da6d41c3d169e0c3effb9066d949f14d6f13224f818360405161087d929190614544565b60405180910390a1919050565b6001600160a01b0385163314806108a657506108a6853361067b565b61090a5760405162461bcd60e51b815260206004820152602f60248201527f455243313135353a2063616c6c6572206973206e6f7420746f6b656e206f776e60448201526e195c881b9bdc88185c1c1c9bdd9959608a1b60648201526084016107d7565b6109178585858585611af7565b5050505050565b60008281526097602052604090206001015461093981611d66565b6109438383611d70565b505050565b6001600160a01b03811633146109c65760405162461bcd60e51b815260206004820152602f60248201527f416363657373436f6e74726f6c3a2063616e206f6e6c792072656e6f756e636560448201527f20726f6c657320666f722073656c66000000000000000000000000000000000060648201526084016107d7565b6109d08282611e12565b5050565b6001600160a01b037f0000000000000000000000000000000000000000000000000000000000000000163003610a615760405162461bcd60e51b815260206004820152602c60248201527f46756e6374696f6e206d7573742062652063616c6c6564207468726f7567682060448201526b19195b1959d85d1958d85b1b60a21b60648201526084016107d7565b7f00000000000000000000000000000000000000000000000000000000000000006001600160a01b0316610abc7f360894a13ba1a3210667c828492db98dca3e2076cc3735a920a3ca505d382bbc546001600160a01b031690565b6001600160a01b031614610b275760405162461bcd60e51b815260206004820152602c60248201527f46756e6374696f6e206d7573742062652063616c6c6564207468726f7567682060448201526b6163746976652070726f787960a01b60648201526084016107d7565b610b3081611e95565b60408051600080825260208201909252610b4c91839190611ebf565b50565b7f189ab7a9244df0848122154315af71fe140f3db0fe014031783b0946b8c9d2e3610b7981611d66565b6101c3805460019190600090610b9490849061ffff16614573565b92506101000a81548161ffff021916908361ffff16021790555050565b60608151835114610c2a5760405162461bcd60e51b815260206004820152602960248201527f455243313135353a206163636f756e747320616e6420696473206c656e67746860448201527f206d69736d61746368000000000000000000000000000000000000000000000060648201526084016107d7565b6000835167ffffffffffffffff811115610c4657610c46613ce6565b604051908082528060200260200182016040528015610c6f578160200160208202803683370190505b50905060005b8451811015610ce757610cba858281518110610c9357610c93614595565b6020026020010151858381518110610cad57610cad614595565b602002602001015161075d565b828281518110610ccc57610ccc614595565b6020908102919091010152610ce0816145ab565b9050610c75565b509392505050565b6001600160a01b037f0000000000000000000000000000000000000000000000000000000000000000163003610d7c5760405162461bcd60e51b815260206004820152602c60248201527f46756e6374696f6e206d7573742062652063616c6c6564207468726f7567682060448201526b19195b1959d85d1958d85b1b60a21b60648201526084016107d7565b7f00000000000000000000000000000000000000000000000000000000000000006001600160a01b0316610dd77f360894a13ba1a3210667c828492db98dca3e2076cc3735a920a3ca505d382bbc546001600160a01b031690565b6001600160a01b031614610e425760405162461bcd60e51b815260206004820152602c60248201527f46756e6374696f6e206d7573742062652063616c6c6564207468726f7567682060448201526b6163746976652070726f787960a01b60648201526084016107d7565b610e4b82611e95565b6109d082826001611ebf565b6000306001600160a01b037f00000000000000000000000000000000000000000000000000000000000000001614610ef75760405162461bcd60e51b815260206004820152603860248201527f555550535570677261646561626c653a206d757374206e6f742062652063616c60448201527f6c6564207468726f7567682064656c656761746563616c6c000000000000000060648201526084016107d7565b507f360894a13ba1a3210667c828492db98dca3e2076cc3735a920a3ca505d382bbc5b90565b6001600160a01b038316331480610f395750610f39833361067b565b610f9d5760405162461bcd60e51b815260206004820152602f60248201527f455243313135353a2063616c6c6572206973206e6f7420746f6b656e206f776e60448201526e195c881b9bdc88185c1c1c9bdd9959608a1b60648201526084016107d7565b61094383838361205f565b610fb0613a1f565b60008281526101c9602090815260408083208151610120810183528154815282518084019384905290949193850192909160018501916002918390855b82829054906101000a900467ffffffffffffffff1667ffffffffffffffff1681526020019060080190602082600701049283019260010382029150808411610fed57505050928452505060408051808201918290526020909301929150600284810191826000855b82829054906101000a900467ffffffffffffffff1667ffffffffffffffff168152602001906008019060208260070104928301926001038202915080841161105557905050505050508152602001600382018054806020026020016040519081016040528092919081815260200182805480156110f157602002820191906000526020600020905b8154815260200190600101908083116110dd575b505050505081526020016004820180548060200260200160405190810160405280929190818152602001828054801561114957602002820191906000526020600020905b815481526020019060010190808311611135575b50505050508152602001600582018054806020026020016040519081016040528092919081815260200182805480156111a157602002820191906000526020600020905b81548152602001906001019080831161118d575b505050505081526020016006820180548060200260200160405190810160405280929190818152602001828054801561120357602002820191906000526020600020905b81546001600160a01b031681526001909101906020018083116111e5575b50505091835250506007919091015461ffff8116602083015262010000900460ff16151560409091015292915050565b600054610100900460ff16158080156112535750600054600160ff909116105b8061126d5750303b15801561126d575060005460ff166001145b6112df5760405162461bcd60e51b815260206004820152602e60248201527f496e697469616c697a61626c653a20636f6e747261637420697320616c72656160448201527f647920696e697469616c697a656400000000000000000000000000000000000060648201526084016107d7565b6000805460ff191660011790558015611302576000805461ff0019166101001790555b61131a604051806020016040528060008152506122b9565b61132261232d565b61132a61232d565b61133261239a565b61133a61232d565b611345600033611d70565b61136f7f189ab7a9244df0848122154315af71fe140f3db0fe014031783b0946b8c9d2e333611d70565b8015610b4c576000805461ff0019169055604051600181527f7f26b83ff96e1f2b6a682f133852f6798a09c465da95921460cefb38474024989060200160405180910390a150565b6101c560205260009081526040902080546113d190614404565b80601f01602080910402602001604051908101604052809291908181526020018280546113fd90614404565b801561144a5780601f1061141f5761010080835404028352916020019161144a565b820191906000526020600020905b81548152906001019060200180831161142d57829003601f168201915b505050505081565b60008061145e8361240d565b9150915061146c8583612513565b6101c4805490600190600061148183856145c4565b9091555050825160c084015161149791906127eb565b60008181526101c96020908152604090912084518155908401518491906114c49060018301906002613a7e565b5060408201516114da9060028084019190613a7e565b50606082015180516114f6916003840191602090910190613b26565b5060808201518051611512916004840191602090910190613b26565b5060a0820151805161152e916005840191602090910190613b26565b5060c0820151805161154a916006840191602090910190613b61565b5060e082015160079091018054610100909301511515620100000262ffffff1990931661ffff90921691909117919091179055611587818361291f565b6115938682878761297d565b7f2d5e7de1a786ea5d535fcaa49a371e5e487a1a8d4f0a353faa6bc989ecf132e1818785600001518660c001518760200151886040015189606001518a608001518b60a001518c60e001518c6040516115f69b9a999897969594939291906145d7565b60405180910390a1505050505050565b6000611614826101c5611a25565b60008181526101c5602052604090209091506116308382614484565b507f8b841033bc947e807d9766c542105a3dbb0bae62591be7b5c8cd4f37f698bf73818360405161087d929190614544565b6109d0338383612aa2565b6101c760205260009081526040902080546113d190614404565b6000828152609760205260409020600101546116a281611d66565b6109438383611e12565b600081815260fb60205260409020546117075760405162461bcd60e51b815260206004820152601a60248201527f4d696e743a20746f6b656e20646f6573206e6f7420657869737400000000000060448201526064016107d7565b604080516001808252818301909252600091602080830190803683370190505090506117348260016145c4565b8160008151811061174757611747614595565b6020026020010181815250507fca2f7fad4853b2caaacf1c70ceb2140e76e34dd669e810522fb8d5e9490cd21e8282604051611784929190614691565b60405180910390a15050565b6101c660205260009081526040902080546113d190614404565b60006117b8826101c7611a25565b60008181526101c7602052604090209091506117d48382614484565b507f4527d373276b1ece0c8dd18e140572f93feffd35a0993d9e4de70623b1ac93ce818360405161087d929190614544565b6001600160a01b0385163314806118225750611822853361067b565b6118865760405162461bcd60e51b815260206004820152602f60248201527f455243313135353a2063616c6c6572206973206e6f7420746f6b656e206f776e60448201526e195c881b9bdc88185c1c1c9bdd9959608a1b60648201526084016107d7565b6109178585858585612b96565b6001600160a01b0383163314806118af57506118af833361067b565b6119135760405162461bcd60e51b815260206004820152602f60248201527f455243313135353a2063616c6c6572206973206e6f7420746f6b656e206f776e60448201526e195c881b9bdc88185c1c1c9bdd9959608a1b60648201526084016107d7565b610943838383612d53565b60006001600160e01b03198216637965db0b60e01b1480610805575061080582612ee7565b600081815261012e602052604081208054606092919061196290614404565b80601f016020809104026020016040519081016040528092919081815260200182805461198e90614404565b80156119db5780601f106119b0576101008083540402835291602001916119db565b820191906000526020600020905b8154815290600101906020018083116119be57829003601f168201915b5050505050905060008151116119f9576119f483612f37565b611a1e565b61012d81604051602001611a0e9291906146aa565b6040516020818303038152906040525b9392505050565b600080835111611a775760405162461bcd60e51b815260206004820152600a60248201527f656d70747920746578740000000000000000000000000000000000000000000060448201526064016107d7565b82604051602001611a889190613cd3565b604051602081830303815290604052805190602001209050611aaa8282612fcb565b156108055760405162461bcd60e51b815260206004820152600e60248201527f616c72656164792065786973747300000000000000000000000000000000000060448201526064016107d7565b8151835114611b595760405162461bcd60e51b815260206004820152602860248201527f455243313135353a2069647320616e6420616d6f756e7473206c656e677468206044820152670dad2e6dac2e8c6d60c31b60648201526084016107d7565b6001600160a01b038416611bbd5760405162461bcd60e51b815260206004820152602560248201527f455243313135353a207472616e7366657220746f20746865207a65726f206164604482015264647265737360d81b60648201526084016107d7565b33611bcc818787878787612ff2565b60005b8451811015611cf8576000858281518110611bec57611bec614595565b602002602001015190506000858381518110611c0a57611c0a614595565b60209081029190910181015160008481526065835260408082206001600160a01b038e168352909352919091205490915081811015611c9e5760405162461bcd60e51b815260206004820152602a60248201527f455243313135353a20696e73756666696369656e742062616c616e636520666f60448201526939103a3930b739b332b960b11b60648201526084016107d7565b60008381526065602090815260408083206001600160a01b038e8116855292528083208585039055908b16825281208054849290611cdd9084906145c4565b9250508190555050505080611cf1906145ab565b9050611bcf565b50846001600160a01b0316866001600160a01b0316826001600160a01b03167f4a39dc06d4c0dbc64b70af90fd698a233a518aa5d07e595d983b8c0526c8f7fb8787604051611d48929190614731565b60405180910390a4611d5e818787878787613000565b505050505050565b610b4c81336131a5565b60008281526097602090815260408083206001600160a01b038516845290915290205460ff166109d05760008281526097602090815260408083206001600160a01b03851684529091529020805460ff19166001179055611dce3390565b6001600160a01b0316816001600160a01b0316837f2f8788117e7eff1d82e926ec794901d17c78024a50270940304540a733656f0d60405160405180910390a45050565b60008281526097602090815260408083206001600160a01b038516845290915290205460ff16156109d05760008281526097602090815260408083206001600160a01b0385168085529252808320805460ff1916905551339285917ff6391f5c32d9c69d2a47ea670b442974b53935d1edc7fd64eb21e047a839171b9190a45050565b7f189ab7a9244df0848122154315af71fe140f3db0fe014031783b0946b8c9d2e36109d081611d66565b7f4910fdfa16fed3260ed0e7147f7cc6da11a60208b5b9406d12a635614ffd91435460ff1615611ef25761094383613225565b826001600160a01b03166352d1902d6040518163ffffffff1660e01b8152600401602060405180830381865afa925050508015611f4c575060408051601f3d908101601f19168201909252611f4991810190614756565b60015b611fbe5760405162461bcd60e51b815260206004820152602e60248201527f45524331393637557067726164653a206e657720696d706c656d656e7461746960448201527f6f6e206973206e6f74205555505300000000000000000000000000000000000060648201526084016107d7565b7f360894a13ba1a3210667c828492db98dca3e2076cc3735a920a3ca505d382bbc81146120535760405162461bcd60e51b815260206004820152602960248201527f45524331393637557067726164653a20756e737570706f727465642070726f7860448201527f6961626c6555554944000000000000000000000000000000000000000000000060648201526084016107d7565b506109438383836132f0565b6001600160a01b0383166120c15760405162461bcd60e51b815260206004820152602360248201527f455243313135353a206275726e2066726f6d20746865207a65726f206164647260448201526265737360e81b60648201526084016107d7565b80518251146121235760405162461bcd60e51b815260206004820152602860248201527f455243313135353a2069647320616e6420616d6f756e7473206c656e677468206044820152670dad2e6dac2e8c6d60c31b60648201526084016107d7565b600033905061214681856000868660405180602001604052806000815250612ff2565b60005b835181101561224a57600084828151811061216657612166614595565b60200260200101519050600084838151811061218457612184614595565b60209081029190910181015160008481526065835260408082206001600160a01b038c1683529093529190912054909150818110156122115760405162461bcd60e51b8152602060048201526024808201527f455243313135353a206275726e20616d6f756e7420657863656564732062616c604482015263616e636560e01b60648201526084016107d7565b60009283526065602090815260408085206001600160a01b038b1686529091529092209103905580612242816145ab565b915050612149565b5060006001600160a01b0316846001600160a01b0316826001600160a01b03167f4a39dc06d4c0dbc64b70af90fd698a233a518aa5d07e595d983b8c0526c8f7fb868660405161229b929190614731565b60405180910390a46040805160208101909152600090525b50505050565b600054610100900460ff166123245760405162461bcd60e51b815260206004820152602b60248201527f496e697469616c697a61626c653a20636f6e7472616374206973206e6f74206960448201526a6e697469616c697a696e6760a81b60648201526084016107d7565b610b4c81613315565b600054610100900460ff166123985760405162461bcd60e51b815260206004820152602b60248201527f496e697469616c697a61626c653a20636f6e7472616374206973206e6f74206960448201526a6e697469616c697a696e6760a81b60648201526084016107d7565b565b600054610100900460ff166124055760405162461bcd60e51b815260206004820152602b60248201527f496e697469616c697a61626c653a20636f6e7472616374206973206e6f74206960448201526a6e697469616c697a696e6760a81b60648201526084016107d7565b612398613389565b612415613a1f565b606060008351116124685760405162461bcd60e51b815260206004820152601c60248201527f5f7061727365446174613a20696e707574206461746120656d7074790000000060448201526064016107d7565b6000806000806000806000898060200190518101906124879190614913565b96509650965096509650965096506000848785886040516020016124ae9493929190614a0a565b60408051601f19818403018152828252805160209182012061012084018352835282019690965294850193909352606084019590955260808301939093525060a081019390935260c0830152600060e083015260016101008301529094909350915050565b6001600160a01b0382166125695760405162461bcd60e51b815260206004820152601e60248201527f4d696e743a206d696e7420746f20746865207a65726f2061646472657373000060448201526064016107d7565b60208181015190810151905167ffffffffffffffff918216911611156125d15760405162461bcd60e51b815260206004820152601b60248201527f4d696e743a20696e76616c696420776f726b54696d656672616d65000000000060448201526064016107d7565b60408101516020810151905167ffffffffffffffff918216911611156126395760405162461bcd60e51b815260206004820152601d60248201527f4d696e743a20696e76616c696420696d7061637454696d656672616d6500000060448201526064016107d7565b60408101515160208201515167ffffffffffffffff918216911611156126c75760405162461bcd60e51b815260206004820152602c60248201527f4d696e743a20696d7061637454696d656672616d65207072696f7220746f207760448201527f6f726b54696d656672616d65000000000000000000000000000000000000000060648201526084016107d7565b60808101515160005b8181101561275f576127016101c6846080015183815181106126f4576126f4614595565b6020026020010151612fcb565b61274d5760405162461bcd60e51b815260206004820152601a60248201527f4d696e743a20696e76616c696420696d706163742073636f706500000000000060448201526064016107d7565b80612757816145ab565b9150506126d0565b5060608201515160005b818110156109175761278d6101c5856060015183815181106126f4576126f4614595565b6127d95760405162461bcd60e51b815260206004820152601860248201527f4d696e743a20696e76616c696420776f726b2073636f7065000000000000000060448201526064016107d7565b806127e3816145ab565b915050612769565b60005b8151811015610943576101c8600083838151811061280e5761280e614595565b6020908102919091018101516001600160a01b03168252818101929092526040908101600090812086825290925290205460ff16156128b55760405162461bcd60e51b815260206004820152602560248201527f436c61696d3a20636c61696d20666f722063726561746f7273206f7665726c6160448201527f7070696e6700000000000000000000000000000000000000000000000000000060648201526084016107d7565b60016101c860008484815181106128ce576128ce614595565b6020908102919091018101516001600160a01b0316825281810192909252604090810160009081208782529092529020805460ff191691151591909117905580612917816145ab565b9150506127ee565b600082815261012e602052604090206129388282614484565b50817f6bb7ff708619ba0610cba295a58592e0451dee2622938c8755667688daf3529b61296484610816565b6040516129719190613cd3565b60405180910390a25050565b6001600160a01b0384166129dd5760405162461bcd60e51b815260206004820152602160248201527f455243313135353a206d696e7420746f20746865207a65726f206164647265736044820152607360f81b60648201526084016107d7565b3360006129e985613411565b905060006129f685613411565b9050612a0783600089858589612ff2565b60008681526065602090815260408083206001600160a01b038b16845290915281208054879290612a399084906145c4565b909155505060408051878152602081018790526001600160a01b03808a1692600092918716917fc3d58168c5ae7397731d063d5bbf3d657854427343f4c083240f7aacaa2d0f62910160405180910390a4612a998360008989898961345c565b50505050505050565b816001600160a01b0316836001600160a01b031603612b295760405162461bcd60e51b815260206004820152602960248201527f455243313135353a2073657474696e6720617070726f76616c2073746174757360448201527f20666f722073656c66000000000000000000000000000000000000000000000060648201526084016107d7565b6001600160a01b03838116600081815260666020908152604080832094871680845294825291829020805460ff191686151590811790915591519182527f17307eab39ab6107e8899845ad3d59bd9653f200f220920489ca2b5937696c31910160405180910390a3505050565b6001600160a01b038416612bfa5760405162461bcd60e51b815260206004820152602560248201527f455243313135353a207472616e7366657220746f20746865207a65726f206164604482015264647265737360d81b60648201526084016107d7565b336000612c0685613411565b90506000612c1385613411565b9050612c23838989858589612ff2565b60008681526065602090815260408083206001600160a01b038c16845290915290205485811015612ca95760405162461bcd60e51b815260206004820152602a60248201527f455243313135353a20696e73756666696369656e742062616c616e636520666f60448201526939103a3930b739b332b960b11b60648201526084016107d7565b60008781526065602090815260408083206001600160a01b038d8116855292528083208985039055908a16825281208054889290612ce89084906145c4565b909155505060408051888152602081018890526001600160a01b03808b16928c821692918816917fc3d58168c5ae7397731d063d5bbf3d657854427343f4c083240f7aacaa2d0f62910160405180910390a4612d48848a8a8a8a8a61345c565b505050505050505050565b6001600160a01b038316612db55760405162461bcd60e51b815260206004820152602360248201527f455243313135353a206275726e2066726f6d20746865207a65726f206164647260448201526265737360e81b60648201526084016107d7565b336000612dc184613411565b90506000612dce84613411565b9050612dee83876000858560405180602001604052806000815250612ff2565b60008581526065602090815260408083206001600160a01b038a16845290915290205484811015612e6d5760405162461bcd60e51b8152602060048201526024808201527f455243313135353a206275726e20616d6f756e7420657863656564732062616c604482015263616e636560e01b60648201526084016107d7565b60008681526065602090815260408083206001600160a01b038b81168086529184528285208a8703905582518b81529384018a90529092908816917fc3d58168c5ae7397731d063d5bbf3d657854427343f4c083240f7aacaa2d0f62910160405180910390a4604080516020810190915260009052612a99565b60006001600160e01b03198216636cdb3d1360e11b1480612f1857506001600160e01b031982166303a24d0760e21b145b8061080557506301ffc9a760e01b6001600160e01b0319831614610805565b606060678054612f4690614404565b80601f0160208091040260200160405190810160405280929190818152602001828054612f7290614404565b8015612fbf5780601f10612f9457610100808354040283529160200191612fbf565b820191906000526020600020905b815481529060010190602001808311612fa257829003601f168201915b50505050509050919050565b60008181526020839052604081208054829190612fe790614404565b905011905092915050565b611d5e868686868686613558565b6001600160a01b0384163b15611d5e5760405163bc197c8160e01b81526001600160a01b0385169063bc197c81906130449089908990889088908890600401614a54565b6020604051808303816000875af192505050801561307f575060408051601f3d908101601f1916820190925261307c91810190614ab2565b60015b6131345761308b614acf565b806308c379a0036130c4575061309f614aea565b806130aa57506130c6565b8060405162461bcd60e51b81526004016107d79190613cd3565b505b60405162461bcd60e51b815260206004820152603460248201527f455243313135353a207472616e7366657220746f206e6f6e204552433131353560448201527f526563656976657220696d706c656d656e74657200000000000000000000000060648201526084016107d7565b6001600160e01b0319811663bc197c8160e01b14612a995760405162461bcd60e51b815260206004820152602860248201527f455243313135353a204552433131353552656365697665722072656a656374656044820152676420746f6b656e7360c01b60648201526084016107d7565b60008281526097602090815260408083206001600160a01b038516845290915290205460ff166109d0576131e3816001600160a01b031660146136e6565b6131ee8360206136e6565b6040516020016131ff929190614b74565b60408051601f198184030181529082905262461bcd60e51b82526107d791600401613cd3565b6001600160a01b0381163b6132a25760405162461bcd60e51b815260206004820152602d60248201527f455243313936373a206e657720696d706c656d656e746174696f6e206973206e60448201527f6f74206120636f6e74726163740000000000000000000000000000000000000060648201526084016107d7565b7f360894a13ba1a3210667c828492db98dca3e2076cc3735a920a3ca505d382bbc805473ffffffffffffffffffffffffffffffffffffffff19166001600160a01b0392909216919091179055565b6132f98361388f565b6000825111806133065750805b15610943576122b383836138cf565b600054610100900460ff166133805760405162461bcd60e51b815260206004820152602b60248201527f496e697469616c697a61626c653a20636f6e7472616374206973206e6f74206960448201526a6e697469616c697a696e6760a81b60648201526084016107d7565b610b4c816139da565b600054610100900460ff166133f45760405162461bcd60e51b815260206004820152602b60248201527f496e697469616c697a61626c653a20636f6e7472616374206973206e6f74206960448201526a6e697469616c697a696e6760a81b60648201526084016107d7565b60408051602081019091526000815261012d90610b4c9082614484565b6040805160018082528183019092526060916000919060208083019080368337019050509050828160008151811061344b5761344b614595565b602090810291909101015292915050565b6001600160a01b0384163b15611d5e5760405163f23a6e6160e01b81526001600160a01b0385169063f23a6e61906134a09089908990889088908890600401614bf5565b6020604051808303816000875af19250505080156134db575060408051601f3d908101601f191682019092526134d891810190614ab2565b60015b6134e75761308b614acf565b6001600160e01b0319811663f23a6e6160e01b14612a995760405162461bcd60e51b815260206004820152602860248201527f455243313135353a204552433131353552656365697665722072656a656374656044820152676420746f6b656e7360c01b60648201526084016107d7565b6001600160a01b0385166135df5760005b83518110156135dd5782818151811061358457613584614595565b602002602001015160fb60008684815181106135a2576135a2614595565b6020026020010151815260200190815260200160002060008282546135c791906145c4565b909155506135d69050816145ab565b9050613569565b505b6001600160a01b038416611d5e5760005b8351811015612a9957600084828151811061360d5761360d614595565b60200260200101519050600084838151811061362b5761362b614595565b60200260200101519050600060fb6000848152602001908152602001600020549050818110156136c35760405162461bcd60e51b815260206004820152602860248201527f455243313135353a206275726e20616d6f756e74206578636565647320746f7460448201527f616c537570706c7900000000000000000000000000000000000000000000000060648201526084016107d7565b600092835260fb6020526040909220910390556136df816145ab565b90506135f0565b606060006136f5836002614c2d565b6137009060026145c4565b67ffffffffffffffff81111561371857613718613ce6565b6040519080825280601f01601f191660200182016040528015613742576020820181803683370190505b509050600360fc1b8160008151811061375d5761375d614595565b60200101906001600160f81b031916908160001a905350600f60fb1b8160018151811061378c5761378c614595565b60200101906001600160f81b031916908160001a90535060006137b0846002614c2d565b6137bb9060016145c4565b90505b6001811115613840577f303132333435363738396162636465660000000000000000000000000000000085600f16601081106137fc576137fc614595565b1a60f81b82828151811061381257613812614595565b60200101906001600160f81b031916908160001a90535060049490941c9361383981614c4c565b90506137be565b508315611a1e5760405162461bcd60e51b815260206004820181905260248201527f537472696e67733a20686578206c656e67746820696e73756666696369656e7460448201526064016107d7565b61389881613225565b6040516001600160a01b038216907fbc7cd75a20ee27fd9adebab32041f755214dbc6bffa90cc0225b39da2e5c2d3b90600090a250565b60606001600160a01b0383163b61394e5760405162461bcd60e51b815260206004820152602660248201527f416464726573733a2064656c65676174652063616c6c20746f206e6f6e2d636f60448201527f6e7472616374000000000000000000000000000000000000000000000000000060648201526084016107d7565b600080846001600160a01b0316846040516139699190614c63565b600060405180830381855af49150503d80600081146139a4576040519150601f19603f3d011682016040523d82523d6000602084013e6139a9565b606091505b50915091506139d18282604051806060016040528060278152602001614c80602791396139e6565b95945050505050565b60676109d08282614484565b606083156139f5575081611a1e565b825115613a055782518084602001fd5b8160405162461bcd60e51b81526004016107d79190613cd3565b6040805161012081019091526000815260208101613a3b613bc3565b8152602001613a48613bc3565b815260200160608152602001606081526020016060815260200160608152602001600061ffff1681526020016000151581525090565b600183019183908215613b165791602002820160005b83821115613ae057835183826101000a81548167ffffffffffffffff021916908367ffffffffffffffff1602179055509260200192600801602081600701049283019260010302613a94565b8015613b145782816101000a81549067ffffffffffffffff0219169055600801602081600701049283019260010302613ae0565b505b50613b22929150613be1565b5090565b828054828255906000526020600020908101928215613b16579160200282015b82811115613b16578251825591602001919060010190613b46565b828054828255906000526020600020908101928215613b16579160200282015b82811115613b16578251825473ffffffffffffffffffffffffffffffffffffffff19166001600160a01b03909116178255602090920191600190910190613b81565b60405180604001604052806002906020820280368337509192915050565b5b80821115613b225760008155600101613be2565b6001600160a01b0381168114610b4c57600080fd5b60008060408385031215613c1e57600080fd5b8235613c2981613bf6565b946020939093013593505050565b6001600160e01b031981168114610b4c57600080fd5b600060208284031215613c5f57600080fd5b8135611a1e81613c37565b600060208284031215613c7c57600080fd5b5035919050565b60005b83811015613c9e578181015183820152602001613c86565b50506000910152565b60008151808452613cbf816020860160208601613c83565b601f01601f19169290920160200192915050565b602081526000611a1e6020830184613ca7565b634e487b7160e01b600052604160045260246000fd5b601f8201601f1916810167ffffffffffffffff81118282101715613d2257613d22613ce6565b6040525050565b600067ffffffffffffffff821115613d4357613d43613ce6565b50601f01601f191660200190565b6000613d5c83613d29565b604051613d698282613cfc565b809250848152858585011115613d7e57600080fd5b8484602083013760006020868301015250509392505050565b600060208284031215613da957600080fd5b813567ffffffffffffffff811115613dc057600080fd5b8201601f81018413613dd157600080fd5b613de084823560208401613d51565b949350505050565b600067ffffffffffffffff821115613e0257613e02613ce6565b5060051b60200190565b600082601f830112613e1d57600080fd5b81356020613e2a82613de8565b604051613e378282613cfc565b83815260059390931b8501820192828101915086841115613e5757600080fd5b8286015b84811015613e725780358352918301918301613e5b565b509695505050505050565b600082601f830112613e8e57600080fd5b611a1e83833560208501613d51565b600080600080600060a08688031215613eb557600080fd5b8535613ec081613bf6565b94506020860135613ed081613bf6565b9350604086013567ffffffffffffffff80821115613eed57600080fd5b613ef989838a01613e0c565b94506060880135915080821115613f0f57600080fd5b613f1b89838a01613e0c565b93506080880135915080821115613f3157600080fd5b50613f3e88828901613e7d565b9150509295509295909350565b60008060408385031215613f5e57600080fd5b823591506020830135613f7081613bf6565b809150509250929050565b600060208284031215613f8d57600080fd5b8135611a1e81613bf6565b60008060408385031215613fab57600080fd5b823567ffffffffffffffff80821115613fc357600080fd5b818501915085601f830112613fd757600080fd5b81356020613fe482613de8565b604051613ff18282613cfc565b83815260059390931b850182019282810191508984111561401157600080fd5b948201945b8386101561403857853561402981613bf6565b82529482019490820190614016565b9650508601359250508082111561404e57600080fd5b5061405b85828601613e0c565b9150509250929050565b600081518084526020808501945080840160005b8381101561409557815187529582019590820190600101614079565b509495945050505050565b602081526000611a1e6020830184614065565b600080604083850312156140c657600080fd5b82356140d181613bf6565b9150602083013567ffffffffffffffff8111156140ed57600080fd5b61405b85828601613e7d565b60008060006060848603121561410e57600080fd5b833561411981613bf6565b9250602084013567ffffffffffffffff8082111561413657600080fd5b61414287838801613e0c565b9350604086013591508082111561415857600080fd5b5061416586828701613e0c565b9150509250925092565b8060005b60028110156122b357815167ffffffffffffffff16845260209384019390910190600101614173565b600081518084526020808501945080840160005b838110156140955781516001600160a01b0316875295820195908201906001016141b0565b6020815281516020820152600060208301516141f4604084018261416f565b506040830151614207608084018261416f565b5060608301516101608060c0850152614224610180850183614065565b91506080850151601f19808685030160e08701526142428483614065565b935060a087015191506101008187860301818801526142618584614065565b945060c08801519250818786030161012088015261427f858461419c565b945060e0880151925061429961014088018461ffff169052565b8701518015158488015291506142ac9050565b5090949350505050565b6000806000606084860312156142cb57600080fd5b83356142d681613bf6565b925060208401359150604084013567ffffffffffffffff8111156142f957600080fd5b61416586828701613e7d565b6000806040838503121561431857600080fd5b823561432381613bf6565b915060208301358015158114613f7057600080fd5b6000806040838503121561434b57600080fd5b823561435681613bf6565b91506020830135613f7081613bf6565b600080600080600060a0868803121561437e57600080fd5b853561438981613bf6565b9450602086013561439981613bf6565b93506040860135925060608601359150608086013567ffffffffffffffff8111156143c357600080fd5b613f3e88828901613e7d565b6000806000606084860312156143e457600080fd5b83356143ef81613bf6565b95602085013595506040909401359392505050565b600181811c9082168061441857607f821691505b60208210810361443857634e487b7160e01b600052602260045260246000fd5b50919050565b601f82111561094357600081815260208120601f850160051c810160208610156144655750805b601f850160051c820191505b81811015611d5e57828155600101614471565b815167ffffffffffffffff81111561449e5761449e613ce6565b6144b2816144ac8454614404565b8461443e565b602080601f8311600181146144e757600084156144cf5750858301515b600019600386901b1c1916600185901b178555611d5e565b600085815260208120601f198616915b82811015614516578886015182559484019460019091019084016144f7565b50858210156145345787850151600019600388901b60f8161c191681555b5050505050600190811b01905550565b828152604060208201526000613de06040830184613ca7565b634e487b7160e01b600052601160045260246000fd5b61ffff81811683821601908082111561458e5761458e61455d565b5092915050565b634e487b7160e01b600052603260045260246000fd5b6000600182016145bd576145bd61455d565b5060010190565b808201808211156108055761080561455d565b60006101a08d83526001600160a01b038d1660208401528b60408401528060608401526146068184018c61419c565b9050614615608084018b61416f565b61462260c084018a61416f565b8281036101008401526146358189614065565b905082810361012084015261464a8188614065565b905082810361014084015261465f8187614065565b905061ffff851661016084015282810361018084015261467f8185613ca7565b9e9d5050505050505050505050505050565b828152604060208201526000613de06040830184614065565b60008084546146b881614404565b600182811680156146d057600181146146e557614714565b60ff1984168752821515830287019450614714565b8860005260208060002060005b8581101561470b5781548a8201529084019082016146f2565b50505082870194505b505050508351614728818360208801613c83565b01949350505050565b6040815260006147446040830185614065565b82810360208401526139d18185614065565b60006020828403121561476857600080fd5b5051919050565b600082601f83011261478057600080fd5b8151602061478d82613de8565b60405161479a8282613cfc565b83815260059390931b85018201928281019150868411156147ba57600080fd5b8286015b84811015613e7257805183529183019183016147be565b600082601f8301126147e657600080fd5b6040516040810167ffffffffffffffff828210818311171561480a5761480a613ce6565b6040918252829185018681111561482057600080fd5b855b81811015614849578051838116811461483b5760008081fd5b845260209384019301614822565b50929695505050505050565b600082601f83011261486657600080fd5b8151602061487382613de8565b6040516148808282613cfc565b83815260059390931b85018201928281019150868411156148a057600080fd5b8286015b84811015613e725780516148b781613bf6565b83529183019183016148a4565b600082601f8301126148d557600080fd5b81516148e081613d29565b6040516148ed8282613cfc565b82815285602084870101111561490257600080fd5b6139d1836020830160208801613c83565b6000806000806000806000610120888a03121561492f57600080fd5b875167ffffffffffffffff8082111561494757600080fd5b6149538b838c0161476f565b985060208a015191508082111561496957600080fd5b6149758b838c0161476f565b975060408a015191508082111561498b57600080fd5b6149978b838c0161476f565b96506149a68b60608c016147d5565b95506149b58b60a08c016147d5565b945060e08a01519150808211156149cb57600080fd5b6149d78b838c01614855565b93506101008a01519150808211156149ee57600080fd5b506149fb8a828b016148c4565b91505092959891949750929550565b614a14818661416f565b60c060408201526000614a2a60c0830186614065565b614a37606084018661416f565b82810360a0840152614a498185614065565b979650505050505050565b60006001600160a01b03808816835280871660208401525060a06040830152614a8060a0830186614065565b8281036060840152614a928186614065565b90508281036080840152614aa68185613ca7565b98975050505050505050565b600060208284031215614ac457600080fd5b8151611a1e81613c37565b600060033d1115610f1a5760046000803e5060005160e01c90565b600060443d1015614af85790565b6040516003193d81016004833e81513d67ffffffffffffffff8160248401118184111715614b2857505050505090565b8285019150815181811115614b405750505050505090565b843d8701016020828501011115614b5a5750505050505090565b614b6960208286010187613cfc565b509095945050505050565b7f416363657373436f6e74726f6c3a206163636f756e7420000000000000000000815260008351614bac816017850160208801613c83565b7f206973206d697373696e6720726f6c65200000000000000000000000000000006017918401918201528351614be9816028840160208801613c83565b01602801949350505050565b60006001600160a01b03808816835280871660208401525084604083015283606083015260a06080830152614a4960a0830184613ca7565b6000816000190483118215151615614c4757614c4761455d565b500290565b600081614c5b57614c5b61455d565b506000190190565b60008251614c75818460208701613c83565b919091019291505056fe416464726573733a206c6f772d6c6576656c2064656c65676174652063616c6c206661696c6564a164736f6c6343000810000a",
  "linkReferences": {},
  "deployedLinkReferences": {}
}