{
  "_format": "hh-sol-artifact-1",
  "contractName": "HypercertMinterUpgrade",
  "sourceName": "contracts/mocks/HypercertMinterUpgrade.sol",
  "abi": [
    {
      "inputs": [],
      "stateMutability": "nonpayable",
      "type": "constructor"
    },
    {
      "anonymous": false,
      "inputs": [
        {
          "indexed": false,
          "internalType": "address",
          "name": "previousAdmin",
          "type": "address"
        },
        {
          "indexed": false,
          "internalType": "address",
          "name": "newAdmin",
          "type": "address"
        }
      ],
      "name": "AdminChanged",
      "type": "event"
    },
    {
      "anonymous": false,
      "inputs": [
        {
          "indexed": true,
          "internalType": "address",
          "name": "owner",
          "type": "address"
        },
        {
          "indexed": true,
          "internalType": "address",
          "name": "approved",
          "type": "address"
        },
        {
          "indexed": true,
          "internalType": "uint256",
          "name": "tokenId",
          "type": "uint256"
        }
      ],
      "name": "Approval",
      "type": "event"
    },
    {
      "anonymous": false,
      "inputs": [
        {
          "indexed": true,
          "internalType": "address",
          "name": "owner",
          "type": "address"
        },
        {
          "indexed": true,
          "internalType": "address",
          "name": "operator",
          "type": "address"
        },
        {
          "indexed": false,
          "internalType": "bool",
          "name": "approved",
          "type": "bool"
        }
      ],
      "name": "ApprovalForAll",
      "type": "event"
    },
    {
      "anonymous": false,
      "inputs": [
        {
          "indexed": true,
          "internalType": "uint256",
          "name": "_tokenId",
          "type": "uint256"
        },
        {
          "indexed": true,
          "internalType": "address",
          "name": "_operator",
          "type": "address"
        },
        {
          "indexed": false,
          "internalType": "uint256",
          "name": "_value",
          "type": "uint256"
        }
      ],
      "name": "ApprovalValue",
      "type": "event"
    },
    {
      "anonymous": false,
      "inputs": [
        {
          "indexed": true,
          "internalType": "address",
          "name": "beacon",
          "type": "address"
        }
      ],
      "name": "BeaconUpgraded",
      "type": "event"
    },
    {
      "anonymous": false,
      "inputs": [
        {
          "indexed": false,
          "internalType": "uint256",
          "name": "id",
          "type": "uint256"
        },
        {
          "indexed": false,
          "internalType": "address",
          "name": "minter",
          "type": "address"
        },
        {
          "indexed": false,
          "internalType": "bytes32",
          "name": "claimHash",
          "type": "bytes32"
        },
        {
          "indexed": false,
          "internalType": "address[]",
          "name": "contributors",
          "type": "address[]"
        },
        {
          "indexed": false,
          "internalType": "uint64[2]",
          "name": "workTimeframe",
          "type": "uint64[2]"
        },
        {
          "indexed": false,
          "internalType": "uint64[2]",
          "name": "impactTimeframe",
          "type": "uint64[2]"
        },
        {
          "indexed": false,
          "internalType": "bytes32[]",
          "name": "workScopes",
          "type": "bytes32[]"
        },
        {
          "indexed": false,
          "internalType": "bytes32[]",
          "name": "impactScopes",
          "type": "bytes32[]"
        },
        {
          "indexed": false,
          "internalType": "bytes32[]",
          "name": "rights",
          "type": "bytes32[]"
        },
        {
          "indexed": false,
          "internalType": "uint8[]",
          "name": "fractions",
          "type": "uint8[]"
        },
        {
          "indexed": false,
          "internalType": "uint64",
          "name": "version",
          "type": "uint64"
        },
        {
          "indexed": false,
          "internalType": "string",
          "name": "uri",
          "type": "string"
        }
      ],
      "name": "ImpactClaimed",
      "type": "event"
    },
    {
      "anonymous": false,
      "inputs": [
        {
          "indexed": false,
          "internalType": "bytes32",
          "name": "id",
          "type": "bytes32"
        },
        {
          "indexed": false,
          "internalType": "string",
          "name": "text",
          "type": "string"
        }
      ],
      "name": "ImpactScopeAdded",
      "type": "event"
    },
    {
      "anonymous": false,
      "inputs": [
        {
          "indexed": false,
          "internalType": "uint8",
          "name": "version",
          "type": "uint8"
        }
      ],
      "name": "Initialized",
      "type": "event"
    },
    {
      "anonymous": false,
      "inputs": [
        {
          "indexed": false,
          "internalType": "bytes32",
          "name": "id",
          "type": "bytes32"
        },
        {
          "indexed": false,
          "internalType": "string",
          "name": "text",
          "type": "string"
        }
      ],
      "name": "RightAdded",
      "type": "event"
    },
    {
      "anonymous": false,
      "inputs": [
        {
          "indexed": true,
          "internalType": "bytes32",
          "name": "role",
          "type": "bytes32"
        },
        {
          "indexed": true,
          "internalType": "bytes32",
          "name": "previousAdminRole",
          "type": "bytes32"
        },
        {
          "indexed": true,
          "internalType": "bytes32",
          "name": "newAdminRole",
          "type": "bytes32"
        }
      ],
      "name": "RoleAdminChanged",
      "type": "event"
    },
    {
      "anonymous": false,
      "inputs": [
        {
          "indexed": true,
          "internalType": "bytes32",
          "name": "role",
          "type": "bytes32"
        },
        {
          "indexed": true,
          "internalType": "address",
          "name": "account",
          "type": "address"
        },
        {
          "indexed": true,
          "internalType": "address",
          "name": "sender",
          "type": "address"
        }
      ],
      "name": "RoleGranted",
      "type": "event"
    },
    {
      "anonymous": false,
      "inputs": [
        {
          "indexed": true,
          "internalType": "bytes32",
          "name": "role",
          "type": "bytes32"
        },
        {
          "indexed": true,
          "internalType": "address",
          "name": "account",
          "type": "address"
        },
        {
          "indexed": true,
          "internalType": "address",
          "name": "sender",
          "type": "address"
        }
      ],
      "name": "RoleRevoked",
      "type": "event"
    },
    {
      "anonymous": false,
      "inputs": [
        {
          "indexed": true,
          "internalType": "uint256",
          "name": "_tokenId",
          "type": "uint256"
        },
        {
          "indexed": true,
          "internalType": "uint256",
          "name": "_oldSlot",
          "type": "uint256"
        },
        {
          "indexed": true,
          "internalType": "uint256",
          "name": "_newSlot",
          "type": "uint256"
        }
      ],
      "name": "SlotChanged",
      "type": "event"
    },
    {
      "anonymous": false,
      "inputs": [
        {
          "indexed": false,
          "internalType": "uint256",
          "name": "fromID",
          "type": "uint256"
        },
        {
          "indexed": false,
          "internalType": "uint256[]",
          "name": "toID",
          "type": "uint256[]"
        }
      ],
      "name": "Split",
      "type": "event"
    },
    {
      "anonymous": false,
      "inputs": [
        {
          "indexed": true,
          "internalType": "address",
          "name": "from",
          "type": "address"
        },
        {
          "indexed": true,
          "internalType": "address",
          "name": "to",
          "type": "address"
        },
        {
          "indexed": true,
          "internalType": "uint256",
          "name": "tokenId",
          "type": "uint256"
        }
      ],
      "name": "Transfer",
      "type": "event"
    },
    {
      "anonymous": false,
      "inputs": [
        {
          "indexed": true,
          "internalType": "uint256",
          "name": "_fromTokenId",
          "type": "uint256"
        },
        {
          "indexed": true,
          "internalType": "uint256",
          "name": "_toTokenId",
          "type": "uint256"
        },
        {
          "indexed": false,
          "internalType": "uint256",
          "name": "_value",
          "type": "uint256"
        }
      ],
      "name": "TransferValue",
      "type": "event"
    },
    {
      "anonymous": false,
      "inputs": [
        {
          "indexed": true,
          "internalType": "address",
          "name": "implementation",
          "type": "address"
        }
      ],
      "name": "Upgraded",
      "type": "event"
    },
    {
      "anonymous": false,
      "inputs": [
        {
          "indexed": false,
          "internalType": "bytes32",
          "name": "id",
          "type": "bytes32"
        },
        {
          "indexed": false,
          "internalType": "string",
          "name": "text",
          "type": "string"
        }
      ],
      "name": "WorkScopeAdded",
      "type": "event"
    },
    {
      "inputs": [],
      "name": "DECIMALS",
      "outputs": [
        {
          "internalType": "uint8",
          "name": "",
          "type": "uint8"
        }
      ],
      "stateMutability": "view",
      "type": "function"
    },
    {
      "inputs": [],
      "name": "DEFAULT_ADMIN_ROLE",
      "outputs": [
        {
          "internalType": "bytes32",
          "name": "",
          "type": "bytes32"
        }
      ],
      "stateMutability": "view",
      "type": "function"
    },
    {
      "inputs": [],
      "name": "NAME",
      "outputs": [
        {
          "internalType": "string",
          "name": "",
          "type": "string"
        }
      ],
      "stateMutability": "view",
      "type": "function"
    },
    {
      "inputs": [],
      "name": "SYMBOL",
      "outputs": [
        {
          "internalType": "string",
          "name": "",
          "type": "string"
        }
      ],
      "stateMutability": "view",
      "type": "function"
    },
    {
      "inputs": [],
      "name": "UPGRADER_ROLE",
      "outputs": [
        {
          "internalType": "bytes32",
          "name": "",
          "type": "bytes32"
        }
      ],
      "stateMutability": "view",
      "type": "function"
    },
    {
      "inputs": [
        {
          "internalType": "string",
          "name": "text",
          "type": "string"
        }
      ],
      "name": "addImpactScope",
      "outputs": [
        {
          "internalType": "bytes32",
          "name": "id",
          "type": "bytes32"
        }
      ],
      "stateMutability": "nonpayable",
      "type": "function"
    },
    {
      "inputs": [
        {
          "internalType": "string",
          "name": "text",
          "type": "string"
        }
      ],
      "name": "addRight",
      "outputs": [
        {
          "internalType": "bytes32",
          "name": "id",
          "type": "bytes32"
        }
      ],
      "stateMutability": "nonpayable",
      "type": "function"
    },
    {
      "inputs": [
        {
          "internalType": "string",
          "name": "text",
          "type": "string"
        }
      ],
      "name": "addWorkScope",
      "outputs": [
        {
          "internalType": "bytes32",
          "name": "id",
          "type": "bytes32"
        }
      ],
      "stateMutability": "nonpayable",
      "type": "function"
    },
    {
      "inputs": [
        {
          "internalType": "uint256",
          "name": "tokenId_",
          "type": "uint256"
        },
        {
          "internalType": "address",
          "name": "operator_",
          "type": "address"
        }
      ],
      "name": "allowance",
      "outputs": [
        {
          "internalType": "uint256",
          "name": "",
          "type": "uint256"
        }
      ],
      "stateMutability": "view",
      "type": "function"
    },
    {
      "inputs": [
        {
          "internalType": "address",
          "name": "to",
          "type": "address"
        },
        {
          "internalType": "uint256",
          "name": "tokenId",
          "type": "uint256"
        }
      ],
      "name": "approve",
      "outputs": [],
      "stateMutability": "nonpayable",
      "type": "function"
    },
    {
      "inputs": [
        {
          "internalType": "uint256",
          "name": "tokenId_",
          "type": "uint256"
        },
        {
          "internalType": "address",
          "name": "to_",
          "type": "address"
        },
        {
          "internalType": "uint256",
          "name": "value_",
          "type": "uint256"
        }
      ],
      "name": "approve",
      "outputs": [],
      "stateMutability": "payable",
      "type": "function"
    },
    {
      "inputs": [
        {
          "internalType": "address",
          "name": "owner",
          "type": "address"
        }
      ],
      "name": "balanceOf",
      "outputs": [
        {
          "internalType": "uint256",
          "name": "",
          "type": "uint256"
        }
      ],
      "stateMutability": "view",
      "type": "function"
    },
    {
      "inputs": [
        {
          "internalType": "uint256",
          "name": "tokenId_",
          "type": "uint256"
        }
      ],
      "name": "balanceOf",
      "outputs": [
        {
          "internalType": "uint256",
          "name": "",
          "type": "uint256"
        }
      ],
      "stateMutability": "view",
      "type": "function"
    },
    {
      "inputs": [
        {
          "internalType": "uint256",
          "name": "tokenId",
          "type": "uint256"
        }
      ],
      "name": "burn",
      "outputs": [],
      "stateMutability": "nonpayable",
      "type": "function"
    },
    {
      "inputs": [],
      "name": "contractURI",
      "outputs": [
        {
          "internalType": "string",
          "name": "",
          "type": "string"
        }
      ],
      "stateMutability": "view",
      "type": "function"
    },
    {
      "inputs": [
        {
          "internalType": "uint256",
          "name": "tokenId",
          "type": "uint256"
        }
      ],
      "name": "getApproved",
      "outputs": [
        {
          "internalType": "address",
          "name": "",
          "type": "address"
        }
      ],
      "stateMutability": "view",
      "type": "function"
    },
    {
      "inputs": [
        {
          "internalType": "uint256",
          "name": "claimID",
          "type": "uint256"
        }
      ],
      "name": "getImpactCert",
      "outputs": [
        {
          "components": [
            {
              "internalType": "bytes32",
              "name": "claimHash",
              "type": "bytes32"
            },
            {
              "internalType": "uint64[2]",
              "name": "workTimeframe",
              "type": "uint64[2]"
            },
            {
              "internalType": "uint64[2]",
              "name": "impactTimeframe",
              "type": "uint64[2]"
            },
            {
              "internalType": "bytes32[]",
              "name": "workScopes",
              "type": "bytes32[]"
            },
            {
              "internalType": "bytes32[]",
              "name": "impactScopes",
              "type": "bytes32[]"
            },
            {
              "internalType": "bytes32[]",
              "name": "rights",
              "type": "bytes32[]"
            },
            {
              "internalType": "address[]",
              "name": "contributors",
              "type": "address[]"
            },
            {
              "internalType": "uint8[]",
              "name": "fractions",
              "type": "uint8[]"
            },
            {
              "internalType": "uint16",
              "name": "version",
              "type": "uint16"
            },
            {
              "internalType": "bool",
              "name": "exists",
              "type": "bool"
            }
          ],
          "internalType": "struct HypercertMinterV0.Claim",
          "name": "",
          "type": "tuple"
        }
      ],
      "stateMutability": "view",
      "type": "function"
    },
    {
      "inputs": [
        {
          "internalType": "bytes32",
          "name": "role",
          "type": "bytes32"
        }
      ],
      "name": "getRoleAdmin",
      "outputs": [
        {
          "internalType": "bytes32",
          "name": "",
          "type": "bytes32"
        }
      ],
      "stateMutability": "view",
      "type": "function"
    },
    {
      "inputs": [
        {
          "internalType": "bytes32",
          "name": "role",
          "type": "bytes32"
        },
        {
          "internalType": "address",
          "name": "account",
          "type": "address"
        }
      ],
      "name": "grantRole",
      "outputs": [],
      "stateMutability": "nonpayable",
      "type": "function"
    },
    {
      "inputs": [
        {
          "internalType": "bytes32",
          "name": "role",
          "type": "bytes32"
        },
        {
          "internalType": "address",
          "name": "account",
          "type": "address"
        }
      ],
      "name": "hasRole",
      "outputs": [
        {
          "internalType": "bool",
          "name": "",
          "type": "bool"
        }
      ],
      "stateMutability": "view",
      "type": "function"
    },
    {
      "inputs": [
        {
          "internalType": "bytes32",
          "name": "",
          "type": "bytes32"
        }
      ],
      "name": "impactScopes",
      "outputs": [
        {
          "internalType": "string",
          "name": "",
          "type": "string"
        }
      ],
      "stateMutability": "view",
      "type": "function"
    },
    {
      "inputs": [],
      "name": "initialize",
      "outputs": [],
      "stateMutability": "nonpayable",
      "type": "function"
    },
    {
      "inputs": [
        {
          "internalType": "address",
          "name": "owner",
          "type": "address"
        },
        {
          "internalType": "address",
          "name": "operator",
          "type": "address"
        }
      ],
      "name": "isApprovedForAll",
      "outputs": [
        {
          "internalType": "bool",
          "name": "",
          "type": "bool"
        }
      ],
      "stateMutability": "view",
      "type": "function"
    },
    {
      "inputs": [
        {
          "internalType": "address",
          "name": "account",
          "type": "address"
        },
        {
          "internalType": "bytes",
          "name": "data",
          "type": "bytes"
        }
      ],
      "name": "mint",
      "outputs": [],
      "stateMutability": "nonpayable",
      "type": "function"
    },
    {
      "inputs": [],
      "name": "name",
      "outputs": [
        {
          "internalType": "string",
          "name": "",
          "type": "string"
        }
      ],
      "stateMutability": "pure",
      "type": "function"
    },
    {
      "inputs": [
        {
          "internalType": "uint256",
          "name": "tokenId",
          "type": "uint256"
        }
      ],
      "name": "ownerOf",
      "outputs": [
        {
          "internalType": "address",
          "name": "",
          "type": "address"
        }
      ],
      "stateMutability": "view",
      "type": "function"
    },
    {
      "inputs": [],
      "name": "proxiableUUID",
      "outputs": [
        {
          "internalType": "bytes32",
          "name": "",
          "type": "bytes32"
        }
      ],
      "stateMutability": "view",
      "type": "function"
    },
    {
      "inputs": [
        {
          "internalType": "bytes32",
          "name": "role",
          "type": "bytes32"
        },
        {
          "internalType": "address",
          "name": "account",
          "type": "address"
        }
      ],
      "name": "renounceRole",
      "outputs": [],
      "stateMutability": "nonpayable",
      "type": "function"
    },
    {
      "inputs": [
        {
          "internalType": "bytes32",
          "name": "role",
          "type": "bytes32"
        },
        {
          "internalType": "address",
          "name": "account",
          "type": "address"
        }
      ],
      "name": "revokeRole",
      "outputs": [],
      "stateMutability": "nonpayable",
      "type": "function"
    },
    {
      "inputs": [
        {
          "internalType": "bytes32",
          "name": "",
          "type": "bytes32"
        }
      ],
      "name": "rights",
      "outputs": [
        {
          "internalType": "string",
          "name": "",
          "type": "string"
        }
      ],
      "stateMutability": "view",
      "type": "function"
    },
    {
      "inputs": [
        {
          "internalType": "address",
          "name": "from",
          "type": "address"
        },
        {
          "internalType": "address",
          "name": "to",
          "type": "address"
        },
        {
          "internalType": "uint256",
          "name": "tokenId",
          "type": "uint256"
        }
      ],
      "name": "safeTransferFrom",
      "outputs": [],
      "stateMutability": "nonpayable",
      "type": "function"
    },
    {
      "inputs": [
        {
          "internalType": "address",
          "name": "from",
          "type": "address"
        },
        {
          "internalType": "address",
          "name": "to",
          "type": "address"
        },
        {
          "internalType": "uint256",
          "name": "tokenId",
          "type": "uint256"
        },
        {
          "internalType": "bytes",
          "name": "data",
          "type": "bytes"
        }
      ],
      "name": "safeTransferFrom",
      "outputs": [],
      "stateMutability": "nonpayable",
      "type": "function"
    },
    {
      "inputs": [
        {
          "internalType": "address",
          "name": "operator",
          "type": "address"
        },
        {
          "internalType": "bool",
          "name": "approved",
          "type": "bool"
        }
      ],
      "name": "setApprovalForAll",
      "outputs": [],
      "stateMutability": "nonpayable",
      "type": "function"
    },
    {
      "inputs": [
        {
          "internalType": "uint256",
          "name": "_index",
          "type": "uint256"
        }
      ],
      "name": "slotByIndex",
      "outputs": [
        {
          "internalType": "uint256",
          "name": "",
          "type": "uint256"
        }
      ],
      "stateMutability": "view",
      "type": "function"
    },
    {
      "inputs": [],
      "name": "slotCount",
      "outputs": [
        {
          "internalType": "uint256",
          "name": "",
          "type": "uint256"
        }
      ],
      "stateMutability": "view",
      "type": "function"
    },
    {
      "inputs": [
        {
          "internalType": "uint256",
          "name": "tokenId_",
          "type": "uint256"
        }
      ],
      "name": "slotOf",
      "outputs": [
        {
          "internalType": "uint256",
          "name": "",
          "type": "uint256"
        }
      ],
      "stateMutability": "view",
      "type": "function"
    },
    {
      "inputs": [
        {
          "internalType": "uint256",
          "name": "",
          "type": "uint256"
        }
      ],
      "name": "slotURI",
      "outputs": [
        {
          "internalType": "string",
          "name": "",
          "type": "string"
        }
      ],
      "stateMutability": "pure",
      "type": "function"
    },
    {
      "inputs": [
        {
          "internalType": "uint256",
          "name": "id",
          "type": "uint256"
        }
      ],
      "name": "split",
      "outputs": [],
      "stateMutability": "nonpayable",
      "type": "function"
    },
    {
      "inputs": [
        {
          "internalType": "bytes4",
          "name": "interfaceId",
          "type": "bytes4"
        }
      ],
      "name": "supportsInterface",
      "outputs": [
        {
          "internalType": "bool",
          "name": "",
          "type": "bool"
        }
      ],
      "stateMutability": "view",
      "type": "function"
    },
    {
      "inputs": [],
      "name": "symbol",
      "outputs": [
        {
          "internalType": "string",
          "name": "",
          "type": "string"
        }
      ],
      "stateMutability": "pure",
      "type": "function"
    },
    {
      "inputs": [
        {
          "internalType": "uint256",
          "name": "index",
          "type": "uint256"
        }
      ],
      "name": "tokenByIndex",
      "outputs": [
        {
          "internalType": "uint256",
          "name": "",
          "type": "uint256"
        }
      ],
      "stateMutability": "view",
      "type": "function"
    },
    {
      "inputs": [
        {
          "internalType": "uint256",
          "name": "_slot",
          "type": "uint256"
        },
        {
          "internalType": "uint256",
          "name": "_index",
          "type": "uint256"
        }
      ],
      "name": "tokenInSlotByIndex",
      "outputs": [
        {
          "internalType": "uint256",
          "name": "",
          "type": "uint256"
        }
      ],
      "stateMutability": "view",
      "type": "function"
    },
    {
      "inputs": [
        {
          "internalType": "address",
          "name": "owner",
          "type": "address"
        },
        {
          "internalType": "uint256",
          "name": "index",
          "type": "uint256"
        }
      ],
      "name": "tokenOfOwnerByIndex",
      "outputs": [
        {
          "internalType": "uint256",
          "name": "",
          "type": "uint256"
        }
      ],
      "stateMutability": "view",
      "type": "function"
    },
    {
      "inputs": [
        {
          "internalType": "uint256",
          "name": "_slot",
          "type": "uint256"
        }
      ],
      "name": "tokenSupplyInSlot",
      "outputs": [
        {
          "internalType": "uint256",
          "name": "",
          "type": "uint256"
        }
      ],
      "stateMutability": "view",
      "type": "function"
    },
    {
      "inputs": [
        {
          "internalType": "uint256",
          "name": "tokenID_",
          "type": "uint256"
        }
      ],
      "name": "tokenURI",
      "outputs": [
        {
          "internalType": "string",
          "name": "",
          "type": "string"
        }
      ],
      "stateMutability": "view",
      "type": "function"
    },
    {
      "inputs": [],
      "name": "totalSupply",
      "outputs": [
        {
          "internalType": "uint256",
          "name": "",
          "type": "uint256"
        }
      ],
      "stateMutability": "view",
      "type": "function"
    },
    {
      "inputs": [
        {
          "internalType": "uint256",
          "name": "fromTokenId_",
          "type": "uint256"
        },
        {
          "internalType": "address",
          "name": "to_",
          "type": "address"
        },
        {
          "internalType": "uint256",
          "name": "value_",
          "type": "uint256"
        }
      ],
      "name": "transferFrom",
      "outputs": [
        {
          "internalType": "uint256",
          "name": "",
          "type": "uint256"
        }
      ],
      "stateMutability": "payable",
      "type": "function"
    },
    {
      "inputs": [
        {
          "internalType": "address",
          "name": "from",
          "type": "address"
        },
        {
          "internalType": "address",
          "name": "to",
          "type": "address"
        },
        {
          "internalType": "uint256",
          "name": "tokenId",
          "type": "uint256"
        }
      ],
      "name": "transferFrom",
      "outputs": [],
      "stateMutability": "nonpayable",
      "type": "function"
    },
    {
      "inputs": [
        {
          "internalType": "uint256",
          "name": "fromTokenId_",
          "type": "uint256"
        },
        {
          "internalType": "uint256",
          "name": "toTokenId_",
          "type": "uint256"
        },
        {
          "internalType": "uint256",
          "name": "value_",
          "type": "uint256"
        }
      ],
      "name": "transferFrom",
      "outputs": [],
      "stateMutability": "payable",
      "type": "function"
    },
    {
      "inputs": [],
      "name": "updateVersion",
      "outputs": [],
      "stateMutability": "nonpayable",
      "type": "function"
    },
    {
      "inputs": [
        {
          "internalType": "address",
          "name": "newImplementation",
          "type": "address"
        }
      ],
      "name": "upgradeTo",
      "outputs": [],
      "stateMutability": "nonpayable",
      "type": "function"
    },
    {
      "inputs": [
        {
          "internalType": "address",
          "name": "newImplementation",
          "type": "address"
        },
        {
          "internalType": "bytes",
          "name": "data",
          "type": "bytes"
        }
      ],
      "name": "upgradeToAndCall",
      "outputs": [],
      "stateMutability": "payable",
      "type": "function"
    },
    {
      "inputs": [],
      "name": "valueDecimals",
      "outputs": [
        {
          "internalType": "uint8",
          "name": "",
          "type": "uint8"
        }
      ],
      "stateMutability": "view",
      "type": "function"
    },
    {
      "inputs": [],
      "name": "version",
      "outputs": [
        {
          "internalType": "uint256",
          "name": "",
          "type": "uint256"
        }
      ],
      "stateMutability": "view",
      "type": "function"
    },
    {
      "inputs": [
        {
          "internalType": "bytes32",
          "name": "",
          "type": "bytes32"
        }
      ],
      "name": "workScopes",
      "outputs": [
        {
          "internalType": "string",
          "name": "",
          "type": "string"
        }
      ],
      "stateMutability": "view",
      "type": "function"
    }
  ],
  "bytecode": "0x60a0604052306080523480156200001557600080fd5b506200002062000030565b6200002a62000030565b620000f2565b600054610100900460ff16156200009d5760405162461bcd60e51b815260206004820152602760248201527f496e697469616c697a61626c653a20636f6e747261637420697320696e697469604482015266616c697a696e6760c81b606482015260840160405180910390fd5b60005460ff9081161015620000f0576000805460ff191660ff9081179091556040519081527f7f26b83ff96e1f2b6a682f133852f6798a09c465da95921460cefb38474024989060200160405180910390a15b565b6080516157226200012a6000396000818161104a015281816110cf015281816112b70152818161133c01526114c601526157226000f3fe60806040526004361061035f5760003560e01c80636352211e116101c6578063b510391f116100f7578063e8a3d48511610095578063ef6f66d71161006f578063ef6f66d714610a5c578063f0f11e0514610a7c578063f72c0d8b14610a9c578063f76f8d7814610ad057600080fd5b8063e8a3d485146109e9578063e985e9c5146109fe578063ed08fa8014610a4757600080fd5b8063d52fd095116100d1578063d52fd09514610942578063d547741f14610962578063dbceb00514610982578063e345e0bc146109a257600080fd5b8063b510391f146108e2578063b88d4fde14610902578063c87b56dd1461092257600080fd5b806395d89b41116101645780639cc7f7081161013e5780639cc7f70814610857578063a217fddf14610877578063a22cb4651461088c578063a3f4df7e146108ac57600080fd5b806395d89b41146107ea578063993bef8d14610817578063997edc611461083757600080fd5b80638129fc1c116101a05780638129fc1c1461075b5780638cb0a511146107705780638f88b7671461078357806391d14854146107a357600080fd5b80636352211e146106ee57806370a082311461070e57806372927aa31461072e57600080fd5b80632f2ff15d116102a057806342966c681161023e5780634f6ccce7116102185780634f6ccce7146106715780634f8a0f831461069157806352d1902d146106bf57806354fd4d50146106d457600080fd5b806342966c681461062957806348c02dc1146106495780634f1ef2861461065e57600080fd5b806336568abe1161027a57806336568abe146105b05780633659cfe6146105d05780633e7e8669146105f057806342842e0e1461060957600080fd5b80632f2ff15d1461055d5780632f745c591461057d578063310ed7f01461059d57600080fd5b80630f485c021161030d57806323b872dd116102e757806323b872dd146104c5578063248a9ca3146104e5578063263f3e7e146105165780632e0f26251461053657600080fd5b80630f485c021461047d57806318160ddd146104905780631e6ad4b8146104a557600080fd5b8063081812fc1161033e578063081812fc14610403578063095ea7b31461043b57806309c3dd871461045d57600080fd5b8062cd01101461036457806301ffc9a71461039757806306fdde03146103c7575b600080fd5b34801561037057600080fd5b5061038461037f36600461482f565b610b00565b6040519081526020015b60405180910390f35b3480156103a357600080fd5b506103b76103b2366004614867565b610b35565b604051901515815260200161038e565b3480156103d357600080fd5b5060408051808201909152600a8152694879706572636572747360b01b60208201525b60405161038e91906148d4565b34801561040f57600080fd5b5061042361041e3660046148e7565b610b40565b6040516001600160a01b03909116815260200161038e565b34801561044757600080fd5b5061045b610456366004614915565b610b67565b005b34801561046957600080fd5b506103f66104783660046148e7565b610c81565b61038461048b366004614941565b610d18565b34801561049c57600080fd5b50609954610384565b3480156104b157600080fd5b506103846104c0366004614a26565b610d65565b3480156104d157600080fd5b5061045b6104e0366004614a6f565b610dce565b3480156104f157600080fd5b506103846105003660046148e7565b6000908152610102602052604090206001015490565b34801561052257600080fd5b506103846105313660046148e7565b610e47565b34801561054257600080fd5b5061054b600081565b60405160ff909116815260200161038e565b34801561056957600080fd5b5061045b610578366004614a9f565b610ed0565b34801561058957600080fd5b50610384610598366004614915565b610ef6565b61045b6105ab366004614acf565b610f9e565b3480156105bc57600080fd5b5061045b6105cb366004614a9f565b610fb4565b3480156105dc57600080fd5b5061045b6105eb366004614afb565b611040565b3480156105fc57600080fd5b506101015460ff1661054b565b34801561061557600080fd5b5061045b610624366004614a6f565b6111bb565b34801561063557600080fd5b5061045b6106443660046148e7565b6111d6565b34801561065557600080fd5b5061045b61124b565b61045b61066c366004614b38565b6112ad565b34801561067d57600080fd5b5061038461068c3660046148e7565b611415565b34801561069d57600080fd5b506103846106ac3660046148e7565b6000908152610100602052604090205490565b3480156106cb57600080fd5b506103846114b9565b3480156106e057600080fd5b506101985461ffff16610384565b3480156106fa57600080fd5b506104236107093660046148e7565b61157e565b34801561071a57600080fd5b50610384610729366004614afb565b6115e3565b34801561073a57600080fd5b5061074e6107493660046148e7565b61167d565b60405161038e9190614c5c565b34801561076757600080fd5b5061045b61197e565b61045b61077e366004614941565b611b34565b34801561078f57600080fd5b506103f661079e3660046148e7565b611c3a565b3480156107af57600080fd5b506103b76107be366004614a9f565b6000918252610102602090815260408084206001600160a01b0393909316845291905290205460ff1690565b3480156107f657600080fd5b506040805180820190915260048152631210d49560e21b60208201526103f6565b34801561082357600080fd5b506103846108323660046148e7565b611cd5565b34801561084357600080fd5b50610384610852366004614a26565b611cea565b34801561086357600080fd5b506103846108723660046148e7565b611d46565b34801561088357600080fd5b50610384600081565b34801561089857600080fd5b5061045b6108a7366004614d5c565b611de3565b3480156108b857600080fd5b506103f66040518060400160405280600a8152602001694879706572636572747360b01b81525081565b3480156108ee57600080fd5b5061045b6108fd366004614b38565b611dee565b34801561090e57600080fd5b5061045b61091d366004614d8f565b612029565b34801561092e57600080fd5b506103f661093d3660046148e7565b6120a2565b34801561094e57600080fd5b506103f661095d3660046148e7565b612174565b34801561096e57600080fd5b5061045b61097d366004614a9f565b61218e565b34801561098e57600080fd5b5061045b61099d3660046148e7565b6121b4565b3480156109ae57600080fd5b506103846109bd366004614a9f565b600082815260fc602090815260408083206001600160a01b038516845260010190915290205492915050565b3480156109f557600080fd5b506103f66122a1565b348015610a0a57600080fd5b506103b7610a19366004614dfb565b6001600160a01b039182166000908152606a6020908152604080832093909416825291909152205460ff1690565b348015610a5357600080fd5b5060fe54610384565b348015610a6857600080fd5b506103f6610a773660046148e7565b612312565b348015610a8857600080fd5b50610384610a97366004614a26565b61232c565b348015610aa857600080fd5b506103847f189ab7a9244df0848122154315af71fe140f3db0fe014031783b0946b8c9d2e381565b348015610adc57600080fd5b506103f6604051806040016040528060048152602001631210d49560e21b81525081565b600082815261010060205260408120805483908110610b2157610b21614e29565b906000526020600020015490505b92915050565b6000610b2f82612388565b6000610b4b826123ad565b506000908152606960205260409020546001600160a01b031690565b6000610b728261157e565b9050806001600160a01b0316836001600160a01b031603610be45760405162461bcd60e51b815260206004820152602160248201527f4552433732313a20617070726f76616c20746f2063757272656e74206f776e656044820152603960f91b60648201526084015b60405180910390fd5b336001600160a01b0382161480610c005750610c008133610a19565b610c725760405162461bcd60e51b815260206004820152603e60248201527f4552433732313a20617070726f76652063616c6c6572206973206e6f7420746f60448201527f6b656e206f776e6572206e6f7220617070726f76656420666f7220616c6c00006064820152608401610bdb565b610c7c8383612411565b505050565b6060604051602001610d02907f646174613a6170706c69636174696f6e2f6a736f6e3b7b6e616d653a536c6f7481527f205479706520412c6465736372697074696f6e3a536c6f74205479706520412060208201527f6465736372697074696f6e7d00000000000000000000000000000000000000006040820152604c0190565b6040516020818303038152906040529050919050565b6000610d2533858461247f565b6000610d3085612527565b9050610d50848260fd60008981526020019081526020016000205461253d565b610d5b8582856125f9565b90505b9392505050565b6000610d738261019c6128b5565b600081815261019c60205260409020909150610d8f8382614ebf565b507f2efcce702e3d0b95b3deb632da6d41c3d169e0c3effb9066d949f14d6f13224f8183604051610dc1929190614f7f565b60405180910390a1919050565b610dd9335b82612987565b610e3c5760405162461bcd60e51b815260206004820152602e60248201527f4552433732313a2063616c6c6572206973206e6f7420746f6b656e206f776e6560448201526d1c881b9bdc88185c1c1c9bdd995960921b6064820152608401610bdb565b610c7c838383612a06565b6000818152606760205260408120546001600160a01b0316610ebd5760405162461bcd60e51b815260206004820152602960248201527f455243333532353a20736c6f7420717565727920666f72206e6f6e657869737460448201526832b73a103a37b5b2b760b91b6064820152608401610bdb565b50600090815260fd602052604090205490565b60008281526101026020526040902060010154610eec81612bc5565b610c7c8383612bcf565b6000610f01836115e3565b8210610f755760405162461bcd60e51b815260206004820152602b60248201527f455243373231456e756d657261626c653a206f776e657220696e646578206f7560448201527f74206f6620626f756e64730000000000000000000000000000000000000000006064820152608401610bdb565b506001600160a01b03919091166000908152609760209081526040808320938352929052205490565b610fa933848361247f565b610c7c8383836125f9565b6001600160a01b03811633146110325760405162461bcd60e51b815260206004820152602f60248201527f416363657373436f6e74726f6c3a2063616e206f6e6c792072656e6f756e636560448201527f20726f6c657320666f722073656c6600000000000000000000000000000000006064820152608401610bdb565b61103c8282612c73565b5050565b6001600160a01b037f00000000000000000000000000000000000000000000000000000000000000001630036110cd5760405162461bcd60e51b815260206004820152602c60248201527f46756e6374696f6e206d7573742062652063616c6c6564207468726f7567682060448201526b19195b1959d85d1958d85b1b60a21b6064820152608401610bdb565b7f00000000000000000000000000000000000000000000000000000000000000006001600160a01b03166111287f360894a13ba1a3210667c828492db98dca3e2076cc3735a920a3ca505d382bbc546001600160a01b031690565b6001600160a01b0316146111935760405162461bcd60e51b815260206004820152602c60248201527f46756e6374696f6e206d7573742062652063616c6c6564207468726f7567682060448201526b6163746976652070726f787960a01b6064820152608401610bdb565b61119c81612cf8565b604080516000808252602082019092526111b891839190612d22565b50565b610c7c83838360405180602001604052806000815250612029565b6111df33610dd3565b6112425760405162461bcd60e51b815260206004820152602e60248201527f4552433732313a2063616c6c6572206973206e6f7420746f6b656e206f776e6560448201526d1c881b9bdc88185c1c1c9bdd995960921b6064820152608401610bdb565b6111b881612ec2565b7f189ab7a9244df0848122154315af71fe140f3db0fe014031783b0946b8c9d2e361127581612bc5565b61019880546001919060009061129090849061ffff16614fae565b92506101000a81548161ffff021916908361ffff16021790555050565b6001600160a01b037f000000000000000000000000000000000000000000000000000000000000000016300361133a5760405162461bcd60e51b815260206004820152602c60248201527f46756e6374696f6e206d7573742062652063616c6c6564207468726f7567682060448201526b19195b1959d85d1958d85b1b60a21b6064820152608401610bdb565b7f00000000000000000000000000000000000000000000000000000000000000006001600160a01b03166113957f360894a13ba1a3210667c828492db98dca3e2076cc3735a920a3ca505d382bbc546001600160a01b031690565b6001600160a01b0316146114005760405162461bcd60e51b815260206004820152602c60248201527f46756e6374696f6e206d7573742062652063616c6c6564207468726f7567682060448201526b6163746976652070726f787960a01b6064820152608401610bdb565b61140982612cf8565b61103c82826001612d22565b600061142060995490565b82106114945760405162461bcd60e51b815260206004820152602c60248201527f455243373231456e756d657261626c653a20676c6f62616c20696e646578206f60448201527f7574206f6620626f756e647300000000000000000000000000000000000000006064820152608401610bdb565b609982815481106114a7576114a7614e29565b90600052602060002001549050919050565b6000306001600160a01b037f000000000000000000000000000000000000000000000000000000000000000016146115595760405162461bcd60e51b815260206004820152603860248201527f555550535570677261646561626c653a206d757374206e6f742062652063616c60448201527f6c6564207468726f7567682064656c656761746563616c6c00000000000000006064820152608401610bdb565b507f360894a13ba1a3210667c828492db98dca3e2076cc3735a920a3ca505d382bbc90565b6000818152606760205260408120546001600160a01b031680610b2f5760405162461bcd60e51b815260206004820152601860248201527f4552433732313a20696e76616c696420746f6b656e20494400000000000000006044820152606401610bdb565b60006001600160a01b0382166116615760405162461bcd60e51b815260206004820152602960248201527f4552433732313a2061646472657373207a65726f206973206e6f74206120766160448201527f6c6964206f776e657200000000000000000000000000000000000000000000006064820152608401610bdb565b506001600160a01b031660009081526068602052604090205490565b6116856145ac565b600082815261019f602090815260408083208151610140810183528154815282518084019384905290949193850192909160018501916002918390855b82829054906101000a900467ffffffffffffffff1667ffffffffffffffff16815260200190600801906020826007010492830192600103820291508084116116c257505050928452505060408051808201918290526020909301929150600284810191826000855b82829054906101000a900467ffffffffffffffff1667ffffffffffffffff168152602001906008019060208260070104928301926001038202915080841161172a57905050505050508152602001600382018054806020026020016040519081016040528092919081815260200182805480156117c657602002820191906000526020600020905b8154815260200190600101908083116117b2575b505050505081526020016004820180548060200260200160405190810160405280929190818152602001828054801561181e57602002820191906000526020600020905b81548152602001906001019080831161180a575b505050505081526020016005820180548060200260200160405190810160405280929190818152602001828054801561187657602002820191906000526020600020905b815481526020019060010190808311611862575b50505050508152602001600682018054806020026020016040519081016040528092919081815260200182805480156118d857602002820191906000526020600020905b81546001600160a01b031681526001909101906020018083116118ba575b505050505081526020016007820180548060200260200160405190810160405280929190818152602001828054801561194e57602002820191906000526020600020906000905b825461010083900a900460ff1681526020600192830181810494850194909303909202910180841161191f5790505b50505091835250506008919091015461ffff8116602083015262010000900460ff16151560409091015292915050565b600054610100900460ff161580801561199e5750600054600160ff909116105b806119b85750303b1580156119b8575060005460ff166001145b611a2a5760405162461bcd60e51b815260206004820152602e60248201527f496e697469616c697a61626c653a20636f6e747261637420697320616c72656160448201527f647920696e697469616c697a65640000000000000000000000000000000000006064820152608401610bdb565b6000805460ff191660011790558015611a4d576000805461ff0019166101001790555b611a576000612f7a565b611a9f6040518060400160405280600a8152602001694879706572636572747360b01b815250604051806040016040528060048152602001631210d49560e21b815250612ffc565b611aa7613071565b611aaf613071565b611ab7613071565b611ac2600033612bcf565b611aec7f189ab7a9244df0848122154315af71fe140f3db0fe014031783b0946b8c9d2e333612bcf565b80156111b8576000805461ff0019169055604051600181527f7f26b83ff96e1f2b6a682f133852f6798a09c465da95921460cefb38474024989060200160405180910390a150565b6000611b3f8461157e565b9050806001600160a01b0316836001600160a01b031603611bad5760405162461bcd60e51b815260206004820152602260248201527f455243333532353a20617070726f76616c20746f2063757272656e74206f776e60448201526132b960f11b6064820152608401610bdb565b611bb73385612987565b611c295760405162461bcd60e51b815260206004820152603960248201527f455243333532353a20617070726f76652063616c6c6572206973206e6f74206f60448201527f776e6572206e6f7220617070726f76656420666f7220616c6c000000000000006064820152608401610bdb565b611c348484846130de565b50505050565b61019b6020526000908152604090208054611c5490614e3f565b80601f0160208091040260200160405190810160405280929190818152602001828054611c8090614e3f565b8015611ccd5780601f10611ca257610100808354040283529160200191611ccd565b820191906000526020600020905b815481529060010190602001808311611cb057829003601f168201915b505050505081565b600060fe82815481106114a7576114a7614e29565b6000611cf88261019b6128b5565b600081815261019b60205260409020909150611d148382614ebf565b507f8b841033bc947e807d9766c542105a3dbb0bae62591be7b5c8cd4f37f698bf738183604051610dc1929190614f7f565b6000818152606760205260408120546001600160a01b0316611dd05760405162461bcd60e51b815260206004820152602c60248201527f455243333532353a2062616c616e636520717565727920666f72206e6f6e657860448201527f697374656e7420746f6b656e00000000000000000000000000000000000000006064820152608401610bdb565b50600090815260fb602052604090205490565b61103c338383613168565b600080611dfa83613236565b91509150611e08848361333f565b611e1a82600001518360c0015161361e565b61019a8054906000611e2b83614fd0565b909155505061019a54600090815261019f602090815260409091208351815590830151839190611e619060018301906002614612565b506040820151611e779060028084019190614612565b5060608201518051611e939160038401916020909101906146ba565b5060808201518051611eaf9160048401916020909101906146ba565b5060a08201518051611ecb9160058401916020909101906146ba565b5060c08201518051611ee79160068401916020909101906146f5565b5060e08201518051611f0391600784019160209091019061474a565b5061010082015160089091018054610120909301511515620100000262ffffff1990931661ffff9092169190911791909117905561019a54611f459082613752565b60e08201515160005b81811015611fac57611f9a8661019960008154611f6a90614fd0565b91905081905561019a548760e001518581518110611f8a57611f8a614e29565b602002602001015160ff1661376a565b80611fa481614fd0565b915050611f4e565b507f922e1bd87da08f7dd5fdfe752f7d1c515adf744b40cb02d1344f8fe79e6cbe5661019a548685600001518660c001518760200151886040015189606001518a608001518b60a001518c60e001518d61010001518d60405161201a9c9b9a99989796959493929190614fe9565b60405180910390a15050505050565b6120333383612987565b6120965760405162461bcd60e51b815260206004820152602e60248201527f4552433732313a2063616c6c6572206973206e6f7420746f6b656e206f776e6560448201526d1c881b9bdc88185c1c1c9bdd995960921b6064820152608401610bdb565b611c34848484846138d9565b60606120ad82611d46565b6120b683610e47565b604051602001610d029291907f646174613a6170706c69636174696f6e2f6a736f6e3b7b6e616d653a4173736581527f74205479706520412c6465736372697074696f6e3a417373657420547970652060208201527f41206465736372697074696f6e2c62616c616e63650000000000000000000000604082015260558101929092527f2c736c6f743a00000000000000000000000000000000000000000000000000006075830152607b820152607d60f81b609b820152609c0190565b61019d6020526000908152604090208054611c5490614e3f565b600082815261010260205260409020600101546121aa81612bc5565b610c7c8383612c73565b6000818152606760205260409020546001600160a01b03166122185760405162461bcd60e51b815260206004820152601a60248201527f4d696e743a20746f6b656e20646f6573206e6f742065786973740000000000006044820152606401610bdb565b604080516001808252818301909252600091602080830190803683370190505090506122458260016150b9565b8160008151811061225857612258614e29565b6020026020010181815250507fca2f7fad4853b2caaacf1c70ceb2140e76e34dd669e810522fb8d5e9490cd21e82826040516122959291906150cc565b60405180910390a15050565b60606122ca60408051808201909152600a8152694879706572636572747360b01b602082015290565b6040805180820190915260048152631210d49560e21b60208201526101015460ff166040516020016122fe9392919061511a565b604051602081830303815290604052905090565b61019c6020526000908152604090208054611c5490614e3f565b600061233a8261019d6128b5565b600081815261019d602052604090209091506123568382614ebf565b507f4527d373276b1ece0c8dd18e140572f93feffd35a0993d9e4de70623b1ac93ce8183604051610dc1929190614f7f565b60006001600160e01b03198216637965db0b60e01b1480610b2f5750610b2f82613962565b6000818152606760205260409020546001600160a01b03166111b85760405162461bcd60e51b815260206004820152601860248201527f4552433732313a20696e76616c696420746f6b656e20494400000000000000006044820152606401610bdb565b600081815260696020526040902080546001600160a01b0319166001600160a01b03841690811790915581906124468261157e565b6001600160a01b03167f8c5be1e5ebec7d5bd14f71427d1e84f3dd0314c0f7b2291e5b200ac8c7c3b92560405160405180910390a45050565b600082815260fc602090815260408083206001600160a01b03871684526001019091529020546124af8484612987565b1580156124be57506000198114155b15611c3457818110156125135760405162461bcd60e51b815260206004820152601f60248201527f455243333532353a20696e73756666696369656e7420616c6c6f77616e6365006044820152606401610bdb565b611c34838561252285856151fc565b6130de565b600061253260995490565b610b2f9060016150b9565b61254783836139bd565b600082815260fd6020908152604080832084905583835261010090915281205490036125a35760fe80546001810182556000919091527f54075df80ec1ae6ac9100e1fd0ebf3246c17f5c933137af392011f4c5f61513a018190555b60008181526101006020908152604080832080546001810182559084529183209091018490555182919084907fe4f48c240d3b994948aa54f3e2f5fca59263dfe1d52b6e4cf39a5d249b5ccb65908390a4505050565b6000838152606760205260409020546001600160a01b031661266f5760405162461bcd60e51b815260206004820152602960248201527f45524333353235353a207472616e736665722066726f6d206e6f6e657869737460448201526832b73a103a37b5b2b760b91b6064820152608401610bdb565b6000828152606760205260409020546001600160a01b03166126f95760405162461bcd60e51b815260206004820152602760248201527f45524333353235353a207472616e7366657220746f206e6f6e6578697374656e60448201527f7420746f6b656e000000000000000000000000000000000000000000000000006064820152608401610bdb565b600083815260fb602052604090205481111561277d5760405162461bcd60e51b815260206004820152602860248201527f455243333532353a207472616e7366657220616d6f756e74206578636565647360448201527f2062616c616e63650000000000000000000000000000000000000000000000006064820152608401610bdb565b600082815260fd602052604080822054858352912054146128065760405162461bcd60e51b815260206004820152602e60248201527f455243333533353a207472616e7366657220746f20746f6b656e20776974682060448201527f646966666572656e7420736c6f740000000000000000000000000000000000006064820152608401610bdb565b60006128118461157e565b9050600061281e8461157e565b600086815260fb60205260408120805492935085929091906128419084906151fc565b9091555050600084815260fb6020526040812080548592906128649084906150b9565b9091555050600085905260fd60205283857f0b2aac84f3ec956911fd78eae5311062972ff949f38412e8da39069d9f068cc6856040516128a691815260200190565b60405180910390a35050505050565b6000808351116129075760405162461bcd60e51b815260206004820152600a60248201527f656d7074792074657874000000000000000000000000000000000000000000006044820152606401610bdb565b8260405160200161291891906148d4565b60405160208183030381529060405280519060200120905061293a8282613b13565b15610b2f5760405162461bcd60e51b815260206004820152600e60248201527f616c7265616479206578697374730000000000000000000000000000000000006044820152606401610bdb565b6000806129938361157e565b9050806001600160a01b0316846001600160a01b031614806129da57506001600160a01b038082166000908152606a602090815260408083209388168352929052205460ff165b806129fe5750836001600160a01b03166129f384610b40565b6001600160a01b0316145b949350505050565b826001600160a01b0316612a198261157e565b6001600160a01b031614612a955760405162461bcd60e51b815260206004820152602560248201527f4552433732313a207472616e736665722066726f6d20696e636f72726563742060448201527f6f776e65720000000000000000000000000000000000000000000000000000006064820152608401610bdb565b6001600160a01b038216612af75760405162461bcd60e51b8152602060048201526024808201527f4552433732313a207472616e7366657220746f20746865207a65726f206164646044820152637265737360e01b6064820152608401610bdb565b612b02838383613b3a565b612b0d600082612411565b6001600160a01b0383166000908152606860205260408120805460019290612b369084906151fc565b90915550506001600160a01b0382166000908152606860205260408120805460019290612b649084906150b9565b909155505060008181526067602052604080822080546001600160a01b0319166001600160a01b0386811691821790925591518493918716917fddf252ad1be2c89b69c2b068fc378daa952ba7f163c4a11628f55a4df523b3ef91a4505050565b6111b88133613bdc565b6000828152610102602090815260408083206001600160a01b038516845290915290205460ff1661103c576000828152610102602090815260408083206001600160a01b03851684529091529020805460ff19166001179055612c2f3390565b6001600160a01b0316816001600160a01b0316837f2f8788117e7eff1d82e926ec794901d17c78024a50270940304540a733656f0d60405160405180910390a45050565b6000828152610102602090815260408083206001600160a01b038516845290915290205460ff161561103c576000828152610102602090815260408083206001600160a01b0385168085529252808320805460ff1916905551339285917ff6391f5c32d9c69d2a47ea670b442974b53935d1edc7fd64eb21e047a839171b9190a45050565b7f189ab7a9244df0848122154315af71fe140f3db0fe014031783b0946b8c9d2e361103c81612bc5565b7f4910fdfa16fed3260ed0e7147f7cc6da11a60208b5b9406d12a635614ffd91435460ff1615612d5557610c7c83613c5d565b826001600160a01b03166352d1902d6040518163ffffffff1660e01b8152600401602060405180830381865afa925050508015612daf575060408051601f3d908101601f19168201909252612dac9181019061520f565b60015b612e215760405162461bcd60e51b815260206004820152602e60248201527f45524331393637557067726164653a206e657720696d706c656d656e7461746960448201527f6f6e206973206e6f7420555550530000000000000000000000000000000000006064820152608401610bdb565b7f360894a13ba1a3210667c828492db98dca3e2076cc3735a920a3ca505d382bbc8114612eb65760405162461bcd60e51b815260206004820152602960248201527f45524331393637557067726164653a20756e737570706f727465642070726f7860448201527f6961626c655555494400000000000000000000000000000000000000000000006064820152608401610bdb565b50610c7c838383613d1b565b6000612ecd8261157e565b600083815260fd602090815260408083205460fb9092529091205491925090612ef584613d40565b600084815260fd6020908152604080832083905560fb82528083208390555183815286917f0b2aac84f3ec956911fd78eae5311062972ff949f38412e8da39069d9f068cc6910160405180910390a3600082857fe4f48c240d3b994948aa54f3e2f5fca59263dfe1d52b6e4cf39a5d249b5ccb6560405160405180910390a450505050565b600054610100900460ff16612fe55760405162461bcd60e51b815260206004820152602b60248201527f496e697469616c697a61626c653a20636f6e7472616374206973206e6f74206960448201526a6e697469616c697a696e6760a81b6064820152608401610bdb565b610101805460ff191660ff92909216919091179055565b600054610100900460ff166130675760405162461bcd60e51b815260206004820152602b60248201527f496e697469616c697a61626c653a20636f6e7472616374206973206e6f74206960448201526a6e697469616c697a696e6760a81b6064820152608401610bdb565b61103c8282613de7565b600054610100900460ff166130dc5760405162461bcd60e51b815260206004820152602b60248201527f496e697469616c697a61626c653a20636f6e7472616374206973206e6f74206960448201526a6e697469616c697a696e6760a81b6064820152608401610bdb565b565b600083815260fc6020908152604080832080546001808201835582865284862090910180546001600160a01b0319166001600160a01b038916908117909155808652908201845293829020859055905184815290929186917f621b050de0ad08b51d19b48b3e6df75348c4de6bdd93e81b252ca62e28265b1b91015b60405180910390a350505050565b816001600160a01b0316836001600160a01b0316036131c95760405162461bcd60e51b815260206004820152601960248201527f4552433732313a20617070726f766520746f2063616c6c6572000000000000006044820152606401610bdb565b6001600160a01b038381166000818152606a6020908152604080832094871680845294825291829020805460ff191686151590811790915591519182527f17307eab39ab6107e8899845ad3d59bd9653f200f220920489ca2b5937696c31910160405180910390a3505050565b61323e6145ac565b606060008351116132915760405162461bcd60e51b815260206004820152601c60248201527f5f7061727365446174613a20696e707574206461746120656d707479000000006044820152606401610bdb565b6000806000806000806000808a8060200190518101906132b19190615446565b975097509750975097509750975097506000858886896040516020016132da9493929190615562565b60408051601f1981840301815291815281516020928301208d5260c08d01959095528b019590955291890192909252606088019490945260808701929092525060a085019290925260e084015260006101008401526001610120840152919391925050565b6001600160a01b0382166133955760405162461bcd60e51b815260206004820152601e60248201527f4d696e743a206d696e7420746f20746865207a65726f206164647265737300006044820152606401610bdb565b60208181015190810151905167ffffffffffffffff918216911611156133fd5760405162461bcd60e51b815260206004820152601b60248201527f4d696e743a20696e76616c696420776f726b54696d656672616d6500000000006044820152606401610bdb565b60408101516020810151905167ffffffffffffffff918216911611156134655760405162461bcd60e51b815260206004820152601d60248201527f4d696e743a20696e76616c696420696d7061637454696d656672616d650000006044820152606401610bdb565b60408101515160208201515167ffffffffffffffff918216911611156134f35760405162461bcd60e51b815260206004820152602c60248201527f4d696e743a20696d7061637454696d656672616d65207072696f7220746f207760448201527f6f726b54696d656672616d6500000000000000000000000000000000000000006064820152608401610bdb565b60808101515160005b8181101561358b5761352d61019c8460800151838151811061352057613520614e29565b6020026020010151613b13565b6135795760405162461bcd60e51b815260206004820152601a60248201527f4d696e743a20696e76616c696420696d706163742073636f70650000000000006044820152606401610bdb565b8061358381614fd0565b9150506134fc565b5060608201515160005b81811015613617576135b961019b8560600151838151811061352057613520614e29565b6136055760405162461bcd60e51b815260206004820152601860248201527f4d696e743a20696e76616c696420776f726b2073636f706500000000000000006044820152606401610bdb565b8061360f81614fd0565b915050613595565b5050505050565b60005b8151811015610c7c5761019e600083838151811061364157613641614e29565b6020908102919091018101516001600160a01b03168252818101929092526040908101600090812086825290925290205460ff16156136e85760405162461bcd60e51b815260206004820152602560248201527f436c61696d3a20636c61696d20666f722063726561746f7273206f7665726c6160448201527f7070696e670000000000000000000000000000000000000000000000000000006064820152608401610bdb565b600161019e600084848151811061370157613701614e29565b6020908102919091018101516001600160a01b0316825281810192909252604090810160009081208782529092529020805460ff19169115159190911790558061374a81614fd0565b915050613621565b600082815260ff60205260409020610c7c8282614ebf565b6001600160a01b0384166137ca5760405162461bcd60e51b815260206004820152602160248201527f455243333532353a206d696e7420746f20746865207a65726f206164647265736044820152607360f81b6064820152608401610bdb565b826000036138245760405162461bcd60e51b815260206004820152602160248201527f455243333532353a2063616e6e6f74206d696e74207a65726f20746f6b656e496044820152601960fa1b6064820152608401610bdb565b6000838152606760205260409020546001600160a01b0316156138895760405162461bcd60e51b815260206004820152601d60248201527f455243333532353a20746f6b656e20616c7265616479206d696e7465640000006044820152606401610bdb565b61389484848461253d565b600083815260fb602052604090208190558260007f0b2aac84f3ec956911fd78eae5311062972ff949f38412e8da39069d9f068cc68360405161315a91815260200190565b6138e4848484612a06565b6138f084848484613e6b565b611c345760405162461bcd60e51b815260206004820152603260248201527f4552433732313a207472616e7366657220746f206e6f6e20455243373231526560448201527f63656976657220696d706c656d656e74657200000000000000000000000000006064820152608401610bdb565b60006001600160e01b031982166370b0048160e11b148061399357506001600160e01b03198216631dba0dcf60e11b145b806139ae57506001600160e01b03198216630354d60560e61b145b80610b2f5750610b2f82613fc2565b6001600160a01b038216613a135760405162461bcd60e51b815260206004820181905260248201527f4552433732313a206d696e7420746f20746865207a65726f20616464726573736044820152606401610bdb565b6000818152606760205260409020546001600160a01b031615613a785760405162461bcd60e51b815260206004820152601c60248201527f4552433732313a20746f6b656e20616c7265616479206d696e746564000000006044820152606401610bdb565b613a8460008383613b3a565b6001600160a01b0382166000908152606860205260408120805460019290613aad9084906150b9565b909155505060008181526067602052604080822080546001600160a01b0319166001600160a01b03861690811790915590518392907fddf252ad1be2c89b69c2b068fc378daa952ba7f163c4a11628f55a4df523b3ef908290a45050565b505050505050565b60008181526020839052604081208054829190613b2f90614e3f565b905011905092915050565b613b45838383613fe7565b600081815260fc6020526040812054905b81811015613bc457600083815260fc60205260408120805483908110613b7e57613b7e614e29565b600091825260208083209091015486835260fc825260408084206001600160a01b0390921684526001919091019091528120555080613bbc81614fd0565b915050613b56565b50600082815260fc60205260408120611c34916147de565b6000828152610102602090815260408083206001600160a01b038516845290915290205460ff1661103c57613c1b816001600160a01b0316601461409f565b613c2683602061409f565b604051602001613c379291906155ac565b60408051601f198184030181529082905262461bcd60e51b8252610bdb916004016148d4565b6001600160a01b0381163b613cda5760405162461bcd60e51b815260206004820152602d60248201527f455243313936373a206e657720696d706c656d656e746174696f6e206973206e60448201527f6f74206120636f6e7472616374000000000000000000000000000000000000006064820152608401610bdb565b7f360894a13ba1a3210667c828492db98dca3e2076cc3735a920a3ca505d382bbc80546001600160a01b0319166001600160a01b0392909216919091179055565b613d2483614248565b600082511180613d315750805b15610c7c57611c348383614288565b6000613d4b8261157e565b9050613d5981600084613b3a565b613d64600083612411565b6001600160a01b0381166000908152606860205260408120805460019290613d8d9084906151fc565b909155505060008281526067602052604080822080546001600160a01b0319169055518391906001600160a01b038416907fddf252ad1be2c89b69c2b068fc378daa952ba7f163c4a11628f55a4df523b3ef908390a45050565b600054610100900460ff16613e525760405162461bcd60e51b815260206004820152602b60248201527f496e697469616c697a61626c653a20636f6e7472616374206973206e6f74206960448201526a6e697469616c697a696e6760a81b6064820152608401610bdb565b6065613e5e8382614ebf565b506066610c7c8282614ebf565b60006001600160a01b0384163b15613fb757604051630a85bd0160e11b81526001600160a01b0385169063150b7a0290613eaf90339089908890889060040161562d565b6020604051808303816000875af1925050508015613eea575060408051601f3d908101601f19168201909252613ee791810190615669565b60015b613f9d573d808015613f18576040519150601f19603f3d011682016040523d82523d6000602084013e613f1d565b606091505b508051600003613f955760405162461bcd60e51b815260206004820152603260248201527f4552433732313a207472616e7366657220746f206e6f6e20455243373231526560448201527f63656976657220696d706c656d656e74657200000000000000000000000000006064820152608401610bdb565b805181602001fd5b6001600160e01b031916630a85bd0160e11b1490506129fe565b506001949350505050565b60006001600160e01b0319821663780e9d6360e01b1480610b2f5750610b2f82614393565b6001600160a01b0383166140425761403d81609980546000838152609a60205260408120829055600182018355919091527f72a152ddfb8e864297c917af52ea6c1c68aead0fee1a62673fcc7e0c94979d000155565b614065565b816001600160a01b0316836001600160a01b0316146140655761406583826143e3565b6001600160a01b03821661407c57610c7c81614480565b826001600160a01b0316826001600160a01b031614610c7c57610c7c828261452f565b606060006140ae836002615686565b6140b99060026150b9565b67ffffffffffffffff8111156140d1576140d1614979565b6040519080825280601f01601f1916602001820160405280156140fb576020820181803683370190505b509050600360fc1b8160008151811061411657614116614e29565b60200101906001600160f81b031916908160001a905350600f60fb1b8160018151811061414557614145614e29565b60200101906001600160f81b031916908160001a9053506000614169846002615686565b6141749060016150b9565b90505b60018111156141f9577f303132333435363738396162636465660000000000000000000000000000000085600f16601081106141b5576141b5614e29565b1a60f81b8282815181106141cb576141cb614e29565b60200101906001600160f81b031916908160001a90535060049490941c936141f2816156a5565b9050614177565b508315610d5e5760405162461bcd60e51b815260206004820181905260248201527f537472696e67733a20686578206c656e67746820696e73756666696369656e746044820152606401610bdb565b61425181613c5d565b6040516001600160a01b038216907fbc7cd75a20ee27fd9adebab32041f755214dbc6bffa90cc0225b39da2e5c2d3b90600090a250565b60606001600160a01b0383163b6143075760405162461bcd60e51b815260206004820152602660248201527f416464726573733a2064656c65676174652063616c6c20746f206e6f6e2d636f60448201527f6e747261637400000000000000000000000000000000000000000000000000006064820152608401610bdb565b600080846001600160a01b03168460405161432291906156bc565b600060405180830381855af49150503d806000811461435d576040519150601f19603f3d011682016040523d82523d6000602084013e614362565b606091505b509150915061438a82826040518060600160405280602781526020016156ef60279139614573565b95945050505050565b60006001600160e01b031982166380ac58cd60e01b14806143c457506001600160e01b03198216635b5e139f60e01b145b80610b2f57506301ffc9a760e01b6001600160e01b0319831614610b2f565b600060016143f0846115e3565b6143fa91906151fc565b60008381526098602052604090205490915080821461444d576001600160a01b03841660009081526097602090815260408083208584528252808320548484528184208190558352609890915290208190555b5060009182526098602090815260408084208490556001600160a01b039094168352609781528383209183525290812055565b609954600090614492906001906151fc565b6000838152609a6020526040812054609980549394509092849081106144ba576144ba614e29565b9060005260206000200154905080609983815481106144db576144db614e29565b6000918252602080832090910192909255828152609a90915260408082208490558582528120556099805480614513576145136156d8565b6001900381819060005260206000200160009055905550505050565b600061453a836115e3565b6001600160a01b039093166000908152609760209081526040808320868452825280832085905593825260989052919091209190915550565b60608315614582575081610d5e565b8251156145925782518084602001fd5b8160405162461bcd60e51b8152600401610bdb91906148d4565b60408051610140810190915260008152602081016145c86147fc565b81526020016145d56147fc565b81526020016060815260200160608152602001606081526020016060815260200160608152602001600061ffff1681526020016000151581525090565b6001830191839082156146aa5791602002820160005b8382111561467457835183826101000a81548167ffffffffffffffff021916908367ffffffffffffffff1602179055509260200192600801602081600701049283019260010302614628565b80156146a85782816101000a81549067ffffffffffffffff0219169055600801602081600701049283019260010302614674565b505b506146b692915061481a565b5090565b8280548282559060005260206000209081019282156146aa579160200282015b828111156146aa5782518255916020019190600101906146da565b8280548282559060005260206000209081019282156146aa579160200282015b828111156146aa57825182546001600160a01b0319166001600160a01b03909116178255602090920191600190910190614715565b82805482825590600052602060002090601f016020900481019282156146aa5791602002820160005b838211156147b157835183826101000a81548160ff021916908360ff1602179055509260200192600101602081600001049283019260010302614773565b80156146a85782816101000a81549060ff02191690556001016020816000010492830192600103026147b1565b50805460008255906000526020600020908101906111b8919061481a565b60405180604001604052806002906020820280368337509192915050565b5b808211156146b6576000815560010161481b565b6000806040838503121561484257600080fd5b50508035926020909101359150565b6001600160e01b0319811681146111b857600080fd5b60006020828403121561487957600080fd5b8135610d5e81614851565b60005b8381101561489f578181015183820152602001614887565b50506000910152565b600081518084526148c0816020860160208601614884565b601f01601f19169290920160200192915050565b602081526000610d5e60208301846148a8565b6000602082840312156148f957600080fd5b5035919050565b6001600160a01b03811681146111b857600080fd5b6000806040838503121561492857600080fd5b823561493381614900565b946020939093013593505050565b60008060006060848603121561495657600080fd5b83359250602084013561496881614900565b929592945050506040919091013590565b634e487b7160e01b600052604160045260246000fd5b604051601f8201601f1916810167ffffffffffffffff811182821017156149b8576149b8614979565b604052919050565b600067ffffffffffffffff8211156149da576149da614979565b50601f01601f191660200190565b60006149fb6149f6846149c0565b61498f565b9050828152838383011115614a0f57600080fd5b828260208301376000602084830101529392505050565b600060208284031215614a3857600080fd5b813567ffffffffffffffff811115614a4f57600080fd5b8201601f81018413614a6057600080fd5b6129fe848235602084016149e8565b600080600060608486031215614a8457600080fd5b8335614a8f81614900565b9250602084013561496881614900565b60008060408385031215614ab257600080fd5b823591506020830135614ac481614900565b809150509250929050565b600080600060608486031215614ae457600080fd5b505081359360208301359350604090920135919050565b600060208284031215614b0d57600080fd5b8135610d5e81614900565b600082601f830112614b2957600080fd5b610d5e838335602085016149e8565b60008060408385031215614b4b57600080fd5b8235614b5681614900565b9150602083013567ffffffffffffffff811115614b7257600080fd5b614b7e85828601614b18565b9150509250929050565b8060005b6002811015611c3457815167ffffffffffffffff16845260209384019390910190600101614b8c565b600081518084526020808501945080840160005b83811015614be557815187529582019590820190600101614bc9565b509495945050505050565b600081518084526020808501945080840160005b83811015614be55781516001600160a01b031687529582019590820190600101614c04565b600081518084526020808501945080840160005b83811015614be557815160ff1687529582019590820190600101614c3d565b602081528151602082015260006020830151614c7b6040840182614b88565b506040830151614c8e6080840182614b88565b5060608301516101808060c0850152614cab6101a0850183614bb5565b91506080850151601f19808685030160e0870152614cc98483614bb5565b935060a08701519150610100818786030181880152614ce88584614bb5565b945060c08801519250610120828887030181890152614d078685614bf0565b955060e089015193508288870301610140890152614d258685614c29565b9550818901519350614d3e61016089018561ffff169052565b880151801515858901529250614d52915050565b5090949350505050565b60008060408385031215614d6f57600080fd5b8235614d7a81614900565b915060208301358015158114614ac457600080fd5b60008060008060808587031215614da557600080fd5b8435614db081614900565b93506020850135614dc081614900565b925060408501359150606085013567ffffffffffffffff811115614de357600080fd5b614def87828801614b18565b91505092959194509250565b60008060408385031215614e0e57600080fd5b8235614e1981614900565b91506020830135614ac481614900565b634e487b7160e01b600052603260045260246000fd5b600181811c90821680614e5357607f821691505b602082108103614e7357634e487b7160e01b600052602260045260246000fd5b50919050565b601f821115610c7c57600081815260208120601f850160051c81016020861015614ea05750805b601f850160051c820191505b81811015613b0b57828155600101614eac565b815167ffffffffffffffff811115614ed957614ed9614979565b614eed81614ee78454614e3f565b84614e79565b602080601f831160018114614f225760008415614f0a5750858301515b600019600386901b1c1916600185901b178555613b0b565b600085815260208120601f198616915b82811015614f5157888601518255948401946001909101908401614f32565b5085821015614f6f5787850151600019600388901b60f8161c191681555b5050505050600190811b01905550565b8281526040602082015260006129fe60408301846148a8565b634e487b7160e01b600052601160045260246000fd5b61ffff818116838216019080821115614fc957614fc9614f98565b5092915050565b600060018201614fe257614fe2614f98565b5060010190565b8c81526001600160a01b038c16602082015260006101c08c60408401528060608401526150188184018d614bf0565b9050615027608084018c614b88565b61503460c084018b614b88565b828103610100840152615047818a614bb5565b905082810361012084015261505c8189614bb5565b90508281036101408401526150718188614bb5565b90508281036101608401526150868187614c29565b61ffff861661018085015290508281036101a08401526150a681856148a8565b9f9e505050505050505050505050505050565b80820180821115610b2f57610b2f614f98565b6000604082018483526020604081850152818551808452606086019150828701935060005b8181101561510d578451835293830193918301916001016150f1565b5090979650505050505050565b7f646174613a6170706c69636174696f6e2f6a736f6e3b7b6e616d653a0000000081526000845161515281601c850160208901614884565b7f2c6465736372697074696f6e3a00000000000000000000000000000000000000601c91840191820152845161518f816029840160208901614884565b7f2c76616c7565446563696d616c733a00000000000000000000000000000000006029929091019182015260f89390931b7fff000000000000000000000000000000000000000000000000000000000000001660388401525050607d60f81b6039820152603a0192915050565b81810381811115610b2f57610b2f614f98565b60006020828403121561522157600080fd5b5051919050565b600067ffffffffffffffff82111561524257615242614979565b5060051b60200190565b600082601f83011261525d57600080fd5b8151602061526d6149f683615228565b82815260059290921b8401810191818101908684111561528c57600080fd5b8286015b848110156152a75780518352918301918301615290565b509695505050505050565b600082601f8301126152c357600080fd5b6040516040810167ffffffffffffffff82821081831117156152e7576152e7614979565b604091825282918501868111156152fd57600080fd5b855b8181101561532657805183811681146153185760008081fd5b8452602093840193016152ff565b50929695505050505050565b600082601f83011261534357600080fd5b815160206153536149f683615228565b82815260059290921b8401810191818101908684111561537257600080fd5b8286015b848110156152a757805161538981614900565b8352918301918301615376565b600082601f8301126153a757600080fd5b81516153b56149f6826149c0565b8181528460208386010111156153ca57600080fd5b6129fe826020830160208701614884565b600082601f8301126153ec57600080fd5b815160206153fc6149f683615228565b82815260059290921b8401810191818101908684111561541b57600080fd5b8286015b848110156152a757805160ff811681146154395760008081fd5b835291830191830161541f565b600080600080600080600080610140898b03121561546357600080fd5b885167ffffffffffffffff8082111561547b57600080fd5b6154878c838d0161524c565b995060208b015191508082111561549d57600080fd5b6154a98c838d0161524c565b985060408b01519150808211156154bf57600080fd5b6154cb8c838d0161524c565b97506154da8c60608d016152b2565b96506154e98c60a08d016152b2565b955060e08b01519150808211156154ff57600080fd5b61550b8c838d01615332565b94506101008b015191508082111561552257600080fd5b61552e8c838d01615396565b93506101208b015191508082111561554557600080fd5b506155528b828c016153db565b9150509295985092959890939650565b61556c8186614b88565b60c06040820152600061558260c0830186614bb5565b61558f6060840186614b88565b82810360a08401526155a18185614bb5565b979650505050505050565b7f416363657373436f6e74726f6c3a206163636f756e74200000000000000000008152600083516155e4816017850160208801614884565b7f206973206d697373696e6720726f6c65200000000000000000000000000000006017918401918201528351615621816028840160208801614884565b01602801949350505050565b60006001600160a01b0380871683528086166020840152508360408301526080606083015261565f60808301846148a8565b9695505050505050565b60006020828403121561567b57600080fd5b8151610d5e81614851565b60008160001904831182151516156156a0576156a0614f98565b500290565b6000816156b4576156b4614f98565b506000190190565b600082516156ce818460208701614884565b9190910192915050565b634e487b7160e01b600052603160045260246000fdfe416464726573733a206c6f772d6c6576656c2064656c65676174652063616c6c206661696c6564a164736f6c6343000810000a",
  "linkReferences": {},
  "deployedLinkReferences": {}
}