{
  "_format": "hh-sol-artifact-1",
  "contractName": "HypercertMinterUpgrade",
  "sourceName": "contracts/mocks/HypercertMinterUpgrade.sol",
  "abi": [
    {
      "inputs": [],
      "stateMutability": "nonpayable",
      "type": "constructor"
    },
    {
      "anonymous": false,
      "inputs": [
        {
          "indexed": false,
          "internalType": "address",
          "name": "previousAdmin",
          "type": "address"
        },
        {
          "indexed": false,
          "internalType": "address",
          "name": "newAdmin",
          "type": "address"
        }
      ],
      "name": "AdminChanged",
      "type": "event"
    },
    {
      "anonymous": false,
      "inputs": [
        {
          "indexed": true,
          "internalType": "address",
          "name": "owner",
          "type": "address"
        },
        {
          "indexed": true,
          "internalType": "address",
          "name": "approved",
          "type": "address"
        },
        {
          "indexed": true,
          "internalType": "uint256",
          "name": "tokenId",
          "type": "uint256"
        }
      ],
      "name": "Approval",
      "type": "event"
    },
    {
      "anonymous": false,
      "inputs": [
        {
          "indexed": true,
          "internalType": "address",
          "name": "owner",
          "type": "address"
        },
        {
          "indexed": true,
          "internalType": "address",
          "name": "operator",
          "type": "address"
        },
        {
          "indexed": false,
          "internalType": "bool",
          "name": "approved",
          "type": "bool"
        }
      ],
      "name": "ApprovalForAll",
      "type": "event"
    },
    {
      "anonymous": false,
      "inputs": [
        {
          "indexed": true,
          "internalType": "uint256",
          "name": "_tokenId",
          "type": "uint256"
        },
        {
          "indexed": true,
          "internalType": "address",
          "name": "_operator",
          "type": "address"
        },
        {
          "indexed": false,
          "internalType": "uint256",
          "name": "_value",
          "type": "uint256"
        }
      ],
      "name": "ApprovalValue",
      "type": "event"
    },
    {
      "anonymous": false,
      "inputs": [
        {
          "indexed": true,
          "internalType": "address",
          "name": "beacon",
          "type": "address"
        }
      ],
      "name": "BeaconUpgraded",
      "type": "event"
    },
    {
      "anonymous": false,
      "inputs": [
        {
          "indexed": false,
          "internalType": "uint256",
          "name": "id",
          "type": "uint256"
        },
        {
          "indexed": false,
          "internalType": "address",
          "name": "minter",
          "type": "address"
        },
        {
          "indexed": false,
          "internalType": "bytes32",
          "name": "claimHash",
          "type": "bytes32"
        },
        {
          "indexed": false,
          "internalType": "address[]",
          "name": "contributors",
          "type": "address[]"
        },
        {
          "indexed": false,
          "internalType": "uint64[2]",
          "name": "workTimeframe",
          "type": "uint64[2]"
        },
        {
          "indexed": false,
          "internalType": "uint64[2]",
          "name": "impactTimeframe",
          "type": "uint64[2]"
        },
        {
          "indexed": false,
          "internalType": "bytes32[]",
          "name": "workScopes",
          "type": "bytes32[]"
        },
        {
          "indexed": false,
          "internalType": "bytes32[]",
          "name": "impactScopes",
          "type": "bytes32[]"
        },
        {
          "indexed": false,
          "internalType": "bytes32[]",
          "name": "rights",
          "type": "bytes32[]"
        },
        {
          "indexed": false,
          "internalType": "uint64",
          "name": "version",
          "type": "uint64"
        },
        {
          "indexed": false,
          "internalType": "string",
          "name": "uri",
          "type": "string"
        }
      ],
      "name": "ImpactClaimed",
      "type": "event"
    },
    {
      "anonymous": false,
      "inputs": [
        {
          "indexed": false,
          "internalType": "bytes32",
          "name": "id",
          "type": "bytes32"
        },
        {
          "indexed": false,
          "internalType": "string",
          "name": "text",
          "type": "string"
        }
      ],
      "name": "ImpactScopeAdded",
      "type": "event"
    },
    {
      "anonymous": false,
      "inputs": [
        {
          "indexed": false,
          "internalType": "uint8",
          "name": "version",
          "type": "uint8"
        }
      ],
      "name": "Initialized",
      "type": "event"
    },
    {
      "anonymous": false,
      "inputs": [
        {
          "indexed": false,
          "internalType": "bytes32",
          "name": "id",
          "type": "bytes32"
        },
        {
          "indexed": false,
          "internalType": "string",
          "name": "text",
          "type": "string"
        }
      ],
      "name": "RightAdded",
      "type": "event"
    },
    {
      "anonymous": false,
      "inputs": [
        {
          "indexed": true,
          "internalType": "bytes32",
          "name": "role",
          "type": "bytes32"
        },
        {
          "indexed": true,
          "internalType": "bytes32",
          "name": "previousAdminRole",
          "type": "bytes32"
        },
        {
          "indexed": true,
          "internalType": "bytes32",
          "name": "newAdminRole",
          "type": "bytes32"
        }
      ],
      "name": "RoleAdminChanged",
      "type": "event"
    },
    {
      "anonymous": false,
      "inputs": [
        {
          "indexed": true,
          "internalType": "bytes32",
          "name": "role",
          "type": "bytes32"
        },
        {
          "indexed": true,
          "internalType": "address",
          "name": "account",
          "type": "address"
        },
        {
          "indexed": true,
          "internalType": "address",
          "name": "sender",
          "type": "address"
        }
      ],
      "name": "RoleGranted",
      "type": "event"
    },
    {
      "anonymous": false,
      "inputs": [
        {
          "indexed": true,
          "internalType": "bytes32",
          "name": "role",
          "type": "bytes32"
        },
        {
          "indexed": true,
          "internalType": "address",
          "name": "account",
          "type": "address"
        },
        {
          "indexed": true,
          "internalType": "address",
          "name": "sender",
          "type": "address"
        }
      ],
      "name": "RoleRevoked",
      "type": "event"
    },
    {
      "anonymous": false,
      "inputs": [
        {
          "indexed": true,
          "internalType": "uint256",
          "name": "_tokenId",
          "type": "uint256"
        },
        {
          "indexed": true,
          "internalType": "uint256",
          "name": "_oldSlot",
          "type": "uint256"
        },
        {
          "indexed": true,
          "internalType": "uint256",
          "name": "_newSlot",
          "type": "uint256"
        }
      ],
      "name": "SlotChanged",
      "type": "event"
    },
    {
      "anonymous": false,
      "inputs": [
        {
          "indexed": false,
          "internalType": "uint256",
          "name": "fromID",
          "type": "uint256"
        },
        {
          "indexed": false,
          "internalType": "uint256[]",
          "name": "toID",
          "type": "uint256[]"
        }
      ],
      "name": "Split",
      "type": "event"
    },
    {
      "anonymous": false,
      "inputs": [
        {
          "indexed": true,
          "internalType": "address",
          "name": "from",
          "type": "address"
        },
        {
          "indexed": true,
          "internalType": "address",
          "name": "to",
          "type": "address"
        },
        {
          "indexed": true,
          "internalType": "uint256",
          "name": "tokenId",
          "type": "uint256"
        }
      ],
      "name": "Transfer",
      "type": "event"
    },
    {
      "anonymous": false,
      "inputs": [
        {
          "indexed": true,
          "internalType": "uint256",
          "name": "_fromTokenId",
          "type": "uint256"
        },
        {
          "indexed": true,
          "internalType": "uint256",
          "name": "_toTokenId",
          "type": "uint256"
        },
        {
          "indexed": false,
          "internalType": "uint256",
          "name": "_value",
          "type": "uint256"
        }
      ],
      "name": "TransferValue",
      "type": "event"
    },
    {
      "anonymous": false,
      "inputs": [
        {
          "indexed": true,
          "internalType": "address",
          "name": "implementation",
          "type": "address"
        }
      ],
      "name": "Upgraded",
      "type": "event"
    },
    {
      "anonymous": false,
      "inputs": [
        {
          "indexed": false,
          "internalType": "bytes32",
          "name": "id",
          "type": "bytes32"
        },
        {
          "indexed": false,
          "internalType": "string",
          "name": "text",
          "type": "string"
        }
      ],
      "name": "WorkScopeAdded",
      "type": "event"
    },
    {
      "inputs": [],
      "name": "DEFAULT_ADMIN_ROLE",
      "outputs": [
        {
          "internalType": "bytes32",
          "name": "",
          "type": "bytes32"
        }
      ],
      "stateMutability": "view",
      "type": "function"
    },
    {
      "inputs": [],
      "name": "DEFAULT_UNITS",
      "outputs": [
        {
          "internalType": "uint256",
          "name": "",
          "type": "uint256"
        }
      ],
      "stateMutability": "view",
      "type": "function"
    },
    {
      "inputs": [],
      "name": "NAME",
      "outputs": [
        {
          "internalType": "string",
          "name": "",
          "type": "string"
        }
      ],
      "stateMutability": "view",
      "type": "function"
    },
    {
      "inputs": [],
      "name": "UPGRADER_ROLE",
      "outputs": [
        {
          "internalType": "bytes32",
          "name": "",
          "type": "bytes32"
        }
      ],
      "stateMutability": "view",
      "type": "function"
    },
    {
      "inputs": [
        {
          "internalType": "string",
          "name": "text",
          "type": "string"
        }
      ],
      "name": "addImpactScope",
      "outputs": [
        {
          "internalType": "bytes32",
          "name": "id",
          "type": "bytes32"
        }
      ],
      "stateMutability": "nonpayable",
      "type": "function"
    },
    {
      "inputs": [
        {
          "internalType": "string",
          "name": "text",
          "type": "string"
        }
      ],
      "name": "addRight",
      "outputs": [
        {
          "internalType": "bytes32",
          "name": "id",
          "type": "bytes32"
        }
      ],
      "stateMutability": "nonpayable",
      "type": "function"
    },
    {
      "inputs": [
        {
          "internalType": "string",
          "name": "text",
          "type": "string"
        }
      ],
      "name": "addWorkScope",
      "outputs": [
        {
          "internalType": "bytes32",
          "name": "id",
          "type": "bytes32"
        }
      ],
      "stateMutability": "nonpayable",
      "type": "function"
    },
    {
      "inputs": [
        {
          "internalType": "uint256",
          "name": "tokenId_",
          "type": "uint256"
        },
        {
          "internalType": "address",
          "name": "operator_",
          "type": "address"
        }
      ],
      "name": "allowance",
      "outputs": [
        {
          "internalType": "uint256",
          "name": "",
          "type": "uint256"
        }
      ],
      "stateMutability": "view",
      "type": "function"
    },
    {
      "inputs": [
        {
          "internalType": "address",
          "name": "to",
          "type": "address"
        },
        {
          "internalType": "uint256",
          "name": "tokenId",
          "type": "uint256"
        }
      ],
      "name": "approve",
      "outputs": [],
      "stateMutability": "nonpayable",
      "type": "function"
    },
    {
      "inputs": [
        {
          "internalType": "uint256",
          "name": "tokenId_",
          "type": "uint256"
        },
        {
          "internalType": "address",
          "name": "to_",
          "type": "address"
        },
        {
          "internalType": "uint256",
          "name": "value_",
          "type": "uint256"
        }
      ],
      "name": "approve",
      "outputs": [],
      "stateMutability": "payable",
      "type": "function"
    },
    {
      "inputs": [
        {
          "internalType": "address",
          "name": "owner",
          "type": "address"
        }
      ],
      "name": "balanceOf",
      "outputs": [
        {
          "internalType": "uint256",
          "name": "",
          "type": "uint256"
        }
      ],
      "stateMutability": "view",
      "type": "function"
    },
    {
      "inputs": [
        {
          "internalType": "uint256",
          "name": "tokenId_",
          "type": "uint256"
        }
      ],
      "name": "balanceOf",
      "outputs": [
        {
          "internalType": "uint256",
          "name": "",
          "type": "uint256"
        }
      ],
      "stateMutability": "view",
      "type": "function"
    },
    {
      "inputs": [
        {
          "internalType": "uint256",
          "name": "tokenId",
          "type": "uint256"
        }
      ],
      "name": "burn",
      "outputs": [],
      "stateMutability": "nonpayable",
      "type": "function"
    },
    {
      "inputs": [],
      "name": "contractURI",
      "outputs": [
        {
          "internalType": "string",
          "name": "",
          "type": "string"
        }
      ],
      "stateMutability": "view",
      "type": "function"
    },
    {
      "inputs": [
        {
          "internalType": "uint256",
          "name": "tokenId",
          "type": "uint256"
        }
      ],
      "name": "getApproved",
      "outputs": [
        {
          "internalType": "address",
          "name": "",
          "type": "address"
        }
      ],
      "stateMutability": "view",
      "type": "function"
    },
    {
      "inputs": [
        {
          "internalType": "uint256",
          "name": "claimID",
          "type": "uint256"
        }
      ],
      "name": "getImpactCert",
      "outputs": [
        {
          "components": [
            {
              "internalType": "bytes32",
              "name": "claimHash",
              "type": "bytes32"
            },
            {
              "internalType": "uint64[2]",
              "name": "workTimeframe",
              "type": "uint64[2]"
            },
            {
              "internalType": "uint64[2]",
              "name": "impactTimeframe",
              "type": "uint64[2]"
            },
            {
              "internalType": "bytes32[]",
              "name": "workScopes",
              "type": "bytes32[]"
            },
            {
              "internalType": "bytes32[]",
              "name": "impactScopes",
              "type": "bytes32[]"
            },
            {
              "internalType": "bytes32[]",
              "name": "rights",
              "type": "bytes32[]"
            },
            {
              "internalType": "address[]",
              "name": "contributors",
              "type": "address[]"
            },
            {
              "internalType": "uint16",
              "name": "version",
              "type": "uint16"
            },
            {
              "internalType": "bool",
              "name": "exists",
              "type": "bool"
            }
          ],
          "internalType": "struct HypercertMinterV0.Claim",
          "name": "",
          "type": "tuple"
        }
      ],
      "stateMutability": "view",
      "type": "function"
    },
    {
      "inputs": [
        {
          "internalType": "bytes32",
          "name": "role",
          "type": "bytes32"
        }
      ],
      "name": "getRoleAdmin",
      "outputs": [
        {
          "internalType": "bytes32",
          "name": "",
          "type": "bytes32"
        }
      ],
      "stateMutability": "view",
      "type": "function"
    },
    {
      "inputs": [
        {
          "internalType": "bytes32",
          "name": "role",
          "type": "bytes32"
        },
        {
          "internalType": "address",
          "name": "account",
          "type": "address"
        }
      ],
      "name": "grantRole",
      "outputs": [],
      "stateMutability": "nonpayable",
      "type": "function"
    },
    {
      "inputs": [
        {
          "internalType": "bytes32",
          "name": "role",
          "type": "bytes32"
        },
        {
          "internalType": "address",
          "name": "account",
          "type": "address"
        }
      ],
      "name": "hasRole",
      "outputs": [
        {
          "internalType": "bool",
          "name": "",
          "type": "bool"
        }
      ],
      "stateMutability": "view",
      "type": "function"
    },
    {
      "inputs": [
        {
          "internalType": "bytes32",
          "name": "",
          "type": "bytes32"
        }
      ],
      "name": "impactScopes",
      "outputs": [
        {
          "internalType": "string",
          "name": "",
          "type": "string"
        }
      ],
      "stateMutability": "view",
      "type": "function"
    },
    {
      "inputs": [],
      "name": "initialize",
      "outputs": [],
      "stateMutability": "nonpayable",
      "type": "function"
    },
    {
      "inputs": [
        {
          "internalType": "address",
          "name": "owner",
          "type": "address"
        },
        {
          "internalType": "address",
          "name": "operator",
          "type": "address"
        }
      ],
      "name": "isApprovedForAll",
      "outputs": [
        {
          "internalType": "bool",
          "name": "",
          "type": "bool"
        }
      ],
      "stateMutability": "view",
      "type": "function"
    },
    {
      "inputs": [
        {
          "internalType": "address",
          "name": "account",
          "type": "address"
        },
        {
          "internalType": "bytes",
          "name": "data",
          "type": "bytes"
        }
      ],
      "name": "mint",
      "outputs": [],
      "stateMutability": "nonpayable",
      "type": "function"
    },
    {
      "inputs": [],
      "name": "name",
      "outputs": [
        {
          "internalType": "string",
          "name": "",
          "type": "string"
        }
      ],
      "stateMutability": "view",
      "type": "function"
    },
    {
      "inputs": [
        {
          "internalType": "uint256",
          "name": "tokenId",
          "type": "uint256"
        }
      ],
      "name": "ownerOf",
      "outputs": [
        {
          "internalType": "address",
          "name": "",
          "type": "address"
        }
      ],
      "stateMutability": "view",
      "type": "function"
    },
    {
      "inputs": [],
      "name": "proxiableUUID",
      "outputs": [
        {
          "internalType": "bytes32",
          "name": "",
          "type": "bytes32"
        }
      ],
      "stateMutability": "view",
      "type": "function"
    },
    {
      "inputs": [
        {
          "internalType": "bytes32",
          "name": "role",
          "type": "bytes32"
        },
        {
          "internalType": "address",
          "name": "account",
          "type": "address"
        }
      ],
      "name": "renounceRole",
      "outputs": [],
      "stateMutability": "nonpayable",
      "type": "function"
    },
    {
      "inputs": [
        {
          "internalType": "bytes32",
          "name": "role",
          "type": "bytes32"
        },
        {
          "internalType": "address",
          "name": "account",
          "type": "address"
        }
      ],
      "name": "revokeRole",
      "outputs": [],
      "stateMutability": "nonpayable",
      "type": "function"
    },
    {
      "inputs": [
        {
          "internalType": "bytes32",
          "name": "",
          "type": "bytes32"
        }
      ],
      "name": "rights",
      "outputs": [
        {
          "internalType": "string",
          "name": "",
          "type": "string"
        }
      ],
      "stateMutability": "view",
      "type": "function"
    },
    {
      "inputs": [
        {
          "internalType": "address",
          "name": "from",
          "type": "address"
        },
        {
          "internalType": "address",
          "name": "to",
          "type": "address"
        },
        {
          "internalType": "uint256",
          "name": "tokenId",
          "type": "uint256"
        }
      ],
      "name": "safeTransferFrom",
      "outputs": [],
      "stateMutability": "nonpayable",
      "type": "function"
    },
    {
      "inputs": [
        {
          "internalType": "address",
          "name": "from",
          "type": "address"
        },
        {
          "internalType": "address",
          "name": "to",
          "type": "address"
        },
        {
          "internalType": "uint256",
          "name": "tokenId",
          "type": "uint256"
        },
        {
          "internalType": "bytes",
          "name": "data",
          "type": "bytes"
        }
      ],
      "name": "safeTransferFrom",
      "outputs": [],
      "stateMutability": "nonpayable",
      "type": "function"
    },
    {
      "inputs": [
        {
          "internalType": "address",
          "name": "operator",
          "type": "address"
        },
        {
          "internalType": "bool",
          "name": "approved",
          "type": "bool"
        }
      ],
      "name": "setApprovalForAll",
      "outputs": [],
      "stateMutability": "nonpayable",
      "type": "function"
    },
    {
      "inputs": [
        {
          "internalType": "uint256",
          "name": "_index",
          "type": "uint256"
        }
      ],
      "name": "slotByIndex",
      "outputs": [
        {
          "internalType": "uint256",
          "name": "",
          "type": "uint256"
        }
      ],
      "stateMutability": "view",
      "type": "function"
    },
    {
      "inputs": [],
      "name": "slotCount",
      "outputs": [
        {
          "internalType": "uint256",
          "name": "",
          "type": "uint256"
        }
      ],
      "stateMutability": "view",
      "type": "function"
    },
    {
      "inputs": [
        {
          "internalType": "uint256",
          "name": "tokenId_",
          "type": "uint256"
        }
      ],
      "name": "slotOf",
      "outputs": [
        {
          "internalType": "uint256",
          "name": "",
          "type": "uint256"
        }
      ],
      "stateMutability": "view",
      "type": "function"
    },
    {
      "inputs": [
        {
          "internalType": "uint256",
          "name": "",
          "type": "uint256"
        }
      ],
      "name": "slotURI",
      "outputs": [
        {
          "internalType": "string",
          "name": "",
          "type": "string"
        }
      ],
      "stateMutability": "pure",
      "type": "function"
    },
    {
      "inputs": [
        {
          "internalType": "uint256",
          "name": "id",
          "type": "uint256"
        }
      ],
      "name": "split",
      "outputs": [],
      "stateMutability": "nonpayable",
      "type": "function"
    },
    {
      "inputs": [
        {
          "internalType": "bytes4",
          "name": "interfaceId",
          "type": "bytes4"
        }
      ],
      "name": "supportsInterface",
      "outputs": [
        {
          "internalType": "bool",
          "name": "",
          "type": "bool"
        }
      ],
      "stateMutability": "view",
      "type": "function"
    },
    {
      "inputs": [],
      "name": "symbol",
      "outputs": [
        {
          "internalType": "string",
          "name": "",
          "type": "string"
        }
      ],
      "stateMutability": "view",
      "type": "function"
    },
    {
      "inputs": [
        {
          "internalType": "uint256",
          "name": "index",
          "type": "uint256"
        }
      ],
      "name": "tokenByIndex",
      "outputs": [
        {
          "internalType": "uint256",
          "name": "",
          "type": "uint256"
        }
      ],
      "stateMutability": "view",
      "type": "function"
    },
    {
      "inputs": [
        {
          "internalType": "uint256",
          "name": "_slot",
          "type": "uint256"
        },
        {
          "internalType": "uint256",
          "name": "_index",
          "type": "uint256"
        }
      ],
      "name": "tokenInSlotByIndex",
      "outputs": [
        {
          "internalType": "uint256",
          "name": "",
          "type": "uint256"
        }
      ],
      "stateMutability": "view",
      "type": "function"
    },
    {
      "inputs": [
        {
          "internalType": "address",
          "name": "owner",
          "type": "address"
        },
        {
          "internalType": "uint256",
          "name": "index",
          "type": "uint256"
        }
      ],
      "name": "tokenOfOwnerByIndex",
      "outputs": [
        {
          "internalType": "uint256",
          "name": "",
          "type": "uint256"
        }
      ],
      "stateMutability": "view",
      "type": "function"
    },
    {
      "inputs": [
        {
          "internalType": "uint256",
          "name": "_slot",
          "type": "uint256"
        }
      ],
      "name": "tokenSupplyInSlot",
      "outputs": [
        {
          "internalType": "uint256",
          "name": "",
          "type": "uint256"
        }
      ],
      "stateMutability": "view",
      "type": "function"
    },
    {
      "inputs": [
        {
          "internalType": "uint256",
          "name": "tokenID_",
          "type": "uint256"
        }
      ],
      "name": "tokenURI",
      "outputs": [
        {
          "internalType": "string",
          "name": "",
          "type": "string"
        }
      ],
      "stateMutability": "view",
      "type": "function"
    },
    {
      "inputs": [],
      "name": "totalSupply",
      "outputs": [
        {
          "internalType": "uint256",
          "name": "",
          "type": "uint256"
        }
      ],
      "stateMutability": "view",
      "type": "function"
    },
    {
      "inputs": [
        {
          "internalType": "uint256",
          "name": "fromTokenId_",
          "type": "uint256"
        },
        {
          "internalType": "address",
          "name": "to_",
          "type": "address"
        },
        {
          "internalType": "uint256",
          "name": "value_",
          "type": "uint256"
        }
      ],
      "name": "transferFrom",
      "outputs": [
        {
          "internalType": "uint256",
          "name": "",
          "type": "uint256"
        }
      ],
      "stateMutability": "payable",
      "type": "function"
    },
    {
      "inputs": [
        {
          "internalType": "address",
          "name": "from",
          "type": "address"
        },
        {
          "internalType": "address",
          "name": "to",
          "type": "address"
        },
        {
          "internalType": "uint256",
          "name": "tokenId",
          "type": "uint256"
        }
      ],
      "name": "transferFrom",
      "outputs": [],
      "stateMutability": "nonpayable",
      "type": "function"
    },
    {
      "inputs": [
        {
          "internalType": "uint256",
          "name": "fromTokenId_",
          "type": "uint256"
        },
        {
          "internalType": "uint256",
          "name": "toTokenId_",
          "type": "uint256"
        },
        {
          "internalType": "uint256",
          "name": "value_",
          "type": "uint256"
        }
      ],
      "name": "transferFrom",
      "outputs": [],
      "stateMutability": "payable",
      "type": "function"
    },
    {
      "inputs": [],
      "name": "updateVersion",
      "outputs": [],
      "stateMutability": "nonpayable",
      "type": "function"
    },
    {
      "inputs": [
        {
          "internalType": "address",
          "name": "newImplementation",
          "type": "address"
        }
      ],
      "name": "upgradeTo",
      "outputs": [],
      "stateMutability": "nonpayable",
      "type": "function"
    },
    {
      "inputs": [
        {
          "internalType": "address",
          "name": "newImplementation",
          "type": "address"
        },
        {
          "internalType": "bytes",
          "name": "data",
          "type": "bytes"
        }
      ],
      "name": "upgradeToAndCall",
      "outputs": [],
      "stateMutability": "payable",
      "type": "function"
    },
    {
      "inputs": [],
      "name": "valueDecimals",
      "outputs": [
        {
          "internalType": "uint8",
          "name": "",
          "type": "uint8"
        }
      ],
      "stateMutability": "view",
      "type": "function"
    },
    {
      "inputs": [],
      "name": "version",
      "outputs": [
        {
          "internalType": "uint256",
          "name": "",
          "type": "uint256"
        }
      ],
      "stateMutability": "view",
      "type": "function"
    },
    {
      "inputs": [
        {
          "internalType": "bytes32",
          "name": "",
          "type": "bytes32"
        }
      ],
      "name": "workScopes",
      "outputs": [
        {
          "internalType": "string",
          "name": "",
          "type": "string"
        }
      ],
      "stateMutability": "view",
      "type": "function"
    }
  ],
  "bytecode": "0x60a0604052306080523480156200001557600080fd5b506200002062000030565b6200002a62000030565b620000f2565b600054610100900460ff16156200009d5760405162461bcd60e51b815260206004820152602760248201527f496e697469616c697a61626c653a20636f6e747261637420697320696e697469604482015266616c697a696e6760c81b606482015260840160405180910390fd5b60005460ff9081161015620000f0576000805460ff191660ff9081179091556040519081527f7f26b83ff96e1f2b6a682f133852f6798a09c465da95921460cefb38474024989060200160405180910390a15b565b6080516153866200012a6000396000818161107f01528181611104015281816112ec0152818161137101526114fb01526153866000f3fe6080604052600436106103545760003560e01c80636352211e116101bb578063a3f4df7e116100f7578063e345e0bc11610095578063ed08fa801161006f578063ed08fa8014610a17578063ef6f66d714610a2d578063f0f11e0514610a4d578063f72c0d8b14610a6d57600080fd5b8063e345e0bc14610971578063e8a3d485146109b9578063e985e9c5146109ce57600080fd5b8063c87b56dd116100d1578063c87b56dd146108f1578063d52fd09514610911578063d547741f14610931578063dbceb0051461095157600080fd5b8063a3f4df7e14610868578063b510391f146108b1578063b88d4fde146108d157600080fd5b806391d1485411610164578063997edc611161013e578063997edc61146107f35780639cc7f70814610813578063a217fddf14610833578063a22cb4651461084857600080fd5b806391d148541461077757806395d89b41146107be578063993bef8d146107d357600080fd5b80638129fc1c116101955780638129fc1c1461072f5780638cb0a511146107445780638f88b7671461075757600080fd5b80636352211e146106c257806370a08231146106e257806372927aa31461070257600080fd5b80632f745c591161029557806348c02dc1116102335780634f6ccce71161020d5780634f6ccce7146106455780634f8a0f831461066557806352d1902d1461069357806354fd4d50146106a857600080fd5b806348c02dc1146106075780634a7d40171461061c5780634f1ef2861461063257600080fd5b80633659cfe61161026f5780633659cfe6146105845780633e7e8669146105a457806342842e0e146105c757806342966c68146105e757600080fd5b80632f745c5914610531578063310ed7f01461055157806336568abe1461056457600080fd5b80630f485c021161030257806323b872dd116102dc57806323b872dd146104a0578063248a9ca3146104c0578063263f3e7e146104f15780632f2ff15d1461051157600080fd5b80630f485c021461045857806318160ddd1461046b5780631e6ad4b81461048057600080fd5b8063081812fc11610333578063081812fc146103de578063095ea7b31461041657806309c3dd871461043857600080fd5b8062cd01101461035957806301ffc9a71461038c57806306fdde03146103bc575b600080fd5b34801561036557600080fd5b50610379610374366004614534565b610aa1565b6040519081526020015b60405180910390f35b34801561039857600080fd5b506103ac6103a736600461456c565b610ad6565b6040519015158152602001610383565b3480156103c857600080fd5b506103d1610ae1565b60405161038391906145d9565b3480156103ea57600080fd5b506103fe6103f93660046145ec565b610b73565b6040516001600160a01b039091168152602001610383565b34801561042257600080fd5b5061043661043136600461461a565b610b9a565b005b34801561044457600080fd5b506103d16104533660046145ec565b610cb4565b610379610466366004614646565b610d4b565b34801561047757600080fd5b50609954610379565b34801561048c57600080fd5b5061037961049b36600461472b565b610d99565b3480156104ac57600080fd5b506104366104bb366004614774565b610e02565b3480156104cc57600080fd5b506103796104db3660046145ec565b6000908152610135602052604090206001015490565b3480156104fd57600080fd5b5061037961050c3660046145ec565b610e7b565b34801561051d57600080fd5b5061043661052c3660046147a4565b610f05565b34801561053d57600080fd5b5061037961054c36600461461a565b610f2b565b61043661055f3660046147d4565b610fd3565b34801561057057600080fd5b5061043661057f3660046147a4565b610fe9565b34801561059057600080fd5b5061043661059f366004614800565b611075565b3480156105b057600080fd5b506101345460405160ff9091168152602001610383565b3480156105d357600080fd5b506104366105e2366004614774565b6111f0565b3480156105f357600080fd5b506104366106023660046145ec565b61120b565b34801561061357600080fd5b50610436611280565b34801561062857600080fd5b5061037961271081565b61043661064036600461483d565b6112e2565b34801561065157600080fd5b506103796106603660046145ec565b61144a565b34801561067157600080fd5b506103796106803660046145ec565b6000908152610131602052604090205490565b34801561069f57600080fd5b506103796114ee565b3480156106b457600080fd5b506101cb5461ffff16610379565b3480156106ce57600080fd5b506103fe6106dd3660046145ec565b6115b3565b3480156106ee57600080fd5b506103796106fd366004614800565b611618565b34801561070e57600080fd5b5061072261071d3660046145ec565b6116b2565b604051610383919061492e565b34801561073b57600080fd5b5061043661193d565b610436610752366004614646565b611a92565b34801561076357600080fd5b506103d16107723660046145ec565b611b98565b34801561078357600080fd5b506103ac6107923660046147a4565b6000918252610135602090815260408084206001600160a01b0393909316845291905290205460ff1690565b3480156107ca57600080fd5b506103d1611c33565b3480156107df57600080fd5b506103796107ee3660046145ec565b611c42565b3480156107ff57600080fd5b5061037961080e36600461472b565b611c58565b34801561081f57600080fd5b5061037961082e3660046145ec565b611cb4565b34801561083f57600080fd5b50610379600081565b34801561085457600080fd5b50610436610863366004614a0f565b611d52565b34801561087457600080fd5b506103d16040518060400160405280601881526020017f496d70616374206879706572636572746966696361746573000000000000000081525081565b3480156108bd57600080fd5b506104366108cc36600461483d565b611d5d565b3480156108dd57600080fd5b506104366108ec366004614a42565b611f19565b3480156108fd57600080fd5b506103d161090c3660046145ec565b611f92565b34801561091d57600080fd5b506103d161092c3660046145ec565b612064565b34801561093d57600080fd5b5061043661094c3660046147a4565b61207e565b34801561095d57600080fd5b5061043661096c3660046145ec565b6120a4565b34801561097d57600080fd5b5061037961098c3660046147a4565b600082815261012e602090815260408083206001600160a01b038516845260010190915290205492915050565b3480156109c557600080fd5b506103d1612191565b3480156109da57600080fd5b506103ac6109e9366004614aae565b6001600160a01b039182166000908152606a6020908152604080832093909416825291909152205460ff1690565b348015610a2357600080fd5b5061013054610379565b348015610a3957600080fd5b506103d1610a483660046145ec565b6121d1565b348015610a5957600080fd5b50610379610a6836600461472b565b6121eb565b348015610a7957600080fd5b506103797f189ab7a9244df0848122154315af71fe140f3db0fe014031783b0946b8c9d2e381565b600082815261013160205260408120805483908110610ac257610ac2614adc565b906000526020600020015490505b92915050565b6000610ad082612247565b606060658054610af090614af2565b80601f0160208091040260200160405190810160405280929190818152602001828054610b1c90614af2565b8015610b695780601f10610b3e57610100808354040283529160200191610b69565b820191906000526020600020905b815481529060010190602001808311610b4c57829003601f168201915b5050505050905090565b6000610b7e8261226c565b506000908152606960205260409020546001600160a01b031690565b6000610ba5826115b3565b9050806001600160a01b0316836001600160a01b031603610c175760405162461bcd60e51b815260206004820152602160248201527f4552433732313a20617070726f76616c20746f2063757272656e74206f776e656044820152603960f91b60648201526084015b60405180910390fd5b336001600160a01b0382161480610c335750610c3381336109e9565b610ca55760405162461bcd60e51b815260206004820152603e60248201527f4552433732313a20617070726f76652063616c6c6572206973206e6f7420746f60448201527f6b656e206f776e6572206e6f7220617070726f76656420666f7220616c6c00006064820152608401610c0e565b610caf83836122d0565b505050565b6060604051602001610d35907f646174613a6170706c69636174696f6e2f6a736f6e3b7b6e616d653a536c6f7481527f205479706520412c6465736372697074696f6e3a536c6f74205479706520412060208201527f6465736372697074696f6e7d00000000000000000000000000000000000000006040820152604c0190565b6040516020818303038152906040529050919050565b6000610d5833858461233e565b6000610d63856123e7565b9050610d84848261012f6000898152602001908152602001600020546123fd565b610d8f8582856124bb565b90505b9392505050565b6000610da7826101ce61277c565b60008181526101ce60205260409020909150610dc38382614b72565b507f2efcce702e3d0b95b3deb632da6d41c3d169e0c3effb9066d949f14d6f13224f8183604051610df5929190614c32565b60405180910390a1919050565b610e0d335b8261284e565b610e705760405162461bcd60e51b815260206004820152602e60248201527f4552433732313a2063616c6c6572206973206e6f7420746f6b656e206f776e6560448201526d1c881b9bdc88185c1c1c9bdd995960921b6064820152608401610c0e565b610caf8383836128cd565b6000818152606760205260408120546001600160a01b0316610ef15760405162461bcd60e51b815260206004820152602960248201527f455243333532353a20736c6f7420717565727920666f72206e6f6e657869737460448201526832b73a103a37b5b2b760b91b6064820152608401610c0e565b50600090815261012f602052604090205490565b60008281526101356020526040902060010154610f2181612a8c565b610caf8383612a96565b6000610f3683611618565b8210610faa5760405162461bcd60e51b815260206004820152602b60248201527f455243373231456e756d657261626c653a206f776e657220696e646578206f7560448201527f74206f6620626f756e64730000000000000000000000000000000000000000006064820152608401610c0e565b506001600160a01b03919091166000908152609760209081526040808320938352929052205490565b610fde33848361233e565b610caf8383836124bb565b6001600160a01b03811633146110675760405162461bcd60e51b815260206004820152602f60248201527f416363657373436f6e74726f6c3a2063616e206f6e6c792072656e6f756e636560448201527f20726f6c657320666f722073656c6600000000000000000000000000000000006064820152608401610c0e565b6110718282612b3a565b5050565b6001600160a01b037f00000000000000000000000000000000000000000000000000000000000000001630036111025760405162461bcd60e51b815260206004820152602c60248201527f46756e6374696f6e206d7573742062652063616c6c6564207468726f7567682060448201526b19195b1959d85d1958d85b1b60a21b6064820152608401610c0e565b7f00000000000000000000000000000000000000000000000000000000000000006001600160a01b031661115d7f360894a13ba1a3210667c828492db98dca3e2076cc3735a920a3ca505d382bbc546001600160a01b031690565b6001600160a01b0316146111c85760405162461bcd60e51b815260206004820152602c60248201527f46756e6374696f6e206d7573742062652063616c6c6564207468726f7567682060448201526b6163746976652070726f787960a01b6064820152608401610c0e565b6111d181612bbf565b604080516000808252602082019092526111ed91839190612be9565b50565b610caf83838360405180602001604052806000815250611f19565b61121433610e07565b6112775760405162461bcd60e51b815260206004820152602e60248201527f4552433732313a2063616c6c6572206973206e6f7420746f6b656e206f776e6560448201526d1c881b9bdc88185c1c1c9bdd995960921b6064820152608401610c0e565b6111ed81612d89565b7f189ab7a9244df0848122154315af71fe140f3db0fe014031783b0946b8c9d2e36112aa81612a8c565b6101cb8054600191906000906112c590849061ffff16614c61565b92506101000a81548161ffff021916908361ffff16021790555050565b6001600160a01b037f000000000000000000000000000000000000000000000000000000000000000016300361136f5760405162461bcd60e51b815260206004820152602c60248201527f46756e6374696f6e206d7573742062652063616c6c6564207468726f7567682060448201526b19195b1959d85d1958d85b1b60a21b6064820152608401610c0e565b7f00000000000000000000000000000000000000000000000000000000000000006001600160a01b03166113ca7f360894a13ba1a3210667c828492db98dca3e2076cc3735a920a3ca505d382bbc546001600160a01b031690565b6001600160a01b0316146114355760405162461bcd60e51b815260206004820152602c60248201527f46756e6374696f6e206d7573742062652063616c6c6564207468726f7567682060448201526b6163746976652070726f787960a01b6064820152608401610c0e565b61143e82612bbf565b61107182826001612be9565b600061145560995490565b82106114c95760405162461bcd60e51b815260206004820152602c60248201527f455243373231456e756d657261626c653a20676c6f62616c20696e646578206f60448201527f7574206f6620626f756e647300000000000000000000000000000000000000006064820152608401610c0e565b609982815481106114dc576114dc614adc565b90600052602060002001549050919050565b6000306001600160a01b037f0000000000000000000000000000000000000000000000000000000000000000161461158e5760405162461bcd60e51b815260206004820152603860248201527f555550535570677261646561626c653a206d757374206e6f742062652063616c60448201527f6c6564207468726f7567682064656c656761746563616c6c00000000000000006064820152608401610c0e565b507f360894a13ba1a3210667c828492db98dca3e2076cc3735a920a3ca505d382bbc90565b6000818152606760205260408120546001600160a01b031680610ad05760405162461bcd60e51b815260206004820152601860248201527f4552433732313a20696e76616c696420746f6b656e20494400000000000000006044820152606401610c0e565b60006001600160a01b0382166116965760405162461bcd60e51b815260206004820152602960248201527f4552433732313a2061646472657373207a65726f206973206e6f74206120766160448201527f6c6964206f776e657200000000000000000000000000000000000000000000006064820152608401610c0e565b506001600160a01b031660009081526068602052604090205490565b6116ba61434c565b60008281526101d1602090815260408083208151610120810183528154815282518084019384905290949193850192909160018501916002918390855b82829054906101000a900467ffffffffffffffff1667ffffffffffffffff16815260200190600801906020826007010492830192600103820291508084116116f757505050928452505060408051808201918290526020909301929150600284810191826000855b82829054906101000a900467ffffffffffffffff1667ffffffffffffffff168152602001906008019060208260070104928301926001038202915080841161175f57905050505050508152602001600382018054806020026020016040519081016040528092919081815260200182805480156117fb57602002820191906000526020600020905b8154815260200190600101908083116117e7575b505050505081526020016004820180548060200260200160405190810160405280929190818152602001828054801561185357602002820191906000526020600020905b81548152602001906001019080831161183f575b50505050508152602001600582018054806020026020016040519081016040528092919081815260200182805480156118ab57602002820191906000526020600020905b815481526020019060010190808311611897575b505050505081526020016006820180548060200260200160405190810160405280929190818152602001828054801561190d57602002820191906000526020600020905b81546001600160a01b031681526001909101906020018083116118ef575b50505091835250506007919091015461ffff8116602083015262010000900460ff16151560409091015292915050565b600054610100900460ff161580801561195d5750600054600160ff909116105b806119775750303b158015611977575060005460ff166001145b6119da5760405162461bcd60e51b815260206004820152602e60248201527f496e697469616c697a61626c653a20636f6e747261637420697320616c72656160448201526d191e481a5b9a5d1a585b1a5e995960921b6064820152608401610c0e565b6000805460ff1916600117905580156119fd576000805461ff0019166101001790555b611a05612e45565b611a0d612f6b565b611a15612f6b565b611a20600033612a96565b611a4a7f189ab7a9244df0848122154315af71fe140f3db0fe014031783b0946b8c9d2e333612a96565b80156111ed576000805461ff0019169055604051600181527f7f26b83ff96e1f2b6a682f133852f6798a09c465da95921460cefb38474024989060200160405180910390a150565b6000611a9d846115b3565b9050806001600160a01b0316836001600160a01b031603611b0b5760405162461bcd60e51b815260206004820152602260248201527f455243333532353a20617070726f76616c20746f2063757272656e74206f776e60448201526132b960f11b6064820152608401610c0e565b611b15338561284e565b611b875760405162461bcd60e51b815260206004820152603960248201527f455243333532353a20617070726f76652063616c6c6572206973206e6f74206f60448201527f776e6572206e6f7220617070726f76656420666f7220616c6c000000000000006064820152608401610c0e565b611b92848484612fd8565b50505050565b6101cd6020526000908152604090208054611bb290614af2565b80601f0160208091040260200160405190810160405280929190818152602001828054611bde90614af2565b8015611c2b5780601f10611c0057610100808354040283529160200191611c2b565b820191906000526020600020905b815481529060010190602001808311611c0e57829003601f168201915b505050505081565b606060668054610af090614af2565b600061013082815481106114dc576114dc614adc565b6000611c66826101cd61277c565b60008181526101cd60205260409020909150611c828382614b72565b507f8b841033bc947e807d9766c542105a3dbb0bae62591be7b5c8cd4f37f698bf738183604051610df5929190614c32565b6000818152606760205260408120546001600160a01b0316611d3e5760405162461bcd60e51b815260206004820152602c60248201527f455243333532353a2062616c616e636520717565727920666f72206e6f6e657860448201527f697374656e7420746f6b656e00000000000000000000000000000000000000006064820152608401610c0e565b50600090815261012d602052604090205490565b611071338383613063565b600080611d6983613131565b91509150611d77848361322e565b60016101cc6000828254611d8b9190614c83565b90915550506101cc54825160c0840151611da5919061350d565b60008181526101d1602090815260409091208451815590840151849190611dd290600183019060026143ab565b506040820151611de890600280840191906143ab565b5060608201518051611e04916003840191602090910190614453565b5060808201518051611e20916004840191602090910190614453565b5060a08201518051611e3c916005840191602090910190614453565b5060c08201518051611e5891600684019160209091019061448e565b5060e082015160079091018054610100909301511515620100000262ffffff1990931661ffff909216919091179190911790558251611e9d9086908390612710613641565b611ea781836137b1565b7f2d5e7de1a786ea5d535fcaa49a371e5e487a1a8d4f0a353faa6bc989ecf132e1818685600001518660c001518760200151886040015189606001518a608001518b60a001518c60e001518c604051611f0a9b9a99989796959493929190614c96565b60405180910390a15050505050565b611f23338361284e565b611f865760405162461bcd60e51b815260206004820152602e60248201527f4552433732313a2063616c6c6572206973206e6f7420746f6b656e206f776e6560448201526d1c881b9bdc88185c1c1c9bdd995960921b6064820152608401610c0e565b611b9284848484613853565b6060611f9d82611cb4565b611fa683610e7b565b604051602001610d359291907f646174613a6170706c69636174696f6e2f6a736f6e3b7b6e616d653a4173736581527f74205479706520412c6465736372697074696f6e3a417373657420547970652060208201527f41206465736372697074696f6e2c62616c616e63650000000000000000000000604082015260558101929092527f2c736c6f743a00000000000000000000000000000000000000000000000000006075830152607b820152607d60f81b609b820152609c0190565b6101cf6020526000908152604090208054611bb290614af2565b6000828152610135602052604090206001015461209a81612a8c565b610caf8383612b3a565b6000818152606760205260409020546001600160a01b03166121085760405162461bcd60e51b815260206004820152601a60248201527f4d696e743a20746f6b656e20646f6573206e6f742065786973740000000000006044820152606401610c0e565b60408051600180825281830190925260009160208083019080368337019050509050612135826001614c83565b8160008151811061214857612148614adc565b6020026020010181815250507fca2f7fad4853b2caaacf1c70ceb2140e76e34dd669e810522fb8d5e9490cd21e8282604051612185929190614d50565b60405180910390a15050565b606061219b610ae1565b6101336121ab6101345460ff1690565b6040516020016121bd93929190614d9e565b604051602081830303815290604052905090565b6101ce6020526000908152604090208054611bb290614af2565b60006121f9826101cf61277c565b60008181526101cf602052604090209091506122158382614b72565b507f4527d373276b1ece0c8dd18e140572f93feffd35a0993d9e4de70623b1ac93ce8183604051610df5929190614c32565b60006001600160e01b03198216637965db0b60e01b1480610ad05750610ad0826138dc565b6000818152606760205260409020546001600160a01b03166111ed5760405162461bcd60e51b815260206004820152601860248201527f4552433732313a20696e76616c696420746f6b656e20494400000000000000006044820152606401610c0e565b600081815260696020526040902080546001600160a01b0319166001600160a01b0384169081179091558190612305826115b3565b6001600160a01b03167f8c5be1e5ebec7d5bd14f71427d1e84f3dd0314c0f7b2291e5b200ac8c7c3b92560405160405180910390a45050565b600082815261012e602090815260408083206001600160a01b038716845260010190915290205461236f848461284e565b15801561237e57506000198114155b15611b9257818110156123d35760405162461bcd60e51b815260206004820152601f60248201527f455243333532353a20696e73756666696369656e7420616c6c6f77616e6365006044820152606401610c0e565b611b9283856123e28585614eed565b612fd8565b60006123f260995490565b610ad0906001614c83565b6124078383613937565b600082815261012f6020908152604080832084905583835261013190915281205490036124655761013080546001810182556000919091527f2f605e086faac1d93117bbfbc18835d434e9405fadc1ca66faf4b864746daf34018190555b60008181526101316020908152604080832080546001810182559084529183209091018490555182919084907fe4f48c240d3b994948aa54f3e2f5fca59263dfe1d52b6e4cf39a5d249b5ccb65908390a4505050565b6000838152606760205260409020546001600160a01b03166125315760405162461bcd60e51b815260206004820152602960248201527f45524333353235353a207472616e736665722066726f6d206e6f6e657869737460448201526832b73a103a37b5b2b760b91b6064820152608401610c0e565b6000828152606760205260409020546001600160a01b03166125bb5760405162461bcd60e51b815260206004820152602760248201527f45524333353235353a207472616e7366657220746f206e6f6e6578697374656e60448201527f7420746f6b656e000000000000000000000000000000000000000000000000006064820152608401610c0e565b600083815261012d60205260409020548111156126405760405162461bcd60e51b815260206004820152602860248201527f455243333532353a207472616e7366657220616d6f756e74206578636565647360448201527f2062616c616e63650000000000000000000000000000000000000000000000006064820152608401610c0e565b600082815261012f602052604080822054858352912054146126ca5760405162461bcd60e51b815260206004820152602e60248201527f455243333533353a207472616e7366657220746f20746f6b656e20776974682060448201527f646966666572656e7420736c6f740000000000000000000000000000000000006064820152608401610c0e565b60006126d5846115b3565b905060006126e2846115b3565b600086815261012d6020526040812080549293508592909190612706908490614eed565b9091555050600084815261012d60205260408120805485929061272a908490614c83565b9091555050600085905261012f60205283857f0b2aac84f3ec956911fd78eae5311062972ff949f38412e8da39069d9f068cc68560405161276d91815260200190565b60405180910390a35050505050565b6000808351116127ce5760405162461bcd60e51b815260206004820152600a60248201527f656d7074792074657874000000000000000000000000000000000000000000006044820152606401610c0e565b826040516020016127df91906145d9565b6040516020818303038152906040528051906020012090506128018282613a8d565b15610ad05760405162461bcd60e51b815260206004820152600e60248201527f616c7265616479206578697374730000000000000000000000000000000000006044820152606401610c0e565b60008061285a836115b3565b9050806001600160a01b0316846001600160a01b031614806128a157506001600160a01b038082166000908152606a602090815260408083209388168352929052205460ff165b806128c55750836001600160a01b03166128ba84610b73565b6001600160a01b0316145b949350505050565b826001600160a01b03166128e0826115b3565b6001600160a01b03161461295c5760405162461bcd60e51b815260206004820152602560248201527f4552433732313a207472616e736665722066726f6d20696e636f72726563742060448201527f6f776e65720000000000000000000000000000000000000000000000000000006064820152608401610c0e565b6001600160a01b0382166129be5760405162461bcd60e51b8152602060048201526024808201527f4552433732313a207472616e7366657220746f20746865207a65726f206164646044820152637265737360e01b6064820152608401610c0e565b6129c9838383613ab4565b6129d46000826122d0565b6001600160a01b03831660009081526068602052604081208054600192906129fd908490614eed565b90915550506001600160a01b0382166000908152606860205260408120805460019290612a2b908490614c83565b909155505060008181526067602052604080822080546001600160a01b0319166001600160a01b0386811691821790925591518493918716917fddf252ad1be2c89b69c2b068fc378daa952ba7f163c4a11628f55a4df523b3ef91a4505050565b6111ed8133613b4f565b6000828152610135602090815260408083206001600160a01b038516845290915290205460ff16611071576000828152610135602090815260408083206001600160a01b03851684529091529020805460ff19166001179055612af63390565b6001600160a01b0316816001600160a01b0316837f2f8788117e7eff1d82e926ec794901d17c78024a50270940304540a733656f0d60405160405180910390a45050565b6000828152610135602090815260408083206001600160a01b038516845290915290205460ff1615611071576000828152610135602090815260408083206001600160a01b0385168085529252808320805460ff1916905551339285917ff6391f5c32d9c69d2a47ea670b442974b53935d1edc7fd64eb21e047a839171b9190a45050565b7f189ab7a9244df0848122154315af71fe140f3db0fe014031783b0946b8c9d2e361107181612a8c565b7f4910fdfa16fed3260ed0e7147f7cc6da11a60208b5b9406d12a635614ffd91435460ff1615612c1c57610caf83613bd0565b826001600160a01b03166352d1902d6040518163ffffffff1660e01b8152600401602060405180830381865afa925050508015612c76575060408051601f3d908101601f19168201909252612c7391810190614f00565b60015b612ce85760405162461bcd60e51b815260206004820152602e60248201527f45524331393637557067726164653a206e657720696d706c656d656e7461746960448201527f6f6e206973206e6f7420555550530000000000000000000000000000000000006064820152608401610c0e565b7f360894a13ba1a3210667c828492db98dca3e2076cc3735a920a3ca505d382bbc8114612d7d5760405162461bcd60e51b815260206004820152602960248201527f45524331393637557067726164653a20756e737570706f727465642070726f7860448201527f6961626c655555494400000000000000000000000000000000000000000000006064820152608401610c0e565b50610caf838383613c8e565b6000612d94826115b3565b600083815261012f602090815260408083205461012d9092529091205491925090612dbe84613cb3565b600084815261012f6020908152604080832083905561012d82528083208390555183815286917f0b2aac84f3ec956911fd78eae5311062972ff949f38412e8da39069d9f068cc6910160405180910390a3600082857fe4f48c240d3b994948aa54f3e2f5fca59263dfe1d52b6e4cf39a5d249b5ccb6560405160405180910390a450505050565b600054610100900460ff1615808015612e655750600054600160ff909116105b80612e7f5750303b158015612e7f575060005460ff166001145b612ee25760405162461bcd60e51b815260206004820152602e60248201527f496e697469616c697a61626c653a20636f6e747261637420697320616c72656160448201526d191e481a5b9a5d1a585b1a5e995960921b6064820152608401610c0e565b6000805460ff191660011790558015612f05576000805461ff0019166101001790555b612f5f6040518060400160405280600781526020017f4d79546f6b656e00000000000000000000000000000000000000000000000000815250604051806040016040528060038152602001624d544b60e81b815250613d5a565b612f67612f6b565b611a4a5b600054610100900460ff16612fd65760405162461bcd60e51b815260206004820152602b60248201527f496e697469616c697a61626c653a20636f6e7472616374206973206e6f74206960448201526a6e697469616c697a696e6760a81b6064820152608401610c0e565b565b600083815261012e6020908152604080832080546001808201835582865284862090910180546001600160a01b0319166001600160a01b038916908117909155808652908201845293829020859055905184815290929186917f621b050de0ad08b51d19b48b3e6df75348c4de6bdd93e81b252ca62e28265b1b91015b60405180910390a350505050565b816001600160a01b0316836001600160a01b0316036130c45760405162461bcd60e51b815260206004820152601960248201527f4552433732313a20617070726f766520746f2063616c6c6572000000000000006044820152606401610c0e565b6001600160a01b038381166000818152606a6020908152604080832094871680845294825291829020805460ff191686151590811790915591519182527f17307eab39ab6107e8899845ad3d59bd9653f200f220920489ca2b5937696c31910160405180910390a3505050565b61313961434c565b6060600083511161318c5760405162461bcd60e51b815260206004820152601c60248201527f5f7061727365446174613a20696e707574206461746120656d707479000000006044820152606401610c0e565b6000806000806000806000898060200190518101906131ab91906150cc565b96509650965096509650965096506000848785886040516020016131d294939291906151c3565b60408051601f1981840301815291815281516020928301208c5260c08c01949094528a019490945290880191909152606087019390935250608085015260a0840191909152600060e08401526001610100840152919391925050565b6001600160a01b0382166132845760405162461bcd60e51b815260206004820152601e60248201527f4d696e743a206d696e7420746f20746865207a65726f206164647265737300006044820152606401610c0e565b60208181015190810151905167ffffffffffffffff918216911611156132ec5760405162461bcd60e51b815260206004820152601b60248201527f4d696e743a20696e76616c696420776f726b54696d656672616d6500000000006044820152606401610c0e565b60408101516020810151905167ffffffffffffffff918216911611156133545760405162461bcd60e51b815260206004820152601d60248201527f4d696e743a20696e76616c696420696d7061637454696d656672616d650000006044820152606401610c0e565b60408101515160208201515167ffffffffffffffff918216911611156133e25760405162461bcd60e51b815260206004820152602c60248201527f4d696e743a20696d7061637454696d656672616d65207072696f7220746f207760448201527f6f726b54696d656672616d6500000000000000000000000000000000000000006064820152608401610c0e565b60808101515160005b8181101561347a5761341c6101ce8460800151838151811061340f5761340f614adc565b6020026020010151613a8d565b6134685760405162461bcd60e51b815260206004820152601a60248201527f4d696e743a20696e76616c696420696d706163742073636f70650000000000006044820152606401610c0e565b806134728161520d565b9150506133eb565b5060608201515160005b81811015613506576134a86101cd8560600151838151811061340f5761340f614adc565b6134f45760405162461bcd60e51b815260206004820152601860248201527f4d696e743a20696e76616c696420776f726b2073636f706500000000000000006044820152606401610c0e565b806134fe8161520d565b915050613484565b5050505050565b60005b8151811015610caf576101d0600083838151811061353057613530614adc565b6020908102919091018101516001600160a01b03168252818101929092526040908101600090812086825290925290205460ff16156135d75760405162461bcd60e51b815260206004820152602560248201527f436c61696d3a20636c61696d20666f722063726561746f7273206f7665726c6160448201527f7070696e670000000000000000000000000000000000000000000000000000006064820152608401610c0e565b60016101d060008484815181106135f0576135f0614adc565b6020908102919091018101516001600160a01b0316825281810192909252604090810160009081208782529092529020805460ff1916911515919091179055806136398161520d565b915050613510565b6001600160a01b0384166136a15760405162461bcd60e51b815260206004820152602160248201527f455243333532353a206d696e7420746f20746865207a65726f206164647265736044820152607360f81b6064820152608401610c0e565b826000036136fb5760405162461bcd60e51b815260206004820152602160248201527f455243333532353a2063616e6e6f74206d696e74207a65726f20746f6b656e496044820152601960fa1b6064820152608401610c0e565b6000838152606760205260409020546001600160a01b0316156137605760405162461bcd60e51b815260206004820152601d60248201527f455243333532353a20746f6b656e20616c7265616479206d696e7465640000006044820152606401610c0e565b61376b8484846123fd565b600083815261012d602052604090208190558260007f0b2aac84f3ec956911fd78eae5311062972ff949f38412e8da39069d9f068cc68360405161305591815260200190565b6000828152606760205260409020546001600160a01b031661383b5760405162461bcd60e51b815260206004820152602e60248201527f45524337323155524953746f726167653a2055524920736574206f66206e6f6e60448201527f6578697374656e7420746f6b656e0000000000000000000000000000000000006064820152608401610c0e565b600082815260fb60205260409020610caf8282614b72565b61385e8484846128cd565b61386a84848484613dcf565b611b925760405162461bcd60e51b815260206004820152603260248201527f4552433732313a207472616e7366657220746f206e6f6e20455243373231526560448201527f63656976657220696d706c656d656e74657200000000000000000000000000006064820152608401610c0e565b60006001600160e01b031982166370b0048160e11b148061390d57506001600160e01b03198216631dba0dcf60e11b145b8061392857506001600160e01b03198216630354d60560e61b145b80610ad05750610ad082613f26565b6001600160a01b03821661398d5760405162461bcd60e51b815260206004820181905260248201527f4552433732313a206d696e7420746f20746865207a65726f20616464726573736044820152606401610c0e565b6000818152606760205260409020546001600160a01b0316156139f25760405162461bcd60e51b815260206004820152601c60248201527f4552433732313a20746f6b656e20616c7265616479206d696e746564000000006044820152606401610c0e565b6139fe60008383613ab4565b6001600160a01b0382166000908152606860205260408120805460019290613a27908490614c83565b909155505060008181526067602052604080822080546001600160a01b0319166001600160a01b03861690811790915590518392907fddf252ad1be2c89b69c2b068fc378daa952ba7f163c4a11628f55a4df523b3ef908290a45050565b505050505050565b60008181526020839052604081208054829190613aa990614af2565b905011905092915050565b600081815261012e6020526040812054905b81811015613b3657600083815261012e60205260408120805483908110613aef57613aef614adc565b600091825260208083209091015486835261012e825260408084206001600160a01b0390921684526001919091019091528120555080613b2e8161520d565b915050613ac6565b50600082815261012e60205260408120611b92916144e3565b6000828152610135602090815260408083206001600160a01b038516845290915290205460ff1661107157613b8e816001600160a01b03166014613f4b565b613b99836020613f4b565b604051602001613baa929190615226565b60408051601f198184030181529082905262461bcd60e51b8252610c0e916004016145d9565b6001600160a01b0381163b613c4d5760405162461bcd60e51b815260206004820152602d60248201527f455243313936373a206e657720696d706c656d656e746174696f6e206973206e60448201527f6f74206120636f6e7472616374000000000000000000000000000000000000006064820152608401610c0e565b7f360894a13ba1a3210667c828492db98dca3e2076cc3735a920a3ca505d382bbc80546001600160a01b0319166001600160a01b0392909216919091179055565b613c97836140f4565b600082511180613ca45750805b15610caf57611b928383614134565b6000613cbe826115b3565b9050613ccc81600084613ab4565b613cd76000836122d0565b6001600160a01b0381166000908152606860205260408120805460019290613d00908490614eed565b909155505060008281526067602052604080822080546001600160a01b0319169055518391906001600160a01b038416907fddf252ad1be2c89b69c2b068fc378daa952ba7f163c4a11628f55a4df523b3ef908390a45050565b600054610100900460ff16613dc55760405162461bcd60e51b815260206004820152602b60248201527f496e697469616c697a61626c653a20636f6e7472616374206973206e6f74206960448201526a6e697469616c697a696e6760a81b6064820152608401610c0e565b611071828261423f565b60006001600160a01b0384163b15613f1b57604051630a85bd0160e11b81526001600160a01b0385169063150b7a0290613e139033908990889088906004016152a7565b6020604051808303816000875af1925050508015613e4e575060408051601f3d908101601f19168201909252613e4b918101906152e3565b60015b613f01573d808015613e7c576040519150601f19603f3d011682016040523d82523d6000602084013e613e81565b606091505b508051600003613ef95760405162461bcd60e51b815260206004820152603260248201527f4552433732313a207472616e7366657220746f206e6f6e20455243373231526560448201527f63656976657220696d706c656d656e74657200000000000000000000000000006064820152608401610c0e565b805181602001fd5b6001600160e01b031916630a85bd0160e11b1490506128c5565b506001949350505050565b60006001600160e01b0319821663780e9d6360e01b1480610ad05750610ad0826142c3565b60606000613f5a836002615300565b613f65906002614c83565b67ffffffffffffffff811115613f7d57613f7d61467e565b6040519080825280601f01601f191660200182016040528015613fa7576020820181803683370190505b509050600360fc1b81600081518110613fc257613fc2614adc565b60200101906001600160f81b031916908160001a905350600f60fb1b81600181518110613ff157613ff1614adc565b60200101906001600160f81b031916908160001a9053506000614015846002615300565b614020906001614c83565b90505b60018111156140a5577f303132333435363738396162636465660000000000000000000000000000000085600f166010811061406157614061614adc565b1a60f81b82828151811061407757614077614adc565b60200101906001600160f81b031916908160001a90535060049490941c9361409e8161531f565b9050614023565b508315610d925760405162461bcd60e51b815260206004820181905260248201527f537472696e67733a20686578206c656e67746820696e73756666696369656e746044820152606401610c0e565b6140fd81613bd0565b6040516001600160a01b038216907fbc7cd75a20ee27fd9adebab32041f755214dbc6bffa90cc0225b39da2e5c2d3b90600090a250565b60606001600160a01b0383163b6141b35760405162461bcd60e51b815260206004820152602660248201527f416464726573733a2064656c65676174652063616c6c20746f206e6f6e2d636f60448201527f6e747261637400000000000000000000000000000000000000000000000000006064820152608401610c0e565b600080846001600160a01b0316846040516141ce9190615336565b600060405180830381855af49150503d8060008114614209576040519150601f19603f3d011682016040523d82523d6000602084013e61420e565b606091505b5091509150614236828260405180606001604052806027815260200161535360279139614313565b95945050505050565b600054610100900460ff166142aa5760405162461bcd60e51b815260206004820152602b60248201527f496e697469616c697a61626c653a20636f6e7472616374206973206e6f74206960448201526a6e697469616c697a696e6760a81b6064820152608401610c0e565b60656142b68382614b72565b506066610caf8282614b72565b60006001600160e01b031982166380ac58cd60e01b14806142f457506001600160e01b03198216635b5e139f60e01b145b80610ad057506301ffc9a760e01b6001600160e01b0319831614610ad0565b60608315614322575081610d92565b8251156143325782518084602001fd5b8160405162461bcd60e51b8152600401610c0e91906145d9565b6040805161012081019091526000815260208101614368614501565b8152602001614375614501565b815260200160608152602001606081526020016060815260200160608152602001600061ffff1681526020016000151581525090565b6001830191839082156144435791602002820160005b8382111561440d57835183826101000a81548167ffffffffffffffff021916908367ffffffffffffffff16021790555092602001926008016020816007010492830192600103026143c1565b80156144415782816101000a81549067ffffffffffffffff021916905560080160208160070104928301926001030261440d565b505b5061444f92915061451f565b5090565b828054828255906000526020600020908101928215614443579160200282015b82811115614443578251825591602001919060010190614473565b828054828255906000526020600020908101928215614443579160200282015b8281111561444357825182546001600160a01b0319166001600160a01b039091161782556020909201916001909101906144ae565b50805460008255906000526020600020908101906111ed919061451f565b60405180604001604052806002906020820280368337509192915050565b5b8082111561444f5760008155600101614520565b6000806040838503121561454757600080fd5b50508035926020909101359150565b6001600160e01b0319811681146111ed57600080fd5b60006020828403121561457e57600080fd5b8135610d9281614556565b60005b838110156145a457818101518382015260200161458c565b50506000910152565b600081518084526145c5816020860160208601614589565b601f01601f19169290920160200192915050565b602081526000610d9260208301846145ad565b6000602082840312156145fe57600080fd5b5035919050565b6001600160a01b03811681146111ed57600080fd5b6000806040838503121561462d57600080fd5b823561463881614605565b946020939093013593505050565b60008060006060848603121561465b57600080fd5b83359250602084013561466d81614605565b929592945050506040919091013590565b634e487b7160e01b600052604160045260246000fd5b604051601f8201601f1916810167ffffffffffffffff811182821017156146bd576146bd61467e565b604052919050565b600067ffffffffffffffff8211156146df576146df61467e565b50601f01601f191660200190565b60006147006146fb846146c5565b614694565b905082815283838301111561471457600080fd5b828260208301376000602084830101529392505050565b60006020828403121561473d57600080fd5b813567ffffffffffffffff81111561475457600080fd5b8201601f8101841361476557600080fd5b6128c5848235602084016146ed565b60008060006060848603121561478957600080fd5b833561479481614605565b9250602084013561466d81614605565b600080604083850312156147b757600080fd5b8235915060208301356147c981614605565b809150509250929050565b6000806000606084860312156147e957600080fd5b505081359360208301359350604090920135919050565b60006020828403121561481257600080fd5b8135610d9281614605565b600082601f83011261482e57600080fd5b610d92838335602085016146ed565b6000806040838503121561485057600080fd5b823561485b81614605565b9150602083013567ffffffffffffffff81111561487757600080fd5b6148838582860161481d565b9150509250929050565b8060005b6002811015611b9257815167ffffffffffffffff16845260209384019390910190600101614891565b600081518084526020808501945080840160005b838110156148ea578151875295820195908201906001016148ce565b509495945050505050565b600081518084526020808501945080840160005b838110156148ea5781516001600160a01b031687529582019590820190600101614909565b60208152815160208201526000602083015161494d604084018261488d565b506040830151614960608084018261488d565b5060608301516101608060c085015261497d6101808501836148ba565b91506080850151601f19808685030160e087015261499b84836148ba565b935060a087015191506101008187860301818801526149ba85846148ba565b945060c0880151925081878603016101208801526149d885846148f5565b945060e088015192506149f261014088018461ffff169052565b870151801515848801529150614a059050565b5090949350505050565b60008060408385031215614a2257600080fd5b8235614a2d81614605565b9150602083013580151581146147c957600080fd5b60008060008060808587031215614a5857600080fd5b8435614a6381614605565b93506020850135614a7381614605565b925060408501359150606085013567ffffffffffffffff811115614a9657600080fd5b614aa28782880161481d565b91505092959194509250565b60008060408385031215614ac157600080fd5b8235614acc81614605565b915060208301356147c981614605565b634e487b7160e01b600052603260045260246000fd5b600181811c90821680614b0657607f821691505b602082108103614b2657634e487b7160e01b600052602260045260246000fd5b50919050565b601f821115610caf57600081815260208120601f850160051c81016020861015614b535750805b601f850160051c820191505b81811015613a8557828155600101614b5f565b815167ffffffffffffffff811115614b8c57614b8c61467e565b614ba081614b9a8454614af2565b84614b2c565b602080601f831160018114614bd55760008415614bbd5750858301515b600019600386901b1c1916600185901b178555613a85565b600085815260208120601f198616915b82811015614c0457888601518255948401946001909101908401614be5565b5085821015614c225787850151600019600388901b60f8161c191681555b5050505050600190811b01905550565b8281526040602082015260006128c560408301846145ad565b634e487b7160e01b600052601160045260246000fd5b61ffff818116838216019080821115614c7c57614c7c614c4b565b5092915050565b80820180821115610ad057610ad0614c4b565b60006101a08d83526001600160a01b038d1660208401528b6040840152806060840152614cc58184018c6148f5565b9050614cd4608084018b61488d565b614ce160c084018a61488d565b828103610100840152614cf481896148ba565b9050828103610120840152614d0981886148ba565b9050828103610140840152614d1e81876148ba565b905061ffff8516610160840152828103610180840152614d3e81856145ad565b9e9d5050505050505050505050505050565b6000604082018483526020604081850152818551808452606086019150828701935060005b81811015614d9157845183529383019391830191600101614d75565b5090979650505050505050565b7f646174613a6170706c69636174696f6e2f6a736f6e3b7b6e616d653a000000008152600084516020614dd782601c8601838a01614589565b81840191507f2c6465736372697074696f6e3a00000000000000000000000000000000000000601c830152602960008754614e1181614af2565b60018281168015614e295760018114614e4257614e72565b60ff198416888701528215158302880186019450614e72565b8b6000528660002060005b84811015614e685781548a8201890152908301908801614e4d565b5050858389010194505b507f2c76616c7565446563696d616c733a00000000000000000000000000000000008452600f84019650614eca878b60f81b7fff00000000000000000000000000000000000000000000000000000000000000169052565b614edd818801607d60f81b815260010190565b9c9b505050505050505050505050565b81810381811115610ad057610ad0614c4b565b600060208284031215614f1257600080fd5b5051919050565b600067ffffffffffffffff821115614f3357614f3361467e565b5060051b60200190565b600082601f830112614f4e57600080fd5b81516020614f5e6146fb83614f19565b82815260059290921b84018101918181019086841115614f7d57600080fd5b8286015b84811015614f985780518352918301918301614f81565b509695505050505050565b600082601f830112614fb457600080fd5b6040516040810167ffffffffffffffff8282108183111715614fd857614fd861467e565b60409182528291850186811115614fee57600080fd5b855b8181101561501757805183811681146150095760008081fd5b845260209384019301614ff0565b50929695505050505050565b600082601f83011261503457600080fd5b815160206150446146fb83614f19565b82815260059290921b8401810191818101908684111561506357600080fd5b8286015b84811015614f9857805161507a81614605565b8352918301918301615067565b600082601f83011261509857600080fd5b81516150a66146fb826146c5565b8181528460208386010111156150bb57600080fd5b6128c5826020830160208701614589565b6000806000806000806000610120888a0312156150e857600080fd5b875167ffffffffffffffff8082111561510057600080fd5b61510c8b838c01614f3d565b985060208a015191508082111561512257600080fd5b61512e8b838c01614f3d565b975060408a015191508082111561514457600080fd5b6151508b838c01614f3d565b965061515f8b60608c01614fa3565b955061516e8b60a08c01614fa3565b945060e08a015191508082111561518457600080fd5b6151908b838c01615023565b93506101008a01519150808211156151a757600080fd5b506151b48a828b01615087565b91505092959891949750929550565b6151cd818661488d565b60c0604082015260006151e360c08301866148ba565b6151f0606084018661488d565b82810360a084015261520281856148ba565b979650505050505050565b60006001820161521f5761521f614c4b565b5060010190565b7f416363657373436f6e74726f6c3a206163636f756e742000000000000000000081526000835161525e816017850160208801614589565b7f206973206d697373696e6720726f6c6520000000000000000000000000000000601791840191820152835161529b816028840160208801614589565b01602801949350505050565b60006001600160a01b038087168352808616602084015250836040830152608060608301526152d960808301846145ad565b9695505050505050565b6000602082840312156152f557600080fd5b8151610d9281614556565b600081600019048311821515161561531a5761531a614c4b565b500290565b60008161532e5761532e614c4b565b506000190190565b60008251615348818460208701614589565b919091019291505056fe416464726573733a206c6f772d6c6576656c2064656c65676174652063616c6c206661696c6564a164736f6c6343000810000a",
  "linkReferences": {},
  "deployedLinkReferences": {}
}