{
  "_format": "hh-sol-artifact-1",
  "contractName": "ERC3525_Testing",
  "sourceName": "contracts/mocks/ERC3525_Testing.sol",
  "abi": [
    {
      "anonymous": false,
      "inputs": [
        {
          "indexed": true,
          "internalType": "address",
          "name": "owner",
          "type": "address"
        },
        {
          "indexed": true,
          "internalType": "address",
          "name": "approved",
          "type": "address"
        },
        {
          "indexed": true,
          "internalType": "uint256",
          "name": "tokenId",
          "type": "uint256"
        }
      ],
      "name": "Approval",
      "type": "event"
    },
    {
      "anonymous": false,
      "inputs": [
        {
          "indexed": true,
          "internalType": "address",
          "name": "owner",
          "type": "address"
        },
        {
          "indexed": true,
          "internalType": "address",
          "name": "operator",
          "type": "address"
        },
        {
          "indexed": false,
          "internalType": "bool",
          "name": "approved",
          "type": "bool"
        }
      ],
      "name": "ApprovalForAll",
      "type": "event"
    },
    {
      "anonymous": false,
      "inputs": [
        {
          "indexed": true,
          "internalType": "uint256",
          "name": "_tokenId",
          "type": "uint256"
        },
        {
          "indexed": true,
          "internalType": "address",
          "name": "_operator",
          "type": "address"
        },
        {
          "indexed": false,
          "internalType": "uint256",
          "name": "_value",
          "type": "uint256"
        }
      ],
      "name": "ApprovalValue",
      "type": "event"
    },
    {
      "anonymous": false,
      "inputs": [
        {
          "indexed": false,
          "internalType": "uint8",
          "name": "version",
          "type": "uint8"
        }
      ],
      "name": "Initialized",
      "type": "event"
    },
    {
      "anonymous": false,
      "inputs": [
        {
          "indexed": true,
          "internalType": "uint256",
          "name": "_tokenId",
          "type": "uint256"
        },
        {
          "indexed": true,
          "internalType": "uint256",
          "name": "_oldSlot",
          "type": "uint256"
        },
        {
          "indexed": true,
          "internalType": "uint256",
          "name": "_newSlot",
          "type": "uint256"
        }
      ],
      "name": "SlotChanged",
      "type": "event"
    },
    {
      "anonymous": false,
      "inputs": [
        {
          "indexed": true,
          "internalType": "address",
          "name": "from",
          "type": "address"
        },
        {
          "indexed": true,
          "internalType": "address",
          "name": "to",
          "type": "address"
        },
        {
          "indexed": true,
          "internalType": "uint256",
          "name": "tokenId",
          "type": "uint256"
        }
      ],
      "name": "Transfer",
      "type": "event"
    },
    {
      "anonymous": false,
      "inputs": [
        {
          "indexed": true,
          "internalType": "uint256",
          "name": "_fromTokenId",
          "type": "uint256"
        },
        {
          "indexed": true,
          "internalType": "uint256",
          "name": "_toTokenId",
          "type": "uint256"
        },
        {
          "indexed": false,
          "internalType": "uint256",
          "name": "_value",
          "type": "uint256"
        }
      ],
      "name": "TransferValue",
      "type": "event"
    },
    {
      "inputs": [
        {
          "internalType": "uint256",
          "name": "tokenId_",
          "type": "uint256"
        },
        {
          "internalType": "address",
          "name": "operator_",
          "type": "address"
        }
      ],
      "name": "allowance",
      "outputs": [
        {
          "internalType": "uint256",
          "name": "",
          "type": "uint256"
        }
      ],
      "stateMutability": "view",
      "type": "function"
    },
    {
      "inputs": [
        {
          "internalType": "address",
          "name": "to",
          "type": "address"
        },
        {
          "internalType": "uint256",
          "name": "tokenId",
          "type": "uint256"
        }
      ],
      "name": "approve",
      "outputs": [],
      "stateMutability": "nonpayable",
      "type": "function"
    },
    {
      "inputs": [
        {
          "internalType": "uint256",
          "name": "tokenId_",
          "type": "uint256"
        },
        {
          "internalType": "address",
          "name": "to_",
          "type": "address"
        },
        {
          "internalType": "uint256",
          "name": "value_",
          "type": "uint256"
        }
      ],
      "name": "approve",
      "outputs": [],
      "stateMutability": "payable",
      "type": "function"
    },
    {
      "inputs": [
        {
          "internalType": "uint256",
          "name": "tokenId_",
          "type": "uint256"
        },
        {
          "internalType": "address",
          "name": "to_",
          "type": "address"
        },
        {
          "internalType": "uint256",
          "name": "value_",
          "type": "uint256"
        }
      ],
      "name": "approveValue",
      "outputs": [],
      "stateMutability": "nonpayable",
      "type": "function"
    },
    {
      "inputs": [
        {
          "internalType": "address",
          "name": "owner",
          "type": "address"
        }
      ],
      "name": "balanceOf",
      "outputs": [
        {
          "internalType": "uint256",
          "name": "",
          "type": "uint256"
        }
      ],
      "stateMutability": "view",
      "type": "function"
    },
    {
      "inputs": [
        {
          "internalType": "uint256",
          "name": "tokenId_",
          "type": "uint256"
        }
      ],
      "name": "balanceOf",
      "outputs": [
        {
          "internalType": "uint256",
          "name": "",
          "type": "uint256"
        }
      ],
      "stateMutability": "view",
      "type": "function"
    },
    {
      "inputs": [
        {
          "internalType": "uint256",
          "name": "tokenId_",
          "type": "uint256"
        }
      ],
      "name": "burn",
      "outputs": [],
      "stateMutability": "nonpayable",
      "type": "function"
    },
    {
      "inputs": [],
      "name": "contractURI",
      "outputs": [
        {
          "internalType": "string",
          "name": "",
          "type": "string"
        }
      ],
      "stateMutability": "view",
      "type": "function"
    },
    {
      "inputs": [
        {
          "internalType": "uint256",
          "name": "tokenId",
          "type": "uint256"
        }
      ],
      "name": "getApproved",
      "outputs": [
        {
          "internalType": "address",
          "name": "",
          "type": "address"
        }
      ],
      "stateMutability": "view",
      "type": "function"
    },
    {
      "inputs": [],
      "name": "initialize",
      "outputs": [],
      "stateMutability": "nonpayable",
      "type": "function"
    },
    {
      "inputs": [
        {
          "internalType": "address",
          "name": "owner",
          "type": "address"
        },
        {
          "internalType": "address",
          "name": "operator",
          "type": "address"
        }
      ],
      "name": "isApprovedForAll",
      "outputs": [
        {
          "internalType": "bool",
          "name": "",
          "type": "bool"
        }
      ],
      "stateMutability": "view",
      "type": "function"
    },
    {
      "inputs": [
        {
          "internalType": "address",
          "name": "to_",
          "type": "address"
        },
        {
          "internalType": "uint256",
          "name": "tokenId_",
          "type": "uint256"
        },
        {
          "internalType": "uint256",
          "name": "slot_",
          "type": "uint256"
        },
        {
          "internalType": "uint256",
          "name": "value_",
          "type": "uint256"
        }
      ],
      "name": "mintValue",
      "outputs": [],
      "stateMutability": "nonpayable",
      "type": "function"
    },
    {
      "inputs": [],
      "name": "name",
      "outputs": [
        {
          "internalType": "string",
          "name": "",
          "type": "string"
        }
      ],
      "stateMutability": "view",
      "type": "function"
    },
    {
      "inputs": [
        {
          "internalType": "uint256",
          "name": "tokenId",
          "type": "uint256"
        }
      ],
      "name": "ownerOf",
      "outputs": [
        {
          "internalType": "address",
          "name": "",
          "type": "address"
        }
      ],
      "stateMutability": "view",
      "type": "function"
    },
    {
      "inputs": [
        {
          "internalType": "address",
          "name": "from",
          "type": "address"
        },
        {
          "internalType": "address",
          "name": "to",
          "type": "address"
        },
        {
          "internalType": "uint256",
          "name": "tokenId",
          "type": "uint256"
        }
      ],
      "name": "safeTransferFrom",
      "outputs": [],
      "stateMutability": "nonpayable",
      "type": "function"
    },
    {
      "inputs": [
        {
          "internalType": "address",
          "name": "from",
          "type": "address"
        },
        {
          "internalType": "address",
          "name": "to",
          "type": "address"
        },
        {
          "internalType": "uint256",
          "name": "tokenId",
          "type": "uint256"
        },
        {
          "internalType": "bytes",
          "name": "data",
          "type": "bytes"
        }
      ],
      "name": "safeTransferFrom",
      "outputs": [],
      "stateMutability": "nonpayable",
      "type": "function"
    },
    {
      "inputs": [
        {
          "internalType": "address",
          "name": "operator",
          "type": "address"
        },
        {
          "internalType": "bool",
          "name": "approved",
          "type": "bool"
        }
      ],
      "name": "setApprovalForAll",
      "outputs": [],
      "stateMutability": "nonpayable",
      "type": "function"
    },
    {
      "inputs": [
        {
          "internalType": "uint256",
          "name": "_index",
          "type": "uint256"
        }
      ],
      "name": "slotByIndex",
      "outputs": [
        {
          "internalType": "uint256",
          "name": "",
          "type": "uint256"
        }
      ],
      "stateMutability": "view",
      "type": "function"
    },
    {
      "inputs": [],
      "name": "slotCount",
      "outputs": [
        {
          "internalType": "uint256",
          "name": "",
          "type": "uint256"
        }
      ],
      "stateMutability": "view",
      "type": "function"
    },
    {
      "inputs": [
        {
          "internalType": "uint256",
          "name": "tokenId_",
          "type": "uint256"
        }
      ],
      "name": "slotOf",
      "outputs": [
        {
          "internalType": "uint256",
          "name": "",
          "type": "uint256"
        }
      ],
      "stateMutability": "view",
      "type": "function"
    },
    {
      "inputs": [
        {
          "internalType": "uint256",
          "name": "",
          "type": "uint256"
        }
      ],
      "name": "slotURI",
      "outputs": [
        {
          "internalType": "string",
          "name": "",
          "type": "string"
        }
      ],
      "stateMutability": "pure",
      "type": "function"
    },
    {
      "inputs": [
        {
          "internalType": "address",
          "name": "operator_",
          "type": "address"
        },
        {
          "internalType": "uint256",
          "name": "tokenId_",
          "type": "uint256"
        },
        {
          "internalType": "uint256",
          "name": "value_",
          "type": "uint256"
        }
      ],
      "name": "spendAllowance",
      "outputs": [],
      "stateMutability": "nonpayable",
      "type": "function"
    },
    {
      "inputs": [
        {
          "internalType": "bytes4",
          "name": "interfaceId",
          "type": "bytes4"
        }
      ],
      "name": "supportsInterface",
      "outputs": [
        {
          "internalType": "bool",
          "name": "",
          "type": "bool"
        }
      ],
      "stateMutability": "view",
      "type": "function"
    },
    {
      "inputs": [],
      "name": "symbol",
      "outputs": [
        {
          "internalType": "string",
          "name": "",
          "type": "string"
        }
      ],
      "stateMutability": "view",
      "type": "function"
    },
    {
      "inputs": [
        {
          "internalType": "uint256",
          "name": "index",
          "type": "uint256"
        }
      ],
      "name": "tokenByIndex",
      "outputs": [
        {
          "internalType": "uint256",
          "name": "",
          "type": "uint256"
        }
      ],
      "stateMutability": "view",
      "type": "function"
    },
    {
      "inputs": [
        {
          "internalType": "uint256",
          "name": "_slot",
          "type": "uint256"
        },
        {
          "internalType": "uint256",
          "name": "_index",
          "type": "uint256"
        }
      ],
      "name": "tokenInSlotByIndex",
      "outputs": [
        {
          "internalType": "uint256",
          "name": "",
          "type": "uint256"
        }
      ],
      "stateMutability": "view",
      "type": "function"
    },
    {
      "inputs": [
        {
          "internalType": "address",
          "name": "owner",
          "type": "address"
        },
        {
          "internalType": "uint256",
          "name": "index",
          "type": "uint256"
        }
      ],
      "name": "tokenOfOwnerByIndex",
      "outputs": [
        {
          "internalType": "uint256",
          "name": "",
          "type": "uint256"
        }
      ],
      "stateMutability": "view",
      "type": "function"
    },
    {
      "inputs": [
        {
          "internalType": "uint256",
          "name": "_slot",
          "type": "uint256"
        }
      ],
      "name": "tokenSupplyInSlot",
      "outputs": [
        {
          "internalType": "uint256",
          "name": "",
          "type": "uint256"
        }
      ],
      "stateMutability": "view",
      "type": "function"
    },
    {
      "inputs": [
        {
          "internalType": "uint256",
          "name": "tokenID_",
          "type": "uint256"
        }
      ],
      "name": "tokenURI",
      "outputs": [
        {
          "internalType": "string",
          "name": "",
          "type": "string"
        }
      ],
      "stateMutability": "view",
      "type": "function"
    },
    {
      "inputs": [],
      "name": "totalSupply",
      "outputs": [
        {
          "internalType": "uint256",
          "name": "",
          "type": "uint256"
        }
      ],
      "stateMutability": "view",
      "type": "function"
    },
    {
      "inputs": [
        {
          "internalType": "uint256",
          "name": "fromTokenId_",
          "type": "uint256"
        },
        {
          "internalType": "uint256",
          "name": "toTokenId_",
          "type": "uint256"
        },
        {
          "internalType": "uint256",
          "name": "value_",
          "type": "uint256"
        }
      ],
      "name": "transfer",
      "outputs": [],
      "stateMutability": "nonpayable",
      "type": "function"
    },
    {
      "inputs": [
        {
          "internalType": "uint256",
          "name": "fromTokenId_",
          "type": "uint256"
        },
        {
          "internalType": "address",
          "name": "to_",
          "type": "address"
        },
        {
          "internalType": "uint256",
          "name": "value_",
          "type": "uint256"
        }
      ],
      "name": "transferFrom",
      "outputs": [
        {
          "internalType": "uint256",
          "name": "",
          "type": "uint256"
        }
      ],
      "stateMutability": "payable",
      "type": "function"
    },
    {
      "inputs": [
        {
          "internalType": "address",
          "name": "from",
          "type": "address"
        },
        {
          "internalType": "address",
          "name": "to",
          "type": "address"
        },
        {
          "internalType": "uint256",
          "name": "tokenId",
          "type": "uint256"
        }
      ],
      "name": "transferFrom",
      "outputs": [],
      "stateMutability": "nonpayable",
      "type": "function"
    },
    {
      "inputs": [
        {
          "internalType": "uint256",
          "name": "fromTokenId_",
          "type": "uint256"
        },
        {
          "internalType": "uint256",
          "name": "toTokenId_",
          "type": "uint256"
        },
        {
          "internalType": "uint256",
          "name": "value_",
          "type": "uint256"
        }
      ],
      "name": "transferFrom",
      "outputs": [],
      "stateMutability": "payable",
      "type": "function"
    },
    {
      "inputs": [],
      "name": "valueDecimals",
      "outputs": [
        {
          "internalType": "uint8",
          "name": "",
          "type": "uint8"
        }
      ],
      "stateMutability": "view",
      "type": "function"
    }
  ],
  "bytecode": "0x608060405234801561001057600080fd5b50612b1f806100206000396000f3fe6080604052600436106102335760003560e01c8063449d077211610138578063993bef8d116100b0578063c87b56dd1161007f578063e8a3d48511610064578063e8a3d48514610668578063e985e9c51461067d578063ed08fa80146106c657600080fd5b8063c87b56dd14610600578063e345e0bc1461062057600080fd5b8063993bef8d146105805780639cc7f708146105a0578063a22cb465146105c0578063b88d4fde146105e057600080fd5b806370a08231116101075780638cb0a511116100ec5780638cb0a5111461053857806390dd26271461054b57806395d89b411461056b57600080fd5b806370a08231146105035780638129fc1c1461052357600080fd5b8063449d0772146104755780634f6ccce7146104955780634f8a0f83146104b55780636352211e146104e357600080fd5b806318160ddd116101cb578063310ed7f01161019a5780633e7e86691161017f5780633e7e86691461041257806342842e0e1461043557806342966c681461045557600080fd5b8063310ed7f0146103df57806333d7aa3c146103f257600080fd5b806318160ddd1461036a57806323b872dd1461037f578063263f3e7e1461039f5780632f745c59146103bf57600080fd5b8063081812fc11610207578063081812fc146102df578063095ea7b31461031757806309c3dd87146103375780630f485c021461035757600080fd5b8062cd01101461023857806301ffc9a71461026b5780630468f0de1461029b57806306fdde03146102bd575b600080fd5b34801561024457600080fd5b50610258610253366004612409565b6106dc565b6040519081526020015b60405180910390f35b34801561027757600080fd5b5061028b610286366004612441565b610711565b6040519015158152602001610262565b3480156102a757600080fd5b506102bb6102b6366004612481565b61076c565b005b3480156102c957600080fd5b506102d261077c565b6040516102629190612506565b3480156102eb57600080fd5b506102ff6102fa366004612519565b61080e565b6040516001600160a01b039091168152602001610262565b34801561032357600080fd5b506102bb610332366004612532565b610835565b34801561034357600080fd5b506102d2610352366004612519565b61094a565b610258610365366004612481565b6109e1565b34801561037657600080fd5b50609954610258565b34801561038b57600080fd5b506102bb61039a36600461255c565b610a2d565b3480156103ab57600080fd5b506102586103ba366004612519565b610aa5565b3480156103cb57600080fd5b506102586103da366004612532565b610b2f565b6102bb6103ed366004612588565b610bd7565b3480156103fe57600080fd5b506102bb61040d3660046125b4565b610bed565b34801561041e57600080fd5b506101345460405160ff9091168152602001610262565b34801561044157600080fd5b506102bb61045036600461255c565b610bff565b34801561046157600080fd5b506102bb610470366004612519565b610c1a565b34801561048157600080fd5b506102bb6104903660046125ed565b610c26565b3480156104a157600080fd5b506102586104b0366004612519565b610c31565b3480156104c157600080fd5b506102586104d0366004612519565b6000908152610131602052604090205490565b3480156104ef57600080fd5b506102ff6104fe366004612519565b610cd5565b34801561050f57600080fd5b5061025861051e366004612620565b610d3a565b34801561052f57600080fd5b506102bb610dd4565b6102bb610546366004612481565b610f55565b34801561055757600080fd5b506102bb610566366004612588565b610be2565b34801561057757600080fd5b506102d2611055565b34801561058c57600080fd5b5061025861059b366004612519565b611064565b3480156105ac57600080fd5b506102586105bb366004612519565b61107a565b3480156105cc57600080fd5b506102bb6105db36600461263b565b611118565b3480156105ec57600080fd5b506102bb6105fb36600461268d565b611127565b34801561060c57600080fd5b506102d261061b366004612519565b6111a0565b34801561062c57600080fd5b5061025861063b366004612769565b600082815261012e602090815260408083206001600160a01b038516845260010190915290205492915050565b34801561067457600080fd5b506102d2611272565b34801561068957600080fd5b5061028b610698366004612795565b6001600160a01b039182166000908152606a6020908152604080832093909416825291909152205460ff1690565b3480156106d257600080fd5b5061013054610258565b6000828152610131602052604081208054839081106106fd576106fd6127bf565b906000526020600020015490505b92915050565b60006001600160e01b031982166370b0048160e11b148061074257506001600160e01b03198216631dba0dcf60e11b145b8061075d57506001600160e01b03198216630354d60560e61b145b8061070b575061070b826112b2565b6107778383836112d7565b505050565b60606065805461078b906127d5565b80601f01602080910402602001604051908101604052809291908181526020018280546107b7906127d5565b80156108045780601f106107d957610100808354040283529160200191610804565b820191906000526020600020905b8154815290600101906020018083116107e757829003601f168201915b5050505050905090565b600061081982611362565b506000908152606960205260409020546001600160a01b031690565b600061084082610cd5565b9050806001600160a01b0316836001600160a01b0316036108b25760405162461bcd60e51b815260206004820152602160248201527f4552433732313a20617070726f76616c20746f2063757272656e74206f776e656044820152603960f91b60648201526084015b60405180910390fd5b336001600160a01b03821614806108ce57506108ce8133610698565b6109405760405162461bcd60e51b815260206004820152603e60248201527f4552433732313a20617070726f76652063616c6c6572206973206e6f7420746f60448201527f6b656e206f776e6572206e6f7220617070726f76656420666f7220616c6c000060648201526084016108a9565b61077783836113c6565b60606040516020016109cb907f646174613a6170706c69636174696f6e2f6a736f6e3b7b6e616d653a536c6f7481527f205479706520412c6465736372697074696f6e3a536c6f74205479706520412060208201527f6465736372697074696f6e7d00000000000000000000000000000000000000006040820152604c0190565b6040516020818303038152906040529050919050565b60006109ee338584611434565b60006109f9856114dd565b9050610a1a848261012f6000898152602001908152602001600020546114f3565b610a258582856115b1565b949350505050565b610a373382611872565b610a9a5760405162461bcd60e51b815260206004820152602e60248201527f4552433732313a2063616c6c6572206973206e6f7420746f6b656e206f776e6560448201526d1c881b9bdc88185c1c1c9bdd995960921b60648201526084016108a9565b6107778383836118f0565b6000818152606760205260408120546001600160a01b0316610b1b5760405162461bcd60e51b815260206004820152602960248201527f455243333532353a20736c6f7420717565727920666f72206e6f6e657869737460448201526832b73a103a37b5b2b760b91b60648201526084016108a9565b50600090815261012f602052604090205490565b6000610b3a83610d3a565b8210610bae5760405162461bcd60e51b815260206004820152602b60248201527f455243373231456e756d657261626c653a206f776e657220696e646578206f7560448201527f74206f6620626f756e647300000000000000000000000000000000000000000060648201526084016108a9565b506001600160a01b03919091166000908152609760209081526040808320938352929052205490565b610be2338483611434565b6107778383836115b1565b610bf984848484611aaf565b50505050565b61077783838360405180602001604052806000815250611127565b610c2381611c1f565b50565b610777838383610c26565b6000610c3c60995490565b8210610cb05760405162461bcd60e51b815260206004820152602c60248201527f455243373231456e756d657261626c653a20676c6f62616c20696e646578206f60448201527f7574206f6620626f756e6473000000000000000000000000000000000000000060648201526084016108a9565b60998281548110610cc357610cc36127bf565b90600052602060002001549050919050565b6000818152606760205260408120546001600160a01b03168061070b5760405162461bcd60e51b815260206004820152601860248201527f4552433732313a20696e76616c696420746f6b656e204944000000000000000060448201526064016108a9565b60006001600160a01b038216610db85760405162461bcd60e51b815260206004820152602960248201527f4552433732313a2061646472657373207a65726f206973206e6f74206120766160448201527f6c6964206f776e6572000000000000000000000000000000000000000000000060648201526084016108a9565b506001600160a01b031660009081526068602052604090205490565b600054610100900460ff1615808015610df45750600054600160ff909116105b80610e0e5750303b158015610e0e575060005460ff166001145b610e805760405162461bcd60e51b815260206004820152602e60248201527f496e697469616c697a61626c653a20636f6e747261637420697320616c72656160448201527f647920696e697469616c697a656400000000000000000000000000000000000060648201526084016108a9565b6000805460ff191660011790558015610ea3576000805461ff0019166101001790555b610efd6040518060400160405280600781526020017f4d79546f6b656e00000000000000000000000000000000000000000000000000815250604051806040016040528060038152602001624d544b60e81b815250611cdb565b610f05611d50565b610f0d611d50565b8015610c23576000805461ff0019169055604051600181527f7f26b83ff96e1f2b6a682f133852f6798a09c465da95921460cefb38474024989060200160405180910390a150565b6000610f6084610cd5565b9050806001600160a01b0316836001600160a01b031603610fce5760405162461bcd60e51b815260206004820152602260248201527f455243333532353a20617070726f76616c20746f2063757272656e74206f776e60448201526132b960f11b60648201526084016108a9565b610fd83385611872565b61104a5760405162461bcd60e51b815260206004820152603960248201527f455243333532353a20617070726f76652063616c6c6572206973206e6f74206f60448201527f776e6572206e6f7220617070726f76656420666f7220616c6c0000000000000060648201526084016108a9565b610bf98484846112d7565b60606066805461078b906127d5565b60006101308281548110610cc357610cc36127bf565b6000818152606760205260408120546001600160a01b03166111045760405162461bcd60e51b815260206004820152602c60248201527f455243333532353a2062616c616e636520717565727920666f72206e6f6e657860448201527f697374656e7420746f6b656e000000000000000000000000000000000000000060648201526084016108a9565b50600090815261012d602052604090205490565b611123338383611dbd565b5050565b6111313383611872565b6111945760405162461bcd60e51b815260206004820152602e60248201527f4552433732313a2063616c6c6572206973206e6f7420746f6b656e206f776e6560448201526d1c881b9bdc88185c1c1c9bdd995960921b60648201526084016108a9565b610bf984848484611e8b565b60606111ab8261107a565b6111b483610aa5565b6040516020016109cb9291907f646174613a6170706c69636174696f6e2f6a736f6e3b7b6e616d653a4173736581527f74205479706520412c6465736372697074696f6e3a417373657420547970652060208201527f41206465736372697074696f6e2c62616c616e63650000000000000000000000604082015260558101929092527f2c736c6f743a00000000000000000000000000000000000000000000000000006075830152607b820152607d60f81b609b820152609c0190565b606061127c61077c565b61013361128c6101345460ff1690565b60405160200161129e9392919061280f565b604051602081830303815290604052905090565b60006001600160e01b0319821663780e9d6360e01b148061070b575061070b82611f14565b600083815261012e6020908152604080832080546001808201835582865284862090910180546001600160a01b0319166001600160a01b038916908117909155808652908201845293829020859055905184815290929186917f621b050de0ad08b51d19b48b3e6df75348c4de6bdd93e81b252ca62e28265b1b91015b60405180910390a350505050565b6000818152606760205260409020546001600160a01b0316610c235760405162461bcd60e51b815260206004820152601860248201527f4552433732313a20696e76616c696420746f6b656e204944000000000000000060448201526064016108a9565b600081815260696020526040902080546001600160a01b0319166001600160a01b03841690811790915581906113fb82610cd5565b6001600160a01b03167f8c5be1e5ebec7d5bd14f71427d1e84f3dd0314c0f7b2291e5b200ac8c7c3b92560405160405180910390a45050565b600082815261012e602090815260408083206001600160a01b03871684526001019091529020546114658484611872565b15801561147457506000198114155b15610bf957818110156114c95760405162461bcd60e51b815260206004820152601f60248201527f455243333532353a20696e73756666696369656e7420616c6c6f77616e63650060448201526064016108a9565b610bf983856114d88585612974565b6112d7565b60006114e860995490565b61070b906001612987565b6114fd8383611f64565b600082815261012f60209081526040808320849055838352610131909152812054900361155b5761013080546001810182556000919091527f2f605e086faac1d93117bbfbc18835d434e9405fadc1ca66faf4b864746daf34018190555b60008181526101316020908152604080832080546001810182559084529183209091018490555182919084907fe4f48c240d3b994948aa54f3e2f5fca59263dfe1d52b6e4cf39a5d249b5ccb65908390a4505050565b6000838152606760205260409020546001600160a01b03166116275760405162461bcd60e51b815260206004820152602960248201527f45524333353235353a207472616e736665722066726f6d206e6f6e657869737460448201526832b73a103a37b5b2b760b91b60648201526084016108a9565b6000828152606760205260409020546001600160a01b03166116b15760405162461bcd60e51b815260206004820152602760248201527f45524333353235353a207472616e7366657220746f206e6f6e6578697374656e60448201527f7420746f6b656e0000000000000000000000000000000000000000000000000060648201526084016108a9565b600083815261012d60205260409020548111156117365760405162461bcd60e51b815260206004820152602860248201527f455243333532353a207472616e7366657220616d6f756e74206578636565647360448201527f2062616c616e636500000000000000000000000000000000000000000000000060648201526084016108a9565b600082815261012f602052604080822054858352912054146117c05760405162461bcd60e51b815260206004820152602e60248201527f455243333533353a207472616e7366657220746f20746f6b656e20776974682060448201527f646966666572656e7420736c6f7400000000000000000000000000000000000060648201526084016108a9565b60006117cb84610cd5565b905060006117d884610cd5565b600086815261012d60205260408120805492935085929091906117fc908490612974565b9091555050600084815261012d602052604081208054859290611820908490612987565b9091555050600085905261012f60205283857f0b2aac84f3ec956911fd78eae5311062972ff949f38412e8da39069d9f068cc68560405161186391815260200190565b60405180910390a35050505050565b60008061187e83610cd5565b9050806001600160a01b0316846001600160a01b031614806118c557506001600160a01b038082166000908152606a602090815260408083209388168352929052205460ff165b80610a255750836001600160a01b03166118de8461080e565b6001600160a01b031614949350505050565b826001600160a01b031661190382610cd5565b6001600160a01b03161461197f5760405162461bcd60e51b815260206004820152602560248201527f4552433732313a207472616e736665722066726f6d20696e636f72726563742060448201527f6f776e657200000000000000000000000000000000000000000000000000000060648201526084016108a9565b6001600160a01b0382166119e15760405162461bcd60e51b8152602060048201526024808201527f4552433732313a207472616e7366657220746f20746865207a65726f206164646044820152637265737360e01b60648201526084016108a9565b6119ec8383836120ba565b6119f76000826113c6565b6001600160a01b0383166000908152606860205260408120805460019290611a20908490612974565b90915550506001600160a01b0382166000908152606860205260408120805460019290611a4e908490612987565b909155505060008181526067602052604080822080546001600160a01b0319166001600160a01b0386811691821790925591518493918716917fddf252ad1be2c89b69c2b068fc378daa952ba7f163c4a11628f55a4df523b3ef91a4505050565b6001600160a01b038416611b0f5760405162461bcd60e51b815260206004820152602160248201527f455243333532353a206d696e7420746f20746865207a65726f206164647265736044820152607360f81b60648201526084016108a9565b82600003611b695760405162461bcd60e51b815260206004820152602160248201527f455243333532353a2063616e6e6f74206d696e74207a65726f20746f6b656e496044820152601960fa1b60648201526084016108a9565b6000838152606760205260409020546001600160a01b031615611bce5760405162461bcd60e51b815260206004820152601d60248201527f455243333532353a20746f6b656e20616c7265616479206d696e74656400000060448201526064016108a9565b611bd98484846114f3565b600083815261012d602052604090208190558260007f0b2aac84f3ec956911fd78eae5311062972ff949f38412e8da39069d9f068cc68360405161135491815260200190565b6000611c2a82610cd5565b600083815261012f602090815260408083205461012d9092529091205491925090611c5484612155565b600084815261012f6020908152604080832083905561012d82528083208390555183815286917f0b2aac84f3ec956911fd78eae5311062972ff949f38412e8da39069d9f068cc6910160405180910390a3600082857fe4f48c240d3b994948aa54f3e2f5fca59263dfe1d52b6e4cf39a5d249b5ccb6560405160405180910390a450505050565b600054610100900460ff16611d465760405162461bcd60e51b815260206004820152602b60248201527f496e697469616c697a61626c653a20636f6e7472616374206973206e6f74206960448201526a6e697469616c697a696e6760a81b60648201526084016108a9565b61112382826121fc565b600054610100900460ff16611dbb5760405162461bcd60e51b815260206004820152602b60248201527f496e697469616c697a61626c653a20636f6e7472616374206973206e6f74206960448201526a6e697469616c697a696e6760a81b60648201526084016108a9565b565b816001600160a01b0316836001600160a01b031603611e1e5760405162461bcd60e51b815260206004820152601960248201527f4552433732313a20617070726f766520746f2063616c6c65720000000000000060448201526064016108a9565b6001600160a01b038381166000818152606a6020908152604080832094871680845294825291829020805460ff191686151590811790915591519182527f17307eab39ab6107e8899845ad3d59bd9653f200f220920489ca2b5937696c31910160405180910390a3505050565b611e968484846118f0565b611ea284848484612280565b610bf95760405162461bcd60e51b815260206004820152603260248201527f4552433732313a207472616e7366657220746f206e6f6e20455243373231526560448201527f63656976657220696d706c656d656e746572000000000000000000000000000060648201526084016108a9565b60006001600160e01b031982166380ac58cd60e01b1480611f4557506001600160e01b03198216635b5e139f60e01b145b8061070b57506301ffc9a760e01b6001600160e01b031983161461070b565b6001600160a01b038216611fba5760405162461bcd60e51b815260206004820181905260248201527f4552433732313a206d696e7420746f20746865207a65726f206164647265737360448201526064016108a9565b6000818152606760205260409020546001600160a01b03161561201f5760405162461bcd60e51b815260206004820152601c60248201527f4552433732313a20746f6b656e20616c7265616479206d696e7465640000000060448201526064016108a9565b61202b600083836120ba565b6001600160a01b0382166000908152606860205260408120805460019290612054908490612987565b909155505060008181526067602052604080822080546001600160a01b0319166001600160a01b03861690811790915590518392907fddf252ad1be2c89b69c2b068fc378daa952ba7f163c4a11628f55a4df523b3ef908290a45050565b505050505050565b600081815261012e6020526040812054905b8181101561213c57600083815261012e602052604081208054839081106120f5576120f56127bf565b600091825260208083209091015486835261012e825260408084206001600160a01b03909216845260019190910190915281205550806121348161299a565b9150506120cc565b50600082815261012e60205260408120610bf9916123d7565b600061216082610cd5565b905061216e816000846120ba565b6121796000836113c6565b6001600160a01b03811660009081526068602052604081208054600192906121a2908490612974565b909155505060008281526067602052604080822080546001600160a01b0319169055518391906001600160a01b038416907fddf252ad1be2c89b69c2b068fc378daa952ba7f163c4a11628f55a4df523b3ef908390a45050565b600054610100900460ff166122675760405162461bcd60e51b815260206004820152602b60248201527f496e697469616c697a61626c653a20636f6e7472616374206973206e6f74206960448201526a6e697469616c697a696e6760a81b60648201526084016108a9565b606561227383826129f9565b50606661077782826129f9565b60006001600160a01b0384163b156123cc57604051630a85bd0160e11b81526001600160a01b0385169063150b7a02906122c4903390899088908890600401612ab9565b6020604051808303816000875af19250505080156122ff575060408051601f3d908101601f191682019092526122fc91810190612af5565b60015b6123b2573d80801561232d576040519150601f19603f3d011682016040523d82523d6000602084013e612332565b606091505b5080516000036123aa5760405162461bcd60e51b815260206004820152603260248201527f4552433732313a207472616e7366657220746f206e6f6e20455243373231526560448201527f63656976657220696d706c656d656e746572000000000000000000000000000060648201526084016108a9565b805181602001fd5b6001600160e01b031916630a85bd0160e11b149050610a25565b506001949350505050565b5080546000825590600052602060002090810190610c2391905b8082111561240557600081556001016123f1565b5090565b6000806040838503121561241c57600080fd5b50508035926020909101359150565b6001600160e01b031981168114610c2357600080fd5b60006020828403121561245357600080fd5b813561245e8161242b565b9392505050565b80356001600160a01b038116811461247c57600080fd5b919050565b60008060006060848603121561249657600080fd5b833592506124a660208501612465565b9150604084013590509250925092565b60005b838110156124d15781810151838201526020016124b9565b50506000910152565b600081518084526124f28160208601602086016124b6565b601f01601f19169290920160200192915050565b60208152600061245e60208301846124da565b60006020828403121561252b57600080fd5b5035919050565b6000806040838503121561254557600080fd5b61254e83612465565b946020939093013593505050565b60008060006060848603121561257157600080fd5b61257a84612465565b92506124a660208501612465565b60008060006060848603121561259d57600080fd5b505081359360208301359350604090920135919050565b600080600080608085870312156125ca57600080fd5b6125d385612465565b966020860135965060408601359560600135945092505050565b60008060006060848603121561260257600080fd5b61260b84612465565b95602085013595506040909401359392505050565b60006020828403121561263257600080fd5b61245e82612465565b6000806040838503121561264e57600080fd5b61265783612465565b91506020830135801515811461266c57600080fd5b809150509250929050565b634e487b7160e01b600052604160045260246000fd5b600080600080608085870312156126a357600080fd5b6126ac85612465565b93506126ba60208601612465565b925060408501359150606085013567ffffffffffffffff808211156126de57600080fd5b818701915087601f8301126126f257600080fd5b81358181111561270457612704612677565b604051601f8201601f19908116603f0116810190838211818310171561272c5761272c612677565b816040528281528a602084870101111561274557600080fd5b82602086016020830137600060208483010152809550505050505092959194509250565b6000806040838503121561277c57600080fd5b8235915061278c60208401612465565b90509250929050565b600080604083850312156127a857600080fd5b6127b183612465565b915061278c60208401612465565b634e487b7160e01b600052603260045260246000fd5b600181811c908216806127e957607f821691505b60208210810361280957634e487b7160e01b600052602260045260246000fd5b50919050565b7f646174613a6170706c69636174696f6e2f6a736f6e3b7b6e616d653a00000000815260008451602061284882601c8601838a016124b6565b81840191507f2c6465736372697074696f6e3a00000000000000000000000000000000000000601c830152602960008754612882816127d5565b6001828116801561289a57600181146128b3576128e3565b60ff1984168887015282151583028801860194506128e3565b8b6000528660002060005b848110156128d95781548a82018901529083019088016128be565b5050858389010194505b507f2c76616c7565446563696d616c733a00000000000000000000000000000000008452600f8401965061293b878b60f81b7fff00000000000000000000000000000000000000000000000000000000000000169052565b61294e818801607d60f81b815260010190565b9c9b505050505050505050505050565b634e487b7160e01b600052601160045260246000fd5b8181038181111561070b5761070b61295e565b8082018082111561070b5761070b61295e565b6000600182016129ac576129ac61295e565b5060010190565b601f82111561077757600081815260208120601f850160051c810160208610156129da5750805b601f850160051c820191505b818110156120b2578281556001016129e6565b815167ffffffffffffffff811115612a1357612a13612677565b612a2781612a2184546127d5565b846129b3565b602080601f831160018114612a5c5760008415612a445750858301515b600019600386901b1c1916600185901b1785556120b2565b600085815260208120601f198616915b82811015612a8b57888601518255948401946001909101908401612a6c565b5085821015612aa95787850151600019600388901b60f8161c191681555b5050505050600190811b01905550565b60006001600160a01b03808716835280861660208401525083604083015260806060830152612aeb60808301846124da565b9695505050505050565b600060208284031215612b0757600080fd5b815161245e8161242b56fea164736f6c6343000810000a",
  "linkReferences": {},
  "deployedLinkReferences": {}
}