{
  "_format": "hh-sol-artifact-1",
  "contractName": "ERC3525_Testing",
  "sourceName": "contracts/mocks/ERC3525_Testing.sol",
  "abi": [
    {
      "anonymous": false,
      "inputs": [
        {
          "indexed": true,
          "internalType": "address",
          "name": "owner",
          "type": "address"
        },
        {
          "indexed": true,
          "internalType": "address",
          "name": "approved",
          "type": "address"
        },
        {
          "indexed": true,
          "internalType": "uint256",
          "name": "tokenId",
          "type": "uint256"
        }
      ],
      "name": "Approval",
      "type": "event"
    },
    {
      "anonymous": false,
      "inputs": [
        {
          "indexed": true,
          "internalType": "address",
          "name": "owner",
          "type": "address"
        },
        {
          "indexed": true,
          "internalType": "address",
          "name": "operator",
          "type": "address"
        },
        {
          "indexed": false,
          "internalType": "bool",
          "name": "approved",
          "type": "bool"
        }
      ],
      "name": "ApprovalForAll",
      "type": "event"
    },
    {
      "anonymous": false,
      "inputs": [
        {
          "indexed": true,
          "internalType": "uint256",
          "name": "_tokenId",
          "type": "uint256"
        },
        {
          "indexed": true,
          "internalType": "address",
          "name": "_operator",
          "type": "address"
        },
        {
          "indexed": false,
          "internalType": "uint256",
          "name": "_value",
          "type": "uint256"
        }
      ],
      "name": "ApprovalValue",
      "type": "event"
    },
    {
      "anonymous": false,
      "inputs": [
        {
          "indexed": false,
          "internalType": "uint8",
          "name": "version",
          "type": "uint8"
        }
      ],
      "name": "Initialized",
      "type": "event"
    },
    {
      "anonymous": false,
      "inputs": [
        {
          "indexed": true,
          "internalType": "uint256",
          "name": "_tokenId",
          "type": "uint256"
        },
        {
          "indexed": true,
          "internalType": "uint256",
          "name": "_oldSlot",
          "type": "uint256"
        },
        {
          "indexed": true,
          "internalType": "uint256",
          "name": "_newSlot",
          "type": "uint256"
        }
      ],
      "name": "SlotChanged",
      "type": "event"
    },
    {
      "anonymous": false,
      "inputs": [
        {
          "indexed": true,
          "internalType": "address",
          "name": "from",
          "type": "address"
        },
        {
          "indexed": true,
          "internalType": "address",
          "name": "to",
          "type": "address"
        },
        {
          "indexed": true,
          "internalType": "uint256",
          "name": "tokenId",
          "type": "uint256"
        }
      ],
      "name": "Transfer",
      "type": "event"
    },
    {
      "anonymous": false,
      "inputs": [
        {
          "indexed": true,
          "internalType": "uint256",
          "name": "_fromTokenId",
          "type": "uint256"
        },
        {
          "indexed": true,
          "internalType": "uint256",
          "name": "_toTokenId",
          "type": "uint256"
        },
        {
          "indexed": false,
          "internalType": "uint256",
          "name": "_value",
          "type": "uint256"
        }
      ],
      "name": "TransferValue",
      "type": "event"
    },
    {
      "inputs": [
        {
          "internalType": "uint256",
          "name": "tokenId_",
          "type": "uint256"
        },
        {
          "internalType": "address",
          "name": "operator_",
          "type": "address"
        }
      ],
      "name": "allowance",
      "outputs": [
        {
          "internalType": "uint256",
          "name": "",
          "type": "uint256"
        }
      ],
      "stateMutability": "view",
      "type": "function"
    },
    {
      "inputs": [
        {
          "internalType": "address",
          "name": "to",
          "type": "address"
        },
        {
          "internalType": "uint256",
          "name": "tokenId",
          "type": "uint256"
        }
      ],
      "name": "approve",
      "outputs": [],
      "stateMutability": "nonpayable",
      "type": "function"
    },
    {
      "inputs": [
        {
          "internalType": "uint256",
          "name": "tokenId_",
          "type": "uint256"
        },
        {
          "internalType": "address",
          "name": "to_",
          "type": "address"
        },
        {
          "internalType": "uint256",
          "name": "value_",
          "type": "uint256"
        }
      ],
      "name": "approve",
      "outputs": [],
      "stateMutability": "payable",
      "type": "function"
    },
    {
      "inputs": [
        {
          "internalType": "uint256",
          "name": "tokenId_",
          "type": "uint256"
        },
        {
          "internalType": "address",
          "name": "to_",
          "type": "address"
        },
        {
          "internalType": "uint256",
          "name": "value_",
          "type": "uint256"
        }
      ],
      "name": "approveValue",
      "outputs": [],
      "stateMutability": "nonpayable",
      "type": "function"
    },
    {
      "inputs": [
        {
          "internalType": "address",
          "name": "owner",
          "type": "address"
        }
      ],
      "name": "balanceOf",
      "outputs": [
        {
          "internalType": "uint256",
          "name": "",
          "type": "uint256"
        }
      ],
      "stateMutability": "view",
      "type": "function"
    },
    {
      "inputs": [
        {
          "internalType": "uint256",
          "name": "tokenId_",
          "type": "uint256"
        }
      ],
      "name": "balanceOf",
      "outputs": [
        {
          "internalType": "uint256",
          "name": "",
          "type": "uint256"
        }
      ],
      "stateMutability": "view",
      "type": "function"
    },
    {
      "inputs": [
        {
          "internalType": "uint256",
          "name": "tokenId_",
          "type": "uint256"
        }
      ],
      "name": "burn",
      "outputs": [],
      "stateMutability": "nonpayable",
      "type": "function"
    },
    {
      "inputs": [],
      "name": "contractURI",
      "outputs": [
        {
          "internalType": "string",
          "name": "",
          "type": "string"
        }
      ],
      "stateMutability": "view",
      "type": "function"
    },
    {
      "inputs": [
        {
          "internalType": "uint256",
          "name": "tokenId",
          "type": "uint256"
        }
      ],
      "name": "getApproved",
      "outputs": [
        {
          "internalType": "address",
          "name": "",
          "type": "address"
        }
      ],
      "stateMutability": "view",
      "type": "function"
    },
    {
      "inputs": [],
      "name": "initialize",
      "outputs": [],
      "stateMutability": "nonpayable",
      "type": "function"
    },
    {
      "inputs": [
        {
          "internalType": "address",
          "name": "owner",
          "type": "address"
        },
        {
          "internalType": "address",
          "name": "operator",
          "type": "address"
        }
      ],
      "name": "isApprovedForAll",
      "outputs": [
        {
          "internalType": "bool",
          "name": "",
          "type": "bool"
        }
      ],
      "stateMutability": "view",
      "type": "function"
    },
    {
      "inputs": [
        {
          "internalType": "address",
          "name": "to_",
          "type": "address"
        },
        {
          "internalType": "uint256",
          "name": "tokenId_",
          "type": "uint256"
        },
        {
          "internalType": "uint256",
          "name": "slot_",
          "type": "uint256"
        },
        {
          "internalType": "uint256",
          "name": "value_",
          "type": "uint256"
        }
      ],
      "name": "mintValue",
      "outputs": [],
      "stateMutability": "nonpayable",
      "type": "function"
    },
    {
      "inputs": [],
      "name": "name",
      "outputs": [
        {
          "internalType": "string",
          "name": "",
          "type": "string"
        }
      ],
      "stateMutability": "view",
      "type": "function"
    },
    {
      "inputs": [
        {
          "internalType": "uint256",
          "name": "tokenId",
          "type": "uint256"
        }
      ],
      "name": "ownerOf",
      "outputs": [
        {
          "internalType": "address",
          "name": "",
          "type": "address"
        }
      ],
      "stateMutability": "view",
      "type": "function"
    },
    {
      "inputs": [
        {
          "internalType": "address",
          "name": "from",
          "type": "address"
        },
        {
          "internalType": "address",
          "name": "to",
          "type": "address"
        },
        {
          "internalType": "uint256",
          "name": "tokenId",
          "type": "uint256"
        }
      ],
      "name": "safeTransferFrom",
      "outputs": [],
      "stateMutability": "nonpayable",
      "type": "function"
    },
    {
      "inputs": [
        {
          "internalType": "address",
          "name": "from",
          "type": "address"
        },
        {
          "internalType": "address",
          "name": "to",
          "type": "address"
        },
        {
          "internalType": "uint256",
          "name": "tokenId",
          "type": "uint256"
        },
        {
          "internalType": "bytes",
          "name": "data",
          "type": "bytes"
        }
      ],
      "name": "safeTransferFrom",
      "outputs": [],
      "stateMutability": "nonpayable",
      "type": "function"
    },
    {
      "inputs": [
        {
          "internalType": "address",
          "name": "operator",
          "type": "address"
        },
        {
          "internalType": "bool",
          "name": "approved",
          "type": "bool"
        }
      ],
      "name": "setApprovalForAll",
      "outputs": [],
      "stateMutability": "nonpayable",
      "type": "function"
    },
    {
      "inputs": [
        {
          "internalType": "uint256",
          "name": "_index",
          "type": "uint256"
        }
      ],
      "name": "slotByIndex",
      "outputs": [
        {
          "internalType": "uint256",
          "name": "",
          "type": "uint256"
        }
      ],
      "stateMutability": "view",
      "type": "function"
    },
    {
      "inputs": [],
      "name": "slotCount",
      "outputs": [
        {
          "internalType": "uint256",
          "name": "",
          "type": "uint256"
        }
      ],
      "stateMutability": "view",
      "type": "function"
    },
    {
      "inputs": [
        {
          "internalType": "uint256",
          "name": "tokenId_",
          "type": "uint256"
        }
      ],
      "name": "slotOf",
      "outputs": [
        {
          "internalType": "uint256",
          "name": "",
          "type": "uint256"
        }
      ],
      "stateMutability": "view",
      "type": "function"
    },
    {
      "inputs": [
        {
          "internalType": "uint256",
          "name": "",
          "type": "uint256"
        }
      ],
      "name": "slotURI",
      "outputs": [
        {
          "internalType": "string",
          "name": "",
          "type": "string"
        }
      ],
      "stateMutability": "pure",
      "type": "function"
    },
    {
      "inputs": [
        {
          "internalType": "address",
          "name": "operator_",
          "type": "address"
        },
        {
          "internalType": "uint256",
          "name": "tokenId_",
          "type": "uint256"
        },
        {
          "internalType": "uint256",
          "name": "value_",
          "type": "uint256"
        }
      ],
      "name": "spendAllowance",
      "outputs": [],
      "stateMutability": "nonpayable",
      "type": "function"
    },
    {
      "inputs": [
        {
          "internalType": "bytes4",
          "name": "interfaceId",
          "type": "bytes4"
        }
      ],
      "name": "supportsInterface",
      "outputs": [
        {
          "internalType": "bool",
          "name": "",
          "type": "bool"
        }
      ],
      "stateMutability": "view",
      "type": "function"
    },
    {
      "inputs": [],
      "name": "symbol",
      "outputs": [
        {
          "internalType": "string",
          "name": "",
          "type": "string"
        }
      ],
      "stateMutability": "view",
      "type": "function"
    },
    {
      "inputs": [
        {
          "internalType": "uint256",
          "name": "index",
          "type": "uint256"
        }
      ],
      "name": "tokenByIndex",
      "outputs": [
        {
          "internalType": "uint256",
          "name": "",
          "type": "uint256"
        }
      ],
      "stateMutability": "view",
      "type": "function"
    },
    {
      "inputs": [
        {
          "internalType": "uint256",
          "name": "_slot",
          "type": "uint256"
        },
        {
          "internalType": "uint256",
          "name": "_index",
          "type": "uint256"
        }
      ],
      "name": "tokenInSlotByIndex",
      "outputs": [
        {
          "internalType": "uint256",
          "name": "",
          "type": "uint256"
        }
      ],
      "stateMutability": "view",
      "type": "function"
    },
    {
      "inputs": [
        {
          "internalType": "address",
          "name": "owner",
          "type": "address"
        },
        {
          "internalType": "uint256",
          "name": "index",
          "type": "uint256"
        }
      ],
      "name": "tokenOfOwnerByIndex",
      "outputs": [
        {
          "internalType": "uint256",
          "name": "",
          "type": "uint256"
        }
      ],
      "stateMutability": "view",
      "type": "function"
    },
    {
      "inputs": [
        {
          "internalType": "uint256",
          "name": "_slot",
          "type": "uint256"
        }
      ],
      "name": "tokenSupplyInSlot",
      "outputs": [
        {
          "internalType": "uint256",
          "name": "",
          "type": "uint256"
        }
      ],
      "stateMutability": "view",
      "type": "function"
    },
    {
      "inputs": [
        {
          "internalType": "uint256",
          "name": "tokenID_",
          "type": "uint256"
        }
      ],
      "name": "tokenURI",
      "outputs": [
        {
          "internalType": "string",
          "name": "",
          "type": "string"
        }
      ],
      "stateMutability": "view",
      "type": "function"
    },
    {
      "inputs": [],
      "name": "totalSupply",
      "outputs": [
        {
          "internalType": "uint256",
          "name": "",
          "type": "uint256"
        }
      ],
      "stateMutability": "view",
      "type": "function"
    },
    {
      "inputs": [
        {
          "internalType": "uint256",
          "name": "fromTokenId_",
          "type": "uint256"
        },
        {
          "internalType": "uint256",
          "name": "toTokenId_",
          "type": "uint256"
        },
        {
          "internalType": "uint256",
          "name": "value_",
          "type": "uint256"
        }
      ],
      "name": "transfer",
      "outputs": [],
      "stateMutability": "nonpayable",
      "type": "function"
    },
    {
      "inputs": [
        {
          "internalType": "uint256",
          "name": "fromTokenId_",
          "type": "uint256"
        },
        {
          "internalType": "address",
          "name": "to_",
          "type": "address"
        },
        {
          "internalType": "uint256",
          "name": "value_",
          "type": "uint256"
        }
      ],
      "name": "transferFrom",
      "outputs": [
        {
          "internalType": "uint256",
          "name": "",
          "type": "uint256"
        }
      ],
      "stateMutability": "payable",
      "type": "function"
    },
    {
      "inputs": [
        {
          "internalType": "address",
          "name": "from",
          "type": "address"
        },
        {
          "internalType": "address",
          "name": "to",
          "type": "address"
        },
        {
          "internalType": "uint256",
          "name": "tokenId",
          "type": "uint256"
        }
      ],
      "name": "transferFrom",
      "outputs": [],
      "stateMutability": "nonpayable",
      "type": "function"
    },
    {
      "inputs": [
        {
          "internalType": "uint256",
          "name": "fromTokenId_",
          "type": "uint256"
        },
        {
          "internalType": "uint256",
          "name": "toTokenId_",
          "type": "uint256"
        },
        {
          "internalType": "uint256",
          "name": "value_",
          "type": "uint256"
        }
      ],
      "name": "transferFrom",
      "outputs": [],
      "stateMutability": "payable",
      "type": "function"
    },
    {
      "inputs": [],
      "name": "valueDecimals",
      "outputs": [
        {
          "internalType": "uint8",
          "name": "",
          "type": "uint8"
        }
      ],
      "stateMutability": "view",
      "type": "function"
    }
  ],
  "bytecode": "0x608060405234801561001057600080fd5b50612a24806100206000396000f3fe6080604052600436106102335760003560e01c8063449d077211610138578063993bef8d116100b0578063c87b56dd1161007f578063e8a3d48511610064578063e8a3d48514610667578063e985e9c51461067c578063ed08fa80146106c557600080fd5b8063c87b56dd14610600578063e345e0bc1461062057600080fd5b8063993bef8d146105805780639cc7f708146105a0578063a22cb465146105c0578063b88d4fde146105e057600080fd5b806370a08231116101075780638cb0a511116100ec5780638cb0a5111461053857806390dd26271461054b57806395d89b411461056b57600080fd5b806370a08231146105035780638129fc1c1461052357600080fd5b8063449d0772146104755780634f6ccce7146104955780634f8a0f83146104b55780636352211e146104e357600080fd5b806318160ddd116101cb578063310ed7f01161019a5780633e7e86691161017f5780633e7e86691461041257806342842e0e1461043557806342966c681461045557600080fd5b8063310ed7f0146103df57806333d7aa3c146103f257600080fd5b806318160ddd1461036a57806323b872dd1461037f578063263f3e7e1461039f5780632f745c59146103bf57600080fd5b8063081812fc11610207578063081812fc146102df578063095ea7b31461031757806309c3dd87146103375780630f485c021461035757600080fd5b8062cd01101461023857806301ffc9a71461026b5780630468f0de1461029b57806306fdde03146102bd575b600080fd5b34801561024457600080fd5b5061025861025336600461246b565b6106da565b6040519081526020015b60405180910390f35b34801561027757600080fd5b5061028b6102863660046124a3565b61070f565b6040519015158152602001610262565b3480156102a757600080fd5b506102bb6102b63660046124e3565b61076a565b005b3480156102c957600080fd5b506102d261077a565b6040516102629190612568565b3480156102eb57600080fd5b506102ff6102fa36600461257b565b61080c565b6040516001600160a01b039091168152602001610262565b34801561032357600080fd5b506102bb610332366004612594565b610833565b34801561034357600080fd5b506102d261035236600461257b565b610948565b6102586103653660046124e3565b6109df565b34801561037657600080fd5b50609954610258565b34801561038b57600080fd5b506102bb61039a3660046125be565b610a2a565b3480156103ab57600080fd5b506102586103ba36600461257b565b610aa2565b3480156103cb57600080fd5b506102586103da366004612594565b610b2b565b6102bb6103ed3660046125ea565b610bd3565b3480156103fe57600080fd5b506102bb61040d366004612616565b610be9565b34801561041e57600080fd5b506101015460405160ff9091168152602001610262565b34801561044157600080fd5b506102bb6104503660046125be565b610bfb565b34801561046157600080fd5b506102bb61047036600461257b565b610c16565b34801561048157600080fd5b506102bb61049036600461264f565b610c22565b3480156104a157600080fd5b506102586104b036600461257b565b610c2d565b3480156104c157600080fd5b506102586104d036600461257b565b6000908152610100602052604090205490565b3480156104ef57600080fd5b506102ff6104fe36600461257b565b610cd1565b34801561050f57600080fd5b5061025861051e366004612682565b610d36565b34801561052f57600080fd5b506102bb610dd0565b6102bb6105463660046124e3565b610ee7565b34801561055757600080fd5b506102bb6105663660046125ea565b610bde565b34801561057757600080fd5b506102d2610fe7565b34801561058c57600080fd5b5061025861059b36600461257b565b610ff6565b3480156105ac57600080fd5b506102586105bb36600461257b565b61100b565b3480156105cc57600080fd5b506102bb6105db36600461269d565b6110a8565b3480156105ec57600080fd5b506102bb6105fb3660046126ef565b6110b7565b34801561060c57600080fd5b506102d261061b36600461257b565b611130565b34801561062c57600080fd5b5061025861063b3660046127cb565b600082815260fc602090815260408083206001600160a01b038516845260010190915290205492915050565b34801561067357600080fd5b506102d2611202565b34801561068857600080fd5b5061028b6106973660046127f7565b6001600160a01b039182166000908152606a6020908152604080832093909416825291909152205460ff1690565b3480156106d157600080fd5b5060fe54610258565b6000828152610100602052604081208054839081106106fb576106fb612821565b906000526020600020015490505b92915050565b60006001600160e01b031982166370b0048160e11b148061074057506001600160e01b03198216631dba0dcf60e11b145b8061075b57506001600160e01b03198216630354d60560e61b145b80610709575061070982611241565b610775838383611266565b505050565b60606065805461078990612837565b80601f01602080910402602001604051908101604052809291908181526020018280546107b590612837565b80156108025780601f106107d757610100808354040283529160200191610802565b820191906000526020600020905b8154815290600101906020018083116107e557829003601f168201915b5050505050905090565b6000610817826112f0565b506000908152606960205260409020546001600160a01b031690565b600061083e82610cd1565b9050806001600160a01b0316836001600160a01b0316036108b05760405162461bcd60e51b815260206004820152602160248201527f4552433732313a20617070726f76616c20746f2063757272656e74206f776e656044820152603960f91b60648201526084015b60405180910390fd5b336001600160a01b03821614806108cc57506108cc8133610697565b61093e5760405162461bcd60e51b815260206004820152603e60248201527f4552433732313a20617070726f76652063616c6c6572206973206e6f7420746f60448201527f6b656e206f776e6572206e6f7220617070726f76656420666f7220616c6c000060648201526084016108a7565b6107758383611354565b60606040516020016109c9907f646174613a6170706c69636174696f6e2f6a736f6e3b7b6e616d653a536c6f7481527f205479706520412c6465736372697074696f6e3a536c6f74205479706520412060208201527f6465736372697074696f6e7d00000000000000000000000000000000000000006040820152604c0190565b6040516020818303038152906040529050919050565b60006109ec3385846113c2565b60006109f78561146a565b9050610a17848260fd600089815260200190815260200160002054611480565b610a2285828561153c565b949350505050565b610a3433826117f8565b610a975760405162461bcd60e51b815260206004820152602e60248201527f4552433732313a2063616c6c6572206973206e6f7420746f6b656e206f776e6560448201526d1c881b9bdc88185c1c1c9bdd995960921b60648201526084016108a7565b610775838383611876565b6000818152606760205260408120546001600160a01b0316610b185760405162461bcd60e51b815260206004820152602960248201527f455243333532353a20736c6f7420717565727920666f72206e6f6e657869737460448201526832b73a103a37b5b2b760b91b60648201526084016108a7565b50600090815260fd602052604090205490565b6000610b3683610d36565b8210610baa5760405162461bcd60e51b815260206004820152602b60248201527f455243373231456e756d657261626c653a206f776e657220696e646578206f7560448201527f74206f6620626f756e647300000000000000000000000000000000000000000060648201526084016108a7565b506001600160a01b03919091166000908152609760209081526040808320938352929052205490565b610bde3384836113c2565b61077583838361153c565b610bf584848484611a35565b50505050565b610775838383604051806020016040528060008152506110b7565b610c1f81611ba4565b50565b610775838383610c22565b6000610c3860995490565b8210610cac5760405162461bcd60e51b815260206004820152602c60248201527f455243373231456e756d657261626c653a20676c6f62616c20696e646578206f60448201527f7574206f6620626f756e6473000000000000000000000000000000000000000060648201526084016108a7565b60998281548110610cbf57610cbf612821565b90600052602060002001549050919050565b6000818152606760205260408120546001600160a01b0316806107095760405162461bcd60e51b815260206004820152601860248201527f4552433732313a20696e76616c696420746f6b656e204944000000000000000060448201526064016108a7565b60006001600160a01b038216610db45760405162461bcd60e51b815260206004820152602960248201527f4552433732313a2061646472657373207a65726f206973206e6f74206120766160448201527f6c6964206f776e6572000000000000000000000000000000000000000000000060648201526084016108a7565b506001600160a01b031660009081526068602052604090205490565b600054610100900460ff1615808015610df05750600054600160ff909116105b80610e0a5750303b158015610e0a575060005460ff166001145b610e7c5760405162461bcd60e51b815260206004820152602e60248201527f496e697469616c697a61626c653a20636f6e747261637420697320616c72656160448201527f647920696e697469616c697a656400000000000000000000000000000000000060648201526084016108a7565b6000805460ff191660011790558015610e9f576000805461ff0019166101001790555b8015610c1f576000805461ff0019169055604051600181527f7f26b83ff96e1f2b6a682f133852f6798a09c465da95921460cefb38474024989060200160405180910390a150565b6000610ef284610cd1565b9050806001600160a01b0316836001600160a01b031603610f605760405162461bcd60e51b815260206004820152602260248201527f455243333532353a20617070726f76616c20746f2063757272656e74206f776e60448201526132b960f11b60648201526084016108a7565b610f6a33856117f8565b610fdc5760405162461bcd60e51b815260206004820152603960248201527f455243333532353a20617070726f76652063616c6c6572206973206e6f74206f60448201527f776e6572206e6f7220617070726f76656420666f7220616c6c0000000000000060648201526084016108a7565b610bf5848484611266565b60606066805461078990612837565b600060fe8281548110610cbf57610cbf612821565b6000818152606760205260408120546001600160a01b03166110955760405162461bcd60e51b815260206004820152602c60248201527f455243333532353a2062616c616e636520717565727920666f72206e6f6e657860448201527f697374656e7420746f6b656e000000000000000000000000000000000000000060648201526084016108a7565b50600090815260fb602052604090205490565b6110b3338383611c5c565b5050565b6110c133836117f8565b6111245760405162461bcd60e51b815260206004820152602e60248201527f4552433732313a2063616c6c6572206973206e6f7420746f6b656e206f776e6560448201526d1c881b9bdc88185c1c1c9bdd995960921b60648201526084016108a7565b610bf584848484611d2a565b606061113b8261100b565b61114483610aa2565b6040516020016109c99291907f646174613a6170706c69636174696f6e2f6a736f6e3b7b6e616d653a4173736581527f74205479706520412c6465736372697074696f6e3a417373657420547970652060208201527f41206465736372697074696f6e2c62616c616e63650000000000000000000000604082015260558101929092527f2c736c6f743a00000000000000000000000000000000000000000000000000006075830152607b820152607d60f81b609b820152609c0190565b606061120c61077a565b611214610fe7565b6101015460ff1660405160200161122d93929190612871565b604051602081830303815290604052905090565b60006001600160e01b0319821663780e9d6360e01b1480610709575061070982611db3565b600083815260fc6020908152604080832080546001808201835582865284862090910180546001600160a01b0319166001600160a01b038916908117909155808652908201845293829020859055905184815290929186917f621b050de0ad08b51d19b48b3e6df75348c4de6bdd93e81b252ca62e28265b1b91015b60405180910390a350505050565b6000818152606760205260409020546001600160a01b0316610c1f5760405162461bcd60e51b815260206004820152601860248201527f4552433732313a20696e76616c696420746f6b656e204944000000000000000060448201526064016108a7565b600081815260696020526040902080546001600160a01b0319166001600160a01b038416908117909155819061138982610cd1565b6001600160a01b03167f8c5be1e5ebec7d5bd14f71427d1e84f3dd0314c0f7b2291e5b200ac8c7c3b92560405160405180910390a45050565b600082815260fc602090815260408083206001600160a01b03871684526001019091529020546113f284846117f8565b15801561140157506000198114155b15610bf557818110156114565760405162461bcd60e51b815260206004820152601f60248201527f455243333532353a20696e73756666696369656e7420616c6c6f77616e63650060448201526064016108a7565b610bf583856114658585612969565b611266565b600061147560995490565b61070990600161297c565b61148a8383611e03565b600082815260fd6020908152604080832084905583835261010090915281205490036114e65760fe80546001810182556000919091527f54075df80ec1ae6ac9100e1fd0ebf3246c17f5c933137af392011f4c5f61513a018190555b60008181526101006020908152604080832080546001810182559084529183209091018490555182919084907fe4f48c240d3b994948aa54f3e2f5fca59263dfe1d52b6e4cf39a5d249b5ccb65908390a4505050565b6000838152606760205260409020546001600160a01b03166115b25760405162461bcd60e51b815260206004820152602960248201527f45524333353235353a207472616e736665722066726f6d206e6f6e657869737460448201526832b73a103a37b5b2b760b91b60648201526084016108a7565b6000828152606760205260409020546001600160a01b031661163c5760405162461bcd60e51b815260206004820152602760248201527f45524333353235353a207472616e7366657220746f206e6f6e6578697374656e60448201527f7420746f6b656e0000000000000000000000000000000000000000000000000060648201526084016108a7565b600083815260fb60205260409020548111156116c05760405162461bcd60e51b815260206004820152602860248201527f455243333532353a207472616e7366657220616d6f756e74206578636565647360448201527f2062616c616e636500000000000000000000000000000000000000000000000060648201526084016108a7565b600082815260fd602052604080822054858352912054146117495760405162461bcd60e51b815260206004820152602e60248201527f455243333533353a207472616e7366657220746f20746f6b656e20776974682060448201527f646966666572656e7420736c6f7400000000000000000000000000000000000060648201526084016108a7565b600061175484610cd1565b9050600061176184610cd1565b600086815260fb6020526040812080549293508592909190611784908490612969565b9091555050600084815260fb6020526040812080548592906117a790849061297c565b9091555050600085905260fd60205283857f0b2aac84f3ec956911fd78eae5311062972ff949f38412e8da39069d9f068cc6856040516117e991815260200190565b60405180910390a35050505050565b60008061180483610cd1565b9050806001600160a01b0316846001600160a01b0316148061184b57506001600160a01b038082166000908152606a602090815260408083209388168352929052205460ff165b80610a225750836001600160a01b03166118648461080c565b6001600160a01b031614949350505050565b826001600160a01b031661188982610cd1565b6001600160a01b0316146119055760405162461bcd60e51b815260206004820152602560248201527f4552433732313a207472616e736665722066726f6d20696e636f72726563742060448201527f6f776e657200000000000000000000000000000000000000000000000000000060648201526084016108a7565b6001600160a01b0382166119675760405162461bcd60e51b8152602060048201526024808201527f4552433732313a207472616e7366657220746f20746865207a65726f206164646044820152637265737360e01b60648201526084016108a7565b611972838383611f51565b61197d600082611354565b6001600160a01b03831660009081526068602052604081208054600192906119a6908490612969565b90915550506001600160a01b03821660009081526068602052604081208054600192906119d490849061297c565b909155505060008181526067602052604080822080546001600160a01b0319166001600160a01b0386811691821790925591518493918716917fddf252ad1be2c89b69c2b068fc378daa952ba7f163c4a11628f55a4df523b3ef91a4505050565b6001600160a01b038416611a955760405162461bcd60e51b815260206004820152602160248201527f455243333532353a206d696e7420746f20746865207a65726f206164647265736044820152607360f81b60648201526084016108a7565b82600003611aef5760405162461bcd60e51b815260206004820152602160248201527f455243333532353a2063616e6e6f74206d696e74207a65726f20746f6b656e496044820152601960fa1b60648201526084016108a7565b6000838152606760205260409020546001600160a01b031615611b545760405162461bcd60e51b815260206004820152601d60248201527f455243333532353a20746f6b656e20616c7265616479206d696e74656400000060448201526064016108a7565b611b5f848484611480565b600083815260fb602052604090208190558260007f0b2aac84f3ec956911fd78eae5311062972ff949f38412e8da39069d9f068cc6836040516112e291815260200190565b6000611baf82610cd1565b600083815260fd602090815260408083205460fb9092529091205491925090611bd784611ff3565b600084815260fd6020908152604080832083905560fb82528083208390555183815286917f0b2aac84f3ec956911fd78eae5311062972ff949f38412e8da39069d9f068cc6910160405180910390a3600082857fe4f48c240d3b994948aa54f3e2f5fca59263dfe1d52b6e4cf39a5d249b5ccb6560405160405180910390a450505050565b816001600160a01b0316836001600160a01b031603611cbd5760405162461bcd60e51b815260206004820152601960248201527f4552433732313a20617070726f766520746f2063616c6c65720000000000000060448201526064016108a7565b6001600160a01b038381166000818152606a6020908152604080832094871680845294825291829020805460ff191686151590811790915591519182527f17307eab39ab6107e8899845ad3d59bd9653f200f220920489ca2b5937696c31910160405180910390a3505050565b611d35848484611876565b611d418484848461209a565b610bf55760405162461bcd60e51b815260206004820152603260248201527f4552433732313a207472616e7366657220746f206e6f6e20455243373231526560448201527f63656976657220696d706c656d656e746572000000000000000000000000000060648201526084016108a7565b60006001600160e01b031982166380ac58cd60e01b1480611de457506001600160e01b03198216635b5e139f60e01b145b8061070957506301ffc9a760e01b6001600160e01b0319831614610709565b6001600160a01b038216611e595760405162461bcd60e51b815260206004820181905260248201527f4552433732313a206d696e7420746f20746865207a65726f206164647265737360448201526064016108a7565b6000818152606760205260409020546001600160a01b031615611ebe5760405162461bcd60e51b815260206004820152601c60248201527f4552433732313a20746f6b656e20616c7265616479206d696e7465640000000060448201526064016108a7565b611eca60008383611f51565b6001600160a01b0382166000908152606860205260408120805460019290611ef390849061297c565b909155505060008181526067602052604080822080546001600160a01b0319166001600160a01b03861690811790915590518392907fddf252ad1be2c89b69c2b068fc378daa952ba7f163c4a11628f55a4df523b3ef908290a45050565b611f5c8383836121f1565b600081815260fc6020526040812054905b81811015611fdb57600083815260fc60205260408120805483908110611f9557611f95612821565b600091825260208083209091015486835260fc825260408084206001600160a01b0390921684526001919091019091528120555080611fd38161298f565b915050611f6d565b50600082815260fc60205260408120610bf591612439565b6000611ffe82610cd1565b905061200c81600084611f51565b612017600083611354565b6001600160a01b0381166000908152606860205260408120805460019290612040908490612969565b909155505060008281526067602052604080822080546001600160a01b0319169055518391906001600160a01b038416907fddf252ad1be2c89b69c2b068fc378daa952ba7f163c4a11628f55a4df523b3ef908390a45050565b60006001600160a01b0384163b156121e657604051630a85bd0160e11b81526001600160a01b0385169063150b7a02906120de9033908990889088906004016129a8565b6020604051808303816000875af1925050508015612119575060408051601f3d908101601f19168201909252612116918101906129e4565b60015b6121cc573d808015612147576040519150601f19603f3d011682016040523d82523d6000602084013e61214c565b606091505b5080516000036121c45760405162461bcd60e51b815260206004820152603260248201527f4552433732313a207472616e7366657220746f206e6f6e20455243373231526560448201527f63656976657220696d706c656d656e746572000000000000000000000000000060648201526084016108a7565b805181602001fd5b6001600160e01b031916630a85bd0160e11b149050610a22565b506001949350505050565b6001600160a01b03831661224c5761224781609980546000838152609a60205260408120829055600182018355919091527f72a152ddfb8e864297c917af52ea6c1c68aead0fee1a62673fcc7e0c94979d000155565b61226f565b816001600160a01b0316836001600160a01b03161461226f5761226f83826122a9565b6001600160a01b0382166122865761077581612346565b826001600160a01b0316826001600160a01b0316146107755761077582826123f5565b600060016122b684610d36565b6122c09190612969565b600083815260986020526040902054909150808214612313576001600160a01b03841660009081526097602090815260408083208584528252808320548484528184208190558352609890915290208190555b5060009182526098602090815260408084208490556001600160a01b039094168352609781528383209183525290812055565b60995460009061235890600190612969565b6000838152609a60205260408120546099805493945090928490811061238057612380612821565b9060005260206000200154905080609983815481106123a1576123a1612821565b6000918252602080832090910192909255828152609a909152604080822084905585825281205560998054806123d9576123d9612a01565b6001900381819060005260206000200160009055905550505050565b600061240083610d36565b6001600160a01b039093166000908152609760209081526040808320868452825280832085905593825260989052919091209190915550565b5080546000825590600052602060002090810190610c1f91905b808211156124675760008155600101612453565b5090565b6000806040838503121561247e57600080fd5b50508035926020909101359150565b6001600160e01b031981168114610c1f57600080fd5b6000602082840312156124b557600080fd5b81356124c08161248d565b9392505050565b80356001600160a01b03811681146124de57600080fd5b919050565b6000806000606084860312156124f857600080fd5b83359250612508602085016124c7565b9150604084013590509250925092565b60005b8381101561253357818101518382015260200161251b565b50506000910152565b60008151808452612554816020860160208601612518565b601f01601f19169290920160200192915050565b6020815260006124c0602083018461253c565b60006020828403121561258d57600080fd5b5035919050565b600080604083850312156125a757600080fd5b6125b0836124c7565b946020939093013593505050565b6000806000606084860312156125d357600080fd5b6125dc846124c7565b9250612508602085016124c7565b6000806000606084860312156125ff57600080fd5b505081359360208301359350604090920135919050565b6000806000806080858703121561262c57600080fd5b612635856124c7565b966020860135965060408601359560600135945092505050565b60008060006060848603121561266457600080fd5b61266d846124c7565b95602085013595506040909401359392505050565b60006020828403121561269457600080fd5b6124c0826124c7565b600080604083850312156126b057600080fd5b6126b9836124c7565b9150602083013580151581146126ce57600080fd5b809150509250929050565b634e487b7160e01b600052604160045260246000fd5b6000806000806080858703121561270557600080fd5b61270e856124c7565b935061271c602086016124c7565b925060408501359150606085013567ffffffffffffffff8082111561274057600080fd5b818701915087601f83011261275457600080fd5b813581811115612766576127666126d9565b604051601f8201601f19908116603f0116810190838211818310171561278e5761278e6126d9565b816040528281528a60208487010111156127a757600080fd5b82602086016020830137600060208483010152809550505050505092959194509250565b600080604083850312156127de57600080fd5b823591506127ee602084016124c7565b90509250929050565b6000806040838503121561280a57600080fd5b612813836124c7565b91506127ee602084016124c7565b634e487b7160e01b600052603260045260246000fd5b600181811c9082168061284b57607f821691505b60208210810361286b57634e487b7160e01b600052602260045260246000fd5b50919050565b7f646174613a6170706c69636174696f6e2f6a736f6e3b7b6e616d653a000000008152600084516128a981601c850160208901612518565b7f2c6465736372697074696f6e3a00000000000000000000000000000000000000601c9184019182015284516128e6816029840160208901612518565b7f2c76616c7565446563696d616c733a00000000000000000000000000000000006029929091019182015260f89390931b7fff000000000000000000000000000000000000000000000000000000000000001660388401525050607d60f81b6039820152603a0192915050565b634e487b7160e01b600052601160045260246000fd5b8181038181111561070957610709612953565b8082018082111561070957610709612953565b6000600182016129a1576129a1612953565b5060010190565b60006001600160a01b038087168352808616602084015250836040830152608060608301526129da608083018461253c565b9695505050505050565b6000602082840312156129f657600080fd5b81516124c08161248d565b634e487b7160e01b600052603160045260246000fdfea164736f6c6343000810000a",
  "linkReferences": {},
  "deployedLinkReferences": {}
}