{
  "_format": "hh-sol-artifact-1",
  "contractName": "HyperCertMinter",
  "sourceName": "contracts/HyperCertMinter.sol",
  "abi": [
    {
      "inputs": [],
      "stateMutability": "nonpayable",
      "type": "constructor"
    },
    {
      "inputs": [
        {
          "internalType": "uint256",
          "name": "tokenId",
          "type": "uint256"
        }
      ],
      "name": "AlreadyMinted",
      "type": "error"
    },
    {
      "inputs": [],
      "name": "ConflictingClaim",
      "type": "error"
    },
    {
      "inputs": [],
      "name": "DuplicateScope",
      "type": "error"
    },
    {
      "inputs": [],
      "name": "EmptyInput",
      "type": "error"
    },
    {
      "inputs": [
        {
          "internalType": "uint256",
          "name": "transferAmount",
          "type": "uint256"
        },
        {
          "internalType": "uint256",
          "name": "allowance",
          "type": "uint256"
        }
      ],
      "name": "InsufficientAllowance",
      "type": "error"
    },
    {
      "inputs": [
        {
          "internalType": "uint256",
          "name": "transferAmount",
          "type": "uint256"
        },
        {
          "internalType": "uint256",
          "name": "balance",
          "type": "uint256"
        }
      ],
      "name": "InsufficientBalance",
      "type": "error"
    },
    {
      "inputs": [
        {
          "internalType": "uint256",
          "name": "tokenId",
          "type": "uint256"
        },
        {
          "internalType": "address",
          "name": "from",
          "type": "address"
        },
        {
          "internalType": "address",
          "name": "to",
          "type": "address"
        }
      ],
      "name": "InvalidApproval",
      "type": "error"
    },
    {
      "inputs": [
        {
          "internalType": "uint256",
          "name": "tokenId",
          "type": "uint256"
        }
      ],
      "name": "InvalidID",
      "type": "error"
    },
    {
      "inputs": [],
      "name": "InvalidInput",
      "type": "error"
    },
    {
      "inputs": [],
      "name": "InvalidScope",
      "type": "error"
    },
    {
      "inputs": [
        {
          "internalType": "uint64",
          "name": "from",
          "type": "uint64"
        },
        {
          "internalType": "uint64",
          "name": "to",
          "type": "uint64"
        }
      ],
      "name": "InvalidTimeframe",
      "type": "error"
    },
    {
      "inputs": [
        {
          "internalType": "uint256",
          "name": "tokenId",
          "type": "uint256"
        }
      ],
      "name": "NonExistentToken",
      "type": "error"
    },
    {
      "inputs": [],
      "name": "NotApprovedOrOwner",
      "type": "error"
    },
    {
      "inputs": [
        {
          "internalType": "uint256",
          "name": "fromTokenId",
          "type": "uint256"
        },
        {
          "internalType": "uint256",
          "name": "toTokenId",
          "type": "uint256"
        }
      ],
      "name": "SlotsMismatch",
      "type": "error"
    },
    {
      "inputs": [],
      "name": "ToZeroAddress",
      "type": "error"
    },
    {
      "anonymous": false,
      "inputs": [
        {
          "indexed": false,
          "internalType": "address",
          "name": "previousAdmin",
          "type": "address"
        },
        {
          "indexed": false,
          "internalType": "address",
          "name": "newAdmin",
          "type": "address"
        }
      ],
      "name": "AdminChanged",
      "type": "event"
    },
    {
      "anonymous": false,
      "inputs": [
        {
          "indexed": true,
          "internalType": "address",
          "name": "owner",
          "type": "address"
        },
        {
          "indexed": true,
          "internalType": "address",
          "name": "approved",
          "type": "address"
        },
        {
          "indexed": true,
          "internalType": "uint256",
          "name": "tokenId",
          "type": "uint256"
        }
      ],
      "name": "Approval",
      "type": "event"
    },
    {
      "anonymous": false,
      "inputs": [
        {
          "indexed": true,
          "internalType": "address",
          "name": "owner",
          "type": "address"
        },
        {
          "indexed": true,
          "internalType": "address",
          "name": "operator",
          "type": "address"
        },
        {
          "indexed": false,
          "internalType": "bool",
          "name": "approved",
          "type": "bool"
        }
      ],
      "name": "ApprovalForAll",
      "type": "event"
    },
    {
      "anonymous": false,
      "inputs": [
        {
          "indexed": true,
          "internalType": "uint256",
          "name": "_tokenId",
          "type": "uint256"
        },
        {
          "indexed": true,
          "internalType": "address",
          "name": "_operator",
          "type": "address"
        },
        {
          "indexed": false,
          "internalType": "uint256",
          "name": "_value",
          "type": "uint256"
        }
      ],
      "name": "ApprovalValue",
      "type": "event"
    },
    {
      "anonymous": false,
      "inputs": [
        {
          "indexed": true,
          "internalType": "address",
          "name": "beacon",
          "type": "address"
        }
      ],
      "name": "BeaconUpgraded",
      "type": "event"
    },
    {
      "anonymous": false,
      "inputs": [
        {
          "indexed": false,
          "internalType": "uint256",
          "name": "id",
          "type": "uint256"
        },
        {
          "indexed": false,
          "internalType": "address",
          "name": "minter",
          "type": "address"
        },
        {
          "indexed": false,
          "internalType": "uint64[]",
          "name": "fractions",
          "type": "uint64[]"
        }
      ],
      "name": "ImpactClaimed",
      "type": "event"
    },
    {
      "anonymous": false,
      "inputs": [
        {
          "indexed": false,
          "internalType": "bytes32",
          "name": "id",
          "type": "bytes32"
        },
        {
          "indexed": false,
          "internalType": "string",
          "name": "text",
          "type": "string"
        }
      ],
      "name": "ImpactScopeAdded",
      "type": "event"
    },
    {
      "anonymous": false,
      "inputs": [
        {
          "indexed": false,
          "internalType": "uint8",
          "name": "version",
          "type": "uint8"
        }
      ],
      "name": "Initialized",
      "type": "event"
    },
    {
      "anonymous": false,
      "inputs": [
        {
          "indexed": false,
          "internalType": "bytes32",
          "name": "id",
          "type": "bytes32"
        },
        {
          "indexed": false,
          "internalType": "string",
          "name": "text",
          "type": "string"
        }
      ],
      "name": "RightAdded",
      "type": "event"
    },
    {
      "anonymous": false,
      "inputs": [
        {
          "indexed": true,
          "internalType": "bytes32",
          "name": "role",
          "type": "bytes32"
        },
        {
          "indexed": true,
          "internalType": "bytes32",
          "name": "previousAdminRole",
          "type": "bytes32"
        },
        {
          "indexed": true,
          "internalType": "bytes32",
          "name": "newAdminRole",
          "type": "bytes32"
        }
      ],
      "name": "RoleAdminChanged",
      "type": "event"
    },
    {
      "anonymous": false,
      "inputs": [
        {
          "indexed": true,
          "internalType": "bytes32",
          "name": "role",
          "type": "bytes32"
        },
        {
          "indexed": true,
          "internalType": "address",
          "name": "account",
          "type": "address"
        },
        {
          "indexed": true,
          "internalType": "address",
          "name": "sender",
          "type": "address"
        }
      ],
      "name": "RoleGranted",
      "type": "event"
    },
    {
      "anonymous": false,
      "inputs": [
        {
          "indexed": true,
          "internalType": "bytes32",
          "name": "role",
          "type": "bytes32"
        },
        {
          "indexed": true,
          "internalType": "address",
          "name": "account",
          "type": "address"
        },
        {
          "indexed": true,
          "internalType": "address",
          "name": "sender",
          "type": "address"
        }
      ],
      "name": "RoleRevoked",
      "type": "event"
    },
    {
      "anonymous": false,
      "inputs": [
        {
          "indexed": true,
          "internalType": "uint256",
          "name": "_tokenId",
          "type": "uint256"
        },
        {
          "indexed": true,
          "internalType": "uint256",
          "name": "_oldSlot",
          "type": "uint256"
        },
        {
          "indexed": true,
          "internalType": "uint256",
          "name": "_newSlot",
          "type": "uint256"
        }
      ],
      "name": "SlotChanged",
      "type": "event"
    },
    {
      "anonymous": false,
      "inputs": [
        {
          "indexed": true,
          "internalType": "address",
          "name": "from",
          "type": "address"
        },
        {
          "indexed": true,
          "internalType": "address",
          "name": "to",
          "type": "address"
        },
        {
          "indexed": true,
          "internalType": "uint256",
          "name": "tokenId",
          "type": "uint256"
        }
      ],
      "name": "Transfer",
      "type": "event"
    },
    {
      "anonymous": false,
      "inputs": [
        {
          "indexed": true,
          "internalType": "uint256",
          "name": "_fromTokenId",
          "type": "uint256"
        },
        {
          "indexed": true,
          "internalType": "uint256",
          "name": "_toTokenId",
          "type": "uint256"
        },
        {
          "indexed": false,
          "internalType": "uint256",
          "name": "_value",
          "type": "uint256"
        }
      ],
      "name": "TransferValue",
      "type": "event"
    },
    {
      "anonymous": false,
      "inputs": [
        {
          "indexed": true,
          "internalType": "address",
          "name": "implementation",
          "type": "address"
        }
      ],
      "name": "Upgraded",
      "type": "event"
    },
    {
      "anonymous": false,
      "inputs": [
        {
          "indexed": false,
          "internalType": "bytes32",
          "name": "id",
          "type": "bytes32"
        },
        {
          "indexed": false,
          "internalType": "string",
          "name": "text",
          "type": "string"
        }
      ],
      "name": "WorkScopeAdded",
      "type": "event"
    },
    {
      "inputs": [],
      "name": "DECIMALS",
      "outputs": [
        {
          "internalType": "uint8",
          "name": "",
          "type": "uint8"
        }
      ],
      "stateMutability": "view",
      "type": "function"
    },
    {
      "inputs": [],
      "name": "DEFAULT_ADMIN_ROLE",
      "outputs": [
        {
          "internalType": "bytes32",
          "name": "",
          "type": "bytes32"
        }
      ],
      "stateMutability": "view",
      "type": "function"
    },
    {
      "inputs": [],
      "name": "NAME",
      "outputs": [
        {
          "internalType": "string",
          "name": "",
          "type": "string"
        }
      ],
      "stateMutability": "view",
      "type": "function"
    },
    {
      "inputs": [],
      "name": "SYMBOL",
      "outputs": [
        {
          "internalType": "string",
          "name": "",
          "type": "string"
        }
      ],
      "stateMutability": "view",
      "type": "function"
    },
    {
      "inputs": [],
      "name": "UPGRADER_ROLE",
      "outputs": [
        {
          "internalType": "bytes32",
          "name": "",
          "type": "bytes32"
        }
      ],
      "stateMutability": "view",
      "type": "function"
    },
    {
      "inputs": [
        {
          "internalType": "string",
          "name": "text",
          "type": "string"
        }
      ],
      "name": "addImpactScope",
      "outputs": [
        {
          "internalType": "bytes32",
          "name": "id",
          "type": "bytes32"
        }
      ],
      "stateMutability": "nonpayable",
      "type": "function"
    },
    {
      "inputs": [
        {
          "internalType": "string",
          "name": "text",
          "type": "string"
        }
      ],
      "name": "addRight",
      "outputs": [
        {
          "internalType": "bytes32",
          "name": "id",
          "type": "bytes32"
        }
      ],
      "stateMutability": "nonpayable",
      "type": "function"
    },
    {
      "inputs": [
        {
          "internalType": "string",
          "name": "text",
          "type": "string"
        }
      ],
      "name": "addWorkScope",
      "outputs": [
        {
          "internalType": "bytes32",
          "name": "id",
          "type": "bytes32"
        }
      ],
      "stateMutability": "nonpayable",
      "type": "function"
    },
    {
      "inputs": [
        {
          "internalType": "uint256",
          "name": "tokenId_",
          "type": "uint256"
        },
        {
          "internalType": "address",
          "name": "operator_",
          "type": "address"
        }
      ],
      "name": "allowance",
      "outputs": [
        {
          "internalType": "uint256",
          "name": "",
          "type": "uint256"
        }
      ],
      "stateMutability": "view",
      "type": "function"
    },
    {
      "inputs": [
        {
          "internalType": "address",
          "name": "to",
          "type": "address"
        },
        {
          "internalType": "uint256",
          "name": "tokenId",
          "type": "uint256"
        }
      ],
      "name": "approve",
      "outputs": [],
      "stateMutability": "nonpayable",
      "type": "function"
    },
    {
      "inputs": [
        {
          "internalType": "uint256",
          "name": "tokenId_",
          "type": "uint256"
        },
        {
          "internalType": "address",
          "name": "to_",
          "type": "address"
        },
        {
          "internalType": "uint256",
          "name": "value_",
          "type": "uint256"
        }
      ],
      "name": "approve",
      "outputs": [],
      "stateMutability": "payable",
      "type": "function"
    },
    {
      "inputs": [
        {
          "internalType": "address",
          "name": "owner",
          "type": "address"
        }
      ],
      "name": "balanceOf",
      "outputs": [
        {
          "internalType": "uint256",
          "name": "",
          "type": "uint256"
        }
      ],
      "stateMutability": "view",
      "type": "function"
    },
    {
      "inputs": [
        {
          "internalType": "uint256",
          "name": "tokenId_",
          "type": "uint256"
        }
      ],
      "name": "balanceOf",
      "outputs": [
        {
          "internalType": "uint256",
          "name": "",
          "type": "uint256"
        }
      ],
      "stateMutability": "view",
      "type": "function"
    },
    {
      "inputs": [
        {
          "internalType": "uint256",
          "name": "tokenId",
          "type": "uint256"
        }
      ],
      "name": "burn",
      "outputs": [],
      "stateMutability": "nonpayable",
      "type": "function"
    },
    {
      "inputs": [],
      "name": "contractURI",
      "outputs": [
        {
          "internalType": "string",
          "name": "",
          "type": "string"
        }
      ],
      "stateMutability": "view",
      "type": "function"
    },
    {
      "inputs": [
        {
          "internalType": "uint256",
          "name": "tokenId",
          "type": "uint256"
        }
      ],
      "name": "getApproved",
      "outputs": [
        {
          "internalType": "address",
          "name": "",
          "type": "address"
        }
      ],
      "stateMutability": "view",
      "type": "function"
    },
    {
      "inputs": [
        {
          "internalType": "uint64[2]",
          "name": "workTimeframe_",
          "type": "uint64[2]"
        },
        {
          "internalType": "bytes32[]",
          "name": "workScopes_",
          "type": "bytes32[]"
        },
        {
          "internalType": "uint64[2]",
          "name": "impactTimeframe_",
          "type": "uint64[2]"
        },
        {
          "internalType": "bytes32[]",
          "name": "impactScopes_",
          "type": "bytes32[]"
        }
      ],
      "name": "getHash",
      "outputs": [
        {
          "internalType": "bytes32",
          "name": "",
          "type": "bytes32"
        }
      ],
      "stateMutability": "pure",
      "type": "function"
    },
    {
      "inputs": [
        {
          "internalType": "uint256",
          "name": "claimID",
          "type": "uint256"
        }
      ],
      "name": "getImpactCert",
      "outputs": [
        {
          "components": [
            {
              "internalType": "bytes32",
              "name": "claimHash",
              "type": "bytes32"
            },
            {
              "internalType": "uint64[2]",
              "name": "workTimeframe",
              "type": "uint64[2]"
            },
            {
              "internalType": "uint64[2]",
              "name": "impactTimeframe",
              "type": "uint64[2]"
            },
            {
              "internalType": "bytes32[]",
              "name": "workScopes",
              "type": "bytes32[]"
            },
            {
              "internalType": "bytes32[]",
              "name": "impactScopes",
              "type": "bytes32[]"
            },
            {
              "internalType": "bytes32[]",
              "name": "rights",
              "type": "bytes32[]"
            },
            {
              "internalType": "address[]",
              "name": "contributors",
              "type": "address[]"
            },
            {
              "internalType": "uint256",
              "name": "totalUnits",
              "type": "uint256"
            },
            {
              "internalType": "uint16",
              "name": "version",
              "type": "uint16"
            },
            {
              "internalType": "bool",
              "name": "exists",
              "type": "bool"
            },
            {
              "internalType": "string",
              "name": "name",
              "type": "string"
            },
            {
              "internalType": "string",
              "name": "description",
              "type": "string"
            },
            {
              "internalType": "string",
              "name": "uri",
              "type": "string"
            }
          ],
          "internalType": "struct HyperCertMinter.Claim",
          "name": "",
          "type": "tuple"
        }
      ],
      "stateMutability": "view",
      "type": "function"
    },
    {
      "inputs": [
        {
          "internalType": "bytes32",
          "name": "role",
          "type": "bytes32"
        }
      ],
      "name": "getRoleAdmin",
      "outputs": [
        {
          "internalType": "bytes32",
          "name": "",
          "type": "bytes32"
        }
      ],
      "stateMutability": "view",
      "type": "function"
    },
    {
      "inputs": [
        {
          "internalType": "bytes32",
          "name": "role",
          "type": "bytes32"
        },
        {
          "internalType": "address",
          "name": "account",
          "type": "address"
        }
      ],
      "name": "grantRole",
      "outputs": [],
      "stateMutability": "nonpayable",
      "type": "function"
    },
    {
      "inputs": [
        {
          "internalType": "bytes32",
          "name": "role",
          "type": "bytes32"
        },
        {
          "internalType": "address",
          "name": "account",
          "type": "address"
        }
      ],
      "name": "hasRole",
      "outputs": [
        {
          "internalType": "bool",
          "name": "",
          "type": "bool"
        }
      ],
      "stateMutability": "view",
      "type": "function"
    },
    {
      "inputs": [
        {
          "internalType": "bytes32",
          "name": "",
          "type": "bytes32"
        }
      ],
      "name": "impactScopes",
      "outputs": [
        {
          "internalType": "string",
          "name": "",
          "type": "string"
        }
      ],
      "stateMutability": "view",
      "type": "function"
    },
    {
      "inputs": [
        {
          "internalType": "address",
          "name": "metadataAddress",
          "type": "address"
        }
      ],
      "name": "initialize",
      "outputs": [],
      "stateMutability": "nonpayable",
      "type": "function"
    },
    {
      "inputs": [
        {
          "internalType": "address",
          "name": "owner",
          "type": "address"
        },
        {
          "internalType": "address",
          "name": "operator",
          "type": "address"
        }
      ],
      "name": "isApprovedForAll",
      "outputs": [
        {
          "internalType": "bool",
          "name": "",
          "type": "bool"
        }
      ],
      "stateMutability": "view",
      "type": "function"
    },
    {
      "inputs": [
        {
          "internalType": "uint256[]",
          "name": "tokenIds",
          "type": "uint256[]"
        }
      ],
      "name": "merge",
      "outputs": [],
      "stateMutability": "nonpayable",
      "type": "function"
    },
    {
      "inputs": [
        {
          "internalType": "address",
          "name": "account",
          "type": "address"
        },
        {
          "internalType": "bytes",
          "name": "data",
          "type": "bytes"
        }
      ],
      "name": "mint",
      "outputs": [],
      "stateMutability": "nonpayable",
      "type": "function"
    },
    {
      "inputs": [],
      "name": "name",
      "outputs": [
        {
          "internalType": "string",
          "name": "",
          "type": "string"
        }
      ],
      "stateMutability": "pure",
      "type": "function"
    },
    {
      "inputs": [
        {
          "internalType": "uint256",
          "name": "tokenId",
          "type": "uint256"
        }
      ],
      "name": "ownerOf",
      "outputs": [
        {
          "internalType": "address",
          "name": "",
          "type": "address"
        }
      ],
      "stateMutability": "view",
      "type": "function"
    },
    {
      "inputs": [],
      "name": "proxiableUUID",
      "outputs": [
        {
          "internalType": "bytes32",
          "name": "",
          "type": "bytes32"
        }
      ],
      "stateMutability": "view",
      "type": "function"
    },
    {
      "inputs": [
        {
          "internalType": "bytes32",
          "name": "role",
          "type": "bytes32"
        },
        {
          "internalType": "address",
          "name": "account",
          "type": "address"
        }
      ],
      "name": "renounceRole",
      "outputs": [],
      "stateMutability": "nonpayable",
      "type": "function"
    },
    {
      "inputs": [
        {
          "internalType": "bytes32",
          "name": "role",
          "type": "bytes32"
        },
        {
          "internalType": "address",
          "name": "account",
          "type": "address"
        }
      ],
      "name": "revokeRole",
      "outputs": [],
      "stateMutability": "nonpayable",
      "type": "function"
    },
    {
      "inputs": [
        {
          "internalType": "bytes32",
          "name": "",
          "type": "bytes32"
        }
      ],
      "name": "rights",
      "outputs": [
        {
          "internalType": "string",
          "name": "",
          "type": "string"
        }
      ],
      "stateMutability": "view",
      "type": "function"
    },
    {
      "inputs": [
        {
          "internalType": "address",
          "name": "from",
          "type": "address"
        },
        {
          "internalType": "address",
          "name": "to",
          "type": "address"
        },
        {
          "internalType": "uint256",
          "name": "tokenId",
          "type": "uint256"
        }
      ],
      "name": "safeTransferFrom",
      "outputs": [],
      "stateMutability": "nonpayable",
      "type": "function"
    },
    {
      "inputs": [
        {
          "internalType": "address",
          "name": "from",
          "type": "address"
        },
        {
          "internalType": "address",
          "name": "to",
          "type": "address"
        },
        {
          "internalType": "uint256",
          "name": "tokenId",
          "type": "uint256"
        },
        {
          "internalType": "bytes",
          "name": "data",
          "type": "bytes"
        }
      ],
      "name": "safeTransferFrom",
      "outputs": [],
      "stateMutability": "nonpayable",
      "type": "function"
    },
    {
      "inputs": [
        {
          "internalType": "address",
          "name": "operator",
          "type": "address"
        },
        {
          "internalType": "bool",
          "name": "approved",
          "type": "bool"
        }
      ],
      "name": "setApprovalForAll",
      "outputs": [],
      "stateMutability": "nonpayable",
      "type": "function"
    },
    {
      "inputs": [
        {
          "internalType": "uint256",
          "name": "_index",
          "type": "uint256"
        }
      ],
      "name": "slotByIndex",
      "outputs": [
        {
          "internalType": "uint256",
          "name": "",
          "type": "uint256"
        }
      ],
      "stateMutability": "view",
      "type": "function"
    },
    {
      "inputs": [],
      "name": "slotCount",
      "outputs": [
        {
          "internalType": "uint256",
          "name": "",
          "type": "uint256"
        }
      ],
      "stateMutability": "view",
      "type": "function"
    },
    {
      "inputs": [
        {
          "internalType": "uint256",
          "name": "tokenId_",
          "type": "uint256"
        }
      ],
      "name": "slotOf",
      "outputs": [
        {
          "internalType": "uint256",
          "name": "",
          "type": "uint256"
        }
      ],
      "stateMutability": "view",
      "type": "function"
    },
    {
      "inputs": [
        {
          "internalType": "uint256",
          "name": "slotId_",
          "type": "uint256"
        }
      ],
      "name": "slotURI",
      "outputs": [
        {
          "internalType": "string",
          "name": "",
          "type": "string"
        }
      ],
      "stateMutability": "view",
      "type": "function"
    },
    {
      "inputs": [
        {
          "internalType": "uint256",
          "name": "tokenId",
          "type": "uint256"
        },
        {
          "internalType": "uint256[]",
          "name": "amounts",
          "type": "uint256[]"
        }
      ],
      "name": "split",
      "outputs": [],
      "stateMutability": "nonpayable",
      "type": "function"
    },
    {
      "inputs": [
        {
          "internalType": "bytes4",
          "name": "interfaceId",
          "type": "bytes4"
        }
      ],
      "name": "supportsInterface",
      "outputs": [
        {
          "internalType": "bool",
          "name": "",
          "type": "bool"
        }
      ],
      "stateMutability": "view",
      "type": "function"
    },
    {
      "inputs": [],
      "name": "symbol",
      "outputs": [
        {
          "internalType": "string",
          "name": "",
          "type": "string"
        }
      ],
      "stateMutability": "pure",
      "type": "function"
    },
    {
      "inputs": [
        {
          "internalType": "uint256",
          "name": "index",
          "type": "uint256"
        }
      ],
      "name": "tokenByIndex",
      "outputs": [
        {
          "internalType": "uint256",
          "name": "",
          "type": "uint256"
        }
      ],
      "stateMutability": "view",
      "type": "function"
    },
    {
      "inputs": [
        {
          "internalType": "uint256",
          "name": "_slot",
          "type": "uint256"
        },
        {
          "internalType": "uint256",
          "name": "_index",
          "type": "uint256"
        }
      ],
      "name": "tokenInSlotByIndex",
      "outputs": [
        {
          "internalType": "uint256",
          "name": "",
          "type": "uint256"
        }
      ],
      "stateMutability": "view",
      "type": "function"
    },
    {
      "inputs": [
        {
          "internalType": "address",
          "name": "owner",
          "type": "address"
        },
        {
          "internalType": "uint256",
          "name": "index",
          "type": "uint256"
        }
      ],
      "name": "tokenOfOwnerByIndex",
      "outputs": [
        {
          "internalType": "uint256",
          "name": "",
          "type": "uint256"
        }
      ],
      "stateMutability": "view",
      "type": "function"
    },
    {
      "inputs": [
        {
          "internalType": "uint256",
          "name": "_slot",
          "type": "uint256"
        }
      ],
      "name": "tokenSupplyInSlot",
      "outputs": [
        {
          "internalType": "uint256",
          "name": "",
          "type": "uint256"
        }
      ],
      "stateMutability": "view",
      "type": "function"
    },
    {
      "inputs": [
        {
          "internalType": "uint256",
          "name": "tokenId_",
          "type": "uint256"
        }
      ],
      "name": "tokenURI",
      "outputs": [
        {
          "internalType": "string",
          "name": "",
          "type": "string"
        }
      ],
      "stateMutability": "view",
      "type": "function"
    },
    {
      "inputs": [],
      "name": "totalSupply",
      "outputs": [
        {
          "internalType": "uint256",
          "name": "",
          "type": "uint256"
        }
      ],
      "stateMutability": "view",
      "type": "function"
    },
    {
      "inputs": [
        {
          "internalType": "uint256",
          "name": "fromTokenId_",
          "type": "uint256"
        },
        {
          "internalType": "address",
          "name": "to_",
          "type": "address"
        },
        {
          "internalType": "uint256",
          "name": "value_",
          "type": "uint256"
        }
      ],
      "name": "transferFrom",
      "outputs": [
        {
          "internalType": "uint256",
          "name": "newTokenId",
          "type": "uint256"
        }
      ],
      "stateMutability": "payable",
      "type": "function"
    },
    {
      "inputs": [
        {
          "internalType": "address",
          "name": "from",
          "type": "address"
        },
        {
          "internalType": "address",
          "name": "to",
          "type": "address"
        },
        {
          "internalType": "uint256",
          "name": "tokenId",
          "type": "uint256"
        }
      ],
      "name": "transferFrom",
      "outputs": [],
      "stateMutability": "nonpayable",
      "type": "function"
    },
    {
      "inputs": [
        {
          "internalType": "uint256",
          "name": "fromTokenId_",
          "type": "uint256"
        },
        {
          "internalType": "uint256",
          "name": "toTokenId_",
          "type": "uint256"
        },
        {
          "internalType": "uint256",
          "name": "value_",
          "type": "uint256"
        }
      ],
      "name": "transferFrom",
      "outputs": [],
      "stateMutability": "payable",
      "type": "function"
    },
    {
      "inputs": [],
      "name": "updateVersion",
      "outputs": [],
      "stateMutability": "nonpayable",
      "type": "function"
    },
    {
      "inputs": [
        {
          "internalType": "address",
          "name": "newImplementation",
          "type": "address"
        }
      ],
      "name": "upgradeTo",
      "outputs": [],
      "stateMutability": "nonpayable",
      "type": "function"
    },
    {
      "inputs": [
        {
          "internalType": "address",
          "name": "newImplementation",
          "type": "address"
        },
        {
          "internalType": "bytes",
          "name": "data",
          "type": "bytes"
        }
      ],
      "name": "upgradeToAndCall",
      "outputs": [],
      "stateMutability": "payable",
      "type": "function"
    },
    {
      "inputs": [],
      "name": "valueDecimals",
      "outputs": [
        {
          "internalType": "uint8",
          "name": "",
          "type": "uint8"
        }
      ],
      "stateMutability": "view",
      "type": "function"
    },
    {
      "inputs": [],
      "name": "version",
      "outputs": [
        {
          "internalType": "uint256",
          "name": "",
          "type": "uint256"
        }
      ],
      "stateMutability": "view",
      "type": "function"
    },
    {
      "inputs": [
        {
          "internalType": "bytes32",
          "name": "",
          "type": "bytes32"
        }
      ],
      "name": "workScopes",
      "outputs": [
        {
          "internalType": "string",
          "name": "",
          "type": "string"
        }
      ],
      "stateMutability": "view",
      "type": "function"
    }
  ],
  "bytecode": "0x60a0604052306080523480156200001557600080fd5b506200002062000026565b620000e8565b600054610100900460ff1615620000935760405162461bcd60e51b815260206004820152602760248201527f496e697469616c697a61626c653a20636f6e747261637420697320696e697469604482015266616c697a696e6760c81b606482015260840160405180910390fd5b60005460ff9081161015620000e6576000805460ff191660ff9081179091556040519081527f7f26b83ff96e1f2b6a682f133852f6798a09c465da95921460cefb38474024989060200160405180910390a15b565b60805161544e620001206000396000818161107e01528181611103015281816112eb0152818161137001526114fa015261544e6000f3fe6080604052600436106103755760003560e01c80636352211e116101d1578063b510391f11610102578063e345e0bc116100a0578063ef6f66d71161006f578063ef6f66d714610ab7578063f0f11e0514610ad7578063f72c0d8b14610af7578063f76f8d7814610b2b57600080fd5b8063e345e0bc146109fd578063e8a3d48514610a44578063e985e9c514610a59578063ed08fa8014610aa257600080fd5b8063c87b56dd116100dc578063c87b56dd1461097d578063d52fd0951461099d578063d547741f146109bd578063de62d842146109dd57600080fd5b8063b510391f1461091d578063b88d4fde1461093d578063c4d66de81461095d57600080fd5b806395d89b411161016f5780639cc7f708116101495780639cc7f70814610892578063a217fddf146108b2578063a22cb465146108c7578063a3f4df7e146108e757600080fd5b806395d89b4114610825578063993bef8d14610852578063997edc611461087257600080fd5b806372927aa3116101ab57806372927aa31461077e5780638cb0a511146107ab5780638f88b767146107be57806391d14854146107de57600080fd5b80636352211e1461071e57806369c672471461073e57806370a082311461075e57600080fd5b80632f2ff15d116102ab57806342966c68116102495780634f6ccce7116102235780634f6ccce7146106a25780634f8a0f83146106c257806352d1902d146106ef57806354fd4d501461070457600080fd5b806342966c681461065a57806348c02dc11461067a5780634f1ef2861461068f57600080fd5b806336568abe1161028557806336568abe146105e65780633659cfe6146106065780633e7e86691461062657806342842e0e1461063a57600080fd5b80632f2ff15d146105935780632f745c59146105b3578063310ed7f0146105d357600080fd5b806311e322081161031857806323b872dd116102f257806323b872dd146104fb578063248a9ca31461051b578063263f3e7e1461054c5780632e0f26251461056c57600080fd5b806311e32208146104a657806318160ddd146104c65780631e6ad4b8146104db57600080fd5b8063081812fc11610354578063081812fc14610419578063095ea7b31461045157806309c3dd87146104735780630f485c021461049357600080fd5b8062cd01101461037a57806301ffc9a7146103ad57806306fdde03146103dd575b600080fd5b34801561038657600080fd5b5061039a6103953660046143d2565b610b5b565b6040519081526020015b60405180910390f35b3480156103b957600080fd5b506103cd6103c836600461440a565b610b8f565b60405190151581526020016103a4565b3480156103e957600080fd5b5060408051808201909152600a8152694879706572436572747360b01b60208201525b6040516103a49190614477565b34801561042557600080fd5b5061043961043436600461448a565b610b9a565b6040516001600160a01b0390911681526020016103a4565b34801561045d57600080fd5b5061047161046c3660046144bf565b610bc1565b005b34801561047f57600080fd5b5061040c61048e36600461448a565b610cdb565b61039a6104a13660046144e9565b610d55565b3480156104b257600080fd5b5061039a6104c1366004614683565b610d9d565b3480156104d257600080fd5b5060995461039a565b3480156104e757600080fd5b5061039a6104f6366004614783565b610dd7565b34801561050757600080fd5b506104716105163660046147b8565b610e40565b34801561052757600080fd5b5061039a61053636600461448a565b6000908152610101602052604090206001015490565b34801561055857600080fd5b5061039a61056736600461448a565b610eb9565b34801561057857600080fd5b50610581600081565b60405160ff90911681526020016103a4565b34801561059f57600080fd5b506104716105ae3660046147e4565b610f04565b3480156105bf57600080fd5b5061039a6105ce3660046144bf565b610f2a565b6104716105e1366004614810565b610fd2565b3480156105f257600080fd5b506104716106013660046147e4565b610fe8565b34801561061257600080fd5b5061047161062136600461483c565b611074565b34801561063257600080fd5b506000610581565b34801561064657600080fd5b506104716106553660046147b8565b6111ef565b34801561066657600080fd5b5061047161067536600461448a565b61120a565b34801561068657600080fd5b5061047161127f565b61047161069d366004614857565b6112e1565b3480156106ae57600080fd5b5061039a6106bd36600461448a565b611449565b3480156106ce57600080fd5b5061039a6106dd36600461448a565b600090815260ff602052604090205490565b3480156106fb57600080fd5b5061039a6114ed565b34801561071057600080fd5b506101975461ffff1661039a565b34801561072a57600080fd5b5061043961073936600461448a565b6115b2565b34801561074a57600080fd5b506104716107593660046148a5565b611617565b34801561076a57600080fd5b5061039a61077936600461483c565b611768565b34801561078a57600080fd5b5061079e61079936600461448a565b611802565b6040516103a491906149c5565b6104716107b93660046144e9565b611c50565b3480156107ca57600080fd5b5061040c6107d936600461448a565b611cde565b3480156107ea57600080fd5b506103cd6107f93660046147e4565b6000918252610101602090815260408084206001600160a01b0393909316845291905290205460ff1690565b34801561083157600080fd5b506040805180820190915260048152631210d49560e21b602082015261040c565b34801561085e57600080fd5b5061039a61086d36600461448a565b611d79565b34801561087e57600080fd5b5061039a61088d366004614783565b611d8e565b34801561089e57600080fd5b5061039a6108ad36600461448a565b611dea565b3480156108be57600080fd5b5061039a600081565b3480156108d357600080fd5b506104716108e2366004614b11565b611e35565b3480156108f357600080fd5b5061040c6040518060400160405280600a8152602001694879706572436572747360b01b81525081565b34801561092957600080fd5b50610471610938366004614b4d565b611e40565b34801561094957600080fd5b50610471610958366004614bbd565b612045565b34801561096957600080fd5b5061047161097836600461483c565b6120be565b34801561098957600080fd5b5061040c61099836600461448a565b61225c565b3480156109a957600080fd5b5061040c6109b836600461448a565b6122a7565b3480156109c957600080fd5b506104716109d83660046147e4565b6122c1565b3480156109e957600080fd5b506104716109f8366004614c19565b6122e7565b348015610a0957600080fd5b5061039a610a183660046147e4565b600082815260fc602090815260408083206001600160a01b038516845260010190915290205492915050565b348015610a5057600080fd5b5061040c612370565b348015610a6557600080fd5b506103cd610a74366004614caa565b6001600160a01b039182166000908152606a6020908152604080832093909416825291909152205460ff1690565b348015610aae57600080fd5b5060fe5461039a565b348015610ac357600080fd5b5061040c610ad236600461448a565b6123d9565b348015610ae357600080fd5b5061039a610af2366004614783565b6123f3565b348015610b0357600080fd5b5061039a7f189ab7a9244df0848122154315af71fe140f3db0fe014031783b0946b8c9d2e381565b348015610b3757600080fd5b5061040c604051806040016040528060048152602001631210d49560e21b81525081565b600082815260ff60205260408120805483908110610b7b57610b7b614cd4565b906000526020600020015490505b92915050565b6000610b898261244f565b6000610ba582612474565b506000908152606960205260409020546001600160a01b031690565b6000610bcc826115b2565b9050806001600160a01b0316836001600160a01b031603610c3e5760405162461bcd60e51b815260206004820152602160248201527f4552433732313a20617070726f76616c20746f2063757272656e74206f776e656044820152603960f91b60648201526084015b60405180910390fd5b336001600160a01b0382161480610c5a5750610c5a8133610a74565b610ccc5760405162461bcd60e51b815260206004820152603e60248201527f4552433732313a20617070726f76652063616c6c6572206973206e6f7420746f60448201527f6b656e206f776e6572206e6f7220617070726f76656420666f7220616c6c00006064820152608401610c35565b610cd683836124d8565b505050565b610197546040516391383c8960e01b8152600481018390526060916201000090046001600160a01b0316906391383c89906024015b600060405180830381865afa158015610d2d573d6000803e3d6000fd5b505050506040513d6000823e601f3d908101601f19168201604052610b899190810190614cea565b6000610d62338584612546565b610d6b846125c9565b9050610d8b838260fd6000888152602001908152602001600020546125db565b610d968482846126ae565b9392505050565b600084848484604051602001610db69493929190614d58565b6040516020818303038152906040528051906020012090505b949350505050565b6000610de582610199612855565b600081815261019960205260409020909150610e018382614e17565b507f2efcce702e3d0b95b3deb632da6d41c3d169e0c3effb9066d949f14d6f13224f8183604051610e33929190614ed7565b60405180910390a1919050565b610e4b335b826128ca565b610eae5760405162461bcd60e51b815260206004820152602e60248201527f4552433732313a2063616c6c6572206973206e6f7420746f6b656e206f776e6560448201526d1c881b9bdc88185c1c1c9bdd995960921b6064820152608401610c35565b610cd6838383612948565b6000818152606760205260408120546001600160a01b0316610ef1576040516338077a2b60e01b815260048101839052602401610c35565b50600090815260fd602052604090205490565b60008281526101016020526040902060010154610f2081612b07565b610cd68383612b11565b6000610f3583611768565b8210610fa95760405162461bcd60e51b815260206004820152602b60248201527f455243373231456e756d657261626c653a206f776e657220696e646578206f7560448201527f74206f6620626f756e64730000000000000000000000000000000000000000006064820152608401610c35565b506001600160a01b03919091166000908152609760209081526040808320938352929052205490565b610fdd338483612546565b610cd68383836126ae565b6001600160a01b03811633146110665760405162461bcd60e51b815260206004820152602f60248201527f416363657373436f6e74726f6c3a2063616e206f6e6c792072656e6f756e636560448201527f20726f6c657320666f722073656c6600000000000000000000000000000000006064820152608401610c35565b6110708282612bb5565b5050565b6001600160a01b037f00000000000000000000000000000000000000000000000000000000000000001630036111015760405162461bcd60e51b815260206004820152602c60248201527f46756e6374696f6e206d7573742062652063616c6c6564207468726f7567682060448201526b19195b1959d85d1958d85b1b60a21b6064820152608401610c35565b7f00000000000000000000000000000000000000000000000000000000000000006001600160a01b031661115c7f360894a13ba1a3210667c828492db98dca3e2076cc3735a920a3ca505d382bbc546001600160a01b031690565b6001600160a01b0316146111c75760405162461bcd60e51b815260206004820152602c60248201527f46756e6374696f6e206d7573742062652063616c6c6564207468726f7567682060448201526b6163746976652070726f787960a01b6064820152608401610c35565b6111d081612c3a565b604080516000808252602082019092526111ec91839190612c64565b50565b610cd683838360405180602001604052806000815250612045565b61121333610e45565b6112765760405162461bcd60e51b815260206004820152602e60248201527f4552433732313a2063616c6c6572206973206e6f7420746f6b656e206f776e6560448201526d1c881b9bdc88185c1c1c9bdd995960921b6064820152608401610c35565b6111ec81612e04565b7f189ab7a9244df0848122154315af71fe140f3db0fe014031783b0946b8c9d2e36112a981612b07565b6101978054600191906000906112c490849061ffff16614f06565b92506101000a81548161ffff021916908361ffff16021790555050565b6001600160a01b037f000000000000000000000000000000000000000000000000000000000000000016300361136e5760405162461bcd60e51b815260206004820152602c60248201527f46756e6374696f6e206d7573742062652063616c6c6564207468726f7567682060448201526b19195b1959d85d1958d85b1b60a21b6064820152608401610c35565b7f00000000000000000000000000000000000000000000000000000000000000006001600160a01b03166113c97f360894a13ba1a3210667c828492db98dca3e2076cc3735a920a3ca505d382bbc546001600160a01b031690565b6001600160a01b0316146114345760405162461bcd60e51b815260206004820152602c60248201527f46756e6374696f6e206d7573742062652063616c6c6564207468726f7567682060448201526b6163746976652070726f787960a01b6064820152608401610c35565b61143d82612c3a565b61107082826001612c64565b600061145460995490565b82106114c85760405162461bcd60e51b815260206004820152602c60248201527f455243373231456e756d657261626c653a20676c6f62616c20696e646578206f60448201527f7574206f6620626f756e647300000000000000000000000000000000000000006064820152608401610c35565b609982815481106114db576114db614cd4565b90600052602060002001549050919050565b6000306001600160a01b037f0000000000000000000000000000000000000000000000000000000000000000161461158d5760405162461bcd60e51b815260206004820152603860248201527f555550535570677261646561626c653a206d757374206e6f742062652063616c60448201527f6c6564207468726f7567682064656c656761746563616c6c00000000000000006064820152608401610c35565b507f360894a13ba1a3210667c828492db98dca3e2076cc3735a920a3ca505d382bbc90565b6000818152606760205260408120546001600160a01b031680610b895760405162461bcd60e51b815260206004820152601860248201527f4552433732313a20696e76616c696420746f6b656e20494400000000000000006044820152606401610c35565b6000838152606760205260409020546001600160a01b031661164f576040516338077a2b60e01b815260048101849052602401610c35565b6000816001819003611677576040516314b27b7f60e31b815260048101869052602401610c35565b60005b818110156116ba5784848281811061169457611694614cd4565b90506020020135836116a69190614f21565b9250806116b281614f34565b91505061167a565b506116c485611dea565b8211806116d857506116d585611dea565b82105b156116f65760405163b4fa3fb360e01b815260040160405180910390fd5b82600061170287610eb9565b905060015b8281101561175e57600061171b60006125c9565b90506117283382856125db565b61174b89828a8a8681811061173f5761173f614cd4565b905060200201356126ae565b508061175681614f34565b915050611707565b5050505050505050565b60006001600160a01b0382166117e65760405162461bcd60e51b815260206004820152602960248201527f4552433732313a2061646472657373207a65726f206973206e6f74206120766160448201527f6c6964206f776e657200000000000000000000000000000000000000000000006064820152608401610c35565b506001600160a01b031660009081526068602052604090205490565b61180a6141ce565b600082815261019c6020908152604080832081516101a0810183528154815282518084019384905290949193850192909160018501916002918390855b82829054906101000a900467ffffffffffffffff1667ffffffffffffffff168152602001906008019060208260070104928301926001038202915080841161184757505050928452505060408051808201918290526020909301929150600284810191826000855b82829054906101000a900467ffffffffffffffff1667ffffffffffffffff16815260200190600801906020826007010492830192600103820291508084116118af579050505050505081526020016003820180548060200260200160405190810160405280929190818152602001828054801561194b57602002820191906000526020600020905b815481526020019060010190808311611937575b50505050508152602001600482018054806020026020016040519081016040528092919081815260200182805480156119a357602002820191906000526020600020905b81548152602001906001019080831161198f575b50505050508152602001600582018054806020026020016040519081016040528092919081815260200182805480156119fb57602002820191906000526020600020905b8154815260200190600101908083116119e7575b5050505050815260200160068201805480602002602001604051908101604052809291908181526020018280548015611a5d57602002820191906000526020600020905b81546001600160a01b03168152600190910190602001808311611a3f575b505050918352505060078201546020820152600882015461ffff8116604083015262010000900460ff1615156060820152600982018054608090920191611aa390614d97565b80601f0160208091040260200160405190810160405280929190818152602001828054611acf90614d97565b8015611b1c5780601f10611af157610100808354040283529160200191611b1c565b820191906000526020600020905b815481529060010190602001808311611aff57829003601f168201915b50505050508152602001600a82018054611b3590614d97565b80601f0160208091040260200160405190810160405280929190818152602001828054611b6190614d97565b8015611bae5780601f10611b8357610100808354040283529160200191611bae565b820191906000526020600020905b815481529060010190602001808311611b9157829003601f168201915b50505050508152602001600b82018054611bc790614d97565b80601f0160208091040260200160405190810160405280929190818152602001828054611bf390614d97565b8015611c405780601f10611c1557610100808354040283529160200191611c40565b820191906000526020600020905b815481529060010190602001808311611c2357829003601f168201915b5050505050815250509050919050565b6000611c5b846115b2565b9050806001600160a01b0316836001600160a01b031603611ca65760405162ea9f2160e81b8152600481018590523360248201526001600160a01b0384166044820152606401610c35565b611cb033856128ca565b611ccd5760405163390cdd9b60e21b815260040160405180910390fd5b611cd8848484612ee3565b50505050565b6101986020526000908152604090208054611cf890614d97565b80601f0160208091040260200160405190810160405280929190818152602001828054611d2490614d97565b8015611d715780601f10611d4657610100808354040283529160200191611d71565b820191906000526020600020905b815481529060010190602001808311611d5457829003601f168201915b505050505081565b600060fe82815481106114db576114db614cd4565b6000611d9c82610198612855565b600081815261019860205260409020909150611db88382614e17565b507f8b841033bc947e807d9766c542105a3dbb0bae62591be7b5c8cd4f37f698bf738183604051610e33929190614ed7565b6000818152606760205260408120546001600160a01b0316611e22576040516338077a2b60e01b815260048101839052602401610c35565b50600090815260fb602052604090205490565b611070338383612f6d565b600080611e4d848461303b565b91509150611e5b8583613119565b611e6d82600001518360c001516132f0565b8151600081815261019c602090815260409091208451815590840151849190611e9c9060018301906002614249565b506040820151611eb29060028084019190614249565b5060608201518051611ece9160038401916020909101906142f1565b5060808201518051611eea9160048401916020909101906142f1565b5060a08201518051611f069160058401916020909101906142f1565b5060c08201518051611f2291600684019160209091019061432c565b5060e082015160078201556101008201516008820180546101208501511515620100000262ffffff1990911661ffff909316929092179190911790556101408201516009820190611f739082614e17565b50610160820151600a820190611f899082614e17565b50610180820151600b820190611f9f9082614e17565b50508251905060005b81811015612000576000611fbc60006125c9565b9050611fed898286888681518110611fd657611fd6614cd4565b602002602001015167ffffffffffffffff166133cf565b5080611ff881614f34565b915050611fa8565b507f99ba308ef0906cce9332a23fc9ff0c458c3eb58aa3f023baa558fe9539d520f682888560405161203493929190614f4d565b60405180910390a150505050505050565b61204f33836128ca565b6120b25760405162461bcd60e51b815260206004820152602e60248201527f4552433732313a2063616c6c6572206973206e6f7420746f6b656e206f776e6560448201526d1c881b9bdc88185c1c1c9bdd995960921b6064820152608401610c35565b611cd8848484846134a3565b600054610100900460ff16158080156120de5750600054600160ff909116105b806120f85750303b1580156120f8575060005460ff166001145b61216a5760405162461bcd60e51b815260206004820152602e60248201527f496e697469616c697a61626c653a20636f6e747261637420697320616c72656160448201527f647920696e697469616c697a65640000000000000000000000000000000000006064820152608401610c35565b6000805460ff19166001179055801561218d576000805461ff0019166101001790555b61019780547fffffffffffffffffffff0000000000000000000000000000000000000000ffff16620100006001600160a01b038516021790556121ce61352c565b6121d661352c565b6121de61352c565b6121e9600033612b11565b6122137f189ab7a9244df0848122154315af71fe140f3db0fe014031783b0946b8c9d2e333612b11565b8015611070576000805461ff0019169055604051600181527f7f26b83ff96e1f2b6a682f133852f6798a09c465da95921460cefb38474024989060200160405180910390a15050565b610197546060906201000090046001600160a01b031663ed03f41a61228084610eb9565b846040518363ffffffff1660e01b8152600401610d10929190918252602082015260400190565b61019a6020526000908152604090208054611cf890614d97565b600082815261010160205260409020600101546122dd81612b07565b610cd68383612bb5565b80516000826122f7600184614fb5565b8151811061230757612307614cd4565b6020026020010151905060005b82811015611cd857600084828151811061233057612330614cd4565b6020026020010151905082811461235d57612354818461234f84611dea565b6126ae565b61235d81612e04565b508061236881614f34565b915050612314565b606061239960408051808201909152600a8152694879706572436572747360b01b602082015290565b6040805180820190915260048152631210d49560e21b60208201526040516020016123c5929190614fc8565b604051602081830303815290604052905090565b6101996020526000908152604090208054611cf890614d97565b60006124018261019a612855565b600081815261019a6020526040902090915061241d8382614e17565b507f4527d373276b1ece0c8dd18e140572f93feffd35a0993d9e4de70623b1ac93ce8183604051610e33929190614ed7565b60006001600160e01b03198216637965db0b60e01b1480610b895750610b89826135ab565b6000818152606760205260409020546001600160a01b03166111ec5760405162461bcd60e51b815260206004820152601860248201527f4552433732313a20696e76616c696420746f6b656e20494400000000000000006044820152606401610c35565b600081815260696020526040902080546001600160a01b0319166001600160a01b038416908117909155819061250d826115b2565b6001600160a01b03167f8c5be1e5ebec7d5bd14f71427d1e84f3dd0314c0f7b2291e5b200ac8c7c3b92560405160405180910390a45050565b600082815260fc602090815260408083206001600160a01b038716845260010190915290205461257684846128ca565b15801561258557506000198114155b15611cd857818110156125b55760405163054365bb60e31b81526004810183905260248101829052604401610c35565b611cd883856125c48585614fb5565b612ee3565b6000610100546001610b899190614f21565b6125e58383613606565b600082815260fd6020908152604080832084905583835260ff90915281205490036126405760fe80546001810182556000919091527f54075df80ec1ae6ac9100e1fd0ebf3246c17f5c933137af392011f4c5f61513a018190555b600081815260ff6020908152604080832080546001810182559084529183209091018490555182919084907fe4f48c240d3b994948aa54f3e2f5fca59263dfe1d52b6e4cf39a5d249b5ccb65908390a4600161010060008282546126a49190614f21565b9091555050505050565b6000838152606760205260409020546001600160a01b03166126e6576040516338077a2b60e01b815260048101849052602401610c35565b6000828152606760205260409020546001600160a01b031661271e576040516338077a2b60e01b815260048101839052602401610c35565b600083815260fb602052604090205481111561276857600083815260fb60205260409081902054905163cf47918160e01b8152610c35918391600401918252602082015260400190565b600082815260fd602052604080822054858352912054146127a657604051630240901360e61b81526004810184905260248101839052604401610c35565b60006127b1846115b2565b905060006127be846115b2565b600086815260fb60205260408120805492935085929091906127e1908490614fb5565b9091555050600084815260fb602052604081208054859290612804908490614f21565b9091555050600085905260fd60205283857f0b2aac84f3ec956911fd78eae5311062972ff949f38412e8da39069d9f068cc68560405161284691815260200190565b60405180910390a35050505050565b600082516000036128795760405163a447fc5360e01b815260040160405180910390fd5b8260405160200161288a9190614477565b6040516020818303038152906040528051906020012090506128ac828261375c565b15610b895760405163331d850160e01b815260040160405180910390fd5b6000806128d6836115b2565b9050806001600160a01b0316846001600160a01b0316148061291d57506001600160a01b038082166000908152606a602090815260408083209388168352929052205460ff165b80610dcf5750836001600160a01b031661293684610b9a565b6001600160a01b031614949350505050565b826001600160a01b031661295b826115b2565b6001600160a01b0316146129d75760405162461bcd60e51b815260206004820152602560248201527f4552433732313a207472616e736665722066726f6d20696e636f72726563742060448201527f6f776e65720000000000000000000000000000000000000000000000000000006064820152608401610c35565b6001600160a01b038216612a395760405162461bcd60e51b8152602060048201526024808201527f4552433732313a207472616e7366657220746f20746865207a65726f206164646044820152637265737360e01b6064820152608401610c35565b612a44838383613783565b612a4f6000826124d8565b6001600160a01b0383166000908152606860205260408120805460019290612a78908490614fb5565b90915550506001600160a01b0382166000908152606860205260408120805460019290612aa6908490614f21565b909155505060008181526067602052604080822080546001600160a01b0319166001600160a01b0386811691821790925591518493918716917fddf252ad1be2c89b69c2b068fc378daa952ba7f163c4a11628f55a4df523b3ef91a4505050565b6111ec8133613825565b6000828152610101602090815260408083206001600160a01b038516845290915290205460ff16611070576000828152610101602090815260408083206001600160a01b03851684529091529020805460ff19166001179055612b713390565b6001600160a01b0316816001600160a01b0316837f2f8788117e7eff1d82e926ec794901d17c78024a50270940304540a733656f0d60405160405180910390a45050565b6000828152610101602090815260408083206001600160a01b038516845290915290205460ff1615611070576000828152610101602090815260408083206001600160a01b0385168085529252808320805460ff1916905551339285917ff6391f5c32d9c69d2a47ea670b442974b53935d1edc7fd64eb21e047a839171b9190a45050565b7f189ab7a9244df0848122154315af71fe140f3db0fe014031783b0946b8c9d2e361107081612b07565b7f4910fdfa16fed3260ed0e7147f7cc6da11a60208b5b9406d12a635614ffd91435460ff1615612c9757610cd6836138a6565b826001600160a01b03166352d1902d6040518163ffffffff1660e01b8152600401602060405180830381865afa925050508015612cf1575060408051601f3d908101601f19168201909252612cee9181019061507d565b60015b612d635760405162461bcd60e51b815260206004820152602e60248201527f45524331393637557067726164653a206e657720696d706c656d656e7461746960448201527f6f6e206973206e6f7420555550530000000000000000000000000000000000006064820152608401610c35565b7f360894a13ba1a3210667c828492db98dca3e2076cc3735a920a3ca505d382bbc8114612df85760405162461bcd60e51b815260206004820152602960248201527f45524331393637557067726164653a20756e737570706f727465642070726f7860448201527f6961626c655555494400000000000000000000000000000000000000000000006064820152608401610c35565b50610cd6838383613964565b6000612e0f826115b2565b9050336001600160a01b03821614612e3a5760405163390cdd9b60e21b815260040160405180910390fd5b600082815260fd602090815260408083205460fb90925290912054612e5e84613989565b600084815260fd6020908152604080832083905560fb82528083208390555183815286917f0b2aac84f3ec956911fd78eae5311062972ff949f38412e8da39069d9f068cc6910160405180910390a3600082857fe4f48c240d3b994948aa54f3e2f5fca59263dfe1d52b6e4cf39a5d249b5ccb6560405160405180910390a450505050565b600083815260fc6020908152604080832080546001808201835582865284862090910180546001600160a01b0319166001600160a01b038916908117909155808652908201845293829020859055905184815290929186917f621b050de0ad08b51d19b48b3e6df75348c4de6bdd93e81b252ca62e28265b1b91015b60405180910390a350505050565b816001600160a01b0316836001600160a01b031603612fce5760405162461bcd60e51b815260206004820152601960248201527f4552433732313a20617070726f766520746f2063616c6c6572000000000000006044820152606401610c35565b6001600160a01b038381166000818152606a6020908152604080832094871680845294825291829020805460ff191686151590811790915591519182527f17307eab39ab6107e8899845ad3d59bd9653f200f220920489ca2b5937696c31910160405180910390a3505050565b6130436141ce565b606060008390036130675760405163a447fc5360e01b815260040160405180910390fd5b600080808080808080808061307e8d8f018f61515a565b995099509950995099509950995099509950995061309e878a888b610d9d565b8c5260c08c0185905260208c0187905260408c0186905260608c0189905260808c0188905260a08c018a90526130d381613a30565b67ffffffffffffffff1660e08d015260006101008d015260016101208d01526101408c01939093526101608b01919091526101808a015296505050505050509250929050565b6001600160a01b03821661314057604051630c63e1ed60e11b815260040160405180910390fd5b60208181015190810151905167ffffffffffffffff9182169116111561319d57602081015180519060015b6020020151604051630b58ad1560e21b815267ffffffffffffffff928316600482015291166024820152604401610c35565b60408101516020810151905167ffffffffffffffff918216911611156131cc576040810151805190600161316b565b60408101515160208201515167ffffffffffffffff918216911611156131fe576020810151516040820151600061316b565b60808101515160005b8181101561327f5761019960008460800151838151811061322a5761322a614cd4565b60200260200101518152602001908152602001600020805461324b90614d97565b905060000361326d5760405163725a844f60e01b815260040160405180910390fd5b8061327781614f34565b915050613207565b5060608201515160005b818110156132e9576132ba610198856060015183815181106132ad576132ad614cd4565b602002602001015161375c565b6132d75760405163725a844f60e01b815260040160405180910390fd5b806132e181614f34565b915050613289565b5050505050565b60005b8151811015610cd65761019b600083838151811061331357613313614cd4565b6020908102919091018101516001600160a01b03168252818101929092526040908101600090812086825290925290205460ff16156133655760405163755402db60e11b815260040160405180910390fd5b600161019b600084848151811061337e5761337e614cd4565b6020908102919091018101516001600160a01b0316825281810192909252604090810160009081208782529092529020805460ff1916911515919091179055806133c781614f34565b9150506132f3565b6001600160a01b0384166133f657604051630c63e1ed60e11b815260040160405180910390fd5b8260000361341a5760405163d338ed0760e01b815260048101849052602401610c35565b6000838152606760205260409020546001600160a01b031615613453576040516314b27b7f60e31b815260048101849052602401610c35565b61345e8484846125db565b600083815260fb602052604090208190558260007f0b2aac84f3ec956911fd78eae5311062972ff949f38412e8da39069d9f068cc683604051612f5f91815260200190565b6134ae848484612948565b6134ba84848484613a90565b611cd85760405162461bcd60e51b815260206004820152603260248201527f4552433732313a207472616e7366657220746f206e6f6e20455243373231526560448201527f63656976657220696d706c656d656e74657200000000000000000000000000006064820152608401610c35565b600054610100900460ff166135a95760405162461bcd60e51b815260206004820152602b60248201527f496e697469616c697a61626c653a20636f6e7472616374206973206e6f74206960448201527f6e697469616c697a696e670000000000000000000000000000000000000000006064820152608401610c35565b565b60006001600160e01b031982166370b0048160e11b14806135dc57506001600160e01b03198216631dba0dcf60e11b145b806135f757506001600160e01b03198216630354d60560e61b145b80610b895750610b8982613be4565b6001600160a01b03821661365c5760405162461bcd60e51b815260206004820181905260248201527f4552433732313a206d696e7420746f20746865207a65726f20616464726573736044820152606401610c35565b6000818152606760205260409020546001600160a01b0316156136c15760405162461bcd60e51b815260206004820152601c60248201527f4552433732313a20746f6b656e20616c7265616479206d696e746564000000006044820152606401610c35565b6136cd60008383613783565b6001600160a01b03821660009081526068602052604081208054600192906136f6908490614f21565b909155505060008181526067602052604080822080546001600160a01b0319166001600160a01b03861690811790915590518392907fddf252ad1be2c89b69c2b068fc378daa952ba7f163c4a11628f55a4df523b3ef908290a45050565b505050505050565b6000818152602083905260408120805482919061377890614d97565b905011905092915050565b61378e838383613c09565b600081815260fc6020526040812054905b8181101561380d57600083815260fc602052604081208054839081106137c7576137c7614cd4565b600091825260208083209091015486835260fc825260408084206001600160a01b039092168452600191909101909152812055508061380581614f34565b91505061379f565b50600082815260fc60205260408120611cd891614381565b6000828152610101602090815260408083206001600160a01b038516845290915290205460ff1661107057613864816001600160a01b03166014613cc1565b61386f836020613cc1565b6040516020016138809291906152c1565b60408051601f198184030181529082905262461bcd60e51b8252610c3591600401614477565b6001600160a01b0381163b6139235760405162461bcd60e51b815260206004820152602d60248201527f455243313936373a206e657720696d706c656d656e746174696f6e206973206e60448201527f6f74206120636f6e7472616374000000000000000000000000000000000000006064820152608401610c35565b7f360894a13ba1a3210667c828492db98dca3e2076cc3735a920a3ca505d382bbc80546001600160a01b0319166001600160a01b0392909216919091179055565b61396d83613e6a565b60008251118061397a5750805b15610cd657611cd88383613eaa565b6000613994826115b2565b90506139a281600084613783565b6139ad6000836124d8565b6001600160a01b03811660009081526068602052604081208054600192906139d6908490614fb5565b909155505060008281526067602052604080822080546001600160a01b0319169055518391906001600160a01b038416907fddf252ad1be2c89b69c2b068fc378daa952ba7f163c4a11628f55a4df523b3ef908390a45050565b60008151600003613a4357506000919050565b6000805b8351811015613a8957838181518110613a6257613a62614cd4565b602002602001015182613a759190615342565b915080613a8181614f34565b915050613a47565b5092915050565b60006001600160a01b0384163b15613bdc57604051630a85bd0160e11b81526001600160a01b0385169063150b7a0290613ad4903390899088908890600401615363565b6020604051808303816000875af1925050508015613b0f575060408051601f3d908101601f19168201909252613b0c91810190615395565b60015b613bc2573d808015613b3d576040519150601f19603f3d011682016040523d82523d6000602084013e613b42565b606091505b508051600003613bba5760405162461bcd60e51b815260206004820152603260248201527f4552433732313a207472616e7366657220746f206e6f6e20455243373231526560448201527f63656976657220696d706c656d656e74657200000000000000000000000000006064820152608401610c35565b805181602001fd5b6001600160e01b031916630a85bd0160e11b149050610dcf565b506001610dcf565b60006001600160e01b0319821663780e9d6360e01b1480610b895750610b8982613fb5565b6001600160a01b038316613c6457613c5f81609980546000838152609a60205260408120829055600182018355919091527f72a152ddfb8e864297c917af52ea6c1c68aead0fee1a62673fcc7e0c94979d000155565b613c87565b816001600160a01b0316836001600160a01b031614613c8757613c878382614005565b6001600160a01b038216613c9e57610cd6816140a2565b826001600160a01b0316826001600160a01b031614610cd657610cd68282614151565b60606000613cd08360026153b2565b613cdb906002614f21565b67ffffffffffffffff811115613cf357613cf361451e565b6040519080825280601f01601f191660200182016040528015613d1d576020820181803683370190505b509050600360fc1b81600081518110613d3857613d38614cd4565b60200101906001600160f81b031916908160001a905350600f60fb1b81600181518110613d6757613d67614cd4565b60200101906001600160f81b031916908160001a9053506000613d8b8460026153b2565b613d96906001614f21565b90505b6001811115613e1b577f303132333435363738396162636465660000000000000000000000000000000085600f1660108110613dd757613dd7614cd4565b1a60f81b828281518110613ded57613ded614cd4565b60200101906001600160f81b031916908160001a90535060049490941c93613e14816153d1565b9050613d99565b508315610d965760405162461bcd60e51b815260206004820181905260248201527f537472696e67733a20686578206c656e67746820696e73756666696369656e746044820152606401610c35565b613e73816138a6565b6040516001600160a01b038216907fbc7cd75a20ee27fd9adebab32041f755214dbc6bffa90cc0225b39da2e5c2d3b90600090a250565b60606001600160a01b0383163b613f295760405162461bcd60e51b815260206004820152602660248201527f416464726573733a2064656c65676174652063616c6c20746f206e6f6e2d636f60448201527f6e747261637400000000000000000000000000000000000000000000000000006064820152608401610c35565b600080846001600160a01b031684604051613f4491906153e8565b600060405180830381855af49150503d8060008114613f7f576040519150601f19603f3d011682016040523d82523d6000602084013e613f84565b606091505b5091509150613fac828260405180606001604052806027815260200161541b60279139614195565b95945050505050565b60006001600160e01b031982166380ac58cd60e01b1480613fe657506001600160e01b03198216635b5e139f60e01b145b80610b8957506301ffc9a760e01b6001600160e01b0319831614610b89565b6000600161401284611768565b61401c9190614fb5565b60008381526098602052604090205490915080821461406f576001600160a01b03841660009081526097602090815260408083208584528252808320548484528184208190558352609890915290208190555b5060009182526098602090815260408084208490556001600160a01b039094168352609781528383209183525290812055565b6099546000906140b490600190614fb5565b6000838152609a6020526040812054609980549394509092849081106140dc576140dc614cd4565b9060005260206000200154905080609983815481106140fd576140fd614cd4565b6000918252602080832090910192909255828152609a9091526040808220849055858252812055609980548061413557614135615404565b6001900381819060005260206000200160009055905550505050565b600061415c83611768565b6001600160a01b039093166000908152609760209081526040808320868452825280832085905593825260989052919091209190915550565b606083156141a4575081610d96565b8251156141b45782518084602001fd5b8160405162461bcd60e51b8152600401610c359190614477565b604080516101a0810190915260008152602081016141ea61439f565b81526020016141f761439f565b81526020016060815260200160608152602001606081526020016060815260200160008152602001600061ffff1681526020016000151581526020016060815260200160608152602001606081525090565b6001830191839082156142e15791602002820160005b838211156142ab57835183826101000a81548167ffffffffffffffff021916908367ffffffffffffffff160217905550926020019260080160208160070104928301926001030261425f565b80156142df5782816101000a81549067ffffffffffffffff02191690556008016020816007010492830192600103026142ab565b505b506142ed9291506143bd565b5090565b8280548282559060005260206000209081019282156142e1579160200282015b828111156142e1578251825591602001919060010190614311565b8280548282559060005260206000209081019282156142e1579160200282015b828111156142e157825182546001600160a01b0319166001600160a01b0390911617825560209092019160019091019061434c565b50805460008255906000526020600020908101906111ec91906143bd565b60405180604001604052806002906020820280368337509192915050565b5b808211156142ed57600081556001016143be565b600080604083850312156143e557600080fd5b50508035926020909101359150565b6001600160e01b0319811681146111ec57600080fd5b60006020828403121561441c57600080fd5b8135610d96816143f4565b60005b8381101561444257818101518382015260200161442a565b50506000910152565b60008151808452614463816020860160208601614427565b601f01601f19169290920160200192915050565b602081526000610d96602083018461444b565b60006020828403121561449c57600080fd5b5035919050565b80356001600160a01b03811681146144ba57600080fd5b919050565b600080604083850312156144d257600080fd5b6144db836144a3565b946020939093013593505050565b6000806000606084860312156144fe57600080fd5b8335925061450e602085016144a3565b9150604084013590509250925092565b634e487b7160e01b600052604160045260246000fd5b604051601f8201601f1916810167ffffffffffffffff8111828210171561455d5761455d61451e565b604052919050565b803567ffffffffffffffff811681146144ba57600080fd5b600082601f83011261458e57600080fd5b6040516040810181811067ffffffffffffffff821117156145b1576145b161451e565b80604052508060408401858111156145c857600080fd5b845b818110156145e9576145db81614565565b8352602092830192016145ca565b509195945050505050565b600067ffffffffffffffff82111561460e5761460e61451e565b5060051b60200190565b600082601f83011261462957600080fd5b8135602061463e614639836145f4565b614534565b82815260059290921b8401810191818101908684111561465d57600080fd5b8286015b848110156146785780358352918301918301614661565b509695505050505050565b60008060008060c0858703121561469957600080fd5b6146a3868661457d565b9350604085013567ffffffffffffffff808211156146c057600080fd5b6146cc88838901614618565b94506146db886060890161457d565b935060a08701359150808211156146f157600080fd5b506146fe87828801614618565b91505092959194509250565b600067ffffffffffffffff8211156147245761472461451e565b50601f01601f191660200190565b600082601f83011261474357600080fd5b81356147516146398261470a565b81815284602083860101111561476657600080fd5b816020850160208301376000918101602001919091529392505050565b60006020828403121561479557600080fd5b813567ffffffffffffffff8111156147ac57600080fd5b610dcf84828501614732565b6000806000606084860312156147cd57600080fd5b6147d6846144a3565b925061450e602085016144a3565b600080604083850312156147f757600080fd5b82359150614807602084016144a3565b90509250929050565b60008060006060848603121561482557600080fd5b505081359360208301359350604090920135919050565b60006020828403121561484e57600080fd5b610d96826144a3565b6000806040838503121561486a57600080fd5b614873836144a3565b9150602083013567ffffffffffffffff81111561488f57600080fd5b61489b85828601614732565b9150509250929050565b6000806000604084860312156148ba57600080fd5b83359250602084013567ffffffffffffffff808211156148d957600080fd5b818601915086601f8301126148ed57600080fd5b8135818111156148fc57600080fd5b8760208260051b850101111561491157600080fd5b6020830194508093505050509250925092565b8060005b6002811015611cd857815167ffffffffffffffff16845260209384019390910190600101614928565b600081518084526020808501945080840160005b8381101561498157815187529582019590820190600101614965565b509495945050505050565b600081518084526020808501945080840160005b838110156149815781516001600160a01b0316875295820195908201906001016149a0565b6020815281516020820152600060208301516149e46040840182614924565b5060408301516149f76080840182614924565b5060608301516101e08060c0850152614a14610200850183614951565b91506080850151601f19808685030160e0870152614a328483614951565b935060a08701519150610100818786030181880152614a518584614951565b945060c08801519250610120828887030181890152614a70868561498c565b955060e0890151935061014084818a0152828a015194506101609250614a9b838a018661ffff169052565b90890151935061018090614ab28983018615159052565b89015188870384016101a08a01529350614acc868561444b565b955081890151935082888703016101c0890152614ae9868561444b565b9550808901519350505080868503018387015250614b07838261444b565b9695505050505050565b60008060408385031215614b2457600080fd5b614b2d836144a3565b915060208301358015158114614b4257600080fd5b809150509250929050565b600080600060408486031215614b6257600080fd5b614b6b846144a3565b9250602084013567ffffffffffffffff80821115614b8857600080fd5b818601915086601f830112614b9c57600080fd5b813581811115614bab57600080fd5b87602082850101111561491157600080fd5b60008060008060808587031215614bd357600080fd5b614bdc856144a3565b9350614bea602086016144a3565b925060408501359150606085013567ffffffffffffffff811115614c0d57600080fd5b6146fe87828801614732565b60006020808385031215614c2c57600080fd5b823567ffffffffffffffff811115614c4357600080fd5b8301601f81018513614c5457600080fd5b8035614c62614639826145f4565b81815260059190911b82018301908381019087831115614c8157600080fd5b928401925b82841015614c9f57833582529284019290840190614c86565b979650505050505050565b60008060408385031215614cbd57600080fd5b614cc6836144a3565b9150614807602084016144a3565b634e487b7160e01b600052603260045260246000fd5b600060208284031215614cfc57600080fd5b815167ffffffffffffffff811115614d1357600080fd5b8201601f81018413614d2457600080fd5b8051614d326146398261470a565b818152856020838501011115614d4757600080fd5b613fac826020830160208601614427565b614d628186614924565b60c060408201526000614d7860c0830186614951565b614d856060840186614924565b82810360a0840152614c9f8185614951565b600181811c90821680614dab57607f821691505b602082108103614dcb57634e487b7160e01b600052602260045260246000fd5b50919050565b601f821115610cd657600081815260208120601f850160051c81016020861015614df85750805b601f850160051c820191505b8181101561375457828155600101614e04565b815167ffffffffffffffff811115614e3157614e3161451e565b614e4581614e3f8454614d97565b84614dd1565b602080601f831160018114614e7a5760008415614e625750858301515b600019600386901b1c1916600185901b178555613754565b600085815260208120601f198616915b82811015614ea957888601518255948401946001909101908401614e8a565b5085821015614ec75787850151600019600388901b60f8161c191681555b5050505050600190811b01905550565b828152604060208201526000610dcf604083018461444b565b634e487b7160e01b600052601160045260246000fd5b61ffff818116838216019080821115613a8957613a89614ef0565b80820180821115610b8957610b89614ef0565b600060018201614f4657614f46614ef0565b5060010190565b60006060820185835260206001600160a01b0386168185015260606040850152818551808452608086019150828701935060005b81811015614fa757845167ffffffffffffffff1683529383019391830191600101614f81565b509098975050505050505050565b81810381811115610b8957610b89614ef0565b7f646174613a6170706c69636174696f6e2f6a736f6e3b7b00000000000000000081527f226e616d65223a0000000000000000000000000000000000000000000000000060178201526000835161502681601e850160208801614427565b7f2c2273796d626f6c223a00000000000000000000000000000000000000000000601e918401918201528351615063816028840160208801614427565b607d60f81b60289290910191820152602901949350505050565b60006020828403121561508f57600080fd5b5051919050565b600082601f8301126150a757600080fd5b813560206150b7614639836145f4565b82815260059290921b840181019181810190868411156150d657600080fd5b8286015b84811015614678576150eb816144a3565b83529183019183016150da565b600082601f83011261510957600080fd5b81356020615119614639836145f4565b82815260059290921b8401810191818101908684111561513857600080fd5b8286015b848110156146785761514d81614565565b835291830191830161513c565b6000806000806000806000806000806101808b8d03121561517a57600080fd5b8a3567ffffffffffffffff8082111561519257600080fd5b61519e8e838f01614618565b9b5060208d01359150808211156151b457600080fd5b6151c08e838f01614618565b9a5060408d01359150808211156151d657600080fd5b6151e28e838f01614618565b99506151f18e60608f0161457d565b98506152008e60a08f0161457d565b975060e08d013591508082111561521657600080fd5b6152228e838f01615096565b96506101008d013591508082111561523957600080fd5b6152458e838f01614732565b95506101208d013591508082111561525c57600080fd5b6152688e838f01614732565b94506101408d013591508082111561527f57600080fd5b61528b8e838f01614732565b93506101608d01359150808211156152a257600080fd5b506152af8d828e016150f8565b9150509295989b9194979a5092959850565b7f416363657373436f6e74726f6c3a206163636f756e74200000000000000000008152600083516152f9816017850160208801614427565b7f206973206d697373696e6720726f6c65200000000000000000000000000000006017918401918201528351615336816028840160208801614427565b01602801949350505050565b67ffffffffffffffff818116838216019080821115613a8957613a89614ef0565b60006001600160a01b03808716835280861660208401525083604083015260806060830152614b07608083018461444b565b6000602082840312156153a757600080fd5b8151610d96816143f4565b60008160001904831182151516156153cc576153cc614ef0565b500290565b6000816153e0576153e0614ef0565b506000190190565b600082516153fa818460208701614427565b9190910192915050565b634e487b7160e01b600052603160045260246000fdfe416464726573733a206c6f772d6c6576656c2064656c65676174652063616c6c206661696c6564a164736f6c6343000810000a",
  "linkReferences": {},
  "deployedLinkReferences": {}
}