{
  "_format": "hh-sol-artifact-1",
  "contractName": "HyperCertMinter",
  "sourceName": "contracts/HyperCertMinter.sol",
  "abi": [
    {
      "inputs": [],
      "stateMutability": "nonpayable",
      "type": "constructor"
    },
    {
      "inputs": [
        {
          "internalType": "uint256",
          "name": "tokenId",
          "type": "uint256"
        }
      ],
      "name": "AlreadyMinted",
      "type": "error"
    },
    {
      "inputs": [],
      "name": "ConflictingClaim",
      "type": "error"
    },
    {
      "inputs": [],
      "name": "DuplicateScope",
      "type": "error"
    },
    {
      "inputs": [],
      "name": "EmptyInput",
      "type": "error"
    },
    {
      "inputs": [
        {
          "internalType": "uint256",
          "name": "transferAmount",
          "type": "uint256"
        },
        {
          "internalType": "uint256",
          "name": "allowance",
          "type": "uint256"
        }
      ],
      "name": "InsufficientAllowance",
      "type": "error"
    },
    {
      "inputs": [
        {
          "internalType": "uint256",
          "name": "transferAmount",
          "type": "uint256"
        },
        {
          "internalType": "uint256",
          "name": "balance",
          "type": "uint256"
        }
      ],
      "name": "InsufficientBalance",
      "type": "error"
    },
    {
      "inputs": [
        {
          "internalType": "uint256",
          "name": "tokenId",
          "type": "uint256"
        },
        {
          "internalType": "address",
          "name": "from",
          "type": "address"
        },
        {
          "internalType": "address",
          "name": "to",
          "type": "address"
        }
      ],
      "name": "InvalidApproval",
      "type": "error"
    },
    {
      "inputs": [
        {
          "internalType": "uint256",
          "name": "tokenId",
          "type": "uint256"
        }
      ],
      "name": "InvalidID",
      "type": "error"
    },
    {
      "inputs": [],
      "name": "InvalidInput",
      "type": "error"
    },
    {
      "inputs": [],
      "name": "InvalidScope",
      "type": "error"
    },
    {
      "inputs": [
        {
          "internalType": "uint64",
          "name": "from",
          "type": "uint64"
        },
        {
          "internalType": "uint64",
          "name": "to",
          "type": "uint64"
        }
      ],
      "name": "InvalidTimeframe",
      "type": "error"
    },
    {
      "inputs": [
        {
          "internalType": "uint256",
          "name": "tokenId",
          "type": "uint256"
        }
      ],
      "name": "NonExistentToken",
      "type": "error"
    },
    {
      "inputs": [],
      "name": "NotApprovedOrOwner",
      "type": "error"
    },
    {
      "inputs": [
        {
          "internalType": "address",
          "name": "receiver",
          "type": "address"
        }
      ],
      "name": "NotERC3525Receiver",
      "type": "error"
    },
    {
      "inputs": [],
      "name": "SlotAlreadyMinted",
      "type": "error"
    },
    {
      "inputs": [
        {
          "internalType": "uint256",
          "name": "slotId",
          "type": "uint256"
        }
      ],
      "name": "SlotOutOfBounds",
      "type": "error"
    },
    {
      "inputs": [
        {
          "internalType": "uint256",
          "name": "slotId",
          "type": "uint256"
        },
        {
          "internalType": "uint256",
          "name": "tokenId",
          "type": "uint256"
        }
      ],
      "name": "SlotTokenOutOfBounds",
      "type": "error"
    },
    {
      "inputs": [
        {
          "internalType": "uint256",
          "name": "fromTokenId",
          "type": "uint256"
        },
        {
          "internalType": "uint256",
          "name": "toTokenId",
          "type": "uint256"
        }
      ],
      "name": "SlotsMismatch",
      "type": "error"
    },
    {
      "inputs": [],
      "name": "ToZeroAddress",
      "type": "error"
    },
    {
      "anonymous": false,
      "inputs": [
        {
          "indexed": false,
          "internalType": "address",
          "name": "previousAdmin",
          "type": "address"
        },
        {
          "indexed": false,
          "internalType": "address",
          "name": "newAdmin",
          "type": "address"
        }
      ],
      "name": "AdminChanged",
      "type": "event"
    },
    {
      "anonymous": false,
      "inputs": [
        {
          "indexed": true,
          "internalType": "address",
          "name": "owner",
          "type": "address"
        },
        {
          "indexed": true,
          "internalType": "address",
          "name": "approved",
          "type": "address"
        },
        {
          "indexed": true,
          "internalType": "uint256",
          "name": "tokenId",
          "type": "uint256"
        }
      ],
      "name": "Approval",
      "type": "event"
    },
    {
      "anonymous": false,
      "inputs": [
        {
          "indexed": true,
          "internalType": "address",
          "name": "owner",
          "type": "address"
        },
        {
          "indexed": true,
          "internalType": "address",
          "name": "operator",
          "type": "address"
        },
        {
          "indexed": false,
          "internalType": "bool",
          "name": "approved",
          "type": "bool"
        }
      ],
      "name": "ApprovalForAll",
      "type": "event"
    },
    {
      "anonymous": false,
      "inputs": [
        {
          "indexed": true,
          "internalType": "uint256",
          "name": "_tokenId",
          "type": "uint256"
        },
        {
          "indexed": true,
          "internalType": "address",
          "name": "_operator",
          "type": "address"
        },
        {
          "indexed": false,
          "internalType": "uint256",
          "name": "_value",
          "type": "uint256"
        }
      ],
      "name": "ApprovalValue",
      "type": "event"
    },
    {
      "anonymous": false,
      "inputs": [
        {
          "indexed": true,
          "internalType": "address",
          "name": "beacon",
          "type": "address"
        }
      ],
      "name": "BeaconUpgraded",
      "type": "event"
    },
    {
      "anonymous": false,
      "inputs": [
        {
          "indexed": false,
          "internalType": "uint256",
          "name": "id",
          "type": "uint256"
        },
        {
          "indexed": false,
          "internalType": "address",
          "name": "minter",
          "type": "address"
        },
        {
          "indexed": false,
          "internalType": "uint64[]",
          "name": "fractions",
          "type": "uint64[]"
        }
      ],
      "name": "ImpactClaimed",
      "type": "event"
    },
    {
      "anonymous": false,
      "inputs": [
        {
          "indexed": false,
          "internalType": "bytes32",
          "name": "id",
          "type": "bytes32"
        },
        {
          "indexed": false,
          "internalType": "string",
          "name": "text",
          "type": "string"
        }
      ],
      "name": "ImpactScopeAdded",
      "type": "event"
    },
    {
      "anonymous": false,
      "inputs": [
        {
          "indexed": false,
          "internalType": "uint8",
          "name": "version",
          "type": "uint8"
        }
      ],
      "name": "Initialized",
      "type": "event"
    },
    {
      "anonymous": false,
      "inputs": [
        {
          "indexed": false,
          "internalType": "bytes32",
          "name": "id",
          "type": "bytes32"
        },
        {
          "indexed": false,
          "internalType": "string",
          "name": "text",
          "type": "string"
        }
      ],
      "name": "RightAdded",
      "type": "event"
    },
    {
      "anonymous": false,
      "inputs": [
        {
          "indexed": true,
          "internalType": "bytes32",
          "name": "role",
          "type": "bytes32"
        },
        {
          "indexed": true,
          "internalType": "bytes32",
          "name": "previousAdminRole",
          "type": "bytes32"
        },
        {
          "indexed": true,
          "internalType": "bytes32",
          "name": "newAdminRole",
          "type": "bytes32"
        }
      ],
      "name": "RoleAdminChanged",
      "type": "event"
    },
    {
      "anonymous": false,
      "inputs": [
        {
          "indexed": true,
          "internalType": "bytes32",
          "name": "role",
          "type": "bytes32"
        },
        {
          "indexed": true,
          "internalType": "address",
          "name": "account",
          "type": "address"
        },
        {
          "indexed": true,
          "internalType": "address",
          "name": "sender",
          "type": "address"
        }
      ],
      "name": "RoleGranted",
      "type": "event"
    },
    {
      "anonymous": false,
      "inputs": [
        {
          "indexed": true,
          "internalType": "bytes32",
          "name": "role",
          "type": "bytes32"
        },
        {
          "indexed": true,
          "internalType": "address",
          "name": "account",
          "type": "address"
        },
        {
          "indexed": true,
          "internalType": "address",
          "name": "sender",
          "type": "address"
        }
      ],
      "name": "RoleRevoked",
      "type": "event"
    },
    {
      "anonymous": false,
      "inputs": [
        {
          "indexed": true,
          "internalType": "uint256",
          "name": "_tokenId",
          "type": "uint256"
        },
        {
          "indexed": true,
          "internalType": "uint256",
          "name": "_oldSlot",
          "type": "uint256"
        },
        {
          "indexed": true,
          "internalType": "uint256",
          "name": "_newSlot",
          "type": "uint256"
        }
      ],
      "name": "SlotChanged",
      "type": "event"
    },
    {
      "anonymous": false,
      "inputs": [
        {
          "indexed": true,
          "internalType": "address",
          "name": "from",
          "type": "address"
        },
        {
          "indexed": true,
          "internalType": "address",
          "name": "to",
          "type": "address"
        },
        {
          "indexed": true,
          "internalType": "uint256",
          "name": "tokenId",
          "type": "uint256"
        }
      ],
      "name": "Transfer",
      "type": "event"
    },
    {
      "anonymous": false,
      "inputs": [
        {
          "indexed": true,
          "internalType": "uint256",
          "name": "_fromTokenId",
          "type": "uint256"
        },
        {
          "indexed": true,
          "internalType": "uint256",
          "name": "_toTokenId",
          "type": "uint256"
        },
        {
          "indexed": false,
          "internalType": "uint256",
          "name": "_value",
          "type": "uint256"
        }
      ],
      "name": "TransferValue",
      "type": "event"
    },
    {
      "anonymous": false,
      "inputs": [
        {
          "indexed": true,
          "internalType": "address",
          "name": "implementation",
          "type": "address"
        }
      ],
      "name": "Upgraded",
      "type": "event"
    },
    {
      "anonymous": false,
      "inputs": [
        {
          "indexed": false,
          "internalType": "bytes32",
          "name": "id",
          "type": "bytes32"
        },
        {
          "indexed": false,
          "internalType": "string",
          "name": "text",
          "type": "string"
        }
      ],
      "name": "WorkScopeAdded",
      "type": "event"
    },
    {
      "inputs": [],
      "name": "DECIMALS",
      "outputs": [
        {
          "internalType": "uint8",
          "name": "",
          "type": "uint8"
        }
      ],
      "stateMutability": "view",
      "type": "function"
    },
    {
      "inputs": [],
      "name": "DEFAULT_ADMIN_ROLE",
      "outputs": [
        {
          "internalType": "bytes32",
          "name": "",
          "type": "bytes32"
        }
      ],
      "stateMutability": "view",
      "type": "function"
    },
    {
      "inputs": [],
      "name": "NAME",
      "outputs": [
        {
          "internalType": "string",
          "name": "",
          "type": "string"
        }
      ],
      "stateMutability": "view",
      "type": "function"
    },
    {
      "inputs": [],
      "name": "SYMBOL",
      "outputs": [
        {
          "internalType": "string",
          "name": "",
          "type": "string"
        }
      ],
      "stateMutability": "view",
      "type": "function"
    },
    {
      "inputs": [],
      "name": "UPGRADER_ROLE",
      "outputs": [
        {
          "internalType": "bytes32",
          "name": "",
          "type": "bytes32"
        }
      ],
      "stateMutability": "view",
      "type": "function"
    },
    {
      "inputs": [
        {
          "internalType": "string",
          "name": "text",
          "type": "string"
        }
      ],
      "name": "addImpactScope",
      "outputs": [
        {
          "internalType": "bytes32",
          "name": "id",
          "type": "bytes32"
        }
      ],
      "stateMutability": "nonpayable",
      "type": "function"
    },
    {
      "inputs": [
        {
          "internalType": "string",
          "name": "text",
          "type": "string"
        }
      ],
      "name": "addRight",
      "outputs": [
        {
          "internalType": "bytes32",
          "name": "id",
          "type": "bytes32"
        }
      ],
      "stateMutability": "nonpayable",
      "type": "function"
    },
    {
      "inputs": [
        {
          "internalType": "string",
          "name": "text",
          "type": "string"
        }
      ],
      "name": "addWorkScope",
      "outputs": [
        {
          "internalType": "bytes32",
          "name": "id",
          "type": "bytes32"
        }
      ],
      "stateMutability": "nonpayable",
      "type": "function"
    },
    {
      "inputs": [
        {
          "internalType": "uint256",
          "name": "tokenId_",
          "type": "uint256"
        },
        {
          "internalType": "address",
          "name": "operator_",
          "type": "address"
        }
      ],
      "name": "allowance",
      "outputs": [
        {
          "internalType": "uint256",
          "name": "",
          "type": "uint256"
        }
      ],
      "stateMutability": "view",
      "type": "function"
    },
    {
      "inputs": [
        {
          "internalType": "address",
          "name": "to_",
          "type": "address"
        },
        {
          "internalType": "uint256",
          "name": "tokenId_",
          "type": "uint256"
        }
      ],
      "name": "approve",
      "outputs": [],
      "stateMutability": "nonpayable",
      "type": "function"
    },
    {
      "inputs": [
        {
          "internalType": "uint256",
          "name": "tokenId_",
          "type": "uint256"
        },
        {
          "internalType": "address",
          "name": "to_",
          "type": "address"
        },
        {
          "internalType": "uint256",
          "name": "value_",
          "type": "uint256"
        }
      ],
      "name": "approve",
      "outputs": [],
      "stateMutability": "payable",
      "type": "function"
    },
    {
      "inputs": [
        {
          "internalType": "address",
          "name": "owner_",
          "type": "address"
        }
      ],
      "name": "balanceOf",
      "outputs": [
        {
          "internalType": "uint256",
          "name": "balance",
          "type": "uint256"
        }
      ],
      "stateMutability": "view",
      "type": "function"
    },
    {
      "inputs": [
        {
          "internalType": "uint256",
          "name": "tokenId_",
          "type": "uint256"
        }
      ],
      "name": "balanceOf",
      "outputs": [
        {
          "internalType": "uint256",
          "name": "",
          "type": "uint256"
        }
      ],
      "stateMutability": "view",
      "type": "function"
    },
    {
      "inputs": [
        {
          "internalType": "uint256",
          "name": "tokenId_",
          "type": "uint256"
        }
      ],
      "name": "burn",
      "outputs": [],
      "stateMutability": "nonpayable",
      "type": "function"
    },
    {
      "inputs": [],
      "name": "contractURI",
      "outputs": [
        {
          "internalType": "string",
          "name": "",
          "type": "string"
        }
      ],
      "stateMutability": "view",
      "type": "function"
    },
    {
      "inputs": [
        {
          "internalType": "uint256",
          "name": "tokenId_",
          "type": "uint256"
        }
      ],
      "name": "donate",
      "outputs": [],
      "stateMutability": "nonpayable",
      "type": "function"
    },
    {
      "inputs": [
        {
          "internalType": "uint256",
          "name": "tokenId_",
          "type": "uint256"
        }
      ],
      "name": "getApproved",
      "outputs": [
        {
          "internalType": "address",
          "name": "",
          "type": "address"
        }
      ],
      "stateMutability": "view",
      "type": "function"
    },
    {
      "inputs": [
        {
          "internalType": "uint64[2]",
          "name": "workTimeframe_",
          "type": "uint64[2]"
        },
        {
          "internalType": "bytes32[]",
          "name": "workScopes_",
          "type": "bytes32[]"
        },
        {
          "internalType": "uint64[2]",
          "name": "impactTimeframe_",
          "type": "uint64[2]"
        },
        {
          "internalType": "bytes32[]",
          "name": "impactScopes_",
          "type": "bytes32[]"
        }
      ],
      "name": "getHash",
      "outputs": [
        {
          "internalType": "bytes32",
          "name": "",
          "type": "bytes32"
        }
      ],
      "stateMutability": "pure",
      "type": "function"
    },
    {
      "inputs": [
        {
          "internalType": "uint256",
          "name": "claimID",
          "type": "uint256"
        }
      ],
      "name": "getImpactCert",
      "outputs": [
        {
          "components": [
            {
              "internalType": "bytes32",
              "name": "claimHash",
              "type": "bytes32"
            },
            {
              "internalType": "uint64[2]",
              "name": "workTimeframe",
              "type": "uint64[2]"
            },
            {
              "internalType": "uint64[2]",
              "name": "impactTimeframe",
              "type": "uint64[2]"
            },
            {
              "internalType": "bytes32[]",
              "name": "workScopes",
              "type": "bytes32[]"
            },
            {
              "internalType": "bytes32[]",
              "name": "impactScopes",
              "type": "bytes32[]"
            },
            {
              "internalType": "bytes32[]",
              "name": "rights",
              "type": "bytes32[]"
            },
            {
              "internalType": "address[]",
              "name": "contributors",
              "type": "address[]"
            },
            {
              "internalType": "uint256",
              "name": "totalUnits",
              "type": "uint256"
            },
            {
              "internalType": "uint16",
              "name": "version",
              "type": "uint16"
            },
            {
              "internalType": "bool",
              "name": "exists",
              "type": "bool"
            },
            {
              "internalType": "string",
              "name": "name",
              "type": "string"
            },
            {
              "internalType": "string",
              "name": "description",
              "type": "string"
            },
            {
              "internalType": "string",
              "name": "uri",
              "type": "string"
            },
            {
              "internalType": "address",
              "name": "minter",
              "type": "address"
            }
          ],
          "internalType": "struct HyperCertMinter.Claim",
          "name": "",
          "type": "tuple"
        }
      ],
      "stateMutability": "view",
      "type": "function"
    },
    {
      "inputs": [
        {
          "internalType": "bytes32",
          "name": "role",
          "type": "bytes32"
        }
      ],
      "name": "getRoleAdmin",
      "outputs": [
        {
          "internalType": "bytes32",
          "name": "",
          "type": "bytes32"
        }
      ],
      "stateMutability": "view",
      "type": "function"
    },
    {
      "inputs": [
        {
          "internalType": "bytes32",
          "name": "role",
          "type": "bytes32"
        },
        {
          "internalType": "address",
          "name": "account",
          "type": "address"
        }
      ],
      "name": "grantRole",
      "outputs": [],
      "stateMutability": "nonpayable",
      "type": "function"
    },
    {
      "inputs": [
        {
          "internalType": "bytes32",
          "name": "role",
          "type": "bytes32"
        },
        {
          "internalType": "address",
          "name": "account",
          "type": "address"
        }
      ],
      "name": "hasRole",
      "outputs": [
        {
          "internalType": "bool",
          "name": "",
          "type": "bool"
        }
      ],
      "stateMutability": "view",
      "type": "function"
    },
    {
      "inputs": [
        {
          "internalType": "bytes32",
          "name": "",
          "type": "bytes32"
        }
      ],
      "name": "impactScopes",
      "outputs": [
        {
          "internalType": "string",
          "name": "",
          "type": "string"
        }
      ],
      "stateMutability": "view",
      "type": "function"
    },
    {
      "inputs": [
        {
          "internalType": "address",
          "name": "metadataAddress",
          "type": "address"
        }
      ],
      "name": "initialize",
      "outputs": [],
      "stateMutability": "nonpayable",
      "type": "function"
    },
    {
      "inputs": [
        {
          "internalType": "address",
          "name": "owner_",
          "type": "address"
        },
        {
          "internalType": "address",
          "name": "operator_",
          "type": "address"
        }
      ],
      "name": "isApprovedForAll",
      "outputs": [
        {
          "internalType": "bool",
          "name": "",
          "type": "bool"
        }
      ],
      "stateMutability": "view",
      "type": "function"
    },
    {
      "inputs": [
        {
          "internalType": "uint256[]",
          "name": "tokenIds",
          "type": "uint256[]"
        }
      ],
      "name": "merge",
      "outputs": [],
      "stateMutability": "nonpayable",
      "type": "function"
    },
    {
      "inputs": [
        {
          "internalType": "address",
          "name": "account",
          "type": "address"
        },
        {
          "internalType": "bytes",
          "name": "data",
          "type": "bytes"
        }
      ],
      "name": "mint",
      "outputs": [],
      "stateMutability": "nonpayable",
      "type": "function"
    },
    {
      "inputs": [],
      "name": "name",
      "outputs": [
        {
          "internalType": "string",
          "name": "",
          "type": "string"
        }
      ],
      "stateMutability": "pure",
      "type": "function"
    },
    {
      "inputs": [
        {
          "internalType": "uint256",
          "name": "tokenId_",
          "type": "uint256"
        }
      ],
      "name": "ownerOf",
      "outputs": [
        {
          "internalType": "address",
          "name": "owner_",
          "type": "address"
        }
      ],
      "stateMutability": "view",
      "type": "function"
    },
    {
      "inputs": [],
      "name": "proxiableUUID",
      "outputs": [
        {
          "internalType": "bytes32",
          "name": "",
          "type": "bytes32"
        }
      ],
      "stateMutability": "view",
      "type": "function"
    },
    {
      "inputs": [
        {
          "internalType": "bytes32",
          "name": "role",
          "type": "bytes32"
        },
        {
          "internalType": "address",
          "name": "account",
          "type": "address"
        }
      ],
      "name": "renounceRole",
      "outputs": [],
      "stateMutability": "nonpayable",
      "type": "function"
    },
    {
      "inputs": [
        {
          "internalType": "bytes32",
          "name": "role",
          "type": "bytes32"
        },
        {
          "internalType": "address",
          "name": "account",
          "type": "address"
        }
      ],
      "name": "revokeRole",
      "outputs": [],
      "stateMutability": "nonpayable",
      "type": "function"
    },
    {
      "inputs": [
        {
          "internalType": "bytes32",
          "name": "",
          "type": "bytes32"
        }
      ],
      "name": "rights",
      "outputs": [
        {
          "internalType": "string",
          "name": "",
          "type": "string"
        }
      ],
      "stateMutability": "view",
      "type": "function"
    },
    {
      "inputs": [
        {
          "internalType": "address",
          "name": "from_",
          "type": "address"
        },
        {
          "internalType": "address",
          "name": "to_",
          "type": "address"
        },
        {
          "internalType": "uint256",
          "name": "tokenId_",
          "type": "uint256"
        }
      ],
      "name": "safeTransferFrom",
      "outputs": [],
      "stateMutability": "nonpayable",
      "type": "function"
    },
    {
      "inputs": [
        {
          "internalType": "address",
          "name": "from_",
          "type": "address"
        },
        {
          "internalType": "address",
          "name": "to_",
          "type": "address"
        },
        {
          "internalType": "uint256",
          "name": "tokenId_",
          "type": "uint256"
        },
        {
          "internalType": "bytes",
          "name": "data_",
          "type": "bytes"
        }
      ],
      "name": "safeTransferFrom",
      "outputs": [],
      "stateMutability": "nonpayable",
      "type": "function"
    },
    {
      "inputs": [
        {
          "internalType": "address",
          "name": "operator_",
          "type": "address"
        },
        {
          "internalType": "bool",
          "name": "approved_",
          "type": "bool"
        }
      ],
      "name": "setApprovalForAll",
      "outputs": [],
      "stateMutability": "nonpayable",
      "type": "function"
    },
    {
      "inputs": [
        {
          "internalType": "address",
          "name": "metadataGenerator",
          "type": "address"
        }
      ],
      "name": "setMetadataGenerator",
      "outputs": [],
      "stateMutability": "nonpayable",
      "type": "function"
    },
    {
      "inputs": [
        {
          "internalType": "uint256",
          "name": "index_",
          "type": "uint256"
        }
      ],
      "name": "slotByIndex",
      "outputs": [
        {
          "internalType": "uint256",
          "name": "",
          "type": "uint256"
        }
      ],
      "stateMutability": "view",
      "type": "function"
    },
    {
      "inputs": [],
      "name": "slotCount",
      "outputs": [
        {
          "internalType": "uint256",
          "name": "",
          "type": "uint256"
        }
      ],
      "stateMutability": "view",
      "type": "function"
    },
    {
      "inputs": [
        {
          "internalType": "uint256",
          "name": "tokenId_",
          "type": "uint256"
        }
      ],
      "name": "slotOf",
      "outputs": [
        {
          "internalType": "uint256",
          "name": "",
          "type": "uint256"
        }
      ],
      "stateMutability": "view",
      "type": "function"
    },
    {
      "inputs": [
        {
          "internalType": "uint256",
          "name": "slotId_",
          "type": "uint256"
        }
      ],
      "name": "slotURI",
      "outputs": [
        {
          "internalType": "string",
          "name": "",
          "type": "string"
        }
      ],
      "stateMutability": "view",
      "type": "function"
    },
    {
      "inputs": [
        {
          "internalType": "uint256",
          "name": "tokenId",
          "type": "uint256"
        },
        {
          "internalType": "uint256[]",
          "name": "amounts",
          "type": "uint256[]"
        }
      ],
      "name": "split",
      "outputs": [],
      "stateMutability": "nonpayable",
      "type": "function"
    },
    {
      "inputs": [
        {
          "internalType": "bytes4",
          "name": "interfaceId",
          "type": "bytes4"
        }
      ],
      "name": "supportsInterface",
      "outputs": [
        {
          "internalType": "bool",
          "name": "",
          "type": "bool"
        }
      ],
      "stateMutability": "view",
      "type": "function"
    },
    {
      "inputs": [],
      "name": "symbol",
      "outputs": [
        {
          "internalType": "string",
          "name": "",
          "type": "string"
        }
      ],
      "stateMutability": "pure",
      "type": "function"
    },
    {
      "inputs": [
        {
          "internalType": "uint256",
          "name": "index_",
          "type": "uint256"
        }
      ],
      "name": "tokenByIndex",
      "outputs": [
        {
          "internalType": "uint256",
          "name": "",
          "type": "uint256"
        }
      ],
      "stateMutability": "view",
      "type": "function"
    },
    {
      "inputs": [
        {
          "internalType": "uint256",
          "name": "slot_",
          "type": "uint256"
        },
        {
          "internalType": "uint256",
          "name": "index_",
          "type": "uint256"
        }
      ],
      "name": "tokenInSlotByIndex",
      "outputs": [
        {
          "internalType": "uint256",
          "name": "",
          "type": "uint256"
        }
      ],
      "stateMutability": "view",
      "type": "function"
    },
    {
      "inputs": [
        {
          "internalType": "address",
          "name": "owner_",
          "type": "address"
        },
        {
          "internalType": "uint256",
          "name": "index_",
          "type": "uint256"
        }
      ],
      "name": "tokenOfOwnerByIndex",
      "outputs": [
        {
          "internalType": "uint256",
          "name": "",
          "type": "uint256"
        }
      ],
      "stateMutability": "view",
      "type": "function"
    },
    {
      "inputs": [
        {
          "internalType": "uint256",
          "name": "slot_",
          "type": "uint256"
        }
      ],
      "name": "tokenSupplyInSlot",
      "outputs": [
        {
          "internalType": "uint256",
          "name": "",
          "type": "uint256"
        }
      ],
      "stateMutability": "view",
      "type": "function"
    },
    {
      "inputs": [
        {
          "internalType": "uint256",
          "name": "tokenId_",
          "type": "uint256"
        }
      ],
      "name": "tokenURI",
      "outputs": [
        {
          "internalType": "string",
          "name": "",
          "type": "string"
        }
      ],
      "stateMutability": "view",
      "type": "function"
    },
    {
      "inputs": [],
      "name": "totalSupply",
      "outputs": [
        {
          "internalType": "uint256",
          "name": "",
          "type": "uint256"
        }
      ],
      "stateMutability": "view",
      "type": "function"
    },
    {
      "inputs": [
        {
          "internalType": "uint256",
          "name": "fromTokenId_",
          "type": "uint256"
        },
        {
          "internalType": "address",
          "name": "to_",
          "type": "address"
        },
        {
          "internalType": "uint256",
          "name": "value_",
          "type": "uint256"
        }
      ],
      "name": "transferFrom",
      "outputs": [
        {
          "internalType": "uint256",
          "name": "",
          "type": "uint256"
        }
      ],
      "stateMutability": "payable",
      "type": "function"
    },
    {
      "inputs": [
        {
          "internalType": "address",
          "name": "from_",
          "type": "address"
        },
        {
          "internalType": "address",
          "name": "to_",
          "type": "address"
        },
        {
          "internalType": "uint256",
          "name": "tokenId_",
          "type": "uint256"
        }
      ],
      "name": "transferFrom",
      "outputs": [],
      "stateMutability": "nonpayable",
      "type": "function"
    },
    {
      "inputs": [
        {
          "internalType": "uint256",
          "name": "fromTokenId_",
          "type": "uint256"
        },
        {
          "internalType": "uint256",
          "name": "toTokenId_",
          "type": "uint256"
        },
        {
          "internalType": "uint256",
          "name": "value_",
          "type": "uint256"
        }
      ],
      "name": "transferFrom",
      "outputs": [],
      "stateMutability": "payable",
      "type": "function"
    },
    {
      "inputs": [],
      "name": "updateVersion",
      "outputs": [],
      "stateMutability": "nonpayable",
      "type": "function"
    },
    {
      "inputs": [
        {
          "internalType": "address",
          "name": "newImplementation",
          "type": "address"
        }
      ],
      "name": "upgradeTo",
      "outputs": [],
      "stateMutability": "nonpayable",
      "type": "function"
    },
    {
      "inputs": [
        {
          "internalType": "address",
          "name": "newImplementation",
          "type": "address"
        },
        {
          "internalType": "bytes",
          "name": "data",
          "type": "bytes"
        }
      ],
      "name": "upgradeToAndCall",
      "outputs": [],
      "stateMutability": "payable",
      "type": "function"
    },
    {
      "inputs": [],
      "name": "valueDecimals",
      "outputs": [
        {
          "internalType": "uint8",
          "name": "",
          "type": "uint8"
        }
      ],
      "stateMutability": "view",
      "type": "function"
    },
    {
      "inputs": [],
      "name": "version",
      "outputs": [
        {
          "internalType": "uint256",
          "name": "",
          "type": "uint256"
        }
      ],
      "stateMutability": "view",
      "type": "function"
    },
    {
      "inputs": [
        {
          "internalType": "bytes32",
          "name": "",
          "type": "bytes32"
        }
      ],
      "name": "workScopes",
      "outputs": [
        {
          "internalType": "string",
          "name": "",
          "type": "string"
        }
      ],
      "stateMutability": "view",
      "type": "function"
    }
  ],
  "bytecode": "0x60a0604052306080523480156200001557600080fd5b506200002062000026565b620000e8565b600054610100900460ff1615620000935760405162461bcd60e51b815260206004820152602760248201527f496e697469616c697a61626c653a20636f6e747261637420697320696e697469604482015266616c697a696e6760c81b606482015260840160405180910390fd5b60005460ff9081161015620000e6576000805460ff191660ff9081179091556040519081527f7f26b83ff96e1f2b6a682f133852f6798a09c465da95921460cefb38474024989060200160405180910390a15b565b608051615e2e6200012060003960008181611068015281816110ed015281816112fc0152818161138101526115150152615e2e6000f3fe60806040526004361061038b5760003560e01c806369c67247116101dc578063b88d4fde11610102578063e8a3d485116100a0578063f0f11e051161006f578063f0f11e0514610afe578063f14faf6f14610b1e578063f72c0d8b14610b3e578063f76f8d7814610b7257600080fd5b8063e8a3d48514610a67578063e985e9c514610a7c578063ed08fa8014610ac9578063ef6f66d714610ade57600080fd5b8063d52fd095116100dc578063d52fd095146109c4578063d547741f146109e4578063de62d84214610a04578063e345e0bc14610a2457600080fd5b8063b88d4fde14610964578063c4d66de814610984578063c87b56dd146109a457600080fd5b806395d89b411161017a578063a217fddf11610149578063a217fddf146108d9578063a22cb465146108ee578063a3f4df7e1461090e578063b510391f1461094457600080fd5b806395d89b411461084c578063993bef8d14610879578063997edc61146108995780639cc7f708146108b957600080fd5b80638cb0a511116101b65780638cb0a511146107b35780638f88b767146107c657806391d14854146107e6578063937773691461082c57600080fd5b806369c672471461074657806370a082311461076657806372927aa31461078657600080fd5b80632f2ff15d116102c157806342966c681161025f5780634f8a0f831161022e5780634f8a0f83146106d757806352d1902d146106f757806354fd4d501461070c5780636352211e1461072657600080fd5b806342966c681461066f57806348c02dc11461068f5780634f1ef286146106a45780634f6ccce7146106b757600080fd5b806336568abe1161029b57806336568abe146105fb5780633659cfe61461061b5780633e7e86691461063b57806342842e0e1461064f57600080fd5b80632f2ff15d146105a85780632f745c59146105c8578063310ed7f0146105e857600080fd5b806311e322081161032e57806323b872dd1161030857806323b872dd14610511578063248a9ca314610531578063263f3e7e146105615780632e0f26251461058157600080fd5b806311e32208146104bc57806318160ddd146104dc5780631e6ad4b8146104f157600080fd5b8063081812fc1161036a578063081812fc1461042f578063095ea7b31461046757806309c3dd87146104895780630f485c02146104a957600080fd5b8062cd01101461039057806301ffc9a7146103c357806306fdde03146103f3575b600080fd5b34801561039c57600080fd5b506103b06103ab366004614df8565b610ba2565b6040519081526020015b60405180910390f35b3480156103cf57600080fd5b506103e36103de366004614e30565b610c35565b60405190151581526020016103ba565b3480156103ff57600080fd5b5060408051808201909152600a8152694879706572436572747360b01b60208201525b6040516103ba9190614e9d565b34801561043b57600080fd5b5061044f61044a366004614eb0565b610c40565b6040516001600160a01b0390911681526020016103ba565b34801561047357600080fd5b50610487610482366004614ee0565b610cb2565b005b34801561049557600080fd5b506104226104a4366004614eb0565b610d55565b6103b06104b7366004614f0a565b610dcf565b3480156104c857600080fd5b506103b06104d73660046150a0565b610e11565b3480156104e857600080fd5b506068546103b0565b3480156104fd57600080fd5b506103b061050c36600461519e565b610e4b565b34801561051d57600080fd5b5061048761052c3660046151d2565b610eb4565b34801561053d57600080fd5b506103b061054c366004614eb0565b6000908152609d602052604090206001015490565b34801561056d57600080fd5b506103b061057c366004614eb0565b610ee6565b34801561058d57600080fd5b50610596600081565b60405160ff90911681526020016103ba565b3480156105b457600080fd5b506104876105c33660046151fe565b610f4e565b3480156105d457600080fd5b506103b06105e3366004614ee0565b610f73565b6104876105f636600461522a565b610fca565b34801561060757600080fd5b506104876106163660046151fe565b610fe0565b34801561062757600080fd5b50610487610636366004615256565b61105e565b34801561064757600080fd5b506000610596565b34801561065b57600080fd5b5061048761066a3660046151d2565b6111d9565b34801561067b57600080fd5b5061048761068a366004614eb0565b6111f4565b34801561069b57600080fd5b50610487611290565b6104876106b2366004615271565b6112f2565b3480156106c357600080fd5b506103b06106d2366004614eb0565b61145a565b3480156106e357600080fd5b506103b06106f2366004614eb0565b6114b3565b34801561070357600080fd5b506103b0611508565b34801561071857600080fd5b506101335461ffff166103b0565b34801561073257600080fd5b5061044f610741366004614eb0565b6115cd565b34801561075257600080fd5b506104876107613660046152be565b611661565b34801561077257600080fd5b506103b0610781366004615256565b61177b565b34801561079257600080fd5b506107a66107a1366004614eb0565b6117c0565b6040516103ba91906153dc565b6104876107c1366004614f0a565b611c1e565b3480156107d257600080fd5b506104226107e1366004614eb0565b611cae565b3480156107f257600080fd5b506103e36108013660046151fe565b6000918252609d602090815260408084206001600160a01b0393909316845291905290205460ff1690565b34801561083857600080fd5b50610487610847366004615256565b611d49565b34801561085857600080fd5b506040805180820190915260048152631210d49560e21b6020820152610422565b34801561088557600080fd5b506103b0610894366004614eb0565b611dc6565b3480156108a557600080fd5b506103b06108b436600461519e565b611e1f565b3480156108c557600080fd5b506103b06108d4366004614eb0565b611e7b565b3480156108e557600080fd5b506103b0600081565b3480156108fa57600080fd5b50610487610909366004615558565b611ee3565b34801561091a57600080fd5b506104226040518060400160405280600a8152602001694879706572436572747360b01b81525081565b34801561095057600080fd5b5061048761095f36600461558f565b611eee565b34801561097057600080fd5b5061048761097f3660046155fe565b612112565b34801561099057600080fd5b5061048761099f366004615256565b612145565b3480156109b057600080fd5b506104226109bf366004614eb0565b6122b6565b3480156109d057600080fd5b506104226109df366004614eb0565b612301565b3480156109f057600080fd5b506104876109ff3660046151fe565b61231b565b348015610a1057600080fd5b50610487610a1f366004615659565b612340565b348015610a3057600080fd5b506103b0610a3f3660046151fe565b60009182526067602090815260408084206001600160a01b0393909316845291905290205490565b348015610a7357600080fd5b506104226123c9565b348015610a8857600080fd5b506103e3610a973660046156e9565b6001600160a01b039182166000908152606a602090815260408083209390941682526002909201909152205460ff1690565b348015610ad557600080fd5b50606c546103b0565b348015610aea57600080fd5b50610422610af9366004614eb0565b61244c565b348015610b0a57600080fd5b506103b0610b1936600461519e565b612466565b348015610b2a57600080fd5b50610487610b39366004614eb0565b6124c2565b348015610b4a57600080fd5b506103b07f189ab7a9244df0848122154315af71fe140f3db0fe014031783b0946b8c9d2e381565b348015610b7e57600080fd5b50610422604051806040016040528060048152602001631210d49560e21b81525081565b6000610bad836114b3565b8210610bdb576040516305ad208d60e11b815260048101849052602481018390526044015b60405180910390fd5b6000838152606d6020526040902054606c80549091908110610bff57610bff615713565b90600052602060002090600202016001018281548110610c2157610c21615713565b906000526020600020015490505b92915050565b6000610c2f826124fc565b6000610c4b82612521565b610c6b576040516338077a2b60e01b815260048101839052602401610bd2565b600082815260696020526040902054606880549091908110610c8f57610c8f615713565b60009182526020909120600460069092020101546001600160a01b031692915050565b6000610cbd826115cd565b9050806001600160a01b0316836001600160a01b031603610d085760405162ea9f2160e81b8152600481018390523360248201526001600160a01b0384166044820152606401610bd2565b336001600160a01b03821614801590610d285750610d268133610a97565b155b15610d465760405163390cdd9b60e21b815260040160405180910390fd5b610d50838361256d565b505050565b610133546040516391383c8960e01b8152600481018390526060916201000090046001600160a01b0316906391383c89906024015b600060405180830381865afa158015610da7573d6000803e3d6000fd5b505050506040513d6000823e601f3d908101601f19168201604052610c2f9190810190615729565b6000610ddc338584612604565b6000610de785612684565b9050610dfc8482610df788610ee6565b61268e565b610e07858285612754565b90505b9392505050565b600084848484604051602001610e2a9493929190615796565b6040516020818303038152906040528051906020012090505b949350505050565b6000610e5982610135612997565b600081815261013560205260409020909150610e758382615855565b507f2efcce702e3d0b95b3deb632da6d41c3d169e0c3effb9066d949f14d6f13224f8183604051610ea7929190615914565b60405180910390a1919050565b610ebe3382612a0c565b610edb5760405163390cdd9b60e21b815260040160405180910390fd5b610d50838383612ab8565b6000610ef182612521565b610f11576040516338077a2b60e01b815260048101839052602401610bd2565b600082815260696020526040902054606880549091908110610f3557610f35615713565b9060005260206000209060060201600101549050919050565b6000828152609d6020526040902060010154610f6981612bbe565b610d508383612bc8565b6000610f7e8361177b565b8210610fa05760405163d338ed0760e01b815260048101839052602401610bd2565b6001600160a01b0383166000908152606a60205260409020805483908110610c2157610c21615713565b610fd5338483612604565b610d50838383612754565b6001600160a01b03811633146110505760405162461bcd60e51b815260206004820152602f60248201527f416363657373436f6e74726f6c3a2063616e206f6e6c792072656e6f756e636560448201526e103937b632b9903337b91039b2b63360891b6064820152608401610bd2565b61105a8282612c6a565b5050565b6001600160a01b037f00000000000000000000000000000000000000000000000000000000000000001630036110eb5760405162461bcd60e51b815260206004820152602c60248201527f46756e6374696f6e206d7573742062652063616c6c6564207468726f7567682060448201526b19195b1959d85d1958d85b1b60a21b6064820152608401610bd2565b7f00000000000000000000000000000000000000000000000000000000000000006001600160a01b03166111467f360894a13ba1a3210667c828492db98dca3e2076cc3735a920a3ca505d382bbc546001600160a01b031690565b6001600160a01b0316146111b15760405162461bcd60e51b815260206004820152602c60248201527f46756e6374696f6e206d7573742062652063616c6c6564207468726f7567682060448201526b6163746976652070726f787960a01b6064820152608401610bd2565b6111ba81612ced565b604080516000808252602082019092526111d691839190612d17565b50565b610d5083838360405180602001604052806000815250612112565b6000610138600061120484610ee6565b81526020810191909152604001600020600c8101549091506001600160a01b031633146112445760405163390cdd9b60e21b815260040160405180910390fd5b806007015461125283611e7b565b1461128757806007015461126583611e7b565b60405163cf47918160e01b815260048101929092526024820152604401610bd2565b61105a82612e94565b7f189ab7a9244df0848122154315af71fe140f3db0fe014031783b0946b8c9d2e36112ba81612bbe565b6101338054600191906000906112d590849061ffff16615943565b92506101000a81548161ffff021916908361ffff16021790555050565b6001600160a01b037f000000000000000000000000000000000000000000000000000000000000000016300361137f5760405162461bcd60e51b815260206004820152602c60248201527f46756e6374696f6e206d7573742062652063616c6c6564207468726f7567682060448201526b19195b1959d85d1958d85b1b60a21b6064820152608401610bd2565b7f00000000000000000000000000000000000000000000000000000000000000006001600160a01b03166113da7f360894a13ba1a3210667c828492db98dca3e2076cc3735a920a3ca505d382bbc546001600160a01b031690565b6001600160a01b0316146114455760405162461bcd60e51b815260206004820152602c60248201527f46756e6374696f6e206d7573742062652063616c6c6564207468726f7567682060448201526b6163746976652070726f787960a01b6064820152608401610bd2565b61144e82612ced565b61105a82826001612d17565b600061146560685490565b82106114875760405163d338ed0760e01b815260048101839052602401610bd2565b6068828154811061149a5761149a615713565b9060005260206000209060060201600001549050919050565b60006114be8261300b565b6114ca57506000919050565b6000828152606d6020526040902054606c805490919081106114ee576114ee615713565b600091825260209091206001600290920201015492915050565b6000306001600160a01b037f000000000000000000000000000000000000000000000000000000000000000016146115a85760405162461bcd60e51b815260206004820152603860248201527f555550535570677261646561626c653a206d757374206e6f742062652063616c60448201527f6c6564207468726f7567682064656c656761746563616c6c00000000000000006064820152608401610bd2565b507f360894a13ba1a3210667c828492db98dca3e2076cc3735a920a3ca505d382bbc90565b60006115d882612521565b6115f8576040516338077a2b60e01b815260048101839052602401610bd2565b60008281526069602052604090205460688054909190811061161c5761161c615713565b60009182526020909120600360069092020101546001600160a01b031690508061165c576040516338077a2b60e01b815260048101839052602401610bd2565b919050565b61166a83612521565b61168a576040516338077a2b60e01b815260048101849052602401610bd2565b60008160018190036116b2576040516314b27b7f60e31b815260048101869052602401610bd2565b60005b818110156116f5578484828181106116cf576116cf615713565b90506020020135836116e1919061595e565b9250806116ed81615971565b9150506116b5565b506116ff85611e7b565b821180611713575061171085611e7b565b82105b156117315760405163b4fa3fb360e01b815260040160405180910390fd5b8260015b818110156117725761175f8787878481811061175357611753615713565b90506020020135613057565b508061176a81615971565b915050611735565b50505050505050565b60006001600160a01b0382166117a457604051630c63e1ed60e11b815260040160405180910390fd5b506001600160a01b03166000908152606a602052604090205490565b6117c8614be7565b60008281526101386020908152604080832081516101c0810183528154815282518084019384905290949193850192909160018501916002918390855b82829054906101000a90046001600160401b03166001600160401b03168152602001906008019060208260070104928301926001038202915080841161180557505050928452505060408051808201918290526020909301929150600284810191826000855b82829054906101000a90046001600160401b03166001600160401b03168152602001906008019060208260070104928301926001038202915080841161186b579050505050505081526020016003820180548060200260200160405190810160405280929190818152602001828054801561190557602002820191906000526020600020905b8154815260200190600101908083116118f1575b505050505081526020016004820180548060200260200160405190810160405280929190818152602001828054801561195d57602002820191906000526020600020905b815481526020019060010190808311611949575b50505050508152602001600582018054806020026020016040519081016040528092919081815260200182805480156119b557602002820191906000526020600020905b8154815260200190600101908083116119a1575b5050505050815260200160068201805480602002602001604051908101604052809291908181526020018280548015611a1757602002820191906000526020600020905b81546001600160a01b031681526001909101906020018083116119f9575b505050918352505060078201546020820152600882015461ffff8116604083015262010000900460ff1615156060820152600982018054608090920191611a5d906157d5565b80601f0160208091040260200160405190810160405280929190818152602001828054611a89906157d5565b8015611ad65780601f10611aab57610100808354040283529160200191611ad6565b820191906000526020600020905b815481529060010190602001808311611ab957829003601f168201915b50505050508152602001600a82018054611aef906157d5565b80601f0160208091040260200160405190810160405280929190818152602001828054611b1b906157d5565b8015611b685780601f10611b3d57610100808354040283529160200191611b68565b820191906000526020600020905b815481529060010190602001808311611b4b57829003601f168201915b50505050508152602001600b82018054611b81906157d5565b80601f0160208091040260200160405190810160405280929190818152602001828054611bad906157d5565b8015611bfa5780601f10611bcf57610100808354040283529160200191611bfa565b820191906000526020600020905b815481529060010190602001808311611bdd57829003601f168201915b5050509183525050600c91909101546001600160a01b031660209091015292915050565b6000611c29846115cd565b9050806001600160a01b0316836001600160a01b031603611c765760405162ea9f2160e81b8152600481018590526001600160a01b03808516602483015282166044820152606401610bd2565b611c803385612a0c565b611c9d5760405163390cdd9b60e21b815260040160405180910390fd5b611ca88484846131d3565b50505050565b6101346020526000908152604090208054611cc8906157d5565b80601f0160208091040260200160405190810160405280929190818152602001828054611cf4906157d5565b8015611d415780601f10611d1657610100808354040283529160200191611d41565b820191906000526020600020905b815481529060010190602001808311611d2457829003601f168201915b505050505081565b7f189ab7a9244df0848122154315af71fe140f3db0fe014031783b0946b8c9d2e3611d7381612bbe565b6001600160a01b038216611d9a57604051630c63e1ed60e11b815260040160405180910390fd5b5061013380546001600160a01b03909216620100000262010000600160b01b0319909216919091179055565b6000611dd1606c5490565b8210611df357604051637ed0f68f60e01b815260048101839052602401610bd2565b606c8281548110611e0657611e06615713565b9060005260206000209060020201600001549050919050565b6000611e2d82610134612997565b600081815261013460205260409020909150611e498382615855565b507f8b841033bc947e807d9766c542105a3dbb0bae62591be7b5c8cd4f37f698bf738183604051610ea7929190615914565b6000611e8682612521565b611ea6576040516338077a2b60e01b815260048101839052602401610bd2565b600082815260696020526040902054606880549091908110611eca57611eca615713565b9060005260206000209060060201600201549050919050565b61105a3383836132a2565b600080611efb8484613356565b336101a08301529092509050611f118583613433565b611f2382600001518360c001516135ff565b81516000818152610138602090815260409091208451815590840151849190611f529060018301906002614c72565b506040820151611f689060028084019190614c72565b5060608201518051611f84916003840191602090910190614d17565b5060808201518051611fa0916004840191602090910190614d17565b5060a08201518051611fbc916005840191602090910190614d17565b5060c08201518051611fd8916006840191602090910190614d52565b5060e082015160078201556101008201516008820180546101208501511515620100000262ffffff1990911661ffff9093169290921791909117905561014082015160098201906120299082615855565b50610160820151600a82019061203f9082615855565b50610180820151600b8201906120559082615855565b506101a09190910151600c90910180546001600160a01b0319166001600160a01b03909216919091179055815160005b818110156120cd576120ba88848684815181106120a4576120a4615713565b60200260200101516001600160401b03166136de565b50806120c581615971565b915050612085565b507f99ba308ef0906cce9332a23fc9ff0c458c3eb58aa3f023baa558fe9539d520f68288856040516121019392919061598a565b60405180910390a150505050505050565b61211c3383612a0c565b6121395760405163390cdd9b60e21b815260040160405180910390fd5b611ca8848484846137ff565b600054610100900460ff16158080156121655750600054600160ff909116105b8061217f5750303b15801561217f575060005460ff166001145b6121e25760405162461bcd60e51b815260206004820152602e60248201527f496e697469616c697a61626c653a20636f6e747261637420697320616c72656160448201526d191e481a5b9a5d1a585b1a5e995960921b6064820152608401610bd2565b6000805460ff191660011790558015612205576000805461ff0019166101001790555b610133805462010000600160b01b031916620100006001600160a01b03851602179055612230613872565b612238613872565b612243600033612bc8565b61226d7f189ab7a9244df0848122154315af71fe140f3db0fe014031783b0946b8c9d2e333612bc8565b801561105a576000805461ff0019169055604051600181527f7f26b83ff96e1f2b6a682f133852f6798a09c465da95921460cefb38474024989060200160405180910390a15050565b610133546060906201000090046001600160a01b031663ed03f41a6122da84610ee6565b846040518363ffffffff1660e01b8152600401610d8a929190918252602082015260400190565b6101366020526000908152604090208054611cc8906157d5565b6000828152609d602052604090206001015461233681612bbe565b610d508383612c6a565b80516000826123506001846159f1565b8151811061236057612360615713565b6020026020010151905060005b82811015611ca857600084828151811061238957612389615713565b602002602001015190508281146123b6576123ad81846123a884611e7b565b612754565b6123b681612e94565b50806123c181615971565b91505061236d565b606061013360029054906101000a90046001600160a01b03166001600160a01b0316639f4475da6040518163ffffffff1660e01b8152600401600060405180830381865afa15801561241f573d6000803e3d6000fd5b505050506040513d6000823e601f3d908101601f191682016040526124479190810190615729565b905090565b6101356020526000908152604090208054611cc8906157d5565b600061247482610136612997565b6000818152610136602052604090209091506124908382615855565b507f4527d373276b1ece0c8dd18e140572f93feffd35a0993d9e4de70623b1ac93ce8183604051610ea7929190615914565b6124cb816115cd565b6001600160a01b031633036124f35760405163390cdd9b60e21b815260040160405180910390fd5b6111d681612e94565b60006001600160e01b03198216637965db0b60e01b1480610c2f5750610c2f826138df565b60685460009015801590610c2f575060008281526069602052604090205460688054849290811061255457612554615713565b9060005260206000209060060201600001541492915050565b60008181526069602052604090205460688054849290811061259157612591615713565b6000918252602090912060069091020160040180546001600160a01b0319166001600160a01b03928316179055819083166125cb826115cd565b6001600160a01b03167f8c5be1e5ebec7d5bd14f71427d1e84f3dd0314c0f7b2291e5b200ac8c7c3b92560405160405180910390a45050565b60008281526067602090815260408083206001600160a01b03871684529091529020546126318484612a0c565b15801561264057506000198114155b15611ca857818110156126705760405163054365bb60e31b81526004810183905260248101829052604401610bd2565b611ca8838561267f85856159f1565b6131d3565b6000610c2f613904565b6040805160c081018252838152602080820184905260008284018190526001600160a01b038716606084015260808301819052835181815291820190935260a082015290506126dc8161391a565b6126e68484613a6c565b60405183906001600160a01b038616906000907fddf252ad1be2c89b69c2b068fc378daa952ba7f163c4a11628f55a4df523b3ef908290a4816000847fe4f48c240d3b994948aa54f3e2f5fca59263dfe1d52b6e4cf39a5d249b5ccb6560405160405180910390a450505050565b61275d83612521565b61277d576040516338077a2b60e01b815260048101849052602401610bd2565b61278682612521565b6127a6576040516338077a2b60e01b815260048101839052602401610bd2565b6000838152606960205260408120546068805490919081106127ca576127ca615713565b906000526020600020906006020190506000606860696000868152602001908152602001600020548154811061280257612802615713565b90600052602060002090600602019050828260020154101561284757600282015460405163cf47918160e01b8152610bd2918591600401918252602082015260400190565b80600101548260010154146128825760018083015490820154604051630240901360e61b815260048101929092526024820152604401610bd2565b6003808301549082015460018401546128ad926001600160a01b039081169216908890889088613af5565b828260020160008282546128c191906159f1565b92505081905550828160020160008282546128dc919061595e565b9091555050604051838152849086907f0b2aac84f3ec956911fd78eae5311062972ff949f38412e8da39069d9f068cc69060200160405180910390a3600380830154908201546001840154612943926001600160a01b039081169216908890889088613b32565b61295e85858560405180602001604052806000815250613ba3565b6129905761296b846115cd565b604051639c645a0b60e01b81526001600160a01b039091166004820152602401610bd2565b5050505050565b600082516000036129bb5760405163a447fc5360e01b815260040160405180910390fd5b826040516020016129cc9190614e9d565b6040516020818303038152906040528051906020012090506129ee8282613d7d565b15610c2f5760405163331d850160e01b815260040160405180910390fd5b6000612a1782612521565b612a37576040516338077a2b60e01b815260048101839052602401610bd2565b6000612a42836115cd565b9050806001600160a01b0316846001600160a01b03161480612a8d57506001600160a01b038082166000908152606a60209081526040808320938816835260029093019052205460ff165b80610e435750836001600160a01b0316612aa684610c40565b6001600160a01b031614949350505050565b826001600160a01b0316612acb826115cd565b6001600160a01b031614612af25760405163390cdd9b60e21b815260040160405180910390fd5b6001600160a01b038216612b1957604051630c63e1ed60e11b815260040160405180910390fd5b612b3783838384612b2986610ee6565b612b3287611e7b565b613af5565b612b4260008261256d565b612b4b81613da4565b612b558382613e40565b612b5f8282613a6c565b80826001600160a01b0316846001600160a01b03167fddf252ad1be2c89b69c2b068fc378daa952ba7f163c4a11628f55a4df523b3ef60405160405180910390a4610d5083838384612bb086610ee6565b612bb987611e7b565b613b32565b6111d68133613f61565b6000828152609d602090815260408083206001600160a01b038516845290915290205460ff1661105a576000828152609d602090815260408083206001600160a01b03851684529091529020805460ff19166001179055612c263390565b6001600160a01b0316816001600160a01b0316837f2f8788117e7eff1d82e926ec794901d17c78024a50270940304540a733656f0d60405160405180910390a45050565b6000828152609d602090815260408083206001600160a01b038516845290915290205460ff161561105a576000828152609d602090815260408083206001600160a01b0385168085529252808320805460ff1916905551339285917ff6391f5c32d9c69d2a47ea670b442974b53935d1edc7fd64eb21e047a839171b9190a45050565b7f189ab7a9244df0848122154315af71fe140f3db0fe014031783b0946b8c9d2e361105a81612bbe565b7f4910fdfa16fed3260ed0e7147f7cc6da11a60208b5b9406d12a635614ffd91435460ff1615612d4a57610d5083613fe1565b826001600160a01b03166352d1902d6040518163ffffffff1660e01b8152600401602060405180830381865afa925050508015612da4575060408051601f3d908101601f19168201909252612da191810190615a04565b60015b612e075760405162461bcd60e51b815260206004820152602e60248201527f45524331393637557067726164653a206e657720696d706c656d656e7461746960448201526d6f6e206973206e6f74205555505360901b6064820152608401610bd2565b7f360894a13ba1a3210667c828492db98dca3e2076cc3735a920a3ca505d382bbc8114612e885760405162461bcd60e51b815260206004820152602960248201527f45524331393637557067726164653a20756e737570706f727465642070726f786044820152681a58589b195555525160ba1b6064820152608401610bd2565b50610d5083838361408f565b612e9d81612521565b612ebd576040516338077a2b60e01b815260048101829052602401610bd2565b600081815260696020526040812054606880549091908110612ee157612ee1615713565b6000918252602090912060069091020160038101549091506001600160a01b0316338114612f225760405163390cdd9b60e21b815260040160405180910390fd5b60018201546002830154612f3b83600087818686613af5565b612f4485613da4565b612f4d856140b4565b612f578386613e40565b6000857f0b2aac84f3ec956911fd78eae5311062972ff949f38412e8da39069d9f068cc683604051612f8b91815260200190565b60405180910390a360405185906000906001600160a01b038616907fddf252ad1be2c89b69c2b068fc378daa952ba7f163c4a11628f55a4df523b3ef908390a4600082867fe4f48c240d3b994948aa54f3e2f5fca59263dfe1d52b6e4cf39a5d249b5ccb6560405160405180910390a46129908360008760008686613b32565b606c5460009015801590610c2f57506000828152606d6020526040902054606c8054849290811061303e5761303e615713565b9060005260206000209060020201600001541492915050565b60006130616142c2565b90503380600061307086610ee6565b90506001600160a01b03831661309957604051630c63e1ed60e11b815260040160405180910390fd5b836000036130bd5760405163d338ed0760e01b815260048101859052602401610bd2565b6130c684612521565b156130e7576040516314b27b7f60e31b815260048101859052602401610bd2565b6130f582848887858a613af5565b61310083858361268e565b60008481526069602052604090205460688054879290811061312457613124615713565b90600052602060002090600602016002018190555084606860696000898152602001908152602001600020548154811061316057613160615713565b9060005260206000209060060201600201600082825461318091906159f1565b9091555050604051858152849087907f0b2aac84f3ec956911fd78eae5311062972ff949f38412e8da39069d9f068cc69060200160405180910390a36131ca82848887858a613b32565b50505092915050565b6131dd82846142cc565b6132435760008381526069602052604090205460688054909190811061320557613205615713565b60009182526020808320600692909202909101600501805460018101825590835291200180546001600160a01b0319166001600160a01b0384161790555b60008381526067602090815260408083206001600160a01b038616808552908352928190208490555183815285917f621b050de0ad08b51d19b48b3e6df75348c4de6bdd93e81b252ca62e28265b1b91015b60405180910390a3505050565b816001600160a01b0316836001600160a01b0316036132ed5760405162ea9f2160e81b8152600060048201526001600160a01b03808516602483015283166044820152606401610bd2565b6001600160a01b038381166000818152606a602090815260408083209487168084526002909501825291829020805460ff191686151590811790915591519182527f17307eab39ab6107e8899845ad3d59bd9653f200f220920489ca2b5937696c319101613295565b61335e614be7565b606060008390036133825760405163a447fc5360e01b815260040160405180910390fd5b60008080808080808080806133998d8f018f615ae1565b99509950995099509950995099509950995099506133b9878a888b610e11565b8c5260c08c0185905260208c0187905260408c0186905260608c0189905260808c0188905260a08c018a90526133ee8161439f565b6001600160401b031660e08d015260006101008d015260016101208d01526101408c01939093526101608b01919091526101808a015296505050505050509250929050565b6001600160a01b03821661345a57604051630c63e1ed60e11b815260040160405180910390fd5b6020818101519081015190516001600160401b03918216911611156134b557602081015180519060015b6020020151604051630b58ad1560e21b81526001600160401b03928316600482015291166024820152604401610bd2565b6040810151602081015190516001600160401b03918216911611156134e35760408101518051906001613484565b6040810151516020820151516001600160401b03918216911611156135145760208101515160408201516000613484565b60808101515160005b818110156135955761013560008460800151838151811061354057613540615713565b602002602001015181526020019081526020016000208054613561906157d5565b90506000036135835760405163725a844f60e01b815260040160405180910390fd5b8061358d81615971565b91505061351d565b5060608201515160005b81811015612990576135d0610134856060015183815181106135c3576135c3615713565b6020026020010151613d7d565b6135ed5760405163725a844f60e01b815260040160405180910390fd5b806135f781615971565b91505061359f565b60005b8151811015610d5057610137600083838151811061362257613622615713565b6020908102919091018101516001600160a01b03168252818101929092526040908101600090812086825290925290205460ff16156136745760405163755402db60e11b815260040160405180910390fd5b6001610137600084848151811061368d5761368d615713565b6020908102919091018101516001600160a01b0316825281810192909252604090810160009081208782529092529020805460ff1916911515919091179055806136d681615971565b915050613602565b60006136e86142c2565b90506001600160a01b03841661371157604051630c63e1ed60e11b815260040160405180910390fd5b806000036137355760405163d338ed0760e01b815260048101829052602401610bd2565b61373e81612521565b1561375f576040516314b27b7f60e31b815260048101829052602401610bd2565b61376f6000856000848787613af5565b61377a84828561268e565b60008181526069602052604090205460688054849290811061379e5761379e615713565b9060005260206000209060060201600201819055508060007f0b2aac84f3ec956911fd78eae5311062972ff949f38412e8da39069d9f068cc6846040516137e791815260200190565b60405180910390a3610e0a6000856000848787613b32565b61380a848484612ab8565b613816848484846143ff565b611ca85760405162461bcd60e51b815260206004820152602760248201527f455243333532353a207472616e7366657220746f206e6f6e204552433732315260448201526632b1b2b4bb32b960c91b6064820152608401610bd2565b600054610100900460ff166138dd5760405162461bcd60e51b815260206004820152602b60248201527f496e697469616c697a61626c653a20636f6e7472616374206973206e6f74206960448201526a6e697469616c697a696e6760a81b6064820152608401610bd2565b565b60006001600160e01b03198216631dba0dcf60e11b1480610c2f5750610c2f826145ac565b600061390f60685490565b61244790600161595e565b606880548251600090815260696020908152604080832084905560018401855593909152835160069092027fa2153420d844928b4421650203c77babc8b33d7f2e7b450e2966db0c220977538101928355818501517fa2153420d844928b4421650203c77babc8b33d7f2e7b450e2966db0c22097754820155928401517fa2153420d844928b4421650203c77babc8b33d7f2e7b450e2966db0c2209775584015560608401517fa2153420d844928b4421650203c77babc8b33d7f2e7b450e2966db0c22097756840180546001600160a01b039283166001600160a01b03199182161790915560808601517fa2153420d844928b4421650203c77babc8b33d7f2e7b450e2966db0c220977578601805491909316911617905560a084015180518594611ca8937fa2153420d844928b4421650203c77babc8b33d7f2e7b450e2966db0c22097758909101920190614d52565b600081815260696020526040902054606880548492908110613a9057613a90615713565b6000918252602080832060069290920290910160030180546001600160a01b0319166001600160a01b03948516179055939091168152606a80845260408083208054858552600182810188529285208190559286529082018155825292902090910155565b6001600160a01b038616158015613b0a575083155b8015613b1c5750613b1a8261300b565b155b15613b2a57613b2a82614632565b505050505050565b6001600160a01b038616158015613b47575083155b8015613b5a5750613b588284614683565b155b15613b6e57613b69828461470f565b613b2a565b6001600160a01b038516158015613b83575082155b8015613b945750613b948285614683565b15613b2a57613b2a8285614770565b600080613baf856115cd565b90506001600160a01b0381163b15158015613c3357506040516301ffc9a760e01b8152629ce20b60e01b60048201526001600160a01b038216906301ffc9a790602401602060405180830381865afa158015613c0f573d6000803e3d6000fd5b505050506040513d601f19601f82011682018060405250810190613c339190615c47565b15613d7357604051629ce20b60e01b81526001600160a01b03821690629ce20b90613c6a9033908a908a908a908a90600401615c64565b6020604051808303816000875af1925050508015613ca5575060408051601f3d908101601f19168201909252613ca291810190615c98565b60015b613d58573d808015613cd3576040519150601f19603f3d011682016040523d82523d6000602084013e613cd8565b606091505b508051600003613d505760405162461bcd60e51b815260206004820152603460248201527f455243333532353a207472616e7366657220746f206e6f6e204552433335323560448201527f526563656976657220696d706c656d656e7465720000000000000000000000006064820152608401610bd2565b805181602001fd5b6001600160e01b031916629ce20b60e01b149150610e439050565b6001915050610e43565b60008181526020839052604081208054829190613d99906157d5565b905011905092915050565b600081815260696020526040812054606880549091908110613dc857613dc8615713565b600091825260208220600560069092020190810154909250905b81811015611ca8576000836005018281548110613e0157613e01615713565b60009182526020808320909101548783526067825260408084206001600160a01b03909216845291528120555080613e3881615971565b915050613de2565b600081815260696020526040812054606880549091908110613e6457613e64615713565b6000918252602080832060069290920290910160030180546001600160a01b0319166001600160a01b039485161790559184168152606a909152604081208054909190613eb3906001906159f1565b90506000826000018281548110613ecc57613ecc615713565b90600052602060002001549050600083600101600086815260200190815260200160002054905081846000018281548110613f0957613f09615713565b60009182526020808320909101929092558381526001860190915260408082208390558682528120558354849080613f4357613f43615cb5565b60019003818190600052602060002001600090559055505050505050565b6000828152609d602090815260408083206001600160a01b038516845290915290205460ff1661105a57613f9f816001600160a01b0316601461485a565b613faa83602061485a565b604051602001613fbb929190615ccb565b60408051601f198184030181529082905262461bcd60e51b8252610bd291600401614e9d565b6001600160a01b0381163b61404e5760405162461bcd60e51b815260206004820152602d60248201527f455243313936373a206e657720696d706c656d656e746174696f6e206973206e60448201526c1bdd08184818dbdb9d1c9858dd609a1b6064820152608401610bd2565b7f360894a13ba1a3210667c828492db98dca3e2076cc3735a920a3ca505d382bbc80546001600160a01b0319166001600160a01b0392909216919091179055565b614098836149f5565b6000825111806140a55750805b15610d5057611ca88383614a35565b6068546000906140c6906001906159f1565b600083815260696020526040812054606880549394509092849081106140ee576140ee615713565b60009182526020918290206040805160c08101825260069093029091018054835260018101548385015260028101548383015260038101546001600160a01b03908116606085015260048201541660808401526005810180548351818702810187019094528084529394919360a08601939283018282801561419957602002820191906000526020600020905b81546001600160a01b0316815260019091019060200180831161417b575b505050505081525050905080606883815481106141b8576141b8615713565b600091825260209182902083516006909202019081558282015160018201556040830151600282015560608301516003820180546001600160a01b039283166001600160a01b031991821617909155608085015160048401805491909316911617905560a08301518051919261423692600585019290910190614d52565b5050815160009081526069602052604080822085905586825281205550606880548061426457614264615cb5565b60008281526020812060066000199093019283020181815560018101829055600281018290556003810180546001600160a01b03199081169091556004820180549091169055906142b86005830182614da7565b5050905550505050565b6000612447613904565b6000818152606960205260408120546068805483929081106142f0576142f0615713565b6000918252602082206005600690920201015491505b8181101561439457600084815260696020526040902054606880546001600160a01b0388169290811061433b5761433b615713565b9060005260206000209060060201600501828154811061435d5761435d615713565b6000918252602090912001546001600160a01b03160361438257600192505050610c2f565b8061438c81615971565b915050614306565b506000949350505050565b600081516000036143b257506000919050565b6000805b83518110156143f8578381815181106143d1576143d1615713565b6020026020010151826143e49190615d4c565b9150806143f081615971565b9150506143b6565b5092915050565b60006001600160a01b0384163b1515801561448457506040516301ffc9a760e01b8152630a85bd0160e11b60048201526001600160a01b038516906301ffc9a790602401602060405180830381865afa158015614460573d6000803e3d6000fd5b505050506040513d601f19601f820116820180604052508101906144849190615c47565b156145a457604051630a85bd0160e11b81526001600160a01b0385169063150b7a02906144bb903390899088908890600401615d6c565b6020604051808303816000875af19250505080156144f6575060408051601f3d908101601f191682019092526144f391810190615c98565b60015b61458a573d808015614524576040519150601f19603f3d011682016040523d82523d6000602084013e614529565b606091505b508051600003613d505760405162461bcd60e51b815260206004820152602660248201527f4552433732313a207472616e7366657220746f206e6f6e20455243373231526560448201526531b2b4bb32b960d11b6064820152608401610bd2565b6001600160e01b031916630a85bd0160e11b149050610e43565b506001610e43565b60006001600160e01b03198216630354d60560e61b14806145dd57506001600160e01b031982166380ac58cd60e01b145b806145f857506001600160e01b031982166370b0048160e11b145b8061461357506001600160e01b0319821663780e9d6360e01b145b80610c2f57506301ffc9a760e01b6001600160e01b0319831614610c2f565b61463b8161300b565b1561465957604051630139222f60e31b815260040160405180910390fd5b60408051808201825282815281516000808252602082810190945292820152905061105a81614b29565b6000828152606d6020526040812054606c805483929081106146a7576146a7615713565b9060005260206000209060020201905060008160010180549050118015610e4357506000848152606b6020908152604080832086845290915290205460018201805485929081106146fa576146fa615713565b90600052602060002001541491505092915050565b6000828152606d6020526040812054606c8054909190811061473357614733615713565b60009182526020808320600160029093020182018054968452606b8252604080852087865283528420879055918601825590825290209092015550565b6000828152606d6020526040812054606c8054909190811061479457614794615713565b6000918252602082206001600290920201818101549093506147b691906159f1565b905060008260010182815481106147cf576147cf615713565b9060005260206000200154905060008360010185815481106147f3576147f3615713565b906000526020600020015490508184600101828154811061481657614816615713565b600091825260208083209190910192909255878152606b825260408082208583529092528181208390558681529081205560018401805480613f4357613f43615cb5565b60606000614869836002615da8565b61487490600261595e565b6001600160401b0381111561488b5761488b614f3f565b6040519080825280601f01601f1916602001820160405280156148b5576020820181803683370190505b509050600360fc1b816000815181106148d0576148d0615713565b60200101906001600160f81b031916908160001a905350600f60fb1b816001815181106148ff576148ff615713565b60200101906001600160f81b031916908160001a9053506000614923846002615da8565b61492e90600161595e565b90505b60018111156149a6576f181899199a1a9b1b9c1cb0b131b232b360811b85600f166010811061496257614962615713565b1a60f81b82828151811061497857614978615713565b60200101906001600160f81b031916908160001a90535060049490941c9361499f81615dc7565b9050614931565b508315610e0a5760405162461bcd60e51b815260206004820181905260248201527f537472696e67733a20686578206c656e67746820696e73756666696369656e746044820152606401610bd2565b6149fe81613fe1565b6040516001600160a01b038216907fbc7cd75a20ee27fd9adebab32041f755214dbc6bffa90cc0225b39da2e5c2d3b90600090a250565b60606001600160a01b0383163b614a9d5760405162461bcd60e51b815260206004820152602660248201527f416464726573733a2064656c65676174652063616c6c20746f206e6f6e2d636f6044820152651b9d1c9858dd60d21b6064820152608401610bd2565b600080846001600160a01b031684604051614ab89190615dde565b600060405180830381855af49150503d8060008114614af3576040519150601f19603f3d011682016040523d82523d6000602084013e614af8565b606091505b5091509150614b208282604051806060016040528060278152602001615dfb60279139614bae565b95945050505050565b606c805482516000908152606d602090815260408220839055600183018455929052825160029091027f2b4a51ab505fc96a0952efda2ba61bcd3078d4c02c39a186ec16f21883fbe01681019182558284015180518594611ca8937f2b4a51ab505fc96a0952efda2ba61bcd3078d4c02c39a186ec16f21883fbe01701920190614d17565b60608315614bbd575081610e0a565b825115614bcd5782518084602001fd5b8160405162461bcd60e51b8152600401610bd29190614e9d565b604080516101c081019091526000815260208101614c03614dc5565b8152602001614c10614dc5565b81526020016060815260200160608152602001606081526020016060815260200160008152602001600061ffff16815260200160001515815260200160608152602001606081526020016060815260200160006001600160a01b031681525090565b600183019183908215614d075791602002820160005b83821115614cd257835183826101000a8154816001600160401b0302191690836001600160401b031602179055509260200192600801602081600701049283019260010302614c88565b8015614d055782816101000a8154906001600160401b030219169055600801602081600701049283019260010302614cd2565b505b50614d13929150614de3565b5090565b828054828255906000526020600020908101928215614d07579160200282015b82811115614d07578251825591602001919060010190614d37565b828054828255906000526020600020908101928215614d07579160200282015b82811115614d0757825182546001600160a01b0319166001600160a01b03909116178255602090920191600190910190614d72565b50805460008255906000526020600020908101906111d69190614de3565b60405180604001604052806002906020820280368337509192915050565b5b80821115614d135760008155600101614de4565b60008060408385031215614e0b57600080fd5b50508035926020909101359150565b6001600160e01b0319811681146111d657600080fd5b600060208284031215614e4257600080fd5b8135610e0a81614e1a565b60005b83811015614e68578181015183820152602001614e50565b50506000910152565b60008151808452614e89816020860160208601614e4d565b601f01601f19169290920160200192915050565b602081526000610e0a6020830184614e71565b600060208284031215614ec257600080fd5b5035919050565b80356001600160a01b038116811461165c57600080fd5b60008060408385031215614ef357600080fd5b614efc83614ec9565b946020939093013593505050565b600080600060608486031215614f1f57600080fd5b83359250614f2f60208501614ec9565b9150604084013590509250925092565b634e487b7160e01b600052604160045260246000fd5b604051601f8201601f191681016001600160401b0381118282101715614f7d57614f7d614f3f565b604052919050565b80356001600160401b038116811461165c57600080fd5b600082601f830112614fad57600080fd5b604051604081018181106001600160401b0382111715614fcf57614fcf614f3f565b8060405250806040840185811115614fe657600080fd5b845b8181101561500757614ff981614f85565b835260209283019201614fe8565b509195945050505050565b60006001600160401b0382111561502b5761502b614f3f565b5060051b60200190565b600082601f83011261504657600080fd5b8135602061505b61505683615012565b614f55565b82815260059290921b8401810191818101908684111561507a57600080fd5b8286015b84811015615095578035835291830191830161507e565b509695505050505050565b60008060008060c085870312156150b657600080fd5b6150c08686614f9c565b935060408501356001600160401b03808211156150dc57600080fd5b6150e888838901615035565b94506150f78860608901614f9c565b935060a087013591508082111561510d57600080fd5b5061511a87828801615035565b91505092959194509250565b60006001600160401b0382111561513f5761513f614f3f565b50601f01601f191660200190565b600082601f83011261515e57600080fd5b813561516c61505682615126565b81815284602083860101111561518157600080fd5b816020850160208301376000918101602001919091529392505050565b6000602082840312156151b057600080fd5b81356001600160401b038111156151c657600080fd5b610e438482850161514d565b6000806000606084860312156151e757600080fd5b6151f084614ec9565b9250614f2f60208501614ec9565b6000806040838503121561521157600080fd5b8235915061522160208401614ec9565b90509250929050565b60008060006060848603121561523f57600080fd5b505081359360208301359350604090920135919050565b60006020828403121561526857600080fd5b610e0a82614ec9565b6000806040838503121561528457600080fd5b61528d83614ec9565b915060208301356001600160401b038111156152a857600080fd5b6152b48582860161514d565b9150509250929050565b6000806000604084860312156152d357600080fd5b8335925060208401356001600160401b03808211156152f157600080fd5b818601915086601f83011261530557600080fd5b81358181111561531457600080fd5b8760208260051b850101111561532957600080fd5b6020830194508093505050509250925092565b8060005b6002811015611ca85781516001600160401b0316845260209384019390910190600101615340565b600081518084526020808501945080840160005b838110156153985781518752958201959082019060010161537c565b509495945050505050565b600081518084526020808501945080840160005b838110156153985781516001600160a01b0316875295820195908201906001016153b7565b6020815281516020820152600060208301516153fb604084018261533c565b50604083015161540e608084018261533c565b5060608301516102008060c085015261542b610220850183615368565b91506080850151601f19808685030160e08701526154498483615368565b935060a087015191506101008187860301818801526154688584615368565b945060c0880151925061012082888703018189015261548786856153a3565b955060e0890151935061014084818a0152828a0151945061016092506154b2838a018661ffff169052565b908901519350610180906154c98983018615159052565b808a01519450506101a08389880301818a01526154e68786614e71565b9650828a0151945083898803016101c08a01526155038786614e71565b9650818a0151945083898803016101e08a01526155208786614e71565b9650808a0151945050505050615540828601826001600160a01b03169052565b5090949350505050565b80151581146111d657600080fd5b6000806040838503121561556b57600080fd5b61557483614ec9565b915060208301356155848161554a565b809150509250929050565b6000806000604084860312156155a457600080fd5b6155ad84614ec9565b925060208401356001600160401b03808211156155c957600080fd5b818601915086601f8301126155dd57600080fd5b8135818111156155ec57600080fd5b87602082850101111561532957600080fd5b6000806000806080858703121561561457600080fd5b61561d85614ec9565b935061562b60208601614ec9565b92506040850135915060608501356001600160401b0381111561564d57600080fd5b61511a8782880161514d565b6000602080838503121561566c57600080fd5b82356001600160401b0381111561568257600080fd5b8301601f8101851361569357600080fd5b80356156a161505682615012565b81815260059190911b820183019083810190878311156156c057600080fd5b928401925b828410156156de578335825292840192908401906156c5565b979650505050505050565b600080604083850312156156fc57600080fd5b61570583614ec9565b915061522160208401614ec9565b634e487b7160e01b600052603260045260246000fd5b60006020828403121561573b57600080fd5b81516001600160401b0381111561575157600080fd5b8201601f8101841361576257600080fd5b805161577061505682615126565b81815285602083850101111561578557600080fd5b614b20826020830160208601614e4d565b6157a0818661533c565b60c0604082015260006157b660c0830186615368565b6157c3606084018661533c565b82810360a08401526156de8185615368565b600181811c908216806157e957607f821691505b60208210810361580957634e487b7160e01b600052602260045260246000fd5b50919050565b601f821115610d5057600081815260208120601f850160051c810160208610156158365750805b601f850160051c820191505b81811015613b2a57828155600101615842565b81516001600160401b0381111561586e5761586e614f3f565b6158828161587c84546157d5565b8461580f565b602080601f8311600181146158b7576000841561589f5750858301515b600019600386901b1c1916600185901b178555613b2a565b600085815260208120601f198616915b828110156158e6578886015182559484019460019091019084016158c7565b50858210156159045787850151600019600388901b60f8161c191681555b5050505050600190811b01905550565b828152604060208201526000610e436040830184614e71565b634e487b7160e01b600052601160045260246000fd5b61ffff8181168382160190808211156143f8576143f861592d565b80820180821115610c2f57610c2f61592d565b6000600182016159835761598361592d565b5060010190565b60006060820185835260206001600160a01b0386168185015260606040850152818551808452608086019150828701935060005b818110156159e35784516001600160401b0316835293830193918301916001016159be565b509098975050505050505050565b81810381811115610c2f57610c2f61592d565b600060208284031215615a1657600080fd5b5051919050565b600082601f830112615a2e57600080fd5b81356020615a3e61505683615012565b82815260059290921b84018101918181019086841115615a5d57600080fd5b8286015b8481101561509557615a7281614ec9565b8352918301918301615a61565b600082601f830112615a9057600080fd5b81356020615aa061505683615012565b82815260059290921b84018101918181019086841115615abf57600080fd5b8286015b8481101561509557615ad481614f85565b8352918301918301615ac3565b6000806000806000806000806000806101808b8d031215615b0157600080fd5b8a356001600160401b0380821115615b1857600080fd5b615b248e838f01615035565b9b5060208d0135915080821115615b3a57600080fd5b615b468e838f01615035565b9a5060408d0135915080821115615b5c57600080fd5b615b688e838f01615035565b9950615b778e60608f01614f9c565b9850615b868e60a08f01614f9c565b975060e08d0135915080821115615b9c57600080fd5b615ba88e838f01615a1d565b96506101008d0135915080821115615bbf57600080fd5b615bcb8e838f0161514d565b95506101208d0135915080821115615be257600080fd5b615bee8e838f0161514d565b94506101408d0135915080821115615c0557600080fd5b615c118e838f0161514d565b93506101608d0135915080821115615c2857600080fd5b50615c358d828e01615a7f565b9150509295989b9194979a5092959850565b600060208284031215615c5957600080fd5b8151610e0a8161554a565b6001600160a01b038616815284602082015283604082015282606082015260a0608082015260006156de60a0830184614e71565b600060208284031215615caa57600080fd5b8151610e0a81614e1a565b634e487b7160e01b600052603160045260246000fd5b7f416363657373436f6e74726f6c3a206163636f756e7420000000000000000000815260008351615d03816017850160208801614e4d565b7f206973206d697373696e6720726f6c65200000000000000000000000000000006017918401918201528351615d40816028840160208801614e4d565b01602801949350505050565b6001600160401b038181168382160190808211156143f8576143f861592d565b60006001600160a01b03808716835280861660208401525083604083015260806060830152615d9e6080830184614e71565b9695505050505050565b6000816000190483118215151615615dc257615dc261592d565b500290565b600081615dd657615dd661592d565b506000190190565b60008251615df0818460208701614e4d565b919091019291505056fe416464726573733a206c6f772d6c6576656c2064656c65676174652063616c6c206661696c6564a164736f6c6343000810000a",
  "linkReferences": {},
  "deployedLinkReferences": {}
}