{
  "_format": "hh-sol-artifact-1",
  "contractName": "HyperCertMinter",
  "sourceName": "contracts/HyperCertMinter.sol",
  "abi": [
    {
      "inputs": [],
      "stateMutability": "nonpayable",
      "type": "constructor"
    },
    {
      "inputs": [
        {
          "internalType": "uint256",
          "name": "tokenId",
          "type": "uint256"
        }
      ],
      "name": "AlreadyMinted",
      "type": "error"
    },
    {
      "inputs": [],
      "name": "ConflictingClaim",
      "type": "error"
    },
    {
      "inputs": [],
      "name": "DuplicateScope",
      "type": "error"
    },
    {
      "inputs": [],
      "name": "EmptyInput",
      "type": "error"
    },
    {
      "inputs": [
        {
          "internalType": "uint256",
          "name": "transferAmount",
          "type": "uint256"
        },
        {
          "internalType": "uint256",
          "name": "allowance",
          "type": "uint256"
        }
      ],
      "name": "InsufficientAllowance",
      "type": "error"
    },
    {
      "inputs": [
        {
          "internalType": "uint256",
          "name": "transferAmount",
          "type": "uint256"
        },
        {
          "internalType": "uint256",
          "name": "balance",
          "type": "uint256"
        }
      ],
      "name": "InsufficientBalance",
      "type": "error"
    },
    {
      "inputs": [
        {
          "internalType": "uint256",
          "name": "tokenId",
          "type": "uint256"
        },
        {
          "internalType": "address",
          "name": "from",
          "type": "address"
        },
        {
          "internalType": "address",
          "name": "to",
          "type": "address"
        }
      ],
      "name": "InvalidApproval",
      "type": "error"
    },
    {
      "inputs": [
        {
          "internalType": "uint256",
          "name": "tokenId",
          "type": "uint256"
        }
      ],
      "name": "InvalidID",
      "type": "error"
    },
    {
      "inputs": [],
      "name": "InvalidInput",
      "type": "error"
    },
    {
      "inputs": [],
      "name": "InvalidScope",
      "type": "error"
    },
    {
      "inputs": [
        {
          "internalType": "uint64",
          "name": "from",
          "type": "uint64"
        },
        {
          "internalType": "uint64",
          "name": "to",
          "type": "uint64"
        }
      ],
      "name": "InvalidTimeframe",
      "type": "error"
    },
    {
      "inputs": [
        {
          "internalType": "uint256",
          "name": "slotId",
          "type": "uint256"
        }
      ],
      "name": "NonExistentSlot",
      "type": "error"
    },
    {
      "inputs": [
        {
          "internalType": "uint256",
          "name": "tokenId",
          "type": "uint256"
        }
      ],
      "name": "NonExistentToken",
      "type": "error"
    },
    {
      "inputs": [],
      "name": "NotApprovedOrOwner",
      "type": "error"
    },
    {
      "inputs": [
        {
          "internalType": "address",
          "name": "receiver",
          "type": "address"
        }
      ],
      "name": "NotERC3525Receiver",
      "type": "error"
    },
    {
      "inputs": [
        {
          "internalType": "address",
          "name": "receiver",
          "type": "address"
        }
      ],
      "name": "NotERC721Receiver",
      "type": "error"
    },
    {
      "inputs": [],
      "name": "SlotAlreadyMinted",
      "type": "error"
    },
    {
      "inputs": [
        {
          "internalType": "uint256",
          "name": "slotId",
          "type": "uint256"
        }
      ],
      "name": "SlotOutOfBounds",
      "type": "error"
    },
    {
      "inputs": [
        {
          "internalType": "uint256",
          "name": "slotId",
          "type": "uint256"
        },
        {
          "internalType": "uint256",
          "name": "tokenId",
          "type": "uint256"
        }
      ],
      "name": "SlotTokenOutOfBounds",
      "type": "error"
    },
    {
      "inputs": [
        {
          "internalType": "uint256",
          "name": "fromTokenId",
          "type": "uint256"
        },
        {
          "internalType": "uint256",
          "name": "toTokenId",
          "type": "uint256"
        }
      ],
      "name": "SlotsMismatch",
      "type": "error"
    },
    {
      "inputs": [],
      "name": "ToZeroAddress",
      "type": "error"
    },
    {
      "anonymous": false,
      "inputs": [
        {
          "indexed": false,
          "internalType": "address",
          "name": "previousAdmin",
          "type": "address"
        },
        {
          "indexed": false,
          "internalType": "address",
          "name": "newAdmin",
          "type": "address"
        }
      ],
      "name": "AdminChanged",
      "type": "event"
    },
    {
      "anonymous": false,
      "inputs": [
        {
          "indexed": true,
          "internalType": "address",
          "name": "owner",
          "type": "address"
        },
        {
          "indexed": true,
          "internalType": "address",
          "name": "approved",
          "type": "address"
        },
        {
          "indexed": true,
          "internalType": "uint256",
          "name": "tokenId",
          "type": "uint256"
        }
      ],
      "name": "Approval",
      "type": "event"
    },
    {
      "anonymous": false,
      "inputs": [
        {
          "indexed": true,
          "internalType": "address",
          "name": "owner",
          "type": "address"
        },
        {
          "indexed": true,
          "internalType": "address",
          "name": "operator",
          "type": "address"
        },
        {
          "indexed": false,
          "internalType": "bool",
          "name": "approved",
          "type": "bool"
        }
      ],
      "name": "ApprovalForAll",
      "type": "event"
    },
    {
      "anonymous": false,
      "inputs": [
        {
          "indexed": true,
          "internalType": "uint256",
          "name": "_tokenId",
          "type": "uint256"
        },
        {
          "indexed": true,
          "internalType": "address",
          "name": "_operator",
          "type": "address"
        },
        {
          "indexed": false,
          "internalType": "uint256",
          "name": "_value",
          "type": "uint256"
        }
      ],
      "name": "ApprovalValue",
      "type": "event"
    },
    {
      "anonymous": false,
      "inputs": [
        {
          "indexed": true,
          "internalType": "address",
          "name": "beacon",
          "type": "address"
        }
      ],
      "name": "BeaconUpgraded",
      "type": "event"
    },
    {
      "anonymous": false,
      "inputs": [
        {
          "indexed": false,
          "internalType": "uint256",
          "name": "id",
          "type": "uint256"
        },
        {
          "indexed": false,
          "internalType": "address",
          "name": "minter",
          "type": "address"
        },
        {
          "indexed": false,
          "internalType": "uint64[]",
          "name": "fractions",
          "type": "uint64[]"
        }
      ],
      "name": "ImpactClaimed",
      "type": "event"
    },
    {
      "anonymous": false,
      "inputs": [
        {
          "indexed": false,
          "internalType": "bytes32",
          "name": "id",
          "type": "bytes32"
        },
        {
          "indexed": false,
          "internalType": "string",
          "name": "text",
          "type": "string"
        }
      ],
      "name": "ImpactScopeAdded",
      "type": "event"
    },
    {
      "anonymous": false,
      "inputs": [
        {
          "indexed": false,
          "internalType": "uint8",
          "name": "version",
          "type": "uint8"
        }
      ],
      "name": "Initialized",
      "type": "event"
    },
    {
      "anonymous": false,
      "inputs": [
        {
          "indexed": false,
          "internalType": "bytes32",
          "name": "id",
          "type": "bytes32"
        },
        {
          "indexed": false,
          "internalType": "string",
          "name": "text",
          "type": "string"
        }
      ],
      "name": "RightAdded",
      "type": "event"
    },
    {
      "anonymous": false,
      "inputs": [
        {
          "indexed": true,
          "internalType": "bytes32",
          "name": "role",
          "type": "bytes32"
        },
        {
          "indexed": true,
          "internalType": "bytes32",
          "name": "previousAdminRole",
          "type": "bytes32"
        },
        {
          "indexed": true,
          "internalType": "bytes32",
          "name": "newAdminRole",
          "type": "bytes32"
        }
      ],
      "name": "RoleAdminChanged",
      "type": "event"
    },
    {
      "anonymous": false,
      "inputs": [
        {
          "indexed": true,
          "internalType": "bytes32",
          "name": "role",
          "type": "bytes32"
        },
        {
          "indexed": true,
          "internalType": "address",
          "name": "account",
          "type": "address"
        },
        {
          "indexed": true,
          "internalType": "address",
          "name": "sender",
          "type": "address"
        }
      ],
      "name": "RoleGranted",
      "type": "event"
    },
    {
      "anonymous": false,
      "inputs": [
        {
          "indexed": true,
          "internalType": "bytes32",
          "name": "role",
          "type": "bytes32"
        },
        {
          "indexed": true,
          "internalType": "address",
          "name": "account",
          "type": "address"
        },
        {
          "indexed": true,
          "internalType": "address",
          "name": "sender",
          "type": "address"
        }
      ],
      "name": "RoleRevoked",
      "type": "event"
    },
    {
      "anonymous": false,
      "inputs": [
        {
          "indexed": true,
          "internalType": "uint256",
          "name": "_tokenId",
          "type": "uint256"
        },
        {
          "indexed": true,
          "internalType": "uint256",
          "name": "_oldSlot",
          "type": "uint256"
        },
        {
          "indexed": true,
          "internalType": "uint256",
          "name": "_newSlot",
          "type": "uint256"
        }
      ],
      "name": "SlotChanged",
      "type": "event"
    },
    {
      "anonymous": false,
      "inputs": [
        {
          "indexed": true,
          "internalType": "address",
          "name": "from",
          "type": "address"
        },
        {
          "indexed": true,
          "internalType": "address",
          "name": "to",
          "type": "address"
        },
        {
          "indexed": true,
          "internalType": "uint256",
          "name": "tokenId",
          "type": "uint256"
        }
      ],
      "name": "Transfer",
      "type": "event"
    },
    {
      "anonymous": false,
      "inputs": [
        {
          "indexed": true,
          "internalType": "uint256",
          "name": "_fromTokenId",
          "type": "uint256"
        },
        {
          "indexed": true,
          "internalType": "uint256",
          "name": "_toTokenId",
          "type": "uint256"
        },
        {
          "indexed": false,
          "internalType": "uint256",
          "name": "_value",
          "type": "uint256"
        }
      ],
      "name": "TransferValue",
      "type": "event"
    },
    {
      "anonymous": false,
      "inputs": [
        {
          "indexed": true,
          "internalType": "address",
          "name": "implementation",
          "type": "address"
        }
      ],
      "name": "Upgraded",
      "type": "event"
    },
    {
      "anonymous": false,
      "inputs": [
        {
          "indexed": false,
          "internalType": "bytes32",
          "name": "id",
          "type": "bytes32"
        },
        {
          "indexed": false,
          "internalType": "string",
          "name": "text",
          "type": "string"
        }
      ],
      "name": "WorkScopeAdded",
      "type": "event"
    },
    {
      "inputs": [],
      "name": "DECIMALS",
      "outputs": [
        {
          "internalType": "uint8",
          "name": "",
          "type": "uint8"
        }
      ],
      "stateMutability": "view",
      "type": "function"
    },
    {
      "inputs": [],
      "name": "DEFAULT_ADMIN_ROLE",
      "outputs": [
        {
          "internalType": "bytes32",
          "name": "",
          "type": "bytes32"
        }
      ],
      "stateMutability": "view",
      "type": "function"
    },
    {
      "inputs": [],
      "name": "NAME",
      "outputs": [
        {
          "internalType": "string",
          "name": "",
          "type": "string"
        }
      ],
      "stateMutability": "view",
      "type": "function"
    },
    {
      "inputs": [],
      "name": "SYMBOL",
      "outputs": [
        {
          "internalType": "string",
          "name": "",
          "type": "string"
        }
      ],
      "stateMutability": "view",
      "type": "function"
    },
    {
      "inputs": [],
      "name": "UPGRADER_ROLE",
      "outputs": [
        {
          "internalType": "bytes32",
          "name": "",
          "type": "bytes32"
        }
      ],
      "stateMutability": "view",
      "type": "function"
    },
    {
      "inputs": [],
      "name": "__ERC3525Upgradeable_init",
      "outputs": [],
      "stateMutability": "nonpayable",
      "type": "function"
    },
    {
      "inputs": [
        {
          "internalType": "string",
          "name": "text",
          "type": "string"
        }
      ],
      "name": "addImpactScope",
      "outputs": [
        {
          "internalType": "bytes32",
          "name": "id",
          "type": "bytes32"
        }
      ],
      "stateMutability": "nonpayable",
      "type": "function"
    },
    {
      "inputs": [
        {
          "internalType": "string",
          "name": "text",
          "type": "string"
        }
      ],
      "name": "addRight",
      "outputs": [
        {
          "internalType": "bytes32",
          "name": "id",
          "type": "bytes32"
        }
      ],
      "stateMutability": "nonpayable",
      "type": "function"
    },
    {
      "inputs": [
        {
          "internalType": "string",
          "name": "text",
          "type": "string"
        }
      ],
      "name": "addWorkScope",
      "outputs": [
        {
          "internalType": "bytes32",
          "name": "id",
          "type": "bytes32"
        }
      ],
      "stateMutability": "nonpayable",
      "type": "function"
    },
    {
      "inputs": [
        {
          "internalType": "uint256",
          "name": "tokenId_",
          "type": "uint256"
        },
        {
          "internalType": "address",
          "name": "operator_",
          "type": "address"
        }
      ],
      "name": "allowance",
      "outputs": [
        {
          "internalType": "uint256",
          "name": "",
          "type": "uint256"
        }
      ],
      "stateMutability": "view",
      "type": "function"
    },
    {
      "inputs": [
        {
          "internalType": "address",
          "name": "to_",
          "type": "address"
        },
        {
          "internalType": "uint256",
          "name": "tokenId_",
          "type": "uint256"
        }
      ],
      "name": "approve",
      "outputs": [],
      "stateMutability": "nonpayable",
      "type": "function"
    },
    {
      "inputs": [
        {
          "internalType": "uint256",
          "name": "tokenId_",
          "type": "uint256"
        },
        {
          "internalType": "address",
          "name": "to_",
          "type": "address"
        },
        {
          "internalType": "uint256",
          "name": "value_",
          "type": "uint256"
        }
      ],
      "name": "approve",
      "outputs": [],
      "stateMutability": "payable",
      "type": "function"
    },
    {
      "inputs": [
        {
          "internalType": "address",
          "name": "owner_",
          "type": "address"
        }
      ],
      "name": "balanceOf",
      "outputs": [
        {
          "internalType": "uint256",
          "name": "balance",
          "type": "uint256"
        }
      ],
      "stateMutability": "view",
      "type": "function"
    },
    {
      "inputs": [
        {
          "internalType": "uint256",
          "name": "tokenId_",
          "type": "uint256"
        }
      ],
      "name": "balanceOf",
      "outputs": [
        {
          "internalType": "uint256",
          "name": "",
          "type": "uint256"
        }
      ],
      "stateMutability": "view",
      "type": "function"
    },
    {
      "inputs": [
        {
          "internalType": "uint256",
          "name": "tokenId_",
          "type": "uint256"
        }
      ],
      "name": "burn",
      "outputs": [],
      "stateMutability": "nonpayable",
      "type": "function"
    },
    {
      "inputs": [],
      "name": "contractURI",
      "outputs": [
        {
          "internalType": "string",
          "name": "",
          "type": "string"
        }
      ],
      "stateMutability": "view",
      "type": "function"
    },
    {
      "inputs": [
        {
          "internalType": "uint256",
          "name": "tokenId_",
          "type": "uint256"
        }
      ],
      "name": "donate",
      "outputs": [],
      "stateMutability": "nonpayable",
      "type": "function"
    },
    {
      "inputs": [
        {
          "internalType": "uint256",
          "name": "tokenId_",
          "type": "uint256"
        }
      ],
      "name": "getApproved",
      "outputs": [
        {
          "internalType": "address",
          "name": "",
          "type": "address"
        }
      ],
      "stateMutability": "view",
      "type": "function"
    },
    {
      "inputs": [
        {
          "internalType": "uint64[2]",
          "name": "workTimeframe_",
          "type": "uint64[2]"
        },
        {
          "internalType": "bytes32[]",
          "name": "workScopes_",
          "type": "bytes32[]"
        },
        {
          "internalType": "uint64[2]",
          "name": "impactTimeframe_",
          "type": "uint64[2]"
        },
        {
          "internalType": "bytes32[]",
          "name": "impactScopes_",
          "type": "bytes32[]"
        }
      ],
      "name": "getHash",
      "outputs": [
        {
          "internalType": "bytes32",
          "name": "",
          "type": "bytes32"
        }
      ],
      "stateMutability": "pure",
      "type": "function"
    },
    {
      "inputs": [
        {
          "internalType": "uint256",
          "name": "claimID",
          "type": "uint256"
        }
      ],
      "name": "getImpactCert",
      "outputs": [
        {
          "components": [
            {
              "internalType": "bytes32",
              "name": "claimHash",
              "type": "bytes32"
            },
            {
              "internalType": "uint64[2]",
              "name": "workTimeframe",
              "type": "uint64[2]"
            },
            {
              "internalType": "uint64[2]",
              "name": "impactTimeframe",
              "type": "uint64[2]"
            },
            {
              "internalType": "bytes32[]",
              "name": "workScopes",
              "type": "bytes32[]"
            },
            {
              "internalType": "bytes32[]",
              "name": "impactScopes",
              "type": "bytes32[]"
            },
            {
              "internalType": "bytes32[]",
              "name": "rights",
              "type": "bytes32[]"
            },
            {
              "internalType": "address[]",
              "name": "contributors",
              "type": "address[]"
            },
            {
              "internalType": "uint256",
              "name": "totalUnits",
              "type": "uint256"
            },
            {
              "internalType": "uint16",
              "name": "version",
              "type": "uint16"
            },
            {
              "internalType": "bool",
              "name": "exists",
              "type": "bool"
            },
            {
              "internalType": "string",
              "name": "name",
              "type": "string"
            },
            {
              "internalType": "string",
              "name": "description",
              "type": "string"
            },
            {
              "internalType": "string",
              "name": "uri",
              "type": "string"
            },
            {
              "internalType": "address",
              "name": "minter",
              "type": "address"
            }
          ],
          "internalType": "struct HyperCertMinter.Claim",
          "name": "",
          "type": "tuple"
        }
      ],
      "stateMutability": "view",
      "type": "function"
    },
    {
      "inputs": [
        {
          "internalType": "bytes32",
          "name": "role",
          "type": "bytes32"
        }
      ],
      "name": "getRoleAdmin",
      "outputs": [
        {
          "internalType": "bytes32",
          "name": "",
          "type": "bytes32"
        }
      ],
      "stateMutability": "view",
      "type": "function"
    },
    {
      "inputs": [
        {
          "internalType": "bytes32",
          "name": "role",
          "type": "bytes32"
        },
        {
          "internalType": "address",
          "name": "account",
          "type": "address"
        }
      ],
      "name": "grantRole",
      "outputs": [],
      "stateMutability": "nonpayable",
      "type": "function"
    },
    {
      "inputs": [
        {
          "internalType": "bytes32",
          "name": "role",
          "type": "bytes32"
        },
        {
          "internalType": "address",
          "name": "account",
          "type": "address"
        }
      ],
      "name": "hasRole",
      "outputs": [
        {
          "internalType": "bool",
          "name": "",
          "type": "bool"
        }
      ],
      "stateMutability": "view",
      "type": "function"
    },
    {
      "inputs": [
        {
          "internalType": "bytes32",
          "name": "",
          "type": "bytes32"
        }
      ],
      "name": "impactScopes",
      "outputs": [
        {
          "internalType": "string",
          "name": "",
          "type": "string"
        }
      ],
      "stateMutability": "view",
      "type": "function"
    },
    {
      "inputs": [
        {
          "internalType": "address",
          "name": "metadataAddress",
          "type": "address"
        }
      ],
      "name": "initialize",
      "outputs": [],
      "stateMutability": "nonpayable",
      "type": "function"
    },
    {
      "inputs": [
        {
          "internalType": "address",
          "name": "owner_",
          "type": "address"
        },
        {
          "internalType": "address",
          "name": "operator_",
          "type": "address"
        }
      ],
      "name": "isApprovedForAll",
      "outputs": [
        {
          "internalType": "bool",
          "name": "",
          "type": "bool"
        }
      ],
      "stateMutability": "view",
      "type": "function"
    },
    {
      "inputs": [
        {
          "internalType": "uint256[]",
          "name": "tokenIds",
          "type": "uint256[]"
        }
      ],
      "name": "merge",
      "outputs": [],
      "stateMutability": "nonpayable",
      "type": "function"
    },
    {
      "inputs": [
        {
          "internalType": "address",
          "name": "account",
          "type": "address"
        },
        {
          "internalType": "bytes",
          "name": "data",
          "type": "bytes"
        }
      ],
      "name": "mint",
      "outputs": [],
      "stateMutability": "nonpayable",
      "type": "function"
    },
    {
      "inputs": [],
      "name": "name",
      "outputs": [
        {
          "internalType": "string",
          "name": "",
          "type": "string"
        }
      ],
      "stateMutability": "pure",
      "type": "function"
    },
    {
      "inputs": [
        {
          "internalType": "uint256",
          "name": "tokenId_",
          "type": "uint256"
        }
      ],
      "name": "ownerOf",
      "outputs": [
        {
          "internalType": "address",
          "name": "owner_",
          "type": "address"
        }
      ],
      "stateMutability": "view",
      "type": "function"
    },
    {
      "inputs": [],
      "name": "proxiableUUID",
      "outputs": [
        {
          "internalType": "bytes32",
          "name": "",
          "type": "bytes32"
        }
      ],
      "stateMutability": "view",
      "type": "function"
    },
    {
      "inputs": [
        {
          "internalType": "bytes32",
          "name": "role",
          "type": "bytes32"
        },
        {
          "internalType": "address",
          "name": "account",
          "type": "address"
        }
      ],
      "name": "renounceRole",
      "outputs": [],
      "stateMutability": "nonpayable",
      "type": "function"
    },
    {
      "inputs": [
        {
          "internalType": "bytes32",
          "name": "role",
          "type": "bytes32"
        },
        {
          "internalType": "address",
          "name": "account",
          "type": "address"
        }
      ],
      "name": "revokeRole",
      "outputs": [],
      "stateMutability": "nonpayable",
      "type": "function"
    },
    {
      "inputs": [
        {
          "internalType": "bytes32",
          "name": "",
          "type": "bytes32"
        }
      ],
      "name": "rights",
      "outputs": [
        {
          "internalType": "string",
          "name": "",
          "type": "string"
        }
      ],
      "stateMutability": "view",
      "type": "function"
    },
    {
      "inputs": [
        {
          "internalType": "address",
          "name": "from_",
          "type": "address"
        },
        {
          "internalType": "address",
          "name": "to_",
          "type": "address"
        },
        {
          "internalType": "uint256",
          "name": "tokenId_",
          "type": "uint256"
        }
      ],
      "name": "safeTransferFrom",
      "outputs": [],
      "stateMutability": "nonpayable",
      "type": "function"
    },
    {
      "inputs": [
        {
          "internalType": "address",
          "name": "from_",
          "type": "address"
        },
        {
          "internalType": "address",
          "name": "to_",
          "type": "address"
        },
        {
          "internalType": "uint256",
          "name": "tokenId_",
          "type": "uint256"
        },
        {
          "internalType": "bytes",
          "name": "data_",
          "type": "bytes"
        }
      ],
      "name": "safeTransferFrom",
      "outputs": [],
      "stateMutability": "nonpayable",
      "type": "function"
    },
    {
      "inputs": [
        {
          "internalType": "address",
          "name": "operator_",
          "type": "address"
        },
        {
          "internalType": "bool",
          "name": "approved_",
          "type": "bool"
        }
      ],
      "name": "setApprovalForAll",
      "outputs": [],
      "stateMutability": "nonpayable",
      "type": "function"
    },
    {
      "inputs": [
        {
          "internalType": "address",
          "name": "metadataGenerator",
          "type": "address"
        }
      ],
      "name": "setMetadataGenerator",
      "outputs": [],
      "stateMutability": "nonpayable",
      "type": "function"
    },
    {
      "inputs": [
        {
          "internalType": "uint256",
          "name": "index_",
          "type": "uint256"
        }
      ],
      "name": "slotByIndex",
      "outputs": [
        {
          "internalType": "uint256",
          "name": "",
          "type": "uint256"
        }
      ],
      "stateMutability": "view",
      "type": "function"
    },
    {
      "inputs": [],
      "name": "slotCount",
      "outputs": [
        {
          "internalType": "uint256",
          "name": "",
          "type": "uint256"
        }
      ],
      "stateMutability": "view",
      "type": "function"
    },
    {
      "inputs": [
        {
          "internalType": "uint256",
          "name": "tokenId_",
          "type": "uint256"
        }
      ],
      "name": "slotOf",
      "outputs": [
        {
          "internalType": "uint256",
          "name": "",
          "type": "uint256"
        }
      ],
      "stateMutability": "view",
      "type": "function"
    },
    {
      "inputs": [
        {
          "internalType": "uint256",
          "name": "slotId_",
          "type": "uint256"
        }
      ],
      "name": "slotURI",
      "outputs": [
        {
          "internalType": "string",
          "name": "",
          "type": "string"
        }
      ],
      "stateMutability": "view",
      "type": "function"
    },
    {
      "inputs": [
        {
          "internalType": "uint256",
          "name": "tokenId",
          "type": "uint256"
        },
        {
          "internalType": "uint256[]",
          "name": "amounts",
          "type": "uint256[]"
        }
      ],
      "name": "split",
      "outputs": [],
      "stateMutability": "nonpayable",
      "type": "function"
    },
    {
      "inputs": [
        {
          "internalType": "bytes4",
          "name": "interfaceId",
          "type": "bytes4"
        }
      ],
      "name": "supportsInterface",
      "outputs": [
        {
          "internalType": "bool",
          "name": "",
          "type": "bool"
        }
      ],
      "stateMutability": "view",
      "type": "function"
    },
    {
      "inputs": [],
      "name": "symbol",
      "outputs": [
        {
          "internalType": "string",
          "name": "",
          "type": "string"
        }
      ],
      "stateMutability": "pure",
      "type": "function"
    },
    {
      "inputs": [
        {
          "internalType": "uint256",
          "name": "index_",
          "type": "uint256"
        }
      ],
      "name": "tokenByIndex",
      "outputs": [
        {
          "internalType": "uint256",
          "name": "",
          "type": "uint256"
        }
      ],
      "stateMutability": "view",
      "type": "function"
    },
    {
      "inputs": [
        {
          "internalType": "uint256",
          "name": "slot_",
          "type": "uint256"
        },
        {
          "internalType": "uint256",
          "name": "index_",
          "type": "uint256"
        }
      ],
      "name": "tokenInSlotByIndex",
      "outputs": [
        {
          "internalType": "uint256",
          "name": "",
          "type": "uint256"
        }
      ],
      "stateMutability": "view",
      "type": "function"
    },
    {
      "inputs": [
        {
          "internalType": "address",
          "name": "owner_",
          "type": "address"
        },
        {
          "internalType": "uint256",
          "name": "index_",
          "type": "uint256"
        }
      ],
      "name": "tokenOfOwnerByIndex",
      "outputs": [
        {
          "internalType": "uint256",
          "name": "",
          "type": "uint256"
        }
      ],
      "stateMutability": "view",
      "type": "function"
    },
    {
      "inputs": [
        {
          "internalType": "uint256",
          "name": "slot_",
          "type": "uint256"
        }
      ],
      "name": "tokenSupplyInSlot",
      "outputs": [
        {
          "internalType": "uint256",
          "name": "",
          "type": "uint256"
        }
      ],
      "stateMutability": "view",
      "type": "function"
    },
    {
      "inputs": [
        {
          "internalType": "uint256",
          "name": "tokenId_",
          "type": "uint256"
        }
      ],
      "name": "tokenURI",
      "outputs": [
        {
          "internalType": "string",
          "name": "",
          "type": "string"
        }
      ],
      "stateMutability": "view",
      "type": "function"
    },
    {
      "inputs": [],
      "name": "totalSupply",
      "outputs": [
        {
          "internalType": "uint256",
          "name": "",
          "type": "uint256"
        }
      ],
      "stateMutability": "view",
      "type": "function"
    },
    {
      "inputs": [
        {
          "internalType": "uint256",
          "name": "fromTokenId_",
          "type": "uint256"
        },
        {
          "internalType": "address",
          "name": "to_",
          "type": "address"
        },
        {
          "internalType": "uint256",
          "name": "value_",
          "type": "uint256"
        }
      ],
      "name": "transferFrom",
      "outputs": [
        {
          "internalType": "uint256",
          "name": "",
          "type": "uint256"
        }
      ],
      "stateMutability": "payable",
      "type": "function"
    },
    {
      "inputs": [
        {
          "internalType": "address",
          "name": "from_",
          "type": "address"
        },
        {
          "internalType": "address",
          "name": "to_",
          "type": "address"
        },
        {
          "internalType": "uint256",
          "name": "tokenId_",
          "type": "uint256"
        }
      ],
      "name": "transferFrom",
      "outputs": [],
      "stateMutability": "nonpayable",
      "type": "function"
    },
    {
      "inputs": [
        {
          "internalType": "uint256",
          "name": "fromTokenId_",
          "type": "uint256"
        },
        {
          "internalType": "uint256",
          "name": "toTokenId_",
          "type": "uint256"
        },
        {
          "internalType": "uint256",
          "name": "value_",
          "type": "uint256"
        }
      ],
      "name": "transferFrom",
      "outputs": [],
      "stateMutability": "payable",
      "type": "function"
    },
    {
      "inputs": [],
      "name": "updateVersion",
      "outputs": [],
      "stateMutability": "nonpayable",
      "type": "function"
    },
    {
      "inputs": [
        {
          "internalType": "address",
          "name": "newImplementation",
          "type": "address"
        }
      ],
      "name": "upgradeTo",
      "outputs": [],
      "stateMutability": "nonpayable",
      "type": "function"
    },
    {
      "inputs": [
        {
          "internalType": "address",
          "name": "newImplementation",
          "type": "address"
        },
        {
          "internalType": "bytes",
          "name": "data",
          "type": "bytes"
        }
      ],
      "name": "upgradeToAndCall",
      "outputs": [],
      "stateMutability": "payable",
      "type": "function"
    },
    {
      "inputs": [],
      "name": "valueDecimals",
      "outputs": [
        {
          "internalType": "uint8",
          "name": "",
          "type": "uint8"
        }
      ],
      "stateMutability": "view",
      "type": "function"
    },
    {
      "inputs": [],
      "name": "version",
      "outputs": [
        {
          "internalType": "uint256",
          "name": "",
          "type": "uint256"
        }
      ],
      "stateMutability": "view",
      "type": "function"
    },
    {
      "inputs": [
        {
          "internalType": "bytes32",
          "name": "",
          "type": "bytes32"
        }
      ],
      "name": "workScopes",
      "outputs": [
        {
          "internalType": "string",
          "name": "",
          "type": "string"
        }
      ],
      "stateMutability": "view",
      "type": "function"
    }
  ],
  "bytecode": "0x60a0604052306080523480156200001557600080fd5b506200002062000030565b6200002a62000030565b620000f2565b600054610100900460ff16156200009d5760405162461bcd60e51b815260206004820152602760248201527f496e697469616c697a61626c653a20636f6e747261637420697320696e697469604482015266616c697a696e6760c81b606482015260840160405180910390fd5b60005460ff9081161015620000f0576000805460ff191660ff9081179091556040519081527f7f26b83ff96e1f2b6a682f133852f6798a09c465da95921460cefb38474024989060200160405180910390a15b565b608051615f5e6200012a6000396000818161113d0152818161117d015281816113300152818161137001526114ad0152615f5e6000f3fe6080604052600436106103965760003560e01c806369c67247116101dc578063b88d4fde11610102578063e8a3d485116100a0578063f0f11e051161006f578063f0f11e0514610af8578063f14faf6f14610b18578063f72c0d8b14610b38578063f76f8d7814610b5a57600080fd5b8063e8a3d48514610a61578063e985e9c514610a76578063ed08fa8014610ac3578063ef6f66d714610ad857600080fd5b8063d52fd095116100dc578063d52fd095146109be578063d547741f146109de578063de62d842146109fe578063e345e0bc14610a1e57600080fd5b8063b88d4fde1461095e578063c4d66de81461097e578063c87b56dd1461099e57600080fd5b806395d89b411161017a578063a217fddf11610149578063a217fddf146108d3578063a22cb465146108e8578063a3f4df7e14610908578063b510391f1461093e57600080fd5b806395d89b4114610846578063993bef8d14610873578063997edc61146108935780639cc7f708146108b357600080fd5b80638cb0a511116101b65780638cb0a511146107d35780638f88b767146107e657806391d1485414610806578063937773691461082657600080fd5b806369c672471461076657806370a082311461078657806372927aa3146107a657600080fd5b80632f2ff15d116102c157806342966c681161025f5780634f8a0f831161022e5780634f8a0f83146106f757806352d1902d1461071757806354fd4d501461072c5780636352211e1461074657600080fd5b806342966c681461068f57806348c02dc1146106af5780634f1ef286146106c45780634f6ccce7146106d757600080fd5b806336568abe1161029b57806336568abe1461061b5780633659cfe61461063b5780633e7e86691461065b57806342842e0e1461066f57600080fd5b80632f2ff15d146105c85780632f745c59146105e8578063310ed7f01461060857600080fd5b806311e3220811610339578063248a9ca311610308578063248a9ca31461053c5780632599c34c1461056c578063263f3e7e146105815780632e0f2625146105a157600080fd5b806311e32208146104c757806318160ddd146104e75780631e6ad4b8146104fc57806323b872dd1461051c57600080fd5b8063081812fc11610375578063081812fc1461043a578063095ea7b31461047257806309c3dd87146104945780630f485c02146104b457600080fd5b8062cd01101461039b57806301ffc9a7146103ce57806306fdde03146103fe575b600080fd5b3480156103a757600080fd5b506103bb6103b6366004614df5565b610b8a565b6040519081526020015b60405180910390f35b3480156103da57600080fd5b506103ee6103e9366004614e2d565b610c1d565b60405190151581526020016103c5565b34801561040a57600080fd5b5060408051808201909152600a8152694879706572436572747360b01b60208201525b6040516103c59190614e9a565b34801561044657600080fd5b5061045a610455366004614ead565b610c28565b6040516001600160a01b0390911681526020016103c5565b34801561047e57600080fd5b5061049261048d366004614edd565b610c9a565b005b3480156104a057600080fd5b5061042d6104af366004614ead565b610d27565b6103bb6104c2366004614f07565b610dde565b3480156104d357600080fd5b506103bb6104e236600461509d565b610e1f565b3480156104f357600080fd5b50606b546103bb565b34801561050857600080fd5b506103bb61051736600461519b565b610e59565b34801561052857600080fd5b506104926105373660046151cf565b610ec2565b34801561054857600080fd5b506103bb610557366004614ead565b6000908152609e602052604090206001015490565b34801561057857600080fd5b50610492610ef4565b34801561058d57600080fd5b506103bb61059c366004614ead565b610fbb565b3480156105ad57600080fd5b506105b6600081565b60405160ff90911681526020016103c5565b3480156105d457600080fd5b506104926105e33660046151fb565b611023565b3480156105f457600080fd5b506103bb610603366004614edd565b611048565b610492610616366004615227565b61109f565b34801561062757600080fd5b506104926106363660046151fb565b6110b5565b34801561064757600080fd5b50610492610656366004615253565b611133565b34801561066757600080fd5b5060006105b6565b34801561067b57600080fd5b5061049261068a3660046151cf565b61120f565b34801561069b57600080fd5b506104926106aa366004614ead565b61122a565b3480156106bb57600080fd5b506104926112d6565b6104926106d236600461526e565b611326565b3480156106e357600080fd5b506103bb6106f2366004614ead565b6113f2565b34801561070357600080fd5b506103bb610712366004614ead565b61144b565b34801561072357600080fd5b506103bb6114a0565b34801561073857600080fd5b506101345461ffff166103bb565b34801561075257600080fd5b5061045a610761366004614ead565b611553565b34801561077257600080fd5b506104926107813660046152bb565b6115e7565b34801561079257600080fd5b506103bb6107a1366004615253565b6116ff565b3480156107b257600080fd5b506107c66107c1366004614ead565b611744565b6040516103c591906153d9565b6104926107e1366004614f07565b611ba2565b3480156107f257600080fd5b5061042d610801366004614ead565b611c32565b34801561081257600080fd5b506103ee6108213660046151fb565b611ccd565b34801561083257600080fd5b50610492610841366004615253565b611cf8565b34801561085257600080fd5b506040805180820190915260048152631210d49560e21b602082015261042d565b34801561087f57600080fd5b506103bb61088e366004614ead565b611d63565b34801561089f57600080fd5b506103bb6108ae36600461519b565b611dbc565b3480156108bf57600080fd5b506103bb6108ce366004614ead565b611e18565b3480156108df57600080fd5b506103bb600081565b3480156108f457600080fd5b50610492610903366004615555565b611e80565b34801561091457600080fd5b5061042d6040518060400160405280600a8152602001694879706572436572747360b01b81525081565b34801561094a57600080fd5b5061049261095936600461558c565b611e8b565b34801561096a57600080fd5b506104926109793660046155fb565b6120c5565b34801561098a57600080fd5b50610492610999366004615253565b6120f7565b3480156109aa57600080fd5b5061042d6109b9366004614ead565b612217565b3480156109ca57600080fd5b5061042d6109d9366004614ead565b612262565b3480156109ea57600080fd5b506104926109f93660046151fb565b61227c565b348015610a0a57600080fd5b50610492610a19366004615656565b6122a1565b348015610a2a57600080fd5b506103bb610a393660046151fb565b60009182526067602090815260408084206001600160a01b0393909316845291905290205490565b348015610a6d57600080fd5b5061042d612322565b348015610a8257600080fd5b506103ee610a913660046156e6565b6001600160a01b039182166000908152606a602090815260408083209390941682526002909201909152205460ff1690565b348015610acf57600080fd5b50606d546103bb565b348015610ae457600080fd5b5061042d610af3366004614ead565b6123a5565b348015610b0457600080fd5b506103bb610b1336600461519b565b6123bf565b348015610b2457600080fd5b50610492610b33366004614ead565b61241b565b348015610b4457600080fd5b506103bb600080516020615ecb83398151915281565b348015610b6657600080fd5b5061042d604051806040016040528060048152602001631210d49560e21b81525081565b6000610b958361144b565b8210610bc3576040516305ad208d60e11b815260048101849052602481018390526044015b60405180910390fd5b6000838152606e6020526040902054606d80549091908110610be757610be7615710565b90600052602060002090600202016001018281548110610c0957610c09615710565b906000526020600020015490505b92915050565b6000610c1782612455565b6000610c338261247a565b610c53576040516338077a2b60e01b815260048101839052602401610bba565b600082815260696020526040902054606880549091908110610c7757610c77615710565b60009182526020909120600460069092020101546001600160a01b031692915050565b6000610ca582611553565b9050806001600160a01b0316836001600160a01b031603610cf05760405162ea9f2160e81b8152600481018390523360248201526001600160a01b0384166044820152606401610bba565b610cfb335b836124c6565b610d185760405163390cdd9b60e21b815260040160405180910390fd5b610d228383612572565b505050565b6000818152610139602052604090206008015460609062010000900460ff16610d665760405163ae1b0df160e01b815260048101839052602401610bba565b610134546040516391383c8960e01b815260048101849052620100009091046001600160a01b0316906391383c89906024015b600060405180830381865afa158015610db6573d6000803e3d6000fd5b505050506040513d6000823e601f3d908101601f19168201604052610c179190810190615726565b6000610deb338584612609565b6000610df5612689565b9050610e0a8482610e0588610fbb565b6126b9565b610e1585828561277f565b90505b9392505050565b600084848484604051602001610e389493929190615793565b6040516020818303038152906040528051906020012090505b949350505050565b6000610e67826101366129b0565b600081815261013660205260409020909150610e838382615852565b507f2efcce702e3d0b95b3deb632da6d41c3d169e0c3effb9066d949f14d6f13224f8183604051610eb5929190615911565b60405180910390a1919050565b610ecc33826124c6565b610ee95760405163390cdd9b60e21b815260040160405180910390fd5b610d22838383612a25565b600054610100900460ff1615808015610f145750600054600160ff909116105b80610f2e5750303b158015610f2e575060005460ff166001145b610f4a5760405162461bcd60e51b8152600401610bba9061592a565b6000805460ff191660011790558015610f6d576000805461ff0019166101001790555b6000606b558015610fb8576000805461ff0019169055604051600181527f7f26b83ff96e1f2b6a682f133852f6798a09c465da95921460cefb38474024989060200160405180910390a15b50565b6000610fc68261247a565b610fe6576040516338077a2b60e01b815260048101839052602401610bba565b60008281526069602052604090205460688054909190811061100a5761100a615710565b9060005260206000209060060201600101549050919050565b6000828152609e602052604090206001015461103e81612b2b565b610d228383612b35565b6000611053836116ff565b82106110755760405163d338ed0760e01b815260048101839052602401610bba565b6001600160a01b0383166000908152606a60205260409020805483908110610c0957610c09615710565b6110aa338483612609565b610d2283838361277f565b6001600160a01b03811633146111255760405162461bcd60e51b815260206004820152602f60248201527f416363657373436f6e74726f6c3a2063616e206f6e6c792072656e6f756e636560448201526e103937b632b9903337b91039b2b63360891b6064820152608401610bba565b61112f8282612bbb565b5050565b6001600160a01b037f000000000000000000000000000000000000000000000000000000000000000016300361117b5760405162461bcd60e51b8152600401610bba90615978565b7f00000000000000000000000000000000000000000000000000000000000000006001600160a01b03166111c4600080516020615f0b833981519152546001600160a01b031690565b6001600160a01b0316146111ea5760405162461bcd60e51b8152600401610bba906159c4565b6111f381612c22565b60408051600080825260208201909252610fb891839190612c3a565b610d22838383604051806020016040528060008152506120c5565b6000610139600061123a84610fbb565b81526020810191909152604001600020600c8101549091506001600160a01b0316331461127a5760405163390cdd9b60e21b815260040160405180910390fd5b806007015461128883611e18565b146112bd57806007015461129b83611e18565b60405163cf47918160e01b815260048101929092526024820152604401610bba565b6112c682612da5565b600801805462ff00001916905550565b600080516020615ecb8339815191526112ee81612b2b565b61013480546001919060009061130990849061ffff16615a26565b92506101000a81548161ffff021916908361ffff16021790555050565b6001600160a01b037f000000000000000000000000000000000000000000000000000000000000000016300361136e5760405162461bcd60e51b8152600401610bba90615978565b7f00000000000000000000000000000000000000000000000000000000000000006001600160a01b03166113b7600080516020615f0b833981519152546001600160a01b031690565b6001600160a01b0316146113dd5760405162461bcd60e51b8152600401610bba906159c4565b6113e682612c22565b61112f82826001612c3a565b60006113fd606b5490565b821061141f5760405163d338ed0760e01b815260048101839052602401610bba565b6068828154811061143257611432615710565b9060005260206000209060060201600001549050919050565b600061145682612f11565b61146257506000919050565b6000828152606e6020526040902054606d8054909190811061148657611486615710565b600091825260209091206001600290920201015492915050565b6000306001600160a01b037f000000000000000000000000000000000000000000000000000000000000000016146115405760405162461bcd60e51b815260206004820152603860248201527f555550535570677261646561626c653a206d757374206e6f742062652063616c60448201527f6c6564207468726f7567682064656c656761746563616c6c00000000000000006064820152608401610bba565b50600080516020615f0b83398151915290565b600061155e8261247a565b61157e576040516338077a2b60e01b815260048101839052602401610bba565b6000828152606960205260409020546068805490919081106115a2576115a2615710565b60009182526020909120600360069092020101546001600160a01b03169050806115e2576040516338077a2b60e01b815260048101839052602401610bba565b919050565b6115f08361247a565b611610576040516338077a2b60e01b815260048101849052602401610bba565b6000816001819003611638576040516314b27b7f60e31b815260048101869052602401610bba565b60005b8181101561167b5784848281811061165557611655615710565b90506020020135836116679190615a41565b92508061167381615a54565b91505061163b565b5061168585611e18565b821180611699575061169685611e18565b82105b156116b75760405163b4fa3fb360e01b815260040160405180910390fd5b60015b818110156116f7576116e4868686848181106116d8576116d8615710565b90506020020135612f5d565b50806116ef81615a54565b9150506116ba565b505050505050565b60006001600160a01b03821661172857604051630c63e1ed60e11b815260040160405180910390fd5b506001600160a01b03166000908152606a602052604090205490565b61174c614be4565b60008281526101396020908152604080832081516101c0810183528154815282518084019384905290949193850192909160018501916002918390855b82829054906101000a90046001600160401b03166001600160401b03168152602001906008019060208260070104928301926001038202915080841161178957505050928452505060408051808201918290526020909301929150600284810191826000855b82829054906101000a90046001600160401b03166001600160401b0316815260200190600801906020826007010492830192600103820291508084116117ef579050505050505081526020016003820180548060200260200160405190810160405280929190818152602001828054801561188957602002820191906000526020600020905b815481526020019060010190808311611875575b50505050508152602001600482018054806020026020016040519081016040528092919081815260200182805480156118e157602002820191906000526020600020905b8154815260200190600101908083116118cd575b505050505081526020016005820180548060200260200160405190810160405280929190818152602001828054801561193957602002820191906000526020600020905b815481526020019060010190808311611925575b505050505081526020016006820180548060200260200160405190810160405280929190818152602001828054801561199b57602002820191906000526020600020905b81546001600160a01b0316815260019091019060200180831161197d575b505050918352505060078201546020820152600882015461ffff8116604083015262010000900460ff16151560608201526009820180546080909201916119e1906157d2565b80601f0160208091040260200160405190810160405280929190818152602001828054611a0d906157d2565b8015611a5a5780601f10611a2f57610100808354040283529160200191611a5a565b820191906000526020600020905b815481529060010190602001808311611a3d57829003601f168201915b50505050508152602001600a82018054611a73906157d2565b80601f0160208091040260200160405190810160405280929190818152602001828054611a9f906157d2565b8015611aec5780601f10611ac157610100808354040283529160200191611aec565b820191906000526020600020905b815481529060010190602001808311611acf57829003601f168201915b50505050508152602001600b82018054611b05906157d2565b80601f0160208091040260200160405190810160405280929190818152602001828054611b31906157d2565b8015611b7e5780601f10611b5357610100808354040283529160200191611b7e565b820191906000526020600020905b815481529060010190602001808311611b6157829003601f168201915b5050509183525050600c91909101546001600160a01b031660209091015292915050565b6000611bad84611553565b9050806001600160a01b0316836001600160a01b031603611bfa5760405162ea9f2160e81b8152600481018590526001600160a01b03808516602483015282166044820152606401610bba565b611c0433856124c6565b611c215760405163390cdd9b60e21b815260040160405180910390fd5b611c2c8484846130c9565b50505050565b6101356020526000908152604090208054611c4c906157d2565b80601f0160208091040260200160405190810160405280929190818152602001828054611c78906157d2565b8015611cc55780601f10611c9a57610100808354040283529160200191611cc5565b820191906000526020600020905b815481529060010190602001808311611ca857829003601f168201915b505050505081565b6000918252609e602090815260408084206001600160a01b0393909316845291905290205460ff1690565b600080516020615ecb833981519152611d1081612b2b565b6001600160a01b038216611d3757604051630c63e1ed60e11b815260040160405180910390fd5b5061013480546001600160a01b03909216620100000262010000600160b01b0319909216919091179055565b6000611d6e606d5490565b8210611d9057604051637ed0f68f60e01b815260048101839052602401610bba565b606d8281548110611da357611da3615710565b9060005260206000209060020201600001549050919050565b6000611dca826101356129b0565b600081815261013560205260409020909150611de68382615852565b507f8b841033bc947e807d9766c542105a3dbb0bae62591be7b5c8cd4f37f698bf738183604051610eb5929190615911565b6000611e238261247a565b611e43576040516338077a2b60e01b815260048101839052602401610bba565b600082815260696020526040902054606880549091908110611e6757611e67615710565b9060005260206000209060060201600201549050919050565b61112f338383613198565b600080611e98848461324c565b336101a08301529092509050611eae8583613329565b611ec082600001518360c0015161350e565b6000611ecb606d5490565b611ed6906001615a41565b60008181526101396020908152604090912085518155908501519192508491611f059060018301906002614c6f565b506040820151611f1b9060028084019190614c6f565b5060608201518051611f37916003840191602090910190614d14565b5060808201518051611f53916004840191602090910190614d14565b5060a08201518051611f6f916005840191602090910190614d14565b5060c08201518051611f8b916006840191602090910190614d4f565b5060e082015160078201556101008201516008820180546101208501511515620100000262ffffff1990911661ffff909316929092179190911790556101408201516009820190611fdc9082615852565b50610160820151600a820190611ff29082615852565b50610180820151600b8201906120089082615852565b506101a09190910151600c90910180546001600160a01b0319166001600160a01b03909216919091179055815160005b818110156120805761206d888486848151811061205757612057615710565b60200260200101516001600160401b03166135ed565b508061207881615a54565b915050612038565b507f99ba308ef0906cce9332a23fc9ff0c458c3eb58aa3f023baa558fe9539d520f68288856040516120b493929190615a6d565b60405180910390a150505050505050565b6120ce33610cf5565b6120eb5760405163390cdd9b60e21b815260040160405180910390fd5b611c2c848484846136fc565b600054610100900460ff16158080156121175750600054600160ff909116105b806121315750303b158015612131575060005460ff166001145b61214d5760405162461bcd60e51b8152600401610bba9061592a565b6000805460ff191660011790558015612170576000805461ff0019166101001790555b610134805462010000600160b01b031916620100006001600160a01b0385160217905561219b61376f565b6121a361376f565b6121ab610ef4565b6121b6600033612b35565b6121ce600080516020615ecb83398151915233612b35565b801561112f576000805461ff0019169055604051600181527f7f26b83ff96e1f2b6a682f133852f6798a09c465da95921460cefb38474024989060200160405180910390a15050565b610134546060906201000090046001600160a01b031663ed03f41a61223b84610fbb565b846040518363ffffffff1660e01b8152600401610d99929190918252602082015260400190565b6101376020526000908152604090208054611c4c906157d2565b6000828152609e602052604090206001015461229781612b2b565b610d228383612bbb565b80516000826122b1600184615ad5565b815181106122c1576122c1615710565b6020026020010151905060005b82811015611c2c5760008482815181106122ea576122ea615710565b6020026020010151905082811461230f5761230581846137dc565b5061230f81612da5565b508061231a81615a54565b9150506122ce565b606061013460029054906101000a90046001600160a01b03166001600160a01b0316639f4475da6040518163ffffffff1660e01b8152600401600060405180830381865afa158015612378573d6000803e3d6000fd5b505050506040513d6000823e601f3d908101601f191682016040526123a09190810190615726565b905090565b6101366020526000908152604090208054611c4c906157d2565b60006123cd826101376129b0565b6000818152610137602052604090209091506123e98382615852565b507f4527d373276b1ece0c8dd18e140572f93feffd35a0993d9e4de70623b1ac93ce8183604051610eb5929190615911565b61242481611553565b6001600160a01b0316330361244c5760405163390cdd9b60e21b815260040160405180910390fd5b610fb881612da5565b60006001600160e01b03198216637965db0b60e01b1480610c175750610c17826139b5565b60685460009015801590610c1757506000828152606960205260409020546068805484929081106124ad576124ad615710565b9060005260206000209060060201600001541492915050565b60006124d18261247a565b6124f1576040516338077a2b60e01b815260048101839052602401610bba565b60006124fc83611553565b9050806001600160a01b0316846001600160a01b0316148061254757506001600160a01b038082166000908152606a60209081526040808320938816835260029093019052205460ff165b80610e515750836001600160a01b031661256084610c28565b6001600160a01b031614949350505050565b60008181526069602052604090205460688054849290811061259657612596615710565b6000918252602090912060069091020160040180546001600160a01b0319166001600160a01b03928316179055819083166125d082611553565b6001600160a01b03167f8c5be1e5ebec7d5bd14f71427d1e84f3dd0314c0f7b2291e5b200ac8c7c3b92560405160405180910390a45050565b60008281526067602090815260408083206001600160a01b038716845290915290205461263684846124c6565b15801561264557506000198114155b15611c2c57818110156126755760405163054365bb60e31b81526004810183905260248101829052604401610bba565b611c2c83856126848585615ad5565b6130c9565b6000606b54600161269a9190615a41565b90506001606b60008282546126af9190615a41565b9250508190555090565b6040805160c081018252838152602080820184905260008284018190526001600160a01b038716606084015260808301819052835181815291820190935260a08201529050612707816139da565b6127118484613b2c565b60405183906001600160a01b038616906000907fddf252ad1be2c89b69c2b068fc378daa952ba7f163c4a11628f55a4df523b3ef908290a4816000847fe4f48c240d3b994948aa54f3e2f5fca59263dfe1d52b6e4cf39a5d249b5ccb6560405160405180910390a450505050565b6127888361247a565b6127a8576040516338077a2b60e01b815260048101849052602401610bba565b6127b18261247a565b6127d1576040516338077a2b60e01b815260048101839052602401610bba565b6000838152606960205260408120546068805490919081106127f5576127f5615710565b906000526020600020906006020190506000606860696000868152602001908152602001600020548154811061282d5761282d615710565b90600052602060002090600602019050828260020154101561287257600282015460405163cf47918160e01b8152610bba918591600401918252602082015260400190565b80600101548260010154146128ad5760018083015490820154604051630240901360e61b815260048101929092526024820152604401610bba565b6003808301549082015460018401546128d8926001600160a01b039081169216908890889088613bb5565b828260020160008282546128ec9190615ad5565b92505081905550828160020160008282546129079190615a41565b909155505060405183815284908690600080516020615eeb8339815191529060200160405180910390a360038083015490820154600184015461295c926001600160a01b039081169216908890889088613bea565b61297785858560405180602001604052806000815250613c5b565b6129a95761298484611553565b604051639c645a0b60e01b81526001600160a01b039091166004820152602401610bba565b5050505050565b600082516000036129d45760405163a447fc5360e01b815260040160405180910390fd5b826040516020016129e59190614e9a565b604051602081830303815290604052805190602001209050612a078282613deb565b15610c175760405163331d850160e01b815260040160405180910390fd5b826001600160a01b0316612a3882611553565b6001600160a01b031614612a5f5760405163390cdd9b60e21b815260040160405180910390fd5b6001600160a01b038216612a8657604051630c63e1ed60e11b815260040160405180910390fd5b612aa483838384612a9686610fbb565b612a9f87611e18565b613bb5565b612aaf600082612572565b612ab881613e12565b612ac28382613eae565b612acc8282613b2c565b80826001600160a01b0316846001600160a01b03167fddf252ad1be2c89b69c2b068fc378daa952ba7f163c4a11628f55a4df523b3ef60405160405180910390a4610d2283838384612b1d86610fbb565b612b2687611e18565b613bea565b610fb88133613fcf565b612b3f8282611ccd565b61112f576000828152609e602090815260408083206001600160a01b03851684529091529020805460ff19166001179055612b773390565b6001600160a01b0316816001600160a01b0316837f2f8788117e7eff1d82e926ec794901d17c78024a50270940304540a733656f0d60405160405180910390a45050565b612bc58282611ccd565b1561112f576000828152609e602090815260408083206001600160a01b0385168085529252808320805460ff1916905551339285917ff6391f5c32d9c69d2a47ea670b442974b53935d1edc7fd64eb21e047a839171b9190a45050565b600080516020615ecb83398151915261112f81612b2b565b7f4910fdfa16fed3260ed0e7147f7cc6da11a60208b5b9406d12a635614ffd91435460ff1615612c6d57610d2283614033565b826001600160a01b03166352d1902d6040518163ffffffff1660e01b8152600401602060405180830381865afa925050508015612cc7575060408051601f3d908101601f19168201909252612cc491810190615ae8565b60015b612d2a5760405162461bcd60e51b815260206004820152602e60248201527f45524331393637557067726164653a206e657720696d706c656d656e7461746960448201526d6f6e206973206e6f74205555505360901b6064820152608401610bba565b600080516020615f0b8339815191528114612d995760405162461bcd60e51b815260206004820152602960248201527f45524331393637557067726164653a20756e737570706f727465642070726f786044820152681a58589b195555525160ba1b6064820152608401610bba565b50610d228383836140cf565b612dae8161247a565b612dce576040516338077a2b60e01b815260048101829052602401610bba565b600081815260696020526040812054606880549091908110612df257612df2615710565b6000918252602090912060069091020160038101549091506001600160a01b0316612e1d33846124c6565b612e3a5760405163390cdd9b60e21b815260040160405180910390fd5b60018201546002830154612e5383600087818686613bb5565b612e5c85613e12565b612e668386613eae565b612e6f856140f4565b600085600080516020615eeb83398151915283604051612e9191815260200190565b60405180910390a360405185906000906001600160a01b038616907fddf252ad1be2c89b69c2b068fc378daa952ba7f163c4a11628f55a4df523b3ef908390a4600082867fe4f48c240d3b994948aa54f3e2f5fca59263dfe1d52b6e4cf39a5d249b5ccb6560405160405180910390a46129a98360008760008686613bea565b606d5460009015801590610c1757506000828152606e6020526040902054606d80548492908110612f4457612f44615710565b9060005260206000209060020201600001541492915050565b6000612f67612689565b9050336000612f7585610fbb565b90506001600160a01b038216612f9e57604051630c63e1ed60e11b815260040160405180910390fd5b82600003612fc25760405163d338ed0760e01b815260048101849052602401610bba565b612fcb8361247a565b15612fec576040516314b27b7f60e31b815260048101849052602401610bba565b612ffc6000836000868589613bb5565b6130078284836126b9565b60008381526069602052604090205460688054869290811061302b5761302b615710565b90600052602060002090600602016002018190555083606860696000888152602001908152602001600020548154811061306757613067615710565b906000526020600020906006020160020160008282546130879190615ad5565b909155505060405184815283908690600080516020615eeb8339815191529060200160405180910390a36130c16000836000868589613bea565b505092915050565b6130d38284614302565b613139576000838152606960205260409020546068805490919081106130fb576130fb615710565b60009182526020808320600692909202909101600501805460018101825590835291200180546001600160a01b0319166001600160a01b0384161790555b60008381526067602090815260408083206001600160a01b038616808552908352928190208490555183815285917f621b050de0ad08b51d19b48b3e6df75348c4de6bdd93e81b252ca62e28265b1b91015b60405180910390a3505050565b816001600160a01b0316836001600160a01b0316036131e35760405162ea9f2160e81b8152600060048201526001600160a01b03808516602483015283166044820152606401610bba565b6001600160a01b038381166000818152606a602090815260408083209487168084526002909501825291829020805460ff191686151590811790915591519182527f17307eab39ab6107e8899845ad3d59bd9653f200f220920489ca2b5937696c31910161318b565b613254614be4565b606060008390036132785760405163a447fc5360e01b815260040160405180910390fd5b600080808080808080808061328f8d8f018f615bc5565b99509950995099509950995099509950995099506132af878a888b610e1f565b8c5260c08c0185905260208c0187905260408c0186905260608c0189905260808c0188905260a08c018a90526132e4816143d5565b6001600160401b031660e08d015260006101008d015260016101208d01526101408c01939093526101608b01919091526101808a015296505050505050509250929050565b6001600160a01b03821661335057604051630c63e1ed60e11b815260040160405180910390fd5b6020818101519081015190516001600160401b03918216911611156133ab57602081015180519060015b6020020151604051630b58ad1560e21b81526001600160401b03928316600482015291166024820152604401610bba565b6040810151602081015190516001600160401b0391821691161180156133de57506040810151516001600160401b031615155b156133f2576040810151805190600161337a565b6040810151516020820151516001600160401b0391821691161115613423576020810151516040820151600061337a565b60808101515160005b818110156134a45761013660008460800151838151811061344f5761344f615710565b602002602001015181526020019081526020016000208054613470906157d2565b90506000036134925760405163725a844f60e01b815260040160405180910390fd5b8061349c81615a54565b91505061342c565b5060608201515160005b818110156129a9576134df610135856060015183815181106134d2576134d2615710565b6020026020010151613deb565b6134fc5760405163725a844f60e01b815260040160405180910390fd5b8061350681615a54565b9150506134ae565b60005b8151811015610d2257610138600083838151811061353157613531615710565b6020908102919091018101516001600160a01b03168252818101929092526040908101600090812086825290925290205460ff16156135835760405163755402db60e11b815260040160405180910390fd5b6001610138600084848151811061359c5761359c615710565b6020908102919091018101516001600160a01b0316825281810192909252604090810160009081208782529092529020805460ff1916911515919091179055806135e581615a54565b915050613511565b60006135f7612689565b90506001600160a01b03841661362057604051630c63e1ed60e11b815260040160405180910390fd5b806000036136445760405163d338ed0760e01b815260048101829052602401610bba565b61364d8161247a565b1561366e576040516314b27b7f60e31b815260048101829052602401610bba565b61367e6000856000848787613bb5565b6136898482856126b9565b6000818152606960205260409020546068805484929081106136ad576136ad615710565b906000526020600020906006020160020181905550806000600080516020615eeb833981519152846040516136e491815260200190565b60405180910390a3610e186000856000848787613bea565b613707848484612a25565b61371384848484614435565b611c2c5760405162461bcd60e51b815260206004820152602760248201527f455243333532353a207472616e7366657220746f206e6f6e204552433732315260448201526632b1b2b4bb32b960c91b6064820152608401610bba565b600054610100900460ff166137da5760405162461bcd60e51b815260206004820152602b60248201527f496e697469616c697a61626c653a20636f6e7472616374206973206e6f74206960448201526a6e697469616c697a696e6760a81b6064820152608401610bba565b565b6000806137e883611553565b90503360006137f686610fbb565b9050600061380386610fbb565b9050600061381088611e18565b90506001600160a01b03851661383957604051630c63e1ed60e11b815260040160405180910390fd5b871580613844575086155b1561387857600088156138575787613859565b885b90508060405163d338ed0760e01b8152600401610bba91815260200190565b6138818761247a565b158061389357506138918861247a565b155b156138ad5760006138a38861247a565b6138575787613859565b8183146138d757604051630240901360e61b81526004810184905260248101839052604401610bba565b6138e584868a8a8686613bb5565b60008781526069602052604090205460688054839290811061390957613909615710565b906000526020600020906006020160020160008282546139299190615a41565b909155505060008881526069602052604090205460688054839290811061395257613952615710565b906000526020600020906006020160020160008282546139729190615ad5565b909155505060405181815287908990600080516020615eeb8339815191529060200160405180910390a36139aa84868a8a8686613bea565b505050505092915050565b60006001600160e01b03198216631dba0dcf60e11b1480610c175750610c17826145af565b606880548251600090815260696020908152604080832084905560018401855593909152835160069092027fa2153420d844928b4421650203c77babc8b33d7f2e7b450e2966db0c220977538101928355818501517fa2153420d844928b4421650203c77babc8b33d7f2e7b450e2966db0c22097754820155928401517fa2153420d844928b4421650203c77babc8b33d7f2e7b450e2966db0c2209775584015560608401517fa2153420d844928b4421650203c77babc8b33d7f2e7b450e2966db0c22097756840180546001600160a01b039283166001600160a01b03199182161790915560808601517fa2153420d844928b4421650203c77babc8b33d7f2e7b450e2966db0c220977578601805491909316911617905560a084015180518594611c2c937fa2153420d844928b4421650203c77babc8b33d7f2e7b450e2966db0c22097758909101920190614d4f565b600081815260696020526040902054606880548492908110613b5057613b50615710565b6000918252602080832060069290920290910160030180546001600160a01b0319166001600160a01b03948516179055939091168152606a80845260408083208054858552600182810188529285208190559286529082018155825292902090910155565b6001600160a01b038616158015613bca575083155b8015613bdc5750613bda82612f11565b155b156116f7576116f782614635565b6001600160a01b038616158015613bff575083155b8015613c125750613c108284614686565b155b15613c2657613c218284614712565b6116f7565b6001600160a01b038516158015613c3b575082155b8015613c4c5750613c4c8285614686565b15613c2157613c218285614773565b600080613c6785611553565b90506001600160a01b0381163b15158015613ceb57506040516301ffc9a760e01b8152629ce20b60e01b60048201526001600160a01b038216906301ffc9a790602401602060405180830381865afa158015613cc7573d6000803e3d6000fd5b505050506040513d601f19601f82011682018060405250810190613ceb9190615d2b565b15613de157604051629ce20b60e01b81526001600160a01b03821690629ce20b90613d229033908a908a908a908a90600401615d48565b6020604051808303816000875af1925050508015613d5d575060408051601f3d908101601f19168201909252613d5a91810190615d7b565b60015b613dc6573d808015613d8b576040519150601f19603f3d011682016040523d82523d6000602084013e613d90565b606091505b508051600003613dbe57604051639c645a0b60e01b81526001600160a01b0383166004820152602401610bba565b805181602001fd5b6001600160e01b031916629ce20b60e01b149150610e519050565b6001915050610e51565b60008181526020839052604081208054829190613e07906157d2565b905011905092915050565b600081815260696020526040812054606880549091908110613e3657613e36615710565b600091825260208220600560069092020190810154909250905b81811015611c2c576000836005018281548110613e6f57613e6f615710565b60009182526020808320909101548783526067825260408084206001600160a01b03909216845291528120555080613ea681615a54565b915050613e50565b600081815260696020526040812054606880549091908110613ed257613ed2615710565b6000918252602080832060069290920290910160030180546001600160a01b0319166001600160a01b039485161790559184168152606a909152604081208054909190613f2190600190615ad5565b90506000826000018281548110613f3a57613f3a615710565b90600052602060002001549050600083600101600086815260200190815260200160002054905081846000018281548110613f7757613f77615710565b60009182526020808320909101929092558381526001860190915260408082208390558682528120558354849080613fb157613fb1615d98565b60019003818190600052602060002001600090559055505050505050565b613fd98282611ccd565b61112f57613ff1816001600160a01b03166014614857565b613ffc836020614857565b60405160200161400d929190615dae565b60408051601f198184030181529082905262461bcd60e51b8252610bba91600401614e9a565b6001600160a01b0381163b6140a05760405162461bcd60e51b815260206004820152602d60248201527f455243313936373a206e657720696d706c656d656e746174696f6e206973206e60448201526c1bdd08184818dbdb9d1c9858dd609a1b6064820152608401610bba565b600080516020615f0b83398151915280546001600160a01b0319166001600160a01b0392909216919091179055565b6140d8836149f2565b6000825111806140e55750805b15610d2257611c2c8383614a32565b60685460009061410690600190615ad5565b6000838152606960205260408120546068805493945090928490811061412e5761412e615710565b60009182526020918290206040805160c08101825260069093029091018054835260018101548385015260028101548383015260038101546001600160a01b03908116606085015260048201541660808401526005810180548351818702810187019094528084529394919360a0860193928301828280156141d957602002820191906000526020600020905b81546001600160a01b031681526001909101906020018083116141bb575b505050505081525050905080606883815481106141f8576141f8615710565b600091825260209182902083516006909202019081558282015160018201556040830151600282015560608301516003820180546001600160a01b039283166001600160a01b031991821617909155608085015160048401805491909316911617905560a08301518051919261427692600585019290910190614d4f565b505081516000908152606960205260408082208590558682528120555060688054806142a4576142a4615d98565b60008281526020812060066000199093019283020181815560018101829055600281018290556003810180546001600160a01b03199081169091556004820180549091169055906142f86005830182614da4565b5050905550505050565b60008181526069602052604081205460688054839290811061432657614326615710565b6000918252602082206005600690920201015491505b818110156143ca57600084815260696020526040902054606880546001600160a01b0388169290811061437157614371615710565b9060005260206000209060060201600501828154811061439357614393615710565b6000918252602090912001546001600160a01b0316036143b857600192505050610c17565b806143c281615a54565b91505061433c565b506000949350505050565b600081516000036143e857506000919050565b6000805b835181101561442e5783818151811061440757614407615710565b60200260200101518261441a9190615e23565b91508061442681615a54565b9150506143ec565b5092915050565b60006001600160a01b0384163b151580156144ba57506040516301ffc9a760e01b8152630a85bd0160e11b60048201526001600160a01b038516906301ffc9a790602401602060405180830381865afa158015614496573d6000803e3d6000fd5b505050506040513d601f19601f820116820180604052508101906144ba9190615d2b565b156145a757604051630a85bd0160e11b81526001600160a01b0385169063150b7a02906144f1903390899088908890600401615e43565b6020604051808303816000875af192505050801561452c575060408051601f3d908101601f1916820190925261452991810190615d7b565b60015b61458d573d80801561455a576040519150601f19603f3d011682016040523d82523d6000602084013e61455f565b606091505b508051600003613dbe576040516361ef2ab560e11b81526001600160a01b0386166004820152602401610bba565b6001600160e01b031916630a85bd0160e11b149050610e51565b506001610e51565b60006001600160e01b03198216630354d60560e61b14806145e057506001600160e01b031982166380ac58cd60e01b145b806145fb57506001600160e01b031982166370b0048160e11b145b8061461657506001600160e01b0319821663780e9d6360e01b145b80610c1757506301ffc9a760e01b6001600160e01b0319831614610c17565b61463e81612f11565b1561465c57604051630139222f60e31b815260040160405180910390fd5b60408051808201825282815281516000808252602082810190945292820152905061112f81614b26565b6000828152606e6020526040812054606d805483929081106146aa576146aa615710565b9060005260206000209060020201905060008160010180549050118015610e5157506000848152606c6020908152604080832086845290915290205460018201805485929081106146fd576146fd615710565b90600052602060002001541491505092915050565b6000828152606e6020526040812054606d8054909190811061473657614736615710565b60009182526020808320600160029093020182018054968452606c8252604080852087865283528420879055918601825590825290209092015550565b6000828152606e6020526040812054606d8054909190811061479757614797615710565b6000918252602082206001600290920201818101549093506147b99190615ad5565b905060008260010182815481106147d2576147d2615710565b6000918252602080832090910154878352606c8252604080842088855290925291205460018501805492935090918391908390811061481357614813615710565b600091825260208083209190910192909255878152606c825260408082208583529092528181208390558681529081205560018401805480613fb157613fb1615d98565b60606000614866836002615e80565b614871906002615a41565b6001600160401b0381111561488857614888614f3c565b6040519080825280601f01601f1916602001820160405280156148b2576020820181803683370190505b509050600360fc1b816000815181106148cd576148cd615710565b60200101906001600160f81b031916908160001a905350600f60fb1b816001815181106148fc576148fc615710565b60200101906001600160f81b031916908160001a9053506000614920846002615e80565b61492b906001615a41565b90505b60018111156149a3576f181899199a1a9b1b9c1cb0b131b232b360811b85600f166010811061495f5761495f615710565b1a60f81b82828151811061497557614975615710565b60200101906001600160f81b031916908160001a90535060049490941c9361499c81615e97565b905061492e565b508315610e185760405162461bcd60e51b815260206004820181905260248201527f537472696e67733a20686578206c656e67746820696e73756666696369656e746044820152606401610bba565b6149fb81614033565b6040516001600160a01b038216907fbc7cd75a20ee27fd9adebab32041f755214dbc6bffa90cc0225b39da2e5c2d3b90600090a250565b60606001600160a01b0383163b614a9a5760405162461bcd60e51b815260206004820152602660248201527f416464726573733a2064656c65676174652063616c6c20746f206e6f6e2d636f6044820152651b9d1c9858dd60d21b6064820152608401610bba565b600080846001600160a01b031684604051614ab59190615eae565b600060405180830381855af49150503d8060008114614af0576040519150601f19603f3d011682016040523d82523d6000602084013e614af5565b606091505b5091509150614b1d8282604051806060016040528060278152602001615f2b60279139614bab565b95945050505050565b606d805482516000908152606e602090815260408220839055600183018455929052825160029091027f5006b838207c6a9ae9b84d68f467dd4bb5c305fbfb6b04eab8faaabeec1e18d881019182558284015180518594611c2c937f5006b838207c6a9ae9b84d68f467dd4bb5c305fbfb6b04eab8faaabeec1e18d901920190614d14565b60608315614bba575081610e18565b825115614bca5782518084602001fd5b8160405162461bcd60e51b8152600401610bba9190614e9a565b604080516101c081019091526000815260208101614c00614dc2565b8152602001614c0d614dc2565b81526020016060815260200160608152602001606081526020016060815260200160008152602001600061ffff16815260200160001515815260200160608152602001606081526020016060815260200160006001600160a01b031681525090565b600183019183908215614d045791602002820160005b83821115614ccf57835183826101000a8154816001600160401b0302191690836001600160401b031602179055509260200192600801602081600701049283019260010302614c85565b8015614d025782816101000a8154906001600160401b030219169055600801602081600701049283019260010302614ccf565b505b50614d10929150614de0565b5090565b828054828255906000526020600020908101928215614d04579160200282015b82811115614d04578251825591602001919060010190614d34565b828054828255906000526020600020908101928215614d04579160200282015b82811115614d0457825182546001600160a01b0319166001600160a01b03909116178255602090920191600190910190614d6f565b5080546000825590600052602060002090810190610fb89190614de0565b60405180604001604052806002906020820280368337509192915050565b5b80821115614d105760008155600101614de1565b60008060408385031215614e0857600080fd5b50508035926020909101359150565b6001600160e01b031981168114610fb857600080fd5b600060208284031215614e3f57600080fd5b8135610e1881614e17565b60005b83811015614e65578181015183820152602001614e4d565b50506000910152565b60008151808452614e86816020860160208601614e4a565b601f01601f19169290920160200192915050565b602081526000610e186020830184614e6e565b600060208284031215614ebf57600080fd5b5035919050565b80356001600160a01b03811681146115e257600080fd5b60008060408385031215614ef057600080fd5b614ef983614ec6565b946020939093013593505050565b600080600060608486031215614f1c57600080fd5b83359250614f2c60208501614ec6565b9150604084013590509250925092565b634e487b7160e01b600052604160045260246000fd5b604051601f8201601f191681016001600160401b0381118282101715614f7a57614f7a614f3c565b604052919050565b80356001600160401b03811681146115e257600080fd5b600082601f830112614faa57600080fd5b604051604081018181106001600160401b0382111715614fcc57614fcc614f3c565b8060405250806040840185811115614fe357600080fd5b845b8181101561500457614ff681614f82565b835260209283019201614fe5565b509195945050505050565b60006001600160401b0382111561502857615028614f3c565b5060051b60200190565b600082601f83011261504357600080fd5b813560206150586150538361500f565b614f52565b82815260059290921b8401810191818101908684111561507757600080fd5b8286015b84811015615092578035835291830191830161507b565b509695505050505050565b60008060008060c085870312156150b357600080fd5b6150bd8686614f99565b935060408501356001600160401b03808211156150d957600080fd5b6150e588838901615032565b94506150f48860608901614f99565b935060a087013591508082111561510a57600080fd5b5061511787828801615032565b91505092959194509250565b60006001600160401b0382111561513c5761513c614f3c565b50601f01601f191660200190565b600082601f83011261515b57600080fd5b813561516961505382615123565b81815284602083860101111561517e57600080fd5b816020850160208301376000918101602001919091529392505050565b6000602082840312156151ad57600080fd5b81356001600160401b038111156151c357600080fd5b610e518482850161514a565b6000806000606084860312156151e457600080fd5b6151ed84614ec6565b9250614f2c60208501614ec6565b6000806040838503121561520e57600080fd5b8235915061521e60208401614ec6565b90509250929050565b60008060006060848603121561523c57600080fd5b505081359360208301359350604090920135919050565b60006020828403121561526557600080fd5b610e1882614ec6565b6000806040838503121561528157600080fd5b61528a83614ec6565b915060208301356001600160401b038111156152a557600080fd5b6152b18582860161514a565b9150509250929050565b6000806000604084860312156152d057600080fd5b8335925060208401356001600160401b03808211156152ee57600080fd5b818601915086601f83011261530257600080fd5b81358181111561531157600080fd5b8760208260051b850101111561532657600080fd5b6020830194508093505050509250925092565b8060005b6002811015611c2c5781516001600160401b031684526020938401939091019060010161533d565b600081518084526020808501945080840160005b8381101561539557815187529582019590820190600101615379565b509495945050505050565b600081518084526020808501945080840160005b838110156153955781516001600160a01b0316875295820195908201906001016153b4565b6020815281516020820152600060208301516153f86040840182615339565b50604083015161540b6080840182615339565b5060608301516102008060c0850152615428610220850183615365565b91506080850151601f19808685030160e08701526154468483615365565b935060a087015191506101008187860301818801526154658584615365565b945060c0880151925061012082888703018189015261548486856153a0565b955060e0890151935061014084818a0152828a0151945061016092506154af838a018661ffff169052565b908901519350610180906154c68983018615159052565b808a01519450506101a08389880301818a01526154e38786614e6e565b9650828a0151945083898803016101c08a01526155008786614e6e565b9650818a0151945083898803016101e08a015261551d8786614e6e565b9650808a015194505050505061553d828601826001600160a01b03169052565b5090949350505050565b8015158114610fb857600080fd5b6000806040838503121561556857600080fd5b61557183614ec6565b9150602083013561558181615547565b809150509250929050565b6000806000604084860312156155a157600080fd5b6155aa84614ec6565b925060208401356001600160401b03808211156155c657600080fd5b818601915086601f8301126155da57600080fd5b8135818111156155e957600080fd5b87602082850101111561532657600080fd5b6000806000806080858703121561561157600080fd5b61561a85614ec6565b935061562860208601614ec6565b92506040850135915060608501356001600160401b0381111561564a57600080fd5b6151178782880161514a565b6000602080838503121561566957600080fd5b82356001600160401b0381111561567f57600080fd5b8301601f8101851361569057600080fd5b803561569e6150538261500f565b81815260059190911b820183019083810190878311156156bd57600080fd5b928401925b828410156156db578335825292840192908401906156c2565b979650505050505050565b600080604083850312156156f957600080fd5b61570283614ec6565b915061521e60208401614ec6565b634e487b7160e01b600052603260045260246000fd5b60006020828403121561573857600080fd5b81516001600160401b0381111561574e57600080fd5b8201601f8101841361575f57600080fd5b805161576d61505382615123565b81815285602083850101111561578257600080fd5b614b1d826020830160208601614e4a565b61579d8186615339565b60c0604082015260006157b360c0830186615365565b6157c06060840186615339565b82810360a08401526156db8185615365565b600181811c908216806157e657607f821691505b60208210810361580657634e487b7160e01b600052602260045260246000fd5b50919050565b601f821115610d2257600081815260208120601f850160051c810160208610156158335750805b601f850160051c820191505b818110156116f75782815560010161583f565b81516001600160401b0381111561586b5761586b614f3c565b61587f8161587984546157d2565b8461580c565b602080601f8311600181146158b4576000841561589c5750858301515b600019600386901b1c1916600185901b1785556116f7565b600085815260208120601f198616915b828110156158e3578886015182559484019460019091019084016158c4565b50858210156159015787850151600019600388901b60f8161c191681555b5050505050600190811b01905550565b828152604060208201526000610e516040830184614e6e565b6020808252602e908201527f496e697469616c697a61626c653a20636f6e747261637420697320616c72656160408201526d191e481a5b9a5d1a585b1a5e995960921b606082015260800190565b6020808252602c908201527f46756e6374696f6e206d7573742062652063616c6c6564207468726f7567682060408201526b19195b1959d85d1958d85b1b60a21b606082015260800190565b6020808252602c908201527f46756e6374696f6e206d7573742062652063616c6c6564207468726f7567682060408201526b6163746976652070726f787960a01b606082015260800190565b634e487b7160e01b600052601160045260246000fd5b61ffff81811683821601908082111561442e5761442e615a10565b80820180821115610c1757610c17615a10565b600060018201615a6657615a66615a10565b5060010190565b8381526001600160a01b0383166020808301919091526060604083018190528351908301819052600091848101916080850190845b81811015615ac75784516001600160401b031683529383019391830191600101615aa2565b509098975050505050505050565b81810381811115610c1757610c17615a10565b600060208284031215615afa57600080fd5b5051919050565b600082601f830112615b1257600080fd5b81356020615b226150538361500f565b82815260059290921b84018101918181019086841115615b4157600080fd5b8286015b8481101561509257615b5681614ec6565b8352918301918301615b45565b600082601f830112615b7457600080fd5b81356020615b846150538361500f565b82815260059290921b84018101918181019086841115615ba357600080fd5b8286015b8481101561509257615bb881614f82565b8352918301918301615ba7565b6000806000806000806000806000806101808b8d031215615be557600080fd5b8a356001600160401b0380821115615bfc57600080fd5b615c088e838f01615032565b9b5060208d0135915080821115615c1e57600080fd5b615c2a8e838f01615032565b9a5060408d0135915080821115615c4057600080fd5b615c4c8e838f01615032565b9950615c5b8e60608f01614f99565b9850615c6a8e60a08f01614f99565b975060e08d0135915080821115615c8057600080fd5b615c8c8e838f01615b01565b96506101008d0135915080821115615ca357600080fd5b615caf8e838f0161514a565b95506101208d0135915080821115615cc657600080fd5b615cd28e838f0161514a565b94506101408d0135915080821115615ce957600080fd5b615cf58e838f0161514a565b93506101608d0135915080821115615d0c57600080fd5b50615d198d828e01615b63565b9150509295989b9194979a5092959850565b600060208284031215615d3d57600080fd5b8151610e1881615547565b60018060a01b038616815284602082015283604082015282606082015260a0608082015260006156db60a0830184614e6e565b600060208284031215615d8d57600080fd5b8151610e1881614e17565b634e487b7160e01b600052603160045260246000fd5b7f416363657373436f6e74726f6c3a206163636f756e7420000000000000000000815260008351615de6816017850160208801614e4a565b7001034b99036b4b9b9b4b733903937b6329607d1b6017918401918201528351615e17816028840160208801614e4a565b01602801949350505050565b6001600160401b0381811683821601908082111561442e5761442e615a10565b6001600160a01b0385811682528416602082015260408101839052608060608201819052600090615e7690830184614e6e565b9695505050505050565b8082028115828204841417610c1757610c17615a10565b600081615ea657615ea6615a10565b506000190190565b60008251615ec0818460208701614e4a565b919091019291505056fe189ab7a9244df0848122154315af71fe140f3db0fe014031783b0946b8c9d2e30b2aac84f3ec956911fd78eae5311062972ff949f38412e8da39069d9f068cc6360894a13ba1a3210667c828492db98dca3e2076cc3735a920a3ca505d382bbc416464726573733a206c6f772d6c6576656c2064656c65676174652063616c6c206661696c6564a164736f6c6343000811000a",
  "linkReferences": {},
  "deployedLinkReferences": {}
}